{
  "contractName": "DSThing",
  "abi": [
    {
      "constant": false,
      "inputs": [
        {
          "name": "owner_",
          "type": "address"
        }
      ],
      "name": "setOwner",
      "outputs": [],
      "payable": false,
      "stateMutability": "nonpayable",
      "type": "function"
    },
    {
      "constant": false,
      "inputs": [
        {
          "name": "authority_",
          "type": "address"
        }
      ],
      "name": "setAuthority",
      "outputs": [],
      "payable": false,
      "stateMutability": "nonpayable",
      "type": "function"
    },
    {
      "constant": true,
      "inputs": [],
      "name": "owner",
      "outputs": [
        {
          "name": "",
          "type": "address"
        }
      ],
      "payable": false,
      "stateMutability": "view",
      "type": "function"
    },
    {
      "constant": true,
      "inputs": [],
      "name": "authority",
      "outputs": [
        {
          "name": "",
          "type": "address"
        }
      ],
      "payable": false,
      "stateMutability": "view",
      "type": "function"
    },
    {
      "anonymous": true,
      "inputs": [
        {
          "indexed": true,
          "name": "sig",
          "type": "bytes4"
        },
        {
          "indexed": true,
          "name": "guy",
          "type": "address"
        },
        {
          "indexed": true,
          "name": "foo",
          "type": "bytes32"
        },
        {
          "indexed": true,
          "name": "bar",
          "type": "bytes32"
        },
        {
          "indexed": false,
          "name": "wad",
          "type": "uint256"
        },
        {
          "indexed": false,
          "name": "fax",
          "type": "bytes"
        }
      ],
      "name": "LogNote",
      "type": "event"
    },
    {
      "anonymous": false,
      "inputs": [
        {
          "indexed": true,
          "name": "authority",
          "type": "address"
        }
      ],
      "name": "LogSetAuthority",
      "type": "event"
    },
    {
      "anonymous": false,
      "inputs": [
        {
          "indexed": true,
          "name": "owner",
          "type": "address"
        }
      ],
      "name": "LogSetOwner",
      "type": "event"
    }
  ],
  "bytecode": "0x6080604081905260018054600160a060020a03191633908117909155907fce241d7ca1f669fee44b6fc00b8eba2df3bb514eed0f6f668f8f89096e81ed9490600090a261040d806100516000396000f3006080604052600436106100615763ffffffff7c010000000000000000000000000000000000000000000000000000000060003504166313af403581146100665780637a9e5e4b146100965780638da5cb5b146100c4578063bf7e214f14610102575b600080fd5b34801561007257600080fd5b5061009473ffffffffffffffffffffffffffffffffffffffff60043516610117565b005b3480156100a257600080fd5b5061009473ffffffffffffffffffffffffffffffffffffffff600435166101b4565b3480156100d057600080fd5b506100d9610248565b6040805173ffffffffffffffffffffffffffffffffffffffff9092168252519081900360200190f35b34801561010e57600080fd5b506100d9610264565b61014a610145336000357bffffffffffffffffffffffffffffffffffffffffffffffffffffffff1916610280565b6103d2565b6001805473ffffffffffffffffffffffffffffffffffffffff191673ffffffffffffffffffffffffffffffffffffffff83811691909117918290556040519116907fce241d7ca1f669fee44b6fc00b8eba2df3bb514eed0f6f668f8f89096e81ed9490600090a250565b6101e2610145336000357bffffffffffffffffffffffffffffffffffffffffffffffffffffffff1916610280565b6000805473ffffffffffffffffffffffffffffffffffffffff191673ffffffffffffffffffffffffffffffffffffffff838116919091178083556040519116917f1abebea81bfa2637f28358c371278fb15ede7ea8dd28d2e03b112ff6d936ada491a250565b60015473ffffffffffffffffffffffffffffffffffffffff1681565b60005473ffffffffffffffffffffffffffffffffffffffff1681565b600073ffffffffffffffffffffffffffffffffffffffff83163014156102a8575060016103cc565b60015473ffffffffffffffffffffffffffffffffffffffff848116911614156102d3575060016103cc565b60005473ffffffffffffffffffffffffffffffffffffffff1615156102fa575060006103cc565b60008054604080517fb700961300000000000000000000000000000000000000000000000000000000815273ffffffffffffffffffffffffffffffffffffffff87811660048301523060248301527bffffffffffffffffffffffffffffffffffffffffffffffffffffffff19871660448301529151919092169263b700961392606480820193602093909283900390910190829087803b15801561039d57600080fd5b505af11580156103b1573d6000803e3d6000fd5b505050506040513d60208110156103c757600080fd5b505190505b92915050565b8015156103de57600080fd5b505600a165627a7a72305820de9c657bd5a05d2e6e3f32d74a0134bc02beca91361258832a330aa7e60a79c30029",
  "source": "// This is a mock implementation of the MakerDAO medianizer contract. It has the\n// same interfaces as the publicly deployed contracts that can be found here:\n//1) kovan: https://kovan.etherscan.io/address/0x9FfFE440258B79c5d6604001674A4722FfC0f7Bc#code\n//2) mainnet: https://etherscan.io/address/0x729D19f657BD0614b4985Cf1D82531c67569197B#readContract\n// To get the ether price in USD as a bytes32 from the medianizer you must call the\n// read() function. This functions implementation has been changed in the mock to return\n// a value of 130 usd/ether for testing purposes. The rest of the contract and it's logic\n// has been left the same.\n\n\n/// return median value of feeds\n\n// Copyright (C) 2017  DappHub, LLC\n\n// Licensed under the Apache License, Version 2.0 (the \"License\").\n// You may not use this file except in compliance with the License.\n\n// Unless required by applicable law or agreed to in writing, software\n// distributed under the License is distributed on an \"AS IS\" BASIS,\n// WITHOUT WARRANTIES OR CONDITIONS OF ANY KIND (express or implied).\n\npragma solidity ^0.4.8;\n\ncontract DSAuthority {\n    function canCall(\n        address src, address dst, bytes4 sig\n    ) constant returns (bool);\n}\n\ncontract DSAuthEvents {\n    event LogSetAuthority (address indexed authority);\n    event LogSetOwner     (address indexed owner);\n}\n\ncontract DSAuth is DSAuthEvents {\n    DSAuthority  public  authority;\n    address      public  owner;\n\n    function DSAuth() {\n        owner = msg.sender;\n        LogSetOwner(msg.sender);\n    }\n\n    function setOwner(address owner_)\n        auth\n    {\n        owner = owner_;\n        LogSetOwner(owner);\n    }\n\n    function setAuthority(DSAuthority authority_)\n        auth\n    {\n        authority = authority_;\n        LogSetAuthority(authority);\n    }\n\n    modifier auth {\n        assert(isAuthorized(msg.sender, msg.sig));\n        _;\n    }\n\n    modifier authorized(bytes4 sig) {\n        assert(isAuthorized(msg.sender, sig));\n        _;\n    }\n\n    function isAuthorized(address src, bytes4 sig) internal returns (bool) {\n        if (src == address(this)) {\n            return true;\n        } else if (src == owner) {\n            return true;\n        } else if (authority == DSAuthority(0)) {\n            return false;\n        } else {\n            return authority.canCall(src, this, sig);\n        }\n    }\n\n    function assert(bool x) internal {\n        if (!x) throw;\n    }\n}\n\ncontract DSNote {\n    event LogNote(\n        bytes4   indexed  sig,\n        address  indexed  guy,\n        bytes32  indexed  foo,\n        bytes32  indexed  bar,\n\tuint\t \t  wad,\n        bytes             fax\n    ) anonymous;\n\n    modifier note {\n        bytes32 foo;\n        bytes32 bar;\n\n        assembly {\n            foo := calldataload(4)\n            bar := calldataload(36)\n        }\n\n        LogNote(msg.sig, msg.sender, foo, bar, msg.value, msg.data);\n\n        _;\n    }\n}\n\ncontract DSMath {\n\n    /*\n    standard uint256 functions\n     */\n\n    function add(uint256 x, uint256 y) constant internal returns (uint256 z) {\n        assert((z = x + y) >= x);\n    }\n\n    function sub(uint256 x, uint256 y) constant internal returns (uint256 z) {\n        assert((z = x - y) <= x);\n    }\n\n    function mul(uint256 x, uint256 y) constant internal returns (uint256 z) {\n        assert((z = x * y) >= x);\n    }\n\n    function div(uint256 x, uint256 y) constant internal returns (uint256 z) {\n        z = x / y;\n    }\n\n    function min(uint256 x, uint256 y) constant internal returns (uint256 z) {\n        return x <= y ? x : y;\n    }\n    function max(uint256 x, uint256 y) constant internal returns (uint256 z) {\n        return x >= y ? x : y;\n    }\n\n    /*\n    uint128 functions (h is for half)\n     */\n\n\n    function hadd(uint128 x, uint128 y) constant internal returns (uint128 z) {\n        assert((z = x + y) >= x);\n    }\n\n    function hsub(uint128 x, uint128 y) constant internal returns (uint128 z) {\n        assert((z = x - y) <= x);\n    }\n\n    function hmul(uint128 x, uint128 y) constant internal returns (uint128 z) {\n        assert((z = x * y) >= x);\n    }\n\n    function hdiv(uint128 x, uint128 y) constant internal returns (uint128 z) {\n        z = x / y;\n    }\n\n    function hmin(uint128 x, uint128 y) constant internal returns (uint128 z) {\n        return x <= y ? x : y;\n    }\n    function hmax(uint128 x, uint128 y) constant internal returns (uint128 z) {\n        return x >= y ? x : y;\n    }\n\n\n    /*\n    int256 functions\n     */\n\n    function imin(int256 x, int256 y) constant internal returns (int256 z) {\n        return x <= y ? x : y;\n    }\n    function imax(int256 x, int256 y) constant internal returns (int256 z) {\n        return x >= y ? x : y;\n    }\n\n    /*\n    WAD math\n     */\n\n    uint128 constant WAD = 10 ** 18;\n\n    function wadd(uint128 x, uint128 y) constant internal returns (uint128) {\n        return hadd(x, y);\n    }\n\n    function wsub(uint128 x, uint128 y) constant internal returns (uint128) {\n        return hsub(x, y);\n    }\n\n    function wmul(uint128 x, uint128 y) constant internal returns (uint128 z) {\n        z = cast((uint256(x) * y + WAD / 2) / WAD);\n    }\n\n    function wdiv(uint128 x, uint128 y) constant internal returns (uint128 z) {\n        z = cast((uint256(x) * WAD + y / 2) / y);\n    }\n\n    function wmin(uint128 x, uint128 y) constant internal returns (uint128) {\n        return hmin(x, y);\n    }\n    function wmax(uint128 x, uint128 y) constant internal returns (uint128) {\n        return hmax(x, y);\n    }\n\n    /*\n    RAY math\n     */\n\n    uint128 constant RAY = 10 ** 27;\n\n    function radd(uint128 x, uint128 y) constant internal returns (uint128) {\n        return hadd(x, y);\n    }\n\n    function rsub(uint128 x, uint128 y) constant internal returns (uint128) {\n        return hsub(x, y);\n    }\n\n    function rmul(uint128 x, uint128 y) constant internal returns (uint128 z) {\n        z = cast((uint256(x) * y + RAY / 2) / RAY);\n    }\n\n    function rdiv(uint128 x, uint128 y) constant internal returns (uint128 z) {\n        z = cast((uint256(x) * RAY + y / 2) / y);\n    }\n\n    function rpow(uint128 x, uint64 n) constant internal returns (uint128 z) {\n        // This famous algorithm is called \"exponentiation by squaring\"\n        // and calculates x^n with x as fixed-point and n as regular unsigned.\n        //\n        // It's O(log n), instead of O(n) for naive repeated multiplication.\n        //\n        // These facts are why it works:\n        //\n        //  If n is even, then x^n = (x^2)^(n/2).\n        //  If n is odd,  then x^n = x * x^(n-1),\n        //   and applying the equation for even x gives\n        //    x^n = x * (x^2)^((n-1) / 2).\n        //\n        //  Also, EVM division is flooring and\n        //    floor[(n-1) / 2] = floor[n / 2].\n\n        z = n % 2 != 0 ? x : RAY;\n\n        for (n /= 2; n != 0; n /= 2) {\n            x = rmul(x, x);\n\n            if (n % 2 != 0) {\n                z = rmul(z, x);\n            }\n        }\n    }\n\n    function rmin(uint128 x, uint128 y) constant internal returns (uint128) {\n        return hmin(x, y);\n    }\n    function rmax(uint128 x, uint128 y) constant internal returns (uint128) {\n        return hmax(x, y);\n    }\n\n    function cast(uint256 x) constant internal returns (uint128 z) {\n        assert((z = uint128(x)) == x);\n    }\n\n}\n\ncontract DSThing is DSAuth, DSNote, DSMath {\n}\n\ncontract DSValue is DSThing {\n    bool    has;\n    bytes32 val;\n    function peek() constant returns (bytes32, bool) {\n        return (val,has);\n    }\n    function read() constant returns (bytes32) {\n        return bytes32(130 ether);\n    }\n    function poke(bytes32 wut) note auth {\n        val = wut;\n        has = true;\n    }\n    function void() note auth { // unset the value\n        has = false;\n    }\n}\n\ncontract MedianizerMock is DSValue {\n    mapping (bytes12 => address) public values;\n    mapping (address => bytes12) public indexes;\n    bytes12 public next = 0x1;\n\n    uint96 public min = 0x1;\n\n    function set(address wat) auth {\n        bytes12 nextId = bytes12(uint96(next) + 1);\n        assert(nextId != 0x0);\n        set(next, wat);\n        next = nextId;\n    }\n\n    function set(bytes12 pos, address wat) note auth {\n        if (pos == 0x0) throw;\n\n        if (wat != 0 && indexes[wat] != 0) throw;\n\n        indexes[values[pos]] = 0; // Making sure to remove a possible existing address in that position\n\n        if (wat != 0) {\n            indexes[wat] = pos;\n        }\n\n        values[pos] = wat;\n    }\n\n    function setMin(uint96 min_) note auth {\n        if (min_ == 0x0) throw;\n        min = min_;\n    }\n\n    function setNext(bytes12 next_) note auth {\n        if (next_ == 0x0) throw;\n        next = next_;\n    }\n\n    function unset(bytes12 pos) {\n        set(pos, 0);\n    }\n\n    function unset(address wat) {\n        set(indexes[wat], 0);\n    }\n\n    function poke() {\n        poke(0);\n    }\n\n    function poke(bytes32) note {\n        (val, has) = compute();\n    }\n\n    function compute() constant returns (bytes32, bool) {\n        bytes32[] memory wuts = new bytes32[](uint96(next) - 1);\n        uint96 ctr = 0;\n        for (uint96 i = 1; i < uint96(next); i++) {\n            if (values[bytes12(i)] != 0) {\n                var (wut, wuz) = DSValue(values[bytes12(i)]).peek();\n                if (wuz) {\n                    if (ctr == 0 || wut >= wuts[ctr - 1]) {\n                        wuts[ctr] = wut;\n                    } else {\n                        uint96 j = 0;\n                        while (wut >= wuts[j]) {\n                            j++;\n                        }\n                        for (uint96 k = ctr; k > j; k--) {\n                            wuts[k] = wuts[k - 1];\n                        }\n                        wuts[j] = wut;\n                    }\n                    ctr++;\n                }\n            }\n        }\n\n        if (ctr < min) return (val, false);\n\n        bytes32 value;\n        if (ctr % 2 == 0) {\n            uint128 val1 = uint128(wuts[(ctr / 2) - 1]);\n            uint128 val2 = uint128(wuts[ctr / 2]);\n            value = bytes32(wdiv(hadd(val1, val2), 2 ether));\n        } else {\n            value = wuts[(ctr - 1) / 2];\n        }\n\n        return (value, true);\n    }\n\n}\n",
  "sourcePath": "/Users/jamesmorgan/Dropbox/workspace-blockrocket/radi.cards/contracts/mocks/MedianizerMock.sol",
  "compiler": {
    "name": "solc",
    "version": "0.4.24+commit.e67f0147.Emscripten.clang"
  },
  "schemaVersion": "3.0.1",
  "updatedAt": "2019-01-28T21:23:07.137Z",
  "devdoc": {
    "methods": {}
  },
  "userdoc": {
    "methods": {}
  }
}