{
  "contractName": "ERC721Token",
  "abi": [
    {
      "constant": true,
      "inputs": [
        {
          "name": "_interfaceId",
          "type": "bytes4"
        }
      ],
      "name": "supportsInterface",
      "outputs": [
        {
          "name": "",
          "type": "bool"
        }
      ],
      "payable": false,
      "stateMutability": "view",
      "type": "function"
    },
    {
      "constant": true,
      "inputs": [
        {
          "name": "_tokenId",
          "type": "uint256"
        }
      ],
      "name": "getApproved",
      "outputs": [
        {
          "name": "",
          "type": "address"
        }
      ],
      "payable": false,
      "stateMutability": "view",
      "type": "function"
    },
    {
      "constant": false,
      "inputs": [
        {
          "name": "_to",
          "type": "address"
        },
        {
          "name": "_tokenId",
          "type": "uint256"
        }
      ],
      "name": "approve",
      "outputs": [],
      "payable": false,
      "stateMutability": "nonpayable",
      "type": "function"
    },
    {
      "constant": true,
      "inputs": [],
      "name": "InterfaceId_ERC165",
      "outputs": [
        {
          "name": "",
          "type": "bytes4"
        }
      ],
      "payable": false,
      "stateMutability": "view",
      "type": "function"
    },
    {
      "constant": false,
      "inputs": [
        {
          "name": "_from",
          "type": "address"
        },
        {
          "name": "_to",
          "type": "address"
        },
        {
          "name": "_tokenId",
          "type": "uint256"
        }
      ],
      "name": "transferFrom",
      "outputs": [],
      "payable": false,
      "stateMutability": "nonpayable",
      "type": "function"
    },
    {
      "constant": false,
      "inputs": [
        {
          "name": "_from",
          "type": "address"
        },
        {
          "name": "_to",
          "type": "address"
        },
        {
          "name": "_tokenId",
          "type": "uint256"
        }
      ],
      "name": "safeTransferFrom",
      "outputs": [],
      "payable": false,
      "stateMutability": "nonpayable",
      "type": "function"
    },
    {
      "constant": true,
      "inputs": [
        {
          "name": "_tokenId",
          "type": "uint256"
        }
      ],
      "name": "exists",
      "outputs": [
        {
          "name": "",
          "type": "bool"
        }
      ],
      "payable": false,
      "stateMutability": "view",
      "type": "function"
    },
    {
      "constant": true,
      "inputs": [
        {
          "name": "_tokenId",
          "type": "uint256"
        }
      ],
      "name": "ownerOf",
      "outputs": [
        {
          "name": "",
          "type": "address"
        }
      ],
      "payable": false,
      "stateMutability": "view",
      "type": "function"
    },
    {
      "constant": true,
      "inputs": [
        {
          "name": "_owner",
          "type": "address"
        }
      ],
      "name": "balanceOf",
      "outputs": [
        {
          "name": "",
          "type": "uint256"
        }
      ],
      "payable": false,
      "stateMutability": "view",
      "type": "function"
    },
    {
      "constant": false,
      "inputs": [
        {
          "name": "_to",
          "type": "address"
        },
        {
          "name": "_approved",
          "type": "bool"
        }
      ],
      "name": "setApprovalForAll",
      "outputs": [],
      "payable": false,
      "stateMutability": "nonpayable",
      "type": "function"
    },
    {
      "constant": false,
      "inputs": [
        {
          "name": "_from",
          "type": "address"
        },
        {
          "name": "_to",
          "type": "address"
        },
        {
          "name": "_tokenId",
          "type": "uint256"
        },
        {
          "name": "_data",
          "type": "bytes"
        }
      ],
      "name": "safeTransferFrom",
      "outputs": [],
      "payable": false,
      "stateMutability": "nonpayable",
      "type": "function"
    },
    {
      "constant": true,
      "inputs": [
        {
          "name": "_owner",
          "type": "address"
        },
        {
          "name": "_operator",
          "type": "address"
        }
      ],
      "name": "isApprovedForAll",
      "outputs": [
        {
          "name": "",
          "type": "bool"
        }
      ],
      "payable": false,
      "stateMutability": "view",
      "type": "function"
    },
    {
      "inputs": [
        {
          "name": "_name",
          "type": "string"
        },
        {
          "name": "_symbol",
          "type": "string"
        }
      ],
      "payable": false,
      "stateMutability": "nonpayable",
      "type": "constructor"
    },
    {
      "anonymous": false,
      "inputs": [
        {
          "indexed": true,
          "name": "_from",
          "type": "address"
        },
        {
          "indexed": true,
          "name": "_to",
          "type": "address"
        },
        {
          "indexed": true,
          "name": "_tokenId",
          "type": "uint256"
        }
      ],
      "name": "Transfer",
      "type": "event"
    },
    {
      "anonymous": false,
      "inputs": [
        {
          "indexed": true,
          "name": "_owner",
          "type": "address"
        },
        {
          "indexed": true,
          "name": "_approved",
          "type": "address"
        },
        {
          "indexed": true,
          "name": "_tokenId",
          "type": "uint256"
        }
      ],
      "name": "Approval",
      "type": "event"
    },
    {
      "anonymous": false,
      "inputs": [
        {
          "indexed": true,
          "name": "_owner",
          "type": "address"
        },
        {
          "indexed": true,
          "name": "_operator",
          "type": "address"
        },
        {
          "indexed": false,
          "name": "_approved",
          "type": "bool"
        }
      ],
      "name": "ApprovalForAll",
      "type": "event"
    },
    {
      "constant": true,
      "inputs": [],
      "name": "name",
      "outputs": [
        {
          "name": "",
          "type": "string"
        }
      ],
      "payable": false,
      "stateMutability": "view",
      "type": "function"
    },
    {
      "constant": true,
      "inputs": [],
      "name": "symbol",
      "outputs": [
        {
          "name": "",
          "type": "string"
        }
      ],
      "payable": false,
      "stateMutability": "view",
      "type": "function"
    },
    {
      "constant": true,
      "inputs": [
        {
          "name": "_tokenId",
          "type": "uint256"
        }
      ],
      "name": "tokenURI",
      "outputs": [
        {
          "name": "",
          "type": "string"
        }
      ],
      "payable": false,
      "stateMutability": "view",
      "type": "function"
    },
    {
      "constant": true,
      "inputs": [
        {
          "name": "_owner",
          "type": "address"
        },
        {
          "name": "_index",
          "type": "uint256"
        }
      ],
      "name": "tokenOfOwnerByIndex",
      "outputs": [
        {
          "name": "",
          "type": "uint256"
        }
      ],
      "payable": false,
      "stateMutability": "view",
      "type": "function"
    },
    {
      "constant": true,
      "inputs": [],
      "name": "totalSupply",
      "outputs": [
        {
          "name": "",
          "type": "uint256"
        }
      ],
      "payable": false,
      "stateMutability": "view",
      "type": "function"
    },
    {
      "constant": true,
      "inputs": [
        {
          "name": "_index",
          "type": "uint256"
        }
      ],
      "name": "tokenByIndex",
      "outputs": [
        {
          "name": "",
          "type": "uint256"
        }
      ],
      "payable": false,
      "stateMutability": "view",
      "type": "function"
    }
  ],
  "bytecode": "0x60806040523480156200001157600080fd5b5060405162001eaf38038062001eaf83398101806040528101908080518201929190602001805182019291905050506200007d6301ffc9a77c010000000000000000000000000000000000000000000000000000000002620001ab640100000000026401000000009004565b620000ba6380ac58cd7c010000000000000000000000000000000000000000000000000000000002620001ab640100000000026401000000009004565b620000f7634f558e797c010000000000000000000000000000000000000000000000000000000002620001ab640100000000026401000000009004565b81600590805190602001906200010f92919062000269565b5080600690805190602001906200012892919062000269565b506200016663780e9d637c010000000000000000000000000000000000000000000000000000000002620001ab640100000000026401000000009004565b620001a3635b5e139f7c010000000000000000000000000000000000000000000000000000000002620001ab640100000000026401000000009004565b505062000318565b63ffffffff7c010000000000000000000000000000000000000000000000000000000002817bffffffffffffffffffffffffffffffffffffffffffffffffffffffff191614151515620001fd57600080fd5b6001600080837bffffffffffffffffffffffffffffffffffffffffffffffffffffffff19167bffffffffffffffffffffffffffffffffffffffffffffffffffffffff1916815260200190815260200160002060006101000a81548160ff02191690831515021790555050565b828054600181600116156101000203166002900490600052602060002090601f016020900481019282601f10620002ac57805160ff1916838001178555620002dd565b82800160010185558215620002dd579182015b82811115620002dc578251825591602001919060010190620002bf565b5b509050620002ec9190620002f0565b5090565b6200031591905b8082111562000311576000816000905550600101620002f7565b5090565b90565b611b8780620003286000396000f3006080604052600436106100fc576000357c0100000000000000000000000000000000000000000000000000000000900463ffffffff16806301ffc9a71461010157806306fdde0314610165578063081812fc146101f5578063095ea7b31461026257806318160ddd146102af57806319fa8f50146102da57806323b872dd146103435780632f745c59146103b057806342842e0e146104115780634f558e791461047e5780634f6ccce7146104c35780636352211e1461050457806370a082311461057157806395d89b41146105c8578063a22cb46514610658578063b88d4fde146106a7578063c87b56dd1461075a578063e985e9c514610800575b600080fd5b34801561010d57600080fd5b5061014b60048036038101908080357bffffffffffffffffffffffffffffffffffffffffffffffffffffffff1916906020019092919050505061087b565b604051808215151515815260200191505060405180910390f35b34801561017157600080fd5b5061017a6108e2565b6040518080602001828103825283818151815260200191508051906020019080838360005b838110156101ba57808201518184015260208101905061019f565b50505050905090810190601f1680156101e75780820380516001836020036101000a031916815260200191505b509250505060405180910390f35b34801561020157600080fd5b5061022060048036038101908080359060200190929190505050610984565b604051808273ffffffffffffffffffffffffffffffffffffffff1673ffffffffffffffffffffffffffffffffffffffff16815260200191505060405180910390f35b34801561026e57600080fd5b506102ad600480360381019080803573ffffffffffffffffffffffffffffffffffffffff169060200190929190803590602001909291905050506109c1565b005b3480156102bb57600080fd5b506102c4610b06565b6040518082815260200191505060405180910390f35b3480156102e657600080fd5b506102ef610b13565b60405180827bffffffffffffffffffffffffffffffffffffffffffffffffffffffff19167bffffffffffffffffffffffffffffffffffffffffffffffffffffffff1916815260200191505060405180910390f35b34801561034f57600080fd5b506103ae600480360381019080803573ffffffffffffffffffffffffffffffffffffffff169060200190929190803573ffffffffffffffffffffffffffffffffffffffff16906020019092919080359060200190929190505050610b3a565b005b3480156103bc57600080fd5b506103fb600480360381019080803573ffffffffffffffffffffffffffffffffffffffff16906020019092919080359060200190929190505050610c45565b6040518082815260200191505060405180910390f35b34801561041d57600080fd5b5061047c600480360381019080803573ffffffffffffffffffffffffffffffffffffffff169060200190929190803573ffffffffffffffffffffffffffffffffffffffff16906020019092919080359060200190929190505050610cbc565b005b34801561048a57600080fd5b506104a960048036038101908080359060200190929190505050610cdd565b604051808215151515815260200191505060405180910390f35b3480156104cf57600080fd5b506104ee60048036038101908080359060200190929190505050610d4f565b6040518082815260200191505060405180910390f35b34801561051057600080fd5b5061052f60048036038101908080359060200190929190505050610d87565b604051808273ffffffffffffffffffffffffffffffffffffffff1673ffffffffffffffffffffffffffffffffffffffff16815260200191505060405180910390f35b34801561057d57600080fd5b506105b2600480360381019080803573ffffffffffffffffffffffffffffffffffffffff169060200190929190505050610e05565b6040518082815260200191505060405180910390f35b3480156105d457600080fd5b506105dd610e89565b6040518080602001828103825283818151815260200191508051906020019080838360005b8381101561061d578082015181840152602081019050610602565b50505050905090810190601f16801561064a5780820380516001836020036101000a031916815260200191505b509250505060405180910390f35b34801561066457600080fd5b506106a5600480360381019080803573ffffffffffffffffffffffffffffffffffffffff169060200190929190803515159060200190929190505050610f2b565b005b3480156106b357600080fd5b50610758600480360381019080803573ffffffffffffffffffffffffffffffffffffffff169060200190929190803573ffffffffffffffffffffffffffffffffffffffff16906020019092919080359060200190929190803590602001908201803590602001908080601f0160208091040260200160405190810160405280939291908181526020018383808284378201915050505050509192919290505050611067565b005b34801561076657600080fd5b506107856004803603810190808035906020019092919050505061108f565b6040518080602001828103825283818151815260200191508051906020019080838360005b838110156107c55780820151818401526020810190506107aa565b50505050905090810190601f1680156107f25780820380516001836020036101000a031916815260200191505b509250505060405180910390f35b34801561080c57600080fd5b50610861600480360381019080803573ffffffffffffffffffffffffffffffffffffffff169060200190929190803573ffffffffffffffffffffffffffffffffffffffff169060200190929190505050611158565b604051808215151515815260200191505060405180910390f35b6000806000837bffffffffffffffffffffffffffffffffffffffffffffffffffffffff19167bffffffffffffffffffffffffffffffffffffffffffffffffffffffff1916815260200190815260200160002060009054906101000a900460ff169050919050565b606060058054600181600116156101000203166002900480601f01602080910402602001604051908101604052809291908181526020018280546001816001161561010002031660029004801561097a5780601f1061094f5761010080835404028352916020019161097a565b820191906000526020600020905b81548152906001019060200180831161095d57829003601f168201915b5050505050905090565b60006002600083815260200190815260200160002060009054906101000a900473ffffffffffffffffffffffffffffffffffffffff169050919050565b60006109cc82610d87565b90508073ffffffffffffffffffffffffffffffffffffffff168373ffffffffffffffffffffffffffffffffffffffff1614151515610a0957600080fd5b8073ffffffffffffffffffffffffffffffffffffffff163373ffffffffffffffffffffffffffffffffffffffff161480610a495750610a488133611158565b5b1515610a5457600080fd5b826002600084815260200190815260200160002060006101000a81548173ffffffffffffffffffffffffffffffffffffffff021916908373ffffffffffffffffffffffffffffffffffffffff160217905550818373ffffffffffffffffffffffffffffffffffffffff168273ffffffffffffffffffffffffffffffffffffffff167f8c5be1e5ebec7d5bd14f71427d1e84f3dd0314c0f7b2291e5b200ac8c7c3b92560405160405180910390a4505050565b6000600980549050905090565b6301ffc9a77c01000000000000000000000000000000000000000000000000000000000281565b610b4433826111ec565b1515610b4f57600080fd5b600073ffffffffffffffffffffffffffffffffffffffff168373ffffffffffffffffffffffffffffffffffffffff1614151515610b8b57600080fd5b600073ffffffffffffffffffffffffffffffffffffffff168273ffffffffffffffffffffffffffffffffffffffff1614151515610bc757600080fd5b610bd18382611281565b610bdb8382611384565b610be58282611540565b808273ffffffffffffffffffffffffffffffffffffffff168473ffffffffffffffffffffffffffffffffffffffff167fddf252ad1be2c89b69c2b068fc378daa952ba7f163c4a11628f55a4df523b3ef60405160405180910390a4505050565b6000610c5083610e05565b82101515610c5d57600080fd5b600760008473ffffffffffffffffffffffffffffffffffffffff1673ffffffffffffffffffffffffffffffffffffffff16815260200190815260200160002082815481101515610ca957fe5b9060005260206000200154905092915050565b610cd88383836020604051908101604052806000815250611067565b505050565b6000806001600084815260200190815260200160002060009054906101000a900473ffffffffffffffffffffffffffffffffffffffff169050600073ffffffffffffffffffffffffffffffffffffffff168173ffffffffffffffffffffffffffffffffffffffff161415915050919050565b6000610d59610b06565b82101515610d6657600080fd5b600982815481101515610d7557fe5b90600052602060002001549050919050565b6000806001600084815260200190815260200160002060009054906101000a900473ffffffffffffffffffffffffffffffffffffffff169050600073ffffffffffffffffffffffffffffffffffffffff168173ffffffffffffffffffffffffffffffffffffffff1614151515610dfc57600080fd5b80915050919050565b60008073ffffffffffffffffffffffffffffffffffffffff168273ffffffffffffffffffffffffffffffffffffffff1614151515610e4257600080fd5b600360008373ffffffffffffffffffffffffffffffffffffffff1673ffffffffffffffffffffffffffffffffffffffff168152602001908152602001600020549050919050565b606060068054600181600116156101000203166002900480601f016020809104026020016040519081016040528092919081815260200182805460018160011615610100020316600290048015610f215780601f10610ef657610100808354040283529160200191610f21565b820191906000526020600020905b815481529060010190602001808311610f0457829003601f168201915b5050505050905090565b3373ffffffffffffffffffffffffffffffffffffffff168273ffffffffffffffffffffffffffffffffffffffff1614151515610f6657600080fd5b80600460003373ffffffffffffffffffffffffffffffffffffffff1673ffffffffffffffffffffffffffffffffffffffff16815260200190815260200160002060008473ffffffffffffffffffffffffffffffffffffffff1673ffffffffffffffffffffffffffffffffffffffff16815260200190815260200160002060006101000a81548160ff0219169083151502179055508173ffffffffffffffffffffffffffffffffffffffff163373ffffffffffffffffffffffffffffffffffffffff167f17307eab39ab6107e8899845ad3d59bd9653f200f220920489ca2b5937696c3183604051808215151515815260200191505060405180910390a35050565b611072848484610b3a565b61107e84848484611617565b151561108957600080fd5b50505050565b606061109a82610cdd565b15156110a557600080fd5b600b60008381526020019081526020016000208054600181600116156101000203166002900480601f01602080910402602001604051908101604052809291908181526020018280546001816001161561010002031660029004801561114c5780601f106111215761010080835404028352916020019161114c565b820191906000526020600020905b81548152906001019060200180831161112f57829003601f168201915b50505050509050919050565b6000600460008473ffffffffffffffffffffffffffffffffffffffff1673ffffffffffffffffffffffffffffffffffffffff16815260200190815260200160002060008373ffffffffffffffffffffffffffffffffffffffff1673ffffffffffffffffffffffffffffffffffffffff16815260200190815260200160002060009054906101000a900460ff16905092915050565b6000806111f883610d87565b90508073ffffffffffffffffffffffffffffffffffffffff168473ffffffffffffffffffffffffffffffffffffffff16148061126757508373ffffffffffffffffffffffffffffffffffffffff1661124f84610984565b73ffffffffffffffffffffffffffffffffffffffff16145b8061127857506112778185611158565b5b91505092915050565b8173ffffffffffffffffffffffffffffffffffffffff166112a182610d87565b73ffffffffffffffffffffffffffffffffffffffff161415156112c357600080fd5b600073ffffffffffffffffffffffffffffffffffffffff166002600083815260200190815260200160002060009054906101000a900473ffffffffffffffffffffffffffffffffffffffff1673ffffffffffffffffffffffffffffffffffffffff161415156113805760006002600083815260200190815260200160002060006101000a81548173ffffffffffffffffffffffffffffffffffffffff021916908373ffffffffffffffffffffffffffffffffffffffff1602179055505b5050565b60008060006113938585611839565b600860008581526020019081526020016000205492506113ff6001600760008873ffffffffffffffffffffffffffffffffffffffff1673ffffffffffffffffffffffffffffffffffffffff1681526020019081526020016000208054905061196890919063ffffffff16565b9150600760008673ffffffffffffffffffffffffffffffffffffffff1673ffffffffffffffffffffffffffffffffffffffff1681526020019081526020016000208281548110151561144d57fe5b9060005260206000200154905080600760008773ffffffffffffffffffffffffffffffffffffffff1673ffffffffffffffffffffffffffffffffffffffff168152602001908152602001600020848154811015156114a757fe5b9060005260206000200181905550600760008673ffffffffffffffffffffffffffffffffffffffff1673ffffffffffffffffffffffffffffffffffffffff1681526020019081526020016000208054809190600190036115079190611b0a565b50600060086000868152602001908152602001600020819055508260086000838152602001908152602001600020819055505050505050565b600061154c8383611981565b600760008473ffffffffffffffffffffffffffffffffffffffff1673ffffffffffffffffffffffffffffffffffffffff168152602001908152602001600020805490509050600760008473ffffffffffffffffffffffffffffffffffffffff1673ffffffffffffffffffffffffffffffffffffffff168152602001908152602001600020829080600181540180825580915050906001820390600052602060002001600090919290919091505550806008600084815260200190815260200160002081905550505050565b6000806116398573ffffffffffffffffffffffffffffffffffffffff16611adb565b15156116485760019150611830565b8473ffffffffffffffffffffffffffffffffffffffff1663150b7a02338887876040518563ffffffff167c0100000000000000000000000000000000000000000000000000000000028152600401808573ffffffffffffffffffffffffffffffffffffffff1673ffffffffffffffffffffffffffffffffffffffff1681526020018473ffffffffffffffffffffffffffffffffffffffff1673ffffffffffffffffffffffffffffffffffffffff16815260200183815260200180602001828103825283818151815260200191508051906020019080838360005b8381101561173d578082015181840152602081019050611722565b50505050905090810190601f16801561176a5780820380516001836020036101000a031916815260200191505b5095505050505050602060405180830381600087803b15801561178c57600080fd5b505af11580156117a0573d6000803e3d6000fd5b505050506040513d60208110156117b657600080fd5b8101908080519060200190929190505050905063150b7a027c0100000000000000000000000000000000000000000000000000000000027bffffffffffffffffffffffffffffffffffffffffffffffffffffffff1916817bffffffffffffffffffffffffffffffffffffffffffffffffffffffff19161491505b50949350505050565b8173ffffffffffffffffffffffffffffffffffffffff1661185982610d87565b73ffffffffffffffffffffffffffffffffffffffff1614151561187b57600080fd5b6118ce6001600360008573ffffffffffffffffffffffffffffffffffffffff1673ffffffffffffffffffffffffffffffffffffffff1681526020019081526020016000205461196890919063ffffffff16565b600360008473ffffffffffffffffffffffffffffffffffffffff1673ffffffffffffffffffffffffffffffffffffffff1681526020019081526020016000208190555060006001600083815260200190815260200160002060006101000a81548173ffffffffffffffffffffffffffffffffffffffff021916908373ffffffffffffffffffffffffffffffffffffffff1602179055505050565b600082821115151561197657fe5b818303905092915050565b600073ffffffffffffffffffffffffffffffffffffffff166001600083815260200190815260200160002060009054906101000a900473ffffffffffffffffffffffffffffffffffffffff1673ffffffffffffffffffffffffffffffffffffffff161415156119ef57600080fd5b816001600083815260200190815260200160002060006101000a81548173ffffffffffffffffffffffffffffffffffffffff021916908373ffffffffffffffffffffffffffffffffffffffff160217905550611a946001600360008573ffffffffffffffffffffffffffffffffffffffff1673ffffffffffffffffffffffffffffffffffffffff16815260200190815260200160002054611aee90919063ffffffff16565b600360008473ffffffffffffffffffffffffffffffffffffffff1673ffffffffffffffffffffffffffffffffffffffff168152602001908152602001600020819055505050565b600080823b905060008111915050919050565b60008183019050828110151515611b0157fe5b80905092915050565b815481835581811115611b3157818360005260206000209182019101611b309190611b36565b5b505050565b611b5891905b80821115611b54576000816000905550600101611b3c565b5090565b905600a165627a7a72305820b88b08d6da559f6b12f59b7294b2271ac521849ea70a002880c0bcd40e0504b30029",
  "source": "pragma solidity ^0.4.24;\n\nimport \"./ERC721.sol\";\nimport \"./ERC721BasicToken.sol\";\nimport \"../../introspection/SupportsInterfaceWithLookup.sol\";\n\n\n/**\n * @title Full ERC721 Token\n * This implementation includes all the required and some optional functionality of the ERC721 standard\n * Moreover, it includes approve all functionality using operator terminology\n * @dev see https://github.com/ethereum/EIPs/blob/master/EIPS/eip-721.md\n */\ncontract ERC721Token is SupportsInterfaceWithLookup, ERC721BasicToken, ERC721 {\n\n  // Token name\n  string internal name_;\n\n  // Token symbol\n  string internal symbol_;\n\n  // Mapping from owner to list of owned token IDs\n  mapping(address => uint256[]) internal ownedTokens;\n\n  // Mapping from token ID to index of the owner tokens list\n  mapping(uint256 => uint256) internal ownedTokensIndex;\n\n  // Array with all token ids, used for enumeration\n  uint256[] internal allTokens;\n\n  // Mapping from token id to position in the allTokens array\n  mapping(uint256 => uint256) internal allTokensIndex;\n\n  // Optional mapping for token URIs\n  mapping(uint256 => string) internal tokenURIs;\n\n  /**\n   * @dev Constructor function\n   */\n  constructor(string _name, string _symbol) public {\n    name_ = _name;\n    symbol_ = _symbol;\n\n    // register the supported interfaces to conform to ERC721 via ERC165\n    _registerInterface(InterfaceId_ERC721Enumerable);\n    _registerInterface(InterfaceId_ERC721Metadata);\n  }\n\n  /**\n   * @dev Gets the token name\n   * @return string representing the token name\n   */\n  function name() external view returns (string) {\n    return name_;\n  }\n\n  /**\n   * @dev Gets the token symbol\n   * @return string representing the token symbol\n   */\n  function symbol() external view returns (string) {\n    return symbol_;\n  }\n\n  /**\n   * @dev Returns an URI for a given token ID\n   * Throws if the token ID does not exist. May return an empty string.\n   * @param _tokenId uint256 ID of the token to query\n   */\n  function tokenURI(uint256 _tokenId) public view returns (string) {\n    require(exists(_tokenId));\n    return tokenURIs[_tokenId];\n  }\n\n  /**\n   * @dev Gets the token ID at a given index of the tokens list of the requested owner\n   * @param _owner address owning the tokens list to be accessed\n   * @param _index uint256 representing the index to be accessed of the requested tokens list\n   * @return uint256 token ID at the given index of the tokens list owned by the requested address\n   */\n  function tokenOfOwnerByIndex(\n    address _owner,\n    uint256 _index\n  )\n    public\n    view\n    returns (uint256)\n  {\n    require(_index < balanceOf(_owner));\n    return ownedTokens[_owner][_index];\n  }\n\n  /**\n   * @dev Gets the total amount of tokens stored by the contract\n   * @return uint256 representing the total amount of tokens\n   */\n  function totalSupply() public view returns (uint256) {\n    return allTokens.length;\n  }\n\n  /**\n   * @dev Gets the token ID at a given index of all the tokens in this contract\n   * Reverts if the index is greater or equal to the total number of tokens\n   * @param _index uint256 representing the index to be accessed of the tokens list\n   * @return uint256 token ID at the given index of the tokens list\n   */\n  function tokenByIndex(uint256 _index) public view returns (uint256) {\n    require(_index < totalSupply());\n    return allTokens[_index];\n  }\n\n  /**\n   * @dev Internal function to set the token URI for a given token\n   * Reverts if the token ID does not exist\n   * @param _tokenId uint256 ID of the token to set its URI\n   * @param _uri string URI to assign\n   */\n  function _setTokenURI(uint256 _tokenId, string _uri) internal {\n    require(exists(_tokenId));\n    tokenURIs[_tokenId] = _uri;\n  }\n\n  /**\n   * @dev Internal function to add a token ID to the list of a given address\n   * @param _to address representing the new owner of the given token ID\n   * @param _tokenId uint256 ID of the token to be added to the tokens list of the given address\n   */\n  function addTokenTo(address _to, uint256 _tokenId) internal {\n    super.addTokenTo(_to, _tokenId);\n    uint256 length = ownedTokens[_to].length;\n    ownedTokens[_to].push(_tokenId);\n    ownedTokensIndex[_tokenId] = length;\n  }\n\n  /**\n   * @dev Internal function to remove a token ID from the list of a given address\n   * @param _from address representing the previous owner of the given token ID\n   * @param _tokenId uint256 ID of the token to be removed from the tokens list of the given address\n   */\n  function removeTokenFrom(address _from, uint256 _tokenId) internal {\n    super.removeTokenFrom(_from, _tokenId);\n\n    // To prevent a gap in the array, we store the last token in the index of the token to delete, and\n    // then delete the last slot.\n    uint256 tokenIndex = ownedTokensIndex[_tokenId];\n    uint256 lastTokenIndex = ownedTokens[_from].length.sub(1);\n    uint256 lastToken = ownedTokens[_from][lastTokenIndex];\n\n    ownedTokens[_from][tokenIndex] = lastToken;\n    // This also deletes the contents at the last position of the array\n    ownedTokens[_from].length--;\n\n    // Note that this will handle single-element arrays. In that case, both tokenIndex and lastTokenIndex are going to\n    // be zero. Then we can make sure that we will remove _tokenId from the ownedTokens list since we are first swapping\n    // the lastToken to the first position, and then dropping the element placed in the last position of the list\n\n    ownedTokensIndex[_tokenId] = 0;\n    ownedTokensIndex[lastToken] = tokenIndex;\n  }\n\n  /**\n   * @dev Internal function to mint a new token\n   * Reverts if the given token ID already exists\n   * @param _to address the beneficiary that will own the minted token\n   * @param _tokenId uint256 ID of the token to be minted by the msg.sender\n   */\n  function _mint(address _to, uint256 _tokenId) internal {\n    super._mint(_to, _tokenId);\n\n    allTokensIndex[_tokenId] = allTokens.length;\n    allTokens.push(_tokenId);\n  }\n\n  /**\n   * @dev Internal function to burn a specific token\n   * Reverts if the token does not exist\n   * @param _owner owner of the token to burn\n   * @param _tokenId uint256 ID of the token being burned by the msg.sender\n   */\n  function _burn(address _owner, uint256 _tokenId) internal {\n    super._burn(_owner, _tokenId);\n\n    // Clear metadata (if any)\n    if (bytes(tokenURIs[_tokenId]).length != 0) {\n      delete tokenURIs[_tokenId];\n    }\n\n    // Reorg all tokens array\n    uint256 tokenIndex = allTokensIndex[_tokenId];\n    uint256 lastTokenIndex = allTokens.length.sub(1);\n    uint256 lastToken = allTokens[lastTokenIndex];\n\n    allTokens[tokenIndex] = lastToken;\n    allTokens[lastTokenIndex] = 0;\n\n    allTokens.length--;\n    allTokensIndex[_tokenId] = 0;\n    allTokensIndex[lastToken] = tokenIndex;\n  }\n\n}\n",
  "sourcePath": "openzeppelin-solidity/contracts/token/ERC721/ERC721Token.sol",
  "compiler": {
    "name": "solc",
    "version": "0.4.24+commit.e67f0147.Emscripten.clang"
  },
  "schemaVersion": "2.0.1",
  "updatedAt": "2018-12-09T15:01:16.259Z"
}