{
  "contractName": "ERC721BasicToken",
  "abi": [
    {
      "constant": true,
      "inputs": [
        {
          "name": "_interfaceId",
          "type": "bytes4"
        }
      ],
      "name": "supportsInterface",
      "outputs": [
        {
          "name": "",
          "type": "bool"
        }
      ],
      "payable": false,
      "stateMutability": "view",
      "type": "function"
    },
    {
      "constant": true,
      "inputs": [],
      "name": "InterfaceId_ERC165",
      "outputs": [
        {
          "name": "",
          "type": "bytes4"
        }
      ],
      "payable": false,
      "stateMutability": "view",
      "type": "function"
    },
    {
      "inputs": [],
      "payable": false,
      "stateMutability": "nonpayable",
      "type": "constructor"
    },
    {
      "anonymous": false,
      "inputs": [
        {
          "indexed": true,
          "name": "_from",
          "type": "address"
        },
        {
          "indexed": true,
          "name": "_to",
          "type": "address"
        },
        {
          "indexed": true,
          "name": "_tokenId",
          "type": "uint256"
        }
      ],
      "name": "Transfer",
      "type": "event"
    },
    {
      "anonymous": false,
      "inputs": [
        {
          "indexed": true,
          "name": "_owner",
          "type": "address"
        },
        {
          "indexed": true,
          "name": "_approved",
          "type": "address"
        },
        {
          "indexed": true,
          "name": "_tokenId",
          "type": "uint256"
        }
      ],
      "name": "Approval",
      "type": "event"
    },
    {
      "anonymous": false,
      "inputs": [
        {
          "indexed": true,
          "name": "_owner",
          "type": "address"
        },
        {
          "indexed": true,
          "name": "_operator",
          "type": "address"
        },
        {
          "indexed": false,
          "name": "_approved",
          "type": "bool"
        }
      ],
      "name": "ApprovalForAll",
      "type": "event"
    },
    {
      "constant": true,
      "inputs": [
        {
          "name": "_owner",
          "type": "address"
        }
      ],
      "name": "balanceOf",
      "outputs": [
        {
          "name": "",
          "type": "uint256"
        }
      ],
      "payable": false,
      "stateMutability": "view",
      "type": "function"
    },
    {
      "constant": true,
      "inputs": [
        {
          "name": "_tokenId",
          "type": "uint256"
        }
      ],
      "name": "ownerOf",
      "outputs": [
        {
          "name": "",
          "type": "address"
        }
      ],
      "payable": false,
      "stateMutability": "view",
      "type": "function"
    },
    {
      "constant": true,
      "inputs": [
        {
          "name": "_tokenId",
          "type": "uint256"
        }
      ],
      "name": "exists",
      "outputs": [
        {
          "name": "",
          "type": "bool"
        }
      ],
      "payable": false,
      "stateMutability": "view",
      "type": "function"
    },
    {
      "constant": false,
      "inputs": [
        {
          "name": "_to",
          "type": "address"
        },
        {
          "name": "_tokenId",
          "type": "uint256"
        }
      ],
      "name": "approve",
      "outputs": [],
      "payable": false,
      "stateMutability": "nonpayable",
      "type": "function"
    },
    {
      "constant": true,
      "inputs": [
        {
          "name": "_tokenId",
          "type": "uint256"
        }
      ],
      "name": "getApproved",
      "outputs": [
        {
          "name": "",
          "type": "address"
        }
      ],
      "payable": false,
      "stateMutability": "view",
      "type": "function"
    },
    {
      "constant": false,
      "inputs": [
        {
          "name": "_to",
          "type": "address"
        },
        {
          "name": "_approved",
          "type": "bool"
        }
      ],
      "name": "setApprovalForAll",
      "outputs": [],
      "payable": false,
      "stateMutability": "nonpayable",
      "type": "function"
    },
    {
      "constant": true,
      "inputs": [
        {
          "name": "_owner",
          "type": "address"
        },
        {
          "name": "_operator",
          "type": "address"
        }
      ],
      "name": "isApprovedForAll",
      "outputs": [
        {
          "name": "",
          "type": "bool"
        }
      ],
      "payable": false,
      "stateMutability": "view",
      "type": "function"
    },
    {
      "constant": false,
      "inputs": [
        {
          "name": "_from",
          "type": "address"
        },
        {
          "name": "_to",
          "type": "address"
        },
        {
          "name": "_tokenId",
          "type": "uint256"
        }
      ],
      "name": "transferFrom",
      "outputs": [],
      "payable": false,
      "stateMutability": "nonpayable",
      "type": "function"
    },
    {
      "constant": false,
      "inputs": [
        {
          "name": "_from",
          "type": "address"
        },
        {
          "name": "_to",
          "type": "address"
        },
        {
          "name": "_tokenId",
          "type": "uint256"
        }
      ],
      "name": "safeTransferFrom",
      "outputs": [],
      "payable": false,
      "stateMutability": "nonpayable",
      "type": "function"
    },
    {
      "constant": false,
      "inputs": [
        {
          "name": "_from",
          "type": "address"
        },
        {
          "name": "_to",
          "type": "address"
        },
        {
          "name": "_tokenId",
          "type": "uint256"
        },
        {
          "name": "_data",
          "type": "bytes"
        }
      ],
      "name": "safeTransferFrom",
      "outputs": [],
      "payable": false,
      "stateMutability": "nonpayable",
      "type": "function"
    }
  ],
  "bytecode": "0x608060405234801561001057600080fd5b506100437f01ffc9a7000000000000000000000000000000000000000000000000000000006401000000006100ac810204565b6100757f80ac58cd000000000000000000000000000000000000000000000000000000006401000000006100ac810204565b6100a77f4f558e79000000000000000000000000000000000000000000000000000000006401000000006100ac810204565b610118565b7fffffffff0000000000000000000000000000000000000000000000000000000080821614156100db57600080fd5b7fffffffff00000000000000000000000000000000000000000000000000000000166000908152602081905260409020805460ff19166001179055565b610a29806101276000396000f3006080604052600436106100b95763ffffffff7c010000000000000000000000000000000000000000000000000000000060003504166301ffc9a781146100be578063081812fc14610109578063095ea7b31461013d57806319fa8f501461016357806323b872dd146101aa57806342842e0e146101d45780634f558e79146101fe5780636352211e1461021657806370a082311461022e578063a22cb46514610261578063b88d4fde14610287578063e985e9c5146102f6575b600080fd5b3480156100ca57600080fd5b506100f57bffffffffffffffffffffffffffffffffffffffffffffffffffffffff196004351661031d565b604080519115158252519081900360200190f35b34801561011557600080fd5b50610121600435610351565b60408051600160a060020a039092168252519081900360200190f35b34801561014957600080fd5b50610161600160a060020a036004351660243561036c565b005b34801561016f57600080fd5b50610178610422565b604080517bffffffffffffffffffffffffffffffffffffffffffffffffffffffff199092168252519081900360200190f35b3480156101b657600080fd5b50610161600160a060020a0360043581169060243516604435610446565b3480156101e057600080fd5b50610161600160a060020a03600435811690602435166044356104e9565b34801561020a57600080fd5b506100f560043561050a565b34801561022257600080fd5b50610121600435610527565b34801561023a57600080fd5b5061024f600160a060020a0360043516610551565b60408051918252519081900360200190f35b34801561026d57600080fd5b50610161600160a060020a03600435166024351515610584565b34801561029357600080fd5b50604080516020601f60643560048181013592830184900484028501840190955281845261016194600160a060020a0381358116956024803590921695604435953695608494019181908401838280828437509497506106089650505050505050565b34801561030257600080fd5b506100f5600160a060020a0360043581169060243516610630565b7bffffffffffffffffffffffffffffffffffffffffffffffffffffffff191660009081526020819052604090205460ff1690565b600090815260026020526040902054600160a060020a031690565b600061037782610527565b9050600160a060020a03838116908216141561039257600080fd5b33600160a060020a03821614806103ae57506103ae8133610630565b15156103b957600080fd5b600082815260026020526040808220805473ffffffffffffffffffffffffffffffffffffffff1916600160a060020a0387811691821790925591518593918516917f8c5be1e5ebec7d5bd14f71427d1e84f3dd0314c0f7b2291e5b200ac8c7c3b92591a4505050565b7f01ffc9a70000000000000000000000000000000000000000000000000000000081565b610450338261065e565b151561045b57600080fd5b600160a060020a038316151561047057600080fd5b600160a060020a038216151561048557600080fd5b61048f83826106bd565b610499838261072e565b6104a382826107c4565b8082600160a060020a031684600160a060020a03167fddf252ad1be2c89b69c2b068fc378daa952ba7f163c4a11628f55a4df523b3ef60405160405180910390a4505050565b6105058383836020604051908101604052806000815250610608565b505050565b600090815260016020526040902054600160a060020a0316151590565b600081815260016020526040812054600160a060020a031680151561054b57600080fd5b92915050565b6000600160a060020a038216151561056857600080fd5b50600160a060020a031660009081526003602052604090205490565b600160a060020a03821633141561059a57600080fd5b336000818152600460209081526040808320600160a060020a03871680855290835292819020805460ff1916861515908117909155815190815290519293927f17307eab39ab6107e8899845ad3d59bd9653f200f220920489ca2b5937696c31929181900390910190a35050565b610613848484610446565b61061f84848484610854565b151561062a57600080fd5b50505050565b600160a060020a03918216600090815260046020908152604080832093909416825291909152205460ff1690565b60008061066a83610527565b905080600160a060020a031684600160a060020a031614806106a5575083600160a060020a031661069a84610351565b600160a060020a0316145b806106b557506106b58185610630565b949350505050565b81600160a060020a03166106d082610527565b600160a060020a0316146106e357600080fd5b600081815260026020526040902054600160a060020a03161561072a576000818152600260205260409020805473ffffffffffffffffffffffffffffffffffffffff191690555b5050565b81600160a060020a031661074182610527565b600160a060020a03161461075457600080fd5b600160a060020a03821660009081526003602052604090205461077e90600163ffffffff6109d616565b600160a060020a03909216600090815260036020908152604080832094909455918152600190915220805473ffffffffffffffffffffffffffffffffffffffff19169055565b600081815260016020526040902054600160a060020a0316156107e657600080fd5b6000818152600160208181526040808420805473ffffffffffffffffffffffffffffffffffffffff1916600160a060020a0388169081179091558452600390915290912054610834916109e8565b600160a060020a0390921660009081526003602052604090209190915550565b60008061086985600160a060020a03166109f5565b151561087857600191506109cd565b6040517f150b7a020000000000000000000000000000000000000000000000000000000081523360048201818152600160a060020a03898116602485015260448401889052608060648501908152875160848601528751918a169463150b7a0294938c938b938b93909160a490910190602085019080838360005b8381101561090b5781810151838201526020016108f3565b50505050905090810190601f1680156109385780820380516001836020036101000a031916815260200191505b5095505050505050602060405180830381600087803b15801561095a57600080fd5b505af115801561096e573d6000803e3d6000fd5b505050506040513d602081101561098457600080fd5b50517bffffffffffffffffffffffffffffffffffffffffffffffffffffffff1981167f150b7a020000000000000000000000000000000000000000000000000000000014925090505b50949350505050565b6000828211156109e257fe5b50900390565b8181018281101561054b57fe5b6000903b11905600a165627a7a723058200f3753242c8b4c5995a52652aa957047f182ef34b038f5fc9f42801a75646bd60029",
  "source": "pragma solidity ^0.4.24;\n\nimport \"./ERC721Basic.sol\";\nimport \"./ERC721Receiver.sol\";\nimport \"../../math/SafeMath.sol\";\nimport \"../../AddressUtils.sol\";\nimport \"../../introspection/SupportsInterfaceWithLookup.sol\";\n\n\n/**\n * @title ERC721 Non-Fungible Token Standard basic implementation\n * @dev see https://github.com/ethereum/EIPs/blob/master/EIPS/eip-721.md\n */\ncontract ERC721BasicToken is SupportsInterfaceWithLookup, ERC721Basic {\n\n  using SafeMath for uint256;\n  using AddressUtils for address;\n\n  // Equals to `bytes4(keccak256(\"onERC721Received(address,address,uint256,bytes)\"))`\n  // which can be also obtained as `ERC721Receiver(0).onERC721Received.selector`\n  bytes4 private constant ERC721_RECEIVED = 0x150b7a02;\n\n  // Mapping from token ID to owner\n  mapping (uint256 => address) internal tokenOwner;\n\n  // Mapping from token ID to approved address\n  mapping (uint256 => address) internal tokenApprovals;\n\n  // Mapping from owner to number of owned token\n  mapping (address => uint256) internal ownedTokensCount;\n\n  // Mapping from owner to operator approvals\n  mapping (address => mapping (address => bool)) internal operatorApprovals;\n\n  constructor()\n    public\n  {\n    // register the supported interfaces to conform to ERC721 via ERC165\n    _registerInterface(InterfaceId_ERC721);\n    _registerInterface(InterfaceId_ERC721Exists);\n  }\n\n  /**\n   * @dev Gets the balance of the specified address\n   * @param _owner address to query the balance of\n   * @return uint256 representing the amount owned by the passed address\n   */\n  function balanceOf(address _owner) public view returns (uint256) {\n    require(_owner != address(0));\n    return ownedTokensCount[_owner];\n  }\n\n  /**\n   * @dev Gets the owner of the specified token ID\n   * @param _tokenId uint256 ID of the token to query the owner of\n   * @return owner address currently marked as the owner of the given token ID\n   */\n  function ownerOf(uint256 _tokenId) public view returns (address) {\n    address owner = tokenOwner[_tokenId];\n    require(owner != address(0));\n    return owner;\n  }\n\n  /**\n   * @dev Returns whether the specified token exists\n   * @param _tokenId uint256 ID of the token to query the existence of\n   * @return whether the token exists\n   */\n  function exists(uint256 _tokenId) public view returns (bool) {\n    address owner = tokenOwner[_tokenId];\n    return owner != address(0);\n  }\n\n  /**\n   * @dev Approves another address to transfer the given token ID\n   * The zero address indicates there is no approved address.\n   * There can only be one approved address per token at a given time.\n   * Can only be called by the token owner or an approved operator.\n   * @param _to address to be approved for the given token ID\n   * @param _tokenId uint256 ID of the token to be approved\n   */\n  function approve(address _to, uint256 _tokenId) public {\n    address owner = ownerOf(_tokenId);\n    require(_to != owner);\n    require(msg.sender == owner || isApprovedForAll(owner, msg.sender));\n\n    tokenApprovals[_tokenId] = _to;\n    emit Approval(owner, _to, _tokenId);\n  }\n\n  /**\n   * @dev Gets the approved address for a token ID, or zero if no address set\n   * @param _tokenId uint256 ID of the token to query the approval of\n   * @return address currently approved for the given token ID\n   */\n  function getApproved(uint256 _tokenId) public view returns (address) {\n    return tokenApprovals[_tokenId];\n  }\n\n  /**\n   * @dev Sets or unsets the approval of a given operator\n   * An operator is allowed to transfer all tokens of the sender on their behalf\n   * @param _to operator address to set the approval\n   * @param _approved representing the status of the approval to be set\n   */\n  function setApprovalForAll(address _to, bool _approved) public {\n    require(_to != msg.sender);\n    operatorApprovals[msg.sender][_to] = _approved;\n    emit ApprovalForAll(msg.sender, _to, _approved);\n  }\n\n  /**\n   * @dev Tells whether an operator is approved by a given owner\n   * @param _owner owner address which you want to query the approval of\n   * @param _operator operator address which you want to query the approval of\n   * @return bool whether the given operator is approved by the given owner\n   */\n  function isApprovedForAll(\n    address _owner,\n    address _operator\n  )\n    public\n    view\n    returns (bool)\n  {\n    return operatorApprovals[_owner][_operator];\n  }\n\n  /**\n   * @dev Transfers the ownership of a given token ID to another address\n   * Usage of this method is discouraged, use `safeTransferFrom` whenever possible\n   * Requires the msg sender to be the owner, approved, or operator\n   * @param _from current owner of the token\n   * @param _to address to receive the ownership of the given token ID\n   * @param _tokenId uint256 ID of the token to be transferred\n  */\n  function transferFrom(\n    address _from,\n    address _to,\n    uint256 _tokenId\n  )\n    public\n  {\n    require(isApprovedOrOwner(msg.sender, _tokenId));\n    require(_from != address(0));\n    require(_to != address(0));\n\n    clearApproval(_from, _tokenId);\n    removeTokenFrom(_from, _tokenId);\n    addTokenTo(_to, _tokenId);\n\n    emit Transfer(_from, _to, _tokenId);\n  }\n\n  /**\n   * @dev Safely transfers the ownership of a given token ID to another address\n   * If the target address is a contract, it must implement `onERC721Received`,\n   * which is called upon a safe transfer, and return the magic value\n   * `bytes4(keccak256(\"onERC721Received(address,address,uint256,bytes)\"))`; otherwise,\n   * the transfer is reverted.\n   *\n   * Requires the msg sender to be the owner, approved, or operator\n   * @param _from current owner of the token\n   * @param _to address to receive the ownership of the given token ID\n   * @param _tokenId uint256 ID of the token to be transferred\n  */\n  function safeTransferFrom(\n    address _from,\n    address _to,\n    uint256 _tokenId\n  )\n    public\n  {\n    // solium-disable-next-line arg-overflow\n    safeTransferFrom(_from, _to, _tokenId, \"\");\n  }\n\n  /**\n   * @dev Safely transfers the ownership of a given token ID to another address\n   * If the target address is a contract, it must implement `onERC721Received`,\n   * which is called upon a safe transfer, and return the magic value\n   * `bytes4(keccak256(\"onERC721Received(address,address,uint256,bytes)\"))`; otherwise,\n   * the transfer is reverted.\n   * Requires the msg sender to be the owner, approved, or operator\n   * @param _from current owner of the token\n   * @param _to address to receive the ownership of the given token ID\n   * @param _tokenId uint256 ID of the token to be transferred\n   * @param _data bytes data to send along with a safe transfer check\n   */\n  function safeTransferFrom(\n    address _from,\n    address _to,\n    uint256 _tokenId,\n    bytes _data\n  )\n    public\n  {\n    transferFrom(_from, _to, _tokenId);\n    // solium-disable-next-line arg-overflow\n    require(checkAndCallSafeTransfer(_from, _to, _tokenId, _data));\n  }\n\n  /**\n   * @dev Returns whether the given spender can transfer a given token ID\n   * @param _spender address of the spender to query\n   * @param _tokenId uint256 ID of the token to be transferred\n   * @return bool whether the msg.sender is approved for the given token ID,\n   *  is an operator of the owner, or is the owner of the token\n   */\n  function isApprovedOrOwner(\n    address _spender,\n    uint256 _tokenId\n  )\n    internal\n    view\n    returns (bool)\n  {\n    address owner = ownerOf(_tokenId);\n    // Disable solium check because of\n    // https://github.com/duaraghav8/Solium/issues/175\n    // solium-disable-next-line operator-whitespace\n    return (\n      _spender == owner ||\n      getApproved(_tokenId) == _spender ||\n      isApprovedForAll(owner, _spender)\n    );\n  }\n\n  /**\n   * @dev Internal function to mint a new token\n   * Reverts if the given token ID already exists\n   * @param _to The address that will own the minted token\n   * @param _tokenId uint256 ID of the token to be minted by the msg.sender\n   */\n  function _mint(address _to, uint256 _tokenId) internal {\n    require(_to != address(0));\n    addTokenTo(_to, _tokenId);\n    emit Transfer(address(0), _to, _tokenId);\n  }\n\n  /**\n   * @dev Internal function to burn a specific token\n   * Reverts if the token does not exist\n   * @param _tokenId uint256 ID of the token being burned by the msg.sender\n   */\n  function _burn(address _owner, uint256 _tokenId) internal {\n    clearApproval(_owner, _tokenId);\n    removeTokenFrom(_owner, _tokenId);\n    emit Transfer(_owner, address(0), _tokenId);\n  }\n\n  /**\n   * @dev Internal function to clear current approval of a given token ID\n   * Reverts if the given address is not indeed the owner of the token\n   * @param _owner owner of the token\n   * @param _tokenId uint256 ID of the token to be transferred\n   */\n  function clearApproval(address _owner, uint256 _tokenId) internal {\n    require(ownerOf(_tokenId) == _owner);\n    if (tokenApprovals[_tokenId] != address(0)) {\n      tokenApprovals[_tokenId] = address(0);\n    }\n  }\n\n  /**\n   * @dev Internal function to add a token ID to the list of a given address\n   * @param _to address representing the new owner of the given token ID\n   * @param _tokenId uint256 ID of the token to be added to the tokens list of the given address\n   */\n  function addTokenTo(address _to, uint256 _tokenId) internal {\n    require(tokenOwner[_tokenId] == address(0));\n    tokenOwner[_tokenId] = _to;\n    ownedTokensCount[_to] = ownedTokensCount[_to].add(1);\n  }\n\n  /**\n   * @dev Internal function to remove a token ID from the list of a given address\n   * @param _from address representing the previous owner of the given token ID\n   * @param _tokenId uint256 ID of the token to be removed from the tokens list of the given address\n   */\n  function removeTokenFrom(address _from, uint256 _tokenId) internal {\n    require(ownerOf(_tokenId) == _from);\n    ownedTokensCount[_from] = ownedTokensCount[_from].sub(1);\n    tokenOwner[_tokenId] = address(0);\n  }\n\n  /**\n   * @dev Internal function to invoke `onERC721Received` on a target address\n   * The call is not executed if the target address is not a contract\n   * @param _from address representing the previous owner of the given token ID\n   * @param _to target address that will receive the tokens\n   * @param _tokenId uint256 ID of the token to be transferred\n   * @param _data bytes optional data to send along with the call\n   * @return whether the call correctly returned the expected magic value\n   */\n  function checkAndCallSafeTransfer(\n    address _from,\n    address _to,\n    uint256 _tokenId,\n    bytes _data\n  )\n    internal\n    returns (bool)\n  {\n    if (!_to.isContract()) {\n      return true;\n    }\n    bytes4 retval = ERC721Receiver(_to).onERC721Received(\n      msg.sender, _from, _tokenId, _data);\n    return (retval == ERC721_RECEIVED);\n  }\n}\n",
  "sourcePath": "openzeppelin-solidity/contracts/token/ERC721/ERC721BasicToken.sol",
  "compiler": {
    "name": "solc",
    "version": "0.4.24+commit.e67f0147.Emscripten.clang"
  },
  "schemaVersion": "3.0.1",
  "updatedAt": "2019-02-09T21:05:57.910Z",
  "devdoc": {
    "methods": {
      "approve(address,uint256)": {
        "details": "Approves another address to transfer the given token ID The zero address indicates there is no approved address. There can only be one approved address per token at a given time. Can only be called by the token owner or an approved operator.",
        "params": {
          "_to": "address to be approved for the given token ID",
          "_tokenId": "uint256 ID of the token to be approved"
        }
      },
      "balanceOf(address)": {
        "details": "Gets the balance of the specified address",
        "params": {
          "_owner": "address to query the balance of"
        },
        "return": "uint256 representing the amount owned by the passed address"
      },
      "exists(uint256)": {
        "details": "Returns whether the specified token exists",
        "params": {
          "_tokenId": "uint256 ID of the token to query the existence of"
        },
        "return": "whether the token exists"
      },
      "getApproved(uint256)": {
        "details": "Gets the approved address for a token ID, or zero if no address set",
        "params": {
          "_tokenId": "uint256 ID of the token to query the approval of"
        },
        "return": "address currently approved for the given token ID"
      },
      "isApprovedForAll(address,address)": {
        "details": "Tells whether an operator is approved by a given owner",
        "params": {
          "_operator": "operator address which you want to query the approval of",
          "_owner": "owner address which you want to query the approval of"
        },
        "return": "bool whether the given operator is approved by the given owner"
      },
      "ownerOf(uint256)": {
        "details": "Gets the owner of the specified token ID",
        "params": {
          "_tokenId": "uint256 ID of the token to query the owner of"
        },
        "return": "owner address currently marked as the owner of the given token ID"
      },
      "safeTransferFrom(address,address,uint256)": {
        "details": "Safely transfers the ownership of a given token ID to another address If the target address is a contract, it must implement `onERC721Received`, which is called upon a safe transfer, and return the magic value `bytes4(keccak256(\"onERC721Received(address,address,uint256,bytes)\"))`; otherwise, the transfer is reverted.   * Requires the msg sender to be the owner, approved, or operator",
        "params": {
          "_from": "current owner of the token",
          "_to": "address to receive the ownership of the given token ID",
          "_tokenId": "uint256 ID of the token to be transferred"
        }
      },
      "safeTransferFrom(address,address,uint256,bytes)": {
        "details": "Safely transfers the ownership of a given token ID to another address If the target address is a contract, it must implement `onERC721Received`, which is called upon a safe transfer, and return the magic value `bytes4(keccak256(\"onERC721Received(address,address,uint256,bytes)\"))`; otherwise, the transfer is reverted. Requires the msg sender to be the owner, approved, or operator",
        "params": {
          "_data": "bytes data to send along with a safe transfer check",
          "_from": "current owner of the token",
          "_to": "address to receive the ownership of the given token ID",
          "_tokenId": "uint256 ID of the token to be transferred"
        }
      },
      "setApprovalForAll(address,bool)": {
        "details": "Sets or unsets the approval of a given operator An operator is allowed to transfer all tokens of the sender on their behalf",
        "params": {
          "_approved": "representing the status of the approval to be set",
          "_to": "operator address to set the approval"
        }
      },
      "supportsInterface(bytes4)": {
        "details": "implement supportsInterface(bytes4) using a lookup table"
      },
      "transferFrom(address,address,uint256)": {
        "details": "Transfers the ownership of a given token ID to another address Usage of this method is discouraged, use `safeTransferFrom` whenever possible Requires the msg sender to be the owner, approved, or operator",
        "params": {
          "_from": "current owner of the token",
          "_to": "address to receive the ownership of the given token ID",
          "_tokenId": "uint256 ID of the token to be transferred"
        }
      }
    },
    "title": "ERC721 Non-Fungible Token Standard basic implementation"
  },
  "userdoc": {
    "methods": {}
  }
}