{
  "contractName": "ERC721ReceiverMock",
  "abi": [
    {
      "inputs": [
        {
          "name": "_retval",
          "type": "bytes4"
        },
        {
          "name": "_reverts",
          "type": "bool"
        }
      ],
      "payable": false,
      "stateMutability": "nonpayable",
      "type": "constructor"
    },
    {
      "anonymous": false,
      "inputs": [
        {
          "indexed": false,
          "name": "_operator",
          "type": "address"
        },
        {
          "indexed": false,
          "name": "_from",
          "type": "address"
        },
        {
          "indexed": false,
          "name": "_tokenId",
          "type": "uint256"
        },
        {
          "indexed": false,
          "name": "_data",
          "type": "bytes"
        },
        {
          "indexed": false,
          "name": "_gas",
          "type": "uint256"
        }
      ],
      "name": "Received",
      "type": "event"
    },
    {
      "constant": false,
      "inputs": [
        {
          "name": "_operator",
          "type": "address"
        },
        {
          "name": "_from",
          "type": "address"
        },
        {
          "name": "_tokenId",
          "type": "uint256"
        },
        {
          "name": "_data",
          "type": "bytes"
        }
      ],
      "name": "onERC721Received",
      "outputs": [
        {
          "name": "",
          "type": "bytes4"
        }
      ],
      "payable": false,
      "stateMutability": "nonpayable",
      "type": "function"
    }
  ],
  "bytecode": "0x608060405234801561001057600080fd5b506040516040806102f9833981016040528051602090910151600080549115156401000000000264ff00000000197c010000000000000000000000000000000000000000000000000000000090940463ffffffff199093169290921792909216179055610277806100826000396000f3006080604052600436106100405763ffffffff7c0100000000000000000000000000000000000000000000000000000000600035041663150b7a028114610045575b600080fd5b34801561005157600080fd5b50604080516020601f6064356004818101359283018490048402850184019095528184526100c19473ffffffffffffffffffffffffffffffffffffffff81358116956024803590921695604435953695608494019181908401838280828437509497506100f69650505050505050565b604080517fffffffff000000000000000000000000000000000000000000000000000000009092168252519081900360200190f35b60008054640100000000900460ff161561010f57600080fd5b7f28fa6e16458f9c24aa59ddd4085264573006dbe30304837873c7deafc702b038858585855a604051808673ffffffffffffffffffffffffffffffffffffffff1673ffffffffffffffffffffffffffffffffffffffff1681526020018573ffffffffffffffffffffffffffffffffffffffff1673ffffffffffffffffffffffffffffffffffffffff16815260200184815260200180602001838152602001828103825284818151815260200191508051906020019080838360005b838110156101e25781810151838201526020016101ca565b50505050905090810190601f16801561020f5780820380516001836020036101000a031916815260200191505b50965050505050505060405180910390a1506000547c0100000000000000000000000000000000000000000000000000000000029493505050505600a165627a7a72305820fceb14b7e409e73807e0231b613709cfe86bdc409d8bb5b19c4defd156a305f50029",
  "source": "pragma solidity ^0.4.24;\n\nimport \"./ERC721Receiver.sol\";\n\n\ncontract ERC721ReceiverMock is ERC721Receiver {\n  bytes4 retval;\n  bool reverts;\n\n  event Received(\n    address _operator,\n    address _from,\n    uint256 _tokenId,\n    bytes _data,\n    uint256 _gas\n  );\n\n  constructor(bytes4 _retval, bool _reverts) public {\n    retval = _retval;\n    reverts = _reverts;\n  }\n\n  function onERC721Received(\n    address _operator,\n    address _from,\n    uint256 _tokenId,\n    bytes _data\n  )\n  public\n  returns (bytes4)\n  {\n    require(!reverts);\n    emit Received(\n      _operator,\n      _from,\n      _tokenId,\n      _data,\n      gasleft() // msg.gas was deprecated in solidityv0.4.21\n    );\n    return retval;\n  }\n}\n",
  "sourcePath": "/Users/jamesmorgan/Dropbox/workspace-blockrocket/radi.cards/contracts/mocks/ERC721ReceiverMock.sol",
  "compiler": {
    "name": "solc",
    "version": "0.4.24+commit.e67f0147.Emscripten.clang"
  },
  "schemaVersion": "3.0.0-beta.2",
  "updatedAt": "2018-12-11T09:35:32.429Z",
  "devdoc": {
    "methods": {}
  },
  "userdoc": {
    "methods": {}
  }
}