{
  "contractName": "Medianizer",
  "abi": [
    {
      "constant": false,
      "inputs": [
        {
          "name": "owner_",
          "type": "address"
        }
      ],
      "name": "setOwner",
      "outputs": [],
      "payable": false,
      "stateMutability": "nonpayable",
      "type": "function"
    },
    {
      "constant": true,
      "inputs": [
        {
          "name": "",
          "type": "address"
        }
      ],
      "name": "indexes",
      "outputs": [
        {
          "name": "",
          "type": "bytes12"
        }
      ],
      "payable": false,
      "stateMutability": "view",
      "type": "function"
    },
    {
      "constant": true,
      "inputs": [],
      "name": "next",
      "outputs": [
        {
          "name": "",
          "type": "bytes12"
        }
      ],
      "payable": false,
      "stateMutability": "view",
      "type": "function"
    },
    {
      "constant": true,
      "inputs": [],
      "name": "read",
      "outputs": [
        {
          "name": "",
          "type": "bytes32"
        }
      ],
      "payable": false,
      "stateMutability": "view",
      "type": "function"
    },
    {
      "constant": true,
      "inputs": [],
      "name": "peek",
      "outputs": [
        {
          "name": "",
          "type": "bytes32"
        },
        {
          "name": "",
          "type": "bool"
        }
      ],
      "payable": false,
      "stateMutability": "view",
      "type": "function"
    },
    {
      "constant": true,
      "inputs": [
        {
          "name": "",
          "type": "bytes12"
        }
      ],
      "name": "values",
      "outputs": [
        {
          "name": "",
          "type": "address"
        }
      ],
      "payable": false,
      "stateMutability": "view",
      "type": "function"
    },
    {
      "constant": false,
      "inputs": [
        {
          "name": "authority_",
          "type": "address"
        }
      ],
      "name": "setAuthority",
      "outputs": [],
      "payable": false,
      "stateMutability": "nonpayable",
      "type": "function"
    },
    {
      "constant": true,
      "inputs": [],
      "name": "owner",
      "outputs": [
        {
          "name": "",
          "type": "address"
        }
      ],
      "payable": false,
      "stateMutability": "view",
      "type": "function"
    },
    {
      "constant": false,
      "inputs": [],
      "name": "void",
      "outputs": [],
      "payable": false,
      "stateMutability": "nonpayable",
      "type": "function"
    },
    {
      "constant": true,
      "inputs": [],
      "name": "authority",
      "outputs": [
        {
          "name": "",
          "type": "address"
        }
      ],
      "payable": false,
      "stateMutability": "view",
      "type": "function"
    },
    {
      "constant": true,
      "inputs": [],
      "name": "min",
      "outputs": [
        {
          "name": "",
          "type": "uint96"
        }
      ],
      "payable": false,
      "stateMutability": "view",
      "type": "function"
    },
    {
      "anonymous": true,
      "inputs": [
        {
          "indexed": true,
          "name": "sig",
          "type": "bytes4"
        },
        {
          "indexed": true,
          "name": "guy",
          "type": "address"
        },
        {
          "indexed": true,
          "name": "foo",
          "type": "bytes32"
        },
        {
          "indexed": true,
          "name": "bar",
          "type": "bytes32"
        },
        {
          "indexed": false,
          "name": "wad",
          "type": "uint256"
        },
        {
          "indexed": false,
          "name": "fax",
          "type": "bytes"
        }
      ],
      "name": "LogNote",
      "type": "event"
    },
    {
      "anonymous": false,
      "inputs": [
        {
          "indexed": true,
          "name": "authority",
          "type": "address"
        }
      ],
      "name": "LogSetAuthority",
      "type": "event"
    },
    {
      "anonymous": false,
      "inputs": [
        {
          "indexed": true,
          "name": "owner",
          "type": "address"
        }
      ],
      "name": "LogSetOwner",
      "type": "event"
    },
    {
      "constant": false,
      "inputs": [
        {
          "name": "wat",
          "type": "address"
        }
      ],
      "name": "set",
      "outputs": [],
      "payable": false,
      "stateMutability": "nonpayable",
      "type": "function"
    },
    {
      "constant": false,
      "inputs": [
        {
          "name": "pos",
          "type": "bytes12"
        },
        {
          "name": "wat",
          "type": "address"
        }
      ],
      "name": "set",
      "outputs": [],
      "payable": false,
      "stateMutability": "nonpayable",
      "type": "function"
    },
    {
      "constant": false,
      "inputs": [
        {
          "name": "min_",
          "type": "uint96"
        }
      ],
      "name": "setMin",
      "outputs": [],
      "payable": false,
      "stateMutability": "nonpayable",
      "type": "function"
    },
    {
      "constant": false,
      "inputs": [
        {
          "name": "next_",
          "type": "bytes12"
        }
      ],
      "name": "setNext",
      "outputs": [],
      "payable": false,
      "stateMutability": "nonpayable",
      "type": "function"
    },
    {
      "constant": false,
      "inputs": [
        {
          "name": "wat",
          "type": "address"
        }
      ],
      "name": "unset",
      "outputs": [],
      "payable": false,
      "stateMutability": "nonpayable",
      "type": "function"
    },
    {
      "constant": false,
      "inputs": [
        {
          "name": "pos",
          "type": "bytes12"
        }
      ],
      "name": "unset",
      "outputs": [],
      "payable": false,
      "stateMutability": "nonpayable",
      "type": "function"
    },
    {
      "constant": false,
      "inputs": [
        {
          "name": "",
          "type": "bytes32"
        }
      ],
      "name": "poke",
      "outputs": [],
      "payable": false,
      "stateMutability": "nonpayable",
      "type": "function"
    },
    {
      "constant": false,
      "inputs": [],
      "name": "poke",
      "outputs": [],
      "payable": false,
      "stateMutability": "nonpayable",
      "type": "function"
    },
    {
      "constant": true,
      "inputs": [],
      "name": "compute",
      "outputs": [
        {
          "name": "",
          "type": "bytes32"
        },
        {
          "name": "",
          "type": "bool"
        }
      ],
      "payable": false,
      "stateMutability": "view",
      "type": "function"
    }
  ],
  "bytecode": "0x60806040819052600580546c0100000000000000000000000060016001606060020a03199092168217606060020a60c060020a03191617909155805433600160a060020a03199091168117909155907fce241d7ca1f669fee44b6fc00b8eba2df3bb514eed0f6f668f8f89096e81ed9490600090a261117f806100836000396000f3006080604052600436106101115763ffffffff7c010000000000000000000000000000000000000000000000000000000060003504166313af403581146101165780631504460f1461013957806318178358146101515780631a43c338146101665780632801617e146101945780632966d1b9146101b55780632db78d93146101d65780634c8fe5261461022157806357de26a41461023657806359e02dd71461025d578063651dd0de146102725780636ba5ef0d146102bd5780637a9e5e4b146102e35780638da5cb5b14610304578063ac4c25b214610319578063beb38b431461032e578063bf7e214f14610369578063e0a1fdad1461037e578063f2c5925d146103ad578063f8897945146103dc575b600080fd5b34801561012257600080fd5b50610137600160a060020a0360043516610412565b005b34801561014557600080fd5b50610137600435610493565b34801561015d57600080fd5b50610137610527565b34801561017257600080fd5b5061017b610533565b6040805192835290151560208301528051918290030190f35b3480156101a057600080fd5b50610137600160a060020a036004351661097b565b3480156101c157600080fd5b50610137600160a060020a0360043516610a08565b3480156101e257600080fd5b506101f7600160a060020a0360043516610a36565b6040805173ffffffffffffffffffffffffffffffffffffffff199092168252519081900360200190f35b34801561022d57600080fd5b506101f7610a4e565b34801561024257600080fd5b5061024b610a5a565b60408051918252519081900360200190f35b34801561026957600080fd5b5061017b610a7a565b34801561027e57600080fd5b506102a173ffffffffffffffffffffffffffffffffffffffff1960043516610a8f565b60408051600160a060020a039092168252519081900360200190f35b3480156102c957600080fd5b506101376bffffffffffffffffffffffff60043516610aaa565b3480156102ef57600080fd5b50610137600160a060020a0360043516610b8b565b34801561031057600080fd5b506102a1610c03565b34801561032557600080fd5b50610137610c12565b34801561033a57600080fd5b5061013773ffffffffffffffffffffffffffffffffffffffff1960043516602435600160a060020a0316610caa565b34801561037557600080fd5b506102a1610e65565b34801561038a57600080fd5b5061013773ffffffffffffffffffffffffffffffffffffffff1960043516610e74565b3480156103b957600080fd5b5061013773ffffffffffffffffffffffffffffffffffffffff1960043516610e7f565b3480156103e857600080fd5b506103f1610f3d565b604080516bffffffffffffffffffffffff9092168252519081900360200190f35b6104366104313360003560008051602061113483398151915216610f61565b611070565b6001805473ffffffffffffffffffffffffffffffffffffffff1916600160a060020a0383811691909117918290556040519116907fce241d7ca1f669fee44b6fc00b8eba2df3bb514eed0f6f668f8f89096e81ed9490600090a250565b6040805134808252602082018381523693830184905260043593602435938493869333936000803560008051602061113483398151915216949092606082018484808284376040519201829003965090945050505050a46104f2610533565b6001805491151560a060020a0274ff000000000000000000000000000000000000000019909216919091179055600255505050565b6105316000610493565b565b600080606060008060008060008060008060006001600560009054906101000a900460a060020a0260a060020a9004036bffffffffffffffffffffffff1660405190808252806020026020018201604052801561059a578160200160208202803883390190505b50995060009850600197505b60055460a060020a908102046bffffffffffffffffffffffff908116908916101561083a5773ffffffffffffffffffffffffffffffffffffffff1960a060020a890216600090815260036020526040902054600160a060020a03161561082f5760a060020a880273ffffffffffffffffffffffffffffffffffffffff19166000908152600360205260408082205481517f59e02dd70000000000000000000000000000000000000000000000000000000081528251600160a060020a03909216936359e02dd79360048084019491939192918390030190829087803b15801561068e57600080fd5b505af11580156106a2573d6000803e3d6000fd5b505050506040513d60408110156106b857600080fd5b5080516020909101519097509550851561082f576bffffffffffffffffffffffff8916158061070f57508960018a036bffffffffffffffffffffffff1681518110151561070157fe5b602090810290910101518710155b1561074057868a8a6bffffffffffffffffffffffff1681518110151561073157fe5b60209081029091010152610828565b600094505b89856bffffffffffffffffffffffff1681518110151561076157fe5b60209081029091010151871061077c57600190940193610745565b8893505b846bffffffffffffffffffffffff16846bffffffffffffffffffffffff1611156108005789600185036bffffffffffffffffffffffff168151811015156107c357fe5b906020019060200201518a856bffffffffffffffffffffffff168151811015156107e957fe5b602090810290910101526000199390930192610780565b868a866bffffffffffffffffffffffff1681518110151561081d57fe5b602090810290910101525b6001909801975b6001909701966105a6565b6005546bffffffffffffffffffffffff6c010000000000000000000000009091048116908a1610156108745760025460009b509b5061096d565b6001891615156109275789600160026bffffffffffffffffffffffff8c1604036bffffffffffffffffffffffff168151811015156108ae57fe5b6020908102909101015191508960026bffffffffffffffffffffffff8b16046bffffffffffffffffffffffff168151811015156108e757fe5b60209081029091010151905061090e610900838361107c565b671bc16d674ec8000061109e565b6fffffffffffffffffffffffffffffffff169250610965565b8960026bffffffffffffffffffffffff6000198c0116046bffffffffffffffffffffffff1681518110151561095857fe5b9060200190602002015192505b8260019b509b505b505050505050505050509091565b600061099c6104313360003560008051602061113483398151915216610f61565b5060055460a060020a908102819004600101026109d173ffffffffffffffffffffffffffffffffffffffff1982161515611070565b6005546109e49060a060020a0283610caa565b600580546bffffffffffffffffffffffff191660a060020a90920491909117905550565b600160a060020a038116600090815260046020526040812054610a339160a060020a90910290610caa565b50565b60046020526000908152604090205460a060020a0281565b60055460a060020a0281565b6000806000610a67610a7a565b91509150610a7481611070565b50919050565b60025460015460ff60a060020a909104169091565b600360205260009081526040902054600160a060020a031681565b6040805134808252602082018381523693830184905260043593602435938493869333936000803560008051602061113483398151915216949092606082018484808284376040519201829003965090945050505050a4610b206104313360003560008051602061113483398151915216610f61565b6bffffffffffffffffffffffff83161515610b3a57600080fd5b5050600580546bffffffffffffffffffffffff9092166c01000000000000000000000000027fffffffffffffffff000000000000000000000000ffffffffffffffffffffffff909216919091179055565b610baa6104313360003560008051602061113483398151915216610f61565b6000805473ffffffffffffffffffffffffffffffffffffffff1916600160a060020a03838116919091178083556040519116917f1abebea81bfa2637f28358c371278fb15ede7ea8dd28d2e03b112ff6d936ada491a250565b600154600160a060020a031681565b6040805134808252602082018381523693830184905260043593602435938493869333936000803560008051602061113483398151915216949092606082018484808284376040519201829003965090945050505050a4610c886104313360003560008051602061113483398151915216610f61565b50506001805474ff000000000000000000000000000000000000000019169055565b6040805134808252602082018381523693830184905260043593602435938493869333936000803560008051602061113483398151915216949092606082018484808284376040519201829003965090945050505050a4610d206104313360003560008051602061113483398151915216610f61565b73ffffffffffffffffffffffffffffffffffffffff1984161515610d4357600080fd5b600160a060020a03831615801590610d8f5750600160a060020a03831660009081526004602052604090205460a060020a0273ffffffffffffffffffffffffffffffffffffffff191615155b15610d9957600080fd5b73ffffffffffffffffffffffffffffffffffffffff198416600090815260036020908152604080832054600160a060020a039081168452600490925290912080546bffffffffffffffffffffffff19169055831615610e2657600160a060020a038316600090815260046020526040902080546bffffffffffffffffffffffff191660a060020a86041790555b505073ffffffffffffffffffffffffffffffffffffffff1991821660009081526003602052604090208054600160a060020a0390921691909216179055565b600054600160a060020a031681565b610a33816000610caa565b6040805134808252602082018381523693830184905260043593602435938493869333936000803560008051602061113483398151915216949092606082018484808284376040519201829003965090945050505050a4610ef56104313360003560008051602061113483398151915216610f61565b73ffffffffffffffffffffffffffffffffffffffff1983161515610f1857600080fd5b5050600580546bffffffffffffffffffffffff191660a060020a909204919091179055565b6005546c0100000000000000000000000090046bffffffffffffffffffffffff1681565b6000600160a060020a038316301415610f7c5750600161106a565b600154600160a060020a0384811691161415610f9a5750600161106a565b600054600160a060020a03161515610fb45750600061106a565b60008054604080517fb7009613000000000000000000000000000000000000000000000000000000008152600160a060020a038781166004830152306024830152600080516020611134833981519152871660448301529151919092169263b700961392606480820193602093909283900390910190829087803b15801561103b57600080fd5b505af115801561104f573d6000803e3d6000fd5b505050506040513d602081101561106557600080fd5b505190505b92915050565b801515610a3357600080fd5b8082016fffffffffffffffffffffffffffffffff808416908216101561106a57fe5b600061110b6fffffffffffffffffffffffffffffffff8316600281046fffffffffffffffffffffffffffffffff16670de0b6b3a76400006fffffffffffffffffffffffffffffffff16866fffffffffffffffffffffffffffffffff16020181151561110557fe5b04611112565b9392505050565b806fffffffffffffffffffffffffffffffff8116811461112e57fe5b9190505600ffffffff00000000000000000000000000000000000000000000000000000000a165627a7a72305820a0db15331da64acc32c42b969d55e909824d6e7439397ee28f1d59ed8663ae740029",
  "source": "// This is the original medianizer implementation used by MakerDAO. we use this\n// contract to fetch the latest ether price by calling the read() function.\n// public deployed instances of  this contract can be found here:\n//1) kovan: https://kovan.etherscan.io/address/0x9FfFE440258B79c5d6604001674A4722FfC0f7Bc#code\n//2) mainnet: https://etherscan.io/address/0x729D19f657BD0614b4985Cf1D82531c67569197B#readContract\n\n/// return median value of feeds\n\n// Copyright (C) 2017  DappHub, LLC\n\n// Licensed under the Apache License, Version 2.0 (the \"License\").\n// You may not use this file except in compliance with the License.\n\n// Unless required by applicable law or agreed to in writing, software\n// distributed under the License is distributed on an \"AS IS\" BASIS,\n// WITHOUT WARRANTIES OR CONDITIONS OF ANY KIND (express or implied).\n\npragma solidity ^0.4.8;\n\ncontract DSAuthority {\n    function canCall(\n        address src, address dst, bytes4 sig\n    ) constant returns (bool);\n}\n\ncontract DSAuthEvents {\n    event LogSetAuthority (address indexed authority);\n    event LogSetOwner     (address indexed owner);\n}\n\ncontract DSAuth is DSAuthEvents {\n    DSAuthority  public  authority;\n    address      public  owner;\n\n    function DSAuth() {\n        owner = msg.sender;\n        LogSetOwner(msg.sender);\n    }\n\n    function setOwner(address owner_)\n        auth\n    {\n        owner = owner_;\n        LogSetOwner(owner);\n    }\n\n    function setAuthority(DSAuthority authority_)\n        auth\n    {\n        authority = authority_;\n        LogSetAuthority(authority);\n    }\n\n    modifier auth {\n        assert(isAuthorized(msg.sender, msg.sig));\n        _;\n    }\n\n    modifier authorized(bytes4 sig) {\n        assert(isAuthorized(msg.sender, sig));\n        _;\n    }\n\n    function isAuthorized(address src, bytes4 sig) internal returns (bool) {\n        if (src == address(this)) {\n            return true;\n        } else if (src == owner) {\n            return true;\n        } else if (authority == DSAuthority(0)) {\n            return false;\n        } else {\n            return authority.canCall(src, this, sig);\n        }\n    }\n\n    function assert(bool x) internal {\n        if (!x) throw;\n    }\n}\n\ncontract DSNote {\n    event LogNote(\n        bytes4   indexed  sig,\n        address  indexed  guy,\n        bytes32  indexed  foo,\n        bytes32  indexed  bar,\n\tuint\t \t  wad,\n        bytes             fax\n    ) anonymous;\n\n    modifier note {\n        bytes32 foo;\n        bytes32 bar;\n\n        assembly {\n            foo := calldataload(4)\n            bar := calldataload(36)\n        }\n\n        LogNote(msg.sig, msg.sender, foo, bar, msg.value, msg.data);\n\n        _;\n    }\n}\n\ncontract DSMath {\n\n    /*\n    standard uint256 functions\n     */\n\n    function add(uint256 x, uint256 y) constant internal returns (uint256 z) {\n        assert((z = x + y) >= x);\n    }\n\n    function sub(uint256 x, uint256 y) constant internal returns (uint256 z) {\n        assert((z = x - y) <= x);\n    }\n\n    function mul(uint256 x, uint256 y) constant internal returns (uint256 z) {\n        assert((z = x * y) >= x);\n    }\n\n    function div(uint256 x, uint256 y) constant internal returns (uint256 z) {\n        z = x / y;\n    }\n\n    function min(uint256 x, uint256 y) constant internal returns (uint256 z) {\n        return x <= y ? x : y;\n    }\n    function max(uint256 x, uint256 y) constant internal returns (uint256 z) {\n        return x >= y ? x : y;\n    }\n\n    /*\n    uint128 functions (h is for half)\n     */\n\n\n    function hadd(uint128 x, uint128 y) constant internal returns (uint128 z) {\n        assert((z = x + y) >= x);\n    }\n\n    function hsub(uint128 x, uint128 y) constant internal returns (uint128 z) {\n        assert((z = x - y) <= x);\n    }\n\n    function hmul(uint128 x, uint128 y) constant internal returns (uint128 z) {\n        assert((z = x * y) >= x);\n    }\n\n    function hdiv(uint128 x, uint128 y) constant internal returns (uint128 z) {\n        z = x / y;\n    }\n\n    function hmin(uint128 x, uint128 y) constant internal returns (uint128 z) {\n        return x <= y ? x : y;\n    }\n    function hmax(uint128 x, uint128 y) constant internal returns (uint128 z) {\n        return x >= y ? x : y;\n    }\n\n\n    /*\n    int256 functions\n     */\n\n    function imin(int256 x, int256 y) constant internal returns (int256 z) {\n        return x <= y ? x : y;\n    }\n    function imax(int256 x, int256 y) constant internal returns (int256 z) {\n        return x >= y ? x : y;\n    }\n\n    /*\n    WAD math\n     */\n\n    uint128 constant WAD = 10 ** 18;\n\n    function wadd(uint128 x, uint128 y) constant internal returns (uint128) {\n        return hadd(x, y);\n    }\n\n    function wsub(uint128 x, uint128 y) constant internal returns (uint128) {\n        return hsub(x, y);\n    }\n\n    function wmul(uint128 x, uint128 y) constant internal returns (uint128 z) {\n        z = cast((uint256(x) * y + WAD / 2) / WAD);\n    }\n\n    function wdiv(uint128 x, uint128 y) constant internal returns (uint128 z) {\n        z = cast((uint256(x) * WAD + y / 2) / y);\n    }\n\n    function wmin(uint128 x, uint128 y) constant internal returns (uint128) {\n        return hmin(x, y);\n    }\n    function wmax(uint128 x, uint128 y) constant internal returns (uint128) {\n        return hmax(x, y);\n    }\n\n    /*\n    RAY math\n     */\n\n    uint128 constant RAY = 10 ** 27;\n\n    function radd(uint128 x, uint128 y) constant internal returns (uint128) {\n        return hadd(x, y);\n    }\n\n    function rsub(uint128 x, uint128 y) constant internal returns (uint128) {\n        return hsub(x, y);\n    }\n\n    function rmul(uint128 x, uint128 y) constant internal returns (uint128 z) {\n        z = cast((uint256(x) * y + RAY / 2) / RAY);\n    }\n\n    function rdiv(uint128 x, uint128 y) constant internal returns (uint128 z) {\n        z = cast((uint256(x) * RAY + y / 2) / y);\n    }\n\n    function rpow(uint128 x, uint64 n) constant internal returns (uint128 z) {\n        // This famous algorithm is called \"exponentiation by squaring\"\n        // and calculates x^n with x as fixed-point and n as regular unsigned.\n        //\n        // It's O(log n), instead of O(n) for naive repeated multiplication.\n        //\n        // These facts are why it works:\n        //\n        //  If n is even, then x^n = (x^2)^(n/2).\n        //  If n is odd,  then x^n = x * x^(n-1),\n        //   and applying the equation for even x gives\n        //    x^n = x * (x^2)^((n-1) / 2).\n        //\n        //  Also, EVM division is flooring and\n        //    floor[(n-1) / 2] = floor[n / 2].\n\n        z = n % 2 != 0 ? x : RAY;\n\n        for (n /= 2; n != 0; n /= 2) {\n            x = rmul(x, x);\n\n            if (n % 2 != 0) {\n                z = rmul(z, x);\n            }\n        }\n    }\n\n    function rmin(uint128 x, uint128 y) constant internal returns (uint128) {\n        return hmin(x, y);\n    }\n    function rmax(uint128 x, uint128 y) constant internal returns (uint128) {\n        return hmax(x, y);\n    }\n\n    function cast(uint256 x) constant internal returns (uint128 z) {\n        assert((z = uint128(x)) == x);\n    }\n\n}\n\ncontract DSThing is DSAuth, DSNote, DSMath {\n}\n\ncontract DSValue is DSThing {\n    bool    has;\n    bytes32 val;\n    function peek() constant returns (bytes32, bool) {\n        return (val,has);\n    }\n    function read() constant returns (bytes32) {\n        var (wut, has) = peek();\n        assert(has);\n        return wut;\n    }\n    function poke(bytes32 wut) note auth {\n        val = wut;\n        has = true;\n    }\n    function void() note auth { // unset the value\n        has = false;\n    }\n}\n\ncontract Medianizer is DSValue {\n    mapping (bytes12 => address) public values;\n    mapping (address => bytes12) public indexes;\n    bytes12 public next = 0x1;\n\n    uint96 public min = 0x1;\n\n    function set(address wat) auth {\n        bytes12 nextId = bytes12(uint96(next) + 1);\n        assert(nextId != 0x0);\n        set(next, wat);\n        next = nextId;\n    }\n\n    function set(bytes12 pos, address wat) note auth {\n        if (pos == 0x0) throw;\n\n        if (wat != 0 && indexes[wat] != 0) throw;\n\n        indexes[values[pos]] = 0; // Making sure to remove a possible existing address in that position\n\n        if (wat != 0) {\n            indexes[wat] = pos;\n        }\n\n        values[pos] = wat;\n    }\n\n    function setMin(uint96 min_) note auth {\n        if (min_ == 0x0) throw;\n        min = min_;\n    }\n\n    function setNext(bytes12 next_) note auth {\n        if (next_ == 0x0) throw;\n        next = next_;\n    }\n\n    function unset(bytes12 pos) {\n        set(pos, 0);\n    }\n\n    function unset(address wat) {\n        set(indexes[wat], 0);\n    }\n\n    function poke() {\n        poke(0);\n    }\n\n    function poke(bytes32) note {\n        (val, has) = compute();\n    }\n\n    function compute() constant returns (bytes32, bool) {\n        bytes32[] memory wuts = new bytes32[](uint96(next) - 1);\n        uint96 ctr = 0;\n        for (uint96 i = 1; i < uint96(next); i++) {\n            if (values[bytes12(i)] != 0) {\n                var (wut, wuz) = DSValue(values[bytes12(i)]).peek();\n                if (wuz) {\n                    if (ctr == 0 || wut >= wuts[ctr - 1]) {\n                        wuts[ctr] = wut;\n                    } else {\n                        uint96 j = 0;\n                        while (wut >= wuts[j]) {\n                            j++;\n                        }\n                        for (uint96 k = ctr; k > j; k--) {\n                            wuts[k] = wuts[k - 1];\n                        }\n                        wuts[j] = wut;\n                    }\n                    ctr++;\n                }\n            }\n        }\n\n        if (ctr < min) return (val, false);\n\n        bytes32 value;\n        if (ctr % 2 == 0) {\n            uint128 val1 = uint128(wuts[(ctr / 2) - 1]);\n            uint128 val2 = uint128(wuts[ctr / 2]);\n            value = bytes32(wdiv(hadd(val1, val2), 2 ether));\n        } else {\n            value = wuts[(ctr - 1) / 2];\n        }\n\n        return (value, true);\n    }\n\n}\n",
  "sourcePath": "/Users/jamesmorgan/Dropbox/workspace-blockrocket/radi.cards/contracts/Medianizer.sol",
  "compiler": {
    "name": "solc",
    "version": "0.4.24+commit.e67f0147.Emscripten.clang"
  },
  "schemaVersion": "3.0.1",
  "updatedAt": "2019-01-28T21:23:07.193Z",
  "devdoc": {
    "methods": {}
  },
  "userdoc": {
    "methods": {}
  }
}