{
  "contractName": "RadiCards",
  "abi": [
    {
      "constant": true,
      "inputs": [
        {
          "name": "_interfaceId",
          "type": "bytes4"
        }
      ],
      "name": "supportsInterface",
      "outputs": [
        {
          "name": "",
          "type": "bool"
        }
      ],
      "payable": false,
      "stateMutability": "view",
      "type": "function",
      "signature": "0x01ffc9a7"
    },
    {
      "constant": true,
      "inputs": [],
      "name": "name",
      "outputs": [
        {
          "name": "",
          "type": "string"
        }
      ],
      "payable": false,
      "stateMutability": "view",
      "type": "function",
      "signature": "0x06fdde03"
    },
    {
      "constant": true,
      "inputs": [
        {
          "name": "",
          "type": "uint256"
        }
      ],
      "name": "tokenIdToRadiCardIndex",
      "outputs": [
        {
          "name": "gifter",
          "type": "address"
        },
        {
          "name": "giftingAmount",
          "type": "uint256"
        },
        {
          "name": "message",
          "type": "string"
        },
        {
          "name": "extra",
          "type": "string"
        },
        {
          "name": "cardIndex",
          "type": "uint256"
        },
        {
          "name": "benefactorIndex",
          "type": "uint256"
        }
      ],
      "payable": false,
      "stateMutability": "view",
      "type": "function",
      "signature": "0x0701fd6b"
    },
    {
      "constant": true,
      "inputs": [
        {
          "name": "_tokenId",
          "type": "uint256"
        }
      ],
      "name": "getApproved",
      "outputs": [
        {
          "name": "",
          "type": "address"
        }
      ],
      "payable": false,
      "stateMutability": "view",
      "type": "function",
      "signature": "0x081812fc"
    },
    {
      "constant": false,
      "inputs": [
        {
          "name": "_to",
          "type": "address"
        },
        {
          "name": "_tokenId",
          "type": "uint256"
        }
      ],
      "name": "approve",
      "outputs": [],
      "payable": false,
      "stateMutability": "nonpayable",
      "type": "function",
      "signature": "0x095ea7b3"
    },
    {
      "constant": true,
      "inputs": [
        {
          "name": "_operator",
          "type": "address"
        },
        {
          "name": "_role",
          "type": "string"
        }
      ],
      "name": "checkRole",
      "outputs": [],
      "payable": false,
      "stateMutability": "view",
      "type": "function",
      "signature": "0x0988ca8c"
    },
    {
      "constant": true,
      "inputs": [
        {
          "name": "",
          "type": "uint256"
        }
      ],
      "name": "benefactors",
      "outputs": [
        {
          "name": "ethAddress",
          "type": "address"
        },
        {
          "name": "name",
          "type": "string"
        },
        {
          "name": "website",
          "type": "string"
        }
      ],
      "payable": false,
      "stateMutability": "view",
      "type": "function",
      "signature": "0x128ee161"
    },
    {
      "constant": true,
      "inputs": [],
      "name": "totalSupply",
      "outputs": [
        {
          "name": "",
          "type": "uint256"
        }
      ],
      "payable": false,
      "stateMutability": "view",
      "type": "function",
      "signature": "0x18160ddd"
    },
    {
      "constant": true,
      "inputs": [],
      "name": "ROLE_WHITELISTED",
      "outputs": [
        {
          "name": "",
          "type": "string"
        }
      ],
      "payable": false,
      "stateMutability": "view",
      "type": "function",
      "signature": "0x18b919e9"
    },
    {
      "constant": true,
      "inputs": [],
      "name": "InterfaceId_ERC165",
      "outputs": [
        {
          "name": "",
          "type": "bytes4"
        }
      ],
      "payable": false,
      "stateMutability": "view",
      "type": "function",
      "signature": "0x19fa8f50"
    },
    {
      "constant": true,
      "inputs": [
        {
          "name": "_operator",
          "type": "address"
        },
        {
          "name": "_role",
          "type": "string"
        }
      ],
      "name": "hasRole",
      "outputs": [
        {
          "name": "",
          "type": "bool"
        }
      ],
      "payable": false,
      "stateMutability": "view",
      "type": "function",
      "signature": "0x217fe6c6"
    },
    {
      "constant": false,
      "inputs": [
        {
          "name": "_from",
          "type": "address"
        },
        {
          "name": "_to",
          "type": "address"
        },
        {
          "name": "_tokenId",
          "type": "uint256"
        }
      ],
      "name": "transferFrom",
      "outputs": [],
      "payable": false,
      "stateMutability": "nonpayable",
      "type": "function",
      "signature": "0x23b872dd"
    },
    {
      "constant": false,
      "inputs": [
        {
          "name": "_operators",
          "type": "address[]"
        }
      ],
      "name": "removeAddressesFromWhitelist",
      "outputs": [],
      "payable": false,
      "stateMutability": "nonpayable",
      "type": "function",
      "signature": "0x24953eaa"
    },
    {
      "constant": false,
      "inputs": [
        {
          "name": "_operator",
          "type": "address"
        }
      ],
      "name": "removeAddressFromWhitelist",
      "outputs": [],
      "payable": false,
      "stateMutability": "nonpayable",
      "type": "function",
      "signature": "0x286dd3f5"
    },
    {
      "constant": true,
      "inputs": [
        {
          "name": "_owner",
          "type": "address"
        },
        {
          "name": "_index",
          "type": "uint256"
        }
      ],
      "name": "tokenOfOwnerByIndex",
      "outputs": [
        {
          "name": "",
          "type": "uint256"
        }
      ],
      "payable": false,
      "stateMutability": "view",
      "type": "function",
      "signature": "0x2f745c59"
    },
    {
      "constant": true,
      "inputs": [],
      "name": "tokenIdPointer",
      "outputs": [
        {
          "name": "",
          "type": "uint256"
        }
      ],
      "payable": false,
      "stateMutability": "view",
      "type": "function",
      "signature": "0x3b3a1a7a"
    },
    {
      "constant": false,
      "inputs": [
        {
          "name": "_from",
          "type": "address"
        },
        {
          "name": "_to",
          "type": "address"
        },
        {
          "name": "_tokenId",
          "type": "uint256"
        }
      ],
      "name": "safeTransferFrom",
      "outputs": [],
      "payable": false,
      "stateMutability": "nonpayable",
      "type": "function",
      "signature": "0x42842e0e"
    },
    {
      "constant": true,
      "inputs": [],
      "name": "tokenBaseURI",
      "outputs": [
        {
          "name": "",
          "type": "string"
        }
      ],
      "payable": false,
      "stateMutability": "view",
      "type": "function",
      "signature": "0x4e99b800"
    },
    {
      "constant": true,
      "inputs": [
        {
          "name": "_tokenId",
          "type": "uint256"
        }
      ],
      "name": "exists",
      "outputs": [
        {
          "name": "",
          "type": "bool"
        }
      ],
      "payable": false,
      "stateMutability": "view",
      "type": "function",
      "signature": "0x4f558e79"
    },
    {
      "constant": true,
      "inputs": [
        {
          "name": "_index",
          "type": "uint256"
        }
      ],
      "name": "tokenByIndex",
      "outputs": [
        {
          "name": "",
          "type": "uint256"
        }
      ],
      "payable": false,
      "stateMutability": "view",
      "type": "function",
      "signature": "0x4f6ccce7"
    },
    {
      "constant": true,
      "inputs": [
        {
          "name": "_tokenId",
          "type": "uint256"
        }
      ],
      "name": "ownerOf",
      "outputs": [
        {
          "name": "",
          "type": "address"
        }
      ],
      "payable": false,
      "stateMutability": "view",
      "type": "function",
      "signature": "0x6352211e"
    },
    {
      "constant": true,
      "inputs": [
        {
          "name": "_owner",
          "type": "address"
        }
      ],
      "name": "balanceOf",
      "outputs": [
        {
          "name": "",
          "type": "uint256"
        }
      ],
      "payable": false,
      "stateMutability": "view",
      "type": "function",
      "signature": "0x70a08231"
    },
    {
      "constant": false,
      "inputs": [],
      "name": "renounceOwnership",
      "outputs": [],
      "payable": false,
      "stateMutability": "nonpayable",
      "type": "function",
      "signature": "0x715018a6"
    },
    {
      "constant": false,
      "inputs": [
        {
          "name": "_operator",
          "type": "address"
        }
      ],
      "name": "addAddressToWhitelist",
      "outputs": [],
      "payable": false,
      "stateMutability": "nonpayable",
      "type": "function",
      "signature": "0x7b9417c8"
    },
    {
      "constant": true,
      "inputs": [],
      "name": "owner",
      "outputs": [
        {
          "name": "",
          "type": "address"
        }
      ],
      "payable": false,
      "stateMutability": "view",
      "type": "function",
      "signature": "0x8da5cb5b"
    },
    {
      "constant": true,
      "inputs": [
        {
          "name": "",
          "type": "uint256"
        }
      ],
      "name": "cards",
      "outputs": [
        {
          "name": "tokenURI",
          "type": "string"
        },
        {
          "name": "active",
          "type": "bool"
        }
      ],
      "payable": false,
      "stateMutability": "view",
      "type": "function",
      "signature": "0x8dc10768"
    },
    {
      "constant": true,
      "inputs": [],
      "name": "symbol",
      "outputs": [
        {
          "name": "",
          "type": "string"
        }
      ],
      "payable": false,
      "stateMutability": "view",
      "type": "function",
      "signature": "0x95d89b41"
    },
    {
      "constant": true,
      "inputs": [
        {
          "name": "_operator",
          "type": "address"
        }
      ],
      "name": "whitelist",
      "outputs": [
        {
          "name": "",
          "type": "bool"
        }
      ],
      "payable": false,
      "stateMutability": "view",
      "type": "function",
      "signature": "0x9b19251a"
    },
    {
      "constant": false,
      "inputs": [
        {
          "name": "_to",
          "type": "address"
        },
        {
          "name": "_approved",
          "type": "bool"
        }
      ],
      "name": "setApprovalForAll",
      "outputs": [],
      "payable": false,
      "stateMutability": "nonpayable",
      "type": "function",
      "signature": "0xa22cb465"
    },
    {
      "constant": true,
      "inputs": [],
      "name": "minContribution",
      "outputs": [
        {
          "name": "",
          "type": "uint256"
        }
      ],
      "payable": false,
      "stateMutability": "view",
      "type": "function",
      "signature": "0xaaffadf3"
    },
    {
      "constant": false,
      "inputs": [
        {
          "name": "_from",
          "type": "address"
        },
        {
          "name": "_to",
          "type": "address"
        },
        {
          "name": "_tokenId",
          "type": "uint256"
        },
        {
          "name": "_data",
          "type": "bytes"
        }
      ],
      "name": "safeTransferFrom",
      "outputs": [],
      "payable": false,
      "stateMutability": "nonpayable",
      "type": "function",
      "signature": "0xb88d4fde"
    },
    {
      "constant": false,
      "inputs": [
        {
          "name": "_operators",
          "type": "address[]"
        }
      ],
      "name": "addAddressesToWhitelist",
      "outputs": [],
      "payable": false,
      "stateMutability": "nonpayable",
      "type": "function",
      "signature": "0xe2ec6ec3"
    },
    {
      "constant": true,
      "inputs": [
        {
          "name": "_owner",
          "type": "address"
        },
        {
          "name": "_operator",
          "type": "address"
        }
      ],
      "name": "isApprovedForAll",
      "outputs": [
        {
          "name": "",
          "type": "bool"
        }
      ],
      "payable": false,
      "stateMutability": "view",
      "type": "function",
      "signature": "0xe985e9c5"
    },
    {
      "constant": false,
      "inputs": [
        {
          "name": "_newOwner",
          "type": "address"
        }
      ],
      "name": "transferOwnership",
      "outputs": [],
      "payable": false,
      "stateMutability": "nonpayable",
      "type": "function",
      "signature": "0xf2fde38b"
    },
    {
      "inputs": [],
      "payable": false,
      "stateMutability": "nonpayable",
      "type": "constructor",
      "signature": "constructor"
    },
    {
      "anonymous": false,
      "inputs": [
        {
          "indexed": true,
          "name": "operator",
          "type": "address"
        },
        {
          "indexed": false,
          "name": "role",
          "type": "string"
        }
      ],
      "name": "RoleAdded",
      "type": "event",
      "signature": "0xbfec83d64eaa953f2708271a023ab9ee82057f8f3578d548c1a4ba0b5b700489"
    },
    {
      "anonymous": false,
      "inputs": [
        {
          "indexed": true,
          "name": "operator",
          "type": "address"
        },
        {
          "indexed": false,
          "name": "role",
          "type": "string"
        }
      ],
      "name": "RoleRemoved",
      "type": "event",
      "signature": "0xd211483f91fc6eff862467f8de606587a30c8fc9981056f051b897a418df803a"
    },
    {
      "anonymous": false,
      "inputs": [
        {
          "indexed": true,
          "name": "previousOwner",
          "type": "address"
        }
      ],
      "name": "OwnershipRenounced",
      "type": "event",
      "signature": "0xf8df31144d9c2f0f6b59d69b8b98abd5459d07f2742c4df920b25aae33c64820"
    },
    {
      "anonymous": false,
      "inputs": [
        {
          "indexed": true,
          "name": "previousOwner",
          "type": "address"
        },
        {
          "indexed": true,
          "name": "newOwner",
          "type": "address"
        }
      ],
      "name": "OwnershipTransferred",
      "type": "event",
      "signature": "0x8be0079c531659141344cd1fd0a4f28419497f9722a3daafe3b4186f6b6457e0"
    },
    {
      "anonymous": false,
      "inputs": [
        {
          "indexed": true,
          "name": "_from",
          "type": "address"
        },
        {
          "indexed": true,
          "name": "_to",
          "type": "address"
        },
        {
          "indexed": true,
          "name": "_tokenId",
          "type": "uint256"
        }
      ],
      "name": "Transfer",
      "type": "event",
      "signature": "0xddf252ad1be2c89b69c2b068fc378daa952ba7f163c4a11628f55a4df523b3ef"
    },
    {
      "anonymous": false,
      "inputs": [
        {
          "indexed": true,
          "name": "_owner",
          "type": "address"
        },
        {
          "indexed": true,
          "name": "_approved",
          "type": "address"
        },
        {
          "indexed": true,
          "name": "_tokenId",
          "type": "uint256"
        }
      ],
      "name": "Approval",
      "type": "event",
      "signature": "0x8c5be1e5ebec7d5bd14f71427d1e84f3dd0314c0f7b2291e5b200ac8c7c3b925"
    },
    {
      "anonymous": false,
      "inputs": [
        {
          "indexed": true,
          "name": "_owner",
          "type": "address"
        },
        {
          "indexed": true,
          "name": "_operator",
          "type": "address"
        },
        {
          "indexed": false,
          "name": "_approved",
          "type": "bool"
        }
      ],
      "name": "ApprovalForAll",
      "type": "event",
      "signature": "0x17307eab39ab6107e8899845ad3d59bd9653f200f220920489ca2b5937696c31"
    },
    {
      "constant": false,
      "inputs": [
        {
          "name": "to",
          "type": "address"
        },
        {
          "name": "_benefactorIndex",
          "type": "uint256"
        },
        {
          "name": "_cardIndex",
          "type": "uint256"
        },
        {
          "name": "_message",
          "type": "string"
        },
        {
          "name": "_extra",
          "type": "string"
        }
      ],
      "name": "gift",
      "outputs": [
        {
          "name": "",
          "type": "bool"
        }
      ],
      "payable": true,
      "stateMutability": "payable",
      "type": "function",
      "signature": "0x8074dc59"
    },
    {
      "constant": false,
      "inputs": [
        {
          "name": "_tokenId",
          "type": "uint256"
        }
      ],
      "name": "burn",
      "outputs": [],
      "payable": false,
      "stateMutability": "nonpayable",
      "type": "function",
      "signature": "0x42966c68"
    },
    {
      "constant": true,
      "inputs": [
        {
          "name": "_tokenId",
          "type": "uint256"
        }
      ],
      "name": "tokenURI",
      "outputs": [
        {
          "name": "",
          "type": "string"
        }
      ],
      "payable": false,
      "stateMutability": "view",
      "type": "function",
      "signature": "0xc87b56dd"
    },
    {
      "constant": true,
      "inputs": [
        {
          "name": "_tokenId",
          "type": "uint256"
        }
      ],
      "name": "tokenDetails",
      "outputs": [
        {
          "name": "_gifter",
          "type": "address"
        },
        {
          "name": "_giftingAmount",
          "type": "uint256"
        },
        {
          "name": "_message",
          "type": "string"
        },
        {
          "name": "_extra",
          "type": "string"
        },
        {
          "name": "_tokenUri",
          "type": "string"
        }
      ],
      "payable": false,
      "stateMutability": "view",
      "type": "function",
      "signature": "0xfc314e31"
    },
    {
      "constant": true,
      "inputs": [
        {
          "name": "_tokenId",
          "type": "uint256"
        }
      ],
      "name": "tokenBenefactor",
      "outputs": [
        {
          "name": "_ethAddress",
          "type": "address"
        },
        {
          "name": "_name",
          "type": "string"
        },
        {
          "name": "_website",
          "type": "string"
        }
      ],
      "payable": false,
      "stateMutability": "view",
      "type": "function",
      "signature": "0x1db1b4fd"
    },
    {
      "constant": true,
      "inputs": [
        {
          "name": "_owner",
          "type": "address"
        }
      ],
      "name": "tokensOf",
      "outputs": [
        {
          "name": "_tokenIds",
          "type": "uint256[]"
        }
      ],
      "payable": false,
      "stateMutability": "view",
      "type": "function",
      "signature": "0x5a3f2672"
    },
    {
      "constant": true,
      "inputs": [],
      "name": "benefactorsKeys",
      "outputs": [
        {
          "name": "_keys",
          "type": "uint256[]"
        }
      ],
      "payable": false,
      "stateMutability": "view",
      "type": "function",
      "signature": "0x03cfe12d"
    },
    {
      "constant": true,
      "inputs": [],
      "name": "cardsKeys",
      "outputs": [
        {
          "name": "_keys",
          "type": "uint256[]"
        }
      ],
      "payable": false,
      "stateMutability": "view",
      "type": "function",
      "signature": "0xf7ad51ce"
    },
    {
      "constant": false,
      "inputs": [
        {
          "name": "_benefactorIndex",
          "type": "uint256"
        },
        {
          "name": "_ethAddress",
          "type": "address"
        },
        {
          "name": "_name",
          "type": "string"
        },
        {
          "name": "_website",
          "type": "string"
        }
      ],
      "name": "addBenefactor",
      "outputs": [],
      "payable": false,
      "stateMutability": "nonpayable",
      "type": "function",
      "signature": "0xbdbf3a2c"
    },
    {
      "constant": false,
      "inputs": [
        {
          "name": "_cardIndex",
          "type": "uint256"
        },
        {
          "name": "_tokenURI",
          "type": "string"
        },
        {
          "name": "_active",
          "type": "bool"
        }
      ],
      "name": "addCard",
      "outputs": [],
      "payable": false,
      "stateMutability": "nonpayable",
      "type": "function",
      "signature": "0x5f75d62d"
    },
    {
      "constant": false,
      "inputs": [
        {
          "name": "_newBaseURI",
          "type": "string"
        }
      ],
      "name": "setTokenBaseURI",
      "outputs": [],
      "payable": false,
      "stateMutability": "nonpayable",
      "type": "function",
      "signature": "0x8ef79e91"
    },
    {
      "constant": false,
      "inputs": [
        {
          "name": "_minContribution",
          "type": "uint256"
        }
      ],
      "name": "setMinContribution",
      "outputs": [],
      "payable": false,
      "stateMutability": "nonpayable",
      "type": "function",
      "signature": "0x473b0d46"
    },
    {
      "constant": false,
      "inputs": [
        {
          "name": "_cardIndex",
          "type": "uint256"
        },
        {
          "name": "_active",
          "type": "bool"
        }
      ],
      "name": "setActive",
      "outputs": [],
      "payable": false,
      "stateMutability": "nonpayable",
      "type": "function",
      "signature": "0xe60a955d"
    }
  ],
  "bytecode": "0x60c0604052601c60808190527f68747470733a2f2f697066732e696e667572612e696f2f697066732f0000000060a09081526200004091600e9190620008fa565b506000600f55662386f26fc100006010553480156200005e57600080fd5b50604080518082018252600981527f52616469436172647300000000000000000000000000000000000000000000006020808301919091528251808401909352600483527f52414449000000000000000000000000000000000000000000000000000000009083015290620000fc7f01ffc9a700000000000000000000000000000000000000000000000000000000640100000000620003af810204565b620001307f80ac58cd00000000000000000000000000000000000000000000000000000000640100000000620003af810204565b620001647f4f558e7900000000000000000000000000000000000000000000000000000000640100000000620003af810204565b815162000179906005906020850190620008fa565b5080516200018f906006906020840190620008fa565b50620001c47f780e9d6300000000000000000000000000000000000000000000000000000000640100000000620003af810204565b620001f87f5b5e139f00000000000000000000000000000000000000000000000000000000640100000000620003af810204565b5050600c8054600160a060020a0319163390811790915562000223906401000000006200041c810204565b620002e6600173b189f76323678e094d4996d182a792e52369c0056040805190810160405280601e81526020017f456c656374726f6e69632046726f6e7469657220466f756e646174696f6e0000815250606060405190810160405280603981526020017f68747470733a2f2f7777772e6566662e6f72672f70616765732f65746865726581526020017f756d2d616e642d6c697465636f696e2d646f6e6174696f6e730000000000000081525062000487640100000000026401000000009004565b620003a9600273998f25be40241ca5d8f5fcaf3591b5ed06ef3be76040805190810160405280601f81526020017f46726565646f6d206f662074686520507265737320466f756e646174696f6e00815250606060405190810160405280602c81526020017f68747470733a2f2f66726565646f6d2e70726573732f646f6e6174652f63727981526020017f70746f63757272656e63792f000000000000000000000000000000000000000081525062000487640100000000026401000000009004565b6200099f565b7fffffffff000000000000000000000000000000000000000000000000000000008082161415620003df57600080fd5b7fffffffff00000000000000000000000000000000000000000000000000000000166000908152602081905260409020805460ff19166001179055565b600c54600160a060020a031633146200043457600080fd5b62000484816040805190810160405280600981526020017f77686974656c6973740000000000000000000000000000000000000000000000815250620006ef640100000000026401000000009004565b50565b33620004d8816040805190810160405280600981526020017f77686974656c697374000000000000000000000000000000000000000000000081525062000815640100000000026401000000009004565b600160a060020a03841615156200055057604080517f08c379a000000000000000000000000000000000000000000000000000000000815260206004820152600f60248201527f496e76616c696420616464726573730000000000000000000000000000000000604482015290519081900360640190fd5b82511515620005c057604080517f08c379a000000000000000000000000000000000000000000000000000000000815260206004820152600c60248201527f496e76616c6964206e616d650000000000000000000000000000000000000000604482015290519081900360640190fd5b815115156200063057604080517f08c379a000000000000000000000000000000000000000000000000000000000815260206004820152600c60248201527f496e76616c6964206e616d650000000000000000000000000000000000000000604482015290519081900360640190fd5b60408051606081018252600160a060020a038681168252602080830187815283850187905260008a8152601183529490942083518154600160a060020a03191693169290921782559251805192939192620006929260018501920190620008fa565b5060408201518051620006b0916002840191602090910190620008fa565b5050601280546001810182556000919091527fbb8a6a4669ba250d26cd7a459eca9d215f8307e33aebe50379bc5a3617ec344401959095555050505050565b6200076b82600d836040518082805190602001908083835b60208310620007285780518252601f19909201916020918201910162000707565b51815160209384036101000a6000190180199092169116179052920194855250604051938490030190922092915050640100000000620008958102620034a41704565b81600160a060020a03167fbfec83d64eaa953f2708271a023ab9ee82057f8f3578d548c1a4ba0b5b700489826040518080602001828103825283818151815260200191508051906020019080838360005b83811015620007d6578181015183820152602001620007bc565b50505050905090810190601f168015620008045780820380516001836020036101000a031916815260200191505b509250505060405180910390a25050565b6200089182600d836040518082805190602001908083835b602083106200084e5780518252601f1990920191602091820191016200082d565b51815160209384036101000a6000190180199092169116179052920194855250604051938490030190922092915050640100000000620008ba810262002bac1704565b5050565b600160a060020a0316600090815260209190915260409020805460ff19166001179055565b620008cf8282640100000000620008db810204565b15156200089157600080fd5b600160a060020a03166000908152602091909152604090205460ff1690565b828054600181600116156101000203166002900490600052602060002090601f016020900481019282601f106200093d57805160ff19168380011785556200096d565b828001600101855582156200096d579182015b828111156200096d57825182559160200191906001019062000950565b506200097b9291506200097f565b5090565b6200099c91905b808211156200097b576000815560010162000986565b90565b613a3d80620009af6000396000f30060806040526004361061023a5763ffffffff7c010000000000000000000000000000000000000000000000000000000060003504166301ffc9a7811461023f57806303cfe12d1461027557806306fdde03146102da5780630701fd6b14610364578063081812fc14610488578063095ea7b3146104bc5780630988ca8c146104e2578063128ee1611461054957806318160ddd1461065857806318b919e91461067f57806319fa8f50146106945780631db1b4fd146106c6578063217fe6c6146106de57806323b872dd1461074557806324953eaa1461076f578063286dd3f5146107c45780632f745c59146107e55780633b3a1a7a1461080957806342842e0e1461081e57806342966c6814610848578063473b0d46146108605780634e99b800146108785780634f558e791461088d5780634f6ccce7146108a55780635a3f2672146108bd5780635f75d62d146108de5780636352211e1461094057806370a0823114610958578063715018a6146109795780637b9417c81461098e5780638074dc59146109af5780638da5cb5b14610a4c5780638dc1076814610a615780638ef79e9114610afc57806395d89b4114610b1c5780639b19251a14610b31578063a22cb46514610b52578063aaffadf314610b78578063b88d4fde14610b8d578063bdbf3a2c14610bfc578063c87b56dd14610ca3578063e2ec6ec314610cbb578063e60a955d14610d10578063e985e9c514610d2d578063f2fde38b14610d54578063f7ad51ce14610d75578063fc314e3114610d8a575b600080fd5b34801561024b57600080fd5b50610261600160e060020a031960043516610ec4565b604080519115158252519081900360200190f35b34801561028157600080fd5b5061028a610ee3565b60408051602080825283518183015283519192839290830191858101910280838360005b838110156102c65781810151838201526020016102ae565b505050509050019250505060405180910390f35b3480156102e657600080fd5b506102ef610f3c565b6040805160208082528351818301528351919283929083019185019080838360005b83811015610329578181015183820152602001610311565b50505050905090810190601f1680156103565780820380516001836020036101000a031916815260200191505b509250505060405180910390f35b34801561037057600080fd5b5061037c600435610fc9565b6040518087600160a060020a0316600160a060020a031681526020018681526020018060200180602001858152602001848152602001838103835287818151815260200191508051906020019080838360005b838110156103e75781810151838201526020016103cf565b50505050905090810190601f1680156104145780820380516001836020036101000a031916815260200191505b50838103825286518152865160209182019188019080838360005b8381101561044757818101518382015260200161042f565b50505050905090810190601f1680156104745780820380516001836020036101000a031916815260200191505b509850505050505050505060405180910390f35b34801561049457600080fd5b506104a060043561111b565b60408051600160a060020a039092168252519081900360200190f35b3480156104c857600080fd5b506104e0600160a060020a0360043516602435611136565b005b3480156104ee57600080fd5b5060408051602060046024803582810135601f81018590048502860185019096528585526104e0958335600160a060020a03169536956044949193909101919081908401838280828437509497506111df9650505050505050565b34801561055557600080fd5b5061056160043561124d565b6040518084600160a060020a0316600160a060020a031681526020018060200180602001838103835285818151815260200191508051906020019080838360005b838110156105ba5781810151838201526020016105a2565b50505050905090810190601f1680156105e75780820380516001836020036101000a031916815260200191505b50838103825284518152845160209182019186019080838360005b8381101561061a578181015183820152602001610602565b50505050905090810190601f1680156106475780820380516001836020036101000a031916815260200191505b509550505050505060405180910390f35b34801561066457600080fd5b5061066d611393565b60408051918252519081900360200190f35b34801561068b57600080fd5b506102ef611399565b3480156106a057600080fd5b506106a96113be565b60408051600160e060020a03199092168252519081900360200190f35b3480156106d257600080fd5b506105616004356113e2565b3480156106ea57600080fd5b5060408051602060046024803582810135601f8101859004850286018501909652858552610261958335600160a060020a03169536956044949193909101919081908401838280828437509497506116f09650505050505050565b34801561075157600080fd5b506104e0600160a060020a0360043581169060243516604435611763565b34801561077b57600080fd5b50604080516020600480358082013583810280860185019096528085526104e0953695939460249493850192918291850190849080828437509497506118069650505050505050565b3480156107d057600080fd5b506104e0600160a060020a0360043516611855565b3480156107f157600080fd5b5061066d600160a060020a036004351660243561189c565b34801561081557600080fd5b5061066d6118e9565b34801561082a57600080fd5b506104e0600160a060020a03600435811690602435166044356118ef565b34801561085457600080fd5b506104e0600435611910565b34801561086c57600080fd5b506104e06004356119a2565b34801561088457600080fd5b506102ef611a2e565b34801561089957600080fd5b50610261600435611abc565b3480156108b157600080fd5b5061066d600435611ad9565b3480156108c957600080fd5b5061028a600160a060020a0360043516611b0e565b3480156108ea57600080fd5b5060408051602060046024803582810135601f81018590048502860185019096528585526104e0958335953695604494919390910191908190840183828082843750949750505050913515159250611b7a915050565b34801561094c57600080fd5b506104a0600435611c8d565b34801561096457600080fd5b5061066d600160a060020a0360043516611cb7565b34801561098557600080fd5b506104e0611cea565b34801561099a57600080fd5b506104e0600160a060020a0360043516611d4b565b604080516020601f60643560048181013592830184900484028501840190955281845261026194600160a060020a03813516946024803595604435953695608494930191819084018382808284375050604080516020601f89358b018035918201839004830284018301909452808352979a999881019791965091820194509250829150840183828082843750949750611d8f9650505050505050565b348015610a5857600080fd5b506104a0612166565b348015610a6d57600080fd5b50610a79600435612175565b604051808060200183151515158152602001828103825284818151815260200191508051906020019080838360005b83811015610ac0578181015183820152602001610aa8565b50505050905090810190601f168015610aed5780820380516001836020036101000a031916815260200191505b50935050505060405180910390f35b348015610b0857600080fd5b506104e0600480356024810191013561221f565b348015610b2857600080fd5b506102ef6122b6565b348015610b3d57600080fd5b50610261600160a060020a0360043516612317565b348015610b5e57600080fd5b506104e0600160a060020a03600435166024351515612346565b348015610b8457600080fd5b5061066d6123ca565b348015610b9957600080fd5b50604080516020601f6064356004818101359283018490048402850184019095528184526104e094600160a060020a0381358116956024803590921695604435953695608494019181908401838280828437509497506123d09650505050505050565b348015610c0857600080fd5b50604080516020600460443581810135601f81018490048402850184019095528484526104e09482359460248035600160a060020a03169536959460649492019190819084018382808284375050604080516020601f89358b018035918201839004830284018301909452808352979a9998810197919650918201945092508291508401838280828437509497506123f29650505050505050565b348015610caf57600080fd5b506102ef6004356125eb565b348015610cc757600080fd5b50604080516020600480358082013583810280860185019096528085526104e09536959394602494938501929182918501908490808284375094975061272f9650505050505050565b348015610d1c57600080fd5b506104e0600435602435151561277e565b348015610d3957600080fd5b50610261600160a060020a0360043581169060243516612848565b348015610d6057600080fd5b506104e0600160a060020a0360043516612876565b348015610d8157600080fd5b5061028a612896565b348015610d9657600080fd5b50610da26004356128ec565b6040518086600160a060020a0316600160a060020a03168152602001858152602001806020018060200180602001848103845287818151815260200191508051906020019080838360005b83811015610e05578181015183820152602001610ded565b50505050905090810190601f168015610e325780820380516001836020036101000a031916815260200191505b50848103835286518152865160209182019188019080838360005b83811015610e65578181015183820152602001610e4d565b50505050905090810190601f168015610e925780820380516001836020036101000a031916815260200191505b50848103825285518152855160209182019187019080838360008381101561044757818101518382015260200161042f565b600160e060020a03191660009081526020819052604090205460ff1690565b60606012805480602002602001604051908101604052809291908181526020018280548015610f3157602002820191906000526020600020905b815481526020019060010190808311610f1d575b505050505090505b90565b60058054604080516020601f6002600019610100600188161502019095169490940493840181900481028201810190925282815260609390929091830182828015610f315780601f10610f9d57610100808354040283529160200191610f31565b820191906000526020600020905b815481529060010190602001808311610fab57509395945050505050565b60156020908152600091825260409182902080546001808301546002808501805488516101009582161595909502600019011691909104601f8101879004870284018701909752868352600160a060020a039093169590949192918301828280156110755780601f1061104a57610100808354040283529160200191611075565b820191906000526020600020905b81548152906001019060200180831161105857829003601f168201915b5050505060038301805460408051602060026001851615610100026000190190941693909304601f81018490048402820184019092528181529495949350908301828280156111055780601f106110da57610100808354040283529160200191611105565b820191906000526020600020905b8154815290600101906020018083116110e857829003601f168201915b5050505050908060040154908060050154905086565b600090815260026020526040902054600160a060020a031690565b600061114182611c8d565b9050600160a060020a03838116908216141561115c57600080fd5b33600160a060020a038216148061117857506111788133612848565b151561118357600080fd5b6000828152600260205260408082208054600160a060020a031916600160a060020a0387811691821790925591518593918516917f8c5be1e5ebec7d5bd14f71427d1e84f3dd0314c0f7b2291e5b200ac8c7c3b92591a4505050565b61124982600d836040518082805190602001908083835b602083106112155780518252601f1990920191602091820191016111f6565b51815160209384036101000a6000190180199092169116179052920194855250604051938490030190922092915050612bac565b5050565b6011602090815260009182526040918290208054600180830180548651600261010094831615949094026000190190911692909204601f8101869004860283018601909652858252600160a060020a039092169492939092908301828280156112f75780601f106112cc576101008083540402835291602001916112f7565b820191906000526020600020905b8154815290600101906020018083116112da57829003601f168201915b50505060028085018054604080516020601f60001961010060018716150201909416959095049283018590048502810185019091528181529596959450909250908301828280156113895780601f1061135e57610100808354040283529160200191611389565b820191906000526020600020905b81548152906001019060200180831161136c57829003601f168201915b5050505050905083565b60095490565b60408051808201909152600981526000805160206139f2833981519152602082015281565b7f01ffc9a70000000000000000000000000000000000000000000000000000000081565b60006060806113ef61381c565b6113f761385c565b61140086611abc565b151561140b57600080fd5b600086815260156020908152604091829020825160c0810184528154600160a060020a03168152600180830154828501526002808401805487516101009482161594909402600019011691909104601f810186900486028301860187528083529295939493860193919290918301828280156114c85780601f1061149d576101008083540402835291602001916114c8565b820191906000526020600020905b8154815290600101906020018083116114ab57829003601f168201915b505050918352505060038201805460408051602060026001851615610100026000190190941693909304601f810184900484028201840190925281815293820193929183018282801561155c5780601f106115315761010080835404028352916020019161155c565b820191906000526020600020905b81548152906001019060200180831161153f57829003601f168201915b5050509183525050600482015460208083019190915260059092015460409182015260a083015160009081526011835281902081516060810183528154600160a060020a03168152600180830180548551600261010094831615949094026000190190911692909204601f81018790048702830187019095528482529597509094919385810193919291908301828280156116385780601f1061160d57610100808354040283529160200191611638565b820191906000526020600020905b81548152906001019060200180831161161b57829003601f168201915b5050509183525050600282810180546040805160206001841615610100026000190190931694909404601f810183900483028501830190915280845293810193908301828280156116ca5780601f1061169f576101008083540402835291602001916116ca565b820191906000526020600020905b8154815290600101906020018083116116ad57829003601f168201915b505050919092525050815160208301516040909301519099929850965090945050505050565b600061175c83600d846040518082805190602001908083835b602083106117285780518252601f199092019160209182019101611709565b51815160209384036101000a6000190180199092169116179052920194855250604051938490030190922092915050612bc1565b9392505050565b61176d3382612be0565b151561177857600080fd5b600160a060020a038316151561178d57600080fd5b600160a060020a03821615156117a257600080fd5b6117ac8382612c3f565b6117b68382612ca1565b6117c08282612da8565b8082600160a060020a031684600160a060020a03167fddf252ad1be2c89b69c2b068fc378daa952ba7f163c4a11628f55a4df523b3ef60405160405180910390a4505050565b600c54600090600160a060020a0316331461182057600080fd5b5060005b81518110156112495761184d828281518110151561183e57fe5b90602001906020020151611855565b600101611824565b600c54600160a060020a0316331461186c57600080fd5b611899816040805190810160405280600981526020016000805160206139f2833981519152815250612df1565b50565b60006118a783611cb7565b82106118b257600080fd5b600160a060020a03831660009081526007602052604090208054839081106118d657fe5b9060005260206000200154905092915050565b600f5481565b61190b83838360206040519081016040528060008152506123d0565b505050565b3361193e816040805190810160405280600981526020016000805160206139f28339815191528152506111df565b600f5460009081526015602052604081208054600160a060020a031916815560018101829055906119726002830182613887565b611980600383016000613887565b5060006004820181905560059091015561124961199c83611c8d565b83612f02565b336119d0816040805190810160405280600981526020016000805160206139f28339815191528152506111df565b60008211611a28576040805160e560020a62461bcd02815260206004820152601c60248201527f496e76616c6964206d696e696d756d20636f6e747269627574696f6e00000000604482015290519081900360640190fd5b50601055565b600e805460408051602060026001851615610100026000190190941693909304601f81018490048402820184019092528181529291830182828015611ab45780601f10611a8957610100808354040283529160200191611ab4565b820191906000526020600020905b815481529060010190602001808311611a9757829003601f168201915b505050505081565b600090815260016020526040902054600160a060020a0316151590565b6000611ae3611393565b8210611aee57600080fd5b6009805483908110611afc57fe5b90600052602060002001549050919050565b600160a060020a038116600090815260076020908152604091829020805483518184028101840190945280845260609392830182828015611b6e57602002820191906000526020600020905b815481526020019060010190808311611b5a575b50505050509050919050565b33611ba8816040805190810160405280600981526020016000805160206139f28339815191528152506111df565b82511515611c00576040805160e560020a62461bcd02815260206004820152601160248201527f496e76616c696420746f6b656e20555249000000000000000000000000000000604482015290519081900360640190fd5b604080518082018252848152831515602080830191909152600087815260138252929092208151805192939192611c3a92849201906138cb565b50602091909101516001918201805460ff19169115159190911790556014805491820181556000527fce6d7b5282bd9a3661ae061feed1dbda4e52ab073b1f9285be6e155d9c38d4ec0193909355505050565b600081815260016020526040812054600160a060020a0316801515611cb157600080fd5b92915050565b6000600160a060020a0382161515611cce57600080fd5b50600160a060020a031660009081526003602052604090205490565b600c54600160a060020a03163314611d0157600080fd5b600c54604051600160a060020a03909116907ff8df31144d9c2f0f6b59d69b8b98abd5459d07f2742c4df920b25aae33c6482090600090a2600c8054600160a060020a0319169055565b600c54600160a060020a03163314611d6257600080fd5b611899816040805190810160405280600981526020016000805160206139f2833981519152815250612ffc565b6000600160a060020a0386161515611df1576040805160e560020a62461bcd02815260206004820152601760248201527f4d75737420626520612076616c69642061646472657373000000000000000000604482015290519081900360640190fd5b600085815260116020526040902054600160a060020a03161515611e5f576040805160e560020a62461bcd02815260206004820181905260248201527f4d7573742073706563696679206578697374696e672062656e65666163746f72604482015290519081900360640190fd5b600084815260136020526040902054600260001961010060018416150201909116041515611ed7576040805160e560020a62461bcd02815260206004820152601a60248201527f4d7573742073706563696679206578697374696e672063617264000000000000604482015290519081900360640190fd5b60008481526013602052604090206001015460ff161515611f42576040805160e560020a62461bcd02815260206004820152601660248201527f4d75737420626520616e20616374697665206361726400000000000000000000604482015290519081900360640190fd5b601054341015611fc2576040805160e560020a62461bcd02815260206004820152602560248201527f4d7573742073656e64206174206c6561737420746865206d696e696d756d206160448201527f6d6f756e74000000000000000000000000000000000000000000000000000000606482015290519081900360840190fd5b6040805160c081018252338152346020808301918252828401878152606084018790526080840189905260a084018a9052600f546000908152601583529490942083518154600160a060020a031916600160a060020a0390911617815591516001830155925180519293919261203e92600285019201906138cb565b506060820151805161205a9160038401916020909101906138cb565b506080820151600482015560a0909101516005909101556000848152601360209081526040918290208054835160026001831615610100026000190190921691909104601f8101849004840282018401909452838152612114938a9391929183018282801561210a5780601f106120df5761010080835404028352916020019161210a565b820191906000526020600020905b8154815290600101906020018083116120ed57829003601f168201915b50505050506130ce565b600085815260116020526040808220549051600160a060020a03909116913480156108fc02929091818181858888f19350505050158015612159573d6000803e3d6000fd5b5060019695505050505050565b600c54600160a060020a031681565b60136020908152600091825260409182902080548351601f6002600019610100600186161502019093169290920491820184900484028101840190945280845290929183919083018282801561220c5780601f106121e15761010080835404028352916020019161220c565b820191906000526020600020905b8154815290600101906020018083116121ef57829003601f168201915b5050506001909301549192505060ff1682565b3361224d816040805190810160405280600981526020016000805160206139f28339815191528152506111df565b8115156122a4576040805160e560020a62461bcd02815260206004820152601060248201527f426173652055524920696e76616c696400000000000000000000000000000000604482015290519081900360640190fd5b6122b0600e8484613949565b50505050565b60068054604080516020601f6002600019610100600188161502019095169490940493840181900481028201810190925282815260609390929091830182828015610f315780601f10610f9d57610100808354040283529160200191610f31565b6000611cb1826040805190810160405280600981526020016000805160206139f28339815191528152506116f0565b600160a060020a03821633141561235c57600080fd5b336000818152600460209081526040808320600160a060020a03871680855290835292819020805460ff1916861515908117909155815190815290519293927f17307eab39ab6107e8899845ad3d59bd9653f200f220920489ca2b5937696c31929181900390910190a35050565b60105481565b6123db848484611763565b6123e784848484613101565b15156122b057600080fd5b33612420816040805190810160405280600981526020016000805160206139f28339815191528152506111df565b600160a060020a0384161515612480576040805160e560020a62461bcd02815260206004820152600f60248201527f496e76616c696420616464726573730000000000000000000000000000000000604482015290519081900360640190fd5b825115156124d8576040805160e560020a62461bcd02815260206004820152600c60248201527f496e76616c6964206e616d650000000000000000000000000000000000000000604482015290519081900360640190fd5b81511515612530576040805160e560020a62461bcd02815260206004820152600c60248201527f496e76616c6964206e616d650000000000000000000000000000000000000000604482015290519081900360640190fd5b60408051606081018252600160a060020a038681168252602080830187815283850187905260008a8152601183529490942083518154600160a060020a0319169316929092178255925180519293919261259092600185019201906138cb565b50604082015180516125ac9160028401916020909101906138cb565b5050601280546001810182556000919091527fbb8a6a4669ba250d26cd7a459eca9d215f8307e33aebe50379bc5a3617ec344401959095555050505050565b60606125f682611abc565b151561260157600080fd5b600e8054604080516020601f60026000196101006001881615020190951694909404938401819004810282018101909252828152611cb1939092909183018282801561268e5780601f106126635761010080835404028352916020019161268e565b820191906000526020600020905b81548152906001019060200180831161267157829003601f168201915b5050506000868152600b60209081526040918290208054835160026001831615610100026000190190921691909104601f8101849004840282018401909452838152945092508301828280156127255780601f106126fa57610100808354040283529160200191612725565b820191906000526020600020905b81548152906001019060200180831161270857829003601f168201915b505050505061326e565b600c54600090600160a060020a0316331461274957600080fd5b5060005b815181101561124957612776828281518110151561276757fe5b90602001906020020151611d4b565b60010161274d565b336127ac816040805190810160405280600981526020016000805160206139f28339815191528152506111df565b600083815260136020526040902054600260001961010060018416150201909116041515612824576040805160e560020a62461bcd02815260206004820152601a60248201527f4d7573742073706563696679206578697374696e672063617264000000000000604482015290519081900360640190fd5b50600091825260136020526040909120600101805460ff1916911515919091179055565b600160a060020a03918216600090815260046020908152604080832093909416825291909152205460ff1690565b600c54600160a060020a0316331461288d57600080fd5b611899816132a3565b60606014805480602002602001604051908101604052809291908181526020018280548015610f315760200282019190600052602060002090815481526020019060010190808311610f1d575050505050905090565b60008060608060606128fc61381c565b61290587611abc565b151561291057600080fd5b600087815260156020908152604091829020825160c0810184528154600160a060020a03168152600180830154828501526002808401805487516101009482161594909402600019011691909104601f810186900486028301860187528083529295939493860193919290918301828280156129cd5780601f106129a2576101008083540402835291602001916129cd565b820191906000526020600020905b8154815290600101906020018083116129b057829003601f168201915b505050918352505060038201805460408051602060026001851615610100026000190190941693909304601f8101849004840282018401909252818152938201939291830182828015612a615780601f10612a3657610100808354040283529160200191612a61565b820191906000526020600020905b815481529060010190602001808311612a4457829003601f168201915b505050505081526020016004820154815260200160058201548152505090508060000151816020015182604001518360600151612b99600e8054600181600116156101000203166002900480601f016020809104026020016040519081016040528092919081815260200182805460018160011615610100020316600290048015612b2d5780601f10612b0257610100808354040283529160200191612b2d565b820191906000526020600020905b815481529060010190602001808311612b1057829003601f168201915b50505060008f8152600b60209081526040918290208054835160026001831615610100026000190190921691909104601f8101849004840282018401909452838152945092508301828280156127255780601f106126fa57610100808354040283529160200191612725565b939b929a50909850965090945092505050565b612bb68282612bc1565b151561124957600080fd5b600160a060020a03166000908152602091909152604090205460ff1690565b600080612bec83611c8d565b905080600160a060020a031684600160a060020a03161480612c27575083600160a060020a0316612c1c8461111b565b600160a060020a0316145b80612c375750612c378185612848565b949350505050565b81600160a060020a0316612c5282611c8d565b600160a060020a031614612c6557600080fd5b600081815260026020526040902054600160a060020a0316156112495760009081526002602052604090208054600160a060020a031916905550565b6000806000612cb08585613314565b600084815260086020908152604080832054600160a060020a0389168452600790925290912054909350612ceb90600163ffffffff61339d16565b600160a060020a038616600090815260076020526040902080549193509083908110612d1357fe5b90600052602060002001549050806007600087600160a060020a0316600160a060020a0316815260200190815260200160002084815481101515612d5357fe5b6000918252602080832090910192909255600160a060020a0387168152600790915260409020805490612d8a9060001983016139b7565b50600093845260086020526040808520859055908452909220555050565b6000612db483836133af565b50600160a060020a039091166000908152600760209081526040808320805460018101825590845282842081018590559383526008909152902055565b612e5b82600d836040518082805190602001908083835b60208310612e275780518252601f199092019160209182019101612e08565b51815160209384036101000a6000190180199092169116179052920194855250604051938490030190922092915050613432565b81600160a060020a03167fd211483f91fc6eff862467f8de606587a30c8fc9981056f051b897a418df803a826040518080602001828103825283818151815260200191508051906020019080838360005b83811015612ec4578181015183820152602001612eac565b50505050905090810190601f168015612ef15780820380516001836020036101000a031916815260200191505b509250505060405180910390a25050565b6000806000612f118585613454565b6000848152600b60205260409020546002600019610100600184161502019091160415612f4f576000848152600b60205260408120612f4f91613887565b6000848152600a6020526040902054600954909350612f7590600163ffffffff61339d16565b9150600982815481101515612f8657fe5b9060005260206000200154905080600984815481101515612fa357fe5b60009182526020822001919091556009805484908110612fbf57fe5b6000918252602090912001556009805490612fde9060001983016139b7565b506000938452600a6020526040808520859055908452909220555050565b61306682600d836040518082805190602001908083835b602083106130325780518252601f199092019160209182019101613013565b51815160209384036101000a60001901801990921691161790529201948552506040519384900301909220929150506134a4565b81600160a060020a03167fbfec83d64eaa953f2708271a023ab9ee82057f8f3578d548c1a4ba0b5b7004898260405180806020018281038252838181518152602001915080519060200190808383600083811015612ec4578181015183820152602001612eac565b600f546130db83826134c9565b6130e58183613518565b600f546130f990600163ffffffff61354b16565b600f55505050565b60008061311685600160a060020a0316613558565b15156131255760019150613265565b6040517f150b7a020000000000000000000000000000000000000000000000000000000081523360048201818152600160a060020a03898116602485015260448401889052608060648501908152875160848601528751918a169463150b7a0294938c938b938b93909160a490910190602085019080838360005b838110156131b85781810151838201526020016131a0565b50505050905090810190601f1680156131e55780820380516001836020036101000a031916815260200191505b5095505050505050602060405180830381600087803b15801561320757600080fd5b505af115801561321b573d6000803e3d6000fd5b505050506040513d602081101561323157600080fd5b5051600160e060020a031981167f150b7a020000000000000000000000000000000000000000000000000000000014925090505b50949350505050565b60408051602081810183526000808352835180830185528181528451928301909452815260609261175c928692869290613560565b600160a060020a03811615156132b857600080fd5b600c54604051600160a060020a038084169216907f8be0079c531659141344cd1fd0a4f28419497f9722a3daafe3b4186f6b6457e090600090a3600c8054600160a060020a031916600160a060020a0392909216919091179055565b81600160a060020a031661332782611c8d565b600160a060020a03161461333a57600080fd5b600160a060020a03821660009081526003602052604090205461336490600163ffffffff61339d16565b600160a060020a039092166000908152600360209081526040808320949094559181526001909152208054600160a060020a0319169055565b6000828211156133a957fe5b50900390565b600081815260016020526040902054600160a060020a0316156133d157600080fd5b60008181526001602081815260408084208054600160a060020a031916600160a060020a03881690811790915584526003909152909120546134129161354b565b600160a060020a0390921660009081526003602052604090209190915550565b600160a060020a0316600090815260209190915260409020805460ff19169055565b61345e8282612c3f565b6134688282612ca1565b6040518190600090600160a060020a038516907fddf252ad1be2c89b69c2b068fc378daa952ba7f163c4a11628f55a4df523b3ef908390a45050565b600160a060020a0316600090815260209190915260409020805460ff19166001179055565b6134d382826137c1565b600980546000838152600a60205260408120829055600182018355919091527f6e1540171b6c0c960b71a7020d9f60077f6af931a8bbf590da0223dacf75c7af015550565b61352182611abc565b151561352c57600080fd5b6000828152600b60209081526040909120825161190b928401906138cb565b81810182811015611cb157fe5b6000903b1190565b6060806060806060806060806000808e98508d97508c96508b95508a94508451865188518a518c51010101016040519080825280601f01601f1916602001820160405280156135b9578160200160208202803883390190505b50935083925060009150600090505b88518110156136265788818151811015156135df57fe5b90602001015160f860020a900460f860020a02838380600101945081518110151561360657fe5b906020010190600160f860020a031916908160001a9053506001016135c8565b5060005b875181101561368857878181518110151561364157fe5b90602001015160f860020a900460f860020a02838380600101945081518110151561366857fe5b906020010190600160f860020a031916908160001a90535060010161362a565b5060005b86518110156136ea5786818151811015156136a357fe5b90602001015160f860020a900460f860020a0283838060010194508151811015156136ca57fe5b906020010190600160f860020a031916908160001a90535060010161368c565b5060005b855181101561374c57858181518110151561370557fe5b90602001015160f860020a900460f860020a02838380600101945081518110151561372c57fe5b906020010190600160f860020a031916908160001a9053506001016136ee565b5060005b84518110156137ae57848181518110151561376757fe5b90602001015160f860020a900460f860020a02838380600101945081518110151561378e57fe5b906020010190600160f860020a031916908160001a905350600101613750565b50909d9c50505050505050505050505050565b600160a060020a03821615156137d657600080fd5b6137e08282612da8565b6040518190600160a060020a038416906000907fddf252ad1be2c89b69c2b068fc378daa952ba7f163c4a11628f55a4df523b3ef908290a45050565b60c0604051908101604052806000600160a060020a0316815260200160008152602001606081526020016060815260200160008152602001600081525090565b6060604051908101604052806000600160a060020a0316815260200160608152602001606081525090565b50805460018160011615610100020316600290046000825580601f106138ad5750611899565b601f01602090049060005260206000209081019061189991906139d7565b828054600181600116156101000203166002900490600052602060002090601f016020900481019282601f1061390c57805160ff1916838001178555613939565b82800160010185558215613939579182015b8281111561393957825182559160200191906001019061391e565b506139459291506139d7565b5090565b828054600181600116156101000203166002900490600052602060002090601f016020900481019282601f1061398a5782800160ff19823516178555613939565b82800160010185558215613939579182015b8281111561393957823582559160200191906001019061399c565b81548183558181111561190b5760008381526020902061190b9181019083015b610f3991905b8082111561394557600081556001016139dd560077686974656c6973740000000000000000000000000000000000000000000000a165627a7a72305820bf7afbf8fefbdaeaf0072cacb8c8b9fd9e65f37915c39679c32048f134e7f2c50029",
  "source": "pragma solidity ^0.4.24;\n\nimport \"openzeppelin-solidity/contracts/math/SafeMath.sol\";\nimport \"openzeppelin-solidity/contracts/access/Whitelist.sol\";\nimport \"openzeppelin-solidity/contracts/token/ERC721/ERC721Token.sol\";\n\nimport \"./Strings.sol\";\n\n/**\n* @title Radi.Cards\n*\n* @author Andy Gray & James Morgan - KnownOrigin.io\n*/\ncontract RadiCards is ERC721Token, Whitelist {\n  using SafeMath for uint256;\n\n  string public tokenBaseURI = \"https://ipfs.infura.io/ipfs/\";\n\n  uint256 public tokenIdPointer = 0;\n  uint256 public minContribution = 0.01 ether; // under $1..now\n\n  struct Benefactor {\n    address ethAddress;\n    string name;\n    string website;\n  }\n\n  struct CardDesign {\n    string tokenURI;\n    bool active;\n  }\n\n  struct RadiCard {\n    // Metadata\n    address gifter;\n    uint256 giftingAmount;\n    string message;\n    string extra;\n    // Lookups\n    uint256 cardIndex;\n    uint256 benefactorIndex;\n  }\n\n  mapping(uint256 => Benefactor) public benefactors;\n  uint256[] internal benefactorsIndex;\n\n  mapping(uint256 => CardDesign) public cards;\n  uint256[] internal cardsIndex;\n\n  mapping(uint256 => RadiCard) public tokenIdToRadiCardIndex;\n\n  constructor () public ERC721Token(\"RadiCards\", \"RADI\") {\n    addAddressToWhitelist(msg.sender);\n\n    addBenefactor(\n      1,\n      address(0xb189f76323678E094D4996d182A792E52369c005),\n      \"Electronic Frontier Foundation\",\n      \"https://www.eff.org/pages/ethereum-and-litecoin-donations\"\n    );\n\n    addBenefactor(\n      2,\n      address(0x998F25Be40241CA5D8F5fCaF3591B5ED06EF3Be7),\n      \"Freedom of the Press Foundation\",\n      \"https://freedom.press/donate/cryptocurrency/\"\n    );\n  }\n\n  function gift(address to, uint256 _benefactorIndex, uint256 _cardIndex, string _message, string _extra) payable public returns (bool) {\n    require(to != address(0), \"Must be a valid address\");\n    require(benefactors[_benefactorIndex].ethAddress != address(0), \"Must specify existing benefactor\");\n    require(bytes(cards[_cardIndex].tokenURI).length != 0, \"Must specify existing card\");\n    require(cards[_cardIndex].active, \"Must be an active card\");\n    require(msg.value >= minContribution, \"Must send at least the minimum amount\");\n\n    tokenIdToRadiCardIndex[tokenIdPointer] = RadiCard({\n      gifter : msg.sender,\n      giftingAmount : msg.value,\n      message : _message,\n      extra : _extra,\n      benefactorIndex : _benefactorIndex,\n      cardIndex : _cardIndex\n    });\n\n    _mint(to, cards[_cardIndex].tokenURI);\n\n    // transfer the ETH to the benefactor\n    benefactors[_benefactorIndex].ethAddress.transfer(msg.value);\n\n    return true;\n  }\n\n  function _mint(address to, string tokenURI) internal {\n    uint256 tokenId = tokenIdPointer;\n\n    _mint(to, tokenId);\n    _setTokenURI(tokenId, tokenURI);\n\n    tokenIdPointer = tokenIdPointer.add(1);\n  }\n\n  function burn(uint256 _tokenId) public onlyIfWhitelisted(msg.sender) {\n    // custom fields\n    delete tokenIdToRadiCardIndex[tokenIdPointer];\n\n    // Super burn\n    _burn(ownerOf(_tokenId), _tokenId);\n  }\n\n  function tokenURI(uint256 _tokenId) public view returns (string) {\n    require(exists(_tokenId));\n\n    return Strings.strConcat(tokenBaseURI, tokenURIs[_tokenId]);\n  }\n\n  function tokenDetails(uint256 _tokenId)\n  public view\n  returns (\n    address _gifter,\n    uint256 _giftingAmount,\n    string _message,\n    string _extra,\n    string _tokenUri\n  ) {\n    require(exists(_tokenId));\n    RadiCard memory _radiCard = tokenIdToRadiCardIndex[_tokenId];\n    return (\n      _radiCard.gifter,\n      _radiCard.giftingAmount,\n      _radiCard.message,\n      _radiCard.extra,\n      Strings.strConcat(tokenBaseURI, tokenURIs[_tokenId])\n    );\n  }\n\n  function tokenBenefactor(uint256 _tokenId)\n  public view\n  returns (\n    address _ethAddress,\n    string _name,\n    string _website\n  ) {\n    require(exists(_tokenId));\n    RadiCard memory _radiCard = tokenIdToRadiCardIndex[_tokenId];\n    Benefactor memory _benefactor = benefactors[_radiCard.benefactorIndex];\n    return (\n      _benefactor.ethAddress,\n      _benefactor.name,\n      _benefactor.website\n    );\n  }\n\n  function tokensOf(address _owner) public view returns (uint256[] _tokenIds) {\n    return ownedTokens[_owner];\n  }\n\n  function benefactorsKeys() public view returns (uint256[] _keys) {\n    return benefactorsIndex;\n  }\n\n  function cardsKeys() public view returns (uint256[] _keys) {\n    return cardsIndex;\n  }\n\n  function addBenefactor(uint256 _benefactorIndex, address _ethAddress, string _name, string _website) public onlyIfWhitelisted(msg.sender) {\n    require(address(_ethAddress) != address(0), \"Invalid address\");\n    require(bytes(_name).length != 0, \"Invalid name\");\n    require(bytes(_website).length != 0, \"Invalid name\");\n\n    benefactors[_benefactorIndex] = Benefactor(\n      _ethAddress,\n      _name,\n      _website\n    );\n    benefactorsIndex.push(_benefactorIndex);\n  }\n\n  function addCard(uint256 _cardIndex, string _tokenURI, bool _active) public onlyIfWhitelisted(msg.sender) {\n    require(bytes(_tokenURI).length != 0, \"Invalid token URI\");\n\n    cards[_cardIndex] = CardDesign(\n      _tokenURI,\n      _active\n    );\n    cardsIndex.push(_cardIndex);\n  }\n\n  function setTokenBaseURI(string _newBaseURI) external onlyIfWhitelisted(msg.sender) {\n    require(bytes(_newBaseURI).length != 0, \"Base URI invalid\");\n\n    tokenBaseURI = _newBaseURI;\n  }\n\n  function setMinContribution(uint256 _minContribution) external onlyIfWhitelisted(msg.sender) {\n    require(_minContribution > 0, \"Invalid minimum contribution\");\n\n    minContribution = _minContribution;\n  }\n\n  function setActive(uint256 _cardIndex, bool _active) external onlyIfWhitelisted(msg.sender) {\n    require(bytes(cards[_cardIndex].tokenURI).length != 0, \"Must specify existing card\");\n\n    cards[_cardIndex].active = _active;\n  }\n}\n",
  "sourcePath": "/Users/jamesmorgan/Dropbox/workspace-blockrocket/radi.cards/contracts/RadiCards.sol",
  "compiler": {
    "name": "solc",
    "version": "0.4.24+commit.e67f0147.Emscripten.clang"
  },
  "schemaVersion": "3.0.0-beta.2",
  "updatedAt": "2018-12-11T09:35:54.050Z",
  "devdoc": {
    "author": "Andy Gray & James Morgan - KnownOrigin.io",
    "methods": {
      "addAddressToWhitelist(address)": {
        "details": "add an address to the whitelist",
        "params": {
          "_operator": "address"
        },
        "return": "true if the address was added to the whitelist, false if the address was already in the whitelist"
      },
      "addAddressesToWhitelist(address[])": {
        "details": "add addresses to the whitelist",
        "params": {
          "_operators": "addresses"
        },
        "return": "true if at least one address was added to the whitelist, false if all addresses were already in the whitelist"
      },
      "approve(address,uint256)": {
        "details": "Approves another address to transfer the given token ID The zero address indicates there is no approved address. There can only be one approved address per token at a given time. Can only be called by the token owner or an approved operator.",
        "params": {
          "_to": "address to be approved for the given token ID",
          "_tokenId": "uint256 ID of the token to be approved"
        }
      },
      "balanceOf(address)": {
        "details": "Gets the balance of the specified address",
        "params": {
          "_owner": "address to query the balance of"
        },
        "return": "uint256 representing the amount owned by the passed address"
      },
      "checkRole(address,string)": {
        "details": "reverts if addr does not have role",
        "params": {
          "_operator": "address",
          "_role": "the name of the role // reverts"
        }
      },
      "exists(uint256)": {
        "details": "Returns whether the specified token exists",
        "params": {
          "_tokenId": "uint256 ID of the token to query the existence of"
        },
        "return": "whether the token exists"
      },
      "getApproved(uint256)": {
        "details": "Gets the approved address for a token ID, or zero if no address set",
        "params": {
          "_tokenId": "uint256 ID of the token to query the approval of"
        },
        "return": "address currently approved for the given token ID"
      },
      "hasRole(address,string)": {
        "details": "determine if addr has role",
        "params": {
          "_operator": "address",
          "_role": "the name of the role"
        },
        "return": "bool"
      },
      "isApprovedForAll(address,address)": {
        "details": "Tells whether an operator is approved by a given owner",
        "params": {
          "_operator": "operator address which you want to query the approval of",
          "_owner": "owner address which you want to query the approval of"
        },
        "return": "bool whether the given operator is approved by the given owner"
      },
      "name()": {
        "details": "Gets the token name",
        "return": "string representing the token name"
      },
      "ownerOf(uint256)": {
        "details": "Gets the owner of the specified token ID",
        "params": {
          "_tokenId": "uint256 ID of the token to query the owner of"
        },
        "return": "owner address currently marked as the owner of the given token ID"
      },
      "removeAddressFromWhitelist(address)": {
        "details": "remove an address from the whitelist",
        "params": {
          "_operator": "address"
        },
        "return": "true if the address was removed from the whitelist, false if the address wasn't in the whitelist in the first place"
      },
      "removeAddressesFromWhitelist(address[])": {
        "details": "remove addresses from the whitelist",
        "params": {
          "_operators": "addresses"
        },
        "return": "true if at least one address was removed from the whitelist, false if all addresses weren't in the whitelist in the first place"
      },
      "renounceOwnership()": {
        "details": "Allows the current owner to relinquish control of the contract."
      },
      "safeTransferFrom(address,address,uint256)": {
        "details": "Safely transfers the ownership of a given token ID to another address If the target address is a contract, it must implement `onERC721Received`, which is called upon a safe transfer, and return the magic value `bytes4(keccak256(\"onERC721Received(address,address,uint256,bytes)\"))`; otherwise, the transfer is reverted.   * Requires the msg sender to be the owner, approved, or operator",
        "params": {
          "_from": "current owner of the token",
          "_to": "address to receive the ownership of the given token ID",
          "_tokenId": "uint256 ID of the token to be transferred"
        }
      },
      "safeTransferFrom(address,address,uint256,bytes)": {
        "details": "Safely transfers the ownership of a given token ID to another address If the target address is a contract, it must implement `onERC721Received`, which is called upon a safe transfer, and return the magic value `bytes4(keccak256(\"onERC721Received(address,address,uint256,bytes)\"))`; otherwise, the transfer is reverted. Requires the msg sender to be the owner, approved, or operator",
        "params": {
          "_data": "bytes data to send along with a safe transfer check",
          "_from": "current owner of the token",
          "_to": "address to receive the ownership of the given token ID",
          "_tokenId": "uint256 ID of the token to be transferred"
        }
      },
      "setApprovalForAll(address,bool)": {
        "details": "Sets or unsets the approval of a given operator An operator is allowed to transfer all tokens of the sender on their behalf",
        "params": {
          "_approved": "representing the status of the approval to be set",
          "_to": "operator address to set the approval"
        }
      },
      "supportsInterface(bytes4)": {
        "details": "implement supportsInterface(bytes4) using a lookup table"
      },
      "symbol()": {
        "details": "Gets the token symbol",
        "return": "string representing the token symbol"
      },
      "tokenByIndex(uint256)": {
        "details": "Gets the token ID at a given index of all the tokens in this contract Reverts if the index is greater or equal to the total number of tokens",
        "params": {
          "_index": "uint256 representing the index to be accessed of the tokens list"
        },
        "return": "uint256 token ID at the given index of the tokens list"
      },
      "tokenOfOwnerByIndex(address,uint256)": {
        "details": "Gets the token ID at a given index of the tokens list of the requested owner",
        "params": {
          "_index": "uint256 representing the index to be accessed of the requested tokens list",
          "_owner": "address owning the tokens list to be accessed"
        },
        "return": "uint256 token ID at the given index of the tokens list owned by the requested address"
      },
      "totalSupply()": {
        "details": "Gets the total amount of tokens stored by the contract",
        "return": "uint256 representing the total amount of tokens"
      },
      "transferFrom(address,address,uint256)": {
        "details": "Transfers the ownership of a given token ID to another address Usage of this method is discouraged, use `safeTransferFrom` whenever possible Requires the msg sender to be the owner, approved, or operator",
        "params": {
          "_from": "current owner of the token",
          "_to": "address to receive the ownership of the given token ID",
          "_tokenId": "uint256 ID of the token to be transferred"
        }
      },
      "transferOwnership(address)": {
        "details": "Allows the current owner to transfer control of the contract to a newOwner.",
        "params": {
          "_newOwner": "The address to transfer ownership to."
        }
      },
      "whitelist(address)": {
        "details": "getter to determine if address is in whitelist"
      }
    },
    "title": "Radi.Cards"
  },
  "userdoc": {
    "methods": {
      "renounceOwnership()": {
        "notice": "Renouncing to ownership will leave the contract without an owner. It will not be possible to call the functions with the `onlyOwner` modifier anymore."
      }
    }
  }
}