{
  "contractName": "RadiCards",
  "abi": [
    {
      "constant": true,
      "inputs": [
        {
          "name": "_interfaceId",
          "type": "bytes4"
        }
      ],
      "name": "supportsInterface",
      "outputs": [
        {
          "name": "",
          "type": "bool"
        }
      ],
      "payable": false,
      "stateMutability": "view",
      "type": "function",
      "signature": "0x01ffc9a7"
    },
    {
      "constant": true,
      "inputs": [],
      "name": "name",
      "outputs": [
        {
          "name": "",
          "type": "string"
        }
      ],
      "payable": false,
      "stateMutability": "view",
      "type": "function",
      "signature": "0x06fdde03"
    },
    {
      "constant": true,
      "inputs": [
        {
          "name": "",
          "type": "uint256"
        }
      ],
      "name": "tokenIdToRadiCardIndex",
      "outputs": [
        {
          "name": "gifter",
          "type": "address"
        },
        {
          "name": "giftingAmount",
          "type": "uint256"
        },
        {
          "name": "message",
          "type": "string"
        },
        {
          "name": "extra",
          "type": "string"
        },
        {
          "name": "cardIndex",
          "type": "uint256"
        },
        {
          "name": "benefactorIndex",
          "type": "uint256"
        }
      ],
      "payable": false,
      "stateMutability": "view",
      "type": "function",
      "signature": "0x0701fd6b"
    },
    {
      "constant": true,
      "inputs": [
        {
          "name": "_tokenId",
          "type": "uint256"
        }
      ],
      "name": "getApproved",
      "outputs": [
        {
          "name": "",
          "type": "address"
        }
      ],
      "payable": false,
      "stateMutability": "view",
      "type": "function",
      "signature": "0x081812fc"
    },
    {
      "constant": false,
      "inputs": [
        {
          "name": "_to",
          "type": "address"
        },
        {
          "name": "_tokenId",
          "type": "uint256"
        }
      ],
      "name": "approve",
      "outputs": [],
      "payable": false,
      "stateMutability": "nonpayable",
      "type": "function",
      "signature": "0x095ea7b3"
    },
    {
      "constant": true,
      "inputs": [
        {
          "name": "_operator",
          "type": "address"
        },
        {
          "name": "_role",
          "type": "string"
        }
      ],
      "name": "checkRole",
      "outputs": [],
      "payable": false,
      "stateMutability": "view",
      "type": "function",
      "signature": "0x0988ca8c"
    },
    {
      "constant": true,
      "inputs": [
        {
          "name": "",
          "type": "uint256"
        }
      ],
      "name": "benefactors",
      "outputs": [
        {
          "name": "ethAddress",
          "type": "address"
        },
        {
          "name": "name",
          "type": "string"
        },
        {
          "name": "website",
          "type": "string"
        },
        {
          "name": "description",
          "type": "string"
        },
        {
          "name": "logo",
          "type": "string"
        }
      ],
      "payable": false,
      "stateMutability": "view",
      "type": "function",
      "signature": "0x128ee161"
    },
    {
      "constant": true,
      "inputs": [],
      "name": "totalSupply",
      "outputs": [
        {
          "name": "",
          "type": "uint256"
        }
      ],
      "payable": false,
      "stateMutability": "view",
      "type": "function",
      "signature": "0x18160ddd"
    },
    {
      "constant": true,
      "inputs": [],
      "name": "ROLE_WHITELISTED",
      "outputs": [
        {
          "name": "",
          "type": "string"
        }
      ],
      "payable": false,
      "stateMutability": "view",
      "type": "function",
      "signature": "0x18b919e9"
    },
    {
      "constant": true,
      "inputs": [],
      "name": "InterfaceId_ERC165",
      "outputs": [
        {
          "name": "",
          "type": "bytes4"
        }
      ],
      "payable": false,
      "stateMutability": "view",
      "type": "function",
      "signature": "0x19fa8f50"
    },
    {
      "constant": true,
      "inputs": [
        {
          "name": "_operator",
          "type": "address"
        },
        {
          "name": "_role",
          "type": "string"
        }
      ],
      "name": "hasRole",
      "outputs": [
        {
          "name": "",
          "type": "bool"
        }
      ],
      "payable": false,
      "stateMutability": "view",
      "type": "function",
      "signature": "0x217fe6c6"
    },
    {
      "constant": false,
      "inputs": [
        {
          "name": "_from",
          "type": "address"
        },
        {
          "name": "_to",
          "type": "address"
        },
        {
          "name": "_tokenId",
          "type": "uint256"
        }
      ],
      "name": "transferFrom",
      "outputs": [],
      "payable": false,
      "stateMutability": "nonpayable",
      "type": "function",
      "signature": "0x23b872dd"
    },
    {
      "constant": false,
      "inputs": [
        {
          "name": "_operators",
          "type": "address[]"
        }
      ],
      "name": "removeAddressesFromWhitelist",
      "outputs": [],
      "payable": false,
      "stateMutability": "nonpayable",
      "type": "function",
      "signature": "0x24953eaa"
    },
    {
      "constant": false,
      "inputs": [
        {
          "name": "_operator",
          "type": "address"
        }
      ],
      "name": "removeAddressFromWhitelist",
      "outputs": [],
      "payable": false,
      "stateMutability": "nonpayable",
      "type": "function",
      "signature": "0x286dd3f5"
    },
    {
      "constant": true,
      "inputs": [
        {
          "name": "_owner",
          "type": "address"
        },
        {
          "name": "_index",
          "type": "uint256"
        }
      ],
      "name": "tokenOfOwnerByIndex",
      "outputs": [
        {
          "name": "",
          "type": "uint256"
        }
      ],
      "payable": false,
      "stateMutability": "view",
      "type": "function",
      "signature": "0x2f745c59"
    },
    {
      "constant": true,
      "inputs": [],
      "name": "tokenIdPointer",
      "outputs": [
        {
          "name": "",
          "type": "uint256"
        }
      ],
      "payable": false,
      "stateMutability": "view",
      "type": "function",
      "signature": "0x3b3a1a7a"
    },
    {
      "constant": false,
      "inputs": [
        {
          "name": "_from",
          "type": "address"
        },
        {
          "name": "_to",
          "type": "address"
        },
        {
          "name": "_tokenId",
          "type": "uint256"
        }
      ],
      "name": "safeTransferFrom",
      "outputs": [],
      "payable": false,
      "stateMutability": "nonpayable",
      "type": "function",
      "signature": "0x42842e0e"
    },
    {
      "constant": true,
      "inputs": [],
      "name": "tokenBaseURI",
      "outputs": [
        {
          "name": "",
          "type": "string"
        }
      ],
      "payable": false,
      "stateMutability": "view",
      "type": "function",
      "signature": "0x4e99b800"
    },
    {
      "constant": true,
      "inputs": [
        {
          "name": "_tokenId",
          "type": "uint256"
        }
      ],
      "name": "exists",
      "outputs": [
        {
          "name": "",
          "type": "bool"
        }
      ],
      "payable": false,
      "stateMutability": "view",
      "type": "function",
      "signature": "0x4f558e79"
    },
    {
      "constant": true,
      "inputs": [
        {
          "name": "_index",
          "type": "uint256"
        }
      ],
      "name": "tokenByIndex",
      "outputs": [
        {
          "name": "",
          "type": "uint256"
        }
      ],
      "payable": false,
      "stateMutability": "view",
      "type": "function",
      "signature": "0x4f6ccce7"
    },
    {
      "constant": true,
      "inputs": [
        {
          "name": "_tokenId",
          "type": "uint256"
        }
      ],
      "name": "ownerOf",
      "outputs": [
        {
          "name": "",
          "type": "address"
        }
      ],
      "payable": false,
      "stateMutability": "view",
      "type": "function",
      "signature": "0x6352211e"
    },
    {
      "constant": true,
      "inputs": [
        {
          "name": "_owner",
          "type": "address"
        }
      ],
      "name": "balanceOf",
      "outputs": [
        {
          "name": "",
          "type": "uint256"
        }
      ],
      "payable": false,
      "stateMutability": "view",
      "type": "function",
      "signature": "0x70a08231"
    },
    {
      "constant": false,
      "inputs": [],
      "name": "renounceOwnership",
      "outputs": [],
      "payable": false,
      "stateMutability": "nonpayable",
      "type": "function",
      "signature": "0x715018a6"
    },
    {
      "constant": false,
      "inputs": [
        {
          "name": "_operator",
          "type": "address"
        }
      ],
      "name": "addAddressToWhitelist",
      "outputs": [],
      "payable": false,
      "stateMutability": "nonpayable",
      "type": "function",
      "signature": "0x7b9417c8"
    },
    {
      "constant": true,
      "inputs": [],
      "name": "owner",
      "outputs": [
        {
          "name": "",
          "type": "address"
        }
      ],
      "payable": false,
      "stateMutability": "view",
      "type": "function",
      "signature": "0x8da5cb5b"
    },
    {
      "constant": true,
      "inputs": [
        {
          "name": "",
          "type": "uint256"
        }
      ],
      "name": "cards",
      "outputs": [
        {
          "name": "tokenURI",
          "type": "string"
        },
        {
          "name": "active",
          "type": "bool"
        }
      ],
      "payable": false,
      "stateMutability": "view",
      "type": "function",
      "signature": "0x8dc10768"
    },
    {
      "constant": true,
      "inputs": [],
      "name": "symbol",
      "outputs": [
        {
          "name": "",
          "type": "string"
        }
      ],
      "payable": false,
      "stateMutability": "view",
      "type": "function",
      "signature": "0x95d89b41"
    },
    {
      "constant": true,
      "inputs": [
        {
          "name": "_operator",
          "type": "address"
        }
      ],
      "name": "whitelist",
      "outputs": [
        {
          "name": "",
          "type": "bool"
        }
      ],
      "payable": false,
      "stateMutability": "view",
      "type": "function",
      "signature": "0x9b19251a"
    },
    {
      "constant": false,
      "inputs": [
        {
          "name": "_to",
          "type": "address"
        },
        {
          "name": "_approved",
          "type": "bool"
        }
      ],
      "name": "setApprovalForAll",
      "outputs": [],
      "payable": false,
      "stateMutability": "nonpayable",
      "type": "function",
      "signature": "0xa22cb465"
    },
    {
      "constant": true,
      "inputs": [],
      "name": "minContribution",
      "outputs": [
        {
          "name": "",
          "type": "uint256"
        }
      ],
      "payable": false,
      "stateMutability": "view",
      "type": "function",
      "signature": "0xaaffadf3"
    },
    {
      "constant": false,
      "inputs": [
        {
          "name": "_from",
          "type": "address"
        },
        {
          "name": "_to",
          "type": "address"
        },
        {
          "name": "_tokenId",
          "type": "uint256"
        },
        {
          "name": "_data",
          "type": "bytes"
        }
      ],
      "name": "safeTransferFrom",
      "outputs": [],
      "payable": false,
      "stateMutability": "nonpayable",
      "type": "function",
      "signature": "0xb88d4fde"
    },
    {
      "constant": false,
      "inputs": [
        {
          "name": "_operators",
          "type": "address[]"
        }
      ],
      "name": "addAddressesToWhitelist",
      "outputs": [],
      "payable": false,
      "stateMutability": "nonpayable",
      "type": "function",
      "signature": "0xe2ec6ec3"
    },
    {
      "constant": true,
      "inputs": [
        {
          "name": "_owner",
          "type": "address"
        },
        {
          "name": "_operator",
          "type": "address"
        }
      ],
      "name": "isApprovedForAll",
      "outputs": [
        {
          "name": "",
          "type": "bool"
        }
      ],
      "payable": false,
      "stateMutability": "view",
      "type": "function",
      "signature": "0xe985e9c5"
    },
    {
      "constant": false,
      "inputs": [
        {
          "name": "_newOwner",
          "type": "address"
        }
      ],
      "name": "transferOwnership",
      "outputs": [],
      "payable": false,
      "stateMutability": "nonpayable",
      "type": "function",
      "signature": "0xf2fde38b"
    },
    {
      "inputs": [],
      "payable": false,
      "stateMutability": "nonpayable",
      "type": "constructor",
      "signature": "constructor"
    },
    {
      "anonymous": false,
      "inputs": [
        {
          "indexed": true,
          "name": "_benefactorIndex",
          "type": "uint256"
        }
      ],
      "name": "BenefactorAdded",
      "type": "event",
      "signature": "0x5f4aa3ef0a4bf82c0f10f704eb578f57422b27f40709f8a4aca4694b6bda8ab3"
    },
    {
      "anonymous": false,
      "inputs": [
        {
          "indexed": true,
          "name": "_benefactorIndex",
          "type": "uint256"
        }
      ],
      "name": "CardAdded",
      "type": "event",
      "signature": "0xee4df2a71cd5144f989eafc284d855a4cc517ca03f21c5270ed8e2e9dcc3d29c"
    },
    {
      "anonymous": false,
      "inputs": [
        {
          "indexed": true,
          "name": "operator",
          "type": "address"
        },
        {
          "indexed": false,
          "name": "role",
          "type": "string"
        }
      ],
      "name": "RoleAdded",
      "type": "event",
      "signature": "0xbfec83d64eaa953f2708271a023ab9ee82057f8f3578d548c1a4ba0b5b700489"
    },
    {
      "anonymous": false,
      "inputs": [
        {
          "indexed": true,
          "name": "operator",
          "type": "address"
        },
        {
          "indexed": false,
          "name": "role",
          "type": "string"
        }
      ],
      "name": "RoleRemoved",
      "type": "event",
      "signature": "0xd211483f91fc6eff862467f8de606587a30c8fc9981056f051b897a418df803a"
    },
    {
      "anonymous": false,
      "inputs": [
        {
          "indexed": true,
          "name": "previousOwner",
          "type": "address"
        }
      ],
      "name": "OwnershipRenounced",
      "type": "event",
      "signature": "0xf8df31144d9c2f0f6b59d69b8b98abd5459d07f2742c4df920b25aae33c64820"
    },
    {
      "anonymous": false,
      "inputs": [
        {
          "indexed": true,
          "name": "previousOwner",
          "type": "address"
        },
        {
          "indexed": true,
          "name": "newOwner",
          "type": "address"
        }
      ],
      "name": "OwnershipTransferred",
      "type": "event",
      "signature": "0x8be0079c531659141344cd1fd0a4f28419497f9722a3daafe3b4186f6b6457e0"
    },
    {
      "anonymous": false,
      "inputs": [
        {
          "indexed": true,
          "name": "_from",
          "type": "address"
        },
        {
          "indexed": true,
          "name": "_to",
          "type": "address"
        },
        {
          "indexed": true,
          "name": "_tokenId",
          "type": "uint256"
        }
      ],
      "name": "Transfer",
      "type": "event",
      "signature": "0xddf252ad1be2c89b69c2b068fc378daa952ba7f163c4a11628f55a4df523b3ef"
    },
    {
      "anonymous": false,
      "inputs": [
        {
          "indexed": true,
          "name": "_owner",
          "type": "address"
        },
        {
          "indexed": true,
          "name": "_approved",
          "type": "address"
        },
        {
          "indexed": true,
          "name": "_tokenId",
          "type": "uint256"
        }
      ],
      "name": "Approval",
      "type": "event",
      "signature": "0x8c5be1e5ebec7d5bd14f71427d1e84f3dd0314c0f7b2291e5b200ac8c7c3b925"
    },
    {
      "anonymous": false,
      "inputs": [
        {
          "indexed": true,
          "name": "_owner",
          "type": "address"
        },
        {
          "indexed": true,
          "name": "_operator",
          "type": "address"
        },
        {
          "indexed": false,
          "name": "_approved",
          "type": "bool"
        }
      ],
      "name": "ApprovalForAll",
      "type": "event",
      "signature": "0x17307eab39ab6107e8899845ad3d59bd9653f200f220920489ca2b5937696c31"
    },
    {
      "constant": false,
      "inputs": [
        {
          "name": "to",
          "type": "address"
        },
        {
          "name": "_benefactorIndex",
          "type": "uint256"
        },
        {
          "name": "_cardIndex",
          "type": "uint256"
        },
        {
          "name": "_message",
          "type": "string"
        },
        {
          "name": "_extra",
          "type": "string"
        }
      ],
      "name": "gift",
      "outputs": [
        {
          "name": "",
          "type": "bool"
        }
      ],
      "payable": true,
      "stateMutability": "payable",
      "type": "function",
      "signature": "0x8074dc59"
    },
    {
      "constant": false,
      "inputs": [
        {
          "name": "_tokenId",
          "type": "uint256"
        }
      ],
      "name": "burn",
      "outputs": [],
      "payable": false,
      "stateMutability": "nonpayable",
      "type": "function",
      "signature": "0x42966c68"
    },
    {
      "constant": true,
      "inputs": [
        {
          "name": "_tokenId",
          "type": "uint256"
        }
      ],
      "name": "tokenURI",
      "outputs": [
        {
          "name": "",
          "type": "string"
        }
      ],
      "payable": false,
      "stateMutability": "view",
      "type": "function",
      "signature": "0xc87b56dd"
    },
    {
      "constant": true,
      "inputs": [
        {
          "name": "_tokenId",
          "type": "uint256"
        }
      ],
      "name": "tokenDetails",
      "outputs": [
        {
          "name": "_gifter",
          "type": "address"
        },
        {
          "name": "_giftingAmount",
          "type": "uint256"
        },
        {
          "name": "_message",
          "type": "string"
        },
        {
          "name": "_extra",
          "type": "string"
        },
        {
          "name": "_tokenUri",
          "type": "string"
        }
      ],
      "payable": false,
      "stateMutability": "view",
      "type": "function",
      "signature": "0xfc314e31"
    },
    {
      "constant": true,
      "inputs": [
        {
          "name": "_tokenId",
          "type": "uint256"
        }
      ],
      "name": "tokenBenefactor",
      "outputs": [
        {
          "name": "_ethAddress",
          "type": "address"
        },
        {
          "name": "_name",
          "type": "string"
        },
        {
          "name": "_website",
          "type": "string"
        },
        {
          "name": "_description",
          "type": "string"
        },
        {
          "name": "_logo",
          "type": "string"
        }
      ],
      "payable": false,
      "stateMutability": "view",
      "type": "function",
      "signature": "0x1db1b4fd"
    },
    {
      "constant": true,
      "inputs": [
        {
          "name": "_owner",
          "type": "address"
        }
      ],
      "name": "tokensOf",
      "outputs": [
        {
          "name": "_tokenIds",
          "type": "uint256[]"
        }
      ],
      "payable": false,
      "stateMutability": "view",
      "type": "function",
      "signature": "0x5a3f2672"
    },
    {
      "constant": true,
      "inputs": [],
      "name": "benefactorsKeys",
      "outputs": [
        {
          "name": "_keys",
          "type": "uint256[]"
        }
      ],
      "payable": false,
      "stateMutability": "view",
      "type": "function",
      "signature": "0x03cfe12d"
    },
    {
      "constant": true,
      "inputs": [],
      "name": "cardsKeys",
      "outputs": [
        {
          "name": "_keys",
          "type": "uint256[]"
        }
      ],
      "payable": false,
      "stateMutability": "view",
      "type": "function",
      "signature": "0xf7ad51ce"
    },
    {
      "constant": false,
      "inputs": [
        {
          "name": "_benefactorIndex",
          "type": "uint256"
        },
        {
          "name": "_ethAddress",
          "type": "address"
        },
        {
          "name": "_name",
          "type": "string"
        },
        {
          "name": "_website",
          "type": "string"
        },
        {
          "name": "_description",
          "type": "string"
        },
        {
          "name": "_logo",
          "type": "string"
        }
      ],
      "name": "addBenefactor",
      "outputs": [],
      "payable": false,
      "stateMutability": "nonpayable",
      "type": "function",
      "signature": "0xaf285776"
    },
    {
      "constant": false,
      "inputs": [
        {
          "name": "_cardIndex",
          "type": "uint256"
        },
        {
          "name": "_tokenURI",
          "type": "string"
        },
        {
          "name": "_active",
          "type": "bool"
        }
      ],
      "name": "addCard",
      "outputs": [],
      "payable": false,
      "stateMutability": "nonpayable",
      "type": "function",
      "signature": "0x5f75d62d"
    },
    {
      "constant": false,
      "inputs": [
        {
          "name": "_newBaseURI",
          "type": "string"
        }
      ],
      "name": "setTokenBaseURI",
      "outputs": [],
      "payable": false,
      "stateMutability": "nonpayable",
      "type": "function",
      "signature": "0x8ef79e91"
    },
    {
      "constant": false,
      "inputs": [
        {
          "name": "_minContribution",
          "type": "uint256"
        }
      ],
      "name": "setMinContribution",
      "outputs": [],
      "payable": false,
      "stateMutability": "nonpayable",
      "type": "function",
      "signature": "0x473b0d46"
    },
    {
      "constant": false,
      "inputs": [
        {
          "name": "_cardIndex",
          "type": "uint256"
        },
        {
          "name": "_active",
          "type": "bool"
        }
      ],
      "name": "setActive",
      "outputs": [],
      "payable": false,
      "stateMutability": "nonpayable",
      "type": "function",
      "signature": "0xe60a955d"
    }
  ],
  "bytecode": "0x60c0604052601c60808190527f68747470733a2f2f697066732e696e667572612e696f2f697066732f0000000060a09081526200004091600e919062000ccd565b506000600f55662386f26fc100006010553480156200005e57600080fd5b50604080518082018252600981527f52616469436172647300000000000000000000000000000000000000000000006020808301919091528251808401909352600483527f52414449000000000000000000000000000000000000000000000000000000009083015290620000fc7f01ffc9a7000000000000000000000000000000000000000000000000000000006401000000006200062e810204565b620001307f80ac58cd000000000000000000000000000000000000000000000000000000006401000000006200062e810204565b620001647f4f558e79000000000000000000000000000000000000000000000000000000006401000000006200062e810204565b81516200017990600590602085019062000ccd565b5080516200018f90600690602084019062000ccd565b50620001c47f780e9d63000000000000000000000000000000000000000000000000000000006401000000006200062e810204565b620001f87f5b5e139f000000000000000000000000000000000000000000000000000000006401000000006200062e810204565b5050600c8054600160a060020a0319163390811790915562000223906401000000006200069b810204565b6200039f600173b189f76323678e094d4996d182a792e52369c0056040805190810160405280601e81526020017f456c656374726f6e69632046726f6e7469657220466f756e646174696f6e0000815250606060405190810160405280603981526020017f68747470733a2f2f7777772e6566662e6f72672f70616765732f65746865726581526020017f756d2d616e642d6c697465636f696e2d646f6e6174696f6e73000000000000008152506040805190810160405280601e81526020017f456c656374726f6e69632046726f6e7469657220466f756e646174696f6e0000815250608060405190810160405280604a81526020017f68747470733a2f2f697066732e696e667572612e696f2f697066732f516d593981526020017f45437935356b576576504a51325244594a78446d42313668354a38536668457981526020017f75455541556e417947550000000000000000000000000000000000000000000081525062000706640100000000026401000000009004565b620004ac600273998f25be40241ca5d8f5fcaf3591b5ed06ef3be76040805190810160405280601f815260200160008051602062004c90833981519152815250606060405190810160405280602c81526020017f68747470733a2f2f66726565646f6d2e70726573732f646f6e6174652f63727981526020017f70746f63757272656e63792f00000000000000000000000000000000000000008152506040805190810160405280601f815260200160008051602062004c908339815191528152506040805190810160405280600981526020017f544f444f206c6f676f000000000000000000000000000000000000000000000081525062000706640100000000026401000000009004565b6200062860037359459b87c29167733818f1263665064cadf10ee46040805190810160405280601581526020017f4f70656e204d6f6e657920496e69746961746976650000000000000000000000815250606060405190810160405280602481526020017f68747470733a2f2f7777772e6f70656e6d6f6e6579696e69746961746976652e81526020017f6f72672f000000000000000000000000000000000000000000000000000000008152506040805190810160405280601581526020017f4f70656e204d6f6e657920496e69746961746976650000000000000000000000815250608060405190810160405280604a81526020017f68747470733a2f2f697066732e696e667572612e696f2f697066732f516d633881526020017f6f525448424c524e6966346236463953354b786d5a4637416f5061517251674281526020017f654275645473585541430000000000000000000000000000000000000000000081525062000706640100000000026401000000009004565b62000d72565b7fffffffff0000000000000000000000000000000000000000000000000000000080821614156200065e57600080fd5b7fffffffff00000000000000000000000000000000000000000000000000000000166000908152602081905260409020805460ff19166001179055565b600c54600160a060020a03163314620006b357600080fd5b62000703816040805190810160405280600981526020017f77686974656c697374000000000000000000000000000000000000000000000081525062000ac2640100000000026401000000009004565b50565b3362000757816040805190810160405280600981526020017f77686974656c697374000000000000000000000000000000000000000000000081525062000be8640100000000026401000000009004565b600160a060020a0386161515620007cf57604080517f08c379a000000000000000000000000000000000000000000000000000000000815260206004820152600f60248201527f496e76616c696420616464726573730000000000000000000000000000000000604482015290519081900360640190fd5b845115156200083f57604080517f08c379a000000000000000000000000000000000000000000000000000000000815260206004820152600c60248201527f496e76616c6964206e616d650000000000000000000000000000000000000000604482015290519081900360640190fd5b83511515620008af57604080517f08c379a000000000000000000000000000000000000000000000000000000000815260206004820152600c60248201527f496e76616c6964206e616d650000000000000000000000000000000000000000604482015290519081900360640190fd5b825115156200091f57604080517f08c379a000000000000000000000000000000000000000000000000000000000815260206004820152600c60248201527f496e76616c6964206e616d650000000000000000000000000000000000000000604482015290519081900360640190fd5b815115156200098f57604080517f08c379a000000000000000000000000000000000000000000000000000000000815260206004820152600c60248201527f496e76616c6964206e616d650000000000000000000000000000000000000000604482015290519081900360640190fd5b6040805160a081018252600160a060020a0388811682526020808301898152838501899052606084018890526080840187905260008c8152601183529490942083518154600160a060020a03191693169290921782559251805192939192620009ff926001850192019062000ccd565b506040820151805162000a1d91600284019160209091019062000ccd565b506060820151805162000a3b91600384019160209091019062000ccd565b506080820151805162000a5991600484019160209091019062000ccd565b50506012805460018101825560009182527fbb8a6a4669ba250d26cd7a459eca9d215f8307e33aebe50379bc5a3617ec3444018990556040518992507f5f4aa3ef0a4bf82c0f10f704eb578f57422b27f40709f8a4aca4694b6bda8ab39190a250505050505050565b62000b3e82600d836040518082805190602001908083835b6020831062000afb5780518252601f19909201916020918201910162000ada565b51815160209384036101000a600019018019909216911617905292019485525060405193849003019092209291505064010000000062000c688102620039471704565b81600160a060020a03167fbfec83d64eaa953f2708271a023ab9ee82057f8f3578d548c1a4ba0b5b700489826040518080602001828103825283818151815260200191508051906020019080838360005b8381101562000ba957818101518382015260200162000b8f565b50505050905090810190601f16801562000bd75780820380516001836020036101000a031916815260200191505b509250505060405180910390a25050565b62000c6482600d836040518082805190602001908083835b6020831062000c215780518252601f19909201916020918201910162000c00565b51815160209384036101000a600019018019909216911617905292019485525060405193849003019092209291505064010000000062000c8d81026200304f1704565b5050565b600160a060020a0316600090815260209190915260409020805460ff19166001179055565b62000ca2828264010000000062000cae810204565b151562000c6457600080fd5b600160a060020a03166000908152602091909152604090205460ff1690565b828054600181600116156101000203166002900490600052602060002090601f016020900481019282601f1062000d1057805160ff191683800117855562000d40565b8280016001018555821562000d40579182015b8281111562000d4057825182559160200191906001019062000d23565b5062000d4e92915062000d52565b5090565b62000d6f91905b8082111562000d4e576000815560010162000d59565b90565b613f0e8062000d826000396000f30060806040526004361061023a5763ffffffff7c010000000000000000000000000000000000000000000000000000000060003504166301ffc9a7811461023f57806303cfe12d1461027557806306fdde03146102da5780630701fd6b14610364578063081812fc14610488578063095ea7b3146104bc5780630988ca8c146104e2578063128ee1611461054957806318160ddd1461072457806318b919e91461074b57806319fa8f50146107605780631db1b4fd14610792578063217fe6c6146107aa57806323b872dd1461081157806324953eaa1461083b578063286dd3f5146108905780632f745c59146108b15780633b3a1a7a146108d557806342842e0e146108ea57806342966c6814610914578063473b0d461461092c5780634e99b800146109445780634f558e79146109595780634f6ccce7146109715780635a3f2672146109895780635f75d62d146109aa5780636352211e14610a0c57806370a0823114610a24578063715018a614610a455780637b9417c814610a5a5780638074dc5914610a7b5780638da5cb5b14610b185780638dc1076814610b2d5780638ef79e9114610bc857806395d89b4114610be85780639b19251a14610bfd578063a22cb46514610c1e578063aaffadf314610c44578063af28577614610c59578063b88d4fde14610d7c578063c87b56dd14610deb578063e2ec6ec314610e03578063e60a955d14610e58578063e985e9c514610e75578063f2fde38b14610e9c578063f7ad51ce14610ebd578063fc314e3114610ed2575b600080fd5b34801561024b57600080fd5b50610261600160e060020a03196004351661100c565b604080519115158252519081900360200190f35b34801561028157600080fd5b5061028a61102b565b60408051602080825283518183015283519192839290830191858101910280838360005b838110156102c65781810151838201526020016102ae565b505050509050019250505060405180910390f35b3480156102e657600080fd5b506102ef611084565b6040805160208082528351818301528351919283929083019185019080838360005b83811015610329578181015183820152602001610311565b50505050905090810190601f1680156103565780820380516001836020036101000a031916815260200191505b509250505060405180910390f35b34801561037057600080fd5b5061037c600435611111565b6040518087600160a060020a0316600160a060020a031681526020018681526020018060200180602001858152602001848152602001838103835287818151815260200191508051906020019080838360005b838110156103e75781810151838201526020016103cf565b50505050905090810190601f1680156104145780820380516001836020036101000a031916815260200191505b50838103825286518152865160209182019188019080838360005b8381101561044757818101518382015260200161042f565b50505050905090810190601f1680156104745780820380516001836020036101000a031916815260200191505b509850505050505050505060405180910390f35b34801561049457600080fd5b506104a0600435611263565b60408051600160a060020a039092168252519081900360200190f35b3480156104c857600080fd5b506104e0600160a060020a036004351660243561127e565b005b3480156104ee57600080fd5b5060408051602060046024803582810135601f81018590048502860185019096528585526104e0958335600160a060020a03169536956044949193909101919081908401838280828437509497506113279650505050505050565b34801561055557600080fd5b50610561600435611395565b6040518086600160a060020a0316600160a060020a0316815260200180602001806020018060200180602001858103855289818151815260200191508051906020019080838360005b838110156105c25781810151838201526020016105aa565b50505050905090810190601f1680156105ef5780820380516001836020036101000a031916815260200191505b5085810384528851815288516020918201918a019080838360005b8381101561062257818101518382015260200161060a565b50505050905090810190601f16801561064f5780820380516001836020036101000a031916815260200191505b50858103835287518152875160209182019189019080838360005b8381101561068257818101518382015260200161066a565b50505050905090810190601f1680156106af5780820380516001836020036101000a031916815260200191505b50858103825286518152865160209182019188019080838360005b838110156106e25781810151838201526020016106ca565b50505050905090810190601f16801561070f5780820380516001836020036101000a031916815260200191505b50995050505050505050505060405180910390f35b34801561073057600080fd5b506107396115fb565b60408051918252519081900360200190f35b34801561075757600080fd5b506102ef611601565b34801561076c57600080fd5b50610775611626565b60408051600160e060020a03199092168252519081900360200190f35b34801561079e57600080fd5b5061056160043561164a565b3480156107b657600080fd5b5060408051602060046024803582810135601f8101859004850286018501909652858552610261958335600160a060020a0316953695604494919390910191908190840183828082843750949750611a8f9650505050505050565b34801561081d57600080fd5b506104e0600160a060020a0360043581169060243516604435611b02565b34801561084757600080fd5b50604080516020600480358082013583810280860185019096528085526104e095369593946024949385019291829185019084908082843750949750611ba59650505050505050565b34801561089c57600080fd5b506104e0600160a060020a0360043516611bf4565b3480156108bd57600080fd5b50610739600160a060020a0360043516602435611c3b565b3480156108e157600080fd5b50610739611c88565b3480156108f657600080fd5b506104e0600160a060020a0360043581169060243516604435611c8e565b34801561092057600080fd5b506104e0600435611caf565b34801561093857600080fd5b506104e0600435611d41565b34801561095057600080fd5b506102ef611dcd565b34801561096557600080fd5b50610261600435611e5b565b34801561097d57600080fd5b50610739600435611e78565b34801561099557600080fd5b5061028a600160a060020a0360043516611ead565b3480156109b657600080fd5b5060408051602060046024803582810135601f81018590048502860185019096528585526104e0958335953695604494919390910191908190840183828082843750949750505050913515159250611f19915050565b348015610a1857600080fd5b506104a0600435612058565b348015610a3057600080fd5b50610739600160a060020a0360043516612082565b348015610a5157600080fd5b506104e06120b5565b348015610a6657600080fd5b506104e0600160a060020a0360043516612116565b604080516020601f60643560048181013592830184900484028501840190955281845261026194600160a060020a03813516946024803595604435953695608494930191819084018382808284375050604080516020601f89358b018035918201839004830284018301909452808352979a99988101979196509182019450925082915084018382808284375094975061215a9650505050505050565b348015610b2457600080fd5b506104a0612531565b348015610b3957600080fd5b50610b45600435612540565b604051808060200183151515158152602001828103825284818151815260200191508051906020019080838360005b83811015610b8c578181015183820152602001610b74565b50505050905090810190601f168015610bb95780820380516001836020036101000a031916815260200191505b50935050505060405180910390f35b348015610bd457600080fd5b506104e060048035602481019101356125ea565b348015610bf457600080fd5b506102ef612681565b348015610c0957600080fd5b50610261600160a060020a03600435166126e2565b348015610c2a57600080fd5b506104e0600160a060020a03600435166024351515612711565b348015610c5057600080fd5b50610739612795565b348015610c6557600080fd5b50604080516020600460443581810135601f81018490048402850184019095528484526104e09482359460248035600160a060020a03169536959460649492019190819084018382808284375050604080516020601f89358b018035918201839004830284018301909452808352979a99988101979196509182019450925082915084018382808284375050604080516020601f89358b018035918201839004830284018301909452808352979a99988101979196509182019450925082915084018382808284375050604080516020601f89358b018035918201839004830284018301909452808352979a99988101979196509182019450925082915084018382808284375094975061279b9650505050505050565b348015610d8857600080fd5b50604080516020601f6064356004818101359283018490048402850184019095528184526104e094600160a060020a038135811695602480359092169560443595369560849401918190840183828082843750949750612a6c9650505050505050565b348015610df757600080fd5b506102ef600435612a8e565b348015610e0f57600080fd5b50604080516020600480358082013583810280860185019096528085526104e095369593946024949385019291829185019084908082843750949750612bd29650505050505050565b348015610e6457600080fd5b506104e06004356024351515612c21565b348015610e8157600080fd5b50610261600160a060020a0360043581169060243516612ceb565b348015610ea857600080fd5b506104e0600160a060020a0360043516612d19565b348015610ec957600080fd5b5061028a612d39565b348015610ede57600080fd5b50610eea600435612d8f565b6040518086600160a060020a0316600160a060020a03168152602001858152602001806020018060200180602001848103845287818151815260200191508051906020019080838360005b83811015610f4d578181015183820152602001610f35565b50505050905090810190601f168015610f7a5780820380516001836020036101000a031916815260200191505b50848103835286518152865160209182019188019080838360005b83811015610fad578181015183820152602001610f95565b50505050905090810190601f168015610fda5780820380516001836020036101000a031916815260200191505b50848103825285518152855160209182019187019080838360008381101561044757818101518382015260200161042f565b600160e060020a03191660009081526020819052604090205460ff1690565b6060601280548060200260200160405190810160405280929190818152602001828054801561107957602002820191906000526020600020905b815481526020019060010190808311611065575b505050505090505b90565b60058054604080516020601f60026000196101006001881615020190951694909404938401819004810282018101909252828152606093909290918301828280156110795780601f106110e557610100808354040283529160200191611079565b820191906000526020600020905b8154815290600101906020018083116110f357509395945050505050565b60156020908152600091825260409182902080546001808301546002808501805488516101009582161595909502600019011691909104601f8101879004870284018701909752868352600160a060020a039093169590949192918301828280156111bd5780601f10611192576101008083540402835291602001916111bd565b820191906000526020600020905b8154815290600101906020018083116111a057829003601f168201915b5050505060038301805460408051602060026001851615610100026000190190941693909304601f810184900484028201840190925281815294959493509083018282801561124d5780601f106112225761010080835404028352916020019161124d565b820191906000526020600020905b81548152906001019060200180831161123057829003601f168201915b5050505050908060040154908060050154905086565b600090815260026020526040902054600160a060020a031690565b600061128982612058565b9050600160a060020a0383811690821614156112a457600080fd5b33600160a060020a03821614806112c057506112c08133612ceb565b15156112cb57600080fd5b6000828152600260205260408082208054600160a060020a031916600160a060020a0387811691821790925591518593918516917f8c5be1e5ebec7d5bd14f71427d1e84f3dd0314c0f7b2291e5b200ac8c7c3b92591a4505050565b61139182600d836040518082805190602001908083835b6020831061135d5780518252601f19909201916020918201910161133e565b51815160209384036101000a600019018019909216911617905292019485525060405193849003019092209291505061304f565b5050565b6011602090815260009182526040918290208054600180830180548651600261010094831615949094026000190190911692909204601f8101869004860283018601909652858252600160a060020a0390921694929390929083018282801561143f5780601f106114145761010080835404028352916020019161143f565b820191906000526020600020905b81548152906001019060200180831161142257829003601f168201915b50505060028085018054604080516020601f60001961010060018716150201909416959095049283018590048502810185019091528181529596959450909250908301828280156114d15780601f106114a6576101008083540402835291602001916114d1565b820191906000526020600020905b8154815290600101906020018083116114b457829003601f168201915b5050505060038301805460408051602060026001851615610100026000190190941693909304601f81018490048402820184019092528181529495949350908301828280156115615780601f1061153657610100808354040283529160200191611561565b820191906000526020600020905b81548152906001019060200180831161154457829003601f168201915b5050505060048301805460408051602060026001851615610100026000190190941693909304601f81018490048402820184019092528181529495949350908301828280156115f15780601f106115c6576101008083540402835291602001916115f1565b820191906000526020600020905b8154815290600101906020018083116115d457829003601f168201915b5050505050905085565b60095490565b6040805180820190915260098152600080516020613ea3833981519152602082015281565b7f01ffc9a70000000000000000000000000000000000000000000000000000000081565b600060608060608061165a613cbf565b611662613cff565b61166b88611e5b565b151561167657600080fd5b600088815260156020908152604091829020825160c0810184528154600160a060020a03168152600180830154828501526002808401805487516101009482161594909402600019011691909104601f810186900486028301860187528083529295939493860193919290918301828280156117335780601f1061170857610100808354040283529160200191611733565b820191906000526020600020905b81548152906001019060200180831161171657829003601f168201915b505050918352505060038201805460408051602060026001851615610100026000190190941693909304601f81018490048402820184019092528181529382019392918301828280156117c75780601f1061179c576101008083540402835291602001916117c7565b820191906000526020600020905b8154815290600101906020018083116117aa57829003601f168201915b5050509183525050600482015460208083019190915260059092015460409182015260a083810151600090815260118452829020825191820183528054600160a060020a03168252600180820180548551600261010094831615949094026000190190911692909204601f81018790048702830187019095528482529597509194909385810193908301828280156118a05780601f10611875576101008083540402835291602001916118a0565b820191906000526020600020905b81548152906001019060200180831161188357829003601f168201915b5050509183525050600282810180546040805160206001841615610100026000190190931694909404601f810183900483028501830190915280845293810193908301828280156119325780601f1061190757610100808354040283529160200191611932565b820191906000526020600020905b81548152906001019060200180831161191557829003601f168201915b505050918352505060038201805460408051602060026001851615610100026000190190941693909304601f81018490048402820184019092528181529382019392918301828280156119c65780601f1061199b576101008083540402835291602001916119c6565b820191906000526020600020905b8154815290600101906020018083116119a957829003601f168201915b505050918352505060048201805460408051602060026001851615610100026000190190941693909304601f8101849004840282018401909252818152938201939291830182828015611a5a5780601f10611a2f57610100808354040283529160200191611a5a565b820191906000526020600020905b815481529060010190602001808311611a3d57829003601f168201915b5050509190925250508151602083015160408401516060850151608090950151929d919c509a50929850965090945050505050565b6000611afb83600d846040518082805190602001908083835b60208310611ac75780518252601f199092019160209182019101611aa8565b51815160209384036101000a6000190180199092169116179052920194855250604051938490030190922092915050613064565b9392505050565b611b0c3382613083565b1515611b1757600080fd5b600160a060020a0383161515611b2c57600080fd5b600160a060020a0382161515611b4157600080fd5b611b4b83826130e2565b611b558382613144565b611b5f828261324b565b8082600160a060020a031684600160a060020a03167fddf252ad1be2c89b69c2b068fc378daa952ba7f163c4a11628f55a4df523b3ef60405160405180910390a4505050565b600c54600090600160a060020a03163314611bbf57600080fd5b5060005b815181101561139157611bec8282815181101515611bdd57fe5b90602001906020020151611bf4565b600101611bc3565b600c54600160a060020a03163314611c0b57600080fd5b611c3881604080519081016040528060098152602001600080516020613ea3833981519152815250613294565b50565b6000611c4683612082565b8210611c5157600080fd5b600160a060020a0383166000908152600760205260409020805483908110611c7557fe5b9060005260206000200154905092915050565b600f5481565b611caa8383836020604051908101604052806000815250612a6c565b505050565b33611cdd81604080519081016040528060098152602001600080516020613ea3833981519152815250611327565b600f5460009081526015602052604081208054600160a060020a03191681556001810182905590611d116002830182613d38565b611d1f600383016000613d38565b50600060048201819055600590910155611391611d3b83612058565b836133a5565b33611d6f81604080519081016040528060098152602001600080516020613ea3833981519152815250611327565b60008211611dc7576040805160e560020a62461bcd02815260206004820152601c60248201527f496e76616c6964206d696e696d756d20636f6e747269627574696f6e00000000604482015290519081900360640190fd5b50601055565b600e805460408051602060026001851615610100026000190190941693909304601f81018490048402820184019092528181529291830182828015611e535780601f10611e2857610100808354040283529160200191611e53565b820191906000526020600020905b815481529060010190602001808311611e3657829003601f168201915b505050505081565b600090815260016020526040902054600160a060020a0316151590565b6000611e826115fb565b8210611e8d57600080fd5b6009805483908110611e9b57fe5b90600052602060002001549050919050565b600160a060020a038116600090815260076020908152604091829020805483518184028101840190945280845260609392830182828015611f0d57602002820191906000526020600020905b815481526020019060010190808311611ef9575b50505050509050919050565b33611f4781604080519081016040528060098152602001600080516020613ea3833981519152815250611327565b82511515611f9f576040805160e560020a62461bcd02815260206004820152601160248201527f496e76616c696420746f6b656e20555249000000000000000000000000000000604482015290519081900360640190fd5b604080518082018252848152831515602080830191909152600087815260138252929092208151805192939192611fd99284920190613d7c565b50602091909101516001918201805460ff191691151591909117905560148054918201815560009081527fce6d7b5282bd9a3661ae061feed1dbda4e52ab073b1f9285be6e155d9c38d4ec90910185905560405185917fee4df2a71cd5144f989eafc284d855a4cc517ca03f21c5270ed8e2e9dcc3d29c91a250505050565b600081815260016020526040812054600160a060020a031680151561207c57600080fd5b92915050565b6000600160a060020a038216151561209957600080fd5b50600160a060020a031660009081526003602052604090205490565b600c54600160a060020a031633146120cc57600080fd5b600c54604051600160a060020a03909116907ff8df31144d9c2f0f6b59d69b8b98abd5459d07f2742c4df920b25aae33c6482090600090a2600c8054600160a060020a0319169055565b600c54600160a060020a0316331461212d57600080fd5b611c3881604080519081016040528060098152602001600080516020613ea383398151915281525061349f565b6000600160a060020a03861615156121bc576040805160e560020a62461bcd02815260206004820152601760248201527f4d75737420626520612076616c69642061646472657373000000000000000000604482015290519081900360640190fd5b600085815260116020526040902054600160a060020a0316151561222a576040805160e560020a62461bcd02815260206004820181905260248201527f4d7573742073706563696679206578697374696e672062656e65666163746f72604482015290519081900360640190fd5b6000848152601360205260409020546002600019610100600184161502019091160415156122a2576040805160e560020a62461bcd02815260206004820152601a60248201527f4d7573742073706563696679206578697374696e672063617264000000000000604482015290519081900360640190fd5b60008481526013602052604090206001015460ff16151561230d576040805160e560020a62461bcd02815260206004820152601660248201527f4d75737420626520616e20616374697665206361726400000000000000000000604482015290519081900360640190fd5b60105434101561238d576040805160e560020a62461bcd02815260206004820152602560248201527f4d7573742073656e64206174206c6561737420746865206d696e696d756d206160448201527f6d6f756e74000000000000000000000000000000000000000000000000000000606482015290519081900360840190fd5b6040805160c081018252338152346020808301918252828401878152606084018790526080840189905260a084018a9052600f546000908152601583529490942083518154600160a060020a031916600160a060020a039091161781559151600183015592518051929391926124099260028501920190613d7c565b5060608201518051612425916003840191602090910190613d7c565b506080820151600482015560a0909101516005909101556000848152601360209081526040918290208054835160026001831615610100026000190190921691909104601f81018490048402820184019094528381526124df938a939192918301828280156124d55780601f106124aa576101008083540402835291602001916124d5565b820191906000526020600020905b8154815290600101906020018083116124b857829003601f168201915b5050505050613571565b600085815260116020526040808220549051600160a060020a03909116913480156108fc02929091818181858888f19350505050158015612524573d6000803e3d6000fd5b5060019695505050505050565b600c54600160a060020a031681565b60136020908152600091825260409182902080548351601f600260001961010060018616150201909316929092049182018490048402810184019094528084529092918391908301828280156125d75780601f106125ac576101008083540402835291602001916125d7565b820191906000526020600020905b8154815290600101906020018083116125ba57829003601f168201915b5050506001909301549192505060ff1682565b3361261881604080519081016040528060098152602001600080516020613ea3833981519152815250611327565b81151561266f576040805160e560020a62461bcd02815260206004820152601060248201527f426173652055524920696e76616c696400000000000000000000000000000000604482015290519081900360640190fd5b61267b600e8484613dfa565b50505050565b60068054604080516020601f60026000196101006001881615020190951694909404938401819004810282018101909252828152606093909290918301828280156110795780601f106110e557610100808354040283529160200191611079565b600061207c82604080519081016040528060098152602001600080516020613ea3833981519152815250611a8f565b600160a060020a03821633141561272757600080fd5b336000818152600460209081526040808320600160a060020a03871680855290835292819020805460ff1916861515908117909155815190815290519293927f17307eab39ab6107e8899845ad3d59bd9653f200f220920489ca2b5937696c31929181900390910190a35050565b60105481565b336127c981604080519081016040528060098152602001600080516020613ea3833981519152815250611327565b600160a060020a0386161515612829576040805160e560020a62461bcd02815260206004820152600f60248201527f496e76616c696420616464726573730000000000000000000000000000000000604482015290519081900360640190fd5b8451151561286f576040805160e560020a62461bcd02815260206004820152600c6024820152600080516020613ec3833981519152604482015290519081900360640190fd5b835115156128b5576040805160e560020a62461bcd02815260206004820152600c6024820152600080516020613ec3833981519152604482015290519081900360640190fd5b825115156128fb576040805160e560020a62461bcd02815260206004820152600c6024820152600080516020613ec3833981519152604482015290519081900360640190fd5b81511515612941576040805160e560020a62461bcd02815260206004820152600c6024820152600080516020613ec3833981519152604482015290519081900360640190fd5b6040805160a081018252600160a060020a0388811682526020808301898152838501899052606084018890526080840187905260008c8152601183529490942083518154600160a060020a031916931692909217825592518051929391926129af9260018501920190613d7c565b50604082015180516129cb916002840191602090910190613d7c565b50606082015180516129e7916003840191602090910190613d7c565b5060808201518051612a03916004840191602090910190613d7c565b50506012805460018101825560009182527fbb8a6a4669ba250d26cd7a459eca9d215f8307e33aebe50379bc5a3617ec3444018990556040518992507f5f4aa3ef0a4bf82c0f10f704eb578f57422b27f40709f8a4aca4694b6bda8ab39190a250505050505050565b612a77848484611b02565b612a83848484846135a4565b151561267b57600080fd5b6060612a9982611e5b565b1515612aa457600080fd5b600e8054604080516020601f6002600019610100600188161502019095169490940493840181900481028201810190925282815261207c9390929091830182828015612b315780601f10612b0657610100808354040283529160200191612b31565b820191906000526020600020905b815481529060010190602001808311612b1457829003601f168201915b5050506000868152600b60209081526040918290208054835160026001831615610100026000190190921691909104601f810184900484028201840190945283815294509250830182828015612bc85780601f10612b9d57610100808354040283529160200191612bc8565b820191906000526020600020905b815481529060010190602001808311612bab57829003601f168201915b5050505050613711565b600c54600090600160a060020a03163314612bec57600080fd5b5060005b815181101561139157612c198282815181101515612c0a57fe5b90602001906020020151612116565b600101612bf0565b33612c4f81604080519081016040528060098152602001600080516020613ea3833981519152815250611327565b600083815260136020526040902054600260001961010060018416150201909116041515612cc7576040805160e560020a62461bcd02815260206004820152601a60248201527f4d7573742073706563696679206578697374696e672063617264000000000000604482015290519081900360640190fd5b50600091825260136020526040909120600101805460ff1916911515919091179055565b600160a060020a03918216600090815260046020908152604080832093909416825291909152205460ff1690565b600c54600160a060020a03163314612d3057600080fd5b611c3881613746565b606060148054806020026020016040519081016040528092919081815260200182805480156110795760200282019190600052602060002090815481526020019060010190808311611065575050505050905090565b6000806060806060612d9f613cbf565b612da887611e5b565b1515612db357600080fd5b600087815260156020908152604091829020825160c0810184528154600160a060020a03168152600180830154828501526002808401805487516101009482161594909402600019011691909104601f81018690048602830186018752808352929593949386019391929091830182828015612e705780601f10612e4557610100808354040283529160200191612e70565b820191906000526020600020905b815481529060010190602001808311612e5357829003601f168201915b505050918352505060038201805460408051602060026001851615610100026000190190941693909304601f8101849004840282018401909252818152938201939291830182828015612f045780601f10612ed957610100808354040283529160200191612f04565b820191906000526020600020905b815481529060010190602001808311612ee757829003601f168201915b50505050508152602001600482015481526020016005820154815250509050806000015181602001518260400151836060015161303c600e8054600181600116156101000203166002900480601f016020809104026020016040519081016040528092919081815260200182805460018160011615610100020316600290048015612fd05780601f10612fa557610100808354040283529160200191612fd0565b820191906000526020600020905b815481529060010190602001808311612fb357829003601f168201915b50505060008f8152600b60209081526040918290208054835160026001831615610100026000190190921691909104601f810184900484028201840190945283815294509250830182828015612bc85780601f10612b9d57610100808354040283529160200191612bc8565b939b929a50909850965090945092505050565b6130598282613064565b151561139157600080fd5b600160a060020a03166000908152602091909152604090205460ff1690565b60008061308f83612058565b905080600160a060020a031684600160a060020a031614806130ca575083600160a060020a03166130bf84611263565b600160a060020a0316145b806130da57506130da8185612ceb565b949350505050565b81600160a060020a03166130f582612058565b600160a060020a03161461310857600080fd5b600081815260026020526040902054600160a060020a0316156113915760009081526002602052604090208054600160a060020a031916905550565b600080600061315385856137b7565b600084815260086020908152604080832054600160a060020a038916845260079092529091205490935061318e90600163ffffffff61384016565b600160a060020a0386166000908152600760205260409020805491935090839081106131b657fe5b90600052602060002001549050806007600087600160a060020a0316600160a060020a03168152602001908152602001600020848154811015156131f657fe5b6000918252602080832090910192909255600160a060020a038716815260079091526040902080549061322d906000198301613e68565b50600093845260086020526040808520859055908452909220555050565b60006132578383613852565b50600160a060020a039091166000908152600760209081526040808320805460018101825590845282842081018590559383526008909152902055565b6132fe82600d836040518082805190602001908083835b602083106132ca5780518252601f1990920191602091820191016132ab565b51815160209384036101000a60001901801990921691161790529201948552506040519384900301909220929150506138d5565b81600160a060020a03167fd211483f91fc6eff862467f8de606587a30c8fc9981056f051b897a418df803a826040518080602001828103825283818151815260200191508051906020019080838360005b8381101561336757818101518382015260200161334f565b50505050905090810190601f1680156133945780820380516001836020036101000a031916815260200191505b509250505060405180910390a25050565b60008060006133b485856138f7565b6000848152600b602052604090205460026000196101006001841615020190911604156133f2576000848152600b602052604081206133f291613d38565b6000848152600a602052604090205460095490935061341890600163ffffffff61384016565b915060098281548110151561342957fe5b906000526020600020015490508060098481548110151561344657fe5b6000918252602082200191909155600980548490811061346257fe5b6000918252602090912001556009805490613481906000198301613e68565b506000938452600a6020526040808520859055908452909220555050565b61350982600d836040518082805190602001908083835b602083106134d55780518252601f1990920191602091820191016134b6565b51815160209384036101000a6000190180199092169116179052920194855250604051938490030190922092915050613947565b81600160a060020a03167fbfec83d64eaa953f2708271a023ab9ee82057f8f3578d548c1a4ba0b5b700489826040518080602001828103825283818151815260200191508051906020019080838360008381101561336757818101518382015260200161334f565b600f5461357e838261396c565b61358881836139bb565b600f5461359c90600163ffffffff6139ee16565b600f55505050565b6000806135b985600160a060020a03166139fb565b15156135c85760019150613708565b6040517f150b7a020000000000000000000000000000000000000000000000000000000081523360048201818152600160a060020a03898116602485015260448401889052608060648501908152875160848601528751918a169463150b7a0294938c938b938b93909160a490910190602085019080838360005b8381101561365b578181015183820152602001613643565b50505050905090810190601f1680156136885780820380516001836020036101000a031916815260200191505b5095505050505050602060405180830381600087803b1580156136aa57600080fd5b505af11580156136be573d6000803e3d6000fd5b505050506040513d60208110156136d457600080fd5b5051600160e060020a031981167f150b7a020000000000000000000000000000000000000000000000000000000014925090505b50949350505050565b604080516020818101835260008083528351808301855281815284519283019094528152606092611afb928692869290613a03565b600160a060020a038116151561375b57600080fd5b600c54604051600160a060020a038084169216907f8be0079c531659141344cd1fd0a4f28419497f9722a3daafe3b4186f6b6457e090600090a3600c8054600160a060020a031916600160a060020a0392909216919091179055565b81600160a060020a03166137ca82612058565b600160a060020a0316146137dd57600080fd5b600160a060020a03821660009081526003602052604090205461380790600163ffffffff61384016565b600160a060020a039092166000908152600360209081526040808320949094559181526001909152208054600160a060020a0319169055565b60008282111561384c57fe5b50900390565b600081815260016020526040902054600160a060020a03161561387457600080fd5b60008181526001602081815260408084208054600160a060020a031916600160a060020a03881690811790915584526003909152909120546138b5916139ee565b600160a060020a0390921660009081526003602052604090209190915550565b600160a060020a0316600090815260209190915260409020805460ff19169055565b61390182826130e2565b61390b8282613144565b6040518190600090600160a060020a038516907fddf252ad1be2c89b69c2b068fc378daa952ba7f163c4a11628f55a4df523b3ef908390a45050565b600160a060020a0316600090815260209190915260409020805460ff19166001179055565b6139768282613c64565b600980546000838152600a60205260408120829055600182018355919091527f6e1540171b6c0c960b71a7020d9f60077f6af931a8bbf590da0223dacf75c7af015550565b6139c482611e5b565b15156139cf57600080fd5b6000828152600b602090815260409091208251611caa92840190613d7c565b8181018281101561207c57fe5b6000903b1190565b6060806060806060806060806000808e98508d97508c96508b95508a94508451865188518a518c51010101016040519080825280601f01601f191660200182016040528015613a5c578160200160208202803883390190505b50935083925060009150600090505b8851811015613ac9578881815181101515613a8257fe5b90602001015160f860020a900460f860020a028383806001019450815181101515613aa957fe5b906020010190600160f860020a031916908160001a905350600101613a6b565b5060005b8751811015613b2b578781815181101515613ae457fe5b90602001015160f860020a900460f860020a028383806001019450815181101515613b0b57fe5b906020010190600160f860020a031916908160001a905350600101613acd565b5060005b8651811015613b8d578681815181101515613b4657fe5b90602001015160f860020a900460f860020a028383806001019450815181101515613b6d57fe5b906020010190600160f860020a031916908160001a905350600101613b2f565b5060005b8551811015613bef578581815181101515613ba857fe5b90602001015160f860020a900460f860020a028383806001019450815181101515613bcf57fe5b906020010190600160f860020a031916908160001a905350600101613b91565b5060005b8451811015613c51578481815181101515613c0a57fe5b90602001015160f860020a900460f860020a028383806001019450815181101515613c3157fe5b906020010190600160f860020a031916908160001a905350600101613bf3565b50909d9c50505050505050505050505050565b600160a060020a0382161515613c7957600080fd5b613c83828261324b565b6040518190600160a060020a038416906000907fddf252ad1be2c89b69c2b068fc378daa952ba7f163c4a11628f55a4df523b3ef908290a45050565b60c0604051908101604052806000600160a060020a0316815260200160008152602001606081526020016060815260200160008152602001600081525090565b60a0604051908101604052806000600160a060020a03168152602001606081526020016060815260200160608152602001606081525090565b50805460018160011615610100020316600290046000825580601f10613d5e5750611c38565b601f016020900490600052602060002090810190611c389190613e88565b828054600181600116156101000203166002900490600052602060002090601f016020900481019282601f10613dbd57805160ff1916838001178555613dea565b82800160010185558215613dea579182015b82811115613dea578251825591602001919060010190613dcf565b50613df6929150613e88565b5090565b828054600181600116156101000203166002900490600052602060002090601f016020900481019282601f10613e3b5782800160ff19823516178555613dea565b82800160010185558215613dea579182015b82811115613dea578235825591602001919060010190613e4d565b815481835581811115611caa57600083815260209020611caa9181019083015b61108191905b80821115613df65760008155600101613e8e560077686974656c6973740000000000000000000000000000000000000000000000496e76616c6964206e616d650000000000000000000000000000000000000000a165627a7a72305820f69c291cde21b6b99ecb3383bb4e2bc28b3717a3928be79cca3d3535a6b342e6002946726565646f6d206f662074686520507265737320466f756e646174696f6e00",
  "source": "pragma solidity ^0.4.24;\n\nimport \"openzeppelin-solidity/contracts/math/SafeMath.sol\";\nimport \"openzeppelin-solidity/contracts/access/Whitelist.sol\";\nimport \"openzeppelin-solidity/contracts/token/ERC721/ERC721Token.sol\";\n\nimport \"./Strings.sol\";\n\n/**\n* @title Radi.Cards\n*\n* @author Andy Gray & James Morgan - KnownOrigin.io\n*/\ncontract RadiCards is ERC721Token, Whitelist {\n  using SafeMath for uint256;\n\n  string public tokenBaseURI = \"https://ipfs.infura.io/ipfs/\";\n\n  uint256 public tokenIdPointer = 0;\n  uint256 public minContribution = 0.01 ether; // under $1..now\n\n  struct Benefactor {\n    address ethAddress;\n    string name;\n    string website;\n    string description;\n    string logo;\n  }\n\n  struct CardDesign {\n    string tokenURI;\n    bool active;\n  }\n\n  struct RadiCard {\n    // Metadata\n    address gifter;\n    uint256 giftingAmount;\n    string message;\n    string extra;\n    // Lookups\n    uint256 cardIndex;\n    uint256 benefactorIndex;\n  }\n\n  event BenefactorAdded(\n    uint256 indexed _benefactorIndex\n  );\n\n  event CardAdded(\n    uint256 indexed _benefactorIndex\n  );\n\n  mapping(uint256 => Benefactor) public benefactors;\n  uint256[] internal benefactorsIndex;\n\n  mapping(uint256 => CardDesign) public cards;\n  uint256[] internal cardsIndex;\n\n  mapping(uint256 => RadiCard) public tokenIdToRadiCardIndex;\n\n  constructor () public ERC721Token(\"RadiCards\", \"RADI\") {\n    addAddressToWhitelist(msg.sender);\n\n    addBenefactor(\n      1,\n      address(0xb189f76323678E094D4996d182A792E52369c005),\n      \"Electronic Frontier Foundation\",\n      \"https://www.eff.org/pages/ethereum-and-litecoin-donations\",\n      \"Electronic Frontier Foundation\",\n      \"https://ipfs.infura.io/ipfs/QmY9ECy55kWevPJQ2RDYJxDmB16h5J8SfhEyuEUAUnAyGU\"\n    );\n\n    // TODO complete\n    addBenefactor(\n      2,\n      address(0x998F25Be40241CA5D8F5fCaF3591B5ED06EF3Be7),\n      \"Freedom of the Press Foundation\",\n      \"https://freedom.press/donate/cryptocurrency/\",\n      \"Freedom of the Press Foundation\",\n      \"TODO logo\"\n    );\n\n    addBenefactor(\n      3,\n      address(0x59459B87c29167733818f1263665064Cadf10eE4),\n      \"Open Money Initiative\",\n      \"https://www.openmoneyinitiative.org/\",\n      \"Open Money Initiative\",\n      \"https://ipfs.infura.io/ipfs/Qmc8oRTHBLRNif4b6F9S5KxmZF7AoPaQrQgBeBudTsXUAC\"\n    );\n\n    // TODO complete\n//    addBenefactor(\n//      4,\n//      address(0),\n//      \"Tor project\",\n//      \"https://www.torproject.org/\",\n//      \"Tor project\",\n//      \"TODO logo\"\n//    );\n  }\n\n  function gift(address to, uint256 _benefactorIndex, uint256 _cardIndex, string _message, string _extra) payable public returns (bool) {\n    require(to != address(0), \"Must be a valid address\");\n    require(benefactors[_benefactorIndex].ethAddress != address(0), \"Must specify existing benefactor\");\n    require(bytes(cards[_cardIndex].tokenURI).length != 0, \"Must specify existing card\");\n    require(cards[_cardIndex].active, \"Must be an active card\");\n    require(msg.value >= minContribution, \"Must send at least the minimum amount\");\n\n    tokenIdToRadiCardIndex[tokenIdPointer] = RadiCard({\n      gifter : msg.sender,\n      giftingAmount : msg.value,\n      message : _message,\n      extra : _extra,\n      benefactorIndex : _benefactorIndex,\n      cardIndex : _cardIndex\n    });\n\n    _mint(to, cards[_cardIndex].tokenURI);\n\n    // transfer the ETH to the benefactor\n    benefactors[_benefactorIndex].ethAddress.transfer(msg.value);\n\n    return true;\n  }\n\n  function _mint(address to, string tokenURI) internal {\n    uint256 tokenId = tokenIdPointer;\n\n    _mint(to, tokenId);\n    _setTokenURI(tokenId, tokenURI);\n\n    tokenIdPointer = tokenIdPointer.add(1);\n  }\n\n  function burn(uint256 _tokenId) public onlyIfWhitelisted(msg.sender) {\n    // custom fields\n    delete tokenIdToRadiCardIndex[tokenIdPointer];\n\n    // Super burn\n    _burn(ownerOf(_tokenId), _tokenId);\n  }\n\n  function tokenURI(uint256 _tokenId) public view returns (string) {\n    require(exists(_tokenId));\n\n    return Strings.strConcat(tokenBaseURI, tokenURIs[_tokenId]);\n  }\n\n  function tokenDetails(uint256 _tokenId)\n  public view\n  returns (\n    address _gifter,\n    uint256 _giftingAmount,\n    string _message,\n    string _extra,\n    string _tokenUri\n  ) {\n    require(exists(_tokenId));\n    RadiCard memory _radiCard = tokenIdToRadiCardIndex[_tokenId];\n    return (\n      _radiCard.gifter,\n      _radiCard.giftingAmount,\n      _radiCard.message,\n      _radiCard.extra,\n      Strings.strConcat(tokenBaseURI, tokenURIs[_tokenId])\n    );\n  }\n\n  function tokenBenefactor(uint256 _tokenId)\n  public view\n  returns (\n    address _ethAddress,\n    string _name,\n    string _website,\n    string _description,\n    string _logo\n  ) {\n    require(exists(_tokenId));\n    RadiCard memory _radiCard = tokenIdToRadiCardIndex[_tokenId];\n    Benefactor memory _benefactor = benefactors[_radiCard.benefactorIndex];\n    return (\n      _benefactor.ethAddress,\n      _benefactor.name,\n      _benefactor.website,\n      _benefactor.description,\n      _benefactor.logo\n    );\n  }\n\n  function tokensOf(address _owner) public view returns (uint256[] _tokenIds) {\n    return ownedTokens[_owner];\n  }\n\n  function benefactorsKeys() public view returns (uint256[] _keys) {\n    return benefactorsIndex;\n  }\n\n  function cardsKeys() public view returns (uint256[] _keys) {\n    return cardsIndex;\n  }\n\n  function addBenefactor(uint256 _benefactorIndex, address _ethAddress, string _name, string _website, string _description, string _logo) public onlyIfWhitelisted(msg.sender) {\n    require(address(_ethAddress) != address(0), \"Invalid address\");\n    require(bytes(_name).length != 0, \"Invalid name\");\n    require(bytes(_website).length != 0, \"Invalid name\");\n    require(bytes(_description).length != 0, \"Invalid name\");\n    require(bytes(_logo).length != 0, \"Invalid name\");\n\n    benefactors[_benefactorIndex] = Benefactor(\n      _ethAddress,\n      _name,\n      _website,\n      _description,\n      _logo\n    );\n    benefactorsIndex.push(_benefactorIndex);\n\n    emit BenefactorAdded(_benefactorIndex);\n  }\n\n  function addCard(uint256 _cardIndex, string _tokenURI, bool _active) public onlyIfWhitelisted(msg.sender) {\n    require(bytes(_tokenURI).length != 0, \"Invalid token URI\");\n\n    cards[_cardIndex] = CardDesign(\n      _tokenURI,\n      _active\n    );\n    cardsIndex.push(_cardIndex);\n\n    emit CardAdded(_cardIndex);\n  }\n\n  function setTokenBaseURI(string _newBaseURI) external onlyIfWhitelisted(msg.sender) {\n    require(bytes(_newBaseURI).length != 0, \"Base URI invalid\");\n\n    tokenBaseURI = _newBaseURI;\n  }\n\n  function setMinContribution(uint256 _minContribution) external onlyIfWhitelisted(msg.sender) {\n    require(_minContribution > 0, \"Invalid minimum contribution\");\n\n    minContribution = _minContribution;\n  }\n\n  function setActive(uint256 _cardIndex, bool _active) external onlyIfWhitelisted(msg.sender) {\n    require(bytes(cards[_cardIndex].tokenURI).length != 0, \"Must specify existing card\");\n\n    cards[_cardIndex].active = _active;\n  }\n}\n",
  "sourcePath": "/Users/andy/workspace/radi-cards/contracts/RadiCards.sol",
  "compiler": {
    "name": "solc",
    "version": "0.4.24+commit.e67f0147.Emscripten.clang"
  },
  "schemaVersion": "3.0.0-beta.1",
  "updatedAt": "2018-12-11T18:12:04.333Z"
}