{
  "contractName": "RadiCards",
  "abi": [
    {
      "constant": true,
      "inputs": [
        {
          "name": "_interfaceId",
          "type": "bytes4"
        }
      ],
      "name": "supportsInterface",
      "outputs": [
        {
          "name": "",
          "type": "bool"
        }
      ],
      "payable": false,
      "stateMutability": "view",
      "type": "function",
      "signature": "0x01ffc9a7"
    },
    {
      "constant": true,
      "inputs": [],
      "name": "name",
      "outputs": [
        {
          "name": "",
          "type": "string"
        }
      ],
      "payable": false,
      "stateMutability": "view",
      "type": "function",
      "signature": "0x06fdde03"
    },
    {
      "constant": true,
      "inputs": [
        {
          "name": "_tokenId",
          "type": "uint256"
        }
      ],
      "name": "getApproved",
      "outputs": [
        {
          "name": "",
          "type": "address"
        }
      ],
      "payable": false,
      "stateMutability": "view",
      "type": "function",
      "signature": "0x081812fc"
    },
    {
      "constant": false,
      "inputs": [
        {
          "name": "_to",
          "type": "address"
        },
        {
          "name": "_tokenId",
          "type": "uint256"
        }
      ],
      "name": "approve",
      "outputs": [],
      "payable": false,
      "stateMutability": "nonpayable",
      "type": "function",
      "signature": "0x095ea7b3"
    },
    {
      "constant": true,
      "inputs": [
        {
          "name": "_operator",
          "type": "address"
        },
        {
          "name": "_role",
          "type": "string"
        }
      ],
      "name": "checkRole",
      "outputs": [],
      "payable": false,
      "stateMutability": "view",
      "type": "function",
      "signature": "0x0988ca8c"
    },
    {
      "constant": true,
      "inputs": [
        {
          "name": "",
          "type": "uint256"
        }
      ],
      "name": "benefactors",
      "outputs": [
        {
          "name": "ethAddress",
          "type": "address"
        },
        {
          "name": "name",
          "type": "string"
        },
        {
          "name": "website",
          "type": "string"
        }
      ],
      "payable": false,
      "stateMutability": "view",
      "type": "function",
      "signature": "0x128ee161"
    },
    {
      "constant": true,
      "inputs": [],
      "name": "totalSupply",
      "outputs": [
        {
          "name": "",
          "type": "uint256"
        }
      ],
      "payable": false,
      "stateMutability": "view",
      "type": "function",
      "signature": "0x18160ddd"
    },
    {
      "constant": true,
      "inputs": [],
      "name": "ROLE_WHITELISTED",
      "outputs": [
        {
          "name": "",
          "type": "string"
        }
      ],
      "payable": false,
      "stateMutability": "view",
      "type": "function",
      "signature": "0x18b919e9"
    },
    {
      "constant": true,
      "inputs": [],
      "name": "InterfaceId_ERC165",
      "outputs": [
        {
          "name": "",
          "type": "bytes4"
        }
      ],
      "payable": false,
      "stateMutability": "view",
      "type": "function",
      "signature": "0x19fa8f50"
    },
    {
      "constant": true,
      "inputs": [
        {
          "name": "_operator",
          "type": "address"
        },
        {
          "name": "_role",
          "type": "string"
        }
      ],
      "name": "hasRole",
      "outputs": [
        {
          "name": "",
          "type": "bool"
        }
      ],
      "payable": false,
      "stateMutability": "view",
      "type": "function",
      "signature": "0x217fe6c6"
    },
    {
      "constant": false,
      "inputs": [
        {
          "name": "_from",
          "type": "address"
        },
        {
          "name": "_to",
          "type": "address"
        },
        {
          "name": "_tokenId",
          "type": "uint256"
        }
      ],
      "name": "transferFrom",
      "outputs": [],
      "payable": false,
      "stateMutability": "nonpayable",
      "type": "function",
      "signature": "0x23b872dd"
    },
    {
      "constant": false,
      "inputs": [
        {
          "name": "_operators",
          "type": "address[]"
        }
      ],
      "name": "removeAddressesFromWhitelist",
      "outputs": [],
      "payable": false,
      "stateMutability": "nonpayable",
      "type": "function",
      "signature": "0x24953eaa"
    },
    {
      "constant": false,
      "inputs": [
        {
          "name": "_operator",
          "type": "address"
        }
      ],
      "name": "removeAddressFromWhitelist",
      "outputs": [],
      "payable": false,
      "stateMutability": "nonpayable",
      "type": "function",
      "signature": "0x286dd3f5"
    },
    {
      "constant": true,
      "inputs": [
        {
          "name": "_owner",
          "type": "address"
        },
        {
          "name": "_index",
          "type": "uint256"
        }
      ],
      "name": "tokenOfOwnerByIndex",
      "outputs": [
        {
          "name": "",
          "type": "uint256"
        }
      ],
      "payable": false,
      "stateMutability": "view",
      "type": "function",
      "signature": "0x2f745c59"
    },
    {
      "constant": true,
      "inputs": [],
      "name": "tokenIdPointer",
      "outputs": [
        {
          "name": "",
          "type": "uint256"
        }
      ],
      "payable": false,
      "stateMutability": "view",
      "type": "function",
      "signature": "0x3b3a1a7a"
    },
    {
      "constant": false,
      "inputs": [
        {
          "name": "_from",
          "type": "address"
        },
        {
          "name": "_to",
          "type": "address"
        },
        {
          "name": "_tokenId",
          "type": "uint256"
        }
      ],
      "name": "safeTransferFrom",
      "outputs": [],
      "payable": false,
      "stateMutability": "nonpayable",
      "type": "function",
      "signature": "0x42842e0e"
    },
    {
      "constant": true,
      "inputs": [],
      "name": "tokenBaseURI",
      "outputs": [
        {
          "name": "",
          "type": "string"
        }
      ],
      "payable": false,
      "stateMutability": "view",
      "type": "function",
      "signature": "0x4e99b800"
    },
    {
      "constant": true,
      "inputs": [
        {
          "name": "_tokenId",
          "type": "uint256"
        }
      ],
      "name": "exists",
      "outputs": [
        {
          "name": "",
          "type": "bool"
        }
      ],
      "payable": false,
      "stateMutability": "view",
      "type": "function",
      "signature": "0x4f558e79"
    },
    {
      "constant": true,
      "inputs": [
        {
          "name": "_index",
          "type": "uint256"
        }
      ],
      "name": "tokenByIndex",
      "outputs": [
        {
          "name": "",
          "type": "uint256"
        }
      ],
      "payable": false,
      "stateMutability": "view",
      "type": "function",
      "signature": "0x4f6ccce7"
    },
    {
      "constant": true,
      "inputs": [
        {
          "name": "_tokenId",
          "type": "uint256"
        }
      ],
      "name": "ownerOf",
      "outputs": [
        {
          "name": "",
          "type": "address"
        }
      ],
      "payable": false,
      "stateMutability": "view",
      "type": "function",
      "signature": "0x6352211e"
    },
    {
      "constant": true,
      "inputs": [
        {
          "name": "_owner",
          "type": "address"
        }
      ],
      "name": "balanceOf",
      "outputs": [
        {
          "name": "",
          "type": "uint256"
        }
      ],
      "payable": false,
      "stateMutability": "view",
      "type": "function",
      "signature": "0x70a08231"
    },
    {
      "constant": false,
      "inputs": [],
      "name": "renounceOwnership",
      "outputs": [],
      "payable": false,
      "stateMutability": "nonpayable",
      "type": "function",
      "signature": "0x715018a6"
    },
    {
      "constant": false,
      "inputs": [
        {
          "name": "_operator",
          "type": "address"
        }
      ],
      "name": "addAddressToWhitelist",
      "outputs": [],
      "payable": false,
      "stateMutability": "nonpayable",
      "type": "function",
      "signature": "0x7b9417c8"
    },
    {
      "constant": true,
      "inputs": [],
      "name": "owner",
      "outputs": [
        {
          "name": "",
          "type": "address"
        }
      ],
      "payable": false,
      "stateMutability": "view",
      "type": "function",
      "signature": "0x8da5cb5b"
    },
    {
      "constant": true,
      "inputs": [],
      "name": "symbol",
      "outputs": [
        {
          "name": "",
          "type": "string"
        }
      ],
      "payable": false,
      "stateMutability": "view",
      "type": "function",
      "signature": "0x95d89b41"
    },
    {
      "constant": true,
      "inputs": [
        {
          "name": "_operator",
          "type": "address"
        }
      ],
      "name": "whitelist",
      "outputs": [
        {
          "name": "",
          "type": "bool"
        }
      ],
      "payable": false,
      "stateMutability": "view",
      "type": "function",
      "signature": "0x9b19251a"
    },
    {
      "constant": false,
      "inputs": [
        {
          "name": "_to",
          "type": "address"
        },
        {
          "name": "_approved",
          "type": "bool"
        }
      ],
      "name": "setApprovalForAll",
      "outputs": [],
      "payable": false,
      "stateMutability": "nonpayable",
      "type": "function",
      "signature": "0xa22cb465"
    },
    {
      "constant": true,
      "inputs": [],
      "name": "minContribution",
      "outputs": [
        {
          "name": "",
          "type": "uint256"
        }
      ],
      "payable": false,
      "stateMutability": "view",
      "type": "function",
      "signature": "0xaaffadf3"
    },
    {
      "constant": false,
      "inputs": [
        {
          "name": "_from",
          "type": "address"
        },
        {
          "name": "_to",
          "type": "address"
        },
        {
          "name": "_tokenId",
          "type": "uint256"
        },
        {
          "name": "_data",
          "type": "bytes"
        }
      ],
      "name": "safeTransferFrom",
      "outputs": [],
      "payable": false,
      "stateMutability": "nonpayable",
      "type": "function",
      "signature": "0xb88d4fde"
    },
    {
      "constant": false,
      "inputs": [
        {
          "name": "_operators",
          "type": "address[]"
        }
      ],
      "name": "addAddressesToWhitelist",
      "outputs": [],
      "payable": false,
      "stateMutability": "nonpayable",
      "type": "function",
      "signature": "0xe2ec6ec3"
    },
    {
      "constant": true,
      "inputs": [
        {
          "name": "_owner",
          "type": "address"
        },
        {
          "name": "_operator",
          "type": "address"
        }
      ],
      "name": "isApprovedForAll",
      "outputs": [
        {
          "name": "",
          "type": "bool"
        }
      ],
      "payable": false,
      "stateMutability": "view",
      "type": "function",
      "signature": "0xe985e9c5"
    },
    {
      "constant": false,
      "inputs": [
        {
          "name": "_newOwner",
          "type": "address"
        }
      ],
      "name": "transferOwnership",
      "outputs": [],
      "payable": false,
      "stateMutability": "nonpayable",
      "type": "function",
      "signature": "0xf2fde38b"
    },
    {
      "inputs": [],
      "payable": false,
      "stateMutability": "nonpayable",
      "type": "constructor",
      "signature": "constructor"
    },
    {
      "anonymous": false,
      "inputs": [
        {
          "indexed": true,
          "name": "operator",
          "type": "address"
        },
        {
          "indexed": false,
          "name": "role",
          "type": "string"
        }
      ],
      "name": "RoleAdded",
      "type": "event",
      "signature": "0xbfec83d64eaa953f2708271a023ab9ee82057f8f3578d548c1a4ba0b5b700489"
    },
    {
      "anonymous": false,
      "inputs": [
        {
          "indexed": true,
          "name": "operator",
          "type": "address"
        },
        {
          "indexed": false,
          "name": "role",
          "type": "string"
        }
      ],
      "name": "RoleRemoved",
      "type": "event",
      "signature": "0xd211483f91fc6eff862467f8de606587a30c8fc9981056f051b897a418df803a"
    },
    {
      "anonymous": false,
      "inputs": [
        {
          "indexed": true,
          "name": "previousOwner",
          "type": "address"
        }
      ],
      "name": "OwnershipRenounced",
      "type": "event",
      "signature": "0xf8df31144d9c2f0f6b59d69b8b98abd5459d07f2742c4df920b25aae33c64820"
    },
    {
      "anonymous": false,
      "inputs": [
        {
          "indexed": true,
          "name": "previousOwner",
          "type": "address"
        },
        {
          "indexed": true,
          "name": "newOwner",
          "type": "address"
        }
      ],
      "name": "OwnershipTransferred",
      "type": "event",
      "signature": "0x8be0079c531659141344cd1fd0a4f28419497f9722a3daafe3b4186f6b6457e0"
    },
    {
      "anonymous": false,
      "inputs": [
        {
          "indexed": true,
          "name": "_from",
          "type": "address"
        },
        {
          "indexed": true,
          "name": "_to",
          "type": "address"
        },
        {
          "indexed": true,
          "name": "_tokenId",
          "type": "uint256"
        }
      ],
      "name": "Transfer",
      "type": "event",
      "signature": "0xddf252ad1be2c89b69c2b068fc378daa952ba7f163c4a11628f55a4df523b3ef"
    },
    {
      "anonymous": false,
      "inputs": [
        {
          "indexed": true,
          "name": "_owner",
          "type": "address"
        },
        {
          "indexed": true,
          "name": "_approved",
          "type": "address"
        },
        {
          "indexed": true,
          "name": "_tokenId",
          "type": "uint256"
        }
      ],
      "name": "Approval",
      "type": "event",
      "signature": "0x8c5be1e5ebec7d5bd14f71427d1e84f3dd0314c0f7b2291e5b200ac8c7c3b925"
    },
    {
      "anonymous": false,
      "inputs": [
        {
          "indexed": true,
          "name": "_owner",
          "type": "address"
        },
        {
          "indexed": true,
          "name": "_operator",
          "type": "address"
        },
        {
          "indexed": false,
          "name": "_approved",
          "type": "bool"
        }
      ],
      "name": "ApprovalForAll",
      "type": "event",
      "signature": "0x17307eab39ab6107e8899845ad3d59bd9653f200f220920489ca2b5937696c31"
    },
    {
      "constant": false,
      "inputs": [
        {
          "name": "to",
          "type": "address"
        },
        {
          "name": "tokenURI",
          "type": "string"
        },
        {
          "name": "_benefactor",
          "type": "uint256"
        }
      ],
      "name": "gift",
      "outputs": [
        {
          "name": "",
          "type": "bool"
        }
      ],
      "payable": true,
      "stateMutability": "payable",
      "type": "function",
      "signature": "0x46ddea30"
    },
    {
      "constant": false,
      "inputs": [
        {
          "name": "tokenId",
          "type": "uint256"
        }
      ],
      "name": "burn",
      "outputs": [],
      "payable": false,
      "stateMutability": "nonpayable",
      "type": "function",
      "signature": "0x42966c68"
    },
    {
      "constant": false,
      "inputs": [
        {
          "name": "_newBaseURI",
          "type": "string"
        }
      ],
      "name": "setTokenBaseURI",
      "outputs": [],
      "payable": false,
      "stateMutability": "nonpayable",
      "type": "function",
      "signature": "0x8ef79e91"
    },
    {
      "constant": false,
      "inputs": [
        {
          "name": "_minContribution",
          "type": "uint256"
        }
      ],
      "name": "setMinContribution",
      "outputs": [],
      "payable": false,
      "stateMutability": "nonpayable",
      "type": "function",
      "signature": "0x473b0d46"
    },
    {
      "constant": true,
      "inputs": [
        {
          "name": "_tokenId",
          "type": "uint256"
        }
      ],
      "name": "tokenURI",
      "outputs": [
        {
          "name": "",
          "type": "string"
        }
      ],
      "payable": false,
      "stateMutability": "view",
      "type": "function",
      "signature": "0xc87b56dd"
    },
    {
      "constant": true,
      "inputs": [
        {
          "name": "_owner",
          "type": "address"
        }
      ],
      "name": "tokensOf",
      "outputs": [
        {
          "name": "_tokenIds",
          "type": "uint256[]"
        }
      ],
      "payable": false,
      "stateMutability": "view",
      "type": "function",
      "signature": "0x5a3f2672"
    },
    {
      "constant": true,
      "inputs": [],
      "name": "benefactorsKeys",
      "outputs": [
        {
          "name": "_keys",
          "type": "uint256[]"
        }
      ],
      "payable": false,
      "stateMutability": "view",
      "type": "function",
      "signature": "0x03cfe12d"
    },
    {
      "constant": false,
      "inputs": [
        {
          "name": "_index",
          "type": "uint256"
        },
        {
          "name": "_ethAddress",
          "type": "address"
        },
        {
          "name": "_name",
          "type": "string"
        },
        {
          "name": "_website",
          "type": "string"
        }
      ],
      "name": "addBenefactor",
      "outputs": [],
      "payable": false,
      "stateMutability": "nonpayable",
      "type": "function",
      "signature": "0xbdbf3a2c"
    }
  ],
  "bytecode": "0x60c0604052601c60808190527f68747470733a2f2f697066732e696e667572612e696f2f697066732f0000000060a09081526200004091600e919062000744565b506000600f5566b1a2bc2ec500006010553480156200005e57600080fd5b50604080518082018252600981527f52616469436172647300000000000000000000000000000000000000000000006020808301919091528251808401909352600483527f52414449000000000000000000000000000000000000000000000000000000009083015290620000fc7f01ffc9a70000000000000000000000000000000000000000000000000000000064010000000062000521810204565b620001307f80ac58cd0000000000000000000000000000000000000000000000000000000064010000000062000521810204565b620001647f4f558e790000000000000000000000000000000000000000000000000000000064010000000062000521810204565b81516200017990600590602085019062000744565b5080516200018f90600690602084019062000744565b50620001c47f780e9d630000000000000000000000000000000000000000000000000000000064010000000062000521810204565b620001f87f5b5e139f0000000000000000000000000000000000000000000000000000000064010000000062000521810204565b5050600c8054600160a060020a0319163390811790915562000223906401000000006200058e810204565b604080516060808201835273b189f76323678e094d4996d182a792e52369c005825282518084018452601e81527f456c656374726f6e69632046726f6e7469657220466f756e646174696f6e000060208083019190915280840191825284519283018552603983527f68747470733a2f2f7777772e6566662e6f72672f70616765732f657468657265838201527f756d2d616e642d6c697465636f696e2d646f6e6174696f6e7300000000000000838601529383019190915260016000526011835281517f17bc176d2408558f6e4111feebc3cab4e16b63e967be91cde721f4c8a488b5528054600160a060020a031916600160a060020a0390921691909117815590518051929391926200035c927f17bc176d2408558f6e4111feebc3cab4e16b63e967be91cde721f4c8a488b55392019062000744565b50604082015180516200037a91600284019160209091019062000744565b505060128054600180820190925560008051602062002fee833981519152015550604080516060808201835273998f25be40241ca5d8f5fcaf3591b5ed06ef3be7825282518084018452601f81527f46726565646f6d206f662074686520507265737320466f756e646174696f6e0060208083019190915280840191825284519283018552602c83527f68747470733a2f2f66726565646f6d2e70726573732f646f6e6174652f637279838201527f70746f63757272656e63792f0000000000000000000000000000000000000000838601529383019190915260026000526011835281517f08037d7b151cc412d25674a4e66b334d9ae9d2e5517a7feaae5cdb828bf1c6288054600160a060020a031916600160a060020a039092169190911781559051805192939192620004d4927f08037d7b151cc412d25674a4e66b334d9ae9d2e5517a7feaae5cdb828bf1c62992019062000744565b5060408201518051620004f291600284019160209091019062000744565b505060128054600181018255600091909152600260008051602062002fee8339815191529091015550620007e9565b7fffffffff0000000000000000000000000000000000000000000000000000000080821614156200055157600080fd5b7fffffffff00000000000000000000000000000000000000000000000000000000166000908152602081905260409020805460ff19166001179055565b600c54600160a060020a03163314620005a657600080fd5b620005f6816040805190810160405280600981526020017f77686974656c6973740000000000000000000000000000000000000000000000815250620005f9640100000000026401000000009004565b50565b6200067582600d836040518082805190602001908083835b60208310620006325780518252601f19909201916020918201910162000611565b51815160209384036101000a60001901801990921691161790529201948552506040519384900301909220929150506401000000006200071f8102620023561704565b81600160a060020a03167fbfec83d64eaa953f2708271a023ab9ee82057f8f3578d548c1a4ba0b5b700489826040518080602001828103825283818151815260200191508051906020019080838360005b83811015620006e0578181015183820152602001620006c6565b50505050905090810190601f1680156200070e5780820380516001836020036101000a031916815260200191505b509250505060405180910390a25050565b600160a060020a0316600090815260209190915260409020805460ff19166001179055565b828054600181600116156101000203166002900490600052602060002090601f016020900481019282601f106200078757805160ff1916838001178555620007b7565b82800160010185558215620007b7579182015b82811115620007b75782518255916020019190600101906200079a565b50620007c5929150620007c9565b5090565b620007e691905b80821115620007c55760008155600101620007d0565b90565b6127f580620007f96000396000f3006080604052600436106101ed5763ffffffff7c010000000000000000000000000000000000000000000000000000000060003504166301ffc9a781146101f257806303cfe12d1461022857806306fdde031461028d578063081812fc14610317578063095ea7b31461034b5780630988ca8c14610371578063128ee161146103d857806318160ddd146104e757806318b919e91461050e57806319fa8f5014610523578063217fe6c61461055557806323b872dd146105bc57806324953eaa146105e6578063286dd3f51461063b5780632f745c591461065c5780633b3a1a7a1461068057806342842e0e1461069557806342966c68146106bf57806346ddea30146106d7578063473b0d46146107335780634e99b8001461074b5780634f558e79146107605780634f6ccce7146107785780635a3f2672146107905780636352211e146107b157806370a08231146107c9578063715018a6146107ea5780637b9417c8146107ff5780638da5cb5b146108205780638ef79e911461083557806395d89b41146108555780639b19251a1461086a578063a22cb4651461088b578063aaffadf3146108b1578063b88d4fde146108c6578063bdbf3a2c14610935578063c87b56dd14610972578063e2ec6ec31461098a578063e985e9c5146109df578063f2fde38b14610a06575b600080fd5b3480156101fe57600080fd5b50610214600160e060020a031960043516610a27565b604080519115158252519081900360200190f35b34801561023457600080fd5b5061023d610a46565b60408051602080825283518183015283519192839290830191858101910280838360005b83811015610279578181015183820152602001610261565b505050509050019250505060405180910390f35b34801561029957600080fd5b506102a2610a9f565b6040805160208082528351818301528351919283929083019185019080838360005b838110156102dc5781810151838201526020016102c4565b50505050905090810190601f1680156103095780820380516001836020036101000a031916815260200191505b509250505060405180910390f35b34801561032357600080fd5b5061032f600435610b2c565b60408051600160a060020a039092168252519081900360200190f35b34801561035757600080fd5b5061036f600160a060020a0360043516602435610b47565b005b34801561037d57600080fd5b5060408051602060046024803582810135601f810185900485028601850190965285855261036f958335600160a060020a0316953695604494919390910191908190840183828082843750949750610bf09650505050505050565b3480156103e457600080fd5b506103f0600435610c5e565b6040518084600160a060020a0316600160a060020a031681526020018060200180602001838103835285818151815260200191508051906020019080838360005b83811015610449578181015183820152602001610431565b50505050905090810190601f1680156104765780820380516001836020036101000a031916815260200191505b50838103825284518152845160209182019186019080838360005b838110156104a9578181015183820152602001610491565b50505050905090810190601f1680156104d65780820380516001836020036101000a031916815260200191505b509550505050505060405180910390f35b3480156104f357600080fd5b506104fc610da4565b60408051918252519081900360200190f35b34801561051a57600080fd5b506102a2610daa565b34801561052f57600080fd5b50610538610dcf565b60408051600160e060020a03199092168252519081900360200190f35b34801561056157600080fd5b5060408051602060046024803582810135601f8101859004850286018501909652858552610214958335600160a060020a0316953695604494919390910191908190840183828082843750949750610df39650505050505050565b3480156105c857600080fd5b5061036f600160a060020a0360043581169060243516604435610e66565b3480156105f257600080fd5b506040805160206004803580820135838102808601850190965280855261036f95369593946024949385019291829185019084908082843750949750610f099650505050505050565b34801561064757600080fd5b5061036f600160a060020a0360043516610f58565b34801561066857600080fd5b506104fc600160a060020a0360043516602435610f9f565b34801561068c57600080fd5b506104fc610fec565b3480156106a157600080fd5b5061036f600160a060020a0360043581169060243516604435610ff2565b3480156106cb57600080fd5b5061036f600435611013565b60408051602060046024803582810135601f8101859004850286018501909652858552610214958335600160a060020a031695369560449491939091019190819084018382808284375094975050933594506110539350505050565b34801561073f57600080fd5b5061036f60043561119e565b34801561075757600080fd5b506102a26111d2565b34801561076c57600080fd5b50610214600435611260565b34801561078457600080fd5b506104fc60043561127d565b34801561079c57600080fd5b5061023d600160a060020a03600435166112b2565b3480156107bd57600080fd5b5061032f60043561131e565b3480156107d557600080fd5b506104fc600160a060020a0360043516611348565b3480156107f657600080fd5b5061036f61137b565b34801561080b57600080fd5b5061036f600160a060020a03600435166113dc565b34801561082c57600080fd5b5061032f611420565b34801561084157600080fd5b5061036f600480356024810191013561142f565b34801561086157600080fd5b506102a26114c6565b34801561087657600080fd5b50610214600160a060020a0360043516611527565b34801561089757600080fd5b5061036f600160a060020a03600435166024351515611556565b3480156108bd57600080fd5b506104fc6115da565b3480156108d257600080fd5b50604080516020601f60643560048181013592830184900484028501840190955281845261036f94600160a060020a0381358116956024803590921695604435953695608494019181908401838280828437509497506115e09650505050505050565b34801561094157600080fd5b5061036f600480359060248035600160a060020a031691604435808301929082013591606435918201910135611602565b34801561097e57600080fd5b506102a26004356117ee565b34801561099657600080fd5b506040805160206004803580820135838102808601850190965280855261036f953695939460249493850192918291850190849080828437509497506119329650505050505050565b3480156109eb57600080fd5b50610214600160a060020a0360043581169060243516611981565b348015610a1257600080fd5b5061036f600160a060020a03600435166119af565b600160e060020a03191660009081526020819052604090205460ff1690565b60606012805480602002602001604051908101604052809291908181526020018280548015610a9457602002820191906000526020600020905b815481526020019060010190808311610a80575b505050505090505b90565b60058054604080516020601f6002600019610100600188161502019095169490940493840181900481028201810190925282815260609390929091830182828015610a945780601f10610b0057610100808354040283529160200191610a94565b820191906000526020600020905b815481529060010190602001808311610b0e57509395945050505050565b600090815260026020526040902054600160a060020a031690565b6000610b528261131e565b9050600160a060020a038381169082161415610b6d57600080fd5b33600160a060020a0382161480610b895750610b898133611981565b1515610b9457600080fd5b6000828152600260205260408082208054600160a060020a031916600160a060020a0387811691821790925591518593918516917f8c5be1e5ebec7d5bd14f71427d1e84f3dd0314c0f7b2291e5b200ac8c7c3b92591a4505050565b610c5a82600d836040518082805190602001908083835b60208310610c265780518252601f199092019160209182019101610c07565b51815160209384036101000a60001901801990921691161790529201948552506040519384900301909220929150506119cf565b5050565b6011602090815260009182526040918290208054600180830180548651600261010094831615949094026000190190911692909204601f8101869004860283018601909652858252600160a060020a03909216949293909290830182828015610d085780601f10610cdd57610100808354040283529160200191610d08565b820191906000526020600020905b815481529060010190602001808311610ceb57829003601f168201915b50505060028085018054604080516020601f6000196101006001871615020190941695909504928301859004850281018501909152818152959695945090925090830182828015610d9a5780601f10610d6f57610100808354040283529160200191610d9a565b820191906000526020600020905b815481529060010190602001808311610d7d57829003601f168201915b5050505050905083565b60095490565b60408051808201909152600981526000805160206127aa833981519152602082015281565b7f01ffc9a70000000000000000000000000000000000000000000000000000000081565b6000610e5f83600d846040518082805190602001908083835b60208310610e2b5780518252601f199092019160209182019101610e0c565b51815160209384036101000a60001901801990921691161790529201948552506040519384900301909220929150506119e4565b9392505050565b610e703382611a03565b1515610e7b57600080fd5b600160a060020a0383161515610e9057600080fd5b600160a060020a0382161515610ea557600080fd5b610eaf8382611a62565b610eb98382611ac4565b610ec38282611bcb565b8082600160a060020a031684600160a060020a03167fddf252ad1be2c89b69c2b068fc378daa952ba7f163c4a11628f55a4df523b3ef60405160405180910390a4505050565b600c54600090600160a060020a03163314610f2357600080fd5b5060005b8151811015610c5a57610f508282815181101515610f4157fe5b90602001906020020151610f58565b600101610f27565b600c54600160a060020a03163314610f6f57600080fd5b610f9c816040805190810160405280600981526020016000805160206127aa833981519152815250611c14565b50565b6000610faa83611348565b8210610fb557600080fd5b600160a060020a0383166000908152600760205260409020805483908110610fd957fe5b9060005260206000200154905092915050565b600f5481565b61100e83838360206040519081016040528060008152506115e0565b505050565b33611041816040805190810160405280600981526020016000805160206127aa833981519152815250610bf0565b610c5a61104d8361131e565b83611d25565b6010546000903410156110d6576040805160e560020a62461bcd02815260206004820152602560248201527f4d7573742073656e64206174206c6561737420746865206d696e696d756d206160448201527f6d6f756e74000000000000000000000000000000000000000000000000000000606482015290519081900360840190fd5b600082815260116020526040902054600160a060020a03161515611144576040805160e560020a62461bcd02815260206004820181905260248201527f4d7573742073706563696679206578697374696e672062656e65666163746f72604482015290519081900360640190fd5b61114e8484611e1f565b600082815260116020526040808220549051600160a060020a03909116913480156108fc02929091818181858888f19350505050158015611193573d6000803e3d6000fd5b506001949350505050565b336111cc816040805190810160405280600981526020016000805160206127aa833981519152815250610bf0565b50601055565b600e805460408051602060026001851615610100026000190190941693909304601f810184900484028201840190925281815292918301828280156112585780601f1061122d57610100808354040283529160200191611258565b820191906000526020600020905b81548152906001019060200180831161123b57829003601f168201915b505050505081565b600090815260016020526040902054600160a060020a0316151590565b6000611287610da4565b821061129257600080fd5b60098054839081106112a057fe5b90600052602060002001549050919050565b600160a060020a03811660009081526007602090815260409182902080548351818402810184019094528084526060939283018282801561131257602002820191906000526020600020905b8154815260200190600101908083116112fe575b50505050509050919050565b600081815260016020526040812054600160a060020a031680151561134257600080fd5b92915050565b6000600160a060020a038216151561135f57600080fd5b50600160a060020a031660009081526003602052604090205490565b600c54600160a060020a0316331461139257600080fd5b600c54604051600160a060020a03909116907ff8df31144d9c2f0f6b59d69b8b98abd5459d07f2742c4df920b25aae33c6482090600090a2600c8054600160a060020a0319169055565b600c54600160a060020a031633146113f357600080fd5b610f9c816040805190810160405280600981526020016000805160206127aa833981519152815250611e52565b600c54600160a060020a031681565b3361145d816040805190810160405280600981526020016000805160206127aa833981519152815250610bf0565b8115156114b4576040805160e560020a62461bcd02815260206004820152601060248201527f426173652055524920696e76616c696400000000000000000000000000000000604482015290519081900360640190fd5b6114c0600e848461263f565b50505050565b60068054604080516020601f6002600019610100600188161502019095169490940493840181900481028201810190925282815260609390929091830182828015610a945780601f10610b0057610100808354040283529160200191610a94565b6000611342826040805190810160405280600981526020016000805160206127aa833981519152815250610df3565b600160a060020a03821633141561156c57600080fd5b336000818152600460209081526040808320600160a060020a03871680855290835292819020805460ff1916861515908117909155815190815290519293927f17307eab39ab6107e8899845ad3d59bd9653f200f220920489ca2b5937696c31929181900390910190a35050565b60105481565b6115eb848484610e66565b6115f784848484611f24565b15156114c057600080fd5b33611630816040805190810160405280600981526020016000805160206127aa833981519152815250610bf0565b600087815260116020526040902054600160a060020a0316156116c3576040805160e560020a62461bcd02815260206004820152602260248201527f4d757374206e6f7420626520616e206578697374696e672062656e656661637460448201527f6f72000000000000000000000000000000000000000000000000000000000000606482015290519081900360840190fd5b60606040519081016040528087600160a060020a0316815260200186868080601f016020809104026020016040519081016040528093929190818152602001838380828437820191505050505050815260200184848080601f01602080910402602001604051908101604052809392919081815260200183838082843750505092909352505050600088815260116020908152604090912082518154600160a060020a031916600160a060020a039091161781558282015180519192611791926001850192909101906126bd565b50604082015180516117ad9160028401916020909101906126bd565b5050601280546001810182556000919091527fbb8a6a4669ba250d26cd7a459eca9d215f8307e33aebe50379bc5a3617ec3444019790975550505050505050565b60606117f982611260565b151561180457600080fd5b600e8054604080516020601f6002600019610100600188161502019095169490940493840181900481028201810190925282815261134293909290918301828280156118915780601f1061186657610100808354040283529160200191611891565b820191906000526020600020905b81548152906001019060200180831161187457829003601f168201915b5050506000868152600b60209081526040918290208054835160026001831615610100026000190190921691909104601f8101849004840282018401909452838152945092508301828280156119285780601f106118fd57610100808354040283529160200191611928565b820191906000526020600020905b81548152906001019060200180831161190b57829003601f168201915b5050505050612091565b600c54600090600160a060020a0316331461194c57600080fd5b5060005b8151811015610c5a57611979828281518110151561196a57fe5b906020019060200201516113dc565b600101611950565b600160a060020a03918216600090815260046020908152604080832093909416825291909152205460ff1690565b600c54600160a060020a031633146119c657600080fd5b610f9c816120c6565b6119d982826119e4565b1515610c5a57600080fd5b600160a060020a03166000908152602091909152604090205460ff1690565b600080611a0f8361131e565b905080600160a060020a031684600160a060020a03161480611a4a575083600160a060020a0316611a3f84610b2c565b600160a060020a0316145b80611a5a5750611a5a8185611981565b949350505050565b81600160a060020a0316611a758261131e565b600160a060020a031614611a8857600080fd5b600081815260026020526040902054600160a060020a031615610c5a5760009081526002602052604090208054600160a060020a031916905550565b6000806000611ad38585612137565b600084815260086020908152604080832054600160a060020a0389168452600790925290912054909350611b0e90600163ffffffff6121c016565b600160a060020a038616600090815260076020526040902080549193509083908110611b3657fe5b90600052602060002001549050806007600087600160a060020a0316600160a060020a0316815260200190815260200160002084815481101515611b7657fe5b6000918252602080832090910192909255600160a060020a0387168152600790915260409020805490611bad90600019830161272b565b50600093845260086020526040808520859055908452909220555050565b6000611bd783836121d2565b50600160a060020a039091166000908152600760209081526040808320805460018101825590845282842081018590559383526008909152902055565b611c7e82600d836040518082805190602001908083835b60208310611c4a5780518252601f199092019160209182019101611c2b565b51815160209384036101000a6000190180199092169116179052920194855250604051938490030190922092915050612255565b81600160a060020a03167fd211483f91fc6eff862467f8de606587a30c8fc9981056f051b897a418df803a826040518080602001828103825283818151815260200191508051906020019080838360005b83811015611ce7578181015183820152602001611ccf565b50505050905090810190601f168015611d145780820380516001836020036101000a031916815260200191505b509250505060405180910390a25050565b6000806000611d348585612277565b6000848152600b60205260409020546002600019610100600184161502019091160415611d72576000848152600b60205260408120611d729161274f565b6000848152600a6020526040902054600954909350611d9890600163ffffffff6121c016565b9150600982815481101515611da957fe5b9060005260206000200154905080600984815481101515611dc657fe5b60009182526020822001919091556009805484908110611de257fe5b6000918252602090912001556009805490611e0190600019830161272b565b506000938452600a6020526040808520859055908452909220555050565b600f54611e2c83826122c7565b611e368183612316565b600f54611e4a90600163ffffffff61234916565b600f55505050565b611ebc82600d836040518082805190602001908083835b60208310611e885780518252601f199092019160209182019101611e69565b51815160209384036101000a6000190180199092169116179052920194855250604051938490030190922092915050612356565b81600160a060020a03167fbfec83d64eaa953f2708271a023ab9ee82057f8f3578d548c1a4ba0b5b7004898260405180806020018281038252838181518152602001915080519060200190808383600083811015611ce7578181015183820152602001611ccf565b600080611f3985600160a060020a031661237b565b1515611f485760019150612088565b6040517f150b7a020000000000000000000000000000000000000000000000000000000081523360048201818152600160a060020a03898116602485015260448401889052608060648501908152875160848601528751918a169463150b7a0294938c938b938b93909160a490910190602085019080838360005b83811015611fdb578181015183820152602001611fc3565b50505050905090810190601f1680156120085780820380516001836020036101000a031916815260200191505b5095505050505050602060405180830381600087803b15801561202a57600080fd5b505af115801561203e573d6000803e3d6000fd5b505050506040513d602081101561205457600080fd5b5051600160e060020a031981167f150b7a020000000000000000000000000000000000000000000000000000000014925090505b50949350505050565b604080516020818101835260008083528351808301855281815284519283019094528152606092610e5f928692869290612383565b600160a060020a03811615156120db57600080fd5b600c54604051600160a060020a038084169216907f8be0079c531659141344cd1fd0a4f28419497f9722a3daafe3b4186f6b6457e090600090a3600c8054600160a060020a031916600160a060020a0392909216919091179055565b81600160a060020a031661214a8261131e565b600160a060020a03161461215d57600080fd5b600160a060020a03821660009081526003602052604090205461218790600163ffffffff6121c016565b600160a060020a039092166000908152600360209081526040808320949094559181526001909152208054600160a060020a0319169055565b6000828211156121cc57fe5b50900390565b600081815260016020526040902054600160a060020a0316156121f457600080fd5b60008181526001602081815260408084208054600160a060020a031916600160a060020a038816908117909155845260039091529091205461223591612349565b600160a060020a0390921660009081526003602052604090209190915550565b600160a060020a0316600090815260209190915260409020805460ff19169055565b6122818282611a62565b61228b8282611ac4565b6040518190600090600160a060020a038516907fddf252ad1be2c89b69c2b068fc378daa952ba7f163c4a11628f55a4df523b3ef908390a45050565b6122d182826125e4565b600980546000838152600a60205260408120829055600182018355919091527f6e1540171b6c0c960b71a7020d9f60077f6af931a8bbf590da0223dacf75c7af015550565b61231f82611260565b151561232a57600080fd5b6000828152600b60209081526040909120825161100e928401906126bd565b8181018281101561134257fe5b600160a060020a0316600090815260209190915260409020805460ff19166001179055565b6000903b1190565b6060806060806060806060806000808e98508d97508c96508b95508a94508451865188518a518c51010101016040519080825280601f01601f1916602001820160405280156123dc578160200160208202803883390190505b50935083925060009150600090505b885181101561244957888181518110151561240257fe5b90602001015160f860020a900460f860020a02838380600101945081518110151561242957fe5b906020010190600160f860020a031916908160001a9053506001016123eb565b5060005b87518110156124ab57878181518110151561246457fe5b90602001015160f860020a900460f860020a02838380600101945081518110151561248b57fe5b906020010190600160f860020a031916908160001a90535060010161244d565b5060005b865181101561250d5786818151811015156124c657fe5b90602001015160f860020a900460f860020a0283838060010194508151811015156124ed57fe5b906020010190600160f860020a031916908160001a9053506001016124af565b5060005b855181101561256f57858181518110151561252857fe5b90602001015160f860020a900460f860020a02838380600101945081518110151561254f57fe5b906020010190600160f860020a031916908160001a905350600101612511565b5060005b84518110156125d157848181518110151561258a57fe5b90602001015160f860020a900460f860020a0283838060010194508151811015156125b157fe5b906020010190600160f860020a031916908160001a905350600101612573565b50909d9c50505050505050505050505050565b600160a060020a03821615156125f957600080fd5b6126038282611bcb565b6040518190600160a060020a038416906000907fddf252ad1be2c89b69c2b068fc378daa952ba7f163c4a11628f55a4df523b3ef908290a45050565b828054600181600116156101000203166002900490600052602060002090601f016020900481019282601f106126805782800160ff198235161785556126ad565b828001600101855582156126ad579182015b828111156126ad578235825591602001919060010190612692565b506126b992915061278f565b5090565b828054600181600116156101000203166002900490600052602060002090601f016020900481019282601f106126fe57805160ff19168380011785556126ad565b828001600101855582156126ad579182015b828111156126ad578251825591602001919060010190612710565b81548183558181111561100e5760008381526020902061100e91810190830161278f565b50805460018160011615610100020316600290046000825580601f106127755750610f9c565b601f016020900490600052602060002090810190610f9c91905b610a9c91905b808211156126b95760008155600101612795560077686974656c6973740000000000000000000000000000000000000000000000a165627a7a723058202334e2ebb98986acca90879cb5c9abcf54d1ea5f779e36a596d976db0c300ee30029bb8a6a4669ba250d26cd7a459eca9d215f8307e33aebe50379bc5a3617ec3444",
  "source": "pragma solidity ^0.4.24;\n\nimport \"openzeppelin-solidity/contracts/math/SafeMath.sol\";\nimport \"openzeppelin-solidity/contracts/access/Whitelist.sol\";\nimport \"openzeppelin-solidity/contracts/token/ERC721/ERC721Token.sol\";\n\nimport \"./Strings.sol\";\n\n/**\n* @title Radi.Cards\n*\n* Non-profit e-card NFT for good!\n*\n*/\ncontract RadiCards is ERC721Token, Whitelist {\n  using SafeMath for uint256;\n\n  string public tokenBaseURI = \"https://ipfs.infura.io/ipfs/\";\n\n  // A pointer to the next token to be minted, zero indexed\n  uint256 public tokenIdPointer = 0;\n\n  uint256 public minContribution = 0.05 ether;\n\n  struct Benefactor {\n    address ethAddress;\n    string name;\n    string website;\n  }\n\n  mapping(uint256 => Benefactor) public benefactors;\n  uint256[] internal benefactorsIndex;\n\n  constructor () public ERC721Token(\"RadiCards\", \"RADI\") {\n    addAddressToWhitelist(msg.sender);\n\n    benefactors[1] = Benefactor(\n      address(0xb189f76323678E094D4996d182A792E52369c005),\n      \"Electronic Frontier Foundation\",\n      \"https://www.eff.org/pages/ethereum-and-litecoin-donations\"\n    );\n    benefactorsIndex.push(1);\n\n    benefactors[2] = Benefactor(\n      address(0x998F25Be40241CA5D8F5fCaF3591B5ED06EF3Be7),\n      \"Freedom of the Press Foundation\",\n      \"https://freedom.press/donate/cryptocurrency/\"\n    );\n    benefactorsIndex.push(2);\n  }\n\n  function gift(address to, string tokenURI, uint256 _benefactor) payable public returns (bool) {\n    require(msg.value >= minContribution, \"Must send at least the minimum amount\");\n    require(benefactors[_benefactor].ethAddress != address(0), \"Must specify existing benefactor\");\n\n    _mint(to, tokenURI);\n\n    benefactors[_benefactor].ethAddress.transfer(msg.value);\n\n    return true;\n  }\n\n  function _mint(address to, string tokenURI) internal {\n    uint256 tokenId = tokenIdPointer;\n\n    _mint(to, tokenId);\n    _setTokenURI(tokenId, tokenURI);\n\n    tokenIdPointer = tokenIdPointer.add(1);\n  }\n\n  function burn(uint256 tokenId) public onlyIfWhitelisted(msg.sender) {\n    // Super burn\n    _burn(ownerOf(tokenId), tokenId);\n  }\n\n  function setTokenBaseURI(string _newBaseURI) external onlyIfWhitelisted(msg.sender) {\n    require(bytes(_newBaseURI).length != 0, \"Base URI invalid\");\n    tokenBaseURI = _newBaseURI;\n  }\n\n  function setMinContribution(uint256 _minContribution) external onlyIfWhitelisted(msg.sender) {\n    minContribution = _minContribution;\n  }\n\n  function tokenURI(uint256 _tokenId) public view returns (string) {\n    require(exists(_tokenId));\n    return Strings.strConcat(tokenBaseURI, tokenURIs[_tokenId]);\n  }\n\n  function tokensOf(address _owner) public view returns (uint256[] _tokenIds) {\n    return ownedTokens[_owner];\n  }\n\n  function benefactorsKeys() public view returns (uint256[] _keys) {\n    return benefactorsIndex;\n  }\n\n  function addBenefactor(uint256 _index, address _ethAddress, string _name, string _website) external onlyIfWhitelisted(msg.sender) {\n    require(benefactors[_index].ethAddress == address(0), \"Must not be an existing benefactor\");\n\n    benefactors[_index] = Benefactor(\n      _ethAddress,\n      _name,\n      _website\n    );\n    benefactorsIndex.push(_index);\n  }\n}\n",
  "sourcePath": "/Users/andy/workspace/radi-cards/contracts/RadiCards.sol",
  "compiler": {
    "name": "solc",
    "version": "0.4.24+commit.e67f0147.Emscripten.clang"
  },
  "schemaVersion": "3.0.0-beta.1",
  "updatedAt": "2018-12-04T16:58:53.022Z"
}