{
  "contractName": "RadiCards",
  "abi": [
    {
      "constant": true,
      "inputs": [
        {
          "name": "_interfaceId",
          "type": "bytes4"
        }
      ],
      "name": "supportsInterface",
      "outputs": [
        {
          "name": "",
          "type": "bool"
        }
      ],
      "payable": false,
      "stateMutability": "view",
      "type": "function"
    },
    {
      "constant": true,
      "inputs": [],
      "name": "name",
      "outputs": [
        {
          "name": "",
          "type": "string"
        }
      ],
      "payable": false,
      "stateMutability": "view",
      "type": "function"
    },
    {
      "constant": true,
      "inputs": [
        {
          "name": "",
          "type": "uint256"
        }
      ],
      "name": "tokenIdToRadiCardIndex",
      "outputs": [
        {
          "name": "gifter",
          "type": "address"
        },
        {
          "name": "message",
          "type": "string"
        },
        {
          "name": "daiDonation",
          "type": "bool"
        },
        {
          "name": "giftingAmount",
          "type": "uint256"
        },
        {
          "name": "donatingAmount",
          "type": "uint256"
        },
        {
          "name": "cardIndex",
          "type": "uint256"
        },
        {
          "name": "benefactorIndex",
          "type": "uint256"
        }
      ],
      "payable": false,
      "stateMutability": "view",
      "type": "function"
    },
    {
      "constant": true,
      "inputs": [
        {
          "name": "_tokenId",
          "type": "uint256"
        }
      ],
      "name": "getApproved",
      "outputs": [
        {
          "name": "",
          "type": "address"
        }
      ],
      "payable": false,
      "stateMutability": "view",
      "type": "function"
    },
    {
      "constant": false,
      "inputs": [
        {
          "name": "_to",
          "type": "address"
        },
        {
          "name": "_tokenId",
          "type": "uint256"
        }
      ],
      "name": "approve",
      "outputs": [],
      "payable": false,
      "stateMutability": "nonpayable",
      "type": "function"
    },
    {
      "constant": true,
      "inputs": [
        {
          "name": "_operator",
          "type": "address"
        },
        {
          "name": "_role",
          "type": "string"
        }
      ],
      "name": "checkRole",
      "outputs": [],
      "payable": false,
      "stateMutability": "view",
      "type": "function"
    },
    {
      "constant": true,
      "inputs": [
        {
          "name": "",
          "type": "uint256"
        }
      ],
      "name": "benefactors",
      "outputs": [
        {
          "name": "ethAddress",
          "type": "address"
        },
        {
          "name": "name",
          "type": "string"
        },
        {
          "name": "website",
          "type": "string"
        },
        {
          "name": "logo",
          "type": "string"
        }
      ],
      "payable": false,
      "stateMutability": "view",
      "type": "function"
    },
    {
      "constant": true,
      "inputs": [],
      "name": "totalSupply",
      "outputs": [
        {
          "name": "",
          "type": "uint256"
        }
      ],
      "payable": false,
      "stateMutability": "view",
      "type": "function"
    },
    {
      "constant": true,
      "inputs": [],
      "name": "ROLE_WHITELISTED",
      "outputs": [
        {
          "name": "",
          "type": "string"
        }
      ],
      "payable": false,
      "stateMutability": "view",
      "type": "function"
    },
    {
      "constant": true,
      "inputs": [],
      "name": "InterfaceId_ERC165",
      "outputs": [
        {
          "name": "",
          "type": "bytes4"
        }
      ],
      "payable": false,
      "stateMutability": "view",
      "type": "function"
    },
    {
      "constant": true,
      "inputs": [
        {
          "name": "_operator",
          "type": "address"
        },
        {
          "name": "_role",
          "type": "string"
        }
      ],
      "name": "hasRole",
      "outputs": [
        {
          "name": "",
          "type": "bool"
        }
      ],
      "payable": false,
      "stateMutability": "view",
      "type": "function"
    },
    {
      "constant": false,
      "inputs": [
        {
          "name": "_from",
          "type": "address"
        },
        {
          "name": "_to",
          "type": "address"
        },
        {
          "name": "_tokenId",
          "type": "uint256"
        }
      ],
      "name": "transferFrom",
      "outputs": [],
      "payable": false,
      "stateMutability": "nonpayable",
      "type": "function"
    },
    {
      "constant": false,
      "inputs": [
        {
          "name": "_operators",
          "type": "address[]"
        }
      ],
      "name": "removeAddressesFromWhitelist",
      "outputs": [],
      "payable": false,
      "stateMutability": "nonpayable",
      "type": "function"
    },
    {
      "constant": false,
      "inputs": [
        {
          "name": "_operator",
          "type": "address"
        }
      ],
      "name": "removeAddressFromWhitelist",
      "outputs": [],
      "payable": false,
      "stateMutability": "nonpayable",
      "type": "function"
    },
    {
      "constant": true,
      "inputs": [
        {
          "name": "_owner",
          "type": "address"
        },
        {
          "name": "_index",
          "type": "uint256"
        }
      ],
      "name": "tokenOfOwnerByIndex",
      "outputs": [
        {
          "name": "",
          "type": "uint256"
        }
      ],
      "payable": false,
      "stateMutability": "view",
      "type": "function"
    },
    {
      "constant": true,
      "inputs": [],
      "name": "tokenIdPointer",
      "outputs": [
        {
          "name": "",
          "type": "uint256"
        }
      ],
      "payable": false,
      "stateMutability": "view",
      "type": "function"
    },
    {
      "constant": true,
      "inputs": [],
      "name": "totalGiftedInAtto",
      "outputs": [
        {
          "name": "",
          "type": "uint256"
        }
      ],
      "payable": false,
      "stateMutability": "view",
      "type": "function"
    },
    {
      "constant": false,
      "inputs": [
        {
          "name": "_from",
          "type": "address"
        },
        {
          "name": "_to",
          "type": "address"
        },
        {
          "name": "_tokenId",
          "type": "uint256"
        }
      ],
      "name": "safeTransferFrom",
      "outputs": [],
      "payable": false,
      "stateMutability": "nonpayable",
      "type": "function"
    },
    {
      "constant": true,
      "inputs": [],
      "name": "tokenBaseURI",
      "outputs": [
        {
          "name": "",
          "type": "string"
        }
      ],
      "payable": false,
      "stateMutability": "view",
      "type": "function"
    },
    {
      "constant": true,
      "inputs": [
        {
          "name": "_tokenId",
          "type": "uint256"
        }
      ],
      "name": "exists",
      "outputs": [
        {
          "name": "",
          "type": "bool"
        }
      ],
      "payable": false,
      "stateMutability": "view",
      "type": "function"
    },
    {
      "constant": true,
      "inputs": [
        {
          "name": "_index",
          "type": "uint256"
        }
      ],
      "name": "tokenByIndex",
      "outputs": [
        {
          "name": "",
          "type": "uint256"
        }
      ],
      "payable": false,
      "stateMutability": "view",
      "type": "function"
    },
    {
      "constant": true,
      "inputs": [
        {
          "name": "_tokenId",
          "type": "uint256"
        }
      ],
      "name": "ownerOf",
      "outputs": [
        {
          "name": "",
          "type": "address"
        }
      ],
      "payable": false,
      "stateMutability": "view",
      "type": "function"
    },
    {
      "constant": true,
      "inputs": [
        {
          "name": "_owner",
          "type": "address"
        }
      ],
      "name": "balanceOf",
      "outputs": [
        {
          "name": "",
          "type": "uint256"
        }
      ],
      "payable": false,
      "stateMutability": "view",
      "type": "function"
    },
    {
      "constant": false,
      "inputs": [],
      "name": "renounceOwnership",
      "outputs": [],
      "payable": false,
      "stateMutability": "nonpayable",
      "type": "function"
    },
    {
      "constant": false,
      "inputs": [
        {
          "name": "_operator",
          "type": "address"
        }
      ],
      "name": "addAddressToWhitelist",
      "outputs": [],
      "payable": false,
      "stateMutability": "nonpayable",
      "type": "function"
    },
    {
      "constant": true,
      "inputs": [],
      "name": "owner",
      "outputs": [
        {
          "name": "",
          "type": "address"
        }
      ],
      "payable": false,
      "stateMutability": "view",
      "type": "function"
    },
    {
      "constant": true,
      "inputs": [
        {
          "name": "",
          "type": "uint256"
        }
      ],
      "name": "cards",
      "outputs": [
        {
          "name": "tokenURI",
          "type": "string"
        },
        {
          "name": "active",
          "type": "bool"
        },
        {
          "name": "minted",
          "type": "uint256"
        },
        {
          "name": "maxQnty",
          "type": "uint256"
        },
        {
          "name": "minPrice",
          "type": "uint256"
        }
      ],
      "payable": false,
      "stateMutability": "view",
      "type": "function"
    },
    {
      "constant": true,
      "inputs": [],
      "name": "symbol",
      "outputs": [
        {
          "name": "",
          "type": "string"
        }
      ],
      "payable": false,
      "stateMutability": "view",
      "type": "function"
    },
    {
      "constant": true,
      "inputs": [],
      "name": "totalDonatedInWei",
      "outputs": [
        {
          "name": "",
          "type": "uint256"
        }
      ],
      "payable": false,
      "stateMutability": "view",
      "type": "function"
    },
    {
      "constant": true,
      "inputs": [
        {
          "name": "_operator",
          "type": "address"
        }
      ],
      "name": "whitelist",
      "outputs": [
        {
          "name": "",
          "type": "bool"
        }
      ],
      "payable": false,
      "stateMutability": "view",
      "type": "function"
    },
    {
      "constant": false,
      "inputs": [
        {
          "name": "_to",
          "type": "address"
        },
        {
          "name": "_approved",
          "type": "bool"
        }
      ],
      "name": "setApprovalForAll",
      "outputs": [],
      "payable": false,
      "stateMutability": "nonpayable",
      "type": "function"
    },
    {
      "constant": false,
      "inputs": [
        {
          "name": "_from",
          "type": "address"
        },
        {
          "name": "_to",
          "type": "address"
        },
        {
          "name": "_tokenId",
          "type": "uint256"
        },
        {
          "name": "_data",
          "type": "bytes"
        }
      ],
      "name": "safeTransferFrom",
      "outputs": [],
      "payable": false,
      "stateMutability": "nonpayable",
      "type": "function"
    },
    {
      "constant": false,
      "inputs": [
        {
          "name": "_operators",
          "type": "address[]"
        }
      ],
      "name": "addAddressesToWhitelist",
      "outputs": [],
      "payable": false,
      "stateMutability": "nonpayable",
      "type": "function"
    },
    {
      "constant": true,
      "inputs": [],
      "name": "totalDonatedInAtto",
      "outputs": [
        {
          "name": "",
          "type": "uint256"
        }
      ],
      "payable": false,
      "stateMutability": "view",
      "type": "function"
    },
    {
      "constant": true,
      "inputs": [
        {
          "name": "_owner",
          "type": "address"
        },
        {
          "name": "_operator",
          "type": "address"
        }
      ],
      "name": "isApprovedForAll",
      "outputs": [
        {
          "name": "",
          "type": "bool"
        }
      ],
      "payable": false,
      "stateMutability": "view",
      "type": "function"
    },
    {
      "constant": false,
      "inputs": [
        {
          "name": "_newOwner",
          "type": "address"
        }
      ],
      "name": "transferOwnership",
      "outputs": [],
      "payable": false,
      "stateMutability": "nonpayable",
      "type": "function"
    },
    {
      "constant": true,
      "inputs": [],
      "name": "totalGiftedInWei",
      "outputs": [
        {
          "name": "",
          "type": "uint256"
        }
      ],
      "payable": false,
      "stateMutability": "view",
      "type": "function"
    },
    {
      "inputs": [],
      "payable": false,
      "stateMutability": "nonpayable",
      "type": "constructor"
    },
    {
      "anonymous": false,
      "inputs": [
        {
          "indexed": true,
          "name": "_to",
          "type": "address"
        },
        {
          "indexed": true,
          "name": "_benefactorIndex",
          "type": "uint256"
        },
        {
          "indexed": true,
          "name": "_cardIndex",
          "type": "uint256"
        },
        {
          "indexed": false,
          "name": "_from",
          "type": "address"
        },
        {
          "indexed": false,
          "name": "_tokenId",
          "type": "uint256"
        }
      ],
      "name": "CardGifted",
      "type": "event"
    },
    {
      "anonymous": false,
      "inputs": [
        {
          "indexed": true,
          "name": "_benefactorIndex",
          "type": "uint256"
        }
      ],
      "name": "BenefactorAdded",
      "type": "event"
    },
    {
      "anonymous": false,
      "inputs": [
        {
          "indexed": true,
          "name": "_cardIndex",
          "type": "uint256"
        }
      ],
      "name": "CardAdded",
      "type": "event"
    },
    {
      "anonymous": false,
      "inputs": [
        {
          "indexed": true,
          "name": "operator",
          "type": "address"
        },
        {
          "indexed": false,
          "name": "role",
          "type": "string"
        }
      ],
      "name": "RoleAdded",
      "type": "event"
    },
    {
      "anonymous": false,
      "inputs": [
        {
          "indexed": true,
          "name": "operator",
          "type": "address"
        },
        {
          "indexed": false,
          "name": "role",
          "type": "string"
        }
      ],
      "name": "RoleRemoved",
      "type": "event"
    },
    {
      "anonymous": false,
      "inputs": [
        {
          "indexed": true,
          "name": "previousOwner",
          "type": "address"
        }
      ],
      "name": "OwnershipRenounced",
      "type": "event"
    },
    {
      "anonymous": false,
      "inputs": [
        {
          "indexed": true,
          "name": "previousOwner",
          "type": "address"
        },
        {
          "indexed": true,
          "name": "newOwner",
          "type": "address"
        }
      ],
      "name": "OwnershipTransferred",
      "type": "event"
    },
    {
      "anonymous": false,
      "inputs": [
        {
          "indexed": true,
          "name": "_from",
          "type": "address"
        },
        {
          "indexed": true,
          "name": "_to",
          "type": "address"
        },
        {
          "indexed": true,
          "name": "_tokenId",
          "type": "uint256"
        }
      ],
      "name": "Transfer",
      "type": "event"
    },
    {
      "anonymous": false,
      "inputs": [
        {
          "indexed": true,
          "name": "_owner",
          "type": "address"
        },
        {
          "indexed": true,
          "name": "_approved",
          "type": "address"
        },
        {
          "indexed": true,
          "name": "_tokenId",
          "type": "uint256"
        }
      ],
      "name": "Approval",
      "type": "event"
    },
    {
      "anonymous": false,
      "inputs": [
        {
          "indexed": true,
          "name": "_owner",
          "type": "address"
        },
        {
          "indexed": true,
          "name": "_operator",
          "type": "address"
        },
        {
          "indexed": false,
          "name": "_approved",
          "type": "bool"
        }
      ],
      "name": "ApprovalForAll",
      "type": "event"
    },
    {
      "constant": false,
      "inputs": [
        {
          "name": "to",
          "type": "address"
        },
        {
          "name": "_benefactorIndex",
          "type": "uint256"
        },
        {
          "name": "_cardIndex",
          "type": "uint256"
        },
        {
          "name": "_message",
          "type": "string"
        },
        {
          "name": "_donationAmount",
          "type": "uint256"
        }
      ],
      "name": "gift",
      "outputs": [
        {
          "name": "",
          "type": "bool"
        }
      ],
      "payable": true,
      "stateMutability": "payable",
      "type": "function"
    },
    {
      "constant": false,
      "inputs": [
        {
          "name": "to",
          "type": "address"
        },
        {
          "name": "_benefactorIndex",
          "type": "uint256"
        },
        {
          "name": "_cardIndex",
          "type": "uint256"
        },
        {
          "name": "_message",
          "type": "string"
        },
        {
          "name": "_donationAmount",
          "type": "uint256"
        },
        {
          "name": "_giftAmount",
          "type": "uint256"
        }
      ],
      "name": "giftInDai",
      "outputs": [
        {
          "name": "",
          "type": "bool"
        }
      ],
      "payable": false,
      "stateMutability": "nonpayable",
      "type": "function"
    },
    {
      "constant": true,
      "inputs": [
        {
          "name": "_tokenId",
          "type": "uint256"
        }
      ],
      "name": "burn",
      "outputs": [],
      "payable": false,
      "stateMutability": "pure",
      "type": "function"
    },
    {
      "constant": true,
      "inputs": [
        {
          "name": "_tokenId",
          "type": "uint256"
        }
      ],
      "name": "tokenURI",
      "outputs": [
        {
          "name": "",
          "type": "string"
        }
      ],
      "payable": false,
      "stateMutability": "view",
      "type": "function"
    },
    {
      "constant": true,
      "inputs": [
        {
          "name": "_tokenId",
          "type": "uint256"
        }
      ],
      "name": "tokenDetails",
      "outputs": [
        {
          "name": "_gifter",
          "type": "address"
        },
        {
          "name": "_daiDonation",
          "type": "bool"
        },
        {
          "name": "_giftingAmount",
          "type": "uint256"
        },
        {
          "name": "_donatingAmount",
          "type": "uint256"
        },
        {
          "name": "_message",
          "type": "string"
        },
        {
          "name": "_cardIndex",
          "type": "uint256"
        },
        {
          "name": "_benefactorIndex",
          "type": "uint256"
        }
      ],
      "payable": false,
      "stateMutability": "view",
      "type": "function"
    },
    {
      "constant": true,
      "inputs": [
        {
          "name": "_tokenId",
          "type": "uint256"
        }
      ],
      "name": "tokenBenefactor",
      "outputs": [
        {
          "name": "_ethAddress",
          "type": "address"
        },
        {
          "name": "_name",
          "type": "string"
        },
        {
          "name": "_website",
          "type": "string"
        },
        {
          "name": "_logo",
          "type": "string"
        }
      ],
      "payable": false,
      "stateMutability": "view",
      "type": "function"
    },
    {
      "constant": true,
      "inputs": [
        {
          "name": "_owner",
          "type": "address"
        }
      ],
      "name": "tokensOf",
      "outputs": [
        {
          "name": "_tokenIds",
          "type": "uint256[]"
        }
      ],
      "payable": false,
      "stateMutability": "view",
      "type": "function"
    },
    {
      "constant": true,
      "inputs": [],
      "name": "benefactorsKeys",
      "outputs": [
        {
          "name": "_keys",
          "type": "uint256[]"
        }
      ],
      "payable": false,
      "stateMutability": "view",
      "type": "function"
    },
    {
      "constant": true,
      "inputs": [],
      "name": "cardsKeys",
      "outputs": [
        {
          "name": "_keys",
          "type": "uint256[]"
        }
      ],
      "payable": false,
      "stateMutability": "view",
      "type": "function"
    },
    {
      "constant": false,
      "inputs": [
        {
          "name": "_benefactorIndex",
          "type": "uint256"
        },
        {
          "name": "_ethAddress",
          "type": "address"
        },
        {
          "name": "_name",
          "type": "string"
        },
        {
          "name": "_website",
          "type": "string"
        },
        {
          "name": "_logo",
          "type": "string"
        }
      ],
      "name": "addBenefactor",
      "outputs": [
        {
          "name": "",
          "type": "bool"
        }
      ],
      "payable": false,
      "stateMutability": "nonpayable",
      "type": "function"
    },
    {
      "constant": false,
      "inputs": [
        {
          "name": "_cardIndex",
          "type": "uint256"
        },
        {
          "name": "_tokenURI",
          "type": "string"
        },
        {
          "name": "_active",
          "type": "bool"
        },
        {
          "name": "_maxQnty",
          "type": "uint256"
        },
        {
          "name": "_minPrice",
          "type": "uint256"
        }
      ],
      "name": "addCard",
      "outputs": [
        {
          "name": "",
          "type": "bool"
        }
      ],
      "payable": false,
      "stateMutability": "nonpayable",
      "type": "function"
    },
    {
      "constant": false,
      "inputs": [
        {
          "name": "_newBaseURI",
          "type": "string"
        }
      ],
      "name": "setTokenBaseURI",
      "outputs": [],
      "payable": false,
      "stateMutability": "nonpayable",
      "type": "function"
    },
    {
      "constant": false,
      "inputs": [
        {
          "name": "_cardIndex",
          "type": "uint256"
        },
        {
          "name": "_active",
          "type": "bool"
        }
      ],
      "name": "setActive",
      "outputs": [],
      "payable": false,
      "stateMutability": "nonpayable",
      "type": "function"
    },
    {
      "constant": false,
      "inputs": [
        {
          "name": "_cardIndex",
          "type": "uint256"
        },
        {
          "name": "_maxQnty",
          "type": "uint256"
        }
      ],
      "name": "setMaxQuantity",
      "outputs": [],
      "payable": false,
      "stateMutability": "nonpayable",
      "type": "function"
    },
    {
      "constant": false,
      "inputs": [
        {
          "name": "_cardIndex",
          "type": "uint256"
        },
        {
          "name": "_minPrice",
          "type": "uint256"
        }
      ],
      "name": "setMinPrice",
      "outputs": [],
      "payable": false,
      "stateMutability": "nonpayable",
      "type": "function"
    },
    {
      "constant": false,
      "inputs": [
        {
          "name": "_daiERC20ContractAddress",
          "type": "address"
        }
      ],
      "name": "setDaiContractAddress",
      "outputs": [],
      "payable": false,
      "stateMutability": "nonpayable",
      "type": "function"
    },
    {
      "constant": false,
      "inputs": [
        {
          "name": "_MedianizerContractAddress",
          "type": "address"
        }
      ],
      "name": "setMedianizerContractAddress",
      "outputs": [],
      "payable": false,
      "stateMutability": "nonpayable",
      "type": "function"
    },
    {
      "constant": true,
      "inputs": [],
      "name": "getEtherPrice",
      "outputs": [
        {
          "name": "",
          "type": "uint256"
        }
      ],
      "payable": false,
      "stateMutability": "view",
      "type": "function"
    },
    {
      "constant": true,
      "inputs": [
        {
          "name": "_ether",
          "type": "uint256"
        }
      ],
      "name": "getEthUsdValue",
      "outputs": [
        {
          "name": "",
          "type": "uint256"
        }
      ],
      "payable": false,
      "stateMutability": "view",
      "type": "function"
    },
    {
      "constant": true,
      "inputs": [
        {
          "name": "_cardIndex",
          "type": "uint256"
        }
      ],
      "name": "getMinCardPriceInWei",
      "outputs": [
        {
          "name": "",
          "type": "uint256"
        }
      ],
      "payable": false,
      "stateMutability": "view",
      "type": "function"
    }
  ],
  "bytecode": "0x60c0604052601c60808190527f68747470733a2f2f697066732e696e667572612e696f2f697066732f0000000060a090815262000040916010919062000441565b5060006011553480156200005357600080fd5b50604080518082018252600981527f52616469436172647300000000000000000000000000000000000000000000006020808301919091528251808401909352600483527f52414449000000000000000000000000000000000000000000000000000000009083015290620000f17f01ffc9a7000000000000000000000000000000000000000000000000000000006401000000006200021e810204565b620001257f80ac58cd000000000000000000000000000000000000000000000000000000006401000000006200021e810204565b620001597f4f558e79000000000000000000000000000000000000000000000000000000006401000000006200021e810204565b81516200016e90600590602085019062000441565b5080516200018490600690602084019062000441565b50620001b97f780e9d63000000000000000000000000000000000000000000000000000000006401000000006200021e810204565b620001ed7f5b5e139f000000000000000000000000000000000000000000000000000000006401000000006200021e810204565b5050600c8054600160a060020a0319163390811790915562000218906401000000006200028b810204565b620004e6565b7fffffffff0000000000000000000000000000000000000000000000000000000080821614156200024e57600080fd5b7fffffffff00000000000000000000000000000000000000000000000000000000166000908152602081905260409020805460ff19166001179055565b600c54600160a060020a03163314620002a357600080fd5b620002f3816040805190810160405280600981526020017f77686974656c6973740000000000000000000000000000000000000000000000815250620002f6640100000000026401000000009004565b50565b6200037282600d836040518082805190602001908083835b602083106200032f5780518252601f1990920191602091820191016200030e565b51815160209384036101000a60001901801990921691161790529201948552506040519384900301909220929150506401000000006200041c8102620044f31704565b81600160a060020a03167fbfec83d64eaa953f2708271a023ab9ee82057f8f3578d548c1a4ba0b5b700489826040518080602001828103825283818151815260200191508051906020019080838360005b83811015620003dd578181015183820152602001620003c3565b50505050905090810190601f1680156200040b5780820380516001836020036101000a031916815260200191505b509250505060405180910390a25050565b600160a060020a0316600090815260209190915260409020805460ff19166001179055565b828054600181600116156101000203166002900490600052602060002090601f016020900481019282601f106200048457805160ff1916838001178555620004b4565b82800160010185558215620004b4579182015b82811115620004b457825182559160200191906001019062000497565b50620004c2929150620004c6565b5090565b620004e391905b80821115620004c25760008155600101620004cd565b90565b614a4180620004f66000396000f3006080604052600436106102a85763ffffffff7c010000000000000000000000000000000000000000000000000000000060003504166301ffc9a781146102ad57806303cfe12d146102f8578063040e0d311461035d57806306fdde03146103805780630701fd6b1461040a578063081812fc146104da578063095ea7b31461050e5780630988ca8c14610532578063128ee1611461059957806318160ddd1461070e57806318b919e91461073557806319fa8f501461074a5780631db1b4fd14610791578063217fe6c6146107a957806323b872dd1461081057806324953eaa1461083a578063286dd3f51461088f5780632f745c59146108b05780633277d3dc146108d457806337073a87146109495780633b3a1a7a14610a2e5780633bac8f9014610a435780633df362b914610aae5780633eeb8d1714610b0f57806342842e0e14610b2457806342966c6814610b4e5780634d02fef714610b665780634d7bb88114610b7e5780634e99b80014610b995780634f558e7914610bae5780634f6ccce714610bc65780635a3f267214610bde5780636352211e14610bff57806370a0823114610c17578063715018a614610c38578063757000f714610c4d578063757f015514610c685780637b9417c814610c8057806389ae3b1f14610ca15780638da5cb5b14610cc25780638dc1076814610cd75780638ef79e9114610d8757806395d89b4114610da75780639b10acdc14610dbc5780639b19251a14610dd1578063a22cb46514610df2578063b88d4fde14610e18578063c87b56dd14610e87578063ca7c4dba14610e9f578063e2ec6ec314610eb4578063e60a955d14610f09578063e7ac2a5214610f26578063e985e9c514610f3b578063f2fde38b14610f62578063f7ad51ce14610f83578063f9256de114610f98578063fc314e3114610fad575b600080fd5b3480156102b957600080fd5b506102e47bffffffffffffffffffffffffffffffffffffffffffffffffffffffff196004351661103b565b604080519115158252519081900360200190f35b34801561030457600080fd5b5061030d61106f565b60408051602080825283518183015283519192839290830191858101910280838360005b83811015610349578181015183820152602001610331565b505050509050019250505060405180910390f35b34801561036957600080fd5b5061037e600160a060020a03600435166110c8565b005b34801561038c57600080fd5b5061039561113b565b6040805160208082528351818301528351919283929083019185019080838360005b838110156103cf5781810151838201526020016103b7565b50505050905090810190601f1680156103fc5780820380516001836020036101000a031916815260200191505b509250505060405180910390f35b34801561041657600080fd5b506104226004356111c8565b6040518088600160a060020a0316600160a060020a031681526020018060200187151515158152602001868152602001858152602001848152602001838152602001828103825288818151815260200191508051906020019080838360005b83811015610499578181015183820152602001610481565b50505050905090810190601f1680156104c65780820380516001836020036101000a031916815260200191505b509850505050505050505060405180910390f35b3480156104e657600080fd5b506104f260043561129f565b60408051600160a060020a039092168252519081900360200190f35b34801561051a57600080fd5b5061037e600160a060020a03600435166024356112ba565b34801561053e57600080fd5b5060408051602060046024803582810135601f810185900485028601850190965285855261037e958335600160a060020a03169536956044949193909101919081908401838280828437509497506113709650505050505050565b3480156105a557600080fd5b506105b16004356113de565b6040518085600160a060020a0316600160a060020a03168152602001806020018060200180602001848103845287818151815260200191508051906020019080838360005b8381101561060e5781810151838201526020016105f6565b50505050905090810190601f16801561063b5780820380516001836020036101000a031916815260200191505b50848103835286518152865160209182019188019080838360005b8381101561066e578181015183820152602001610656565b50505050905090810190601f16801561069b5780820380516001836020036101000a031916815260200191505b50848103825285518152855160209182019187019080838360005b838110156106ce5781810151838201526020016106b6565b50505050905090810190601f1680156106fb5780820380516001836020036101000a031916815260200191505b5097505050505050505060405180910390f35b34801561071a57600080fd5b506107236115b4565b60408051918252519081900360200190f35b34801561074157600080fd5b506103956115ba565b34801561075657600080fd5b5061075f6115df565b604080517bffffffffffffffffffffffffffffffffffffffffffffffffffffffff199092168252519081900360200190f35b34801561079d57600080fd5b506105b1600435611603565b3480156107b557600080fd5b5060408051602060046024803582810135601f81018590048502860185019096528585526102e4958335600160a060020a031695369560449491939091019190819084018382808284375094975061193d9650505050505050565b34801561081c57600080fd5b5061037e600160a060020a03600435811690602435166044356119b0565b34801561084657600080fd5b506040805160206004803580820135838102808601850190965280855261037e95369593946024949385019291829185019084908082843750949750611a539650505050505050565b34801561089b57600080fd5b5061037e600160a060020a0360043516611aa2565b3480156108bc57600080fd5b50610723600160a060020a0360043516602435611ae9565b3480156108e057600080fd5b50604080516020601f6064356004818101359283018490048402850184019095528184526102e494600160a060020a038135169460248035956044359536956084949301918190840183828082843750949750508435955050506020909201359150611b369050565b34801561095557600080fd5b50604080516020600460443581810135601f81018490048402850184019095528484526102e49482359460248035600160a060020a03169536959460649492019190819084018382808284375050604080516020601f89358b018035918201839004830284018301909452808352979a99988101979196509182019450925082915084018382808284375050604080516020601f89358b018035918201839004830284018301909452808352979a9998810197919650918201945092508291508401838280828437509497506124d99650505050505050565b348015610a3a57600080fd5b5061072361278a565b348015610a4f57600080fd5b5060408051602060046024803582810135601f81018590048502860185019096528585526102e4958335953695604494919390910191908190840183828082843750949750505050823515159350505060208101359060400135612790565b604080516020601f6064356004818101359283018490048402850184019095528184526102e494600160a060020a038135169460248035956044359536956084949301918190840183828082843750949750509335945061290f9350505050565b348015610b1b57600080fd5b50610723612ef9565b348015610b3057600080fd5b5061037e600160a060020a0360043581169060243516604435612eff565b348015610b5a57600080fd5b5061037e600435612f20565b348015610b7257600080fd5b50610723600435612f95565b348015610b8a57600080fd5b5061037e600435602435612fba565b348015610ba557600080fd5b50610395613076565b348015610bba57600080fd5b506102e4600435613104565b348015610bd257600080fd5b50610723600435613121565b348015610bea57600080fd5b5061030d600160a060020a0360043516613156565b348015610c0b57600080fd5b506104f26004356131c2565b348015610c2357600080fd5b50610723600160a060020a03600435166131ec565b348015610c4457600080fd5b5061037e61321f565b348015610c5957600080fd5b5061037e60043560243561328d565b348015610c7457600080fd5b506107236004356133d8565b348015610c8c57600080fd5b5061037e600160a060020a0360043516613407565b348015610cad57600080fd5b5061037e600160a060020a036004351661344b565b348015610cce57600080fd5b506104f26134be565b348015610ce357600080fd5b50610cef6004356134cd565b604051808060200186151515158152602001858152602001848152602001838152602001828103825287818151815260200191508051906020019080838360005b83811015610d48578181015183820152602001610d30565b50505050905090810190601f168015610d755780820380516001836020036101000a031916815260200191505b50965050505050505060405180910390f35b348015610d9357600080fd5b5061037e600480356024810191013561358b565b348015610db357600080fd5b50610395613622565b348015610dc857600080fd5b50610723613683565b348015610ddd57600080fd5b506102e4600160a060020a0360043516613689565b348015610dfe57600080fd5b5061037e600160a060020a036004351660243515156136b8565b348015610e2457600080fd5b50604080516020601f60643560048181013592830184900484028501840190955281845261037e94600160a060020a03813581169560248035909216956044359536956084940191819084018382808284375094975061373c9650505050505050565b348015610e9357600080fd5b5061039560043561375e565b348015610eab57600080fd5b506107236138a2565b348015610ec057600080fd5b506040805160206004803580820135838102808601850190965280855261037e953695939460249493850192918291850190849080828437509497506139329650505050505050565b348015610f1557600080fd5b5061037e6004356024351515613981565b348015610f3257600080fd5b50610723613a4b565b348015610f4757600080fd5b506102e4600160a060020a0360043581169060243516613a51565b348015610f6e57600080fd5b5061037e600160a060020a0360043516613a7f565b348015610f8f57600080fd5b5061030d613a9f565b348015610fa457600080fd5b50610723613af5565b348015610fb957600080fd5b50610fc5600435613afb565b6040518088600160a060020a0316600160a060020a0316815260200187151515158152602001868152602001858152602001806020018481526020018381526020018281038252858181518152602001915080519060200190808383600083811015610499578181015183820152602001610481565b7bffffffffffffffffffffffffffffffffffffffffffffffffffffffff191660009081526020819052604090205460ff1690565b606060138054806020026020016040519081016040528092919081815260200182805480156110bd57602002820191906000526020600020905b8154815260200190600101908083116110a9575b505050505090505b90565b336110f6816040805190810160405280600981526020016000805160206149f6833981519152815250611370565b600160a060020a038216151561110b57600080fd5b50600e805473ffffffffffffffffffffffffffffffffffffffff1916600160a060020a0392909216919091179055565b60058054604080516020601f60026000196101006001881615020190951694909404938401819004810282018101909252828152606093909290918301828280156110bd5780601f1061119c576101008083540402835291602001916110bd565b820191906000526020600020905b8154815290600101906020018083116111aa57509395945050505050565b6016602090815260009182526040918290208054600180830180548651600261010094831615949094026000190190911692909204601f8101869004860283018601909652858252600160a060020a039092169492939092908301828280156112725780601f1061124757610100808354040283529160200191611272565b820191906000526020600020905b81548152906001019060200180831161125557829003601f168201915b5050506002840154600385015460048601546005870154600690970154959660ff90931695919450925087565b600090815260026020526040902054600160a060020a031690565b60006112c5826131c2565b9050600160a060020a0383811690821614156112e057600080fd5b33600160a060020a03821614806112fc57506112fc8133613a51565b151561130757600080fd5b600082815260026020526040808220805473ffffffffffffffffffffffffffffffffffffffff1916600160a060020a0387811691821790925591518593918516917f8c5be1e5ebec7d5bd14f71427d1e84f3dd0314c0f7b2291e5b200ac8c7c3b92591a4505050565b6113da82600d836040518082805190602001908083835b602083106113a65780518252601f199092019160209182019101611387565b51815160209384036101000a6000190180199092169116179052920194855250604051938490030190922092915050613c68565b5050565b6012602090815260009182526040918290208054600180830180548651600261010094831615949094026000190190911692909204601f8101869004860283018601909652858252600160a060020a039092169492939092908301828280156114885780601f1061145d57610100808354040283529160200191611488565b820191906000526020600020905b81548152906001019060200180831161146b57829003601f168201915b50505060028085018054604080516020601f600019610100600187161502019094169590950492830185900485028101850190915281815295969594509092509083018282801561151a5780601f106114ef5761010080835404028352916020019161151a565b820191906000526020600020905b8154815290600101906020018083116114fd57829003601f168201915b5050505060038301805460408051602060026001851615610100026000190190941693909304601f81018490048402820184019092528181529495949350908301828280156115aa5780601f1061157f576101008083540402835291602001916115aa565b820191906000526020600020905b81548152906001019060200180831161158d57829003601f168201915b5050505050905084565b60095490565b60408051808201909152600981526000805160206149f6833981519152602082015281565b7f01ffc9a70000000000000000000000000000000000000000000000000000000081565b60006060806060611612614854565b61161a61489d565b61162387613104565b151561162e57600080fd5b600087815260166020908152604091829020825160e0810184528154600160a060020a03168152600180830180548651600261010094831615949094026000190190911692909204601f81018690048602830186019096528582529194929385810193919291908301828280156116e65780601f106116bb576101008083540402835291602001916116e6565b820191906000526020600020905b8154815290600101906020018083116116c957829003601f168201915b505050918352505060028281015460ff161515602080840191909152600384015460408085019190915260048501546060850152600585015460808086019190915260069095015460a09094019390935260c0850151600090815260128252839020835194850184528054600160a060020a031685526001808201805486516101009382161593909302600019011694909404601f81018490048402820184019095528481529597509394858201939092918301828280156117e95780601f106117be576101008083540402835291602001916117e9565b820191906000526020600020905b8154815290600101906020018083116117cc57829003601f168201915b5050509183525050600282810180546040805160206001841615610100026000190190931694909404601f8101839004830285018301909152808452938101939083018282801561187b5780601f106118505761010080835404028352916020019161187b565b820191906000526020600020905b81548152906001019060200180831161185e57829003601f168201915b505050918352505060038201805460408051602060026001851615610100026000190190941693909304601f810184900484028201840190925281815293820193929183018282801561190f5780601f106118e45761010080835404028352916020019161190f565b820191906000526020600020905b8154815290600101906020018083116118f257829003601f168201915b505050919092525050815160208301516040840151606090940151919b909a50929850965090945050505050565b60006119a983600d846040518082805190602001908083835b602083106119755780518252601f199092019160209182019101611956565b51815160209384036101000a6000190180199092169116179052920194855250604051938490030190922092915050613c7d565b9392505050565b6119ba3382613c9c565b15156119c557600080fd5b600160a060020a03831615156119da57600080fd5b600160a060020a03821615156119ef57600080fd5b6119f98382613cfb565b611a038382613d6a565b611a0d8282613e71565b8082600160a060020a031684600160a060020a03167fddf252ad1be2c89b69c2b068fc378daa952ba7f163c4a11628f55a4df523b3ef60405160405180910390a4505050565b600c54600090600160a060020a03163314611a6d57600080fd5b5060005b81518110156113da57611a9a8282815181101515611a8b57fe5b90602001906020020151611aa2565b600101611a71565b600c54600160a060020a03163314611ab957600080fd5b611ae6816040805190810160405280600981526020016000805160206149f6833981519152815250613eba565b50565b6000611af4836131ec565b8210611aff57600080fd5b600160a060020a0383166000908152600760205260409020805483908110611b2357fe5b9060005260206000200154905092915050565b60008080600160a060020a0389161515611b9a576040805160e560020a62461bcd02815260206004820152601760248201527f4d75737420626520612076616c69642061646472657373000000000000000000604482015290519081900360640190fd5b600088815260126020526040902054600160a060020a03161515611c08576040805160e560020a62461bcd02815260206004820181905260248201527f4d7573742073706563696679206578697374696e672062656e65666163746f72604482015290519081900360640190fd5b600087815260146020526040902054600260001961010060018416150201909116041515611c80576040805160e560020a62461bcd02815260206004820152601a60248201527f4d7573742073706563696679206578697374696e672063617264000000000000604482015290519081900360640190fd5b60008781526014602052604090206001015460ff161515611ceb576040805160e560020a62461bcd02815260206004820152601660248201527f4d75737420626520616e20616374697665206361726400000000000000000000604482015290519081900360640190fd5b600e54604080517fdd62ed3e0000000000000000000000000000000000000000000000000000000081523360048201523060248201529051600160a060020a039092169163dd62ed3e916044808201926020929091908290030181600087803b158015611d5757600080fd5b505af1158015611d6b573d6000803e3d6000fd5b505050506040513d6020811015611d8157600080fd5b50518585011115611e02576040805160e560020a62461bcd02815260206004820152603c60248201527f4d75737420686176652070726f7669646564206869676820656e6f756768206160448201527f6c6f77616e636520746f20526164696361726420636f6e747261637400000000606482015290519081900360840190fd5b600e54604080517f70a082310000000000000000000000000000000000000000000000000000000081523360048201529051600160a060020a03909216916370a08231916024808201926020929091908290030181600087803b158015611e6857600080fd5b505af1158015611e7c573d6000803e3d6000fd5b505050506040513d6020811015611e9257600080fd5b50518585011115611f39576040805160e560020a62461bcd02815260206004820152604960248201527f4d757374206861766520656e6f75676820746f6b656e2062616c616e6365206f60448201527f662064616920746f2070617920666f7220646f6e6174696f6e20616e6420676960648201527f667420616d6f756e740000000000000000000000000000000000000000000000608482015290519081900360a40190fd5b6000878152601460205260408120600301541115611fe5576000878152601460205260409020600381015460029091015410611fe5576040805160e560020a62461bcd02815260206004820152602a60248201527f43616e277420657863656564206d6178696d756d207175616e74697479206f6660448201527f2063617264207479706500000000000000000000000000000000000000000000606482015290519081900360840190fd5b60008781526014602052604081206004015411156120b45760008781526014602052604090206004015485850110156120b4576040805160e560020a62461bcd02815260206004820152604f60248201527f54686520746f74616c206461692073656e74207769746820746865207472616e60448201527f73616374696f6e206973206c657373207468616e20746865206d696e2070726960648201527f6365206f662074686520746f6b656e0000000000000000000000000000000000608482015290519081900360a40190fd5b6040805160e0810182523381526020808201898152600183850181905260608401899052608084018a905260a084018c905260c084018d9052601154600090815260168452949094208351815473ffffffffffffffffffffffffffffffffffffffff1916600160a060020a039091161781559051805193949193612140939285019291909101906148cf565b506040828101516002838101805460ff191692151592909217909155606084015160038401556080840151600484015560a0840151600584015560c09093015160069092019190915560008981526014602090815290829020805483516101006001831615026000190190911694909404601f8101839004830285018301909352828452612227938d93909283018282801561221d5780601f106121f25761010080835404028352916020019161221d565b820191906000526020600020905b81548152906001019060200180831161220057829003601f168201915b5050505050613fcb565b6000888152601460205260408120600201805460010190559092508511156123545750600087815260126020908152604080832054600e5482517f23b872dd000000000000000000000000000000000000000000000000000000008152336004820152600160a060020a0392831660248201819052604482018b90529351939591909216936323b872dd93606480850194929391928390030190829087803b1580156122d257600080fd5b505af11580156122e6573d6000803e3d6000fd5b505050506040513d60208110156122fc57600080fd5b50511515612354576040805160e560020a62461bcd02815260206004820152601960248201527f53656e64696e6720746f2063686172697479206661696c656400000000000000604482015290519081900360640190fd5b600084111561245457600e54604080517f23b872dd000000000000000000000000000000000000000000000000000000008152336004820152600160a060020a038c8116602483015260448201889052915191909216916323b872dd9160648083019260209291908290030181600087803b1580156123d257600080fd5b505af11580156123e6573d6000803e3d6000fd5b505050506040513d60208110156123fc57600080fd5b50511515612454576040805160e560020a62461bcd02815260206004820152601b60248201527f53656e64696e6720746f20726563697061696e74206661696c65640000000000604482015290519081900360640190fd5b601954612467908563ffffffff61400316565b601955601a5461247d908663ffffffff61400316565b601a556040805133815260208101849052815189928b92600160a060020a038e16927f124b55414cfccfb944398950a61aa7eebe0c5ff470bca91354cf83ade92cfc72929181900390910190a450600198975050505050505050565b600033612509816040805190810160405280600981526020016000805160206149f6833981519152815250611370565b600160a060020a0386161515612569576040805160e560020a62461bcd02815260206004820152600f60248201527f496e76616c696420616464726573730000000000000000000000000000000000604482015290519081900360640190fd5b845115156125c1576040805160e560020a62461bcd02815260206004820152600c60248201527f496e76616c6964206e616d650000000000000000000000000000000000000000604482015290519081900360640190fd5b83511515612619576040805160e560020a62461bcd02815260206004820152600c60248201527f496e76616c6964206e616d650000000000000000000000000000000000000000604482015290519081900360640190fd5b82511515612671576040805160e560020a62461bcd02815260206004820152600c60248201527f496e76616c6964206e616d650000000000000000000000000000000000000000604482015290519081900360640190fd5b60408051608081018252600160a060020a03888116825260208083018981528385018990526060840188905260008c815260128352949094208351815473ffffffffffffffffffffffffffffffffffffffff1916931692909217825592518051929391926126e592600185019201906148cf565b50604082015180516127019160028401916020909101906148cf565b506060820151805161271d9160038401916020909101906148cf565b50506013805460018101825560009182527f66de8ffda797e3de9c05e8fc57b3bf0ec28a930d40b0d285d93c06501cf6a090018990556040518992507f5f4aa3ef0a4bf82c0f10f704eb578f57422b27f40709f8a4aca4694b6bda8ab39190a25060019695505050505050565b60115481565b6000336127c0816040805190810160405280600981526020016000805160206149f6833981519152815250611370565b85511515612818576040805160e560020a62461bcd02815260206004820152601160248201527f496e76616c696420746f6b656e20555249000000000000000000000000000000604482015290519081900360640190fd5b6040805160a081018252878152861515602080830191909152600082840181905260608301889052608083018790528a81526014825292909220815180519293919261286792849201906148cf565b5060208201516001828101805460ff19169215159290921790915560408084015160028401556060840151600384015560809093015160049092019190915560158054918201815560009081527f55f448fdea98c4d29eb340757ef0a66cd03dbb9538908a6a81d96026b71ec475909101899055905188917fee4df2a71cd5144f989eafc284d855a4cc517ca03f21c5270ed8e2e9dcc3d29c91a25060019695505050505050565b60008080600160a060020a0388161515612973576040805160e560020a62461bcd02815260206004820152601760248201527f4d75737420626520612076616c69642061646472657373000000000000000000604482015290519081900360640190fd5b600087815260126020526040902054600160a060020a031615156129e1576040805160e560020a62461bcd02815260206004820181905260248201527f4d7573742073706563696679206578697374696e672062656e65666163746f72604482015290519081900360640190fd5b600086815260146020526040902054600260001961010060018416150201909116041515612a59576040805160e560020a62461bcd02815260206004820152601a60248201527f4d7573742073706563696679206578697374696e672063617264000000000000604482015290519081900360640190fd5b60008681526014602052604090206001015460ff161515612ac4576040805160e560020a62461bcd02815260206004820152601660248201527f4d75737420626520616e20616374697665206361726400000000000000000000604482015290519081900360640190fd5b34841115612b42576040805160e560020a62461bcd02815260206004820152603260248201527f43616e2774207265717565737420746f20646f6e617465206d6f72652074686160448201527f6e20746f74616c2076616c75652073656e740000000000000000000000000000606482015290519081900360840190fd5b6000868152601460205260408120600301541115612bee576000868152601460205260409020600381015460029091015410612bee576040805160e560020a62461bcd02815260206004820152602a60248201527f43616e277420657863656564206d6178696d756d207175616e74697479206f6660448201527f2063617264207479706500000000000000000000000000000000000000000000606482015290519081900360840190fd5b6000868152601460205260408120600401541115612c8c5734612c10876133d8565b1115612c8c576040805160e560020a62461bcd02815260206004820152603160248201527f4d7573742073656e64206174206c6561737420746865206d696e696d756d206160448201527f6d6f756e7420746f206275792063617264000000000000000000000000000000606482015290519081900360840190fd5b6040805160e081018252338152602080820188815260008385018190523489900360608501819052608085018a905260a085018c905260c085018d90526011548252601684529490208351815473ffffffffffffffffffffffffffffffffffffffff1916600160a060020a039091161781559051805194965092939092612d1a9260018501929101906148cf565b506040828101516002838101805460ff191692151592909217909155606084015160038401556080840151600484015560a0840151600584015560c09093015160069092019190915560008881526014602090815290829020805483516101006001831615026000190190911694909404601f8101839004830285018301909352828452612dcc938c93909283018282801561221d5780601f106121f25761010080835404028352916020019161221d565b600087815260146020526040812060020180546001019055909150841115612e3457600087815260126020526040808220549051600160a060020a039091169186156108fc02918791818181858888f19350505050158015612e32573d6000803e3d6000fd5b505b6000821115612e7557604051600160a060020a0389169083156108fc029084906000818181858888f19350505050158015612e73573d6000803e3d6000fd5b505b601754612e88908363ffffffff61400316565b601755601854612e9e908563ffffffff61400316565b6018556040805133815260208101839052815188928a92600160a060020a038d16927f124b55414cfccfb944398950a61aa7eebe0c5ff470bca91354cf83ade92cfc72929181900390910190a4506001979650505050505050565b60195481565b612f1b838383602060405190810160405280600081525061373c565b505050565b6040805160e560020a62461bcd028152602060048201526024808201527f526164692e4361726473206172652063656e736f72736869702072657369737460448201527f616e742100000000000000000000000000000000000000000000000000000000606482015290519081900360840190fd5b6000670de0b6b3a7640000612fa86138a2565b8302811515612fb357fe5b0492915050565b33612fe8816040805190810160405280600981526020016000805160206149f6833981519152815250611370565b600083815260146020526040902054600260001961010060018416150201909116041515613060576040805160e560020a62461bcd02815260206004820152601a60248201527f4d7573742073706563696679206578697374696e672063617264000000000000604482015290519081900360640190fd5b5060009182526014602052604090912060040155565b6010805460408051602060026001851615610100026000190190941693909304601f810184900484028201840190925281815292918301828280156130fc5780601f106130d1576101008083540402835291602001916130fc565b820191906000526020600020905b8154815290600101906020018083116130df57829003601f168201915b505050505081565b600090815260016020526040902054600160a060020a0316151590565b600061312b6115b4565b821061313657600080fd5b600980548390811061314457fe5b90600052602060002001549050919050565b600160a060020a0381166000908152600760209081526040918290208054835181840281018401909452808452606093928301828280156131b657602002820191906000526020600020905b8154815260200190600101908083116131a2575b50505050509050919050565b600081815260016020526040812054600160a060020a03168015156131e657600080fd5b92915050565b6000600160a060020a038216151561320357600080fd5b50600160a060020a031660009081526003602052604090205490565b600c54600160a060020a0316331461323657600080fd5b600c54604051600160a060020a03909116907ff8df31144d9c2f0f6b59d69b8b98abd5459d07f2742c4df920b25aae33c6482090600090a2600c805473ffffffffffffffffffffffffffffffffffffffff19169055565b336132bb816040805190810160405280600981526020016000805160206149f6833981519152815250611370565b600083815260146020526040902054600260001961010060018416150201909116041515613333576040805160e560020a62461bcd02815260206004820152601a60248201527f4d7573742073706563696679206578697374696e672063617264000000000000604482015290519081900360640190fd5b6000838152601460205260409020600201548210156133c2576040805160e560020a62461bcd02815260206004820152603c60248201527f43616e742073657420746865206d6178207175616e74697479206c657373207460448201527f68616e207468652063757272656e7420746f74616c206d696e74656400000000606482015290519081900360840190fd5b5060009182526014602052604090912060030155565b60006133e26138a2565b600083815260146020526040902060040154670de0b6b3a764000002811515612fb357fe5b600c54600160a060020a0316331461341e57600080fd5b611ae6816040805190810160405280600981526020016000805160206149f6833981519152815250614010565b33613479816040805190810160405280600981526020016000805160206149f6833981519152815250611370565b600160a060020a038216151561348e57600080fd5b50600f805473ffffffffffffffffffffffffffffffffffffffff1916600160a060020a0392909216919091179055565b600c54600160a060020a031681565b60146020908152600091825260409182902080548351601f600260001961010060018616150201909316929092049182018490048402810184019094528084529092918391908301828280156135645780601f1061353957610100808354040283529160200191613564565b820191906000526020600020905b81548152906001019060200180831161354757829003601f168201915b50505050600183015460028401546003850154600490950154939460ff9092169390925085565b336135b9816040805190810160405280600981526020016000805160206149f6833981519152815250611370565b811515613610576040805160e560020a62461bcd02815260206004820152601060248201527f426173652055524920696e76616c696400000000000000000000000000000000604482015290519081900360640190fd5b61361c6010848461494d565b50505050565b60068054604080516020601f60026000196101006001881615020190951694909404938401819004810282018101909252828152606093909290918301828280156110bd5780601f1061119c576101008083540402835291602001916110bd565b60185481565b60006131e6826040805190810160405280600981526020016000805160206149f683398151915281525061193d565b600160a060020a0382163314156136ce57600080fd5b336000818152600460209081526040808320600160a060020a03871680855290835292819020805460ff1916861515908117909155815190815290519293927f17307eab39ab6107e8899845ad3d59bd9653f200f220920489ca2b5937696c31929181900390910190a35050565b6137478484846119b0565b613753848484846140e2565b151561361c57600080fd5b606061376982613104565b151561377457600080fd5b60108054604080516020601f600260001961010060018816150201909516949094049384018190048102820181019092528281526131e693909290918301828280156138015780601f106137d657610100808354040283529160200191613801565b820191906000526020600020905b8154815290600101906020018083116137e457829003601f168201915b5050506000868152600b60209081526040918290208054835160026001831615610100026000190190921691909104601f8101849004840282018401909452838152945092508301828280156138985780601f1061386d57610100808354040283529160200191613898565b820191906000526020600020905b81548152906001019060200180831161387b57829003601f168201915b5050505050614264565b600f54604080517f57de26a40000000000000000000000000000000000000000000000000000000081529051600092600160a060020a0316916357de26a491600480830192602092919082900301818787803b15801561390157600080fd5b505af1158015613915573d6000803e3d6000fd5b505050506040513d602081101561392b57600080fd5b5051905090565b600c54600090600160a060020a0316331461394c57600080fd5b5060005b81518110156113da57613979828281518110151561396a57fe5b90602001906020020151613407565b600101613950565b336139af816040805190810160405280600981526020016000805160206149f6833981519152815250611370565b600083815260146020526040902054600260001961010060018416150201909116041515613a27576040805160e560020a62461bcd02815260206004820152601a60248201527f4d7573742073706563696679206578697374696e672063617264000000000000604482015290519081900360640190fd5b50600091825260146020526040909120600101805460ff1916911515919091179055565b601a5481565b600160a060020a03918216600090815260046020908152604080832093909416825291909152205460ff1690565b600c54600160a060020a03163314613a9657600080fd5b611ae681614299565b606060158054806020026020016040519081016040528092919081815260200182805480156110bd57602002820191906000526020600020908154815260200190600101908083116110a9575050505050905090565b60175481565b6000806000806060600080613b0e614854565b613b1789613104565b1515613b2257600080fd5b600089815260166020908152604091829020825160e0810184528154600160a060020a03168152600180830180548651600261010094831615949094026000190190911692909204601f8101869004860283018601909652858252919492938581019391929190830182828015613bda5780601f10613baf57610100808354040283529160200191613bda565b820191906000526020600020905b815481529060010190602001808311613bbd57829003601f168201915b505050505081526020016002820160009054906101000a900460ff161515151581526020016003820154815260200160048201548152602001600582015481526020016006820154815250509050806000015181604001518260600151836080015184602001518560a001518660c00151829250975097509750975097509750975050919395979092949650565b613c728282613c7d565b15156113da57600080fd5b600160a060020a03166000908152602091909152604090205460ff1690565b600080613ca8836131c2565b905080600160a060020a031684600160a060020a03161480613ce3575083600160a060020a0316613cd88461129f565b600160a060020a0316145b80613cf35750613cf38185613a51565b949350505050565b81600160a060020a0316613d0e826131c2565b600160a060020a031614613d2157600080fd5b600081815260026020526040902054600160a060020a0316156113da576000908152600260205260409020805473ffffffffffffffffffffffffffffffffffffffff1916905550565b6000806000613d798585614317565b600084815260086020908152604080832054600160a060020a0389168452600790925290912054909350613db490600163ffffffff6143ad16565b600160a060020a038616600090815260076020526040902080549193509083908110613ddc57fe5b90600052602060002001549050806007600087600160a060020a0316600160a060020a0316815260200190815260200160002084815481101515613e1c57fe5b6000918252602080832090910192909255600160a060020a0387168152600790915260409020805490613e539060001983016149bb565b50600093845260086020526040808520859055908452909220555050565b6000613e7d83836143bf565b50600160a060020a039091166000908152600760209081526040808320805460018101825590845282842081018590559383526008909152902055565b613f2482600d836040518082805190602001908083835b60208310613ef05780518252601f199092019160209182019101613ed1565b51815160209384036101000a600019018019909216911617905292019485525060405193849003019092209291505061444f565b81600160a060020a03167fd211483f91fc6eff862467f8de606587a30c8fc9981056f051b897a418df803a826040518080602001828103825283818151815260200191508051906020019080838360005b83811015613f8d578181015183820152602001613f75565b50505050905090810190601f168015613fba5780820380516001836020036101000a031916815260200191505b509250505060405180910390a25050565b601154600090613fdb8482614471565b613fe581846144c0565b601154613ff990600163ffffffff61400316565b6011559392505050565b818101828110156131e657fe5b61407a82600d836040518082805190602001908083835b602083106140465780518252601f199092019160209182019101614027565b51815160209384036101000a60001901801990921691161790529201948552506040519384900301909220929150506144f3565b81600160a060020a03167fbfec83d64eaa953f2708271a023ab9ee82057f8f3578d548c1a4ba0b5b7004898260405180806020018281038252838181518152602001915080519060200190808383600083811015613f8d578181015183820152602001613f75565b6000806140f785600160a060020a0316614518565b1515614106576001915061425b565b6040517f150b7a020000000000000000000000000000000000000000000000000000000081523360048201818152600160a060020a03898116602485015260448401889052608060648501908152875160848601528751918a169463150b7a0294938c938b938b93909160a490910190602085019080838360005b83811015614199578181015183820152602001614181565b50505050905090810190601f1680156141c65780820380516001836020036101000a031916815260200191505b5095505050505050602060405180830381600087803b1580156141e857600080fd5b505af11580156141fc573d6000803e3d6000fd5b505050506040513d602081101561421257600080fd5b50517bffffffffffffffffffffffffffffffffffffffffffffffffffffffff1981167f150b7a020000000000000000000000000000000000000000000000000000000014925090505b50949350505050565b6040805160208181018352600080835283518083018552818152845192830190945281526060926119a9928692869290614520565b600160a060020a03811615156142ae57600080fd5b600c54604051600160a060020a038084169216907f8be0079c531659141344cd1fd0a4f28419497f9722a3daafe3b4186f6b6457e090600090a3600c805473ffffffffffffffffffffffffffffffffffffffff1916600160a060020a0392909216919091179055565b81600160a060020a031661432a826131c2565b600160a060020a03161461433d57600080fd5b600160a060020a03821660009081526003602052604090205461436790600163ffffffff6143ad16565b600160a060020a03909216600090815260036020908152604080832094909455918152600190915220805473ffffffffffffffffffffffffffffffffffffffff19169055565b6000828211156143b957fe5b50900390565b600081815260016020526040902054600160a060020a0316156143e157600080fd5b6000818152600160208181526040808420805473ffffffffffffffffffffffffffffffffffffffff1916600160a060020a038816908117909155845260039091529091205461442f91614003565b600160a060020a0390921660009081526003602052604090209190915550565b600160a060020a0316600090815260209190915260409020805460ff19169055565b61447b82826147f9565b600980546000838152600a60205260408120829055600182018355919091527f6e1540171b6c0c960b71a7020d9f60077f6af931a8bbf590da0223dacf75c7af015550565b6144c982613104565b15156144d457600080fd5b6000828152600b602090815260409091208251612f1b928401906148cf565b600160a060020a0316600090815260209190915260409020805460ff19166001179055565b6000903b1190565b6060806060806060806060806000808e98508d97508c96508b95508a94508451865188518a518c51010101016040519080825280601f01601f191660200182016040528015614579578160200160208202803883390190505b50935083925060009150600090505b88518110156145fe57888181518110151561459f57fe5b90602001015160f860020a900460f860020a0283838060010194508151811015156145c657fe5b9060200101907effffffffffffffffffffffffffffffffffffffffffffffffffffffffffffff1916908160001a905350600101614588565b5060005b875181101561467857878181518110151561461957fe5b90602001015160f860020a900460f860020a02838380600101945081518110151561464057fe5b9060200101907effffffffffffffffffffffffffffffffffffffffffffffffffffffffffffff1916908160001a905350600101614602565b5060005b86518110156146f257868181518110151561469357fe5b90602001015160f860020a900460f860020a0283838060010194508151811015156146ba57fe5b9060200101907effffffffffffffffffffffffffffffffffffffffffffffffffffffffffffff1916908160001a90535060010161467c565b5060005b855181101561476c57858181518110151561470d57fe5b90602001015160f860020a900460f860020a02838380600101945081518110151561473457fe5b9060200101907effffffffffffffffffffffffffffffffffffffffffffffffffffffffffffff1916908160001a9053506001016146f6565b5060005b84518110156147e657848181518110151561478757fe5b90602001015160f860020a900460f860020a0283838060010194508151811015156147ae57fe5b9060200101907effffffffffffffffffffffffffffffffffffffffffffffffffffffffffffff1916908160001a905350600101614770565b50909d9c50505050505050505050505050565b600160a060020a038216151561480e57600080fd5b6148188282613e71565b6040518190600160a060020a038416906000907fddf252ad1be2c89b69c2b068fc378daa952ba7f163c4a11628f55a4df523b3ef908290a45050565b60e0604051908101604052806000600160a060020a0316815260200160608152602001600015158152602001600081526020016000815260200160008152602001600081525090565b6080604051908101604052806000600160a060020a031681526020016060815260200160608152602001606081525090565b828054600181600116156101000203166002900490600052602060002090601f016020900481019282601f1061491057805160ff191683800117855561493d565b8280016001018555821561493d579182015b8281111561493d578251825591602001919060010190614922565b506149499291506149db565b5090565b828054600181600116156101000203166002900490600052602060002090601f016020900481019282601f1061498e5782800160ff1982351617855561493d565b8280016001018555821561493d579182015b8281111561493d5782358255916020019190600101906149a0565b815481835581811115612f1b57600083815260209020612f1b9181019083015b6110c591905b8082111561494957600081556001016149e1560077686974656c6973740000000000000000000000000000000000000000000000a165627a7a723058208b5b4bab141240daf883f896bded816d1fa73c45ea61960556811c30fdf1e7890029",
  "source": "pragma solidity ^0.4.24;\n\nimport \"openzeppelin-solidity/contracts/math/SafeMath.sol\";\nimport \"openzeppelin-solidity/contracts/access/Whitelist.sol\";\nimport \"openzeppelin-solidity/contracts/token/ERC721/ERC721Token.sol\";\nimport \"openzeppelin-solidity/contracts/token/ERC20/StandardToken.sol\";\n\nimport \"./Strings.sol\";\nimport \"./Medianizer.sol\";\n\n/**\n* @title Radi.Cards\n*\n* @author blockrocket.tech (smart contracts)\n* @author cryptodecks.co\n* @author knownorigin.io\n* @author pheme.app\n* @author d1labs.com\n* @author mbdoesthings.com\n* @author chrismaree.io (smart contracts update)\n*/\ncontract RadiCards is ERC721Token, Whitelist {\n  using SafeMath for uint256;\n\n  StandardToken daiContract;\n  Medianizer medianizerContract;\n\n  string public tokenBaseURI = \"https://ipfs.infura.io/ipfs/\";\n\n  uint256 public tokenIdPointer = 0;\n\n  struct Benefactor {\n    address ethAddress;\n    string name;\n    string website;\n    string logo;\n  }\n\n  struct CardDesign {\n    string tokenURI;\n    bool active;\n    uint minted;\n    uint maxQnty; //set to zero for unlimited\n    //minimum price per card set in Atto (SI prefix for 1x10-18 dai)\n    uint256 minPrice; //set to zero to default to the minimumContribution\n  }\n\n  struct RadiCard {\n    // Metadata\n    address gifter;\n    string message;\n    bool daiDonation;\n    uint256 giftingAmount;\n    uint256 donatingAmount;\n    // Lookups\n    uint256 cardIndex;\n    uint256 benefactorIndex;\n  }\n\n  mapping(uint256 => Benefactor) public benefactors;\n  uint256[] internal benefactorsIndex;\n\n  mapping(uint256 => CardDesign) public cards;\n  uint256[] internal cardsIndex;\n\n  mapping(uint256 => RadiCard) public tokenIdToRadiCardIndex;\n\n  //total gifted/donated in ETH\n  uint256 public totalGiftedInWei;\n  uint256 public totalDonatedInWei;\n\n  //total gifted/donated in DAI\n  uint256 public totalGiftedInAtto; //SI prefix for 1x10-18 dai is Atto.\n  uint256 public totalDonatedInAtto;\n\n  event CardGifted(\n    address indexed _to,\n    uint256 indexed _benefactorIndex,\n    uint256 indexed _cardIndex,\n    address _from,\n    uint256 _tokenId\n  );\n\n  event BenefactorAdded(\n    uint256 indexed _benefactorIndex\n  );\n\n  event CardAdded(\n    uint256 indexed _cardIndex\n  );\n\n  constructor () public ERC721Token(\"RadiCards\", \"RADI\") {\n    addAddressToWhitelist(msg.sender);\n  }\n\n  function gift(address to, uint256 _benefactorIndex, uint256 _cardIndex, string _message, uint256 _donationAmount) payable public returns (bool) {\n    require(to != address(0), \"Must be a valid address\");\n    require(benefactors[_benefactorIndex].ethAddress != address(0), \"Must specify existing benefactor\");\n    require(bytes(cards[_cardIndex].tokenURI).length != 0, \"Must specify existing card\");\n    require(cards[_cardIndex].active, \"Must be an active card\");\n    require(_donationAmount <= msg.value,\"Can't request to donate more than total value sent\");\n\n    if (cards[_cardIndex].maxQnty > 0){ //the max quantity is set to zero to indicate no limit. Only need to check that can mint if limited\n      require(cards[_cardIndex].minted < cards[_cardIndex].maxQnty, \"Can't exceed maximum quantity of card type\");\n    }\n\n    if(cards[_cardIndex].minPrice > 0){ //if the card has a minimum price check that enough has been sent\n      // Convert the current value of the eth send to a USD value of atto (1 usd = 10^18 atto).\n      // require(getEthUsdValue(msg.value) >= (cards[_cardIndex].minPrice), \"Must send at least the minimum amount\");\n      require (getMinCardPriceInWei(_cardIndex)<=msg.value,\"Must send at least the minimum amount to buy card\");\n    }\n\n    uint256 _giftAmount = msg.value - _donationAmount;\n\n    tokenIdToRadiCardIndex[tokenIdPointer] = RadiCard({\n        gifter : msg.sender,\n        daiDonation: false,\n        giftingAmount : _giftAmount,\n        donatingAmount: _donationAmount,\n        message : _message,\n        benefactorIndex : _benefactorIndex,\n        cardIndex : _cardIndex\n    });\n\n    uint256 _tokenId = _mint(to, cards[_cardIndex].tokenURI);\n\n    cards[_cardIndex].minted++;\n\n    // transfer the ETH to the benefactor and recipaint\n    if(_donationAmount > 0){\n      benefactors[_benefactorIndex].ethAddress.transfer(_donationAmount);\n    }\n\n    if(_giftAmount > 0){\n        to.transfer(_giftAmount);\n    }\n\n    // tally up the total eth gifted and donated\n    totalGiftedInWei = totalGiftedInWei.add(_giftAmount);\n    totalDonatedInWei = totalDonatedInWei.add(_donationAmount);\n\n    emit CardGifted(to, _benefactorIndex, _cardIndex, msg.sender, _tokenId);\n\n    return true;\n  }\n\n  function giftInDai(address to, uint256 _benefactorIndex, uint256 _cardIndex, string _message, uint256 _donationAmount, uint256 _giftAmount) public returns (bool) {\n    require(to != address(0), \"Must be a valid address\");\n    require(benefactors[_benefactorIndex].ethAddress != address(0), \"Must specify existing benefactor\");\n    require(bytes(cards[_cardIndex].tokenURI).length != 0, \"Must specify existing card\");\n    require(cards[_cardIndex].active, \"Must be an active card\");\n    require((_donationAmount + _giftAmount)<= daiContract.allowance(msg.sender, this), \"Must have provided high enough alowance to Radicard contract\");\n    require((_donationAmount + _giftAmount)<= daiContract.balanceOf(msg.sender), \"Must have enough token balance of dai to pay for donation and gift amount\");\n\n    if (cards[_cardIndex].maxQnty > 0){ //the max quantity is set to zero to indicate no limit. Only need to check that can mint if limited\n      require(cards[_cardIndex].minted < cards[_cardIndex].maxQnty, \"Can't exceed maximum quantity of card type\");\n    }\n\n    if(cards[_cardIndex].minPrice > 0){ //if the card has a minimum price check that enough has been sent\n      require((_donationAmount + _giftAmount) >= cards[_cardIndex].minPrice, \"The total dai sent with the transaction is less than the min price of the token\");\n    }\n\n    tokenIdToRadiCardIndex[tokenIdPointer] = RadiCard({\n        gifter : msg.sender,\n        daiDonation: true,\n        giftingAmount : _giftAmount,\n        donatingAmount: _donationAmount,\n        message : _message,\n        benefactorIndex : _benefactorIndex,\n        cardIndex : _cardIndex\n    });\n\n    uint256 _tokenId = _mint(to, cards[_cardIndex].tokenURI);\n\n    cards[_cardIndex].minted++;\n\n    // transfer the DAI to the benefactor and recipaint\n    if(_donationAmount > 0){\n        address _benefactorAddress = benefactors[_benefactorIndex].ethAddress;\n        require(daiContract.transferFrom(msg.sender, _benefactorAddress, _donationAmount),\"Sending to charity failed\");\n    }\n\n    if(_giftAmount > 0){\n        require(daiContract.transferFrom(msg.sender, to, _giftAmount),\"Sending to recipaint failed\");\n    }\n\n    // tally up the total eth gifted and donated\n    totalGiftedInAtto = totalGiftedInAtto.add(_giftAmount);\n    totalDonatedInAtto = totalDonatedInAtto.add(_donationAmount);\n\n    emit CardGifted(to, _benefactorIndex, _cardIndex, msg.sender, _tokenId);\n\n    return true;\n\n  }\n\n\n  function _mint(address to, string tokenURI) internal returns (uint256 _tokenId) {\n    uint256 tokenId = tokenIdPointer;\n\n    super._mint(to, tokenId);\n    _setTokenURI(tokenId, tokenURI);\n\n    tokenIdPointer = tokenIdPointer.add(1);\n\n    return tokenId;\n  }\n\n  function burn(uint256 _tokenId) public pure  {\n    revert(\"Radi.Cards are censorship resistant!\");\n  }\n\n  function tokenURI(uint256 _tokenId) public view returns (string) {\n    require(exists(_tokenId));\n\n    return Strings.strConcat(tokenBaseURI, tokenURIs[_tokenId]);\n  }\n\n  function tokenDetails(uint256 _tokenId)\n  public view\n  returns (\n    address _gifter,\n    bool _daiDonation,\n    uint256 _giftingAmount,\n    uint256 _donatingAmount,\n    string _message,\n    uint256 _cardIndex,\n    uint256 _benefactorIndex\n  ) {\n    require(exists(_tokenId));\n    RadiCard memory _radiCard = tokenIdToRadiCardIndex[_tokenId];\n    return (\n      _radiCard.gifter,\n      _radiCard.daiDonation,\n      _radiCard.giftingAmount,\n      _radiCard.donatingAmount,\n      _radiCard.message,\n      _radiCard.cardIndex,\n      _radiCard.benefactorIndex\n    );\n  }\n\n  function tokenBenefactor(uint256 _tokenId)\n  public view\n  returns (\n    address _ethAddress,\n    string _name,\n    string _website,\n    string _logo\n  ) {\n    require(exists(_tokenId));\n    RadiCard memory _radiCard = tokenIdToRadiCardIndex[_tokenId];\n    Benefactor memory _benefactor = benefactors[_radiCard.benefactorIndex];\n    return (\n      _benefactor.ethAddress,\n      _benefactor.name,\n      _benefactor.website,\n      _benefactor.logo\n    );\n  }\n\n  function tokensOf(address _owner) public view returns (uint256[] _tokenIds) {\n    return ownedTokens[_owner];\n  }\n\n  function benefactorsKeys() public view returns (uint256[] _keys) {\n    return benefactorsIndex;\n  }\n\n  function cardsKeys() public view returns (uint256[] _keys) {\n    return cardsIndex;\n  }\n\n  function addBenefactor(uint256 _benefactorIndex, address _ethAddress, string _name, string _website, string _logo)\n  public onlyIfWhitelisted(msg.sender)\n  returns (bool) {\n    require(address(_ethAddress) != address(0), \"Invalid address\");\n    require(bytes(_name).length != 0, \"Invalid name\");\n    require(bytes(_website).length != 0, \"Invalid name\");\n    require(bytes(_logo).length != 0, \"Invalid name\");\n\n    benefactors[_benefactorIndex] = Benefactor(\n      _ethAddress,\n      _name,\n      _website,\n      _logo\n    );\n    benefactorsIndex.push(_benefactorIndex);\n\n    emit BenefactorAdded(_benefactorIndex);\n    return true;\n  }\n\n  function addCard(uint256 _cardIndex, string _tokenURI, bool _active, uint256 _maxQnty, uint256 _minPrice)\n  public onlyIfWhitelisted(msg.sender)\n  returns (bool) {\n    require(bytes(_tokenURI).length != 0, \"Invalid token URI\");\n\n    cards[_cardIndex] = CardDesign(\n      _tokenURI,\n      _active,\n      0,\n      _maxQnty,\n      _minPrice\n    );\n    cardsIndex.push(_cardIndex);\n\n    emit CardAdded(_cardIndex);\n    return true;\n  }\n\n  function setTokenBaseURI(string _newBaseURI) external onlyIfWhitelisted(msg.sender) {\n    require(bytes(_newBaseURI).length != 0, \"Base URI invalid\");\n\n    tokenBaseURI = _newBaseURI;\n  }\n\n  function setActive(uint256 _cardIndex, bool _active) external onlyIfWhitelisted(msg.sender) {\n    require(bytes(cards[_cardIndex].tokenURI).length != 0, \"Must specify existing card\");\n    cards[_cardIndex].active = _active;\n  }\n\n  function setMaxQuantity(uint256 _cardIndex, uint256 _maxQnty) external onlyIfWhitelisted(msg.sender) {\n    require(bytes(cards[_cardIndex].tokenURI).length != 0, \"Must specify existing card\");\n    require(cards[_cardIndex].minted<=_maxQnty, \"Cant set the max quantity less than the current total minted\");\n    cards[_cardIndex].maxQnty = _maxQnty;\n  }\n\n  function setMinPrice(uint256 _cardIndex, uint256 _minPrice) external onlyIfWhitelisted(msg.sender) {\n    require(bytes(cards[_cardIndex].tokenURI).length != 0, \"Must specify existing card\");\n    cards[_cardIndex].minPrice = _minPrice;\n  }\n\n  function setDaiContractAddress(address _daiERC20ContractAddress) external onlyIfWhitelisted(msg.sender){\n    require(_daiERC20ContractAddress != address(0));\n    daiContract = StandardToken(_daiERC20ContractAddress);\n  }\n\n  function setMedianizerContractAddress(address _MedianizerContractAddress) external onlyIfWhitelisted(msg.sender){\n    require(_MedianizerContractAddress != address(0));\n    medianizerContract = Medianizer(_MedianizerContractAddress);\n  }\n\n  // returns the current ether price in usd. 18 decimal point precision used\n  function getEtherPrice() public view returns(uint256){\n    return uint256(medianizerContract.read());\n  }\n\n  //returns the value of ether in atto  (1 usd of ether = 10^18 atto)\n  function getEthUsdValue(uint256 _ether) public view returns(uint256){\n    return ((_ether*getEtherPrice())/(1 ether));\n  }\n\n  //returns the minimum required in wei for a particular card given the card min price in dai\n  function getMinCardPriceInWei(uint256 _cardIndex) public view returns(uint256){\n    return ((cards[_cardIndex].minPrice*1 ether)/getEtherPrice());\n  }\n}\n",
  "sourcePath": "/Users/chris/Projects/radi.cards/contracts/RadiCards.sol",
  "compiler": {
    "name": "solc",
    "version": "0.4.24+commit.e67f0147.Emscripten.clang"
  },
  "schemaVersion": "3.0.1",
  "updatedAt": "2019-01-17T11:37:10.730Z",
  "devdoc": {
    "author": "blockrocket.tech (smart contracts)cryptodecks.coknownorigin.iopheme.appd1labs.commbdoesthings.comchrismaree.io (smart contracts update)",
    "methods": {
      "addAddressToWhitelist(address)": {
        "details": "add an address to the whitelist",
        "params": {
          "_operator": "address"
        },
        "return": "true if the address was added to the whitelist, false if the address was already in the whitelist"
      },
      "addAddressesToWhitelist(address[])": {
        "details": "add addresses to the whitelist",
        "params": {
          "_operators": "addresses"
        },
        "return": "true if at least one address was added to the whitelist, false if all addresses were already in the whitelist"
      },
      "approve(address,uint256)": {
        "details": "Approves another address to transfer the given token ID The zero address indicates there is no approved address. There can only be one approved address per token at a given time. Can only be called by the token owner or an approved operator.",
        "params": {
          "_to": "address to be approved for the given token ID",
          "_tokenId": "uint256 ID of the token to be approved"
        }
      },
      "balanceOf(address)": {
        "details": "Gets the balance of the specified address",
        "params": {
          "_owner": "address to query the balance of"
        },
        "return": "uint256 representing the amount owned by the passed address"
      },
      "checkRole(address,string)": {
        "details": "reverts if addr does not have role",
        "params": {
          "_operator": "address",
          "_role": "the name of the role // reverts"
        }
      },
      "exists(uint256)": {
        "details": "Returns whether the specified token exists",
        "params": {
          "_tokenId": "uint256 ID of the token to query the existence of"
        },
        "return": "whether the token exists"
      },
      "getApproved(uint256)": {
        "details": "Gets the approved address for a token ID, or zero if no address set",
        "params": {
          "_tokenId": "uint256 ID of the token to query the approval of"
        },
        "return": "address currently approved for the given token ID"
      },
      "hasRole(address,string)": {
        "details": "determine if addr has role",
        "params": {
          "_operator": "address",
          "_role": "the name of the role"
        },
        "return": "bool"
      },
      "isApprovedForAll(address,address)": {
        "details": "Tells whether an operator is approved by a given owner",
        "params": {
          "_operator": "operator address which you want to query the approval of",
          "_owner": "owner address which you want to query the approval of"
        },
        "return": "bool whether the given operator is approved by the given owner"
      },
      "name()": {
        "details": "Gets the token name",
        "return": "string representing the token name"
      },
      "ownerOf(uint256)": {
        "details": "Gets the owner of the specified token ID",
        "params": {
          "_tokenId": "uint256 ID of the token to query the owner of"
        },
        "return": "owner address currently marked as the owner of the given token ID"
      },
      "removeAddressFromWhitelist(address)": {
        "details": "remove an address from the whitelist",
        "params": {
          "_operator": "address"
        },
        "return": "true if the address was removed from the whitelist, false if the address wasn't in the whitelist in the first place"
      },
      "removeAddressesFromWhitelist(address[])": {
        "details": "remove addresses from the whitelist",
        "params": {
          "_operators": "addresses"
        },
        "return": "true if at least one address was removed from the whitelist, false if all addresses weren't in the whitelist in the first place"
      },
      "renounceOwnership()": {
        "details": "Allows the current owner to relinquish control of the contract."
      },
      "safeTransferFrom(address,address,uint256)": {
        "details": "Safely transfers the ownership of a given token ID to another address If the target address is a contract, it must implement `onERC721Received`, which is called upon a safe transfer, and return the magic value `bytes4(keccak256(\"onERC721Received(address,address,uint256,bytes)\"))`; otherwise, the transfer is reverted.   * Requires the msg sender to be the owner, approved, or operator",
        "params": {
          "_from": "current owner of the token",
          "_to": "address to receive the ownership of the given token ID",
          "_tokenId": "uint256 ID of the token to be transferred"
        }
      },
      "safeTransferFrom(address,address,uint256,bytes)": {
        "details": "Safely transfers the ownership of a given token ID to another address If the target address is a contract, it must implement `onERC721Received`, which is called upon a safe transfer, and return the magic value `bytes4(keccak256(\"onERC721Received(address,address,uint256,bytes)\"))`; otherwise, the transfer is reverted. Requires the msg sender to be the owner, approved, or operator",
        "params": {
          "_data": "bytes data to send along with a safe transfer check",
          "_from": "current owner of the token",
          "_to": "address to receive the ownership of the given token ID",
          "_tokenId": "uint256 ID of the token to be transferred"
        }
      },
      "setApprovalForAll(address,bool)": {
        "details": "Sets or unsets the approval of a given operator An operator is allowed to transfer all tokens of the sender on their behalf",
        "params": {
          "_approved": "representing the status of the approval to be set",
          "_to": "operator address to set the approval"
        }
      },
      "supportsInterface(bytes4)": {
        "details": "implement supportsInterface(bytes4) using a lookup table"
      },
      "symbol()": {
        "details": "Gets the token symbol",
        "return": "string representing the token symbol"
      },
      "tokenByIndex(uint256)": {
        "details": "Gets the token ID at a given index of all the tokens in this contract Reverts if the index is greater or equal to the total number of tokens",
        "params": {
          "_index": "uint256 representing the index to be accessed of the tokens list"
        },
        "return": "uint256 token ID at the given index of the tokens list"
      },
      "tokenOfOwnerByIndex(address,uint256)": {
        "details": "Gets the token ID at a given index of the tokens list of the requested owner",
        "params": {
          "_index": "uint256 representing the index to be accessed of the requested tokens list",
          "_owner": "address owning the tokens list to be accessed"
        },
        "return": "uint256 token ID at the given index of the tokens list owned by the requested address"
      },
      "totalSupply()": {
        "details": "Gets the total amount of tokens stored by the contract",
        "return": "uint256 representing the total amount of tokens"
      },
      "transferFrom(address,address,uint256)": {
        "details": "Transfers the ownership of a given token ID to another address Usage of this method is discouraged, use `safeTransferFrom` whenever possible Requires the msg sender to be the owner, approved, or operator",
        "params": {
          "_from": "current owner of the token",
          "_to": "address to receive the ownership of the given token ID",
          "_tokenId": "uint256 ID of the token to be transferred"
        }
      },
      "transferOwnership(address)": {
        "details": "Allows the current owner to transfer control of the contract to a newOwner.",
        "params": {
          "_newOwner": "The address to transfer ownership to."
        }
      },
      "whitelist(address)": {
        "details": "getter to determine if address is in whitelist"
      }
    },
    "title": "Radi.Cards"
  },
  "userdoc": {
    "methods": {
      "renounceOwnership()": {
        "notice": "Renouncing to ownership will leave the contract without an owner. It will not be possible to call the functions with the `onlyOwner` modifier anymore."
      }
    }
  }
}