{
  "contractName": "RadiCards",
  "abi": [
    {
      "constant": true,
      "inputs": [
        {
          "name": "_interfaceId",
          "type": "bytes4"
        }
      ],
      "name": "supportsInterface",
      "outputs": [
        {
          "name": "",
          "type": "bool"
        }
      ],
      "payable": false,
      "stateMutability": "view",
      "type": "function"
    },
    {
      "constant": true,
      "inputs": [],
      "name": "name",
      "outputs": [
        {
          "name": "",
          "type": "string"
        }
      ],
      "payable": false,
      "stateMutability": "view",
      "type": "function"
    },
    {
      "constant": true,
      "inputs": [
        {
          "name": "",
          "type": "uint256"
        }
      ],
      "name": "tokenIdToRadiCardIndex",
      "outputs": [
        {
          "name": "creator",
          "type": "address"
        },
        {
          "name": "giftingAmount",
          "type": "uint256"
        },
        {
          "name": "donatingAmount",
          "type": "uint256"
        },
        {
          "name": "message",
          "type": "string"
        },
        {
          "name": "extra",
          "type": "string"
        },
        {
          "name": "cardIndex",
          "type": "uint256"
        },
        {
          "name": "benefactorIndex",
          "type": "uint256"
        }
      ],
      "payable": false,
      "stateMutability": "view",
      "type": "function"
    },
    {
      "constant": true,
      "inputs": [
        {
          "name": "_tokenId",
          "type": "uint256"
        }
      ],
      "name": "getApproved",
      "outputs": [
        {
          "name": "",
          "type": "address"
        }
      ],
      "payable": false,
      "stateMutability": "view",
      "type": "function"
    },
    {
      "constant": false,
      "inputs": [
        {
          "name": "_to",
          "type": "address"
        },
        {
          "name": "_tokenId",
          "type": "uint256"
        }
      ],
      "name": "approve",
      "outputs": [],
      "payable": false,
      "stateMutability": "nonpayable",
      "type": "function"
    },
    {
      "constant": true,
      "inputs": [
        {
          "name": "_operator",
          "type": "address"
        },
        {
          "name": "_role",
          "type": "string"
        }
      ],
      "name": "checkRole",
      "outputs": [],
      "payable": false,
      "stateMutability": "view",
      "type": "function"
    },
    {
      "constant": true,
      "inputs": [
        {
          "name": "",
          "type": "uint256"
        }
      ],
      "name": "benefactors",
      "outputs": [
        {
          "name": "ethAddress",
          "type": "address"
        },
        {
          "name": "name",
          "type": "string"
        },
        {
          "name": "website",
          "type": "string"
        },
        {
          "name": "logo",
          "type": "string"
        }
      ],
      "payable": false,
      "stateMutability": "view",
      "type": "function"
    },
    {
      "constant": true,
      "inputs": [],
      "name": "totalSupply",
      "outputs": [
        {
          "name": "",
          "type": "uint256"
        }
      ],
      "payable": false,
      "stateMutability": "view",
      "type": "function"
    },
    {
      "constant": true,
      "inputs": [],
      "name": "ROLE_WHITELISTED",
      "outputs": [
        {
          "name": "",
          "type": "string"
        }
      ],
      "payable": false,
      "stateMutability": "view",
      "type": "function"
    },
    {
      "constant": true,
      "inputs": [],
      "name": "InterfaceId_ERC165",
      "outputs": [
        {
          "name": "",
          "type": "bytes4"
        }
      ],
      "payable": false,
      "stateMutability": "view",
      "type": "function"
    },
    {
      "constant": true,
      "inputs": [
        {
          "name": "_operator",
          "type": "address"
        },
        {
          "name": "_role",
          "type": "string"
        }
      ],
      "name": "hasRole",
      "outputs": [
        {
          "name": "",
          "type": "bool"
        }
      ],
      "payable": false,
      "stateMutability": "view",
      "type": "function"
    },
    {
      "constant": false,
      "inputs": [
        {
          "name": "_from",
          "type": "address"
        },
        {
          "name": "_to",
          "type": "address"
        },
        {
          "name": "_tokenId",
          "type": "uint256"
        }
      ],
      "name": "transferFrom",
      "outputs": [],
      "payable": false,
      "stateMutability": "nonpayable",
      "type": "function"
    },
    {
      "constant": false,
      "inputs": [
        {
          "name": "_operators",
          "type": "address[]"
        }
      ],
      "name": "removeAddressesFromWhitelist",
      "outputs": [],
      "payable": false,
      "stateMutability": "nonpayable",
      "type": "function"
    },
    {
      "constant": false,
      "inputs": [
        {
          "name": "_operator",
          "type": "address"
        }
      ],
      "name": "removeAddressFromWhitelist",
      "outputs": [],
      "payable": false,
      "stateMutability": "nonpayable",
      "type": "function"
    },
    {
      "constant": true,
      "inputs": [
        {
          "name": "_owner",
          "type": "address"
        },
        {
          "name": "_index",
          "type": "uint256"
        }
      ],
      "name": "tokenOfOwnerByIndex",
      "outputs": [
        {
          "name": "",
          "type": "uint256"
        }
      ],
      "payable": false,
      "stateMutability": "view",
      "type": "function"
    },
    {
      "constant": true,
      "inputs": [],
      "name": "tokenIdPointer",
      "outputs": [
        {
          "name": "",
          "type": "uint256"
        }
      ],
      "payable": false,
      "stateMutability": "view",
      "type": "function"
    },
    {
      "constant": false,
      "inputs": [
        {
          "name": "_from",
          "type": "address"
        },
        {
          "name": "_to",
          "type": "address"
        },
        {
          "name": "_tokenId",
          "type": "uint256"
        }
      ],
      "name": "safeTransferFrom",
      "outputs": [],
      "payable": false,
      "stateMutability": "nonpayable",
      "type": "function"
    },
    {
      "constant": true,
      "inputs": [],
      "name": "tokenBaseURI",
      "outputs": [
        {
          "name": "",
          "type": "string"
        }
      ],
      "payable": false,
      "stateMutability": "view",
      "type": "function"
    },
    {
      "constant": true,
      "inputs": [
        {
          "name": "_tokenId",
          "type": "uint256"
        }
      ],
      "name": "exists",
      "outputs": [
        {
          "name": "",
          "type": "bool"
        }
      ],
      "payable": false,
      "stateMutability": "view",
      "type": "function"
    },
    {
      "constant": true,
      "inputs": [
        {
          "name": "_index",
          "type": "uint256"
        }
      ],
      "name": "tokenByIndex",
      "outputs": [
        {
          "name": "",
          "type": "uint256"
        }
      ],
      "payable": false,
      "stateMutability": "view",
      "type": "function"
    },
    {
      "constant": true,
      "inputs": [
        {
          "name": "_tokenId",
          "type": "uint256"
        }
      ],
      "name": "ownerOf",
      "outputs": [
        {
          "name": "",
          "type": "address"
        }
      ],
      "payable": false,
      "stateMutability": "view",
      "type": "function"
    },
    {
      "constant": true,
      "inputs": [
        {
          "name": "_owner",
          "type": "address"
        }
      ],
      "name": "balanceOf",
      "outputs": [
        {
          "name": "",
          "type": "uint256"
        }
      ],
      "payable": false,
      "stateMutability": "view",
      "type": "function"
    },
    {
      "constant": false,
      "inputs": [],
      "name": "renounceOwnership",
      "outputs": [],
      "payable": false,
      "stateMutability": "nonpayable",
      "type": "function"
    },
    {
      "constant": false,
      "inputs": [
        {
          "name": "_operator",
          "type": "address"
        }
      ],
      "name": "addAddressToWhitelist",
      "outputs": [],
      "payable": false,
      "stateMutability": "nonpayable",
      "type": "function"
    },
    {
      "constant": true,
      "inputs": [],
      "name": "owner",
      "outputs": [
        {
          "name": "",
          "type": "address"
        }
      ],
      "payable": false,
      "stateMutability": "view",
      "type": "function"
    },
    {
      "constant": true,
      "inputs": [
        {
          "name": "",
          "type": "uint256"
        }
      ],
      "name": "cards",
      "outputs": [
        {
          "name": "tokenURI",
          "type": "string"
        },
        {
          "name": "active",
          "type": "bool"
        },
        {
          "name": "minted",
          "type": "uint256"
        },
        {
          "name": "maxQnty",
          "type": "uint256"
        }
      ],
      "payable": false,
      "stateMutability": "view",
      "type": "function"
    },
    {
      "constant": true,
      "inputs": [],
      "name": "symbol",
      "outputs": [
        {
          "name": "",
          "type": "string"
        }
      ],
      "payable": false,
      "stateMutability": "view",
      "type": "function"
    },
    {
      "constant": true,
      "inputs": [],
      "name": "totalDonatedInWei",
      "outputs": [
        {
          "name": "",
          "type": "uint256"
        }
      ],
      "payable": false,
      "stateMutability": "view",
      "type": "function"
    },
    {
      "constant": true,
      "inputs": [
        {
          "name": "_operator",
          "type": "address"
        }
      ],
      "name": "whitelist",
      "outputs": [
        {
          "name": "",
          "type": "bool"
        }
      ],
      "payable": false,
      "stateMutability": "view",
      "type": "function"
    },
    {
      "constant": false,
      "inputs": [
        {
          "name": "_to",
          "type": "address"
        },
        {
          "name": "_approved",
          "type": "bool"
        }
      ],
      "name": "setApprovalForAll",
      "outputs": [],
      "payable": false,
      "stateMutability": "nonpayable",
      "type": "function"
    },
    {
      "constant": true,
      "inputs": [],
      "name": "minContribution",
      "outputs": [
        {
          "name": "",
          "type": "uint256"
        }
      ],
      "payable": false,
      "stateMutability": "view",
      "type": "function"
    },
    {
      "constant": false,
      "inputs": [
        {
          "name": "_from",
          "type": "address"
        },
        {
          "name": "_to",
          "type": "address"
        },
        {
          "name": "_tokenId",
          "type": "uint256"
        },
        {
          "name": "_data",
          "type": "bytes"
        }
      ],
      "name": "safeTransferFrom",
      "outputs": [],
      "payable": false,
      "stateMutability": "nonpayable",
      "type": "function"
    },
    {
      "constant": false,
      "inputs": [
        {
          "name": "_operators",
          "type": "address[]"
        }
      ],
      "name": "addAddressesToWhitelist",
      "outputs": [],
      "payable": false,
      "stateMutability": "nonpayable",
      "type": "function"
    },
    {
      "constant": true,
      "inputs": [
        {
          "name": "_owner",
          "type": "address"
        },
        {
          "name": "_operator",
          "type": "address"
        }
      ],
      "name": "isApprovedForAll",
      "outputs": [
        {
          "name": "",
          "type": "bool"
        }
      ],
      "payable": false,
      "stateMutability": "view",
      "type": "function"
    },
    {
      "constant": false,
      "inputs": [
        {
          "name": "_newOwner",
          "type": "address"
        }
      ],
      "name": "transferOwnership",
      "outputs": [],
      "payable": false,
      "stateMutability": "nonpayable",
      "type": "function"
    },
    {
      "constant": true,
      "inputs": [],
      "name": "totalGiftedInWei",
      "outputs": [
        {
          "name": "",
          "type": "uint256"
        }
      ],
      "payable": false,
      "stateMutability": "view",
      "type": "function"
    },
    {
      "inputs": [],
      "payable": false,
      "stateMutability": "nonpayable",
      "type": "constructor"
    },
    {
      "anonymous": false,
      "inputs": [
        {
          "indexed": true,
          "name": "_to",
          "type": "address"
        },
        {
          "indexed": true,
          "name": "_benefactorIndex",
          "type": "uint256"
        },
        {
          "indexed": true,
          "name": "_cardIndex",
          "type": "uint256"
        },
        {
          "indexed": false,
          "name": "_from",
          "type": "address"
        },
        {
          "indexed": false,
          "name": "_tokenId",
          "type": "uint256"
        }
      ],
      "name": "CardGifted",
      "type": "event"
    },
    {
      "anonymous": false,
      "inputs": [
        {
          "indexed": true,
          "name": "_benefactorIndex",
          "type": "uint256"
        }
      ],
      "name": "BenefactorAdded",
      "type": "event"
    },
    {
      "anonymous": false,
      "inputs": [
        {
          "indexed": true,
          "name": "_cardIndex",
          "type": "uint256"
        }
      ],
      "name": "CardAdded",
      "type": "event"
    },
    {
      "anonymous": false,
      "inputs": [
        {
          "indexed": true,
          "name": "operator",
          "type": "address"
        },
        {
          "indexed": false,
          "name": "role",
          "type": "string"
        }
      ],
      "name": "RoleAdded",
      "type": "event"
    },
    {
      "anonymous": false,
      "inputs": [
        {
          "indexed": true,
          "name": "operator",
          "type": "address"
        },
        {
          "indexed": false,
          "name": "role",
          "type": "string"
        }
      ],
      "name": "RoleRemoved",
      "type": "event"
    },
    {
      "anonymous": false,
      "inputs": [
        {
          "indexed": true,
          "name": "previousOwner",
          "type": "address"
        }
      ],
      "name": "OwnershipRenounced",
      "type": "event"
    },
    {
      "anonymous": false,
      "inputs": [
        {
          "indexed": true,
          "name": "previousOwner",
          "type": "address"
        },
        {
          "indexed": true,
          "name": "newOwner",
          "type": "address"
        }
      ],
      "name": "OwnershipTransferred",
      "type": "event"
    },
    {
      "anonymous": false,
      "inputs": [
        {
          "indexed": true,
          "name": "_from",
          "type": "address"
        },
        {
          "indexed": true,
          "name": "_to",
          "type": "address"
        },
        {
          "indexed": true,
          "name": "_tokenId",
          "type": "uint256"
        }
      ],
      "name": "Transfer",
      "type": "event"
    },
    {
      "anonymous": false,
      "inputs": [
        {
          "indexed": true,
          "name": "_owner",
          "type": "address"
        },
        {
          "indexed": true,
          "name": "_approved",
          "type": "address"
        },
        {
          "indexed": true,
          "name": "_tokenId",
          "type": "uint256"
        }
      ],
      "name": "Approval",
      "type": "event"
    },
    {
      "anonymous": false,
      "inputs": [
        {
          "indexed": true,
          "name": "_owner",
          "type": "address"
        },
        {
          "indexed": true,
          "name": "_operator",
          "type": "address"
        },
        {
          "indexed": false,
          "name": "_approved",
          "type": "bool"
        }
      ],
      "name": "ApprovalForAll",
      "type": "event"
    },
    {
      "constant": false,
      "inputs": [
        {
          "name": "to",
          "type": "address"
        },
        {
          "name": "_benefactorIndex",
          "type": "uint256"
        },
        {
          "name": "_cardIndex",
          "type": "uint256"
        },
        {
          "name": "_message",
          "type": "string"
        },
        {
          "name": "_extra",
          "type": "string"
        },
        {
          "name": "_donationAmount",
          "type": "uint256"
        }
      ],
      "name": "gift",
      "outputs": [
        {
          "name": "",
          "type": "bool"
        }
      ],
      "payable": true,
      "stateMutability": "payable",
      "type": "function"
    },
    {
      "constant": true,
      "inputs": [
        {
          "name": "_tokenId",
          "type": "uint256"
        }
      ],
      "name": "burn",
      "outputs": [],
      "payable": false,
      "stateMutability": "pure",
      "type": "function"
    },
    {
      "constant": true,
      "inputs": [
        {
          "name": "_tokenId",
          "type": "uint256"
        }
      ],
      "name": "tokenURI",
      "outputs": [
        {
          "name": "",
          "type": "string"
        }
      ],
      "payable": false,
      "stateMutability": "view",
      "type": "function"
    },
    {
      "constant": true,
      "inputs": [
        {
          "name": "_tokenId",
          "type": "uint256"
        }
      ],
      "name": "tokenDetails",
      "outputs": [
        {
          "name": "_creator",
          "type": "address"
        },
        {
          "name": "_giftingAmount",
          "type": "uint256"
        },
        {
          "name": "_donatingAmount",
          "type": "uint256"
        },
        {
          "name": "_message",
          "type": "string"
        },
        {
          "name": "_extra",
          "type": "string"
        },
        {
          "name": "_cardIndex",
          "type": "uint256"
        },
        {
          "name": "_benefactorIndex",
          "type": "uint256"
        }
      ],
      "payable": false,
      "stateMutability": "view",
      "type": "function"
    },
    {
      "constant": true,
      "inputs": [
        {
          "name": "_tokenId",
          "type": "uint256"
        }
      ],
      "name": "tokenBenefactor",
      "outputs": [
        {
          "name": "_ethAddress",
          "type": "address"
        },
        {
          "name": "_name",
          "type": "string"
        },
        {
          "name": "_website",
          "type": "string"
        },
        {
          "name": "_logo",
          "type": "string"
        }
      ],
      "payable": false,
      "stateMutability": "view",
      "type": "function"
    },
    {
      "constant": true,
      "inputs": [
        {
          "name": "_owner",
          "type": "address"
        }
      ],
      "name": "tokensOf",
      "outputs": [
        {
          "name": "_tokenIds",
          "type": "uint256[]"
        }
      ],
      "payable": false,
      "stateMutability": "view",
      "type": "function"
    },
    {
      "constant": true,
      "inputs": [],
      "name": "benefactorsKeys",
      "outputs": [
        {
          "name": "_keys",
          "type": "uint256[]"
        }
      ],
      "payable": false,
      "stateMutability": "view",
      "type": "function"
    },
    {
      "constant": true,
      "inputs": [],
      "name": "cardsKeys",
      "outputs": [
        {
          "name": "_keys",
          "type": "uint256[]"
        }
      ],
      "payable": false,
      "stateMutability": "view",
      "type": "function"
    },
    {
      "constant": false,
      "inputs": [
        {
          "name": "_benefactorIndex",
          "type": "uint256"
        },
        {
          "name": "_ethAddress",
          "type": "address"
        },
        {
          "name": "_name",
          "type": "string"
        },
        {
          "name": "_website",
          "type": "string"
        },
        {
          "name": "_logo",
          "type": "string"
        }
      ],
      "name": "addBenefactor",
      "outputs": [
        {
          "name": "",
          "type": "bool"
        }
      ],
      "payable": false,
      "stateMutability": "nonpayable",
      "type": "function"
    },
    {
      "constant": false,
      "inputs": [
        {
          "name": "_cardIndex",
          "type": "uint256"
        },
        {
          "name": "_tokenURI",
          "type": "string"
        },
        {
          "name": "_active",
          "type": "bool"
        },
        {
          "name": "_maxQnty",
          "type": "uint256"
        }
      ],
      "name": "addCard",
      "outputs": [
        {
          "name": "",
          "type": "bool"
        }
      ],
      "payable": false,
      "stateMutability": "nonpayable",
      "type": "function"
    },
    {
      "constant": false,
      "inputs": [
        {
          "name": "_newBaseURI",
          "type": "string"
        }
      ],
      "name": "setTokenBaseURI",
      "outputs": [],
      "payable": false,
      "stateMutability": "nonpayable",
      "type": "function"
    },
    {
      "constant": false,
      "inputs": [
        {
          "name": "_minContribution",
          "type": "uint256"
        }
      ],
      "name": "setMinContribution",
      "outputs": [],
      "payable": false,
      "stateMutability": "nonpayable",
      "type": "function"
    },
    {
      "constant": false,
      "inputs": [
        {
          "name": "_cardIndex",
          "type": "uint256"
        },
        {
          "name": "_active",
          "type": "bool"
        }
      ],
      "name": "setActive",
      "outputs": [],
      "payable": false,
      "stateMutability": "nonpayable",
      "type": "function"
    },
    {
      "constant": false,
      "inputs": [
        {
          "name": "_cardIndex",
          "type": "uint256"
        },
        {
          "name": "_maxQnty",
          "type": "uint256"
        }
      ],
      "name": "setMaxQuantity",
      "outputs": [],
      "payable": false,
      "stateMutability": "nonpayable",
      "type": "function"
    }
  ],
  "bytecode": "0x60c0604052601c60808190527f68747470733a2f2f697066732e696e667572612e696f2f697066732f0000000060a09081526200004091600e91906200044c565b506000600f55662386f26fc100006010553480156200005e57600080fd5b50604080518082018252600981527f52616469436172647300000000000000000000000000000000000000000000006020808301919091528251808401909352600483527f52414449000000000000000000000000000000000000000000000000000000009083015290620000fc7f01ffc9a70000000000000000000000000000000000000000000000000000000064010000000062000229810204565b620001307f80ac58cd0000000000000000000000000000000000000000000000000000000064010000000062000229810204565b620001647f4f558e790000000000000000000000000000000000000000000000000000000064010000000062000229810204565b8151620001799060059060208501906200044c565b5080516200018f9060069060208401906200044c565b50620001c47f780e9d630000000000000000000000000000000000000000000000000000000064010000000062000229810204565b620001f87f5b5e139f0000000000000000000000000000000000000000000000000000000064010000000062000229810204565b5050600c8054600160a060020a03191633908117909155620002239064010000000062000296810204565b620004f1565b7fffffffff0000000000000000000000000000000000000000000000000000000080821614156200025957600080fd5b7fffffffff00000000000000000000000000000000000000000000000000000000166000908152602081905260409020805460ff19166001179055565b600c54600160a060020a03163314620002ae57600080fd5b620002fe816040805190810160405280600981526020017f77686974656c697374000000000000000000000000000000000000000000000081525062000301640100000000026401000000009004565b50565b6200037d82600d836040518082805190602001908083835b602083106200033a5780518252601f19909201916020918201910162000319565b51815160209384036101000a6000190180199092169116179052920194855250604051938490030190922092915050640100000000620004278102620038e41704565b81600160a060020a03167fbfec83d64eaa953f2708271a023ab9ee82057f8f3578d548c1a4ba0b5b700489826040518080602001828103825283818151815260200191508051906020019080838360005b83811015620003e8578181015183820152602001620003ce565b50505050905090810190601f168015620004165780820380516001836020036101000a031916815260200191505b509250505060405180910390a25050565b600160a060020a0316600090815260209190915260409020805460ff19166001179055565b828054600181600116156101000203166002900490600052602060002090601f016020900481019282601f106200048f57805160ff1916838001178555620004bf565b82800160010185558215620004bf579182015b82811115620004bf578251825591602001919060010190620004a2565b50620004cd929150620004d1565b5090565b620004ee91905b80821115620004cd5760008155600101620004d8565b90565b613eb280620005016000396000f30060806040526004361061025b5763ffffffff7c010000000000000000000000000000000000000000000000000000000060003504166301ffc9a7811461026057806303cfe12d146102ab57806306fdde03146103105780630701fd6b1461039a578063081812fc146104c5578063095ea7b3146104f95780630988ca8c1461051f578063128ee1611461058657806318160ddd146106fb57806318b919e91461072257806319fa8f50146107375780631db1b4fd1461077e578063217fe6c61461079657806323b872dd146107fd57806324953eaa14610827578063286dd3f51461087c5780632f745c591461089d57806337073a87146108c15780633b3a1a7a146109a65780633c16354d146109bb57806342842e0e14610a2057806342966c6814610a4a578063473b0d4614610a625780634e99b80014610a7a5780634f558e7914610a8f5780634f6ccce714610aa75780635a3f267214610abf5780636352211e14610ae057806370a0823114610af8578063715018a614610b19578063757000f714610b2e5780637b9417c814610b495780638355977414610b6a5780638da5cb5b14610c095780638dc1076814610c1e5780638ef79e9114610cc757806395d89b4114610ce75780639b10acdc14610cfc5780639b19251a14610d11578063a22cb46514610d32578063aaffadf314610d58578063b88d4fde14610d6d578063c87b56dd14610ddc578063e2ec6ec314610df4578063e60a955d14610e49578063e985e9c514610e66578063f2fde38b14610e8d578063f7ad51ce14610eae578063f9256de114610ec3578063fc314e3114610ed8575b600080fd5b34801561026c57600080fd5b506102977bffffffffffffffffffffffffffffffffffffffffffffffffffffffff1960043516610ef0565b604080519115158252519081900360200190f35b3480156102b757600080fd5b506102c0610f24565b60408051602080825283518183015283519192839290830191858101910280838360005b838110156102fc5781810151838201526020016102e4565b505050509050019250505060405180910390f35b34801561031c57600080fd5b50610325610f7d565b6040805160208082528351818301528351919283929083019185019080838360005b8381101561035f578181015183820152602001610347565b50505050905090810190601f16801561038c5780820380516001836020036101000a031916815260200191505b509250505060405180910390f35b3480156103a657600080fd5b506103b260043561100a565b6040518088600160a060020a0316600160a060020a031681526020018781526020018681526020018060200180602001858152602001848152602001838103835287818151815260200191508051906020019080838360005b8381101561042357818101518382015260200161040b565b50505050905090810190601f1680156104505780820380516001836020036101000a031916815260200191505b50838103825286518152865160209182019188019080838360005b8381101561048357818101518382015260200161046b565b50505050905090810190601f1680156104b05780820380516001836020036101000a031916815260200191505b50995050505050505050505060405180910390f35b3480156104d157600080fd5b506104dd600435611164565b60408051600160a060020a039092168252519081900360200190f35b34801561050557600080fd5b5061051d600160a060020a036004351660243561117f565b005b34801561052b57600080fd5b5060408051602060046024803582810135601f810185900485028601850190965285855261051d958335600160a060020a03169536956044949193909101919081908401838280828437509497506112359650505050505050565b34801561059257600080fd5b5061059e6004356112a3565b6040518085600160a060020a0316600160a060020a03168152602001806020018060200180602001848103845287818151815260200191508051906020019080838360005b838110156105fb5781810151838201526020016105e3565b50505050905090810190601f1680156106285780820380516001836020036101000a031916815260200191505b50848103835286518152865160209182019188019080838360005b8381101561065b578181015183820152602001610643565b50505050905090810190601f1680156106885780820380516001836020036101000a031916815260200191505b50848103825285518152855160209182019187019080838360005b838110156106bb5781810151838201526020016106a3565b50505050905090810190601f1680156106e85780820380516001836020036101000a031916815260200191505b5097505050505050505060405180910390f35b34801561070757600080fd5b50610710611479565b60408051918252519081900360200190f35b34801561072e57600080fd5b5061032561147f565b34801561074357600080fd5b5061074c6114a4565b604080517bffffffffffffffffffffffffffffffffffffffffffffffffffffffff199092168252519081900360200190f35b34801561078a57600080fd5b5061059e6004356114c8565b3480156107a257600080fd5b5060408051602060046024803582810135601f8101859004850286018501909652858552610297958335600160a060020a031695369560449491939091019190819084018382808284375094975061187f9650505050505050565b34801561080957600080fd5b5061051d600160a060020a03600435811690602435166044356118f2565b34801561083357600080fd5b506040805160206004803580820135838102808601850190965280855261051d953695939460249493850192918291850190849080828437509497506119959650505050505050565b34801561088857600080fd5b5061051d600160a060020a03600435166119e4565b3480156108a957600080fd5b50610710600160a060020a0360043516602435611a2b565b3480156108cd57600080fd5b50604080516020600460443581810135601f81018490048402850184019095528484526102979482359460248035600160a060020a03169536959460649492019190819084018382808284375050604080516020601f89358b018035918201839004830284018301909452808352979a99988101979196509182019450925082915084018382808284375050604080516020601f89358b018035918201839004830284018301909452808352979a999881019791965091820194509250829150840183828082843750949750611a789650505050505050565b3480156109b257600080fd5b50610710611d29565b3480156109c757600080fd5b5060408051602060046024803582810135601f8101859004850286018501909652858552610297958335953695604494919390910191908190840183828082843750949750505050823515159350505060200135611d2f565b348015610a2c57600080fd5b5061051d600160a060020a0360043581169060243516604435611e9e565b348015610a5657600080fd5b5061051d600435611ebf565b348015610a6e57600080fd5b5061051d600435611f34565b348015610a8657600080fd5b50610325611fc0565b348015610a9b57600080fd5b5061029760043561204e565b348015610ab357600080fd5b5061071060043561206b565b348015610acb57600080fd5b506102c0600160a060020a03600435166120a0565b348015610aec57600080fd5b506104dd60043561210c565b348015610b0457600080fd5b50610710600160a060020a0360043516612136565b348015610b2557600080fd5b5061051d612169565b348015610b3a57600080fd5b5061051d6004356024356121d7565b348015610b5557600080fd5b5061051d600160a060020a0360043516612322565b604080516020601f60643560048181013592830184900484028501840190955281845261029794600160a060020a03813516946024803595604435953695608494930191819084018382808284375050604080516020601f89358b018035918201839004830284018301909452808352979a99988101979196509182019450925082915084018382808284375094975050933594506123669350505050565b348015610c1557600080fd5b506104dd61295d565b348015610c2a57600080fd5b50610c3660043561296c565b604051808060200185151515158152602001848152602001838152602001828103825286818151815260200191508051906020019080838360005b83811015610c89578181015183820152602001610c71565b50505050905090810190601f168015610cb65780820380516001836020036101000a031916815260200191505b509550505050505060405180910390f35b348015610cd357600080fd5b5061051d6004803560248101910135612a25565b348015610cf357600080fd5b50610325612abc565b348015610d0857600080fd5b50610710612b1d565b348015610d1d57600080fd5b50610297600160a060020a0360043516612b23565b348015610d3e57600080fd5b5061051d600160a060020a03600435166024351515612b52565b348015610d6457600080fd5b50610710612bd6565b348015610d7957600080fd5b50604080516020601f60643560048181013592830184900484028501840190955281845261051d94600160a060020a038135811695602480359092169560443595369560849401918190840183828082843750949750612bdc9650505050505050565b348015610de857600080fd5b50610325600435612bfe565b348015610e0057600080fd5b506040805160206004803580820135838102808601850190965280855261051d95369593946024949385019291829185019084908082843750949750612d429650505050505050565b348015610e5557600080fd5b5061051d6004356024351515612d91565b348015610e7257600080fd5b50610297600160a060020a0360043581169060243516612e5b565b348015610e9957600080fd5b5061051d600160a060020a0360043516612e89565b348015610eba57600080fd5b506102c0612ea9565b348015610ecf57600080fd5b50610710612eff565b348015610ee457600080fd5b506103b2600435612f05565b7bffffffffffffffffffffffffffffffffffffffffffffffffffffffff191660009081526020819052604090205460ff1690565b60606012805480602002602001604051908101604052809291908181526020018280548015610f7257602002820191906000526020600020905b815481526020019060010190808311610f5e575b505050505090505b90565b60058054604080516020601f6002600019610100600188161502019095169490940493840181900481028201810190925282815260609390929091830182828015610f725780601f10610fde57610100808354040283529160200191610f72565b820191906000526020600020905b815481529060010190602001808311610fec57509395945050505050565b601560209081526000918252604091829020805460018083015460028085015460038601805489516101009682161596909602600019011692909204601f8101889004880285018801909852878452600160a060020a039094169691959394939091908301828280156110be5780601f10611093576101008083540402835291602001916110be565b820191906000526020600020905b8154815290600101906020018083116110a157829003601f168201915b5050505060048301805460408051602060026001851615610100026000190190941693909304601f810184900484028201840190925281815294959493509083018282801561114e5780601f106111235761010080835404028352916020019161114e565b820191906000526020600020905b81548152906001019060200180831161113157829003601f168201915b5050505050908060050154908060060154905087565b600090815260026020526040902054600160a060020a031690565b600061118a8261210c565b9050600160a060020a0383811690821614156111a557600080fd5b33600160a060020a03821614806111c157506111c18133612e5b565b15156111cc57600080fd5b600082815260026020526040808220805473ffffffffffffffffffffffffffffffffffffffff1916600160a060020a0387811691821790925591518593918516917f8c5be1e5ebec7d5bd14f71427d1e84f3dd0314c0f7b2291e5b200ac8c7c3b92591a4505050565b61129f82600d836040518082805190602001908083835b6020831061126b5780518252601f19909201916020918201910161124c565b51815160209384036101000a60001901801990921691161790529201948552506040519384900301909220929150506130e0565b5050565b6011602090815260009182526040918290208054600180830180548651600261010094831615949094026000190190911692909204601f8101869004860283018601909652858252600160a060020a0390921694929390929083018282801561134d5780601f106113225761010080835404028352916020019161134d565b820191906000526020600020905b81548152906001019060200180831161133057829003601f168201915b50505060028085018054604080516020601f60001961010060018716150201909416959095049283018590048502810185019091528181529596959450909250908301828280156113df5780601f106113b4576101008083540402835291602001916113df565b820191906000526020600020905b8154815290600101906020018083116113c257829003601f168201915b5050505060038301805460408051602060026001851615610100026000190190941693909304601f810184900484028201840190925281815294959493509083018282801561146f5780601f106114445761010080835404028352916020019161146f565b820191906000526020600020905b81548152906001019060200180831161145257829003601f168201915b5050505050905084565b60095490565b6040805180820190915260098152600080516020613e67833981519152602082015281565b7f01ffc9a70000000000000000000000000000000000000000000000000000000081565b600060608060606114d7613cc7565b6114df613d0e565b6114e88761204e565b15156114f357600080fd5b600087815260156020908152604091829020825160e0810184528154600160a060020a03168152600180830154828501526002808401548387015260038401805487516101009482161594909402600019011691909104601f8101869004860283018601909652858252919492936060860193919291908301828280156115bb5780601f10611590576101008083540402835291602001916115bb565b820191906000526020600020905b81548152906001019060200180831161159e57829003601f168201915b505050918352505060048201805460408051602060026001851615610100026000190190941693909304601f810184900484028201840190925281815293820193929183018282801561164f5780601f106116245761010080835404028352916020019161164f565b820191906000526020600020905b81548152906001019060200180831161163257829003601f168201915b5050509183525050600582015460208083019190915260069092015460409182015260c083015160009081526011835281902081516080810183528154600160a060020a03168152600180830180548551600261010094831615949094026000190190911692909204601f810187900487028301870190955284825295975090949193858101939192919083018282801561172b5780601f106117005761010080835404028352916020019161172b565b820191906000526020600020905b81548152906001019060200180831161170e57829003601f168201915b5050509183525050600282810180546040805160206001841615610100026000190190931694909404601f810183900483028501830190915280845293810193908301828280156117bd5780601f10611792576101008083540402835291602001916117bd565b820191906000526020600020905b8154815290600101906020018083116117a057829003601f168201915b505050918352505060038201805460408051602060026001851615610100026000190190941693909304601f81018490048402820184019092528181529382019392918301828280156118515780601f1061182657610100808354040283529160200191611851565b820191906000526020600020905b81548152906001019060200180831161183457829003601f168201915b505050919092525050815160208301516040840151606090940151919b909a50929850965090945050505050565b60006118eb83600d846040518082805190602001908083835b602083106118b75780518252601f199092019160209182019101611898565b51815160209384036101000a60001901801990921691161790529201948552506040519384900301909220929150506130f5565b9392505050565b6118fc3382613114565b151561190757600080fd5b600160a060020a038316151561191c57600080fd5b600160a060020a038216151561193157600080fd5b61193b8382613173565b61194583826131e2565b61194f82826132e9565b8082600160a060020a031684600160a060020a03167fddf252ad1be2c89b69c2b068fc378daa952ba7f163c4a11628f55a4df523b3ef60405160405180910390a4505050565b600c54600090600160a060020a031633146119af57600080fd5b5060005b815181101561129f576119dc82828151811015156119cd57fe5b906020019060200201516119e4565b6001016119b3565b600c54600160a060020a031633146119fb57600080fd5b611a2881604080519081016040528060098152602001600080516020613e67833981519152815250613332565b50565b6000611a3683612136565b8210611a4157600080fd5b600160a060020a0383166000908152600760205260409020805483908110611a6557fe5b9060005260206000200154905092915050565b600033611aa881604080519081016040528060098152602001600080516020613e67833981519152815250611235565b600160a060020a0386161515611b08576040805160e560020a62461bcd02815260206004820152600f60248201527f496e76616c696420616464726573730000000000000000000000000000000000604482015290519081900360640190fd5b84511515611b60576040805160e560020a62461bcd02815260206004820152600c60248201527f496e76616c6964206e616d650000000000000000000000000000000000000000604482015290519081900360640190fd5b83511515611bb8576040805160e560020a62461bcd02815260206004820152600c60248201527f496e76616c6964206e616d650000000000000000000000000000000000000000604482015290519081900360640190fd5b82511515611c10576040805160e560020a62461bcd02815260206004820152600c60248201527f496e76616c6964206e616d650000000000000000000000000000000000000000604482015290519081900360640190fd5b60408051608081018252600160a060020a03888116825260208083018981528385018990526060840188905260008c815260118352949094208351815473ffffffffffffffffffffffffffffffffffffffff191693169290921782559251805192939192611c849260018501920190613d40565b5060408201518051611ca0916002840191602090910190613d40565b5060608201518051611cbc916003840191602090910190613d40565b50506012805460018101825560009182527fbb8a6a4669ba250d26cd7a459eca9d215f8307e33aebe50379bc5a3617ec3444018990556040518992507f5f4aa3ef0a4bf82c0f10f704eb578f57422b27f40709f8a4aca4694b6bda8ab39190a25060019695505050505050565b600f5481565b600033611d5f81604080519081016040528060098152602001600080516020613e67833981519152815250611235565b84511515611db7576040805160e560020a62461bcd02815260206004820152601160248201527f496e76616c696420746f6b656e20555249000000000000000000000000000000604482015290519081900360640190fd5b6040805160808101825286815285151560208083019190915260008284018190526060830187905289815260138252929092208151805192939192611dff9284920190613d40565b5060208201516001828101805460ff191692151592909217909155604080840151600284015560609093015160039092019190915560148054918201815560009081527fce6d7b5282bd9a3661ae061feed1dbda4e52ab073b1f9285be6e155d9c38d4ec909101889055905187917fee4df2a71cd5144f989eafc284d855a4cc517ca03f21c5270ed8e2e9dcc3d29c91a2600191505b50949350505050565b611eba8383836020604051908101604052806000815250612bdc565b505050565b6040805160e560020a62461bcd028152602060048201526024808201527f526164692e4361726473206172652063656e736f72736869702072657369737460448201527f616e742100000000000000000000000000000000000000000000000000000000606482015290519081900360840190fd5b33611f6281604080519081016040528060098152602001600080516020613e67833981519152815250611235565b60008211611fba576040805160e560020a62461bcd02815260206004820152601c60248201527f496e76616c6964206d696e696d756d20636f6e747269627574696f6e00000000604482015290519081900360640190fd5b50601055565b600e805460408051602060026001851615610100026000190190941693909304601f810184900484028201840190925281815292918301828280156120465780601f1061201b57610100808354040283529160200191612046565b820191906000526020600020905b81548152906001019060200180831161202957829003601f168201915b505050505081565b600090815260016020526040902054600160a060020a0316151590565b6000612075611479565b821061208057600080fd5b600980548390811061208e57fe5b90600052602060002001549050919050565b600160a060020a03811660009081526007602090815260409182902080548351818402810184019094528084526060939283018282801561210057602002820191906000526020600020905b8154815260200190600101908083116120ec575b50505050509050919050565b600081815260016020526040812054600160a060020a031680151561213057600080fd5b92915050565b6000600160a060020a038216151561214d57600080fd5b50600160a060020a031660009081526003602052604090205490565b600c54600160a060020a0316331461218057600080fd5b600c54604051600160a060020a03909116907ff8df31144d9c2f0f6b59d69b8b98abd5459d07f2742c4df920b25aae33c6482090600090a2600c805473ffffffffffffffffffffffffffffffffffffffff19169055565b3361220581604080519081016040528060098152602001600080516020613e67833981519152815250611235565b60008381526013602052604090205460026000196101006001841615020190911604151561227d576040805160e560020a62461bcd02815260206004820152601a60248201527f4d7573742073706563696679206578697374696e672063617264000000000000604482015290519081900360640190fd5b60008381526013602052604090206002015482101561230c576040805160e560020a62461bcd02815260206004820152603c60248201527f43616e742073657420746865206d6178207175616e74697479206c657373207460448201527f68616e207468652063757272656e7420746f74616c206d696e74656400000000606482015290519081900360840190fd5b5060009182526013602052604090912060030155565b600c54600160a060020a0316331461233957600080fd5b611a2881604080519081016040528060098152602001600080516020613e67833981519152815250613443565b60008080600160a060020a03891615156123ca576040805160e560020a62461bcd02815260206004820152601760248201527f4d75737420626520612076616c69642061646472657373000000000000000000604482015290519081900360640190fd5b600088815260116020526040902054600160a060020a03161515612438576040805160e560020a62461bcd02815260206004820181905260248201527f4d7573742073706563696679206578697374696e672062656e65666163746f72604482015290519081900360640190fd5b6000878152601360205260409020546002600019610100600184161502019091160415156124b0576040805160e560020a62461bcd02815260206004820152601a60248201527f4d7573742073706563696679206578697374696e672063617264000000000000604482015290519081900360640190fd5b60008781526013602052604090206001015460ff16151561251b576040805160e560020a62461bcd02815260206004820152601660248201527f4d75737420626520616e20616374697665206361726400000000000000000000604482015290519081900360640190fd5b34841115612599576040805160e560020a62461bcd02815260206004820152603260248201527f43616e2774207265717565737420746f20646f6e617465206d6f72652074686160448201527f6e20746f74616c2076616c75652073656e740000000000000000000000000000606482015290519081900360840190fd5b601054341015612619576040805160e560020a62461bcd02815260206004820152602560248201527f4d7573742073656e64206174206c6561737420746865206d696e696d756d206160448201527f6d6f756e74000000000000000000000000000000000000000000000000000000606482015290519081900360840190fd5b60008781526013602052604081206003015411156126c55760008781526013602052604090206003810154600290910154106126c5576040805160e560020a62461bcd02815260206004820152602a60248201527f43616e277420657863656564206d6178696d756d207175616e74697479206f6660448201527f2063617264207479706500000000000000000000000000000000000000000000606482015290519081900360840190fd5b6040805160e081018252338152348690036020808301828152838501898152606085018c8152608086018c905260a086018e905260c086018f9052600f54600090815260158552969096208551815473ffffffffffffffffffffffffffffffffffffffff1916600160a060020a0390911617815591516001830155516002820155935180519296509293926127639260038501929190910190613d40565b506080820151805161277f916004840191602090910190613d40565b5060a0820151600582015560c0909101516006909101556000878152601360209081526040918290208054835160026001831615610100026000190190921691909104601f8101849004840282018401909452838152612839938d9391929183018282801561282f5780601f106128045761010080835404028352916020019161282f565b820191906000526020600020905b81548152906001019060200180831161281257829003601f168201915b5050505050613515565b6000888152601360209081526040808320600201805460010190558b83526011909152808220549051929350600160a060020a03169186156108fc0291879190818181858888f19350505050158015612896573d6000803e3d6000fd5b5060008211156128d857604051600160a060020a038a169083156108fc029084906000818181858888f193505050501580156128d6573d6000803e3d6000fd5b505b6016546128eb908363ffffffff61354d16565b601655601754612901908563ffffffff61354d16565b6017556040805133815260208101839052815189928b92600160a060020a038e16927f124b55414cfccfb944398950a61aa7eebe0c5ff470bca91354cf83ade92cfc72929181900390910190a450600198975050505050505050565b600c54600160a060020a031681565b60136020908152600091825260409182902080548351601f60026000196101006001861615020190931692909204918201849004840281018401909452808452909291839190830182828015612a035780601f106129d857610100808354040283529160200191612a03565b820191906000526020600020905b8154815290600101906020018083116129e657829003601f168201915b5050505060018301546002840154600390940154929360ff9091169290915084565b33612a5381604080519081016040528060098152602001600080516020613e67833981519152815250611235565b811515612aaa576040805160e560020a62461bcd02815260206004820152601060248201527f426173652055524920696e76616c696400000000000000000000000000000000604482015290519081900360640190fd5b612ab6600e8484613dbe565b50505050565b60068054604080516020601f6002600019610100600188161502019095169490940493840181900481028201810190925282815260609390929091830182828015610f725780601f10610fde57610100808354040283529160200191610f72565b60175481565b600061213082604080519081016040528060098152602001600080516020613e6783398151915281525061187f565b600160a060020a038216331415612b6857600080fd5b336000818152600460209081526040808320600160a060020a03871680855290835292819020805460ff1916861515908117909155815190815290519293927f17307eab39ab6107e8899845ad3d59bd9653f200f220920489ca2b5937696c31929181900390910190a35050565b60105481565b612be78484846118f2565b612bf38484848461355a565b1515612ab657600080fd5b6060612c098261204e565b1515612c1457600080fd5b600e8054604080516020601f600260001961010060018816150201909516949094049384018190048102820181019092528281526121309390929091830182828015612ca15780601f10612c7657610100808354040283529160200191612ca1565b820191906000526020600020905b815481529060010190602001808311612c8457829003601f168201915b5050506000868152600b60209081526040918290208054835160026001831615610100026000190190921691909104601f810184900484028201840190945283815294509250830182828015612d385780601f10612d0d57610100808354040283529160200191612d38565b820191906000526020600020905b815481529060010190602001808311612d1b57829003601f168201915b50505050506136d7565b600c54600090600160a060020a03163314612d5c57600080fd5b5060005b815181101561129f57612d898282815181101515612d7a57fe5b90602001906020020151612322565b600101612d60565b33612dbf81604080519081016040528060098152602001600080516020613e67833981519152815250611235565b600083815260136020526040902054600260001961010060018416150201909116041515612e37576040805160e560020a62461bcd02815260206004820152601a60248201527f4d7573742073706563696679206578697374696e672063617264000000000000604482015290519081900360640190fd5b50600091825260136020526040909120600101805460ff1916911515919091179055565b600160a060020a03918216600090815260046020908152604080832093909416825291909152205460ff1690565b600c54600160a060020a03163314612ea057600080fd5b611a288161370c565b60606014805480602002602001604051908101604052809291908181526020018280548015610f725760200282019190600052602060002090815481526020019060010190808311610f5e575050505050905090565b60165481565b6000806000606080600080612f18613cc7565b612f218961204e565b1515612f2c57600080fd5b600089815260156020908152604091829020825160e0810184528154600160a060020a03168152600180830154828501526002808401548387015260038401805487516101009482161594909402600019011691909104601f810186900486028301860190965285825291949293606086019391929190830182828015612ff45780601f10612fc957610100808354040283529160200191612ff4565b820191906000526020600020905b815481529060010190602001808311612fd757829003601f168201915b505050918352505060048201805460408051602060026001851615610100026000190190941693909304601f81018490048402820184019092528181529382019392918301828280156130885780601f1061305d57610100808354040283529160200191613088565b820191906000526020600020905b81548152906001019060200180831161306b57829003601f168201915b50505091835250506005820154602080830191909152600690920154604091820152825191830151908301516060840151608085015160a086015160c090960151949f939e50919c509a509850919650945092505050565b6130ea82826130f5565b151561129f57600080fd5b600160a060020a03166000908152602091909152604090205460ff1690565b6000806131208361210c565b905080600160a060020a031684600160a060020a0316148061315b575083600160a060020a031661315084611164565b600160a060020a0316145b8061316b575061316b8185612e5b565b949350505050565b81600160a060020a03166131868261210c565b600160a060020a03161461319957600080fd5b600081815260026020526040902054600160a060020a03161561129f576000908152600260205260409020805473ffffffffffffffffffffffffffffffffffffffff1916905550565b60008060006131f1858561378a565b600084815260086020908152604080832054600160a060020a038916845260079092529091205490935061322c90600163ffffffff61382016565b600160a060020a03861660009081526007602052604090208054919350908390811061325457fe5b90600052602060002001549050806007600087600160a060020a0316600160a060020a031681526020019081526020016000208481548110151561329457fe5b6000918252602080832090910192909255600160a060020a03871681526007909152604090208054906132cb906000198301613e2c565b50600093845260086020526040808520859055908452909220555050565b60006132f58383613832565b50600160a060020a039091166000908152600760209081526040808320805460018101825590845282842081018590559383526008909152902055565b61339c82600d836040518082805190602001908083835b602083106133685780518252601f199092019160209182019101613349565b51815160209384036101000a60001901801990921691161790529201948552506040519384900301909220929150506138c2565b81600160a060020a03167fd211483f91fc6eff862467f8de606587a30c8fc9981056f051b897a418df803a826040518080602001828103825283818151815260200191508051906020019080838360005b838110156134055781810151838201526020016133ed565b50505050905090810190601f1680156134325780820380516001836020036101000a031916815260200191505b509250505060405180910390a25050565b6134ad82600d836040518082805190602001908083835b602083106134795780518252601f19909201916020918201910161345a565b51815160209384036101000a60001901801990921691161790529201948552506040519384900301909220929150506138e4565b81600160a060020a03167fbfec83d64eaa953f2708271a023ab9ee82057f8f3578d548c1a4ba0b5b70048982604051808060200182810382528381815181526020019150805190602001908083836000838110156134055781810151838201526020016133ed565b600f546000906135258482613909565b61352f8184613958565b600f5461354390600163ffffffff61354d16565b600f559392505050565b8181018281101561213057fe5b60008061356f85600160a060020a031661398b565b151561357e5760019150611e95565b6040517f150b7a020000000000000000000000000000000000000000000000000000000081523360048201818152600160a060020a03898116602485015260448401889052608060648501908152875160848601528751918a169463150b7a0294938c938b938b93909160a490910190602085019080838360005b838110156136115781810151838201526020016135f9565b50505050905090810190601f16801561363e5780820380516001836020036101000a031916815260200191505b5095505050505050602060405180830381600087803b15801561366057600080fd5b505af1158015613674573d6000803e3d6000fd5b505050506040513d602081101561368a57600080fd5b50517bffffffffffffffffffffffffffffffffffffffffffffffffffffffff19167f150b7a0200000000000000000000000000000000000000000000000000000000149695505050505050565b6040805160208181018352600080835283518083018552818152845192830190945281526060926118eb928692869290613993565b600160a060020a038116151561372157600080fd5b600c54604051600160a060020a038084169216907f8be0079c531659141344cd1fd0a4f28419497f9722a3daafe3b4186f6b6457e090600090a3600c805473ffffffffffffffffffffffffffffffffffffffff1916600160a060020a0392909216919091179055565b81600160a060020a031661379d8261210c565b600160a060020a0316146137b057600080fd5b600160a060020a0382166000908152600360205260409020546137da90600163ffffffff61382016565b600160a060020a03909216600090815260036020908152604080832094909455918152600190915220805473ffffffffffffffffffffffffffffffffffffffff19169055565b60008282111561382c57fe5b50900390565b600081815260016020526040902054600160a060020a03161561385457600080fd5b6000818152600160208181526040808420805473ffffffffffffffffffffffffffffffffffffffff1916600160a060020a03881690811790915584526003909152909120546138a29161354d565b600160a060020a0390921660009081526003602052604090209190915550565b600160a060020a0316600090815260209190915260409020805460ff19169055565b600160a060020a0316600090815260209190915260409020805460ff19166001179055565b6139138282613c6c565b600980546000838152600a60205260408120829055600182018355919091527f6e1540171b6c0c960b71a7020d9f60077f6af931a8bbf590da0223dacf75c7af015550565b6139618261204e565b151561396c57600080fd5b6000828152600b602090815260409091208251611eba92840190613d40565b6000903b1190565b6060806060806060806060806000808e98508d97508c96508b95508a94508451865188518a518c51010101016040519080825280601f01601f1916602001820160405280156139ec578160200160208202803883390190505b50935083925060009150600090505b8851811015613a71578881815181101515613a1257fe5b90602001015160f860020a900460f860020a028383806001019450815181101515613a3957fe5b9060200101907effffffffffffffffffffffffffffffffffffffffffffffffffffffffffffff1916908160001a9053506001016139fb565b5060005b8751811015613aeb578781815181101515613a8c57fe5b90602001015160f860020a900460f860020a028383806001019450815181101515613ab357fe5b9060200101907effffffffffffffffffffffffffffffffffffffffffffffffffffffffffffff1916908160001a905350600101613a75565b5060005b8651811015613b65578681815181101515613b0657fe5b90602001015160f860020a900460f860020a028383806001019450815181101515613b2d57fe5b9060200101907effffffffffffffffffffffffffffffffffffffffffffffffffffffffffffff1916908160001a905350600101613aef565b5060005b8551811015613bdf578581815181101515613b8057fe5b90602001015160f860020a900460f860020a028383806001019450815181101515613ba757fe5b9060200101907effffffffffffffffffffffffffffffffffffffffffffffffffffffffffffff1916908160001a905350600101613b69565b5060005b8451811015613c59578481815181101515613bfa57fe5b90602001015160f860020a900460f860020a028383806001019450815181101515613c2157fe5b9060200101907effffffffffffffffffffffffffffffffffffffffffffffffffffffffffffff1916908160001a905350600101613be3565b50909d9c50505050505050505050505050565b600160a060020a0382161515613c8157600080fd5b613c8b82826132e9565b6040518190600160a060020a038416906000907fddf252ad1be2c89b69c2b068fc378daa952ba7f163c4a11628f55a4df523b3ef908290a45050565b60e0604051908101604052806000600160a060020a031681526020016000815260200160008152602001606081526020016060815260200160008152602001600081525090565b6080604051908101604052806000600160a060020a031681526020016060815260200160608152602001606081525090565b828054600181600116156101000203166002900490600052602060002090601f016020900481019282601f10613d8157805160ff1916838001178555613dae565b82800160010185558215613dae579182015b82811115613dae578251825591602001919060010190613d93565b50613dba929150613e4c565b5090565b828054600181600116156101000203166002900490600052602060002090601f016020900481019282601f10613dff5782800160ff19823516178555613dae565b82800160010185558215613dae579182015b82811115613dae578235825591602001919060010190613e11565b815481835581811115611eba57600083815260209020611eba9181019083015b610f7a91905b80821115613dba5760008155600101613e52560077686974656c6973740000000000000000000000000000000000000000000000a165627a7a72305820af4f6591612d91d93ba6b68e494bd704e93943ffa48947278dcfd74f12608ba50029",
  "source": "pragma solidity ^0.4.24;\n\nimport \"openzeppelin-solidity/contracts/math/SafeMath.sol\";\nimport \"openzeppelin-solidity/contracts/access/Whitelist.sol\";\nimport \"openzeppelin-solidity/contracts/token/ERC721/ERC721Token.sol\";\n\nimport \"./Strings.sol\";\n\n/**\n* @title Radi.Cards\n*\n* @author blockrocket.tech (smart contracts)\n* @author cryptodecks.co\n* @author knownorigin.io\n* @author pheme.app\n* @author d1labs.com\n* @author mbdoesthings.com\n* @author chrismaree.io\n*/\ncontract RadiCards is ERC721Token, Whitelist {\n  using SafeMath for uint256;\n\n  string public tokenBaseURI = \"https://ipfs.infura.io/ipfs/\";\n\n  uint256 public tokenIdPointer = 0;\n  uint256 public minContribution = 0.01 ether;\n\n  struct Benefactor {\n    address ethAddress;\n    string name;\n    string website;\n    string logo;\n  }\n\n  struct CardDesign {\n    string tokenURI;\n    bool active;\n    uint minted;\n    uint maxQnty; //set to zero for unlimited\n  }\n\n  struct RadiCard {\n    // Metadata\n    address creator;\n    uint256 giftingAmount;\n    uint256 donatingAmount;\n    string message;\n    string extra;\n    // Lookups\n    uint256 cardIndex;\n    uint256 benefactorIndex;\n  }\n\n  event CardGifted(\n    address indexed _to,\n    uint256 indexed _benefactorIndex,\n    uint256 indexed _cardIndex,\n    address _from,\n    uint256 _tokenId\n  );\n\n  event BenefactorAdded(\n    uint256 indexed _benefactorIndex\n  );\n\n  event CardAdded(\n    uint256 indexed _cardIndex\n  );\n\n  mapping(uint256 => Benefactor) public benefactors;\n  uint256[] internal benefactorsIndex;\n\n  mapping(uint256 => CardDesign) public cards;\n  uint256[] internal cardsIndex;\n\n  mapping(uint256 => RadiCard) public tokenIdToRadiCardIndex;\n\n  uint256 public totalGiftedInWei;\n\n  uint256 public totalDonatedInWei;\n\n  constructor () public ERC721Token(\"RadiCards\", \"RADI\") {\n    addAddressToWhitelist(msg.sender);\n  }\n  /**\n    * @dev Creates a new NFT based off card information. \n    * Sends funds to charity and to recipiant. \n    * The msg.value - donationAmount defines the value sent to the recipiant\n    */\n  function gift(address to, uint256 _benefactorIndex, uint256 _cardIndex, string _message, string _extra, uint256 _donationAmount) payable public returns (bool) {\n    require(to != address(0), \"Must be a valid address\");\n    require(benefactors[_benefactorIndex].ethAddress != address(0), \"Must specify existing benefactor\");\n    require(bytes(cards[_cardIndex].tokenURI).length != 0, \"Must specify existing card\");\n    require(cards[_cardIndex].active, \"Must be an active card\");\n    require(_donationAmount <= msg.value,\"Can't request to donate more than total value sent\");\n    require(msg.value >= minContribution, \"Must send at least the minimum amount\");\n    \n    if (cards[_cardIndex].maxQnty > 0){ //the max quantity is set to zero to indicate no limit. Only need to check that can mint if limited\n      require(cards[_cardIndex].minted < cards[_cardIndex].maxQnty, \"Can't exceed maximum quantity of card type\");\n    }\n\n    uint256 _giftAmount = msg.value - _donationAmount;\n\n    tokenIdToRadiCardIndex[tokenIdPointer] = RadiCard({\n        creator : msg.sender,\n        giftingAmount : _giftAmount,\n        donatingAmount: _donationAmount,\n        message : _message,\n        extra : _extra,\n        benefactorIndex : _benefactorIndex,\n        cardIndex : _cardIndex\n    });\n\n    uint256 _tokenId = _mint(to, cards[_cardIndex].tokenURI);\n\n    cards[_cardIndex].minted++;\n\n    // transfer the ETH to the benefactor and recipaint\n    benefactors[_benefactorIndex].ethAddress.transfer(_donationAmount);\n    if(_giftAmount > 0){\n        to.transfer(_giftAmount);\n    }\n    \n    // tally up the total eth gifted and donated\n    totalGiftedInWei = totalGiftedInWei.add(_giftAmount);\n    totalDonatedInWei = totalDonatedInWei.add(_donationAmount);\n\n    emit CardGifted(to, _benefactorIndex, _cardIndex, msg.sender, _tokenId);\n\n    return true;\n  }\n\n  function _mint(address to, string tokenURI) internal returns (uint256 _tokenId) {\n    uint256 tokenId = tokenIdPointer;\n\n    super._mint(to, tokenId);\n    _setTokenURI(tokenId, tokenURI);\n\n    tokenIdPointer = tokenIdPointer.add(1);\n\n    return tokenId;\n  }\n\n  function burn(uint256 _tokenId) public pure  {\n    revert(\"Radi.Cards are censorship resistant!\");\n  }\n\n  function tokenURI(uint256 _tokenId) public view returns (string) {\n    require(exists(_tokenId));\n\n    return Strings.strConcat(tokenBaseURI, tokenURIs[_tokenId]);\n  }\n\n  function tokenDetails(uint256 _tokenId)\n  public view\n  returns (\n    address _creator,\n    uint256 _giftingAmount,\n    uint256 _donatingAmount,\n    string _message,\n    string _extra,\n    uint256 _cardIndex,\n    uint256 _benefactorIndex\n  ) {\n    require(exists(_tokenId));\n    RadiCard memory _radiCard = tokenIdToRadiCardIndex[_tokenId];\n    return (\n      _radiCard.creator,\n      _radiCard.giftingAmount,\n      _radiCard.donatingAmount,\n      _radiCard.message,\n      _radiCard.extra,\n      _radiCard.cardIndex,\n      _radiCard.benefactorIndex\n    );\n  }\n\n  function tokenBenefactor(uint256 _tokenId)\n  public view\n  returns (\n    address _ethAddress,\n    string _name,\n    string _website,\n    string _logo\n  ) {\n    require(exists(_tokenId));\n    RadiCard memory _radiCard = tokenIdToRadiCardIndex[_tokenId];\n    Benefactor memory _benefactor = benefactors[_radiCard.benefactorIndex];\n    return (\n      _benefactor.ethAddress,\n      _benefactor.name,\n      _benefactor.website,\n      _benefactor.logo\n    );\n  }\n\n  function tokensOf(address _owner) public view returns (uint256[] _tokenIds) {\n    return ownedTokens[_owner];\n  }\n\n  function benefactorsKeys() public view returns (uint256[] _keys) {\n    return benefactorsIndex;\n  }\n\n  function cardsKeys() public view returns (uint256[] _keys) {\n    return cardsIndex;\n  }\n\n  function addBenefactor(uint256 _benefactorIndex, address _ethAddress, string _name, string _website, string _logo)\n  public onlyIfWhitelisted(msg.sender)\n  returns (bool) {\n    require(address(_ethAddress) != address(0), \"Invalid address\");\n    require(bytes(_name).length != 0, \"Invalid name\");\n    require(bytes(_website).length != 0, \"Invalid name\");\n    require(bytes(_logo).length != 0, \"Invalid name\");\n\n    benefactors[_benefactorIndex] = Benefactor(\n      _ethAddress,\n      _name,\n      _website,\n      _logo\n    );\n    benefactorsIndex.push(_benefactorIndex);\n\n    emit BenefactorAdded(_benefactorIndex);\n    return true;\n  }\n\n  function addCard(uint256 _cardIndex, string _tokenURI, bool _active, uint256 _maxQnty)\n  public onlyIfWhitelisted(msg.sender)\n  returns (bool) {\n    require(bytes(_tokenURI).length != 0, \"Invalid token URI\");\n\n    cards[_cardIndex] = CardDesign(\n      _tokenURI,\n      _active,\n      0,\n      _maxQnty\n    );\n    cardsIndex.push(_cardIndex);\n\n    emit CardAdded(_cardIndex);\n    return true;\n  }\n\n  function setTokenBaseURI(string _newBaseURI) external onlyIfWhitelisted(msg.sender) {\n    require(bytes(_newBaseURI).length != 0, \"Base URI invalid\");\n\n    tokenBaseURI = _newBaseURI;\n  }\n\n  function setMinContribution(uint256 _minContribution) external onlyIfWhitelisted(msg.sender) {\n    require(_minContribution > 0, \"Invalid minimum contribution\");\n\n    minContribution = _minContribution;\n  }\n\n  function setActive(uint256 _cardIndex, bool _active) external onlyIfWhitelisted(msg.sender) {\n    require(bytes(cards[_cardIndex].tokenURI).length != 0, \"Must specify existing card\");\n    cards[_cardIndex].active = _active;\n  }\n\n  function setMaxQuantity(uint256 _cardIndex, uint256 _maxQnty) external onlyIfWhitelisted(msg.sender) {\n    require(bytes(cards[_cardIndex].tokenURI).length != 0, \"Must specify existing card\");\n    require(cards[_cardIndex].minted<=_maxQnty, \"Cant set the max quantity less than the current total minted\");\n    cards[_cardIndex].maxQnty = _maxQnty;\n  }\n}\n",
  "sourcePath": "/Users/chris/Projects/radi.cards/contracts/RadiCards.sol",
  "compiler": {
    "name": "solc",
    "version": "0.4.24+commit.e67f0147.Emscripten.clang"
  },
  "schemaVersion": "3.0.1",
  "updatedAt": "2019-01-16T08:02:34.897Z",
  "devdoc": {
    "author": "blockrocket.tech (smart contracts)cryptodecks.coknownorigin.iopheme.appd1labs.commbdoesthings.comchrismaree.io",
    "methods": {
      "addAddressToWhitelist(address)": {
        "details": "add an address to the whitelist",
        "params": {
          "_operator": "address"
        },
        "return": "true if the address was added to the whitelist, false if the address was already in the whitelist"
      },
      "addAddressesToWhitelist(address[])": {
        "details": "add addresses to the whitelist",
        "params": {
          "_operators": "addresses"
        },
        "return": "true if at least one address was added to the whitelist, false if all addresses were already in the whitelist"
      },
      "approve(address,uint256)": {
        "details": "Approves another address to transfer the given token ID The zero address indicates there is no approved address. There can only be one approved address per token at a given time. Can only be called by the token owner or an approved operator.",
        "params": {
          "_to": "address to be approved for the given token ID",
          "_tokenId": "uint256 ID of the token to be approved"
        }
      },
      "balanceOf(address)": {
        "details": "Gets the balance of the specified address",
        "params": {
          "_owner": "address to query the balance of"
        },
        "return": "uint256 representing the amount owned by the passed address"
      },
      "checkRole(address,string)": {
        "details": "reverts if addr does not have role",
        "params": {
          "_operator": "address",
          "_role": "the name of the role // reverts"
        }
      },
      "exists(uint256)": {
        "details": "Returns whether the specified token exists",
        "params": {
          "_tokenId": "uint256 ID of the token to query the existence of"
        },
        "return": "whether the token exists"
      },
      "getApproved(uint256)": {
        "details": "Gets the approved address for a token ID, or zero if no address set",
        "params": {
          "_tokenId": "uint256 ID of the token to query the approval of"
        },
        "return": "address currently approved for the given token ID"
      },
      "gift(address,uint256,uint256,string,string,uint256)": {
        "details": "Creates a new NFT based off card information.  Sends funds to charity and to recipiant.  The msg.value - donationAmount defines the value sent to the recipiant"
      },
      "hasRole(address,string)": {
        "details": "determine if addr has role",
        "params": {
          "_operator": "address",
          "_role": "the name of the role"
        },
        "return": "bool"
      },
      "isApprovedForAll(address,address)": {
        "details": "Tells whether an operator is approved by a given owner",
        "params": {
          "_operator": "operator address which you want to query the approval of",
          "_owner": "owner address which you want to query the approval of"
        },
        "return": "bool whether the given operator is approved by the given owner"
      },
      "name()": {
        "details": "Gets the token name",
        "return": "string representing the token name"
      },
      "ownerOf(uint256)": {
        "details": "Gets the owner of the specified token ID",
        "params": {
          "_tokenId": "uint256 ID of the token to query the owner of"
        },
        "return": "owner address currently marked as the owner of the given token ID"
      },
      "removeAddressFromWhitelist(address)": {
        "details": "remove an address from the whitelist",
        "params": {
          "_operator": "address"
        },
        "return": "true if the address was removed from the whitelist, false if the address wasn't in the whitelist in the first place"
      },
      "removeAddressesFromWhitelist(address[])": {
        "details": "remove addresses from the whitelist",
        "params": {
          "_operators": "addresses"
        },
        "return": "true if at least one address was removed from the whitelist, false if all addresses weren't in the whitelist in the first place"
      },
      "renounceOwnership()": {
        "details": "Allows the current owner to relinquish control of the contract."
      },
      "safeTransferFrom(address,address,uint256)": {
        "details": "Safely transfers the ownership of a given token ID to another address If the target address is a contract, it must implement `onERC721Received`, which is called upon a safe transfer, and return the magic value `bytes4(keccak256(\"onERC721Received(address,address,uint256,bytes)\"))`; otherwise, the transfer is reverted.   * Requires the msg sender to be the owner, approved, or operator",
        "params": {
          "_from": "current owner of the token",
          "_to": "address to receive the ownership of the given token ID",
          "_tokenId": "uint256 ID of the token to be transferred"
        }
      },
      "safeTransferFrom(address,address,uint256,bytes)": {
        "details": "Safely transfers the ownership of a given token ID to another address If the target address is a contract, it must implement `onERC721Received`, which is called upon a safe transfer, and return the magic value `bytes4(keccak256(\"onERC721Received(address,address,uint256,bytes)\"))`; otherwise, the transfer is reverted. Requires the msg sender to be the owner, approved, or operator",
        "params": {
          "_data": "bytes data to send along with a safe transfer check",
          "_from": "current owner of the token",
          "_to": "address to receive the ownership of the given token ID",
          "_tokenId": "uint256 ID of the token to be transferred"
        }
      },
      "setApprovalForAll(address,bool)": {
        "details": "Sets or unsets the approval of a given operator An operator is allowed to transfer all tokens of the sender on their behalf",
        "params": {
          "_approved": "representing the status of the approval to be set",
          "_to": "operator address to set the approval"
        }
      },
      "supportsInterface(bytes4)": {
        "details": "implement supportsInterface(bytes4) using a lookup table"
      },
      "symbol()": {
        "details": "Gets the token symbol",
        "return": "string representing the token symbol"
      },
      "tokenByIndex(uint256)": {
        "details": "Gets the token ID at a given index of all the tokens in this contract Reverts if the index is greater or equal to the total number of tokens",
        "params": {
          "_index": "uint256 representing the index to be accessed of the tokens list"
        },
        "return": "uint256 token ID at the given index of the tokens list"
      },
      "tokenOfOwnerByIndex(address,uint256)": {
        "details": "Gets the token ID at a given index of the tokens list of the requested owner",
        "params": {
          "_index": "uint256 representing the index to be accessed of the requested tokens list",
          "_owner": "address owning the tokens list to be accessed"
        },
        "return": "uint256 token ID at the given index of the tokens list owned by the requested address"
      },
      "totalSupply()": {
        "details": "Gets the total amount of tokens stored by the contract",
        "return": "uint256 representing the total amount of tokens"
      },
      "transferFrom(address,address,uint256)": {
        "details": "Transfers the ownership of a given token ID to another address Usage of this method is discouraged, use `safeTransferFrom` whenever possible Requires the msg sender to be the owner, approved, or operator",
        "params": {
          "_from": "current owner of the token",
          "_to": "address to receive the ownership of the given token ID",
          "_tokenId": "uint256 ID of the token to be transferred"
        }
      },
      "transferOwnership(address)": {
        "details": "Allows the current owner to transfer control of the contract to a newOwner.",
        "params": {
          "_newOwner": "The address to transfer ownership to."
        }
      },
      "whitelist(address)": {
        "details": "getter to determine if address is in whitelist"
      }
    },
    "title": "Radi.Cards"
  },
  "userdoc": {
    "methods": {
      "renounceOwnership()": {
        "notice": "Renouncing to ownership will leave the contract without an owner. It will not be possible to call the functions with the `onlyOwner` modifier anymore."
      }
    }
  }
}