{
  "contractName": "RadiCards",
  "abi": [
    {
      "constant": true,
      "inputs": [
        {
          "name": "_interfaceId",
          "type": "bytes4"
        }
      ],
      "name": "supportsInterface",
      "outputs": [
        {
          "name": "",
          "type": "bool"
        }
      ],
      "payable": false,
      "stateMutability": "view",
      "type": "function"
    },
    {
      "constant": true,
      "inputs": [],
      "name": "name",
      "outputs": [
        {
          "name": "",
          "type": "string"
        }
      ],
      "payable": false,
      "stateMutability": "view",
      "type": "function"
    },
    {
      "constant": true,
      "inputs": [
        {
          "name": "",
          "type": "uint256"
        }
      ],
      "name": "tokenIdToRadiCardIndex",
      "outputs": [
        {
          "name": "gifter",
          "type": "address"
        },
        {
          "name": "message",
          "type": "string"
        },
        {
          "name": "daiDonation",
          "type": "bool"
        },
        {
          "name": "giftAmount",
          "type": "uint256"
        },
        {
          "name": "donationAmount",
          "type": "uint256"
        },
        {
          "name": "status",
          "type": "uint8"
        },
        {
          "name": "cardIndex",
          "type": "uint256"
        },
        {
          "name": "benefactorIndex",
          "type": "uint256"
        }
      ],
      "payable": false,
      "stateMutability": "view",
      "type": "function"
    },
    {
      "constant": true,
      "inputs": [
        {
          "name": "_tokenId",
          "type": "uint256"
        }
      ],
      "name": "getApproved",
      "outputs": [
        {
          "name": "",
          "type": "address"
        }
      ],
      "payable": false,
      "stateMutability": "view",
      "type": "function"
    },
    {
      "constant": false,
      "inputs": [
        {
          "name": "_to",
          "type": "address"
        },
        {
          "name": "_tokenId",
          "type": "uint256"
        }
      ],
      "name": "approve",
      "outputs": [],
      "payable": false,
      "stateMutability": "nonpayable",
      "type": "function"
    },
    {
      "constant": true,
      "inputs": [
        {
          "name": "_operator",
          "type": "address"
        },
        {
          "name": "_role",
          "type": "string"
        }
      ],
      "name": "checkRole",
      "outputs": [],
      "payable": false,
      "stateMutability": "view",
      "type": "function"
    },
    {
      "constant": true,
      "inputs": [
        {
          "name": "",
          "type": "uint256"
        }
      ],
      "name": "benefactors",
      "outputs": [
        {
          "name": "ethAddress",
          "type": "address"
        },
        {
          "name": "name",
          "type": "string"
        },
        {
          "name": "website",
          "type": "string"
        },
        {
          "name": "logo",
          "type": "string"
        }
      ],
      "payable": false,
      "stateMutability": "view",
      "type": "function"
    },
    {
      "constant": true,
      "inputs": [],
      "name": "totalSupply",
      "outputs": [
        {
          "name": "",
          "type": "uint256"
        }
      ],
      "payable": false,
      "stateMutability": "view",
      "type": "function"
    },
    {
      "constant": true,
      "inputs": [],
      "name": "ROLE_WHITELISTED",
      "outputs": [
        {
          "name": "",
          "type": "string"
        }
      ],
      "payable": false,
      "stateMutability": "view",
      "type": "function"
    },
    {
      "constant": true,
      "inputs": [],
      "name": "InterfaceId_ERC165",
      "outputs": [
        {
          "name": "",
          "type": "bytes4"
        }
      ],
      "payable": false,
      "stateMutability": "view",
      "type": "function"
    },
    {
      "constant": true,
      "inputs": [
        {
          "name": "_operator",
          "type": "address"
        },
        {
          "name": "_role",
          "type": "string"
        }
      ],
      "name": "hasRole",
      "outputs": [
        {
          "name": "",
          "type": "bool"
        }
      ],
      "payable": false,
      "stateMutability": "view",
      "type": "function"
    },
    {
      "constant": false,
      "inputs": [
        {
          "name": "_from",
          "type": "address"
        },
        {
          "name": "_to",
          "type": "address"
        },
        {
          "name": "_tokenId",
          "type": "uint256"
        }
      ],
      "name": "transferFrom",
      "outputs": [],
      "payable": false,
      "stateMutability": "nonpayable",
      "type": "function"
    },
    {
      "constant": false,
      "inputs": [
        {
          "name": "_operators",
          "type": "address[]"
        }
      ],
      "name": "removeAddressesFromWhitelist",
      "outputs": [],
      "payable": false,
      "stateMutability": "nonpayable",
      "type": "function"
    },
    {
      "constant": false,
      "inputs": [
        {
          "name": "_operator",
          "type": "address"
        }
      ],
      "name": "removeAddressFromWhitelist",
      "outputs": [],
      "payable": false,
      "stateMutability": "nonpayable",
      "type": "function"
    },
    {
      "constant": true,
      "inputs": [
        {
          "name": "_owner",
          "type": "address"
        },
        {
          "name": "_index",
          "type": "uint256"
        }
      ],
      "name": "tokenOfOwnerByIndex",
      "outputs": [
        {
          "name": "",
          "type": "uint256"
        }
      ],
      "payable": false,
      "stateMutability": "view",
      "type": "function"
    },
    {
      "constant": true,
      "inputs": [],
      "name": "tokenIdPointer",
      "outputs": [
        {
          "name": "",
          "type": "uint256"
        }
      ],
      "payable": false,
      "stateMutability": "view",
      "type": "function"
    },
    {
      "constant": true,
      "inputs": [],
      "name": "totalGiftedInAtto",
      "outputs": [
        {
          "name": "",
          "type": "uint256"
        }
      ],
      "payable": false,
      "stateMutability": "view",
      "type": "function"
    },
    {
      "constant": false,
      "inputs": [
        {
          "name": "_from",
          "type": "address"
        },
        {
          "name": "_to",
          "type": "address"
        },
        {
          "name": "_tokenId",
          "type": "uint256"
        }
      ],
      "name": "safeTransferFrom",
      "outputs": [],
      "payable": false,
      "stateMutability": "nonpayable",
      "type": "function"
    },
    {
      "constant": true,
      "inputs": [],
      "name": "EPHEMERAL_ADDRESS_FEE",
      "outputs": [
        {
          "name": "",
          "type": "uint256"
        }
      ],
      "payable": false,
      "stateMutability": "view",
      "type": "function"
    },
    {
      "constant": true,
      "inputs": [],
      "name": "tokenBaseURI",
      "outputs": [
        {
          "name": "",
          "type": "string"
        }
      ],
      "payable": false,
      "stateMutability": "view",
      "type": "function"
    },
    {
      "constant": true,
      "inputs": [
        {
          "name": "_tokenId",
          "type": "uint256"
        }
      ],
      "name": "exists",
      "outputs": [
        {
          "name": "",
          "type": "bool"
        }
      ],
      "payable": false,
      "stateMutability": "view",
      "type": "function"
    },
    {
      "constant": true,
      "inputs": [
        {
          "name": "_index",
          "type": "uint256"
        }
      ],
      "name": "tokenByIndex",
      "outputs": [
        {
          "name": "",
          "type": "uint256"
        }
      ],
      "payable": false,
      "stateMutability": "view",
      "type": "function"
    },
    {
      "constant": true,
      "inputs": [
        {
          "name": "_tokenId",
          "type": "uint256"
        }
      ],
      "name": "ownerOf",
      "outputs": [
        {
          "name": "",
          "type": "address"
        }
      ],
      "payable": false,
      "stateMutability": "view",
      "type": "function"
    },
    {
      "constant": true,
      "inputs": [
        {
          "name": "_owner",
          "type": "address"
        }
      ],
      "name": "balanceOf",
      "outputs": [
        {
          "name": "",
          "type": "uint256"
        }
      ],
      "payable": false,
      "stateMutability": "view",
      "type": "function"
    },
    {
      "constant": false,
      "inputs": [],
      "name": "renounceOwnership",
      "outputs": [],
      "payable": false,
      "stateMutability": "nonpayable",
      "type": "function"
    },
    {
      "constant": false,
      "inputs": [
        {
          "name": "_operator",
          "type": "address"
        }
      ],
      "name": "addAddressToWhitelist",
      "outputs": [],
      "payable": false,
      "stateMutability": "nonpayable",
      "type": "function"
    },
    {
      "constant": true,
      "inputs": [
        {
          "name": "",
          "type": "address"
        }
      ],
      "name": "ephemeralWalletCards",
      "outputs": [
        {
          "name": "",
          "type": "uint256"
        }
      ],
      "payable": false,
      "stateMutability": "view",
      "type": "function"
    },
    {
      "constant": true,
      "inputs": [],
      "name": "owner",
      "outputs": [
        {
          "name": "",
          "type": "address"
        }
      ],
      "payable": false,
      "stateMutability": "view",
      "type": "function"
    },
    {
      "constant": true,
      "inputs": [
        {
          "name": "",
          "type": "uint256"
        }
      ],
      "name": "cards",
      "outputs": [
        {
          "name": "tokenURI",
          "type": "string"
        },
        {
          "name": "active",
          "type": "bool"
        },
        {
          "name": "minted",
          "type": "uint256"
        },
        {
          "name": "maxQnty",
          "type": "uint256"
        },
        {
          "name": "minPrice",
          "type": "uint256"
        }
      ],
      "payable": false,
      "stateMutability": "view",
      "type": "function"
    },
    {
      "constant": true,
      "inputs": [],
      "name": "symbol",
      "outputs": [
        {
          "name": "",
          "type": "string"
        }
      ],
      "payable": false,
      "stateMutability": "view",
      "type": "function"
    },
    {
      "constant": true,
      "inputs": [],
      "name": "totalDonatedInWei",
      "outputs": [
        {
          "name": "",
          "type": "uint256"
        }
      ],
      "payable": false,
      "stateMutability": "view",
      "type": "function"
    },
    {
      "constant": true,
      "inputs": [
        {
          "name": "_operator",
          "type": "address"
        }
      ],
      "name": "whitelist",
      "outputs": [
        {
          "name": "",
          "type": "bool"
        }
      ],
      "payable": false,
      "stateMutability": "view",
      "type": "function"
    },
    {
      "constant": false,
      "inputs": [
        {
          "name": "_to",
          "type": "address"
        },
        {
          "name": "_approved",
          "type": "bool"
        }
      ],
      "name": "setApprovalForAll",
      "outputs": [],
      "payable": false,
      "stateMutability": "nonpayable",
      "type": "function"
    },
    {
      "constant": false,
      "inputs": [
        {
          "name": "_from",
          "type": "address"
        },
        {
          "name": "_to",
          "type": "address"
        },
        {
          "name": "_tokenId",
          "type": "uint256"
        },
        {
          "name": "_data",
          "type": "bytes"
        }
      ],
      "name": "safeTransferFrom",
      "outputs": [],
      "payable": false,
      "stateMutability": "nonpayable",
      "type": "function"
    },
    {
      "constant": false,
      "inputs": [
        {
          "name": "_operators",
          "type": "address[]"
        }
      ],
      "name": "addAddressesToWhitelist",
      "outputs": [],
      "payable": false,
      "stateMutability": "nonpayable",
      "type": "function"
    },
    {
      "constant": true,
      "inputs": [],
      "name": "totalDonatedInAtto",
      "outputs": [
        {
          "name": "",
          "type": "uint256"
        }
      ],
      "payable": false,
      "stateMutability": "view",
      "type": "function"
    },
    {
      "constant": true,
      "inputs": [
        {
          "name": "_owner",
          "type": "address"
        },
        {
          "name": "_operator",
          "type": "address"
        }
      ],
      "name": "isApprovedForAll",
      "outputs": [
        {
          "name": "",
          "type": "bool"
        }
      ],
      "payable": false,
      "stateMutability": "view",
      "type": "function"
    },
    {
      "constant": false,
      "inputs": [
        {
          "name": "_newOwner",
          "type": "address"
        }
      ],
      "name": "transferOwnership",
      "outputs": [],
      "payable": false,
      "stateMutability": "nonpayable",
      "type": "function"
    },
    {
      "constant": true,
      "inputs": [],
      "name": "totalGiftedInWei",
      "outputs": [
        {
          "name": "",
          "type": "uint256"
        }
      ],
      "payable": false,
      "stateMutability": "view",
      "type": "function"
    },
    {
      "inputs": [],
      "payable": false,
      "stateMutability": "nonpayable",
      "type": "constructor"
    },
    {
      "anonymous": false,
      "inputs": [
        {
          "indexed": true,
          "name": "_to",
          "type": "address"
        },
        {
          "indexed": true,
          "name": "_benefactorIndex",
          "type": "uint256"
        },
        {
          "indexed": true,
          "name": "_cardIndex",
          "type": "uint256"
        },
        {
          "indexed": false,
          "name": "_from",
          "type": "address"
        },
        {
          "indexed": false,
          "name": "_tokenId",
          "type": "uint256"
        },
        {
          "indexed": false,
          "name": "status",
          "type": "uint8"
        }
      ],
      "name": "CardGifted",
      "type": "event"
    },
    {
      "anonymous": false,
      "inputs": [
        {
          "indexed": true,
          "name": "ephemeralAddress",
          "type": "address"
        },
        {
          "indexed": true,
          "name": "sender",
          "type": "address"
        },
        {
          "indexed": false,
          "name": "tokenId",
          "type": "uint256"
        },
        {
          "indexed": false,
          "name": "receiver",
          "type": "address"
        },
        {
          "indexed": false,
          "name": "giftAmount",
          "type": "uint256"
        },
        {
          "indexed": false,
          "name": "daiDonation",
          "type": "bool"
        }
      ],
      "name": "LogClaim",
      "type": "event"
    },
    {
      "anonymous": false,
      "inputs": [
        {
          "indexed": true,
          "name": "ephemeralAddress",
          "type": "address"
        },
        {
          "indexed": true,
          "name": "sender",
          "type": "address"
        },
        {
          "indexed": false,
          "name": "tokenId",
          "type": "uint256"
        }
      ],
      "name": "LogCancel",
      "type": "event"
    },
    {
      "anonymous": false,
      "inputs": [
        {
          "indexed": true,
          "name": "_benefactorIndex",
          "type": "uint256"
        }
      ],
      "name": "BenefactorAdded",
      "type": "event"
    },
    {
      "anonymous": false,
      "inputs": [
        {
          "indexed": true,
          "name": "_cardIndex",
          "type": "uint256"
        }
      ],
      "name": "CardAdded",
      "type": "event"
    },
    {
      "anonymous": false,
      "inputs": [
        {
          "indexed": true,
          "name": "operator",
          "type": "address"
        },
        {
          "indexed": false,
          "name": "role",
          "type": "string"
        }
      ],
      "name": "RoleAdded",
      "type": "event"
    },
    {
      "anonymous": false,
      "inputs": [
        {
          "indexed": true,
          "name": "operator",
          "type": "address"
        },
        {
          "indexed": false,
          "name": "role",
          "type": "string"
        }
      ],
      "name": "RoleRemoved",
      "type": "event"
    },
    {
      "anonymous": false,
      "inputs": [
        {
          "indexed": true,
          "name": "previousOwner",
          "type": "address"
        }
      ],
      "name": "OwnershipRenounced",
      "type": "event"
    },
    {
      "anonymous": false,
      "inputs": [
        {
          "indexed": true,
          "name": "previousOwner",
          "type": "address"
        },
        {
          "indexed": true,
          "name": "newOwner",
          "type": "address"
        }
      ],
      "name": "OwnershipTransferred",
      "type": "event"
    },
    {
      "anonymous": false,
      "inputs": [
        {
          "indexed": true,
          "name": "_from",
          "type": "address"
        },
        {
          "indexed": true,
          "name": "_to",
          "type": "address"
        },
        {
          "indexed": true,
          "name": "_tokenId",
          "type": "uint256"
        }
      ],
      "name": "Transfer",
      "type": "event"
    },
    {
      "anonymous": false,
      "inputs": [
        {
          "indexed": true,
          "name": "_owner",
          "type": "address"
        },
        {
          "indexed": true,
          "name": "_approved",
          "type": "address"
        },
        {
          "indexed": true,
          "name": "_tokenId",
          "type": "uint256"
        }
      ],
      "name": "Approval",
      "type": "event"
    },
    {
      "anonymous": false,
      "inputs": [
        {
          "indexed": true,
          "name": "_owner",
          "type": "address"
        },
        {
          "indexed": true,
          "name": "_operator",
          "type": "address"
        },
        {
          "indexed": false,
          "name": "_approved",
          "type": "bool"
        }
      ],
      "name": "ApprovalForAll",
      "type": "event"
    },
    {
      "constant": false,
      "inputs": [
        {
          "name": "to",
          "type": "address"
        },
        {
          "name": "_benefactorIndex",
          "type": "uint256"
        },
        {
          "name": "_cardIndex",
          "type": "uint256"
        },
        {
          "name": "_message",
          "type": "string"
        },
        {
          "name": "_donationAmount",
          "type": "uint256"
        },
        {
          "name": "_giftAmount",
          "type": "uint256"
        },
        {
          "name": "_claimableLink",
          "type": "bool"
        }
      ],
      "name": "gift",
      "outputs": [
        {
          "name": "",
          "type": "bool"
        }
      ],
      "payable": true,
      "stateMutability": "payable",
      "type": "function"
    },
    {
      "constant": false,
      "inputs": [
        {
          "name": "to",
          "type": "address"
        },
        {
          "name": "_benefactorIndex",
          "type": "uint256"
        },
        {
          "name": "_cardIndex",
          "type": "uint256"
        },
        {
          "name": "_message",
          "type": "string"
        },
        {
          "name": "_donationAmount",
          "type": "uint256"
        },
        {
          "name": "_giftAmount",
          "type": "uint256"
        },
        {
          "name": "_claimableLink",
          "type": "bool"
        }
      ],
      "name": "giftInDai",
      "outputs": [
        {
          "name": "",
          "type": "bool"
        }
      ],
      "payable": true,
      "stateMutability": "payable",
      "type": "function"
    },
    {
      "constant": false,
      "inputs": [
        {
          "name": "_ephemeralAddress",
          "type": "address"
        }
      ],
      "name": "cancelGift",
      "outputs": [
        {
          "name": "success",
          "type": "bool"
        }
      ],
      "payable": false,
      "stateMutability": "nonpayable",
      "type": "function"
    },
    {
      "constant": false,
      "inputs": [
        {
          "name": "_receiver",
          "type": "address"
        }
      ],
      "name": "claimGift",
      "outputs": [
        {
          "name": "success",
          "type": "bool"
        }
      ],
      "payable": false,
      "stateMutability": "nonpayable",
      "type": "function"
    },
    {
      "constant": true,
      "inputs": [
        {
          "name": "_tokenId",
          "type": "uint256"
        }
      ],
      "name": "burn",
      "outputs": [],
      "payable": false,
      "stateMutability": "pure",
      "type": "function"
    },
    {
      "constant": true,
      "inputs": [
        {
          "name": "_tokenId",
          "type": "uint256"
        }
      ],
      "name": "tokenURI",
      "outputs": [
        {
          "name": "",
          "type": "string"
        }
      ],
      "payable": false,
      "stateMutability": "view",
      "type": "function"
    },
    {
      "constant": true,
      "inputs": [
        {
          "name": "_tokenId",
          "type": "uint256"
        }
      ],
      "name": "tokenDetails",
      "outputs": [
        {
          "name": "_gifter",
          "type": "address"
        },
        {
          "name": "_daiDonation",
          "type": "bool"
        },
        {
          "name": "_giftAmount",
          "type": "uint256"
        },
        {
          "name": "_donationAmount",
          "type": "uint256"
        },
        {
          "name": "_message",
          "type": "string"
        },
        {
          "name": "_cardIndex",
          "type": "uint256"
        },
        {
          "name": "_benefactorIndex",
          "type": "uint256"
        }
      ],
      "payable": false,
      "stateMutability": "view",
      "type": "function"
    },
    {
      "constant": true,
      "inputs": [
        {
          "name": "_tokenId",
          "type": "uint256"
        }
      ],
      "name": "tokenBenefactor",
      "outputs": [
        {
          "name": "_ethAddress",
          "type": "address"
        },
        {
          "name": "_name",
          "type": "string"
        },
        {
          "name": "_website",
          "type": "string"
        },
        {
          "name": "_logo",
          "type": "string"
        }
      ],
      "payable": false,
      "stateMutability": "view",
      "type": "function"
    },
    {
      "constant": true,
      "inputs": [
        {
          "name": "_owner",
          "type": "address"
        }
      ],
      "name": "tokensOf",
      "outputs": [
        {
          "name": "_tokenIds",
          "type": "uint256[]"
        }
      ],
      "payable": false,
      "stateMutability": "view",
      "type": "function"
    },
    {
      "constant": true,
      "inputs": [],
      "name": "benefactorsKeys",
      "outputs": [
        {
          "name": "_keys",
          "type": "uint256[]"
        }
      ],
      "payable": false,
      "stateMutability": "view",
      "type": "function"
    },
    {
      "constant": true,
      "inputs": [],
      "name": "cardsKeys",
      "outputs": [
        {
          "name": "_keys",
          "type": "uint256[]"
        }
      ],
      "payable": false,
      "stateMutability": "view",
      "type": "function"
    },
    {
      "constant": false,
      "inputs": [
        {
          "name": "_benefactorIndex",
          "type": "uint256"
        },
        {
          "name": "_ethAddress",
          "type": "address"
        },
        {
          "name": "_name",
          "type": "string"
        },
        {
          "name": "_website",
          "type": "string"
        },
        {
          "name": "_logo",
          "type": "string"
        }
      ],
      "name": "addBenefactor",
      "outputs": [
        {
          "name": "",
          "type": "bool"
        }
      ],
      "payable": false,
      "stateMutability": "nonpayable",
      "type": "function"
    },
    {
      "constant": false,
      "inputs": [
        {
          "name": "_cardIndex",
          "type": "uint256"
        },
        {
          "name": "_tokenURI",
          "type": "string"
        },
        {
          "name": "_active",
          "type": "bool"
        },
        {
          "name": "_maxQnty",
          "type": "uint256"
        },
        {
          "name": "_minPrice",
          "type": "uint256"
        }
      ],
      "name": "addCard",
      "outputs": [
        {
          "name": "",
          "type": "bool"
        }
      ],
      "payable": false,
      "stateMutability": "nonpayable",
      "type": "function"
    },
    {
      "constant": false,
      "inputs": [
        {
          "name": "_newBaseURI",
          "type": "string"
        }
      ],
      "name": "setTokenBaseURI",
      "outputs": [],
      "payable": false,
      "stateMutability": "nonpayable",
      "type": "function"
    },
    {
      "constant": false,
      "inputs": [
        {
          "name": "_cardIndex",
          "type": "uint256"
        },
        {
          "name": "_active",
          "type": "bool"
        }
      ],
      "name": "setActive",
      "outputs": [],
      "payable": false,
      "stateMutability": "nonpayable",
      "type": "function"
    },
    {
      "constant": false,
      "inputs": [
        {
          "name": "_cardIndex",
          "type": "uint256"
        },
        {
          "name": "_maxQnty",
          "type": "uint256"
        }
      ],
      "name": "setMaxQuantity",
      "outputs": [],
      "payable": false,
      "stateMutability": "nonpayable",
      "type": "function"
    },
    {
      "constant": false,
      "inputs": [
        {
          "name": "_cardIndex",
          "type": "uint256"
        },
        {
          "name": "_minPrice",
          "type": "uint256"
        }
      ],
      "name": "setMinPrice",
      "outputs": [],
      "payable": false,
      "stateMutability": "nonpayable",
      "type": "function"
    },
    {
      "constant": false,
      "inputs": [
        {
          "name": "_daiERC20ContractAddress",
          "type": "address"
        }
      ],
      "name": "setDaiContractAddress",
      "outputs": [],
      "payable": false,
      "stateMutability": "nonpayable",
      "type": "function"
    },
    {
      "constant": false,
      "inputs": [
        {
          "name": "_MedianizerContractAddress",
          "type": "address"
        }
      ],
      "name": "setMedianizerContractAddress",
      "outputs": [],
      "payable": false,
      "stateMutability": "nonpayable",
      "type": "function"
    },
    {
      "constant": true,
      "inputs": [],
      "name": "getEtherPrice",
      "outputs": [
        {
          "name": "",
          "type": "uint256"
        }
      ],
      "payable": false,
      "stateMutability": "view",
      "type": "function"
    },
    {
      "constant": true,
      "inputs": [
        {
          "name": "_ether",
          "type": "uint256"
        }
      ],
      "name": "getEthUsdValue",
      "outputs": [
        {
          "name": "",
          "type": "uint256"
        }
      ],
      "payable": false,
      "stateMutability": "view",
      "type": "function"
    },
    {
      "constant": true,
      "inputs": [
        {
          "name": "_cardIndex",
          "type": "uint256"
        }
      ],
      "name": "getMinCardPriceInWei",
      "outputs": [
        {
          "name": "",
          "type": "uint256"
        }
      ],
      "payable": false,
      "stateMutability": "view",
      "type": "function"
    }
  ],
  "bytecode": "0x60c0604052601c60808190527f68747470733a2f2f697066732e696e667572612e696f2f697066732f0000000060a09081526200004091601091906200044c565b506000601155662386f26fc100006012553480156200005e57600080fd5b50604080518082018252600981527f52616469436172647300000000000000000000000000000000000000000000006020808301919091528251808401909352600483527f52414449000000000000000000000000000000000000000000000000000000009083015290620000fc7f01ffc9a70000000000000000000000000000000000000000000000000000000064010000000062000229810204565b620001307f80ac58cd0000000000000000000000000000000000000000000000000000000064010000000062000229810204565b620001647f4f558e790000000000000000000000000000000000000000000000000000000064010000000062000229810204565b8151620001799060059060208501906200044c565b5080516200018f9060069060208401906200044c565b50620001c47f780e9d630000000000000000000000000000000000000000000000000000000064010000000062000229810204565b620001f87f5b5e139f0000000000000000000000000000000000000000000000000000000064010000000062000229810204565b5050600c8054600160a060020a03191633908117909155620002239064010000000062000296810204565b620004f1565b7fffffffff0000000000000000000000000000000000000000000000000000000080821614156200025957600080fd5b7fffffffff00000000000000000000000000000000000000000000000000000000166000908152602081905260409020805460ff19166001179055565b600c54600160a060020a03163314620002ae57600080fd5b620002fe816040805190810160405280600981526020017f77686974656c697374000000000000000000000000000000000000000000000081525062000301640100000000026401000000009004565b50565b6200037d82600d836040518082805190602001908083835b602083106200033a5780518252601f19909201916020918201910162000319565b51815160209384036101000a600019018019909216911617905292019485525060405193849003019092209291505064010000000062000427810262004f781704565b81600160a060020a03167fbfec83d64eaa953f2708271a023ab9ee82057f8f3578d548c1a4ba0b5b700489826040518080602001828103825283818151815260200191508051906020019080838360005b83811015620003e8578181015183820152602001620003ce565b50505050905090810190601f168015620004165780820380516001836020036101000a031916815260200191505b509250505060405180910390a25050565b600160a060020a0316600090815260209190915260409020805460ff19166001179055565b828054600181600116156101000203166002900490600052602060002090601f016020900481019282601f106200048f57805160ff1916838001178555620004bf565b82800160010185558215620004bf579182015b82811115620004bf578251825591602001919060010190620004a2565b50620004cd929150620004d1565b5090565b620004ee91905b80821115620004cd5760008155600101620004d8565b90565b61554580620005016000396000f3006080604052600436106102d45763ffffffff7c010000000000000000000000000000000000000000000000000000000060003504166301ffc9a781146102d957806303cfe12d14610324578063040e0d311461038957806304f3c40e146103ac57806306fdde03146103cd5780630701fd6b14610457578063081812fc1461053c578063095ea7b3146105705780630988ca8c14610594578063128ee161146105fb57806318160ddd1461077057806318b919e91461079757806319fa8f50146107ac5780631db1b4fd146107f3578063217fe6c61461080b57806323b872dd1461087257806324953eaa1461089c578063254e6f26146108f1578063286dd3f5146109125780632f745c591461093357806337073a87146109575780633b3a1a7a14610a3c5780633bac8f9014610a515780633eeb8d1714610abc57806342842e0e14610ad157806342966c6814610afb5780634b745f9014610b135780634d02fef714610b285780634d7bb88114610b405780634e99b80014610b5b5780634f558e7914610b705780634f6ccce714610b885780635a3f267214610ba05780636352211e14610bc157806370a0823114610bd9578063715018a614610bfa578063757000f714610c0f578063757f015514610c2a5780637b9417c814610c4257806388f0e36414610c6357806389ae3b1f14610c845780638da5cb5b14610ca55780638dc1076814610cba5780638ef79e9114610d6a57806395d89b4114610d8a5780639b10acdc14610d9f5780639b19251a14610db4578063a10b79bc14610dd5578063a22cb46514610e43578063b88d4fde14610e69578063c28ae87614610ed8578063c87b56dd14610f46578063ca7c4dba14610f5e578063e2ec6ec314610f73578063e60a955d14610fc8578063e7ac2a5214610fe5578063e985e9c514610ffa578063f2fde38b14611021578063f7ad51ce14611042578063f9256de114611057578063fc314e311461106c575b600080fd5b3480156102e557600080fd5b506103107bffffffffffffffffffffffffffffffffffffffffffffffffffffffff196004351661113c565b604080519115158252519081900360200190f35b34801561033057600080fd5b50610339611170565b60408051602080825283518183015283519192839290830191858101910280838360005b8381101561037557818101518382015260200161035d565b505050509050019250505060405180910390f35b34801561039557600080fd5b506103aa600160a060020a03600435166111c9565b005b3480156103b857600080fd5b50610310600160a060020a036004351661123c565b3480156103d957600080fd5b506103e2611597565b6040805160208082528351818301528351919283929083019185019080838360005b8381101561041c578181015183820152602001610404565b50505050905090810190601f1680156104495780820380516001836020036101000a031916815260200191505b509250505060405180910390f35b34801561046357600080fd5b5061046f600435611624565b6040518089600160a060020a0316600160a060020a0316815260200180602001881515151581526020018781526020018681526020018560038111156104b157fe5b60ff168152602001848152602001838152602001828103825289818151815260200191508051906020019080838360005b838110156104fa5781810151838201526020016104e2565b50505050905090810190601f1680156105275780820380516001836020036101000a031916815260200191505b50995050505050505050505060405180910390f35b34801561054857600080fd5b50610554600435611703565b60408051600160a060020a039092168252519081900360200190f35b34801561057c57600080fd5b506103aa600160a060020a036004351660243561171e565b3480156105a057600080fd5b5060408051602060046024803582810135601f81018590048502860185019096528585526103aa958335600160a060020a03169536956044949193909101919081908401838280828437509497506117d49650505050505050565b34801561060757600080fd5b50610613600435611842565b6040518085600160a060020a0316600160a060020a03168152602001806020018060200180602001848103845287818151815260200191508051906020019080838360005b83811015610670578181015183820152602001610658565b50505050905090810190601f16801561069d5780820380516001836020036101000a031916815260200191505b50848103835286518152865160209182019188019080838360005b838110156106d05781810151838201526020016106b8565b50505050905090810190601f1680156106fd5780820380516001836020036101000a031916815260200191505b50848103825285518152855160209182019187019080838360005b83811015610730578181015183820152602001610718565b50505050905090810190601f16801561075d5780820380516001836020036101000a031916815260200191505b5097505050505050505060405180910390f35b34801561077c57600080fd5b50610785611a18565b60408051918252519081900360200190f35b3480156107a357600080fd5b506103e2611a1e565b3480156107b857600080fd5b506107c1611a43565b604080517bffffffffffffffffffffffffffffffffffffffffffffffffffffffff199092168252519081900360200190f35b3480156107ff57600080fd5b50610613600435611a67565b34801561081757600080fd5b5060408051602060046024803582810135601f8101859004850286018501909652858552610310958335600160a060020a0316953695604494919390910191908190840183828082843750949750611dc19650505050505050565b34801561087e57600080fd5b506103aa600160a060020a0360043581169060243516604435611e34565b3480156108a857600080fd5b50604080516020600480358082013583810280860185019096528085526103aa95369593946024949385019291829185019084908082843750949750611ed79650505050505050565b3480156108fd57600080fd5b50610310600160a060020a0360043516611f26565b34801561091e57600080fd5b506103aa600160a060020a03600435166122d9565b34801561093f57600080fd5b50610785600160a060020a0360043516602435612320565b34801561096357600080fd5b50604080516020600460443581810135601f81018490048402850184019095528484526103109482359460248035600160a060020a03169536959460649492019190819084018382808284375050604080516020601f89358b018035918201839004830284018301909452808352979a99988101979196509182019450925082915084018382808284375050604080516020601f89358b018035918201839004830284018301909452808352979a99988101979196509182019450925082915084018382808284375094975061236d9650505050505050565b348015610a4857600080fd5b5061078561261e565b348015610a5d57600080fd5b5060408051602060046024803582810135601f8101859004850286018501909652858552610310958335953695604494919390910191908190840183828082843750949750505050823515159350505060208101359060400135612624565b348015610ac857600080fd5b506107856127a3565b348015610add57600080fd5b506103aa600160a060020a03600435811690602435166044356127a9565b348015610b0757600080fd5b506103aa6004356127ca565b348015610b1f57600080fd5b5061078561283f565b348015610b3457600080fd5b50610785600435612845565b348015610b4c57600080fd5b506103aa60043560243561286a565b348015610b6757600080fd5b506103e2612926565b348015610b7c57600080fd5b506103106004356129b4565b348015610b9457600080fd5b506107856004356129d1565b348015610bac57600080fd5b50610339600160a060020a0360043516612a06565b348015610bcd57600080fd5b50610554600435612a72565b348015610be557600080fd5b50610785600160a060020a0360043516612a9c565b348015610c0657600080fd5b506103aa612acf565b348015610c1b57600080fd5b506103aa600435602435612b3d565b348015610c3657600080fd5b50610785600435612c88565b348015610c4e57600080fd5b506103aa600160a060020a0360043516612cb7565b348015610c6f57600080fd5b50610785600160a060020a0360043516612cfb565b348015610c9057600080fd5b506103aa600160a060020a0360043516612d0d565b348015610cb157600080fd5b50610554612d80565b348015610cc657600080fd5b50610cd2600435612d8f565b604051808060200186151515158152602001858152602001848152602001838152602001828103825287818151815260200191508051906020019080838360005b83811015610d2b578181015183820152602001610d13565b50505050905090810190601f168015610d585780820380516001836020036101000a031916815260200191505b50965050505050505060405180910390f35b348015610d7657600080fd5b506103aa6004803560248101910135612e4d565b348015610d9657600080fd5b506103e2612ee4565b348015610dab57600080fd5b50610785612f45565b348015610dc057600080fd5b50610310600160a060020a0360043516612f4b565b604080516020601f60643560048181013592830184900484028501840190955281845261031094600160a060020a038135169460248035956044359536956084949301918190840183828082843750949750508435955050506020830135926040013515159150612f7a9050565b348015610e4f57600080fd5b506103aa600160a060020a03600435166024351515613a80565b348015610e7557600080fd5b50604080516020601f6064356004818101359283018490048402850184019095528184526103aa94600160a060020a038135811695602480359092169560443595369560849401918190840183828082843750949750613b049650505050505050565b604080516020601f60643560048181013592830184900484028501840190955281845261031094600160a060020a038135169460248035956044359536956084949301918190840183828082843750949750508435955050506020830135926040013515159150613b269050565b348015610f5257600080fd5b506103e2600435614251565b348015610f6a57600080fd5b50610785614395565b348015610f7f57600080fd5b50604080516020600480358082013583810280860185019096528085526103aa953695939460249493850192918291850190849080828437509497506144259650505050505050565b348015610fd457600080fd5b506103aa6004356024351515614474565b348015610ff157600080fd5b5061078561453e565b34801561100657600080fd5b50610310600160a060020a0360043581169060243516614544565b34801561102d57600080fd5b506103aa600160a060020a0360043516614572565b34801561104e57600080fd5b50610339614592565b34801561106357600080fd5b506107856145e8565b34801561107857600080fd5b506110846004356145ee565b6040518088600160a060020a0316600160a060020a031681526020018715151515815260200186815260200185815260200180602001848152602001838152602001828103825285818151815260200191508051906020019080838360005b838110156110fb5781810151838201526020016110e3565b50505050905090810190601f1680156111285780820380516001836020036101000a031916815260200191505b509850505050505050505060405180910390f35b7bffffffffffffffffffffffffffffffffffffffffffffffffffffffff191660009081526020819052604090205460ff1690565b606060158054806020026020016040519081016040528092919081815260200182805480156111be57602002820191906000526020600020905b8154815260200190600101908083116111aa575b505050505090505b90565b336111f7816040805190810160405280600981526020016000805160206154fa8339815191528152506117d4565b600160a060020a038216151561120c57600080fd5b50600e805473ffffffffffffffffffffffffffffffffffffffff1916600160a060020a0392909216919091179055565b33600081815260136020526040812054909190828115156112f3576040805160e560020a62461bcd02815260206004820152604960248201527f5468652063616c6c696e67206164647265737320646f6573206e6f742068617660448201527f6520616e20657068656d6572616c206163636f756e74206173736f636961746560648201527f6420776974682069740000000000000000000000000000000000000000000000608482015290519081900360a40190fd5b5060008181526018602052604090206001600582015460ff16600381111561131757fe5b14611392576040805160e560020a62461bcd02815260206004820152602760248201527f43616e206f6e6c7920636c61696d20612067696674207468617420697320756e60448201527f636c61696d656400000000000000000000000000000000000000000000000000606482015290519081900360840190fd5b60058101805460ff191660021790556113ac3086846127a9565b60008160030154111561152357600281015460ff16156114e857600e546003820154604080517fa9059cbb000000000000000000000000000000000000000000000000000000008152600160a060020a03898116600483015260248201939093529051919092169163a9059cbb9160448083019260209291908290030181600087803b15801561143b57600080fd5b505af115801561144f573d6000803e3d6000fd5b505050506040513d602081101561146557600080fd5b505115156114e3576040805160e560020a62461bcd02815260206004820152602d60248201527f53656e64696e6720746f20726563697069656e742061667465722063616e636560448201527f6c2067696674206661696c656400000000000000000000000000000000000000606482015290519081900360840190fd5b611523565b6003810154604051600160a060020a0387169180156108fc02916000818181858888f19350505050158015611521573d6000803e3d6000fd5b505b80546003820154600283015460408051868152600160a060020a038a811660208301528183019490945260ff909216151560608301525192821692918616917fb042f062bacd647a7bb6700b6de74af5e89b5ef09282f45bed5ef2edca456a829181900360800190a3506001949350505050565b60058054604080516020601f60026000196101006001881615020190951694909404938401819004810282018101909252828152606093909290918301828280156111be5780601f106115f8576101008083540402835291602001916111be565b820191906000526020600020905b81548152906001019060200180831161160657509395945050505050565b6018602090815260009182526040918290208054600180830180548651600261010094831615949094026000190190911692909204601f8101869004860283018601909652858252600160a060020a039092169492939092908301828280156116ce5780601f106116a3576101008083540402835291602001916116ce565b820191906000526020600020905b8154815290600101906020018083116116b157829003601f168201915b5050505060028301546003840154600485015460058601546006870154600790970154959660ff948516969395509193169188565b600090815260026020526040902054600160a060020a031690565b600061172982612a72565b9050600160a060020a03838116908216141561174457600080fd5b33600160a060020a038216148061176057506117608133614544565b151561176b57600080fd5b600082815260026020526040808220805473ffffffffffffffffffffffffffffffffffffffff1916600160a060020a0387811691821790925591518593918516917f8c5be1e5ebec7d5bd14f71427d1e84f3dd0314c0f7b2291e5b200ac8c7c3b92591a4505050565b61183e82600d836040518082805190602001908083835b6020831061180a5780518252601f1990920191602091820191016117eb565b51815160209384036101000a600019018019909216911617905292019485525060405193849003019092209291505061476f565b5050565b6014602090815260009182526040918290208054600180830180548651600261010094831615949094026000190190911692909204601f8101869004860283018601909652858252600160a060020a039092169492939092908301828280156118ec5780601f106118c1576101008083540402835291602001916118ec565b820191906000526020600020905b8154815290600101906020018083116118cf57829003601f168201915b50505060028085018054604080516020601f600019610100600187161502019094169590950492830185900485028101850190915281815295969594509092509083018282801561197e5780601f106119535761010080835404028352916020019161197e565b820191906000526020600020905b81548152906001019060200180831161196157829003601f168201915b5050505060038301805460408051602060026001851615610100026000190190941693909304601f8101849004840282018401909252818152949594935090830182828015611a0e5780601f106119e357610100808354040283529160200191611a0e565b820191906000526020600020905b8154815290600101906020018083116119f157829003601f168201915b5050505050905084565b60095490565b60408051808201909152600981526000805160206154fa833981519152602082015281565b7f01ffc9a70000000000000000000000000000000000000000000000000000000081565b60006060806060611a7661535b565b611a7e6153a1565b611a87876129b4565b1515611a9257600080fd5b600087815260186020908152604091829020825161010080820185528254600160a060020a03168252600180840180548751600293821615909402600019011691909104601f8101869004860283018601909652858252919492938581019391929190830182828015611b465780601f10611b1b57610100808354040283529160200191611b46565b820191906000526020600020905b815481529060010190602001808311611b2957829003601f168201915b5050509183525050600282015460ff90811615156020830152600380840154604084015260048401546060840152600584015460809093019290911690811115611b8c57fe5b6003811115611b9757fe5b8152600682015460208083019190915260079092015460409182015260e083015160009081526014835281902081516080810183528154600160a060020a03168152600180830180548551600261010094831615949094026000190190911692909204601f8101879004870283018701909552848252959750909491938581019391929190830182828015611c6d5780601f10611c4257610100808354040283529160200191611c6d565b820191906000526020600020905b815481529060010190602001808311611c5057829003601f168201915b5050509183525050600282810180546040805160206001841615610100026000190190931694909404601f81018390048302850183019091528084529381019390830182828015611cff5780601f10611cd457610100808354040283529160200191611cff565b820191906000526020600020905b815481529060010190602001808311611ce257829003601f168201915b505050918352505060038201805460408051602060026001851615610100026000190190941693909304601f8101849004840282018401909252818152938201939291830182828015611d935780601f10611d6857610100808354040283529160200191611d93565b820191906000526020600020905b815481529060010190602001808311611d7657829003601f168201915b505050919092525050815160208301516040840151606090940151919b909a50929850965090945050505050565b6000611e2d83600d846040518082805190602001908083835b60208310611df95780518252601f199092019160209182019101611dda565b51815160209384036101000a6000190180199092169116179052920194855250604051938490030190922092915050614784565b9392505050565b611e3e33826147a3565b1515611e4957600080fd5b600160a060020a0383161515611e5e57600080fd5b600160a060020a0382161515611e7357600080fd5b611e7d8382614802565b611e878382614871565b611e918282614978565b8082600160a060020a031684600160a060020a03167fddf252ad1be2c89b69c2b068fc378daa952ba7f163c4a11628f55a4df523b3ef60405160405180910390a4505050565b600c54600090600160a060020a03163314611ef157600080fd5b5060005b815181101561183e57611f1e8282815181101515611f0f57fe5b906020019060200201516122d9565b600101611ef5565b600160a060020a03811660009081526013602052604081205481811515611fe3576040805160e560020a62461bcd02815260206004820152604760248201527f43616e206f6e6c792063616c6c20746869732066756e6374696f6e206f6e206160448201527f6e2061646472657373207468617420776173207573656420617320616e20657060648201527f68656d6572616c00000000000000000000000000000000000000000000000000608482015290519081900360a40190fd5b5060008181526018602052604090206001600582015460ff16600381111561200757fe5b14612082576040805160e560020a62461bcd02815260206004820152603460248201527f63616e206f6e6c792063616e63656c206769667473207468617420617265207560448201527f6e636c61696d656420286465706f736974656429000000000000000000000000606482015290519081900360840190fd5b8054600160a060020a03163314612109576040805160e560020a62461bcd02815260206004820152602d60248201527f6f6e6c792074686520676966746572206f662074686520636172642063616e2060448201527f63616e63656c2061206769667400000000000000000000000000000000000000606482015290519081900360840190fd5b60058101805460ff191660039081179091558101546000101561228457600281015460ff161561225257600e546003820154604080517fa9059cbb000000000000000000000000000000000000000000000000000000008152336004820152602481019290925251600160a060020a039092169163a9059cbb916044808201926020929091908290030181600087803b1580156121a557600080fd5b505af11580156121b9573d6000803e3d6000fd5b505050506040513d60208110156121cf57600080fd5b5051151561224d576040805160e560020a62461bcd02815260206004820152602d60248201527f53656e64696e6720746f20726563697069656e742061667465722063616e636560448201527f6c2067696674206661696c656400000000000000000000000000000000000000606482015290519081900360840190fd5b612284565b6003810154604051339180156108fc02916000818181858888f19350505050158015612282573d6000803e3d6000fd5b505b61228f3033846127a9565b6040805183815290513391600160a060020a038716917f1f4fedef2ca6d59bb9d65eea71fc10da706e68e90d6bc96d278fc385b31955679181900360200190a35060019392505050565b600c54600160a060020a031633146122f057600080fd5b61231d816040805190810160405280600981526020016000805160206154fa8339815191528152506149c1565b50565b600061232b83612a9c565b821061233657600080fd5b600160a060020a038316600090815260076020526040902080548390811061235a57fe5b9060005260206000200154905092915050565b60003361239d816040805190810160405280600981526020016000805160206154fa8339815191528152506117d4565b600160a060020a03861615156123fd576040805160e560020a62461bcd02815260206004820152600f60248201527f496e76616c696420616464726573730000000000000000000000000000000000604482015290519081900360640190fd5b84511515612455576040805160e560020a62461bcd02815260206004820152600c60248201527f496e76616c6964206e616d650000000000000000000000000000000000000000604482015290519081900360640190fd5b835115156124ad576040805160e560020a62461bcd02815260206004820152600c60248201527f496e76616c6964206e616d650000000000000000000000000000000000000000604482015290519081900360640190fd5b82511515612505576040805160e560020a62461bcd02815260206004820152600c60248201527f496e76616c6964206e616d650000000000000000000000000000000000000000604482015290519081900360640190fd5b60408051608081018252600160a060020a03888116825260208083018981528385018990526060840188905260008c815260148352949094208351815473ffffffffffffffffffffffffffffffffffffffff19169316929092178255925180519293919261257992600185019201906153d3565b50604082015180516125959160028401916020909101906153d3565b50606082015180516125b19160038401916020909101906153d3565b50506015805460018101825560009182527f55f448fdea98c4d29eb340757ef0a66cd03dbb9538908a6a81d96026b71ec475018990556040518992507f5f4aa3ef0a4bf82c0f10f704eb578f57422b27f40709f8a4aca4694b6bda8ab39190a25060019695505050505050565b60115481565b600033612654816040805190810160405280600981526020016000805160206154fa8339815191528152506117d4565b855115156126ac576040805160e560020a62461bcd02815260206004820152601160248201527f496e76616c696420746f6b656e20555249000000000000000000000000000000604482015290519081900360640190fd5b6040805160a081018252878152861515602080830191909152600082840181905260608301889052608083018790528a8152601682529290922081518051929391926126fb92849201906153d3565b5060208201516001828101805460ff19169215159290921790915560408084015160028401556060840151600384015560809093015160049092019190915560178054918201815560009081527fc624b66cc0138b8fabc209247f72d758e1cf3343756d543badbf24212bed8c15909101899055905188917fee4df2a71cd5144f989eafc284d855a4cc517ca03f21c5270ed8e2e9dcc3d29c91a25060019695505050505050565b601b5481565b6127c58383836020604051908101604052806000815250613b04565b505050565b6040805160e560020a62461bcd028152602060048201526024808201527f526164692e4361726473206172652063656e736f72736869702072657369737460448201527f616e742100000000000000000000000000000000000000000000000000000000606482015290519081900360840190fd5b60125481565b6000670de0b6b3a7640000612858614395565b830281151561286357fe5b0492915050565b33612898816040805190810160405280600981526020016000805160206154fa8339815191528152506117d4565b600083815260166020526040902054600260001961010060018416150201909116041515612910576040805160e560020a62461bcd02815260206004820152601a60248201527f4d7573742073706563696679206578697374696e672063617264000000000000604482015290519081900360640190fd5b5060009182526016602052604090912060040155565b6010805460408051602060026001851615610100026000190190941693909304601f810184900484028201840190925281815292918301828280156129ac5780601f10612981576101008083540402835291602001916129ac565b820191906000526020600020905b81548152906001019060200180831161298f57829003601f168201915b505050505081565b600090815260016020526040902054600160a060020a0316151590565b60006129db611a18565b82106129e657600080fd5b60098054839081106129f457fe5b90600052602060002001549050919050565b600160a060020a038116600090815260076020908152604091829020805483518184028101840190945280845260609392830182828015612a6657602002820191906000526020600020905b815481526020019060010190808311612a52575b50505050509050919050565b600081815260016020526040812054600160a060020a0316801515612a9657600080fd5b92915050565b6000600160a060020a0382161515612ab357600080fd5b50600160a060020a031660009081526003602052604090205490565b600c54600160a060020a03163314612ae657600080fd5b600c54604051600160a060020a03909116907ff8df31144d9c2f0f6b59d69b8b98abd5459d07f2742c4df920b25aae33c6482090600090a2600c805473ffffffffffffffffffffffffffffffffffffffff19169055565b33612b6b816040805190810160405280600981526020016000805160206154fa8339815191528152506117d4565b600083815260166020526040902054600260001961010060018416150201909116041515612be3576040805160e560020a62461bcd02815260206004820152601a60248201527f4d7573742073706563696679206578697374696e672063617264000000000000604482015290519081900360640190fd5b600083815260166020526040902060020154821015612c72576040805160e560020a62461bcd02815260206004820152603c60248201527f43616e742073657420746865206d6178207175616e74697479206c657373207460448201527f68616e207468652063757272656e7420746f74616c206d696e74656400000000606482015290519081900360840190fd5b5060009182526016602052604090912060030155565b6000612c92614395565b600083815260166020526040902060040154670de0b6b3a76400000281151561286357fe5b600c54600160a060020a03163314612cce57600080fd5b61231d816040805190810160405280600981526020016000805160206154fa833981519152815250614ad2565b60136020526000908152604090205481565b33612d3b816040805190810160405280600981526020016000805160206154fa8339815191528152506117d4565b600160a060020a0382161515612d5057600080fd5b50600f805473ffffffffffffffffffffffffffffffffffffffff1916600160a060020a0392909216919091179055565b600c54600160a060020a031681565b60166020908152600091825260409182902080548351601f60026000196101006001861615020190931692909204918201849004840281018401909452808452909291839190830182828015612e265780601f10612dfb57610100808354040283529160200191612e26565b820191906000526020600020905b815481529060010190602001808311612e0957829003601f168201915b50505050600183015460028401546003850154600490950154939460ff9092169390925085565b33612e7b816040805190810160405280600981526020016000805160206154fa8339815191528152506117d4565b811515612ed2576040805160e560020a62461bcd02815260206004820152601060248201527f426173652055524920696e76616c696400000000000000000000000000000000604482015290519081900360640190fd5b612ede60108484615451565b50505050565b60068054604080516020601f60026000196101006001881615020190951694909404938401819004810282018101909252828152606093909290918301828280156111be5780601f106115f8576101008083540402835291602001916111be565b601a5481565b6000612a96826040805190810160405280600981526020016000805160206154fa833981519152815250611dc1565b600080808080600160a060020a038c161515612fe0576040805160e560020a62461bcd02815260206004820152601760248201527f4d75737420626520612076616c69642061646472657373000000000000000000604482015290519081900360640190fd5b60008b815260146020526040902054600160a060020a0316151561304e576040805160e560020a62461bcd02815260206004820181905260248201527f4d7573742073706563696679206578697374696e672062656e65666163746f72604482015290519081900360640190fd5b60008a8152601660205260409020546002600019610100600184161502019091160415156130c6576040805160e560020a62461bcd02815260206004820152601a60248201527f4d7573742073706563696679206578697374696e672063617264000000000000604482015290519081900360640190fd5b60008a81526016602052604090206001015460ff161515613131576040805160e560020a62461bcd02815260206004820152601660248201527f4d75737420626520616e20616374697665206361726400000000000000000000604482015290519081900360640190fd5b600e54604080517fdd62ed3e0000000000000000000000000000000000000000000000000000000081523360048201523060248201529051600160a060020a039092169163dd62ed3e916044808201926020929091908290030181600087803b15801561319d57600080fd5b505af11580156131b1573d6000803e3d6000fd5b505050506040513d60208110156131c757600080fd5b50518888011115613248576040805160e560020a62461bcd02815260206004820152603c60248201527f4d75737420686176652070726f7669646564206869676820656e6f756768206160448201527f6c6f77616e636520746f20526164696361726420636f6e747261637400000000606482015290519081900360840190fd5b600e54604080517f70a082310000000000000000000000000000000000000000000000000000000081523360048201529051600160a060020a03909216916370a08231916024808201926020929091908290030181600087803b1580156132ae57600080fd5b505af11580156132c2573d6000803e3d6000fd5b505050506040513d60208110156132d857600080fd5b5051888801111561337f576040805160e560020a62461bcd02815260206004820152604960248201527f4d757374206861766520656e6f75676820746f6b656e2062616c616e6365206f60448201527f662064616920746f2070617920666f7220646f6e6174696f6e20616e6420676960648201527f667420616d6f756e740000000000000000000000000000000000000000000000608482015290519081900360a40190fd5b60008a815260166020526040812060030154111561342b5760008a815260166020526040902060038101546002909101541061342b576040805160e560020a62461bcd02815260206004820152602a60248201527f43616e277420657863656564206d6178696d756d207175616e74697479206f6660448201527f2063617264207479706500000000000000000000000000000000000000000000606482015290519081900360840190fd5b60008a81526016602052604081206004015411156134fa5760008a81526016602052604090206004015488880110156134fa576040805160e560020a62461bcd02815260206004820152604f60248201527f54686520746f74616c206461692073656e74207769746820746865207472616e60448201527f73616374696f6e206973206c657373207468616e20746865206d696e2070726960648201527f6365206f662074686520746f6b656e0000000000000000000000000000000000608482015290519081900360a40190fd5b85156135cd5760125434146135a5576040805160e560020a62461bcd02815260206004820152604760248201527f4120636c61696d61626c65206c696e6b207761732067656e657261746564206260448201527f7574206e6f7420656e6f75676820657068656d6572616c20657468657220776160648201527f732073656e742100000000000000000000000000000000000000000000000000608482015290519081900360a40190fd5b601154600160a060020a038d16600090815260136020526040902055600193503092506135d5565b600293508b92505b6101006040519081016040528033600160a060020a031681526020018a815260200160011515815260200188815260200189815260200185600381111561361857fe5b815260208082018d905260409182018e9052601154600090815260188252919091208251815473ffffffffffffffffffffffffffffffffffffffff1916600160a060020a03909116178155828201518051919261367d926001850192909101906153d3565b50604082015160028201805491151560ff1992831617905560608301516003808401919091556080840151600484015560a08401516005840180549193909291169060019084908111156136cd57fe5b021790555060c0820151600682015560e09091015160079091015560008a8152601660209081526040918290208054835160026001831615610100026000190190921691909104601f810184900484028201840190945283815261378b9387939192918301828280156137815780601f1061375657610100808354040283529160200191613781565b820191906000526020600020905b81548152906001019060200180831161376457829003601f168201915b5050505050614ba4565b60008b815260166020526040812060020180546001019055909250881180156137b2575085155b156138c2575060008a815260146020908152604080832054600e5482517f23b872dd000000000000000000000000000000000000000000000000000000008152336004820152600160a060020a0392831660248201819052604482018e90529351939591909216936323b872dd93606480850194929391928390030190829087803b15801561384057600080fd5b505af1158015613854573d6000803e3d6000fd5b505050506040513d602081101561386a57600080fd5b505115156138c2576040805160e560020a62461bcd02815260206004820152601960248201527f53656e64696e6720746f2063686172697479206661696c656400000000000000604482015290519081900360640190fd5b6000871180156138d0575085155b156139cc57600e54604080517f23b872dd000000000000000000000000000000000000000000000000000000008152336004820152600160a060020a038681166024830152604482018b9052915191909216916323b872dd9160648083019260209291908290030181600087803b15801561394a57600080fd5b505af115801561395e573d6000803e3d6000fd5b505050506040513d602081101561397457600080fd5b505115156139cc576040805160e560020a62461bcd02815260206004820152601b60248201527f53656e64696e6720746f20726563697061696e74206661696c65640000000000604482015290519081900360640190fd5b601b546139df908863ffffffff614bdc16565b601b55601c546139f5908963ffffffff614bdc16565b601c81905550898b8d600160a060020a03167fd359c70b2f912c06ca3e8d8198a5b372086ce31e71c88c96c50abbf71bb5a2a23386896040518084600160a060020a0316600160a060020a03168152602001838152602001826003811115613a5957fe5b60ff168152602001935050505060405180910390a45060019b9a5050505050505050505050565b600160a060020a038216331415613a9657600080fd5b336000818152600460209081526040808320600160a060020a03871680855290835292819020805460ff1916861515908117909155815190815290519293927f17307eab39ab6107e8899845ad3d59bd9653f200f220920489ca2b5937696c31929181900390910190a35050565b613b0f848484611e34565b613b1b84848484614be9565b1515612ede57600080fd5b60008080600160a060020a038a161515613b8a576040805160e560020a62461bcd02815260206004820152601760248201527f4d75737420626520612076616c69642061646472657373000000000000000000604482015290519081900360640190fd5b600089815260146020526040902054600160a060020a03161515613bf8576040805160e560020a62461bcd02815260206004820181905260248201527f4d7573742073706563696679206578697374696e672062656e65666163746f72604482015290519081900360640190fd5b600088815260166020526040902054600260001961010060018416150201909116041515613c70576040805160e560020a62461bcd02815260206004820152601a60248201527f4d7573742073706563696679206578697374696e672063617264000000000000604482015290519081900360640190fd5b60008881526016602052604090206001015460ff161515613cdb576040805160e560020a62461bcd02815260206004820152601660248201527f4d75737420626520616e20616374697665206361726400000000000000000000604482015290519081900360640190fd5b8315613d9357601254868601013414613d8a576040805160e560020a62461bcd02815260206004820152604c60248201527f43616e206f6e6c79207265717565737420746f20646f6e61746520616e64206760448201527f6966742074686520616d6f756e74206f662065746865722073656e74202b204560648201527f7068656d6572616c206665650000000000000000000000000000000000000000608482015290519081900360a40190fd5b60019150613e17565b8585013414613e12576040805160e560020a62461bcd02815260206004820152603c60248201527f43616e206f6e6c79207265717565737420746f20646f6e61746520616e64206760448201527f6966742074686520616d6f756e74206f662065746865722073656e7400000000606482015290519081900360840190fd5b600291505b6000888152601660205260408120600301541115613ec3576000888152601660205260409020600381015460029091015410613ec3576040805160e560020a62461bcd02815260206004820152602a60248201527f43616e277420657863656564206d6178696d756d207175616e74697479206f6660448201527f2063617264207479706500000000000000000000000000000000000000000000606482015290519081900360840190fd5b6000888152601660205260408120600401541115613f615734613ee589612c88565b1115613f61576040805160e560020a62461bcd02815260206004820152603160248201527f4d7573742073656e64206174206c6561737420746865206d696e696d756d206160448201527f6d6f756e7420746f206275792063617264000000000000000000000000000000606482015290519081900360840190fd5b6101006040519081016040528033600160a060020a03168152602001888152602001600015158152602001868152602001878152602001836003811115613fa457fe5b815260208082018b905260409182018c9052601154600090815260188252919091208251815473ffffffffffffffffffffffffffffffffffffffff1916600160a060020a039091161781558282015180519192614009926001850192909101906153d3565b50604082015160028201805491151560ff1992831617905560608301516003808401919091556080840151600484015560a084015160058401805491939092911690600190849081111561405957fe5b021790555060c0820151600682015560e0909101516007909101556000888152601660209081526040918290208054835160026001831615610100026000190190921691909104601f81018490048402820184019094528381526140e2938e939192918301828280156137815780601f1061375657610100808354040283529160200191613781565b60008981526016602052604081206002018054600101905590915086118015614109575083155b1561415457600089815260146020526040808220549051600160a060020a039091169188156108fc02918991818181858888f19350505050158015614152573d6000803e3d6000fd5b505b600085118015614162575083155b1561419f57604051600160a060020a038b169086156108fc029087906000818181858888f1935050505015801561419d573d6000803e3d6000fd5b505b6019546141b2908663ffffffff614bdc16565b601955601a546141c8908763ffffffff614bdc16565b601a8190555087898b600160a060020a03167fd359c70b2f912c06ca3e8d8198a5b372086ce31e71c88c96c50abbf71bb5a2a23385876040518084600160a060020a0316600160a060020a0316815260200183815260200182600381111561422c57fe5b60ff168152602001935050505060405180910390a45060019998505050505050505050565b606061425c826129b4565b151561426757600080fd5b60108054604080516020601f60026000196101006001881615020190951694909404938401819004810282018101909252828152612a9693909290918301828280156142f45780601f106142c9576101008083540402835291602001916142f4565b820191906000526020600020905b8154815290600101906020018083116142d757829003601f168201915b5050506000868152600b60209081526040918290208054835160026001831615610100026000190190921691909104601f81018490048402820184019094528381529450925083018282801561438b5780601f106143605761010080835404028352916020019161438b565b820191906000526020600020905b81548152906001019060200180831161436e57829003601f168201915b5050505050614d6b565b600f54604080517f57de26a40000000000000000000000000000000000000000000000000000000081529051600092600160a060020a0316916357de26a491600480830192602092919082900301818787803b1580156143f457600080fd5b505af1158015614408573d6000803e3d6000fd5b505050506040513d602081101561441e57600080fd5b5051905090565b600c54600090600160a060020a0316331461443f57600080fd5b5060005b815181101561183e5761446c828281518110151561445d57fe5b90602001906020020151612cb7565b600101614443565b336144a2816040805190810160405280600981526020016000805160206154fa8339815191528152506117d4565b60008381526016602052604090205460026000196101006001841615020190911604151561451a576040805160e560020a62461bcd02815260206004820152601a60248201527f4d7573742073706563696679206578697374696e672063617264000000000000604482015290519081900360640190fd5b50600091825260166020526040909120600101805460ff1916911515919091179055565b601c5481565b600160a060020a03918216600090815260046020908152604080832093909416825291909152205460ff1690565b600c54600160a060020a0316331461458957600080fd5b61231d81614da0565b606060178054806020026020016040519081016040528092919081815260200182805480156111be57602002820191906000526020600020908154815260200190600101908083116111aa575050505050905090565b60195481565b600080600080606060008061460161535b565b61460a896129b4565b151561461557600080fd5b600089815260186020908152604091829020825161010080820185528254600160a060020a03168252600180840180548751600293821615909402600019011691909104601f81018690048602830186019096528582529194929385810193919291908301828280156146c95780601f1061469e576101008083540402835291602001916146c9565b820191906000526020600020905b8154815290600101906020018083116146ac57829003601f168201915b5050509183525050600282015460ff9081161515602083015260038084015460408401526004840154606084015260058401546080909301929091169081111561470f57fe5b600381111561471a57fe5b81526006820154602080830191909152600790920154604091820152825190830151606084015160808501519385015160c086015160e090960151939f929e50909c50929a5091985091965090945092505050565b6147798282614784565b151561183e57600080fd5b600160a060020a03166000908152602091909152604090205460ff1690565b6000806147af83612a72565b905080600160a060020a031684600160a060020a031614806147ea575083600160a060020a03166147df84611703565b600160a060020a0316145b806147fa57506147fa8185614544565b949350505050565b81600160a060020a031661481582612a72565b600160a060020a03161461482857600080fd5b600081815260026020526040902054600160a060020a03161561183e576000908152600260205260409020805473ffffffffffffffffffffffffffffffffffffffff1916905550565b60008060006148808585614e1e565b600084815260086020908152604080832054600160a060020a03891684526007909252909120549093506148bb90600163ffffffff614eb416565b600160a060020a0386166000908152600760205260409020805491935090839081106148e357fe5b90600052602060002001549050806007600087600160a060020a0316600160a060020a031681526020019081526020016000208481548110151561492357fe5b6000918252602080832090910192909255600160a060020a038716815260079091526040902080549061495a9060001983016154bf565b50600093845260086020526040808520859055908452909220555050565b60006149848383614ec6565b50600160a060020a039091166000908152600760209081526040808320805460018101825590845282842081018590559383526008909152902055565b614a2b82600d836040518082805190602001908083835b602083106149f75780518252601f1990920191602091820191016149d8565b51815160209384036101000a6000190180199092169116179052920194855250604051938490030190922092915050614f56565b81600160a060020a03167fd211483f91fc6eff862467f8de606587a30c8fc9981056f051b897a418df803a826040518080602001828103825283818151815260200191508051906020019080838360005b83811015614a94578181015183820152602001614a7c565b50505050905090810190601f168015614ac15780820380516001836020036101000a031916815260200191505b509250505060405180910390a25050565b614b3c82600d836040518082805190602001908083835b60208310614b085780518252601f199092019160209182019101614ae9565b51815160209384036101000a6000190180199092169116179052920194855250604051938490030190922092915050614f78565b81600160a060020a03167fbfec83d64eaa953f2708271a023ab9ee82057f8f3578d548c1a4ba0b5b7004898260405180806020018281038252838181518152602001915080519060200190808383600083811015614a94578181015183820152602001614a7c565b601154600090614bb48482614f9d565b614bbe8184614fec565b601154614bd290600163ffffffff614bdc16565b6011559392505050565b81810182811015612a9657fe5b600080614bfe85600160a060020a031661501f565b1515614c0d5760019150614d62565b6040517f150b7a020000000000000000000000000000000000000000000000000000000081523360048201818152600160a060020a03898116602485015260448401889052608060648501908152875160848601528751918a169463150b7a0294938c938b938b93909160a490910190602085019080838360005b83811015614ca0578181015183820152602001614c88565b50505050905090810190601f168015614ccd5780820380516001836020036101000a031916815260200191505b5095505050505050602060405180830381600087803b158015614cef57600080fd5b505af1158015614d03573d6000803e3d6000fd5b505050506040513d6020811015614d1957600080fd5b50517bffffffffffffffffffffffffffffffffffffffffffffffffffffffff1981167f150b7a020000000000000000000000000000000000000000000000000000000014925090505b50949350505050565b604080516020818101835260008083528351808301855281815284519283019094528152606092611e2d928692869290615027565b600160a060020a0381161515614db557600080fd5b600c54604051600160a060020a038084169216907f8be0079c531659141344cd1fd0a4f28419497f9722a3daafe3b4186f6b6457e090600090a3600c805473ffffffffffffffffffffffffffffffffffffffff1916600160a060020a0392909216919091179055565b81600160a060020a0316614e3182612a72565b600160a060020a031614614e4457600080fd5b600160a060020a038216600090815260036020526040902054614e6e90600163ffffffff614eb416565b600160a060020a03909216600090815260036020908152604080832094909455918152600190915220805473ffffffffffffffffffffffffffffffffffffffff19169055565b600082821115614ec057fe5b50900390565b600081815260016020526040902054600160a060020a031615614ee857600080fd5b6000818152600160208181526040808420805473ffffffffffffffffffffffffffffffffffffffff1916600160a060020a0388169081179091558452600390915290912054614f3691614bdc565b600160a060020a0390921660009081526003602052604090209190915550565b600160a060020a0316600090815260209190915260409020805460ff19169055565b600160a060020a0316600090815260209190915260409020805460ff19166001179055565b614fa78282615300565b600980546000838152600a60205260408120829055600182018355919091527f6e1540171b6c0c960b71a7020d9f60077f6af931a8bbf590da0223dacf75c7af015550565b614ff5826129b4565b151561500057600080fd5b6000828152600b6020908152604090912082516127c5928401906153d3565b6000903b1190565b6060806060806060806060806000808e98508d97508c96508b95508a94508451865188518a518c51010101016040519080825280601f01601f191660200182016040528015615080578160200160208202803883390190505b50935083925060009150600090505b88518110156151055788818151811015156150a657fe5b90602001015160f860020a900460f860020a0283838060010194508151811015156150cd57fe5b9060200101907effffffffffffffffffffffffffffffffffffffffffffffffffffffffffffff1916908160001a90535060010161508f565b5060005b875181101561517f57878181518110151561512057fe5b90602001015160f860020a900460f860020a02838380600101945081518110151561514757fe5b9060200101907effffffffffffffffffffffffffffffffffffffffffffffffffffffffffffff1916908160001a905350600101615109565b5060005b86518110156151f957868181518110151561519a57fe5b90602001015160f860020a900460f860020a0283838060010194508151811015156151c157fe5b9060200101907effffffffffffffffffffffffffffffffffffffffffffffffffffffffffffff1916908160001a905350600101615183565b5060005b855181101561527357858181518110151561521457fe5b90602001015160f860020a900460f860020a02838380600101945081518110151561523b57fe5b9060200101907effffffffffffffffffffffffffffffffffffffffffffffffffffffffffffff1916908160001a9053506001016151fd565b5060005b84518110156152ed57848181518110151561528e57fe5b90602001015160f860020a900460f860020a0283838060010194508151811015156152b557fe5b9060200101907effffffffffffffffffffffffffffffffffffffffffffffffffffffffffffff1916908160001a905350600101615277565b50909d9c50505050505050505050505050565b600160a060020a038216151561531557600080fd5b61531f8282614978565b6040518190600160a060020a038416906000907fddf252ad1be2c89b69c2b068fc378daa952ba7f163c4a11628f55a4df523b3ef908290a45050565b60408051610100810182526000808252606060208301819052928201819052918101829052608081018290529060a0820190815260200160008152602001600081525090565b6080604051908101604052806000600160a060020a031681526020016060815260200160608152602001606081525090565b828054600181600116156101000203166002900490600052602060002090601f016020900481019282601f1061541457805160ff1916838001178555615441565b82800160010185558215615441579182015b82811115615441578251825591602001919060010190615426565b5061544d9291506154df565b5090565b828054600181600116156101000203166002900490600052602060002090601f016020900481019282601f106154925782800160ff19823516178555615441565b82800160010185558215615441579182015b828111156154415782358255916020019190600101906154a4565b8154818355818111156127c5576000838152602090206127c59181019083015b6111c691905b8082111561544d57600081556001016154e5560077686974656c6973740000000000000000000000000000000000000000000000a165627a7a723058206b12d416f288c0faafc2b18c47bfb989e04a5c440e775ccff7ebbbd6d850388f0029",
  "source": "pragma solidity ^0.4.24;\n\nimport \"openzeppelin-solidity/contracts/math/SafeMath.sol\";\nimport \"openzeppelin-solidity/contracts/access/Whitelist.sol\";\nimport \"openzeppelin-solidity/contracts/token/ERC721/ERC721Token.sol\";\nimport \"openzeppelin-solidity/contracts/token/ERC20/StandardToken.sol\";\n\nimport \"./Strings.sol\";\nimport \"./Medianizer.sol\";\n\n/**\n* @title Radi.Cards\n*\n* @author blockrocket.tech (smart contracts)\n* @author cryptodecks.co\n* @author knownorigin.io\n* @author pheme.app\n* @author d1labs.com\n* @author mbdoesthings.com\n* @author chrismaree.io (smart contracts update)\n*/\ncontract RadiCards is ERC721Token, Whitelist {\n  using SafeMath for uint256;\n\n\n  // dai support\n  StandardToken daiContract;\n  Medianizer medianizerContract;\n\n  string public tokenBaseURI = \"https://ipfs.infura.io/ipfs/\";\n\n  uint256 public tokenIdPointer = 0;\n\n  struct Benefactor {\n    address ethAddress;\n    string name;\n    string website;\n    string logo;\n  }\n\n  struct CardDesign {\n    string tokenURI;\n    bool active;\n    uint minted;\n    uint maxQnty; //set to zero for unlimited\n    //minimum price per card set in Atto (SI prefix for 1x10-18 dai)\n    uint256 minPrice; //set to zero to default to the minimumContribution\n  }\n\n// claimable link support\n  enum Statuses { Empty, Deposited, Claimed, Cancelled }\n  uint256 public EPHEMERAL_ADDRESS_FEE = 0.01 ether;\n  mapping(address => uint256) public ephemeralWalletCards; // ephemeral wallet => tokenId\n\n  struct RadiCard {\n    address gifter;\n    string message;\n    bool daiDonation;\n    uint256 giftAmount;\n    uint256 donationAmount;\n    Statuses status;\n    uint256 cardIndex;\n    uint256 benefactorIndex;\n  }\n\n  mapping(uint256 => Benefactor) public benefactors;\n  uint256[] internal benefactorsIndex;\n\n  mapping(uint256 => CardDesign) public cards;\n  uint256[] internal cardsIndex;\n\n  mapping(uint256 => RadiCard) public tokenIdToRadiCardIndex;\n\n  //total gifted/donated in ETH\n  uint256 public totalGiftedInWei;\n  uint256 public totalDonatedInWei;\n\n  //total gifted/donated in DAI\n  uint256 public totalGiftedInAtto; //SI prefix for 1x10-18 dai is Atto.\n  uint256 public totalDonatedInAtto;\n\n  event CardGifted(\n    address indexed _to,\n    uint256 indexed _benefactorIndex,\n    uint256 indexed _cardIndex,\n    address _from,\n    uint256 _tokenId,\n    Statuses status\n  );\n\n  event LogClaim(\n\t\t address indexed ephemeralAddress,\n\t\t address indexed sender,\n\t\t uint tokenId,\n\t\t address receiver,\n\t\t uint giftAmount,\n     bool daiDonation\n\t\t );\n\n  event LogCancel(\n\t\t  address indexed ephemeralAddress,\n\t\t  address indexed sender,\n\t\t  uint tokenId\n\t\t  );\n\n\n  event BenefactorAdded(\n    uint256 indexed _benefactorIndex\n  );\n\n  event CardAdded(\n    uint256 indexed _cardIndex\n  );\n\n  constructor () public ERC721Token(\"RadiCards\", \"RADI\") {\n    addAddressToWhitelist(msg.sender);\n  }\n\n  function gift(address to, uint256 _benefactorIndex, uint256 _cardIndex, string _message, uint256 _donationAmount, uint256 _giftAmount, bool _claimableLink) payable public returns (bool) {\n    require(to != address(0), \"Must be a valid address\");\n    require(benefactors[_benefactorIndex].ethAddress != address(0), \"Must specify existing benefactor\");\n    require(bytes(cards[_cardIndex].tokenURI).length != 0, \"Must specify existing card\");\n    require(cards[_cardIndex].active, \"Must be an active card\");\n\n    Statuses _giftStatus;\n\n    if(_claimableLink){\n      require(_donationAmount + _giftAmount + EPHEMERAL_ADDRESS_FEE == msg.value, \"Can only request to donate and gift the amount of ether sent + Ephemeral fee\");\n      _giftStatus = Statuses.Deposited;\n    }\n\n    else{\n      require(_donationAmount + _giftAmount == msg.value,\"Can only request to donate and gift the amount of ether sent\");\n      _giftStatus = Statuses.Claimed;\n    }\n\n    if (cards[_cardIndex].maxQnty > 0){ //the max quantity is set to zero to indicate no limit. Only need to check that can mint if limited\n      require(cards[_cardIndex].minted < cards[_cardIndex].maxQnty, \"Can't exceed maximum quantity of card type\");\n    }\n\n    if(cards[_cardIndex].minPrice > 0){ //if the card has a minimum price check that enough has been sent\n      // Convert the current value of the eth send to a USD value of atto (1 usd = 10^18 atto).\n      // require(getEthUsdValue(msg.value) >= (cards[_cardIndex].minPrice), \"Must send at least the minimum amount\");\n      require (getMinCardPriceInWei(_cardIndex)<=msg.value,\"Must send at least the minimum amount to buy card\");\n    }\n\n    tokenIdToRadiCardIndex[tokenIdPointer] = RadiCard({\n        gifter : msg.sender,\n        daiDonation: false,\n        giftAmount : _giftAmount,\n        donationAmount: _donationAmount,\n        status: _giftStatus,\n        message : _message,\n        benefactorIndex : _benefactorIndex,\n        cardIndex : _cardIndex\n    });\n\n    uint256 _tokenId = _mint(to, cards[_cardIndex].tokenURI);\n\n    cards[_cardIndex].minted++;\n\n    // transfer the ETH to the benefactor and recipaint\n    if(_donationAmount > 0 && !_claimableLink){\n      benefactors[_benefactorIndex].ethAddress.transfer(_donationAmount);\n    }\n\n    if(_giftAmount > 0 && !_claimableLink){\n        to.transfer(_giftAmount);\n    }\n\n    // tally up the total eth gifted and donated\n    totalGiftedInWei = totalGiftedInWei.add(_giftAmount);\n    totalDonatedInWei = totalDonatedInWei.add(_donationAmount);\n\n    emit CardGifted(to, _benefactorIndex, _cardIndex, msg.sender, _tokenId, _giftStatus);\n\n    return true;\n  }\n\n  function giftInDai(address to, uint256 _benefactorIndex, uint256 _cardIndex, string _message, uint256 _donationAmount, uint256 _giftAmount, bool _claimableLink) public payable returns (bool) {\n    require(to != address(0), \"Must be a valid address\");\n    require(benefactors[_benefactorIndex].ethAddress != address(0), \"Must specify existing benefactor\");\n    require(bytes(cards[_cardIndex].tokenURI).length != 0, \"Must specify existing card\");\n    require(cards[_cardIndex].active, \"Must be an active card\");\n    require((_donationAmount + _giftAmount)<= daiContract.allowance(msg.sender, this), \"Must have provided high enough alowance to Radicard contract\");\n    require((_donationAmount + _giftAmount)<= daiContract.balanceOf(msg.sender), \"Must have enough token balance of dai to pay for donation and gift amount\");\n\n    if (cards[_cardIndex].maxQnty > 0){ //the max quantity is set to zero to indicate no limit. Only need to check that can mint if limited\n      require(cards[_cardIndex].minted < cards[_cardIndex].maxQnty, \"Can't exceed maximum quantity of card type\");\n    }\n\n    if(cards[_cardIndex].minPrice > 0){ //if the card has a minimum price check that enough has been sent\n      require((_donationAmount + _giftAmount) >= cards[_cardIndex].minPrice, \"The total dai sent with the transaction is less than the min price of the token\");\n    }\n\n    //parameters that change based on the if the card is setup as with a claimable link\n    Statuses _giftStatus;\n    address _sentToAddress;\n\n    if(_claimableLink){\n      require(msg.value == EPHEMERAL_ADDRESS_FEE, \"A claimable link was generated but not enough ephemeral ether was sent!\");\n      _giftStatus = Statuses.Deposited;\n      _sentToAddress = this;\n      // need to store the address of the ephemeral account and the card that it owns for claimable link functionality\n      ephemeralWalletCards[to] = tokenIdPointer;\n    }\n    else {\n      _giftStatus = Statuses.Claimed;\n      _sentToAddress = to;\n    }\n\n    tokenIdToRadiCardIndex[tokenIdPointer] = RadiCard({\n        gifter : msg.sender,\n        daiDonation: true,\n        giftAmount : _giftAmount,\n        donationAmount: _donationAmount,\n        status: _giftStatus,\n        message : _message,\n        benefactorIndex : _benefactorIndex,\n        cardIndex : _cardIndex\n    });\n\n    // Card is minted to the _sentToAddress. This is either this radicards contract(if claimableLink==true)\n    // and the creator chose to use the escrow for a claimable link or to the recipient EOA directly\n    uint256 _tokenId = _mint(_sentToAddress, cards[_cardIndex].tokenURI);\n\n    cards[_cardIndex].minted++;\n\n    // transfer the DAI to the benefactor and recipaint\n    if(_donationAmount > 0 && !_claimableLink){\n        address _benefactorAddress = benefactors[_benefactorIndex].ethAddress;\n        require(daiContract.transferFrom(msg.sender, _benefactorAddress, _donationAmount),\"Sending to charity failed\");\n    }\n\n    if(_giftAmount > 0 && !_claimableLink){\n        require(daiContract.transferFrom(msg.sender, _sentToAddress, _giftAmount),\"Sending to recipaint failed\");\n    }\n\n    // tally up the total eth gifted and donated\n    totalGiftedInAtto = totalGiftedInAtto.add(_giftAmount);\n    totalDonatedInAtto = totalDonatedInAtto.add(_donationAmount);\n\n    emit CardGifted(to, _benefactorIndex, _cardIndex, msg.sender, _tokenId, _giftStatus);\n\n    return true;\n\n  }\n\n  function _mint(address to, string tokenURI) internal returns (uint256 _tokenId) {\n    uint256 tokenId = tokenIdPointer;\n\n    super._mint(to, tokenId);\n    _setTokenURI(tokenId, tokenURI);\n\n    tokenIdPointer = tokenIdPointer.add(1);\n\n    return tokenId;\n  }\n\n  function cancelGift(address _ephemeralAddress) public returns (bool success) {\n\n    uint256 tokenId = ephemeralWalletCards[_ephemeralAddress];\n    require(tokenId != 0, \"Can only call this function on an address that was used as an ephemeral\");\n    RadiCard storage card = tokenIdToRadiCardIndex[tokenId];\n\n    // is deposited and wasn't claimed or cancelled before\n    require(card.status == Statuses.Deposited, \"can only cancel gifts that are unclaimed (deposited)\");\n\n    // only gifter can cancel transfer;\n    require(msg.sender == card.gifter, \"only the gifter of the card can cancel a gift\");\n\n    // update status to cancelled\n    card.status = Statuses.Cancelled;\n\n    // transfer optional ether & dai back to creators address\n    if (card.giftAmount > 0) {\n        if(card.daiDonation){\n            require(daiContract.transfer(msg.sender, card.giftAmount),\"Sending to recipient after cancel gift failed\");\n      }\n        else{\n            msg.sender.transfer(card.giftAmount);\n        }\n    }\n\n    // send nft to buyer\n    super.safeTransferFrom(address(this), msg.sender, tokenId);\n\n    // log cancel event\n    emit LogCancel(_ephemeralAddress, msg.sender, tokenId);\n\n    return true;\n  }\n\n\n  /**\n   * @dev Claim gift to receiver's address if it is correctly signed\n   * with private key for verification public key assigned to gift.\n   *\n   * @param _receiver address Signed address.\n   * @return True if success.\n   */\n  function claimGift(address _receiver) public returns (bool success) {\n    // only holder of ephemeral private key can claim gift\n    address _ephemeralAddress = msg.sender;\n\n    uint256 tokenId = ephemeralWalletCards[_ephemeralAddress];\n\n    require(tokenId != 0, \"The calling address does not have an ephemeral account associated with it\");\n\n    RadiCard storage card = tokenIdToRadiCardIndex[tokenId];\n\n    // is deposited and wasn't claimed or cancelled before\n    require(card.status == Statuses.Deposited, \"Can only claim a gift that is unclaimed\");\n\n    // update gift status to claimed\n    card.status = Statuses.Claimed;\n\n    // send nft to receiver\n    super.safeTransferFrom(address(this), _receiver, tokenId);\n\n    // transfer optional ether & dai to receiver's address\n    if (card.giftAmount > 0) {\n        if(card.daiDonation){\n            require(daiContract.transfer(_receiver, card.giftAmount),\"Sending to recipient after cancel gift failed\");\n      }\n        else{\n            _receiver.transfer(card.giftAmount);\n        }\n    }\n\n    // log claim event\n    emit LogClaim(\n        _ephemeralAddress,\n        card.gifter,\n        tokenId,\n        _receiver,\n        card.giftAmount,\n        card.daiDonation\n    );\n    return true;\n  }\n\n\n  function burn(uint256 _tokenId) public pure  {\n    revert(\"Radi.Cards are censorship resistant!\");\n  }\n\n  function tokenURI(uint256 _tokenId) public view returns (string) {\n    require(exists(_tokenId));\n\n    return Strings.strConcat(tokenBaseURI, tokenURIs[_tokenId]);\n  }\n\n  function tokenDetails(uint256 _tokenId)\n  public view\n  returns (\n    address _gifter,\n    bool _daiDonation,\n    uint256 _giftAmount,\n    uint256 _donationAmount,\n    string _message,\n    uint256 _cardIndex,\n    uint256 _benefactorIndex\n  ) {\n    require(exists(_tokenId));\n    RadiCard memory _radiCard = tokenIdToRadiCardIndex[_tokenId];\n    return (\n      _radiCard.gifter,\n      _radiCard.daiDonation,\n      _radiCard.giftAmount,\n      _radiCard.donationAmount,\n      _radiCard.message,\n      _radiCard.cardIndex,\n      _radiCard.benefactorIndex\n    );\n  }\n\n  function tokenBenefactor(uint256 _tokenId)\n  public view\n  returns (\n    address _ethAddress,\n    string _name,\n    string _website,\n    string _logo\n  ) {\n    require(exists(_tokenId));\n    RadiCard memory _radiCard = tokenIdToRadiCardIndex[_tokenId];\n    Benefactor memory _benefactor = benefactors[_radiCard.benefactorIndex];\n    return (\n      _benefactor.ethAddress,\n      _benefactor.name,\n      _benefactor.website,\n      _benefactor.logo\n    );\n  }\n\n  function tokensOf(address _owner) public view returns (uint256[] _tokenIds) {\n    return ownedTokens[_owner];\n  }\n\n  function benefactorsKeys() public view returns (uint256[] _keys) {\n    return benefactorsIndex;\n  }\n\n  function cardsKeys() public view returns (uint256[] _keys) {\n    return cardsIndex;\n  }\n\n  function addBenefactor(uint256 _benefactorIndex, address _ethAddress, string _name, string _website, string _logo)\n  public onlyIfWhitelisted(msg.sender)\n  returns (bool) {\n    require(address(_ethAddress) != address(0), \"Invalid address\");\n    require(bytes(_name).length != 0, \"Invalid name\");\n    require(bytes(_website).length != 0, \"Invalid name\");\n    require(bytes(_logo).length != 0, \"Invalid name\");\n\n    benefactors[_benefactorIndex] = Benefactor(\n      _ethAddress,\n      _name,\n      _website,\n      _logo\n    );\n    benefactorsIndex.push(_benefactorIndex);\n\n    emit BenefactorAdded(_benefactorIndex);\n    return true;\n  }\n\n  function addCard(uint256 _cardIndex, string _tokenURI, bool _active, uint256 _maxQnty, uint256 _minPrice)\n  public onlyIfWhitelisted(msg.sender)\n  returns (bool) {\n    require(bytes(_tokenURI).length != 0, \"Invalid token URI\");\n\n    cards[_cardIndex] = CardDesign(\n      _tokenURI,\n      _active,\n      0,\n      _maxQnty,\n      _minPrice\n    );\n    cardsIndex.push(_cardIndex);\n\n    emit CardAdded(_cardIndex);\n    return true;\n  }\n\n  function setTokenBaseURI(string _newBaseURI) external onlyIfWhitelisted(msg.sender) {\n    require(bytes(_newBaseURI).length != 0, \"Base URI invalid\");\n\n    tokenBaseURI = _newBaseURI;\n  }\n\n  function setActive(uint256 _cardIndex, bool _active) external onlyIfWhitelisted(msg.sender) {\n    require(bytes(cards[_cardIndex].tokenURI).length != 0, \"Must specify existing card\");\n    cards[_cardIndex].active = _active;\n  }\n\n  function setMaxQuantity(uint256 _cardIndex, uint256 _maxQnty) external onlyIfWhitelisted(msg.sender) {\n    require(bytes(cards[_cardIndex].tokenURI).length != 0, \"Must specify existing card\");\n    require(cards[_cardIndex].minted<=_maxQnty, \"Cant set the max quantity less than the current total minted\");\n    cards[_cardIndex].maxQnty = _maxQnty;\n  }\n\n  function setMinPrice(uint256 _cardIndex, uint256 _minPrice) external onlyIfWhitelisted(msg.sender) {\n    require(bytes(cards[_cardIndex].tokenURI).length != 0, \"Must specify existing card\");\n    cards[_cardIndex].minPrice = _minPrice;\n  }\n\n  function setDaiContractAddress(address _daiERC20ContractAddress) external onlyIfWhitelisted(msg.sender){\n    require(_daiERC20ContractAddress != address(0));\n    daiContract = StandardToken(_daiERC20ContractAddress);\n  }\n\n  function setMedianizerContractAddress(address _MedianizerContractAddress) external onlyIfWhitelisted(msg.sender){\n    require(_MedianizerContractAddress != address(0));\n    medianizerContract = Medianizer(_MedianizerContractAddress);\n  }\n\n  // returns the current ether price in usd. 18 decimal point precision used\n  function getEtherPrice() public view returns(uint256){\n    return uint256(medianizerContract.read());\n  }\n\n  //returns the value of ether in atto  (1 usd of ether = 10^18 atto)\n  function getEthUsdValue(uint256 _ether) public view returns(uint256){\n    return ((_ether*getEtherPrice())/(1 ether));\n  }\n\n  //returns the minimum required in wei for a particular card given the card min price in dai\n  function getMinCardPriceInWei(uint256 _cardIndex) public view returns(uint256){\n    return ((cards[_cardIndex].minPrice*1 ether)/getEtherPrice());\n  }\n}\n",
  "sourcePath": "/Users/chris/Projects/radi.cards/contracts/RadiCards.sol",
  "compiler": {
    "name": "solc",
    "version": "0.4.24+commit.e67f0147.Emscripten.clang"
  },
  "schemaVersion": "3.0.1",
  "updatedAt": "2019-01-17T20:34:48.388Z",
  "devdoc": {
    "author": "blockrocket.tech (smart contracts)cryptodecks.coknownorigin.iopheme.appd1labs.commbdoesthings.comchrismaree.io (smart contracts update)",
    "methods": {
      "addAddressToWhitelist(address)": {
        "details": "add an address to the whitelist",
        "params": {
          "_operator": "address"
        },
        "return": "true if the address was added to the whitelist, false if the address was already in the whitelist"
      },
      "addAddressesToWhitelist(address[])": {
        "details": "add addresses to the whitelist",
        "params": {
          "_operators": "addresses"
        },
        "return": "true if at least one address was added to the whitelist, false if all addresses were already in the whitelist"
      },
      "approve(address,uint256)": {
        "details": "Approves another address to transfer the given token ID The zero address indicates there is no approved address. There can only be one approved address per token at a given time. Can only be called by the token owner or an approved operator.",
        "params": {
          "_to": "address to be approved for the given token ID",
          "_tokenId": "uint256 ID of the token to be approved"
        }
      },
      "balanceOf(address)": {
        "details": "Gets the balance of the specified address",
        "params": {
          "_owner": "address to query the balance of"
        },
        "return": "uint256 representing the amount owned by the passed address"
      },
      "checkRole(address,string)": {
        "details": "reverts if addr does not have role",
        "params": {
          "_operator": "address",
          "_role": "the name of the role // reverts"
        }
      },
      "claimGift(address)": {
        "details": "Claim gift to receiver's address if it is correctly signed with private key for verification public key assigned to gift.",
        "params": {
          "_receiver": "address Signed address."
        },
        "return": "True if success."
      },
      "exists(uint256)": {
        "details": "Returns whether the specified token exists",
        "params": {
          "_tokenId": "uint256 ID of the token to query the existence of"
        },
        "return": "whether the token exists"
      },
      "getApproved(uint256)": {
        "details": "Gets the approved address for a token ID, or zero if no address set",
        "params": {
          "_tokenId": "uint256 ID of the token to query the approval of"
        },
        "return": "address currently approved for the given token ID"
      },
      "hasRole(address,string)": {
        "details": "determine if addr has role",
        "params": {
          "_operator": "address",
          "_role": "the name of the role"
        },
        "return": "bool"
      },
      "isApprovedForAll(address,address)": {
        "details": "Tells whether an operator is approved by a given owner",
        "params": {
          "_operator": "operator address which you want to query the approval of",
          "_owner": "owner address which you want to query the approval of"
        },
        "return": "bool whether the given operator is approved by the given owner"
      },
      "name()": {
        "details": "Gets the token name",
        "return": "string representing the token name"
      },
      "ownerOf(uint256)": {
        "details": "Gets the owner of the specified token ID",
        "params": {
          "_tokenId": "uint256 ID of the token to query the owner of"
        },
        "return": "owner address currently marked as the owner of the given token ID"
      },
      "removeAddressFromWhitelist(address)": {
        "details": "remove an address from the whitelist",
        "params": {
          "_operator": "address"
        },
        "return": "true if the address was removed from the whitelist, false if the address wasn't in the whitelist in the first place"
      },
      "removeAddressesFromWhitelist(address[])": {
        "details": "remove addresses from the whitelist",
        "params": {
          "_operators": "addresses"
        },
        "return": "true if at least one address was removed from the whitelist, false if all addresses weren't in the whitelist in the first place"
      },
      "renounceOwnership()": {
        "details": "Allows the current owner to relinquish control of the contract."
      },
      "safeTransferFrom(address,address,uint256)": {
        "details": "Safely transfers the ownership of a given token ID to another address If the target address is a contract, it must implement `onERC721Received`, which is called upon a safe transfer, and return the magic value `bytes4(keccak256(\"onERC721Received(address,address,uint256,bytes)\"))`; otherwise, the transfer is reverted.   * Requires the msg sender to be the owner, approved, or operator",
        "params": {
          "_from": "current owner of the token",
          "_to": "address to receive the ownership of the given token ID",
          "_tokenId": "uint256 ID of the token to be transferred"
        }
      },
      "safeTransferFrom(address,address,uint256,bytes)": {
        "details": "Safely transfers the ownership of a given token ID to another address If the target address is a contract, it must implement `onERC721Received`, which is called upon a safe transfer, and return the magic value `bytes4(keccak256(\"onERC721Received(address,address,uint256,bytes)\"))`; otherwise, the transfer is reverted. Requires the msg sender to be the owner, approved, or operator",
        "params": {
          "_data": "bytes data to send along with a safe transfer check",
          "_from": "current owner of the token",
          "_to": "address to receive the ownership of the given token ID",
          "_tokenId": "uint256 ID of the token to be transferred"
        }
      },
      "setApprovalForAll(address,bool)": {
        "details": "Sets or unsets the approval of a given operator An operator is allowed to transfer all tokens of the sender on their behalf",
        "params": {
          "_approved": "representing the status of the approval to be set",
          "_to": "operator address to set the approval"
        }
      },
      "supportsInterface(bytes4)": {
        "details": "implement supportsInterface(bytes4) using a lookup table"
      },
      "symbol()": {
        "details": "Gets the token symbol",
        "return": "string representing the token symbol"
      },
      "tokenByIndex(uint256)": {
        "details": "Gets the token ID at a given index of all the tokens in this contract Reverts if the index is greater or equal to the total number of tokens",
        "params": {
          "_index": "uint256 representing the index to be accessed of the tokens list"
        },
        "return": "uint256 token ID at the given index of the tokens list"
      },
      "tokenOfOwnerByIndex(address,uint256)": {
        "details": "Gets the token ID at a given index of the tokens list of the requested owner",
        "params": {
          "_index": "uint256 representing the index to be accessed of the requested tokens list",
          "_owner": "address owning the tokens list to be accessed"
        },
        "return": "uint256 token ID at the given index of the tokens list owned by the requested address"
      },
      "totalSupply()": {
        "details": "Gets the total amount of tokens stored by the contract",
        "return": "uint256 representing the total amount of tokens"
      },
      "transferFrom(address,address,uint256)": {
        "details": "Transfers the ownership of a given token ID to another address Usage of this method is discouraged, use `safeTransferFrom` whenever possible Requires the msg sender to be the owner, approved, or operator",
        "params": {
          "_from": "current owner of the token",
          "_to": "address to receive the ownership of the given token ID",
          "_tokenId": "uint256 ID of the token to be transferred"
        }
      },
      "transferOwnership(address)": {
        "details": "Allows the current owner to transfer control of the contract to a newOwner.",
        "params": {
          "_newOwner": "The address to transfer ownership to."
        }
      },
      "whitelist(address)": {
        "details": "getter to determine if address is in whitelist"
      }
    },
    "title": "Radi.Cards"
  },
  "userdoc": {
    "methods": {
      "renounceOwnership()": {
        "notice": "Renouncing to ownership will leave the contract without an owner. It will not be possible to call the functions with the `onlyOwner` modifier anymore."
      }
    }
  }
}