{
  "contractName": "RadiCards",
  "abi": [
    {
      "constant": true,
      "inputs": [
        {
          "name": "_interfaceId",
          "type": "bytes4"
        }
      ],
      "name": "supportsInterface",
      "outputs": [
        {
          "name": "",
          "type": "bool"
        }
      ],
      "payable": false,
      "stateMutability": "view",
      "type": "function"
    },
    {
      "constant": true,
      "inputs": [],
      "name": "name",
      "outputs": [
        {
          "name": "",
          "type": "string"
        }
      ],
      "payable": false,
      "stateMutability": "view",
      "type": "function"
    },
    {
      "constant": true,
      "inputs": [
        {
          "name": "_tokenId",
          "type": "uint256"
        }
      ],
      "name": "getApproved",
      "outputs": [
        {
          "name": "",
          "type": "address"
        }
      ],
      "payable": false,
      "stateMutability": "view",
      "type": "function"
    },
    {
      "constant": false,
      "inputs": [
        {
          "name": "_to",
          "type": "address"
        },
        {
          "name": "_tokenId",
          "type": "uint256"
        }
      ],
      "name": "approve",
      "outputs": [],
      "payable": false,
      "stateMutability": "nonpayable",
      "type": "function"
    },
    {
      "constant": true,
      "inputs": [
        {
          "name": "_operator",
          "type": "address"
        },
        {
          "name": "_role",
          "type": "string"
        }
      ],
      "name": "checkRole",
      "outputs": [],
      "payable": false,
      "stateMutability": "view",
      "type": "function"
    },
    {
      "constant": true,
      "inputs": [
        {
          "name": "",
          "type": "uint256"
        }
      ],
      "name": "benefactors",
      "outputs": [
        {
          "name": "ethAddress",
          "type": "address"
        },
        {
          "name": "name",
          "type": "string"
        },
        {
          "name": "website",
          "type": "string"
        }
      ],
      "payable": false,
      "stateMutability": "view",
      "type": "function"
    },
    {
      "constant": true,
      "inputs": [],
      "name": "totalSupply",
      "outputs": [
        {
          "name": "",
          "type": "uint256"
        }
      ],
      "payable": false,
      "stateMutability": "view",
      "type": "function"
    },
    {
      "constant": true,
      "inputs": [],
      "name": "ROLE_WHITELISTED",
      "outputs": [
        {
          "name": "",
          "type": "string"
        }
      ],
      "payable": false,
      "stateMutability": "view",
      "type": "function"
    },
    {
      "constant": true,
      "inputs": [],
      "name": "InterfaceId_ERC165",
      "outputs": [
        {
          "name": "",
          "type": "bytes4"
        }
      ],
      "payable": false,
      "stateMutability": "view",
      "type": "function"
    },
    {
      "constant": true,
      "inputs": [
        {
          "name": "_operator",
          "type": "address"
        },
        {
          "name": "_role",
          "type": "string"
        }
      ],
      "name": "hasRole",
      "outputs": [
        {
          "name": "",
          "type": "bool"
        }
      ],
      "payable": false,
      "stateMutability": "view",
      "type": "function"
    },
    {
      "constant": false,
      "inputs": [
        {
          "name": "_from",
          "type": "address"
        },
        {
          "name": "_to",
          "type": "address"
        },
        {
          "name": "_tokenId",
          "type": "uint256"
        }
      ],
      "name": "transferFrom",
      "outputs": [],
      "payable": false,
      "stateMutability": "nonpayable",
      "type": "function"
    },
    {
      "constant": false,
      "inputs": [
        {
          "name": "_operators",
          "type": "address[]"
        }
      ],
      "name": "removeAddressesFromWhitelist",
      "outputs": [],
      "payable": false,
      "stateMutability": "nonpayable",
      "type": "function"
    },
    {
      "constant": false,
      "inputs": [
        {
          "name": "_operator",
          "type": "address"
        }
      ],
      "name": "removeAddressFromWhitelist",
      "outputs": [],
      "payable": false,
      "stateMutability": "nonpayable",
      "type": "function"
    },
    {
      "constant": true,
      "inputs": [
        {
          "name": "_owner",
          "type": "address"
        },
        {
          "name": "_index",
          "type": "uint256"
        }
      ],
      "name": "tokenOfOwnerByIndex",
      "outputs": [
        {
          "name": "",
          "type": "uint256"
        }
      ],
      "payable": false,
      "stateMutability": "view",
      "type": "function"
    },
    {
      "constant": true,
      "inputs": [],
      "name": "tokenIdPointer",
      "outputs": [
        {
          "name": "",
          "type": "uint256"
        }
      ],
      "payable": false,
      "stateMutability": "view",
      "type": "function"
    },
    {
      "constant": false,
      "inputs": [
        {
          "name": "_from",
          "type": "address"
        },
        {
          "name": "_to",
          "type": "address"
        },
        {
          "name": "_tokenId",
          "type": "uint256"
        }
      ],
      "name": "safeTransferFrom",
      "outputs": [],
      "payable": false,
      "stateMutability": "nonpayable",
      "type": "function"
    },
    {
      "constant": true,
      "inputs": [],
      "name": "tokenBaseURI",
      "outputs": [
        {
          "name": "",
          "type": "string"
        }
      ],
      "payable": false,
      "stateMutability": "view",
      "type": "function"
    },
    {
      "constant": true,
      "inputs": [
        {
          "name": "_tokenId",
          "type": "uint256"
        }
      ],
      "name": "exists",
      "outputs": [
        {
          "name": "",
          "type": "bool"
        }
      ],
      "payable": false,
      "stateMutability": "view",
      "type": "function"
    },
    {
      "constant": true,
      "inputs": [
        {
          "name": "_index",
          "type": "uint256"
        }
      ],
      "name": "tokenByIndex",
      "outputs": [
        {
          "name": "",
          "type": "uint256"
        }
      ],
      "payable": false,
      "stateMutability": "view",
      "type": "function"
    },
    {
      "constant": true,
      "inputs": [
        {
          "name": "_tokenId",
          "type": "uint256"
        }
      ],
      "name": "ownerOf",
      "outputs": [
        {
          "name": "",
          "type": "address"
        }
      ],
      "payable": false,
      "stateMutability": "view",
      "type": "function"
    },
    {
      "constant": true,
      "inputs": [
        {
          "name": "_owner",
          "type": "address"
        }
      ],
      "name": "balanceOf",
      "outputs": [
        {
          "name": "",
          "type": "uint256"
        }
      ],
      "payable": false,
      "stateMutability": "view",
      "type": "function"
    },
    {
      "constant": false,
      "inputs": [],
      "name": "renounceOwnership",
      "outputs": [],
      "payable": false,
      "stateMutability": "nonpayable",
      "type": "function"
    },
    {
      "constant": false,
      "inputs": [
        {
          "name": "_operator",
          "type": "address"
        }
      ],
      "name": "addAddressToWhitelist",
      "outputs": [],
      "payable": false,
      "stateMutability": "nonpayable",
      "type": "function"
    },
    {
      "constant": true,
      "inputs": [],
      "name": "owner",
      "outputs": [
        {
          "name": "",
          "type": "address"
        }
      ],
      "payable": false,
      "stateMutability": "view",
      "type": "function"
    },
    {
      "constant": true,
      "inputs": [
        {
          "name": "",
          "type": "uint256"
        }
      ],
      "name": "cards",
      "outputs": [
        {
          "name": "ipfs",
          "type": "string"
        },
        {
          "name": "name",
          "type": "string"
        },
        {
          "name": "description",
          "type": "string"
        }
      ],
      "payable": false,
      "stateMutability": "view",
      "type": "function"
    },
    {
      "constant": true,
      "inputs": [],
      "name": "symbol",
      "outputs": [
        {
          "name": "",
          "type": "string"
        }
      ],
      "payable": false,
      "stateMutability": "view",
      "type": "function"
    },
    {
      "constant": true,
      "inputs": [
        {
          "name": "_operator",
          "type": "address"
        }
      ],
      "name": "whitelist",
      "outputs": [
        {
          "name": "",
          "type": "bool"
        }
      ],
      "payable": false,
      "stateMutability": "view",
      "type": "function"
    },
    {
      "constant": false,
      "inputs": [
        {
          "name": "_to",
          "type": "address"
        },
        {
          "name": "_approved",
          "type": "bool"
        }
      ],
      "name": "setApprovalForAll",
      "outputs": [],
      "payable": false,
      "stateMutability": "nonpayable",
      "type": "function"
    },
    {
      "constant": true,
      "inputs": [],
      "name": "minContribution",
      "outputs": [
        {
          "name": "",
          "type": "uint256"
        }
      ],
      "payable": false,
      "stateMutability": "view",
      "type": "function"
    },
    {
      "constant": false,
      "inputs": [
        {
          "name": "_from",
          "type": "address"
        },
        {
          "name": "_to",
          "type": "address"
        },
        {
          "name": "_tokenId",
          "type": "uint256"
        },
        {
          "name": "_data",
          "type": "bytes"
        }
      ],
      "name": "safeTransferFrom",
      "outputs": [],
      "payable": false,
      "stateMutability": "nonpayable",
      "type": "function"
    },
    {
      "constant": false,
      "inputs": [
        {
          "name": "_operators",
          "type": "address[]"
        }
      ],
      "name": "addAddressesToWhitelist",
      "outputs": [],
      "payable": false,
      "stateMutability": "nonpayable",
      "type": "function"
    },
    {
      "constant": true,
      "inputs": [
        {
          "name": "_owner",
          "type": "address"
        },
        {
          "name": "_operator",
          "type": "address"
        }
      ],
      "name": "isApprovedForAll",
      "outputs": [
        {
          "name": "",
          "type": "bool"
        }
      ],
      "payable": false,
      "stateMutability": "view",
      "type": "function"
    },
    {
      "constant": false,
      "inputs": [
        {
          "name": "_newOwner",
          "type": "address"
        }
      ],
      "name": "transferOwnership",
      "outputs": [],
      "payable": false,
      "stateMutability": "nonpayable",
      "type": "function"
    },
    {
      "inputs": [],
      "payable": false,
      "stateMutability": "nonpayable",
      "type": "constructor"
    },
    {
      "anonymous": false,
      "inputs": [
        {
          "indexed": true,
          "name": "operator",
          "type": "address"
        },
        {
          "indexed": false,
          "name": "role",
          "type": "string"
        }
      ],
      "name": "RoleAdded",
      "type": "event"
    },
    {
      "anonymous": false,
      "inputs": [
        {
          "indexed": true,
          "name": "operator",
          "type": "address"
        },
        {
          "indexed": false,
          "name": "role",
          "type": "string"
        }
      ],
      "name": "RoleRemoved",
      "type": "event"
    },
    {
      "anonymous": false,
      "inputs": [
        {
          "indexed": true,
          "name": "previousOwner",
          "type": "address"
        }
      ],
      "name": "OwnershipRenounced",
      "type": "event"
    },
    {
      "anonymous": false,
      "inputs": [
        {
          "indexed": true,
          "name": "previousOwner",
          "type": "address"
        },
        {
          "indexed": true,
          "name": "newOwner",
          "type": "address"
        }
      ],
      "name": "OwnershipTransferred",
      "type": "event"
    },
    {
      "anonymous": false,
      "inputs": [
        {
          "indexed": true,
          "name": "_from",
          "type": "address"
        },
        {
          "indexed": true,
          "name": "_to",
          "type": "address"
        },
        {
          "indexed": true,
          "name": "_tokenId",
          "type": "uint256"
        }
      ],
      "name": "Transfer",
      "type": "event"
    },
    {
      "anonymous": false,
      "inputs": [
        {
          "indexed": true,
          "name": "_owner",
          "type": "address"
        },
        {
          "indexed": true,
          "name": "_approved",
          "type": "address"
        },
        {
          "indexed": true,
          "name": "_tokenId",
          "type": "uint256"
        }
      ],
      "name": "Approval",
      "type": "event"
    },
    {
      "anonymous": false,
      "inputs": [
        {
          "indexed": true,
          "name": "_owner",
          "type": "address"
        },
        {
          "indexed": true,
          "name": "_operator",
          "type": "address"
        },
        {
          "indexed": false,
          "name": "_approved",
          "type": "bool"
        }
      ],
      "name": "ApprovalForAll",
      "type": "event"
    },
    {
      "constant": false,
      "inputs": [
        {
          "name": "to",
          "type": "address"
        },
        {
          "name": "tokenURI",
          "type": "string"
        },
        {
          "name": "_benefactor",
          "type": "uint256"
        }
      ],
      "name": "gift",
      "outputs": [
        {
          "name": "",
          "type": "bool"
        }
      ],
      "payable": true,
      "stateMutability": "payable",
      "type": "function"
    },
    {
      "constant": false,
      "inputs": [
        {
          "name": "tokenId",
          "type": "uint256"
        }
      ],
      "name": "burn",
      "outputs": [],
      "payable": false,
      "stateMutability": "nonpayable",
      "type": "function"
    },
    {
      "constant": false,
      "inputs": [
        {
          "name": "_newBaseURI",
          "type": "string"
        }
      ],
      "name": "setTokenBaseURI",
      "outputs": [],
      "payable": false,
      "stateMutability": "nonpayable",
      "type": "function"
    },
    {
      "constant": false,
      "inputs": [
        {
          "name": "_minContribution",
          "type": "uint256"
        }
      ],
      "name": "setMinContribution",
      "outputs": [],
      "payable": false,
      "stateMutability": "nonpayable",
      "type": "function"
    },
    {
      "constant": true,
      "inputs": [
        {
          "name": "_tokenId",
          "type": "uint256"
        }
      ],
      "name": "tokenURI",
      "outputs": [
        {
          "name": "",
          "type": "string"
        }
      ],
      "payable": false,
      "stateMutability": "view",
      "type": "function"
    },
    {
      "constant": true,
      "inputs": [
        {
          "name": "_owner",
          "type": "address"
        }
      ],
      "name": "tokensOf",
      "outputs": [
        {
          "name": "_tokenIds",
          "type": "uint256[]"
        }
      ],
      "payable": false,
      "stateMutability": "view",
      "type": "function"
    },
    {
      "constant": true,
      "inputs": [],
      "name": "benefactorsKeys",
      "outputs": [
        {
          "name": "_keys",
          "type": "uint256[]"
        }
      ],
      "payable": false,
      "stateMutability": "view",
      "type": "function"
    },
    {
      "constant": true,
      "inputs": [],
      "name": "cardKeys",
      "outputs": [
        {
          "name": "_keys",
          "type": "uint256[]"
        }
      ],
      "payable": false,
      "stateMutability": "view",
      "type": "function"
    },
    {
      "constant": false,
      "inputs": [
        {
          "name": "_index",
          "type": "uint256"
        },
        {
          "name": "_ethAddress",
          "type": "address"
        },
        {
          "name": "_name",
          "type": "string"
        },
        {
          "name": "_website",
          "type": "string"
        }
      ],
      "name": "addBenefactor",
      "outputs": [],
      "payable": false,
      "stateMutability": "nonpayable",
      "type": "function"
    }
  ],
  "bytecode": "0x60806040526040805190810160405280601c81526020017f68747470733a2f2f697066732e696e667572612e696f2f697066732f00000000815250600e90805190602001906200005192919062000bfd565b506000600f5566b1a2bc2ec500006010553480156200006f57600080fd5b506040805190810160405280600981526020017f52616469436172647300000000000000000000000000000000000000000000008152506040805190810160405280600481526020017f5241444900000000000000000000000000000000000000000000000000000000815250620001196301ffc9a77c010000000000000000000000000000000000000000000000000000000002620008e8640100000000026401000000009004565b620001566380ac58cd7c010000000000000000000000000000000000000000000000000000000002620008e8640100000000026401000000009004565b62000193634f558e797c010000000000000000000000000000000000000000000000000000000002620008e8640100000000026401000000009004565b8160059080519060200190620001ab92919062000bfd565b508060069080519060200190620001c492919062000bfd565b506200020263780e9d637c010000000000000000000000000000000000000000000000000000000002620008e8640100000000026401000000009004565b6200023f635b5e139f7c010000000000000000000000000000000000000000000000000000000002620008e8640100000000026401000000009004565b505033600c60006101000a81548173ffffffffffffffffffffffffffffffffffffffff021916908373ffffffffffffffffffffffffffffffffffffffff1602179055506200029c33620009a6640100000000026401000000009004565b60606040519081016040528073b189f76323678e094d4996d182a792e52369c00573ffffffffffffffffffffffffffffffffffffffff1681526020016040805190810160405280601e81526020017f456c656374726f6e69632046726f6e7469657220466f756e646174696f6e00008152508152602001606060405190810160405280603981526020017f68747470733a2f2f7777772e6566662e6f72672f70616765732f65746865726581526020017f756d2d616e642d6c697465636f696e2d646f6e6174696f6e7300000000000000815250815250601160006001815260200190815260200160002060008201518160000160006101000a81548173ffffffffffffffffffffffffffffffffffffffff021916908373ffffffffffffffffffffffffffffffffffffffff1602179055506020820151816001019080519060200190620003ec92919062000c84565b5060408201518160020190805190602001906200040b92919062000c84565b5090505060126001908060018154018082558091505090600182039060005260206000200160009091929091909150555060606040519081016040528073998f25be40241ca5d8f5fcaf3591b5ed06ef3be773ffffffffffffffffffffffffffffffffffffffff1681526020016040805190810160405280601f81526020017f46726565646f6d206f662074686520507265737320466f756e646174696f6e008152508152602001606060405190810160405280602c81526020017f68747470733a2f2f66726565646f6d2e70726573732f646f6e6174652f63727981526020017f70746f63757272656e63792f0000000000000000000000000000000000000000815250815250601160006002815260200190815260200160002060008201518160000160006101000a81548173ffffffffffffffffffffffffffffffffffffffff021916908373ffffffffffffffffffffffffffffffffffffffff16021790555060208201518160010190805190602001906200058c92919062000c84565b506040820151816002019080519060200190620005ab92919062000c84565b50905050601260029080600181540180825580915050906001820390600052602060002001600090919290919091505550606060405190810160405280606060405190810160405280602e81526020017f516d55794c74744b525a786e65466d6d6f4554586f566679335831646d6f696d81526020017f513250464c72534e4d3545444d5200000000000000000000000000000000000081525081526020016040805190810160405280600681526020017f4772696e6368000000000000000000000000000000000000000000000000000081525081526020016040805190810160405280600b81526020017f477265656e2066656c6c6100000000000000000000000000000000000000000081525081525060136000600181526020019081526020016000206000820151816000019080519060200190620006f092919062000c84565b5060208201518160010190805190602001906200070f92919062000c84565b5060408201518160020190805190602001906200072e92919062000c84565b50905050601460019080600181540180825580915050906001820390600052602060002001600090919290919091505550606060405190810160405280606060405190810160405280602e81526020017f516d5344337757783474535873436144724b4d56485538614768587a6272754c81526020017f77316a4c6d34504255584c64543300000000000000000000000000000000000081525081526020016040805190810160405280600581526020017f536b756c6c00000000000000000000000000000000000000000000000000000081525081526020016040805190810160405280600d81526020017f53616e7461277320686561642100000000000000000000000000000000000000815250815250601360006002815260200190815260200160002060008201518160000190805190602001906200087392919062000c84565b5060208201518160010190805190602001906200089292919062000c84565b506040820151816002019080519060200190620008b192919062000c84565b5090505060146002908060018154018082558091505090600182039060005260206000200160009091929091909150555062000d33565b63ffffffff7c010000000000000000000000000000000000000000000000000000000002817bffffffffffffffffffffffffffffffffffffffffffffffffffffffff1916141515156200093a57600080fd5b6001600080837bffffffffffffffffffffffffffffffffffffffffffffffffffffffff19167bffffffffffffffffffffffffffffffffffffffffffffffffffffffff1916815260200190815260200160002060006101000a81548160ff02191690831515021790555050565b600c60009054906101000a900473ffffffffffffffffffffffffffffffffffffffff1673ffffffffffffffffffffffffffffffffffffffff163373ffffffffffffffffffffffffffffffffffffffff1614151562000a0357600080fd5b62000a53816040805190810160405280600981526020017f77686974656c697374000000000000000000000000000000000000000000000081525062000a56640100000000026401000000009004565b50565b62000ae582600d836040518082805190602001908083835b60208310151562000a95578051825260208201915060208101905060208303925062000a6e565b6001836020036101000a038019825116818451168082178552505050505050905001915050908152602001604051809103902062000b9f6401000000000262003f91179091906401000000009004565b8173ffffffffffffffffffffffffffffffffffffffff167fbfec83d64eaa953f2708271a023ab9ee82057f8f3578d548c1a4ba0b5b700489826040518080602001828103825283818151815260200191508051906020019080838360005b8381101562000b6057808201518184015260208101905062000b43565b50505050905090810190601f16801562000b8e5780820380516001836020036101000a031916815260200191505b509250505060405180910390a25050565b60018260000160008373ffffffffffffffffffffffffffffffffffffffff1673ffffffffffffffffffffffffffffffffffffffff16815260200190815260200160002060006101000a81548160ff0219169083151502179055505050565b828054600181600116156101000203166002900490600052602060002090601f016020900481019282601f1062000c4057805160ff191683800117855562000c71565b8280016001018555821562000c71579182015b8281111562000c7057825182559160200191906001019062000c53565b5b50905062000c80919062000d0b565b5090565b828054600181600116156101000203166002900490600052602060002090601f016020900481019282601f1062000cc757805160ff191683800117855562000cf8565b8280016001018555821562000cf8579182015b8281111562000cf757825182559160200191906001019062000cda565b5b50905062000d07919062000d0b565b5090565b62000d3091905b8082111562000d2c57600081600090555060010162000d12565b5090565b90565b6147028062000d436000396000f300608060405260043610610204576000357c0100000000000000000000000000000000000000000000000000000000900463ffffffff16806301ffc9a71461020957806303cfe12d1461026d57806306fdde03146102d9578063081812fc14610369578063095ea7b3146103d65780630988ca8c14610423578063128ee161146104ac57806318160ddd146105f157806318b919e91461061c57806319fa8f50146106ac578063217fe6c61461071557806323b872dd146107b657806324953eaa14610823578063286dd3f5146108895780632f745c59146108cc5780633b3a1a7a1461092d57806342842e0e1461095857806342966c68146109c557806346ddea30146109f2578063473b0d4614610a905780634e99b80014610abd5780634f558e7914610b4d5780634f6ccce714610b925780635a3f267214610bd35780636352211e14610c6b57806370a0823114610cd8578063715018a614610d2f5780637b9417c814610d465780638da5cb5b14610d895780638dc1076814610de05780638ef79e9114610f5e57806395d89b4114610f995780639b19251a14611029578063a22cb46514611084578063a7efa01f146110d3578063aaffadf31461113f578063b88d4fde1461116a578063bdbf3a2c1461121d578063c87b56dd1461129a578063e2ec6ec314611340578063e985e9c5146113a6578063f2fde38b14611421575b600080fd5b34801561021557600080fd5b5061025360048036038101908080357bffffffffffffffffffffffffffffffffffffffffffffffffffffffff19169060200190929190505050611464565b604051808215151515815260200191505060405180910390f35b34801561027957600080fd5b506102826114cb565b6040518080602001828103825283818151815260200191508051906020019060200280838360005b838110156102c55780820151818401526020810190506102aa565b505050509050019250505060405180910390f35b3480156102e557600080fd5b506102ee611523565b6040518080602001828103825283818151815260200191508051906020019080838360005b8381101561032e578082015181840152602081019050610313565b50505050905090810190601f16801561035b5780820380516001836020036101000a031916815260200191505b509250505060405180910390f35b34801561037557600080fd5b50610394600480360381019080803590602001909291905050506115c5565b604051808273ffffffffffffffffffffffffffffffffffffffff1673ffffffffffffffffffffffffffffffffffffffff16815260200191505060405180910390f35b3480156103e257600080fd5b50610421600480360381019080803573ffffffffffffffffffffffffffffffffffffffff16906020019092919080359060200190929190505050611602565b005b34801561042f57600080fd5b506104aa600480360381019080803573ffffffffffffffffffffffffffffffffffffffff169060200190929190803590602001908201803590602001908080601f0160208091040260200160405190810160405280939291908181526020018383808284378201915050505050509192919290505050611747565b005b3480156104b857600080fd5b506104d7600480360381019080803590602001909291905050506117c8565b604051808473ffffffffffffffffffffffffffffffffffffffff1673ffffffffffffffffffffffffffffffffffffffff1681526020018060200180602001838103835285818151815260200191508051906020019080838360005b8381101561054d578082015181840152602081019050610532565b50505050905090810190601f16801561057a5780820380516001836020036101000a031916815260200191505b50838103825284818151815260200191508051906020019080838360005b838110156105b3578082015181840152602081019050610598565b50505050905090810190601f1680156105e05780820380516001836020036101000a031916815260200191505b509550505050505060405180910390f35b3480156105fd57600080fd5b50610606611942565b6040518082815260200191505060405180910390f35b34801561062857600080fd5b5061063161194f565b6040518080602001828103825283818151815260200191508051906020019080838360005b83811015610671578082015181840152602081019050610656565b50505050905090810190601f16801561069e5780820380516001836020036101000a031916815260200191505b509250505060405180910390f35b3480156106b857600080fd5b506106c1611988565b60405180827bffffffffffffffffffffffffffffffffffffffffffffffffffffffff19167bffffffffffffffffffffffffffffffffffffffffffffffffffffffff1916815260200191505060405180910390f35b34801561072157600080fd5b5061079c600480360381019080803573ffffffffffffffffffffffffffffffffffffffff169060200190929190803590602001908201803590602001908080601f01602080910402602001604051908101604052809392919081815260200183838082843782019150505050505091929192905050506119af565b604051808215151515815260200191505060405180910390f35b3480156107c257600080fd5b50610821600480360381019080803573ffffffffffffffffffffffffffffffffffffffff169060200190929190803573ffffffffffffffffffffffffffffffffffffffff16906020019092919080359060200190929190505050611a36565b005b34801561082f57600080fd5b5061088760048036038101908080359060200190820180359060200190808060200260200160405190810160405280939291908181526020018383602002808284378201915050505050509192919290505050611b41565b005b34801561089557600080fd5b506108ca600480360381019080803573ffffffffffffffffffffffffffffffffffffffff169060200190929190505050611bde565b005b3480156108d857600080fd5b50610917600480360381019080803573ffffffffffffffffffffffffffffffffffffffff16906020019092919080359060200190929190505050611c7c565b6040518082815260200191505060405180910390f35b34801561093957600080fd5b50610942611cf3565b6040518082815260200191505060405180910390f35b34801561096457600080fd5b506109c3600480360381019080803573ffffffffffffffffffffffffffffffffffffffff169060200190929190803573ffffffffffffffffffffffffffffffffffffffff16906020019092919080359060200190929190505050611cf9565b005b3480156109d157600080fd5b506109f060048036038101908080359060200190929190505050611d1a565b005b610a76600480360381019080803573ffffffffffffffffffffffffffffffffffffffff169060200190929190803590602001908201803590602001908080601f016020809104026020016040519081016040528093929190818152602001838380828437820191505050505050919291929080359060200190929190505050611d70565b604051808215151515815260200191505060405180910390f35b348015610a9c57600080fd5b50610abb60048036038101908080359060200190929190505050611f7f565b005b348015610ac957600080fd5b50610ad2611fca565b6040518080602001828103825283818151815260200191508051906020019080838360005b83811015610b12578082015181840152602081019050610af7565b50505050905090810190601f168015610b3f5780820380516001836020036101000a031916815260200191505b509250505060405180910390f35b348015610b5957600080fd5b50610b7860048036038101908080359060200190929190505050612068565b604051808215151515815260200191505060405180910390f35b348015610b9e57600080fd5b50610bbd600480360381019080803590602001909291905050506120da565b6040518082815260200191505060405180910390f35b348015610bdf57600080fd5b50610c14600480360381019080803573ffffffffffffffffffffffffffffffffffffffff169060200190929190505050612112565b6040518080602001828103825283818151815260200191508051906020019060200280838360005b83811015610c57578082015181840152602081019050610c3c565b505050509050019250505060405180910390f35b348015610c7757600080fd5b50610c96600480360381019080803590602001909291905050506121a9565b604051808273ffffffffffffffffffffffffffffffffffffffff1673ffffffffffffffffffffffffffffffffffffffff16815260200191505060405180910390f35b348015610ce457600080fd5b50610d19600480360381019080803573ffffffffffffffffffffffffffffffffffffffff169060200190929190505050612227565b6040518082815260200191505060405180910390f35b348015610d3b57600080fd5b50610d446122ab565b005b348015610d5257600080fd5b50610d87600480360381019080803573ffffffffffffffffffffffffffffffffffffffff1690602001909291905050506123b0565b005b348015610d9557600080fd5b50610d9e61244e565b604051808273ffffffffffffffffffffffffffffffffffffffff1673ffffffffffffffffffffffffffffffffffffffff16815260200191505060405180910390f35b348015610dec57600080fd5b50610e0b60048036038101908080359060200190929190505050612474565b60405180806020018060200180602001848103845287818151815260200191508051906020019080838360005b83811015610e53578082015181840152602081019050610e38565b50505050905090810190601f168015610e805780820380516001836020036101000a031916815260200191505b50848103835286818151815260200191508051906020019080838360005b83811015610eb9578082015181840152602081019050610e9e565b50505050905090810190601f168015610ee65780820380516001836020036101000a031916815260200191505b50848103825285818151815260200191508051906020019080838360005b83811015610f1f578082015181840152602081019050610f04565b50505050905090810190601f168015610f4c5780820380516001836020036101000a031916815260200191505b50965050505050505060405180910390f35b348015610f6a57600080fd5b50610f97600480360381019080803590602001908201803590602001919091929391929390505050612666565b005b348015610fa557600080fd5b50610fae612739565b6040518080602001828103825283818151815260200191508051906020019080838360005b83811015610fee578082015181840152602081019050610fd3565b50505050905090810190601f16801561101b5780820380516001836020036101000a031916815260200191505b509250505060405180910390f35b34801561103557600080fd5b5061106a600480360381019080803573ffffffffffffffffffffffffffffffffffffffff1690602001909291905050506127db565b604051808215151515815260200191505060405180910390f35b34801561109057600080fd5b506110d1600480360381019080803573ffffffffffffffffffffffffffffffffffffffff169060200190929190803515159060200190929190505050612823565b005b3480156110df57600080fd5b506110e861295f565b6040518080602001828103825283818151815260200191508051906020019060200280838360005b8381101561112b578082015181840152602081019050611110565b505050509050019250505060405180910390f35b34801561114b57600080fd5b506111546129b7565b6040518082815260200191505060405180910390f35b34801561117657600080fd5b5061121b600480360381019080803573ffffffffffffffffffffffffffffffffffffffff169060200190929190803573ffffffffffffffffffffffffffffffffffffffff16906020019092919080359060200190929190803590602001908201803590602001908080601f01602080910402602001604051908101604052809392919081815260200183838082843782019150505050505091929192905050506129bd565b005b34801561122957600080fd5b5061129860048036038101908080359060200190929190803573ffffffffffffffffffffffffffffffffffffffff1690602001909291908035906020019082018035906020019190919293919293908035906020019082018035906020019190919293919293905050506129e5565b005b3480156112a657600080fd5b506112c560048036038101908080359060200190929190505050612c87565b6040518080602001828103825283818151815260200191508051906020019080838360005b838110156113055780820151818401526020810190506112ea565b50505050905090810190601f1680156113325780820380516001836020036101000a031916815260200191505b509250505060405180910390f35b34801561134c57600080fd5b506113a460048036038101908080359060200190820180359060200190808060200260200160405190810160405280939291908181526020018383602002808284378201915050505050509192919290505050612df3565b005b3480156113b257600080fd5b50611407600480360381019080803573ffffffffffffffffffffffffffffffffffffffff169060200190929190803573ffffffffffffffffffffffffffffffffffffffff169060200190929190505050612e90565b604051808215151515815260200191505060405180910390f35b34801561142d57600080fd5b50611462600480360381019080803573ffffffffffffffffffffffffffffffffffffffff169060200190929190505050612f24565b005b6000806000837bffffffffffffffffffffffffffffffffffffffffffffffffffffffff19167bffffffffffffffffffffffffffffffffffffffffffffffffffffffff1916815260200190815260200160002060009054906101000a900460ff169050919050565b6060601280548060200260200160405190810160405280929190818152602001828054801561151957602002820191906000526020600020905b815481526020019060010190808311611505575b5050505050905090565b606060058054600181600116156101000203166002900480601f0160208091040260200160405190810160405280929190818152602001828054600181600116156101000203166002900480156115bb5780601f10611590576101008083540402835291602001916115bb565b820191906000526020600020905b81548152906001019060200180831161159e57829003601f168201915b5050505050905090565b60006002600083815260200190815260200160002060009054906101000a900473ffffffffffffffffffffffffffffffffffffffff169050919050565b600061160d826121a9565b90508073ffffffffffffffffffffffffffffffffffffffff168373ffffffffffffffffffffffffffffffffffffffff161415151561164a57600080fd5b8073ffffffffffffffffffffffffffffffffffffffff163373ffffffffffffffffffffffffffffffffffffffff16148061168a57506116898133612e90565b5b151561169557600080fd5b826002600084815260200190815260200160002060006101000a81548173ffffffffffffffffffffffffffffffffffffffff021916908373ffffffffffffffffffffffffffffffffffffffff160217905550818373ffffffffffffffffffffffffffffffffffffffff168273ffffffffffffffffffffffffffffffffffffffff167f8c5be1e5ebec7d5bd14f71427d1e84f3dd0314c0f7b2291e5b200ac8c7c3b92560405160405180910390a4505050565b6117c482600d836040518082805190602001908083835b602083101515611783578051825260208201915060208101905060208303925061175e565b6001836020036101000a0380198251168184511680821785525050505050509050019150509081526020016040518091039020612f8c90919063ffffffff16565b5050565b60116020528060005260406000206000915090508060000160009054906101000a900473ffffffffffffffffffffffffffffffffffffffff1690806001018054600181600116156101000203166002900480601f01602080910402602001604051908101604052809291908181526020018280546001816001161561010002031660029004801561189a5780601f1061186f5761010080835404028352916020019161189a565b820191906000526020600020905b81548152906001019060200180831161187d57829003601f168201915b505050505090806002018054600181600116156101000203166002900480601f0160208091040260200160405190810160405280929190818152602001828054600181600116156101000203166002900480156119385780601f1061190d57610100808354040283529160200191611938565b820191906000526020600020905b81548152906001019060200180831161191b57829003601f168201915b5050505050905083565b6000600980549050905090565b6040805190810160405280600981526020017f77686974656c697374000000000000000000000000000000000000000000000081525081565b6301ffc9a77c01000000000000000000000000000000000000000000000000000000000281565b6000611a2e83600d846040518082805190602001908083835b6020831015156119ed57805182526020820191506020810190506020830392506119c8565b6001836020036101000a0380198251168184511680821785525050505050509050019150509081526020016040518091039020612fa590919063ffffffff16565b905092915050565b611a403382612ffe565b1515611a4b57600080fd5b600073ffffffffffffffffffffffffffffffffffffffff168373ffffffffffffffffffffffffffffffffffffffff1614151515611a8757600080fd5b600073ffffffffffffffffffffffffffffffffffffffff168273ffffffffffffffffffffffffffffffffffffffff1614151515611ac357600080fd5b611acd8382613093565b611ad78382613196565b611ae18282613352565b808273ffffffffffffffffffffffffffffffffffffffff168473ffffffffffffffffffffffffffffffffffffffff167fddf252ad1be2c89b69c2b068fc378daa952ba7f163c4a11628f55a4df523b3ef60405160405180910390a4505050565b6000600c60009054906101000a900473ffffffffffffffffffffffffffffffffffffffff1673ffffffffffffffffffffffffffffffffffffffff163373ffffffffffffffffffffffffffffffffffffffff16141515611b9f57600080fd5b600090505b8151811015611bda57611bcd8282815181101515611bbe57fe5b90602001906020020151611bde565b8080600101915050611ba4565b5050565b600c60009054906101000a900473ffffffffffffffffffffffffffffffffffffffff1673ffffffffffffffffffffffffffffffffffffffff163373ffffffffffffffffffffffffffffffffffffffff16141515611c3a57600080fd5b611c79816040805190810160405280600981526020017f77686974656c6973740000000000000000000000000000000000000000000000815250613429565b50565b6000611c8783612227565b82101515611c9457600080fd5b600760008473ffffffffffffffffffffffffffffffffffffffff1673ffffffffffffffffffffffffffffffffffffffff16815260200190815260200160002082815481101515611ce057fe5b9060005260206000200154905092915050565b600f5481565b611d1583838360206040519081016040528060008152506129bd565b505050565b33611d5a816040805190810160405280600981526020017f77686974656c6973740000000000000000000000000000000000000000000000815250611747565b611d6c611d66836121a9565b8361355d565b5050565b60006010543410151515611e12576040517f08c379a00000000000000000000000000000000000000000000000000000000081526004018080602001828103825260258152602001807f4d7573742073656e64206174206c6561737420746865206d696e696d756d206181526020017f6d6f756e7400000000000000000000000000000000000000000000000000000081525060400191505060405180910390fd5b600073ffffffffffffffffffffffffffffffffffffffff166011600084815260200190815260200160002060000160009054906101000a900473ffffffffffffffffffffffffffffffffffffffff1673ffffffffffffffffffffffffffffffffffffffff1614151515611eed576040517f08c379a00000000000000000000000000000000000000000000000000000000081526004018080602001828103825260208152602001807f4d7573742073706563696679206578697374696e672062656e65666163746f7281525060200191505060405180910390fd5b611ef78484613695565b6011600083815260200190815260200160002060000160009054906101000a900473ffffffffffffffffffffffffffffffffffffffff1673ffffffffffffffffffffffffffffffffffffffff166108fc349081150290604051600060405180830381858888f19350505050158015611f73573d6000803e3d6000fd5b50600190509392505050565b33611fbf816040805190810160405280600981526020017f77686974656c6973740000000000000000000000000000000000000000000000815250611747565b816010819055505050565b600e8054600181600116156101000203166002900480601f0160208091040260200160405190810160405280929190818152602001828054600181600116156101000203166002900480156120605780601f1061203557610100808354040283529160200191612060565b820191906000526020600020905b81548152906001019060200180831161204357829003601f168201915b505050505081565b6000806001600084815260200190815260200160002060009054906101000a900473ffffffffffffffffffffffffffffffffffffffff169050600073ffffffffffffffffffffffffffffffffffffffff168173ffffffffffffffffffffffffffffffffffffffff161415915050919050565b60006120e4611942565b821015156120f157600080fd5b60098281548110151561210057fe5b90600052602060002001549050919050565b6060600760008373ffffffffffffffffffffffffffffffffffffffff1673ffffffffffffffffffffffffffffffffffffffff16815260200190815260200160002080548060200260200160405190810160405280929190818152602001828054801561219d57602002820191906000526020600020905b815481526020019060010190808311612189575b50505050509050919050565b6000806001600084815260200190815260200160002060009054906101000a900473ffffffffffffffffffffffffffffffffffffffff169050600073ffffffffffffffffffffffffffffffffffffffff168173ffffffffffffffffffffffffffffffffffffffff161415151561221e57600080fd5b80915050919050565b60008073ffffffffffffffffffffffffffffffffffffffff168273ffffffffffffffffffffffffffffffffffffffff161415151561226457600080fd5b600360008373ffffffffffffffffffffffffffffffffffffffff1673ffffffffffffffffffffffffffffffffffffffff168152602001908152602001600020549050919050565b600c60009054906101000a900473ffffffffffffffffffffffffffffffffffffffff1673ffffffffffffffffffffffffffffffffffffffff163373ffffffffffffffffffffffffffffffffffffffff1614151561230757600080fd5b600c60009054906101000a900473ffffffffffffffffffffffffffffffffffffffff1673ffffffffffffffffffffffffffffffffffffffff167ff8df31144d9c2f0f6b59d69b8b98abd5459d07f2742c4df920b25aae33c6482060405160405180910390a26000600c60006101000a81548173ffffffffffffffffffffffffffffffffffffffff021916908373ffffffffffffffffffffffffffffffffffffffff160217905550565b600c60009054906101000a900473ffffffffffffffffffffffffffffffffffffffff1673ffffffffffffffffffffffffffffffffffffffff163373ffffffffffffffffffffffffffffffffffffffff1614151561240c57600080fd5b61244b816040805190810160405280600981526020017f77686974656c69737400000000000000000000000000000000000000000000008152506136d1565b50565b600c60009054906101000a900473ffffffffffffffffffffffffffffffffffffffff1681565b6013602052806000526040600020600091509050806000018054600181600116156101000203166002900480601f0160208091040260200160405190810160405280929190818152602001828054600181600116156101000203166002900480156125205780601f106124f557610100808354040283529160200191612520565b820191906000526020600020905b81548152906001019060200180831161250357829003601f168201915b505050505090806001018054600181600116156101000203166002900480601f0160208091040260200160405190810160405280929190818152602001828054600181600116156101000203166002900480156125be5780601f10612593576101008083540402835291602001916125be565b820191906000526020600020905b8154815290600101906020018083116125a157829003601f168201915b505050505090806002018054600181600116156101000203166002900480601f01602080910402602001604051908101604052809291908181526020018280546001816001161561010002031660029004801561265c5780601f106126315761010080835404028352916020019161265c565b820191906000526020600020905b81548152906001019060200180831161263f57829003601f168201915b5050505050905083565b336126a6816040805190810160405280600981526020017f77686974656c6973740000000000000000000000000000000000000000000000815250611747565b60008383905014151515612722576040517f08c379a00000000000000000000000000000000000000000000000000000000081526004018080602001828103825260108152602001807f426173652055524920696e76616c69640000000000000000000000000000000081525060200191505060405180910390fd5b8282600e91906127339291906144bd565b50505050565b606060068054600181600116156101000203166002900480601f0160208091040260200160405190810160405280929190818152602001828054600181600116156101000203166002900480156127d15780601f106127a6576101008083540402835291602001916127d1565b820191906000526020600020905b8154815290600101906020018083116127b457829003601f168201915b5050505050905090565b600061281c826040805190810160405280600981526020017f77686974656c69737400000000000000000000000000000000000000000000008152506119af565b9050919050565b3373ffffffffffffffffffffffffffffffffffffffff168273ffffffffffffffffffffffffffffffffffffffff161415151561285e57600080fd5b80600460003373ffffffffffffffffffffffffffffffffffffffff1673ffffffffffffffffffffffffffffffffffffffff16815260200190815260200160002060008473ffffffffffffffffffffffffffffffffffffffff1673ffffffffffffffffffffffffffffffffffffffff16815260200190815260200160002060006101000a81548160ff0219169083151502179055508173ffffffffffffffffffffffffffffffffffffffff163373ffffffffffffffffffffffffffffffffffffffff167f17307eab39ab6107e8899845ad3d59bd9653f200f220920489ca2b5937696c3183604051808215151515815260200191505060405180910390a35050565b606060148054806020026020016040519081016040528092919081815260200182805480156129ad57602002820191906000526020600020905b815481526020019060010190808311612999575b5050505050905090565b60105481565b6129c8848484611a36565b6129d484848484613805565b15156129df57600080fd5b50505050565b33612a25816040805190810160405280600981526020017f77686974656c6973740000000000000000000000000000000000000000000000815250611747565b600073ffffffffffffffffffffffffffffffffffffffff166011600089815260200190815260200160002060000160009054906101000a900473ffffffffffffffffffffffffffffffffffffffff1673ffffffffffffffffffffffffffffffffffffffff16141515612b25576040517f08c379a00000000000000000000000000000000000000000000000000000000081526004018080602001828103825260228152602001807f4d757374206e6f7420626520616e206578697374696e672062656e656661637481526020017f6f7200000000000000000000000000000000000000000000000000000000000081525060400191505060405180910390fd5b6060604051908101604052808773ffffffffffffffffffffffffffffffffffffffff16815260200186868080601f016020809104026020016040519081016040528093929190818152602001838380828437820191505050505050815260200184848080601f0160208091040260200160405190810160405280939291908181526020018383808284378201915050505050508152506011600089815260200190815260200160002060008201518160000160006101000a81548173ffffffffffffffffffffffffffffffffffffffff021916908373ffffffffffffffffffffffffffffffffffffffff1602179055506020820151816001019080519060200190612c3192919061453d565b506040820151816002019080519060200190612c4e92919061453d565b50905050601287908060018154018082558091505090600182039060005260206000200160009091929091909150555050505050505050565b6060612c9282612068565b1515612c9d57600080fd5b612dec600e8054600181600116156101000203166002900480601f016020809104026020016040519081016040528092919081815260200182805460018160011615610100020316600290048015612d365780601f10612d0b57610100808354040283529160200191612d36565b820191906000526020600020905b815481529060010190602001808311612d1957829003601f168201915b5050505050600b60008581526020019081526020016000208054600181600116156101000203166002900480601f016020809104026020016040519081016040528092919081815260200182805460018160011615610100020316600290048015612de25780601f10612db757610100808354040283529160200191612de2565b820191906000526020600020905b815481529060010190602001808311612dc557829003601f168201915b5050505050613a27565b9050919050565b6000600c60009054906101000a900473ffffffffffffffffffffffffffffffffffffffff1673ffffffffffffffffffffffffffffffffffffffff163373ffffffffffffffffffffffffffffffffffffffff16141515612e5157600080fd5b600090505b8151811015612e8c57612e7f8282815181101515612e7057fe5b906020019060200201516123b0565b8080600101915050612e56565b5050565b6000600460008473ffffffffffffffffffffffffffffffffffffffff1673ffffffffffffffffffffffffffffffffffffffff16815260200190815260200160002060008373ffffffffffffffffffffffffffffffffffffffff1673ffffffffffffffffffffffffffffffffffffffff16815260200190815260200160002060009054906101000a900460ff16905092915050565b600c60009054906101000a900473ffffffffffffffffffffffffffffffffffffffff1673ffffffffffffffffffffffffffffffffffffffff163373ffffffffffffffffffffffffffffffffffffffff16141515612f8057600080fd5b612f8981613a6e565b50565b612f968282612fa5565b1515612fa157600080fd5b5050565b60008260000160008373ffffffffffffffffffffffffffffffffffffffff1673ffffffffffffffffffffffffffffffffffffffff16815260200190815260200160002060009054906101000a900460ff16905092915050565b60008061300a836121a9565b90508073ffffffffffffffffffffffffffffffffffffffff168473ffffffffffffffffffffffffffffffffffffffff16148061307957508373ffffffffffffffffffffffffffffffffffffffff16613061846115c5565b73ffffffffffffffffffffffffffffffffffffffff16145b8061308a57506130898185612e90565b5b91505092915050565b8173ffffffffffffffffffffffffffffffffffffffff166130b3826121a9565b73ffffffffffffffffffffffffffffffffffffffff161415156130d557600080fd5b600073ffffffffffffffffffffffffffffffffffffffff166002600083815260200190815260200160002060009054906101000a900473ffffffffffffffffffffffffffffffffffffffff1673ffffffffffffffffffffffffffffffffffffffff161415156131925760006002600083815260200190815260200160002060006101000a81548173ffffffffffffffffffffffffffffffffffffffff021916908373ffffffffffffffffffffffffffffffffffffffff1602179055505b5050565b60008060006131a58585613b6a565b600860008581526020019081526020016000205492506132116001600760008873ffffffffffffffffffffffffffffffffffffffff1673ffffffffffffffffffffffffffffffffffffffff16815260200190815260200160002080549050613c9990919063ffffffff16565b9150600760008673ffffffffffffffffffffffffffffffffffffffff1673ffffffffffffffffffffffffffffffffffffffff1681526020019081526020016000208281548110151561325f57fe5b9060005260206000200154905080600760008773ffffffffffffffffffffffffffffffffffffffff1673ffffffffffffffffffffffffffffffffffffffff168152602001908152602001600020848154811015156132b957fe5b9060005260206000200181905550600760008673ffffffffffffffffffffffffffffffffffffffff1673ffffffffffffffffffffffffffffffffffffffff16815260200190815260200160002080548091906001900361331991906145bd565b50600060086000868152602001908152602001600020819055508260086000838152602001908152602001600020819055505050505050565b600061335e8383613cb2565b600760008473ffffffffffffffffffffffffffffffffffffffff1673ffffffffffffffffffffffffffffffffffffffff168152602001908152602001600020805490509050600760008473ffffffffffffffffffffffffffffffffffffffff1673ffffffffffffffffffffffffffffffffffffffff168152602001908152602001600020829080600181540180825580915050906001820390600052602060002001600090919290919091505550806008600084815260200190815260200160002081905550505050565b6134a682600d836040518082805190602001908083835b6020831015156134655780518252602082019150602081019050602083039250613440565b6001836020036101000a0380198251168184511680821785525050505050509050019150509081526020016040518091039020613e0c90919063ffffffff16565b8173ffffffffffffffffffffffffffffffffffffffff167fd211483f91fc6eff862467f8de606587a30c8fc9981056f051b897a418df803a826040518080602001828103825283818151815260200191508051906020019080838360005b8381101561351f578082015181840152602081019050613504565b50505050905090810190601f16801561354c5780820380516001836020036101000a031916815260200191505b509250505060405180910390a25050565b600080600061356c8585613e6a565b6000600b60008681526020019081526020016000208054600181600116156101000203166002900490501415156135bd57600b600085815260200190815260200160002060006135bc91906145e9565b5b600a60008581526020019081526020016000205492506135ec6001600980549050613c9990919063ffffffff16565b91506009828154811015156135fd57fe5b906000526020600020015490508060098481548110151561361a57fe5b9060005260206000200181905550600060098381548110151561363957fe5b9060005260206000200181905550600980548091906001900361365c91906145bd565b506000600a60008681526020019081526020016000208190555082600a6000838152602001908152602001600020819055505050505050565b6000600f5490506136a68382613ede565b6136b08183613f35565b6136c66001600f54613f7590919063ffffffff16565b600f81905550505050565b61374e82600d836040518082805190602001908083835b60208310151561370d57805182526020820191506020810190506020830392506136e8565b6001836020036101000a0380198251168184511680821785525050505050509050019150509081526020016040518091039020613f9190919063ffffffff16565b8173ffffffffffffffffffffffffffffffffffffffff167fbfec83d64eaa953f2708271a023ab9ee82057f8f3578d548c1a4ba0b5b700489826040518080602001828103825283818151815260200191508051906020019080838360005b838110156137c75780820151818401526020810190506137ac565b50505050905090810190601f1680156137f45780820380516001836020036101000a031916815260200191505b509250505060405180910390a25050565b6000806138278573ffffffffffffffffffffffffffffffffffffffff16613fef565b15156138365760019150613a1e565b8473ffffffffffffffffffffffffffffffffffffffff1663150b7a02338887876040518563ffffffff167c0100000000000000000000000000000000000000000000000000000000028152600401808573ffffffffffffffffffffffffffffffffffffffff1673ffffffffffffffffffffffffffffffffffffffff1681526020018473ffffffffffffffffffffffffffffffffffffffff1673ffffffffffffffffffffffffffffffffffffffff16815260200183815260200180602001828103825283818151815260200191508051906020019080838360005b8381101561392b578082015181840152602081019050613910565b50505050905090810190601f1680156139585780820380516001836020036101000a031916815260200191505b5095505050505050602060405180830381600087803b15801561397a57600080fd5b505af115801561398e573d6000803e3d6000fd5b505050506040513d60208110156139a457600080fd5b8101908080519060200190929190505050905063150b7a027c0100000000000000000000000000000000000000000000000000000000027bffffffffffffffffffffffffffffffffffffffffffffffffffffffff1916817bffffffffffffffffffffffffffffffffffffffffffffffffffffffff19161491505b50949350505050565b6060613a668383602060405190810160405280600081525060206040519081016040528060008152506020604051908101604052806000815250614002565b905092915050565b600073ffffffffffffffffffffffffffffffffffffffff168173ffffffffffffffffffffffffffffffffffffffff1614151515613aaa57600080fd5b8073ffffffffffffffffffffffffffffffffffffffff16600c60009054906101000a900473ffffffffffffffffffffffffffffffffffffffff1673ffffffffffffffffffffffffffffffffffffffff167f8be0079c531659141344cd1fd0a4f28419497f9722a3daafe3b4186f6b6457e060405160405180910390a380600c60006101000a81548173ffffffffffffffffffffffffffffffffffffffff021916908373ffffffffffffffffffffffffffffffffffffffff16021790555050565b8173ffffffffffffffffffffffffffffffffffffffff16613b8a826121a9565b73ffffffffffffffffffffffffffffffffffffffff16141515613bac57600080fd5b613bff6001600360008573ffffffffffffffffffffffffffffffffffffffff1673ffffffffffffffffffffffffffffffffffffffff16815260200190815260200160002054613c9990919063ffffffff16565b600360008473ffffffffffffffffffffffffffffffffffffffff1673ffffffffffffffffffffffffffffffffffffffff1681526020019081526020016000208190555060006001600083815260200190815260200160002060006101000a81548173ffffffffffffffffffffffffffffffffffffffff021916908373ffffffffffffffffffffffffffffffffffffffff1602179055505050565b6000828211151515613ca757fe5b818303905092915050565b600073ffffffffffffffffffffffffffffffffffffffff166001600083815260200190815260200160002060009054906101000a900473ffffffffffffffffffffffffffffffffffffffff1673ffffffffffffffffffffffffffffffffffffffff16141515613d2057600080fd5b816001600083815260200190815260200160002060006101000a81548173ffffffffffffffffffffffffffffffffffffffff021916908373ffffffffffffffffffffffffffffffffffffffff160217905550613dc56001600360008573ffffffffffffffffffffffffffffffffffffffff1673ffffffffffffffffffffffffffffffffffffffff16815260200190815260200160002054613f7590919063ffffffff16565b600360008473ffffffffffffffffffffffffffffffffffffffff1673ffffffffffffffffffffffffffffffffffffffff168152602001908152602001600020819055505050565b60008260000160008373ffffffffffffffffffffffffffffffffffffffff1673ffffffffffffffffffffffffffffffffffffffff16815260200190815260200160002060006101000a81548160ff0219169083151502179055505050565b613e748282613093565b613e7e8282613196565b80600073ffffffffffffffffffffffffffffffffffffffff168373ffffffffffffffffffffffffffffffffffffffff167fddf252ad1be2c89b69c2b068fc378daa952ba7f163c4a11628f55a4df523b3ef60405160405180910390a45050565b613ee88282614417565b600980549050600a60008381526020019081526020016000208190555060098190806001815401808255809150509060018203906000526020600020016000909192909190915055505050565b613f3e82612068565b1515613f4957600080fd5b80600b60008481526020019081526020016000209080519060200190613f70929190614631565b505050565b60008183019050828110151515613f8857fe5b80905092915050565b60018260000160008373ffffffffffffffffffffffffffffffffffffffff1673ffffffffffffffffffffffffffffffffffffffff16815260200190815260200160002060006101000a81548160ff0219169083151502179055505050565b600080823b905060008111915050919050565b6060806060806060806060806000808e98508d97508c96508b95508a94508451865188518a518c51010101016040519080825280601f01601f1916602001820160405280156140605781602001602082028038833980820191505090505b50935083925060009150600090505b885181101561412257888181518110151561408657fe5b9060200101517f010000000000000000000000000000000000000000000000000000000000000090047f01000000000000000000000000000000000000000000000000000000000000000283838060010194508151811015156140e557fe5b9060200101907effffffffffffffffffffffffffffffffffffffffffffffffffffffffffffff1916908160001a905350808060010191505061406f565b600090505b87518110156141da57878181518110151561413e57fe5b9060200101517f010000000000000000000000000000000000000000000000000000000000000090047f010000000000000000000000000000000000000000000000000000000000000002838380600101945081518110151561419d57fe5b9060200101907effffffffffffffffffffffffffffffffffffffffffffffffffffffffffffff1916908160001a9053508080600101915050614127565b600090505b86518110156142925786818151811015156141f657fe5b9060200101517f010000000000000000000000000000000000000000000000000000000000000090047f010000000000000000000000000000000000000000000000000000000000000002838380600101945081518110151561425557fe5b9060200101907effffffffffffffffffffffffffffffffffffffffffffffffffffffffffffff1916908160001a90535080806001019150506141df565b600090505b855181101561434a5785818151811015156142ae57fe5b9060200101517f010000000000000000000000000000000000000000000000000000000000000090047f010000000000000000000000000000000000000000000000000000000000000002838380600101945081518110151561430d57fe5b9060200101907effffffffffffffffffffffffffffffffffffffffffffffffffffffffffffff1916908160001a9053508080600101915050614297565b600090505b845181101561440257848181518110151561436657fe5b9060200101517f010000000000000000000000000000000000000000000000000000000000000090047f01000000000000000000000000000000000000000000000000000000000000000283838060010194508151811015156143c557fe5b9060200101907effffffffffffffffffffffffffffffffffffffffffffffffffffffffffffff1916908160001a905350808060010191505061434f565b82995050505050505050505095945050505050565b600073ffffffffffffffffffffffffffffffffffffffff168273ffffffffffffffffffffffffffffffffffffffff161415151561445357600080fd5b61445d8282613352565b808273ffffffffffffffffffffffffffffffffffffffff16600073ffffffffffffffffffffffffffffffffffffffff167fddf252ad1be2c89b69c2b068fc378daa952ba7f163c4a11628f55a4df523b3ef60405160405180910390a45050565b828054600181600116156101000203166002900490600052602060002090601f016020900481019282601f106144fe57803560ff191683800117855561452c565b8280016001018555821561452c579182015b8281111561452b578235825591602001919060010190614510565b5b50905061453991906146b1565b5090565b828054600181600116156101000203166002900490600052602060002090601f016020900481019282601f1061457e57805160ff19168380011785556145ac565b828001600101855582156145ac579182015b828111156145ab578251825591602001919060010190614590565b5b5090506145b991906146b1565b5090565b8154818355818111156145e4578183600052602060002091820191016145e391906146b1565b5b505050565b50805460018160011615610100020316600290046000825580601f1061460f575061462e565b601f01602090049060005260206000209081019061462d91906146b1565b5b50565b828054600181600116156101000203166002900490600052602060002090601f016020900481019282601f1061467257805160ff19168380011785556146a0565b828001600101855582156146a0579182015b8281111561469f578251825591602001919060010190614684565b5b5090506146ad91906146b1565b5090565b6146d391905b808211156146cf5760008160009055506001016146b7565b5090565b905600a165627a7a72305820c615122ceaf1b1ee38846ed009c9c3371b853970c388e15b1a113765c3aca4cd0029",
  "source": "pragma solidity ^0.4.24;\r\n\r\nimport \"openzeppelin-solidity/contracts/math/SafeMath.sol\";\r\nimport \"openzeppelin-solidity/contracts/access/Whitelist.sol\";\r\nimport \"openzeppelin-solidity/contracts/token/ERC721/ERC721Token.sol\";\r\n\r\nimport \"./Strings.sol\";\r\n\r\n/**\r\n* @title Radi.Cards\r\n*\r\n* Non-profit e-card NFT for good!\r\n*\r\n*/\r\ncontract RadiCards is ERC721Token, Whitelist {\r\n  using SafeMath for uint256;\r\n\r\n  string public tokenBaseURI = \"https://ipfs.infura.io/ipfs/\";\r\n\r\n  // A pointer to the next token to be minted, zero indexed\r\n  uint256 public tokenIdPointer = 0;\r\n\r\n  uint256 public minContribution = 0.05 ether;\r\n\r\n  struct Benefactor {\r\n    address ethAddress;\r\n    string name;\r\n    string website;\r\n  }\r\n\r\n  struct Card {\r\n    string ipfs;\r\n    string name;\r\n    string description;\r\n  }\r\n\r\n  mapping(uint256 => Benefactor) public benefactors;\r\n  uint256[] internal benefactorsIndex;\r\n\r\n  mapping(uint256 => Card) public cards;\r\n  uint256[] internal cardsIndex;\r\n\r\n  constructor () public ERC721Token(\"RadiCards\", \"RADI\") {\r\n    addAddressToWhitelist(msg.sender);\r\n\r\n    benefactors[1] = Benefactor(\r\n      address(0xb189f76323678E094D4996d182A792E52369c005),\r\n      \"Electronic Frontier Foundation\",\r\n      \"https://www.eff.org/pages/ethereum-and-litecoin-donations\"\r\n    );\r\n    benefactorsIndex.push(1);\r\n\r\n    benefactors[2] = Benefactor(\r\n      address(0x998F25Be40241CA5D8F5fCaF3591B5ED06EF3Be7),\r\n      \"Freedom of the Press Foundation\",\r\n      \"https://freedom.press/donate/cryptocurrency/\"\r\n    );\r\n    benefactorsIndex.push(2);\r\n\r\n    cards[1] = Card(\r\n      \"QmUyLttKRZxneFmmoETXoVfy3X1dmoimQ2PFLrSNM5EDMR\",\r\n      \"Grinch\",\r\n      \"Green fella\"\r\n    );\r\n    cardsIndex.push(1);\r\n\r\n    cards[2] = Card(\r\n      \"QmSD3wWx4tSXsCaDrKMVHU8aGhXzbruLw1jLm4PBUXLdT3\",\r\n      \"Skull\",\r\n      \"Santa's head!\"\r\n    );\r\n    cardsIndex.push(2);\r\n  }\r\n\r\n  function gift(address to, string tokenURI, uint256 _benefactor) payable public returns (bool) {\r\n    require(msg.value >= minContribution, \"Must send at least the minimum amount\");\r\n    require(benefactors[_benefactor].ethAddress != address(0), \"Must specify existing benefactor\");\r\n\r\n    _mint(to, tokenURI);\r\n\r\n    benefactors[_benefactor].ethAddress.transfer(msg.value);\r\n\r\n    return true;\r\n  }\r\n\r\n  function _mint(address to, string tokenURI) internal {\r\n    uint256 tokenId = tokenIdPointer;\r\n\r\n    _mint(to, tokenId);\r\n    _setTokenURI(tokenId, tokenURI);\r\n\r\n    tokenIdPointer = tokenIdPointer.add(1);\r\n  }\r\n\r\n  function burn(uint256 tokenId) public onlyIfWhitelisted(msg.sender) {\r\n    // Super burn\r\n    _burn(ownerOf(tokenId), tokenId);\r\n  }\r\n\r\n  function setTokenBaseURI(string _newBaseURI) external onlyIfWhitelisted(msg.sender) {\r\n    require(bytes(_newBaseURI).length != 0, \"Base URI invalid\");\r\n    tokenBaseURI = _newBaseURI;\r\n  }\r\n\r\n  function setMinContribution(uint256 _minContribution) external onlyIfWhitelisted(msg.sender) {\r\n    minContribution = _minContribution;\r\n  }\r\n\r\n  function tokenURI(uint256 _tokenId) public view returns (string) {\r\n    require(exists(_tokenId));\r\n    return Strings.strConcat(tokenBaseURI, tokenURIs[_tokenId]);\r\n  }\r\n\r\n  function tokensOf(address _owner) public view returns (uint256[] _tokenIds) {\r\n    return ownedTokens[_owner];\r\n  }\r\n\r\n  function benefactorsKeys() public view returns (uint256[] _keys) {\r\n    return benefactorsIndex;\r\n  }\r\n\r\n  function cardKeys() public view returns (uint256[] _keys) {\r\n    return cardsIndex;\r\n  }\r\n\r\n  function addBenefactor(uint256 _index, address _ethAddress, string _name, string _website) external onlyIfWhitelisted(msg.sender) {\r\n    require(benefactors[_index].ethAddress == address(0), \"Must not be an existing benefactor\");\r\n\r\n    benefactors[_index] = Benefactor(\r\n      _ethAddress,\r\n      _name,\r\n      _website\r\n    );\r\n    benefactorsIndex.push(_index);\r\n  }\r\n}\r\n",
  "sourcePath": "C:\\Users\\Diego\\Desktop\\radicards\\radi.cards\\contracts\\RadiCards.sol",
  "compiler": {
    "name": "solc",
    "version": "0.4.24+commit.e67f0147.Emscripten.clang"
  },
  "schemaVersion": "2.0.1",
  "updatedAt": "2018-12-05T11:23:05.582Z"
}