{
  "contractName": "RadiCards",
  "abi": [
    {
      "constant": true,
      "inputs": [
        {
          "name": "_interfaceId",
          "type": "bytes4"
        }
      ],
      "name": "supportsInterface",
      "outputs": [
        {
          "name": "",
          "type": "bool"
        }
      ],
      "payable": false,
      "stateMutability": "view",
      "type": "function",
      "signature": "0x01ffc9a7"
    },
    {
      "constant": true,
      "inputs": [],
      "name": "name",
      "outputs": [
        {
          "name": "",
          "type": "string"
        }
      ],
      "payable": false,
      "stateMutability": "view",
      "type": "function",
      "signature": "0x06fdde03"
    },
    {
      "constant": true,
      "inputs": [
        {
          "name": "_tokenId",
          "type": "uint256"
        }
      ],
      "name": "getApproved",
      "outputs": [
        {
          "name": "",
          "type": "address"
        }
      ],
      "payable": false,
      "stateMutability": "view",
      "type": "function",
      "signature": "0x081812fc"
    },
    {
      "constant": false,
      "inputs": [
        {
          "name": "_to",
          "type": "address"
        },
        {
          "name": "_tokenId",
          "type": "uint256"
        }
      ],
      "name": "approve",
      "outputs": [],
      "payable": false,
      "stateMutability": "nonpayable",
      "type": "function",
      "signature": "0x095ea7b3"
    },
    {
      "constant": true,
      "inputs": [
        {
          "name": "_operator",
          "type": "address"
        },
        {
          "name": "_role",
          "type": "string"
        }
      ],
      "name": "checkRole",
      "outputs": [],
      "payable": false,
      "stateMutability": "view",
      "type": "function",
      "signature": "0x0988ca8c"
    },
    {
      "constant": true,
      "inputs": [
        {
          "name": "",
          "type": "uint256"
        }
      ],
      "name": "messages",
      "outputs": [
        {
          "name": "",
          "type": "string"
        }
      ],
      "payable": false,
      "stateMutability": "view",
      "type": "function",
      "signature": "0x0d80fefd"
    },
    {
      "constant": true,
      "inputs": [
        {
          "name": "",
          "type": "uint256"
        }
      ],
      "name": "benefactors",
      "outputs": [
        {
          "name": "ethAddress",
          "type": "address"
        },
        {
          "name": "name",
          "type": "string"
        },
        {
          "name": "website",
          "type": "string"
        }
      ],
      "payable": false,
      "stateMutability": "view",
      "type": "function",
      "signature": "0x128ee161"
    },
    {
      "constant": true,
      "inputs": [],
      "name": "totalSupply",
      "outputs": [
        {
          "name": "",
          "type": "uint256"
        }
      ],
      "payable": false,
      "stateMutability": "view",
      "type": "function",
      "signature": "0x18160ddd"
    },
    {
      "constant": true,
      "inputs": [],
      "name": "ROLE_WHITELISTED",
      "outputs": [
        {
          "name": "",
          "type": "string"
        }
      ],
      "payable": false,
      "stateMutability": "view",
      "type": "function",
      "signature": "0x18b919e9"
    },
    {
      "constant": true,
      "inputs": [],
      "name": "InterfaceId_ERC165",
      "outputs": [
        {
          "name": "",
          "type": "bytes4"
        }
      ],
      "payable": false,
      "stateMutability": "view",
      "type": "function",
      "signature": "0x19fa8f50"
    },
    {
      "constant": true,
      "inputs": [
        {
          "name": "",
          "type": "uint256"
        }
      ],
      "name": "giftAmounts",
      "outputs": [
        {
          "name": "",
          "type": "uint256"
        }
      ],
      "payable": false,
      "stateMutability": "view",
      "type": "function",
      "signature": "0x1e1bac61"
    },
    {
      "constant": true,
      "inputs": [
        {
          "name": "_operator",
          "type": "address"
        },
        {
          "name": "_role",
          "type": "string"
        }
      ],
      "name": "hasRole",
      "outputs": [
        {
          "name": "",
          "type": "bool"
        }
      ],
      "payable": false,
      "stateMutability": "view",
      "type": "function",
      "signature": "0x217fe6c6"
    },
    {
      "constant": false,
      "inputs": [
        {
          "name": "_from",
          "type": "address"
        },
        {
          "name": "_to",
          "type": "address"
        },
        {
          "name": "_tokenId",
          "type": "uint256"
        }
      ],
      "name": "transferFrom",
      "outputs": [],
      "payable": false,
      "stateMutability": "nonpayable",
      "type": "function",
      "signature": "0x23b872dd"
    },
    {
      "constant": false,
      "inputs": [
        {
          "name": "_operators",
          "type": "address[]"
        }
      ],
      "name": "removeAddressesFromWhitelist",
      "outputs": [],
      "payable": false,
      "stateMutability": "nonpayable",
      "type": "function",
      "signature": "0x24953eaa"
    },
    {
      "constant": false,
      "inputs": [
        {
          "name": "_operator",
          "type": "address"
        }
      ],
      "name": "removeAddressFromWhitelist",
      "outputs": [],
      "payable": false,
      "stateMutability": "nonpayable",
      "type": "function",
      "signature": "0x286dd3f5"
    },
    {
      "constant": true,
      "inputs": [
        {
          "name": "_owner",
          "type": "address"
        },
        {
          "name": "_index",
          "type": "uint256"
        }
      ],
      "name": "tokenOfOwnerByIndex",
      "outputs": [
        {
          "name": "",
          "type": "uint256"
        }
      ],
      "payable": false,
      "stateMutability": "view",
      "type": "function",
      "signature": "0x2f745c59"
    },
    {
      "constant": true,
      "inputs": [],
      "name": "tokenIdPointer",
      "outputs": [
        {
          "name": "",
          "type": "uint256"
        }
      ],
      "payable": false,
      "stateMutability": "view",
      "type": "function",
      "signature": "0x3b3a1a7a"
    },
    {
      "constant": false,
      "inputs": [
        {
          "name": "_from",
          "type": "address"
        },
        {
          "name": "_to",
          "type": "address"
        },
        {
          "name": "_tokenId",
          "type": "uint256"
        }
      ],
      "name": "safeTransferFrom",
      "outputs": [],
      "payable": false,
      "stateMutability": "nonpayable",
      "type": "function",
      "signature": "0x42842e0e"
    },
    {
      "constant": true,
      "inputs": [],
      "name": "tokenBaseURI",
      "outputs": [
        {
          "name": "",
          "type": "string"
        }
      ],
      "payable": false,
      "stateMutability": "view",
      "type": "function",
      "signature": "0x4e99b800"
    },
    {
      "constant": true,
      "inputs": [
        {
          "name": "_tokenId",
          "type": "uint256"
        }
      ],
      "name": "exists",
      "outputs": [
        {
          "name": "",
          "type": "bool"
        }
      ],
      "payable": false,
      "stateMutability": "view",
      "type": "function",
      "signature": "0x4f558e79"
    },
    {
      "constant": true,
      "inputs": [
        {
          "name": "_index",
          "type": "uint256"
        }
      ],
      "name": "tokenByIndex",
      "outputs": [
        {
          "name": "",
          "type": "uint256"
        }
      ],
      "payable": false,
      "stateMutability": "view",
      "type": "function",
      "signature": "0x4f6ccce7"
    },
    {
      "constant": true,
      "inputs": [
        {
          "name": "",
          "type": "uint256"
        }
      ],
      "name": "extras",
      "outputs": [
        {
          "name": "",
          "type": "string"
        }
      ],
      "payable": false,
      "stateMutability": "view",
      "type": "function",
      "signature": "0x5468bc2f"
    },
    {
      "constant": true,
      "inputs": [
        {
          "name": "_tokenId",
          "type": "uint256"
        }
      ],
      "name": "ownerOf",
      "outputs": [
        {
          "name": "",
          "type": "address"
        }
      ],
      "payable": false,
      "stateMutability": "view",
      "type": "function",
      "signature": "0x6352211e"
    },
    {
      "constant": true,
      "inputs": [
        {
          "name": "_owner",
          "type": "address"
        }
      ],
      "name": "balanceOf",
      "outputs": [
        {
          "name": "",
          "type": "uint256"
        }
      ],
      "payable": false,
      "stateMutability": "view",
      "type": "function",
      "signature": "0x70a08231"
    },
    {
      "constant": false,
      "inputs": [],
      "name": "renounceOwnership",
      "outputs": [],
      "payable": false,
      "stateMutability": "nonpayable",
      "type": "function",
      "signature": "0x715018a6"
    },
    {
      "constant": false,
      "inputs": [
        {
          "name": "_operator",
          "type": "address"
        }
      ],
      "name": "addAddressToWhitelist",
      "outputs": [],
      "payable": false,
      "stateMutability": "nonpayable",
      "type": "function",
      "signature": "0x7b9417c8"
    },
    {
      "constant": true,
      "inputs": [],
      "name": "owner",
      "outputs": [
        {
          "name": "",
          "type": "address"
        }
      ],
      "payable": false,
      "stateMutability": "view",
      "type": "function",
      "signature": "0x8da5cb5b"
    },
    {
      "constant": true,
      "inputs": [
        {
          "name": "",
          "type": "uint256"
        }
      ],
      "name": "cards",
      "outputs": [
        {
          "name": "tokenURI",
          "type": "string"
        },
        {
          "name": "active",
          "type": "bool"
        }
      ],
      "payable": false,
      "stateMutability": "view",
      "type": "function",
      "signature": "0x8dc10768"
    },
    {
      "constant": true,
      "inputs": [],
      "name": "symbol",
      "outputs": [
        {
          "name": "",
          "type": "string"
        }
      ],
      "payable": false,
      "stateMutability": "view",
      "type": "function",
      "signature": "0x95d89b41"
    },
    {
      "constant": true,
      "inputs": [
        {
          "name": "_operator",
          "type": "address"
        }
      ],
      "name": "whitelist",
      "outputs": [
        {
          "name": "",
          "type": "bool"
        }
      ],
      "payable": false,
      "stateMutability": "view",
      "type": "function",
      "signature": "0x9b19251a"
    },
    {
      "constant": false,
      "inputs": [
        {
          "name": "_to",
          "type": "address"
        },
        {
          "name": "_approved",
          "type": "bool"
        }
      ],
      "name": "setApprovalForAll",
      "outputs": [],
      "payable": false,
      "stateMutability": "nonpayable",
      "type": "function",
      "signature": "0xa22cb465"
    },
    {
      "constant": true,
      "inputs": [
        {
          "name": "",
          "type": "uint256"
        }
      ],
      "name": "tokenIdToCardIndex",
      "outputs": [
        {
          "name": "",
          "type": "uint256"
        }
      ],
      "payable": false,
      "stateMutability": "view",
      "type": "function",
      "signature": "0xa56c6d2b"
    },
    {
      "constant": true,
      "inputs": [],
      "name": "minContribution",
      "outputs": [
        {
          "name": "",
          "type": "uint256"
        }
      ],
      "payable": false,
      "stateMutability": "view",
      "type": "function",
      "signature": "0xaaffadf3"
    },
    {
      "constant": true,
      "inputs": [
        {
          "name": "",
          "type": "uint256"
        }
      ],
      "name": "gifters",
      "outputs": [
        {
          "name": "",
          "type": "address"
        }
      ],
      "payable": false,
      "stateMutability": "view",
      "type": "function",
      "signature": "0xaf6844da"
    },
    {
      "constant": true,
      "inputs": [
        {
          "name": "",
          "type": "uint256"
        }
      ],
      "name": "tokenIdToBenefactorIndex",
      "outputs": [
        {
          "name": "",
          "type": "uint256"
        }
      ],
      "payable": false,
      "stateMutability": "view",
      "type": "function",
      "signature": "0xb188c045"
    },
    {
      "constant": false,
      "inputs": [
        {
          "name": "_from",
          "type": "address"
        },
        {
          "name": "_to",
          "type": "address"
        },
        {
          "name": "_tokenId",
          "type": "uint256"
        },
        {
          "name": "_data",
          "type": "bytes"
        }
      ],
      "name": "safeTransferFrom",
      "outputs": [],
      "payable": false,
      "stateMutability": "nonpayable",
      "type": "function",
      "signature": "0xb88d4fde"
    },
    {
      "constant": false,
      "inputs": [
        {
          "name": "_operators",
          "type": "address[]"
        }
      ],
      "name": "addAddressesToWhitelist",
      "outputs": [],
      "payable": false,
      "stateMutability": "nonpayable",
      "type": "function",
      "signature": "0xe2ec6ec3"
    },
    {
      "constant": true,
      "inputs": [
        {
          "name": "_owner",
          "type": "address"
        },
        {
          "name": "_operator",
          "type": "address"
        }
      ],
      "name": "isApprovedForAll",
      "outputs": [
        {
          "name": "",
          "type": "bool"
        }
      ],
      "payable": false,
      "stateMutability": "view",
      "type": "function",
      "signature": "0xe985e9c5"
    },
    {
      "constant": false,
      "inputs": [
        {
          "name": "_newOwner",
          "type": "address"
        }
      ],
      "name": "transferOwnership",
      "outputs": [],
      "payable": false,
      "stateMutability": "nonpayable",
      "type": "function",
      "signature": "0xf2fde38b"
    },
    {
      "inputs": [],
      "payable": false,
      "stateMutability": "nonpayable",
      "type": "constructor",
      "signature": "constructor"
    },
    {
      "anonymous": false,
      "inputs": [
        {
          "indexed": true,
          "name": "operator",
          "type": "address"
        },
        {
          "indexed": false,
          "name": "role",
          "type": "string"
        }
      ],
      "name": "RoleAdded",
      "type": "event",
      "signature": "0xbfec83d64eaa953f2708271a023ab9ee82057f8f3578d548c1a4ba0b5b700489"
    },
    {
      "anonymous": false,
      "inputs": [
        {
          "indexed": true,
          "name": "operator",
          "type": "address"
        },
        {
          "indexed": false,
          "name": "role",
          "type": "string"
        }
      ],
      "name": "RoleRemoved",
      "type": "event",
      "signature": "0xd211483f91fc6eff862467f8de606587a30c8fc9981056f051b897a418df803a"
    },
    {
      "anonymous": false,
      "inputs": [
        {
          "indexed": true,
          "name": "previousOwner",
          "type": "address"
        }
      ],
      "name": "OwnershipRenounced",
      "type": "event",
      "signature": "0xf8df31144d9c2f0f6b59d69b8b98abd5459d07f2742c4df920b25aae33c64820"
    },
    {
      "anonymous": false,
      "inputs": [
        {
          "indexed": true,
          "name": "previousOwner",
          "type": "address"
        },
        {
          "indexed": true,
          "name": "newOwner",
          "type": "address"
        }
      ],
      "name": "OwnershipTransferred",
      "type": "event",
      "signature": "0x8be0079c531659141344cd1fd0a4f28419497f9722a3daafe3b4186f6b6457e0"
    },
    {
      "anonymous": false,
      "inputs": [
        {
          "indexed": true,
          "name": "_from",
          "type": "address"
        },
        {
          "indexed": true,
          "name": "_to",
          "type": "address"
        },
        {
          "indexed": true,
          "name": "_tokenId",
          "type": "uint256"
        }
      ],
      "name": "Transfer",
      "type": "event",
      "signature": "0xddf252ad1be2c89b69c2b068fc378daa952ba7f163c4a11628f55a4df523b3ef"
    },
    {
      "anonymous": false,
      "inputs": [
        {
          "indexed": true,
          "name": "_owner",
          "type": "address"
        },
        {
          "indexed": true,
          "name": "_approved",
          "type": "address"
        },
        {
          "indexed": true,
          "name": "_tokenId",
          "type": "uint256"
        }
      ],
      "name": "Approval",
      "type": "event",
      "signature": "0x8c5be1e5ebec7d5bd14f71427d1e84f3dd0314c0f7b2291e5b200ac8c7c3b925"
    },
    {
      "anonymous": false,
      "inputs": [
        {
          "indexed": true,
          "name": "_owner",
          "type": "address"
        },
        {
          "indexed": true,
          "name": "_operator",
          "type": "address"
        },
        {
          "indexed": false,
          "name": "_approved",
          "type": "bool"
        }
      ],
      "name": "ApprovalForAll",
      "type": "event",
      "signature": "0x17307eab39ab6107e8899845ad3d59bd9653f200f220920489ca2b5937696c31"
    },
    {
      "constant": false,
      "inputs": [
        {
          "name": "to",
          "type": "address"
        },
        {
          "name": "_benefactorIndex",
          "type": "uint256"
        },
        {
          "name": "_cardIndex",
          "type": "uint256"
        },
        {
          "name": "_message",
          "type": "string"
        },
        {
          "name": "_extra",
          "type": "string"
        }
      ],
      "name": "gift",
      "outputs": [
        {
          "name": "",
          "type": "bool"
        }
      ],
      "payable": true,
      "stateMutability": "payable",
      "type": "function",
      "signature": "0x8074dc59"
    },
    {
      "constant": false,
      "inputs": [
        {
          "name": "_tokenId",
          "type": "uint256"
        }
      ],
      "name": "burn",
      "outputs": [],
      "payable": false,
      "stateMutability": "nonpayable",
      "type": "function",
      "signature": "0x42966c68"
    },
    {
      "constant": true,
      "inputs": [
        {
          "name": "_tokenId",
          "type": "uint256"
        }
      ],
      "name": "tokenURI",
      "outputs": [
        {
          "name": "",
          "type": "string"
        }
      ],
      "payable": false,
      "stateMutability": "view",
      "type": "function",
      "signature": "0xc87b56dd"
    },
    {
      "constant": true,
      "inputs": [
        {
          "name": "_owner",
          "type": "address"
        }
      ],
      "name": "tokensOf",
      "outputs": [
        {
          "name": "_tokenIds",
          "type": "uint256[]"
        }
      ],
      "payable": false,
      "stateMutability": "view",
      "type": "function",
      "signature": "0x5a3f2672"
    },
    {
      "constant": true,
      "inputs": [],
      "name": "benefactorsKeys",
      "outputs": [
        {
          "name": "_keys",
          "type": "uint256[]"
        }
      ],
      "payable": false,
      "stateMutability": "view",
      "type": "function",
      "signature": "0x03cfe12d"
    },
    {
      "constant": true,
      "inputs": [],
      "name": "cardsKeys",
      "outputs": [
        {
          "name": "_keys",
          "type": "uint256[]"
        }
      ],
      "payable": false,
      "stateMutability": "view",
      "type": "function",
      "signature": "0xf7ad51ce"
    },
    {
      "constant": false,
      "inputs": [
        {
          "name": "_benefactorIndex",
          "type": "uint256"
        },
        {
          "name": "_ethAddress",
          "type": "address"
        },
        {
          "name": "_name",
          "type": "string"
        },
        {
          "name": "_website",
          "type": "string"
        }
      ],
      "name": "addBenefactor",
      "outputs": [],
      "payable": false,
      "stateMutability": "nonpayable",
      "type": "function",
      "signature": "0xbdbf3a2c"
    },
    {
      "constant": false,
      "inputs": [
        {
          "name": "_cardIndex",
          "type": "uint256"
        },
        {
          "name": "_tokenURI",
          "type": "string"
        },
        {
          "name": "_active",
          "type": "bool"
        }
      ],
      "name": "addCard",
      "outputs": [],
      "payable": false,
      "stateMutability": "nonpayable",
      "type": "function",
      "signature": "0x5f75d62d"
    },
    {
      "constant": false,
      "inputs": [
        {
          "name": "_newBaseURI",
          "type": "string"
        }
      ],
      "name": "setTokenBaseURI",
      "outputs": [],
      "payable": false,
      "stateMutability": "nonpayable",
      "type": "function",
      "signature": "0x8ef79e91"
    },
    {
      "constant": false,
      "inputs": [
        {
          "name": "_minContribution",
          "type": "uint256"
        }
      ],
      "name": "setMinContribution",
      "outputs": [],
      "payable": false,
      "stateMutability": "nonpayable",
      "type": "function",
      "signature": "0x473b0d46"
    },
    {
      "constant": false,
      "inputs": [
        {
          "name": "_cardIndex",
          "type": "uint256"
        },
        {
          "name": "_active",
          "type": "bool"
        }
      ],
      "name": "setActive",
      "outputs": [],
      "payable": false,
      "stateMutability": "nonpayable",
      "type": "function",
      "signature": "0xe60a955d"
    }
  ],
  "bytecode": "0x60c0604052601c60808190527f68747470733a2f2f697066732e696e667572612e696f2f697066732f0000000060a09081526200004091600e9190620008fa565b506000600f55662386f26fc100006010553480156200005e57600080fd5b50604080518082018252600981527f52616469436172647300000000000000000000000000000000000000000000006020808301919091528251808401909352600483527f52414449000000000000000000000000000000000000000000000000000000009083015290620000fc7f01ffc9a700000000000000000000000000000000000000000000000000000000640100000000620003af810204565b620001307f80ac58cd00000000000000000000000000000000000000000000000000000000640100000000620003af810204565b620001647f4f558e7900000000000000000000000000000000000000000000000000000000640100000000620003af810204565b815162000179906005906020850190620008fa565b5080516200018f906006906020840190620008fa565b50620001c47f780e9d6300000000000000000000000000000000000000000000000000000000640100000000620003af810204565b620001f87f5b5e139f00000000000000000000000000000000000000000000000000000000640100000000620003af810204565b5050600c8054600160a060020a0319163390811790915562000223906401000000006200041c810204565b620002e6600173b189f76323678e094d4996d182a792e52369c0056040805190810160405280601e81526020017f456c656374726f6e69632046726f6e7469657220466f756e646174696f6e0000815250606060405190810160405280603981526020017f68747470733a2f2f7777772e6566662e6f72672f70616765732f65746865726581526020017f756d2d616e642d6c697465636f696e2d646f6e6174696f6e730000000000000081525062000487640100000000026401000000009004565b620003a9600273998f25be40241ca5d8f5fcaf3591b5ed06ef3be76040805190810160405280601f81526020017f46726565646f6d206f662074686520507265737320466f756e646174696f6e00815250606060405190810160405280602c81526020017f68747470733a2f2f66726565646f6d2e70726573732f646f6e6174652f63727981526020017f70746f63757272656e63792f000000000000000000000000000000000000000081525062000487640100000000026401000000009004565b6200099f565b7fffffffff000000000000000000000000000000000000000000000000000000008082161415620003df57600080fd5b7fffffffff00000000000000000000000000000000000000000000000000000000166000908152602081905260409020805460ff19166001179055565b600c54600160a060020a031633146200043457600080fd5b62000484816040805190810160405280600981526020017f77686974656c6973740000000000000000000000000000000000000000000000815250620006ef640100000000026401000000009004565b50565b33620004d8816040805190810160405280600981526020017f77686974656c697374000000000000000000000000000000000000000000000081525062000815640100000000026401000000009004565b600160a060020a03841615156200055057604080517f08c379a000000000000000000000000000000000000000000000000000000000815260206004820152600f60248201527f496e76616c696420616464726573730000000000000000000000000000000000604482015290519081900360640190fd5b82511515620005c057604080517f08c379a000000000000000000000000000000000000000000000000000000000815260206004820152600c60248201527f496e76616c6964206e616d650000000000000000000000000000000000000000604482015290519081900360640190fd5b815115156200063057604080517f08c379a000000000000000000000000000000000000000000000000000000000815260206004820152600c60248201527f496e76616c6964206e616d650000000000000000000000000000000000000000604482015290519081900360640190fd5b60408051606081018252600160a060020a038681168252602080830187815283850187905260008a8152601183529490942083518154600160a060020a03191693169290921782559251805192939192620006929260018501920190620008fa565b5060408201518051620006b0916002840191602090910190620008fa565b5050601280546001810182556000919091527fbb8a6a4669ba250d26cd7a459eca9d215f8307e33aebe50379bc5a3617ec344401959095555050505050565b6200076b82600d836040518082805190602001908083835b60208310620007285780518252601f19909201916020918201910162000707565b51815160209384036101000a600019018019909216911617905292019485525060405193849003019092209291505064010000000062000895810262002d0c1704565b81600160a060020a03167fbfec83d64eaa953f2708271a023ab9ee82057f8f3578d548c1a4ba0b5b700489826040518080602001828103825283818151815260200191508051906020019080838360005b83811015620007d6578181015183820152602001620007bc565b50505050905090810190601f168015620008045780820380516001836020036101000a031916815260200191505b509250505060405180910390a25050565b6200089182600d836040518082805190602001908083835b602083106200084e5780518252601f1990920191602091820191016200082d565b51815160209384036101000a6000190180199092169116179052920194855250604051938490030190922092915050640100000000620008ba8102620024141704565b5050565b600160a060020a0316600090815260209190915260409020805460ff19166001179055565b620008cf8282640100000000620008db810204565b15156200089157600080fd5b600160a060020a03166000908152602091909152604090205460ff1690565b828054600181600116156101000203166002900490600052602060002090601f016020900481019282601f106200093d57805160ff19168380011785556200096d565b828001600101855582156200096d579182015b828111156200096d57825182559160200191906001019062000950565b506200097b9291506200097f565b5090565b6200099c91905b808211156200097b576000815560010162000986565b90565b61323a80620009af6000396000f30060806040526004361061025b5763ffffffff7c010000000000000000000000000000000000000000000000000000000060003504166301ffc9a7811461026057806303cfe12d1461029657806306fdde03146102fb578063081812fc14610385578063095ea7b3146103b95780630988ca8c146103df5780630d80fefd14610446578063128ee1611461045e57806318160ddd1461056d57806318b919e91461059457806319fa8f50146105a95780631e1bac61146105db578063217fe6c6146105f357806323b872dd1461065a57806324953eaa14610684578063286dd3f5146106d95780632f745c59146106fa5780633b3a1a7a1461071e57806342842e0e1461073357806342966c681461075d578063473b0d46146107755780634e99b8001461078d5780634f558e79146107a25780634f6ccce7146107ba5780635468bc2f146107d25780635a3f2672146107ea5780635f75d62d1461080b5780636352211e1461086d57806370a0823114610885578063715018a6146108a65780637b9417c8146108bb5780638074dc59146108dc5780638da5cb5b146109795780638dc107681461098e5780638ef79e9114610a2957806395d89b4114610a495780639b19251a14610a5e578063a22cb46514610a7f578063a56c6d2b14610aa5578063aaffadf314610abd578063af6844da14610ad2578063b188c04514610aea578063b88d4fde14610b02578063bdbf3a2c14610b71578063c87b56dd14610c18578063e2ec6ec314610c30578063e60a955d14610c85578063e985e9c514610ca2578063f2fde38b14610cc9578063f7ad51ce14610cea575b600080fd5b34801561026c57600080fd5b50610282600160e060020a031960043516610cff565b604080519115158252519081900360200190f35b3480156102a257600080fd5b506102ab610d1e565b60408051602080825283518183015283519192839290830191858101910280838360005b838110156102e75781810151838201526020016102cf565b505050509050019250505060405180910390f35b34801561030757600080fd5b50610310610d77565b6040805160208082528351818301528351919283929083019185019080838360005b8381101561034a578181015183820152602001610332565b50505050905090810190601f1680156103775780820380516001836020036101000a031916815260200191505b509250505060405180910390f35b34801561039157600080fd5b5061039d600435610e04565b60408051600160a060020a039092168252519081900360200190f35b3480156103c557600080fd5b506103dd600160a060020a0360043516602435610e1f565b005b3480156103eb57600080fd5b5060408051602060046024803582810135601f81018590048502860185019096528585526103dd958335600160a060020a0316953695604494919390910191908190840183828082843750949750610ec89650505050505050565b34801561045257600080fd5b50610310600435610f36565b34801561046a57600080fd5b50610476600435610fd1565b6040518084600160a060020a0316600160a060020a031681526020018060200180602001838103835285818151815260200191508051906020019080838360005b838110156104cf5781810151838201526020016104b7565b50505050905090810190601f1680156104fc5780820380516001836020036101000a031916815260200191505b50838103825284518152845160209182019186019080838360005b8381101561052f578181015183820152602001610517565b50505050905090810190601f16801561055c5780820380516001836020036101000a031916815260200191505b509550505050505060405180910390f35b34801561057957600080fd5b50610582611117565b60408051918252519081900360200190f35b3480156105a057600080fd5b5061031061111d565b3480156105b557600080fd5b506105be611142565b60408051600160e060020a03199092168252519081900360200190f35b3480156105e757600080fd5b50610582600435611166565b3480156105ff57600080fd5b5060408051602060046024803582810135601f8101859004850286018501909652858552610282958335600160a060020a03169536956044949193909101919081908401838280828437509497506111789650505050505050565b34801561066657600080fd5b506103dd600160a060020a03600435811690602435166044356111eb565b34801561069057600080fd5b50604080516020600480358082013583810280860185019096528085526103dd9536959394602494938501929182918501908490808284375094975061128e9650505050505050565b3480156106e557600080fd5b506103dd600160a060020a03600435166112dd565b34801561070657600080fd5b50610582600160a060020a0360043516602435611324565b34801561072a57600080fd5b50610582611371565b34801561073f57600080fd5b506103dd600160a060020a0360043581169060243516604435611377565b34801561076957600080fd5b506103dd600435611398565b34801561078157600080fd5b506103dd600435611475565b34801561079957600080fd5b50610310611501565b3480156107ae57600080fd5b5061028260043561155c565b3480156107c657600080fd5b50610582600435611579565b3480156107de57600080fd5b506103106004356115ae565b3480156107f657600080fd5b506102ab600160a060020a0360043516611616565b34801561081757600080fd5b5060408051602060046024803582810135601f81018590048502860185019096528585526103dd958335953695604494919390910191908190840183828082843750949750505050913515159250611682915050565b34801561087957600080fd5b5061039d600435611795565b34801561089157600080fd5b50610582600160a060020a03600435166117bf565b3480156108b257600080fd5b506103dd6117f2565b3480156108c757600080fd5b506103dd600160a060020a0360043516611853565b604080516020601f60643560048181013592830184900484028501840190955281845261028294600160a060020a03813516946024803595604435953695608494930191819084018382808284375050604080516020601f89358b018035918201839004830284018301909452808352979a9998810197919650918201945092508291508401838280828437509497506118979650505050505050565b34801561098557600080fd5b5061039d611c4f565b34801561099a57600080fd5b506109a6600435611c5e565b604051808060200183151515158152602001828103825284818151815260200191508051906020019080838360005b838110156109ed5781810151838201526020016109d5565b50505050905090810190601f168015610a1a5780820380516001836020036101000a031916815260200191505b50935050505060405180910390f35b348015610a3557600080fd5b506103dd6004803560248101910135611d08565b348015610a5557600080fd5b50610310611d9f565b348015610a6a57600080fd5b50610282600160a060020a0360043516611e00565b348015610a8b57600080fd5b506103dd600160a060020a03600435166024351515611e2f565b348015610ab157600080fd5b50610582600435611eb3565b348015610ac957600080fd5b50610582611ec5565b348015610ade57600080fd5b5061039d600435611ecb565b348015610af657600080fd5b50610582600435611ee6565b348015610b0e57600080fd5b50604080516020601f6064356004818101359283018490048402850184019095528184526103dd94600160a060020a038135811695602480359092169560443595369560849401918190840183828082843750949750611ef89650505050505050565b348015610b7d57600080fd5b50604080516020600460443581810135601f81018490048402850184019095528484526103dd9482359460248035600160a060020a03169536959460649492019190819084018382808284375050604080516020601f89358b018035918201839004830284018301909452808352979a999881019791965091820194509250829150840183828082843750949750611f1a9650505050505050565b348015610c2457600080fd5b50610310600435612113565b348015610c3c57600080fd5b50604080516020600480358082013583810280860185019096528085526103dd953695939460249493850192918291850190849080828437509497506122579650505050505050565b348015610c9157600080fd5b506103dd60043560243515156122a6565b348015610cae57600080fd5b50610282600160a060020a0360043581169060243516612370565b348015610cd557600080fd5b506103dd600160a060020a036004351661239e565b348015610cf657600080fd5b506102ab6123be565b600160e060020a03191660009081526020819052604090205460ff1690565b60606012805480602002602001604051908101604052809291908181526020018280548015610d6c57602002820191906000526020600020905b815481526020019060010190808311610d58575b505050505090505b90565b60058054604080516020601f6002600019610100600188161502019095169490940493840181900481028201810190925282815260609390929091830182828015610d6c5780601f10610dd857610100808354040283529160200191610d6c565b820191906000526020600020905b815481529060010190602001808311610de657509395945050505050565b600090815260026020526040902054600160a060020a031690565b6000610e2a82611795565b9050600160a060020a038381169082161415610e4557600080fd5b33600160a060020a0382161480610e615750610e618133612370565b1515610e6c57600080fd5b6000828152600260205260408082208054600160a060020a031916600160a060020a0387811691821790925591518593918516917f8c5be1e5ebec7d5bd14f71427d1e84f3dd0314c0f7b2291e5b200ac8c7c3b92591a4505050565b610f3282600d836040518082805190602001908083835b60208310610efe5780518252601f199092019160209182019101610edf565b51815160209384036101000a6000190180199092169116179052920194855250604051938490030190922092915050612414565b5050565b60176020908152600091825260409182902080548351601f600260001961010060018616150201909316929092049182018490048402810184019094528084529091830182828015610fc95780601f10610f9e57610100808354040283529160200191610fc9565b820191906000526020600020905b815481529060010190602001808311610fac57829003601f168201915b505050505081565b6011602090815260009182526040918290208054600180830180548651600261010094831615949094026000190190911692909204601f8101869004860283018601909652858252600160a060020a0390921694929390929083018282801561107b5780601f106110505761010080835404028352916020019161107b565b820191906000526020600020905b81548152906001019060200180831161105e57829003601f168201915b50505060028085018054604080516020601f600019610100600187161502019094169590950492830185900485028101850190915281815295969594509092509083018282801561110d5780601f106110e25761010080835404028352916020019161110d565b820191906000526020600020905b8154815290600101906020018083116110f057829003601f168201915b5050505050905083565b60095490565b60408051808201909152600981526000805160206131ef833981519152602082015281565b7f01ffc9a70000000000000000000000000000000000000000000000000000000081565b60166020526000908152604090205481565b60006111e483600d846040518082805190602001908083835b602083106111b05780518252601f199092019160209182019101611191565b51815160209384036101000a6000190180199092169116179052920194855250604051938490030190922092915050612429565b9392505050565b6111f53382612448565b151561120057600080fd5b600160a060020a038316151561121557600080fd5b600160a060020a038216151561122a57600080fd5b61123483826124a7565b61123e8382612509565b6112488282612610565b8082600160a060020a031684600160a060020a03167fddf252ad1be2c89b69c2b068fc378daa952ba7f163c4a11628f55a4df523b3ef60405160405180910390a4505050565b600c54600090600160a060020a031633146112a857600080fd5b5060005b8151811015610f32576112d582828151811015156112c657fe5b906020019060200201516112dd565b6001016112ac565b600c54600160a060020a031633146112f457600080fd5b611321816040805190810160405280600981526020016000805160206131ef833981519152815250612659565b50565b600061132f836117bf565b821061133a57600080fd5b600160a060020a038316600090815260076020526040902080548390811061135e57fe5b9060005260206000200154905092915050565b600f5481565b6113938383836020604051908101604052806000815250611ef8565b505050565b336113c6816040805190810160405280600981526020016000805160206131ef833981519152815250610ec8565b6040805160208181018084526000808452868152601790925292902090516113ee9290613084565b506040805160208181018084526000808452868152601890925292902090516114179290613084565b50600f805460009081526015602090815260408083208054600160a060020a03191690558354835260168252808320839055835483526019825280832083905592548252601a905290812055610f3261146f83611795565b8361276a565b336114a3816040805190810160405280600981526020016000805160206131ef833981519152815250610ec8565b600082116114fb576040805160e560020a62461bcd02815260206004820152601c60248201527f496e76616c6964206d696e696d756d20636f6e747269627574696f6e00000000604482015290519081900360640190fd5b50601055565b600e805460408051602060026001851615610100026000190190941693909304601f81018490048402820184019092528181529291830182828015610fc95780601f10610f9e57610100808354040283529160200191610fc9565b600090815260016020526040902054600160a060020a0316151590565b6000611583611117565b821061158e57600080fd5b600980548390811061159c57fe5b90600052602060002001549050919050565b60186020908152600091825260409182902080548351601f600260001961010060018616150201909316929092049182018490048402810184019094528084529091830182828015610fc95780601f10610f9e57610100808354040283529160200191610fc9565b600160a060020a03811660009081526007602090815260409182902080548351818402810184019094528084526060939283018282801561167657602002820191906000526020600020905b815481526020019060010190808311611662575b50505050509050919050565b336116b0816040805190810160405280600981526020016000805160206131ef833981519152815250610ec8565b82511515611708576040805160e560020a62461bcd02815260206004820152601160248201527f496e76616c696420746f6b656e20555249000000000000000000000000000000604482015290519081900360640190fd5b6040805180820182528481528315156020808301919091526000878152601382529290922081518051929391926117429284920190613084565b50602091909101516001918201805460ff19169115159190911790556014805491820181556000527fce6d7b5282bd9a3661ae061feed1dbda4e52ab073b1f9285be6e155d9c38d4ec0193909355505050565b600081815260016020526040812054600160a060020a03168015156117b957600080fd5b92915050565b6000600160a060020a03821615156117d657600080fd5b50600160a060020a031660009081526003602052604090205490565b600c54600160a060020a0316331461180957600080fd5b600c54604051600160a060020a03909116907ff8df31144d9c2f0f6b59d69b8b98abd5459d07f2742c4df920b25aae33c6482090600090a2600c8054600160a060020a0319169055565b600c54600160a060020a0316331461186a57600080fd5b611321816040805190810160405280600981526020016000805160206131ef833981519152815250612864565b6000600160a060020a03861615156118f9576040805160e560020a62461bcd02815260206004820152601760248201527f4d75737420626520612076616c69642061646472657373000000000000000000604482015290519081900360640190fd5b600085815260116020526040902054600160a060020a03161515611967576040805160e560020a62461bcd02815260206004820181905260248201527f4d7573742073706563696679206578697374696e672062656e65666163746f72604482015290519081900360640190fd5b6000848152601360205260409020546002600019610100600184161502019091160415156119df576040805160e560020a62461bcd02815260206004820152601a60248201527f4d7573742073706563696679206578697374696e672063617264000000000000604482015290519081900360640190fd5b60008481526013602052604090206001015460ff161515611a4a576040805160e560020a62461bcd02815260206004820152601660248201527f4d75737420626520616e20616374697665206361726400000000000000000000604482015290519081900360640190fd5b601054341015611aca576040805160e560020a62461bcd02815260206004820152602560248201527f4d7573742073656e64206174206c6561737420746865206d696e696d756d206160448201527f6d6f756e74000000000000000000000000000000000000000000000000000000606482015290519081900360840190fd5b600f5460009081526017602090815260409091208451611aec92860190613084565b50600f5460009081526018602090815260409091208351611b0f92850190613084565b50600f805460009081526015602090815260408083208054600160a060020a031916331790558354835260168252808320349055835483526019825280832088905592548252601a8152828220889055868252601381529082902080548351601f60026000196001851615610100020190931692909204918201849004840281018401909452808452611bfd938a9390929190830182828015611bf35780601f10611bc857610100808354040283529160200191611bf3565b820191906000526020600020905b815481529060010190602001808311611bd657829003601f168201915b5050505050612936565b600085815260116020526040808220549051600160a060020a03909116913480156108fc02929091818181858888f19350505050158015611c42573d6000803e3d6000fd5b5060019695505050505050565b600c54600160a060020a031681565b60136020908152600091825260409182902080548351601f60026000196101006001861615020190931692909204918201849004840281018401909452808452909291839190830182828015611cf55780601f10611cca57610100808354040283529160200191611cf5565b820191906000526020600020905b815481529060010190602001808311611cd857829003601f168201915b5050506001909301549192505060ff1682565b33611d36816040805190810160405280600981526020016000805160206131ef833981519152815250610ec8565b811515611d8d576040805160e560020a62461bcd02815260206004820152601060248201527f426173652055524920696e76616c696400000000000000000000000000000000604482015290519081900360640190fd5b611d99600e8484613102565b50505050565b60068054604080516020601f6002600019610100600188161502019095169490940493840181900481028201810190925282815260609390929091830182828015610d6c5780601f10610dd857610100808354040283529160200191610d6c565b60006117b9826040805190810160405280600981526020016000805160206131ef833981519152815250611178565b600160a060020a038216331415611e4557600080fd5b336000818152600460209081526040808320600160a060020a03871680855290835292819020805460ff1916861515908117909155815190815290519293927f17307eab39ab6107e8899845ad3d59bd9653f200f220920489ca2b5937696c31929181900390910190a35050565b60196020526000908152604090205481565b60105481565b601560205260009081526040902054600160a060020a031681565b601a6020526000908152604090205481565b611f038484846111eb565b611f0f84848484612969565b1515611d9957600080fd5b33611f48816040805190810160405280600981526020016000805160206131ef833981519152815250610ec8565b600160a060020a0384161515611fa8576040805160e560020a62461bcd02815260206004820152600f60248201527f496e76616c696420616464726573730000000000000000000000000000000000604482015290519081900360640190fd5b82511515612000576040805160e560020a62461bcd02815260206004820152600c60248201527f496e76616c6964206e616d650000000000000000000000000000000000000000604482015290519081900360640190fd5b81511515612058576040805160e560020a62461bcd02815260206004820152600c60248201527f496e76616c6964206e616d650000000000000000000000000000000000000000604482015290519081900360640190fd5b60408051606081018252600160a060020a038681168252602080830187815283850187905260008a8152601183529490942083518154600160a060020a031916931692909217825592518051929391926120b89260018501920190613084565b50604082015180516120d4916002840191602090910190613084565b5050601280546001810182556000919091527fbb8a6a4669ba250d26cd7a459eca9d215f8307e33aebe50379bc5a3617ec344401959095555050505050565b606061211e8261155c565b151561212957600080fd5b600e8054604080516020601f600260001961010060018816150201909516949094049384018190048102820181019092528281526117b993909290918301828280156121b65780601f1061218b576101008083540402835291602001916121b6565b820191906000526020600020905b81548152906001019060200180831161219957829003601f168201915b5050506000868152600b60209081526040918290208054835160026001831615610100026000190190921691909104601f81018490048402820184019094528381529450925083018282801561224d5780601f106122225761010080835404028352916020019161224d565b820191906000526020600020905b81548152906001019060200180831161223057829003601f168201915b5050505050612ad6565b600c54600090600160a060020a0316331461227157600080fd5b5060005b8151811015610f325761229e828281518110151561228f57fe5b90602001906020020151611853565b600101612275565b336122d4816040805190810160405280600981526020016000805160206131ef833981519152815250610ec8565b60008381526013602052604090205460026000196101006001841615020190911604151561234c576040805160e560020a62461bcd02815260206004820152601a60248201527f4d7573742073706563696679206578697374696e672063617264000000000000604482015290519081900360640190fd5b50600091825260136020526040909120600101805460ff1916911515919091179055565b600160a060020a03918216600090815260046020908152604080832093909416825291909152205460ff1690565b600c54600160a060020a031633146123b557600080fd5b61132181612b0b565b60606014805480602002602001604051908101604052809291908181526020018280548015610d6c5760200282019190600052602060002090815481526020019060010190808311610d58575050505050905090565b61241e8282612429565b1515610f3257600080fd5b600160a060020a03166000908152602091909152604090205460ff1690565b60008061245483611795565b905080600160a060020a031684600160a060020a0316148061248f575083600160a060020a031661248484610e04565b600160a060020a0316145b8061249f575061249f8185612370565b949350505050565b81600160a060020a03166124ba82611795565b600160a060020a0316146124cd57600080fd5b600081815260026020526040902054600160a060020a031615610f325760009081526002602052604090208054600160a060020a031916905550565b60008060006125188585612b7c565b600084815260086020908152604080832054600160a060020a038916845260079092529091205490935061255390600163ffffffff612c0516565b600160a060020a03861660009081526007602052604090208054919350908390811061257b57fe5b90600052602060002001549050806007600087600160a060020a0316600160a060020a03168152602001908152602001600020848154811015156125bb57fe5b6000918252602080832090910192909255600160a060020a03871681526007909152604090208054906125f2906000198301613170565b50600093845260086020526040808520859055908452909220555050565b600061261c8383612c17565b50600160a060020a039091166000908152600760209081526040808320805460018101825590845282842081018590559383526008909152902055565b6126c382600d836040518082805190602001908083835b6020831061268f5780518252601f199092019160209182019101612670565b51815160209384036101000a6000190180199092169116179052920194855250604051938490030190922092915050612c9a565b81600160a060020a03167fd211483f91fc6eff862467f8de606587a30c8fc9981056f051b897a418df803a826040518080602001828103825283818151815260200191508051906020019080838360005b8381101561272c578181015183820152602001612714565b50505050905090810190601f1680156127595780820380516001836020036101000a031916815260200191505b509250505060405180910390a25050565b60008060006127798585612cbc565b6000848152600b602052604090205460026000196101006001841615020190911604156127b7576000848152600b602052604081206127b791613194565b6000848152600a60205260409020546009549093506127dd90600163ffffffff612c0516565b91506009828154811015156127ee57fe5b906000526020600020015490508060098481548110151561280b57fe5b6000918252602082200191909155600980548490811061282757fe5b6000918252602090912001556009805490612846906000198301613170565b506000938452600a6020526040808520859055908452909220555050565b6128ce82600d836040518082805190602001908083835b6020831061289a5780518252601f19909201916020918201910161287b565b51815160209384036101000a6000190180199092169116179052920194855250604051938490030190922092915050612d0c565b81600160a060020a03167fbfec83d64eaa953f2708271a023ab9ee82057f8f3578d548c1a4ba0b5b700489826040518080602001828103825283818151815260200191508051906020019080838360008381101561272c578181015183820152602001612714565b600f546129438382612d31565b61294d8183612d80565b600f5461296190600163ffffffff612db316565b600f55505050565b60008061297e85600160a060020a0316612dc0565b151561298d5760019150612acd565b6040517f150b7a020000000000000000000000000000000000000000000000000000000081523360048201818152600160a060020a03898116602485015260448401889052608060648501908152875160848601528751918a169463150b7a0294938c938b938b93909160a490910190602085019080838360005b83811015612a20578181015183820152602001612a08565b50505050905090810190601f168015612a4d5780820380516001836020036101000a031916815260200191505b5095505050505050602060405180830381600087803b158015612a6f57600080fd5b505af1158015612a83573d6000803e3d6000fd5b505050506040513d6020811015612a9957600080fd5b5051600160e060020a031981167f150b7a020000000000000000000000000000000000000000000000000000000014925090505b50949350505050565b6040805160208181018352600080835283518083018552818152845192830190945281526060926111e4928692869290612dc8565b600160a060020a0381161515612b2057600080fd5b600c54604051600160a060020a038084169216907f8be0079c531659141344cd1fd0a4f28419497f9722a3daafe3b4186f6b6457e090600090a3600c8054600160a060020a031916600160a060020a0392909216919091179055565b81600160a060020a0316612b8f82611795565b600160a060020a031614612ba257600080fd5b600160a060020a038216600090815260036020526040902054612bcc90600163ffffffff612c0516565b600160a060020a039092166000908152600360209081526040808320949094559181526001909152208054600160a060020a0319169055565b600082821115612c1157fe5b50900390565b600081815260016020526040902054600160a060020a031615612c3957600080fd5b60008181526001602081815260408084208054600160a060020a031916600160a060020a0388169081179091558452600390915290912054612c7a91612db3565b600160a060020a0390921660009081526003602052604090209190915550565b600160a060020a0316600090815260209190915260409020805460ff19169055565b612cc682826124a7565b612cd08282612509565b6040518190600090600160a060020a038516907fddf252ad1be2c89b69c2b068fc378daa952ba7f163c4a11628f55a4df523b3ef908390a45050565b600160a060020a0316600090815260209190915260409020805460ff19166001179055565b612d3b8282613029565b600980546000838152600a60205260408120829055600182018355919091527f6e1540171b6c0c960b71a7020d9f60077f6af931a8bbf590da0223dacf75c7af015550565b612d898261155c565b1515612d9457600080fd5b6000828152600b60209081526040909120825161139392840190613084565b818101828110156117b957fe5b6000903b1190565b6060806060806060806060806000808e98508d97508c96508b95508a94508451865188518a518c51010101016040519080825280601f01601f191660200182016040528015612e21578160200160208202803883390190505b50935083925060009150600090505b8851811015612e8e578881815181101515612e4757fe5b90602001015160f860020a900460f860020a028383806001019450815181101515612e6e57fe5b906020010190600160f860020a031916908160001a905350600101612e30565b5060005b8751811015612ef0578781815181101515612ea957fe5b90602001015160f860020a900460f860020a028383806001019450815181101515612ed057fe5b906020010190600160f860020a031916908160001a905350600101612e92565b5060005b8651811015612f52578681815181101515612f0b57fe5b90602001015160f860020a900460f860020a028383806001019450815181101515612f3257fe5b906020010190600160f860020a031916908160001a905350600101612ef4565b5060005b8551811015612fb4578581815181101515612f6d57fe5b90602001015160f860020a900460f860020a028383806001019450815181101515612f9457fe5b906020010190600160f860020a031916908160001a905350600101612f56565b5060005b8451811015613016578481815181101515612fcf57fe5b90602001015160f860020a900460f860020a028383806001019450815181101515612ff657fe5b906020010190600160f860020a031916908160001a905350600101612fb8565b50909d9c50505050505050505050505050565b600160a060020a038216151561303e57600080fd5b6130488282612610565b6040518190600160a060020a038416906000907fddf252ad1be2c89b69c2b068fc378daa952ba7f163c4a11628f55a4df523b3ef908290a45050565b828054600181600116156101000203166002900490600052602060002090601f016020900481019282601f106130c557805160ff19168380011785556130f2565b828001600101855582156130f2579182015b828111156130f25782518255916020019190600101906130d7565b506130fe9291506131d4565b5090565b828054600181600116156101000203166002900490600052602060002090601f016020900481019282601f106131435782800160ff198235161785556130f2565b828001600101855582156130f2579182015b828111156130f2578235825591602001919060010190613155565b815481835581811115611393576000838152602090206113939181019083016131d4565b50805460018160011615610100020316600290046000825580601f106131ba5750611321565b601f01602090049060005260206000209081019061132191905b610d7491905b808211156130fe57600081556001016131da560077686974656c6973740000000000000000000000000000000000000000000000a165627a7a7230582022c4873eef8eda033f4f04a417078c455dbf02565af963598c2ac5fef2cdc7ac0029",
  "source": "pragma solidity ^0.4.24;\n\nimport \"openzeppelin-solidity/contracts/math/SafeMath.sol\";\nimport \"openzeppelin-solidity/contracts/access/Whitelist.sol\";\nimport \"openzeppelin-solidity/contracts/token/ERC721/ERC721Token.sol\";\n\nimport \"./Strings.sol\";\n\n/**\n* @title Radi.Cards\n*\n*\n*/\ncontract RadiCards is ERC721Token, Whitelist {\n  using SafeMath for uint256;\n\n  string public tokenBaseURI = \"https://ipfs.infura.io/ipfs/\";\n\n  uint256 public tokenIdPointer = 0;\n  uint256 public minContribution = 0.01 ether; // under $1..now\n\n  struct Benefactor {\n    address ethAddress;\n    string name;\n    string website;\n  }\n\n  struct Card {\n    string tokenURI;\n    bool active;\n  }\n\n  mapping(uint256 => Benefactor) public benefactors;\n  uint256[] internal benefactorsIndex;\n\n  mapping(uint256 => Card) public cards;\n  uint256[] internal cardsIndex;\n\n  mapping(uint256 => address) public gifters;\n  mapping(uint256 => uint256) public giftAmounts;\n  mapping(uint256 => string) public messages;\n  mapping(uint256 => string) public extras;\n  mapping(uint256 => uint256) public tokenIdToCardIndex;\n  mapping(uint256 => uint256) public tokenIdToBenefactorIndex;\n\n  constructor () public ERC721Token(\"RadiCards\", \"RADI\") {\n    addAddressToWhitelist(msg.sender);\n\n    addBenefactor(\n      1,\n      address(0xb189f76323678E094D4996d182A792E52369c005),\n      \"Electronic Frontier Foundation\",\n      \"https://www.eff.org/pages/ethereum-and-litecoin-donations\"\n    );\n\n    addBenefactor(\n      2,\n      address(0x998F25Be40241CA5D8F5fCaF3591B5ED06EF3Be7),\n      \"Freedom of the Press Foundation\",\n      \"https://freedom.press/donate/cryptocurrency/\"\n    );\n  }\n\n  function gift(address to, uint256 _benefactorIndex, uint256 _cardIndex, string _message, string _extra) payable public returns (bool) {\n    require(to != address(0), \"Must be a valid address\");\n    require(benefactors[_benefactorIndex].ethAddress != address(0), \"Must specify existing benefactor\");\n    require(bytes(cards[_cardIndex].tokenURI).length != 0, \"Must specify existing card\");\n    require(cards[_cardIndex].active, \"Must be an active card\");\n    require(msg.value >= minContribution, \"Must send at least the minimum amount\");\n\n    messages[tokenIdPointer] = _message;\n    extras[tokenIdPointer] = _extra;\n    gifters[tokenIdPointer] = msg.sender;\n    giftAmounts[tokenIdPointer] = msg.value;\n    tokenIdToCardIndex[tokenIdPointer] = _cardIndex;\n    tokenIdToBenefactorIndex[tokenIdPointer] = _benefactorIndex;\n\n    _mint(to, cards[_cardIndex].tokenURI);\n\n    // transfer the ETH to the benefactor\n    benefactors[_benefactorIndex].ethAddress.transfer(msg.value);\n\n    return true;\n  }\n\n  function _mint(address to, string tokenURI) internal {\n    uint256 tokenId = tokenIdPointer;\n\n    _mint(to, tokenId);\n    _setTokenURI(tokenId, tokenURI);\n\n    tokenIdPointer = tokenIdPointer.add(1);\n  }\n\n  function burn(uint256 _tokenId) public onlyIfWhitelisted(msg.sender) {\n    // custom fields\n    messages[_tokenId] = \"\";\n    extras[_tokenId] = \"\";\n    gifters[tokenIdPointer] = address(0);\n    giftAmounts[tokenIdPointer] = 0;\n    tokenIdToCardIndex[tokenIdPointer] =  0;\n    tokenIdToBenefactorIndex[tokenIdPointer] =  0;\n\n    // Super burn\n    _burn(ownerOf(_tokenId), _tokenId);\n  }\n\n  function tokenURI(uint256 _tokenId) public view returns (string) {\n    require(exists(_tokenId));\n\n    return Strings.strConcat(tokenBaseURI, tokenURIs[_tokenId]);\n  }\n\n  function tokensOf(address _owner) public view returns (uint256[] _tokenIds) {\n    return ownedTokens[_owner];\n  }\n\n  function benefactorsKeys() public view returns (uint256[] _keys) {\n    return benefactorsIndex;\n  }\n\n  function cardsKeys() public view returns (uint256[] _keys) {\n    return cardsIndex;\n  }\n\n  function addBenefactor(uint256 _benefactorIndex, address _ethAddress, string _name, string _website) public onlyIfWhitelisted(msg.sender) {\n    require(address(_ethAddress) != address(0), \"Invalid address\");\n    require(bytes(_name).length != 0, \"Invalid name\");\n    require(bytes(_website).length != 0, \"Invalid name\");\n\n    benefactors[_benefactorIndex] = Benefactor(\n      _ethAddress,\n      _name,\n      _website\n    );\n    benefactorsIndex.push(_benefactorIndex);\n  }\n\n  function addCard(uint256 _cardIndex, string _tokenURI, bool _active) public onlyIfWhitelisted(msg.sender) {\n    require(bytes(_tokenURI).length != 0, \"Invalid token URI\");\n\n    cards[_cardIndex] = Card(\n      _tokenURI,\n      _active\n    );\n    cardsIndex.push(_cardIndex);\n  }\n\n  function setTokenBaseURI(string _newBaseURI) external onlyIfWhitelisted(msg.sender) {\n    require(bytes(_newBaseURI).length != 0, \"Base URI invalid\");\n\n    tokenBaseURI = _newBaseURI;\n  }\n\n  function setMinContribution(uint256 _minContribution) external onlyIfWhitelisted(msg.sender) {\n    require(_minContribution > 0, \"Invalid minimum contribution\");\n\n    minContribution = _minContribution;\n  }\n\n  function setActive(uint256 _cardIndex, bool _active) external onlyIfWhitelisted(msg.sender) {\n    require(bytes(cards[_cardIndex].tokenURI).length != 0, \"Must specify existing card\");\n\n    cards[_cardIndex].active = _active;\n  }\n}\n",
  "sourcePath": "/Users/andy/workspace/radi-cards/contracts/RadiCards.sol",
  "compiler": {
    "name": "solc",
    "version": "0.4.24+commit.e67f0147.Emscripten.clang"
  },
  "schemaVersion": "3.0.0-beta.1",
  "updatedAt": "2018-12-07T16:58:45.532Z"
}