{
  "contractName": "RadiCards",
  "abi": [
    {
      "constant": true,
      "inputs": [
        {
          "name": "_interfaceId",
          "type": "bytes4"
        }
      ],
      "name": "supportsInterface",
      "outputs": [
        {
          "name": "",
          "type": "bool"
        }
      ],
      "payable": false,
      "stateMutability": "view",
      "type": "function"
    },
    {
      "constant": true,
      "inputs": [],
      "name": "name",
      "outputs": [
        {
          "name": "",
          "type": "string"
        }
      ],
      "payable": false,
      "stateMutability": "view",
      "type": "function"
    },
    {
      "constant": true,
      "inputs": [
        {
          "name": "_tokenId",
          "type": "uint256"
        }
      ],
      "name": "getApproved",
      "outputs": [
        {
          "name": "",
          "type": "address"
        }
      ],
      "payable": false,
      "stateMutability": "view",
      "type": "function"
    },
    {
      "constant": false,
      "inputs": [
        {
          "name": "_to",
          "type": "address"
        },
        {
          "name": "_tokenId",
          "type": "uint256"
        }
      ],
      "name": "approve",
      "outputs": [],
      "payable": false,
      "stateMutability": "nonpayable",
      "type": "function"
    },
    {
      "constant": true,
      "inputs": [
        {
          "name": "_operator",
          "type": "address"
        },
        {
          "name": "_role",
          "type": "string"
        }
      ],
      "name": "checkRole",
      "outputs": [],
      "payable": false,
      "stateMutability": "view",
      "type": "function"
    },
    {
      "constant": true,
      "inputs": [
        {
          "name": "",
          "type": "uint256"
        }
      ],
      "name": "messages",
      "outputs": [
        {
          "name": "",
          "type": "string"
        }
      ],
      "payable": false,
      "stateMutability": "view",
      "type": "function"
    },
    {
      "constant": true,
      "inputs": [
        {
          "name": "",
          "type": "uint256"
        }
      ],
      "name": "benefactors",
      "outputs": [
        {
          "name": "ethAddress",
          "type": "address"
        },
        {
          "name": "name",
          "type": "string"
        },
        {
          "name": "website",
          "type": "string"
        }
      ],
      "payable": false,
      "stateMutability": "view",
      "type": "function"
    },
    {
      "constant": true,
      "inputs": [],
      "name": "totalSupply",
      "outputs": [
        {
          "name": "",
          "type": "uint256"
        }
      ],
      "payable": false,
      "stateMutability": "view",
      "type": "function"
    },
    {
      "constant": true,
      "inputs": [],
      "name": "ROLE_WHITELISTED",
      "outputs": [
        {
          "name": "",
          "type": "string"
        }
      ],
      "payable": false,
      "stateMutability": "view",
      "type": "function"
    },
    {
      "constant": true,
      "inputs": [],
      "name": "InterfaceId_ERC165",
      "outputs": [
        {
          "name": "",
          "type": "bytes4"
        }
      ],
      "payable": false,
      "stateMutability": "view",
      "type": "function"
    },
    {
      "constant": true,
      "inputs": [
        {
          "name": "_operator",
          "type": "address"
        },
        {
          "name": "_role",
          "type": "string"
        }
      ],
      "name": "hasRole",
      "outputs": [
        {
          "name": "",
          "type": "bool"
        }
      ],
      "payable": false,
      "stateMutability": "view",
      "type": "function"
    },
    {
      "constant": false,
      "inputs": [
        {
          "name": "_from",
          "type": "address"
        },
        {
          "name": "_to",
          "type": "address"
        },
        {
          "name": "_tokenId",
          "type": "uint256"
        }
      ],
      "name": "transferFrom",
      "outputs": [],
      "payable": false,
      "stateMutability": "nonpayable",
      "type": "function"
    },
    {
      "constant": false,
      "inputs": [
        {
          "name": "_operators",
          "type": "address[]"
        }
      ],
      "name": "removeAddressesFromWhitelist",
      "outputs": [],
      "payable": false,
      "stateMutability": "nonpayable",
      "type": "function"
    },
    {
      "constant": false,
      "inputs": [
        {
          "name": "_operator",
          "type": "address"
        }
      ],
      "name": "removeAddressFromWhitelist",
      "outputs": [],
      "payable": false,
      "stateMutability": "nonpayable",
      "type": "function"
    },
    {
      "constant": true,
      "inputs": [
        {
          "name": "_owner",
          "type": "address"
        },
        {
          "name": "_index",
          "type": "uint256"
        }
      ],
      "name": "tokenOfOwnerByIndex",
      "outputs": [
        {
          "name": "",
          "type": "uint256"
        }
      ],
      "payable": false,
      "stateMutability": "view",
      "type": "function"
    },
    {
      "constant": true,
      "inputs": [],
      "name": "tokenIdPointer",
      "outputs": [
        {
          "name": "",
          "type": "uint256"
        }
      ],
      "payable": false,
      "stateMutability": "view",
      "type": "function"
    },
    {
      "constant": false,
      "inputs": [
        {
          "name": "_from",
          "type": "address"
        },
        {
          "name": "_to",
          "type": "address"
        },
        {
          "name": "_tokenId",
          "type": "uint256"
        }
      ],
      "name": "safeTransferFrom",
      "outputs": [],
      "payable": false,
      "stateMutability": "nonpayable",
      "type": "function"
    },
    {
      "constant": true,
      "inputs": [],
      "name": "tokenBaseURI",
      "outputs": [
        {
          "name": "",
          "type": "string"
        }
      ],
      "payable": false,
      "stateMutability": "view",
      "type": "function"
    },
    {
      "constant": true,
      "inputs": [
        {
          "name": "_tokenId",
          "type": "uint256"
        }
      ],
      "name": "exists",
      "outputs": [
        {
          "name": "",
          "type": "bool"
        }
      ],
      "payable": false,
      "stateMutability": "view",
      "type": "function"
    },
    {
      "constant": true,
      "inputs": [
        {
          "name": "_index",
          "type": "uint256"
        }
      ],
      "name": "tokenByIndex",
      "outputs": [
        {
          "name": "",
          "type": "uint256"
        }
      ],
      "payable": false,
      "stateMutability": "view",
      "type": "function"
    },
    {
      "constant": true,
      "inputs": [
        {
          "name": "",
          "type": "uint256"
        }
      ],
      "name": "extras",
      "outputs": [
        {
          "name": "",
          "type": "string"
        }
      ],
      "payable": false,
      "stateMutability": "view",
      "type": "function"
    },
    {
      "constant": true,
      "inputs": [
        {
          "name": "_tokenId",
          "type": "uint256"
        }
      ],
      "name": "ownerOf",
      "outputs": [
        {
          "name": "",
          "type": "address"
        }
      ],
      "payable": false,
      "stateMutability": "view",
      "type": "function"
    },
    {
      "constant": true,
      "inputs": [
        {
          "name": "_owner",
          "type": "address"
        }
      ],
      "name": "balanceOf",
      "outputs": [
        {
          "name": "",
          "type": "uint256"
        }
      ],
      "payable": false,
      "stateMutability": "view",
      "type": "function"
    },
    {
      "constant": false,
      "inputs": [],
      "name": "renounceOwnership",
      "outputs": [],
      "payable": false,
      "stateMutability": "nonpayable",
      "type": "function"
    },
    {
      "constant": false,
      "inputs": [
        {
          "name": "_operator",
          "type": "address"
        }
      ],
      "name": "addAddressToWhitelist",
      "outputs": [],
      "payable": false,
      "stateMutability": "nonpayable",
      "type": "function"
    },
    {
      "constant": true,
      "inputs": [],
      "name": "owner",
      "outputs": [
        {
          "name": "",
          "type": "address"
        }
      ],
      "payable": false,
      "stateMutability": "view",
      "type": "function"
    },
    {
      "constant": true,
      "inputs": [
        {
          "name": "",
          "type": "uint256"
        }
      ],
      "name": "cards",
      "outputs": [
        {
          "name": "tokenURI",
          "type": "string"
        },
        {
          "name": "active",
          "type": "bool"
        }
      ],
      "payable": false,
      "stateMutability": "view",
      "type": "function"
    },
    {
      "constant": true,
      "inputs": [],
      "name": "symbol",
      "outputs": [
        {
          "name": "",
          "type": "string"
        }
      ],
      "payable": false,
      "stateMutability": "view",
      "type": "function"
    },
    {
      "constant": true,
      "inputs": [
        {
          "name": "_operator",
          "type": "address"
        }
      ],
      "name": "whitelist",
      "outputs": [
        {
          "name": "",
          "type": "bool"
        }
      ],
      "payable": false,
      "stateMutability": "view",
      "type": "function"
    },
    {
      "constant": false,
      "inputs": [
        {
          "name": "_to",
          "type": "address"
        },
        {
          "name": "_approved",
          "type": "bool"
        }
      ],
      "name": "setApprovalForAll",
      "outputs": [],
      "payable": false,
      "stateMutability": "nonpayable",
      "type": "function"
    },
    {
      "constant": true,
      "inputs": [],
      "name": "minContribution",
      "outputs": [
        {
          "name": "",
          "type": "uint256"
        }
      ],
      "payable": false,
      "stateMutability": "view",
      "type": "function"
    },
    {
      "constant": false,
      "inputs": [
        {
          "name": "_from",
          "type": "address"
        },
        {
          "name": "_to",
          "type": "address"
        },
        {
          "name": "_tokenId",
          "type": "uint256"
        },
        {
          "name": "_data",
          "type": "bytes"
        }
      ],
      "name": "safeTransferFrom",
      "outputs": [],
      "payable": false,
      "stateMutability": "nonpayable",
      "type": "function"
    },
    {
      "constant": false,
      "inputs": [
        {
          "name": "_operators",
          "type": "address[]"
        }
      ],
      "name": "addAddressesToWhitelist",
      "outputs": [],
      "payable": false,
      "stateMutability": "nonpayable",
      "type": "function"
    },
    {
      "constant": true,
      "inputs": [
        {
          "name": "_owner",
          "type": "address"
        },
        {
          "name": "_operator",
          "type": "address"
        }
      ],
      "name": "isApprovedForAll",
      "outputs": [
        {
          "name": "",
          "type": "bool"
        }
      ],
      "payable": false,
      "stateMutability": "view",
      "type": "function"
    },
    {
      "constant": false,
      "inputs": [
        {
          "name": "_newOwner",
          "type": "address"
        }
      ],
      "name": "transferOwnership",
      "outputs": [],
      "payable": false,
      "stateMutability": "nonpayable",
      "type": "function"
    },
    {
      "inputs": [],
      "payable": false,
      "stateMutability": "nonpayable",
      "type": "constructor"
    },
    {
      "anonymous": false,
      "inputs": [
        {
          "indexed": true,
          "name": "operator",
          "type": "address"
        },
        {
          "indexed": false,
          "name": "role",
          "type": "string"
        }
      ],
      "name": "RoleAdded",
      "type": "event"
    },
    {
      "anonymous": false,
      "inputs": [
        {
          "indexed": true,
          "name": "operator",
          "type": "address"
        },
        {
          "indexed": false,
          "name": "role",
          "type": "string"
        }
      ],
      "name": "RoleRemoved",
      "type": "event"
    },
    {
      "anonymous": false,
      "inputs": [
        {
          "indexed": true,
          "name": "previousOwner",
          "type": "address"
        }
      ],
      "name": "OwnershipRenounced",
      "type": "event"
    },
    {
      "anonymous": false,
      "inputs": [
        {
          "indexed": true,
          "name": "previousOwner",
          "type": "address"
        },
        {
          "indexed": true,
          "name": "newOwner",
          "type": "address"
        }
      ],
      "name": "OwnershipTransferred",
      "type": "event"
    },
    {
      "anonymous": false,
      "inputs": [
        {
          "indexed": true,
          "name": "_from",
          "type": "address"
        },
        {
          "indexed": true,
          "name": "_to",
          "type": "address"
        },
        {
          "indexed": true,
          "name": "_tokenId",
          "type": "uint256"
        }
      ],
      "name": "Transfer",
      "type": "event"
    },
    {
      "anonymous": false,
      "inputs": [
        {
          "indexed": true,
          "name": "_owner",
          "type": "address"
        },
        {
          "indexed": true,
          "name": "_approved",
          "type": "address"
        },
        {
          "indexed": true,
          "name": "_tokenId",
          "type": "uint256"
        }
      ],
      "name": "Approval",
      "type": "event"
    },
    {
      "anonymous": false,
      "inputs": [
        {
          "indexed": true,
          "name": "_owner",
          "type": "address"
        },
        {
          "indexed": true,
          "name": "_operator",
          "type": "address"
        },
        {
          "indexed": false,
          "name": "_approved",
          "type": "bool"
        }
      ],
      "name": "ApprovalForAll",
      "type": "event"
    },
    {
      "constant": false,
      "inputs": [
        {
          "name": "to",
          "type": "address"
        },
        {
          "name": "_benefactorIndex",
          "type": "uint256"
        },
        {
          "name": "_cardIndex",
          "type": "uint256"
        },
        {
          "name": "_message",
          "type": "string"
        },
        {
          "name": "_extra",
          "type": "string"
        }
      ],
      "name": "gift",
      "outputs": [
        {
          "name": "",
          "type": "bool"
        }
      ],
      "payable": true,
      "stateMutability": "payable",
      "type": "function"
    },
    {
      "constant": false,
      "inputs": [
        {
          "name": "_tokenId",
          "type": "uint256"
        }
      ],
      "name": "burn",
      "outputs": [],
      "payable": false,
      "stateMutability": "nonpayable",
      "type": "function"
    },
    {
      "constant": true,
      "inputs": [
        {
          "name": "_tokenId",
          "type": "uint256"
        }
      ],
      "name": "tokenURI",
      "outputs": [
        {
          "name": "",
          "type": "string"
        }
      ],
      "payable": false,
      "stateMutability": "view",
      "type": "function"
    },
    {
      "constant": true,
      "inputs": [
        {
          "name": "_owner",
          "type": "address"
        }
      ],
      "name": "tokensOf",
      "outputs": [
        {
          "name": "_tokenIds",
          "type": "uint256[]"
        }
      ],
      "payable": false,
      "stateMutability": "view",
      "type": "function"
    },
    {
      "constant": true,
      "inputs": [],
      "name": "benefactorsKeys",
      "outputs": [
        {
          "name": "_keys",
          "type": "uint256[]"
        }
      ],
      "payable": false,
      "stateMutability": "view",
      "type": "function"
    },
    {
      "constant": true,
      "inputs": [],
      "name": "cardsKeys",
      "outputs": [
        {
          "name": "_keys",
          "type": "uint256[]"
        }
      ],
      "payable": false,
      "stateMutability": "view",
      "type": "function"
    },
    {
      "constant": false,
      "inputs": [
        {
          "name": "_benefactorIndex",
          "type": "uint256"
        },
        {
          "name": "_ethAddress",
          "type": "address"
        },
        {
          "name": "_name",
          "type": "string"
        },
        {
          "name": "_website",
          "type": "string"
        }
      ],
      "name": "addBenefactor",
      "outputs": [],
      "payable": false,
      "stateMutability": "nonpayable",
      "type": "function"
    },
    {
      "constant": false,
      "inputs": [
        {
          "name": "_cardIndex",
          "type": "uint256"
        },
        {
          "name": "_tokenURI",
          "type": "string"
        },
        {
          "name": "_active",
          "type": "bool"
        }
      ],
      "name": "addCard",
      "outputs": [],
      "payable": false,
      "stateMutability": "nonpayable",
      "type": "function"
    },
    {
      "constant": false,
      "inputs": [
        {
          "name": "_newBaseURI",
          "type": "string"
        }
      ],
      "name": "setTokenBaseURI",
      "outputs": [],
      "payable": false,
      "stateMutability": "nonpayable",
      "type": "function"
    },
    {
      "constant": false,
      "inputs": [
        {
          "name": "_minContribution",
          "type": "uint256"
        }
      ],
      "name": "setMinContribution",
      "outputs": [],
      "payable": false,
      "stateMutability": "nonpayable",
      "type": "function"
    },
    {
      "constant": false,
      "inputs": [
        {
          "name": "_cardIndex",
          "type": "uint256"
        },
        {
          "name": "_active",
          "type": "bool"
        }
      ],
      "name": "setActive",
      "outputs": [],
      "payable": false,
      "stateMutability": "nonpayable",
      "type": "function"
    }
  ],
  "bytecode": "0x60806040526040805190810160405280601c81526020017f68747470733a2f2f697066732e696e667572612e696f2f697066732f00000000815250600e90805190602001906200005192919062000b41565b506000600f55662386f26fc100006010553480156200006f57600080fd5b506040805190810160405280600981526020017f52616469436172647300000000000000000000000000000000000000000000008152506040805190810160405280600481526020017f5241444900000000000000000000000000000000000000000000000000000000815250620001196301ffc9a77c01000000000000000000000000000000000000000000000000000000000262000428640100000000026401000000009004565b620001566380ac58cd7c01000000000000000000000000000000000000000000000000000000000262000428640100000000026401000000009004565b62000193634f558e797c01000000000000000000000000000000000000000000000000000000000262000428640100000000026401000000009004565b8160059080519060200190620001ab92919062000b41565b508060069080519060200190620001c492919062000b41565b506200020263780e9d637c01000000000000000000000000000000000000000000000000000000000262000428640100000000026401000000009004565b6200023f635b5e139f7c01000000000000000000000000000000000000000000000000000000000262000428640100000000026401000000009004565b505033600c60006101000a81548173ffffffffffffffffffffffffffffffffffffffff021916908373ffffffffffffffffffffffffffffffffffffffff1602179055506200029c33620004e6640100000000026401000000009004565b6200035f600173b189f76323678e094d4996d182a792e52369c0056040805190810160405280601e81526020017f456c656374726f6e69632046726f6e7469657220466f756e646174696f6e0000815250606060405190810160405280603981526020017f68747470733a2f2f7777772e6566662e6f72672f70616765732f65746865726581526020017f756d2d616e642d6c697465636f696e2d646f6e6174696f6e730000000000000081525062000596640100000000026401000000009004565b62000422600273998f25be40241ca5d8f5fcaf3591b5ed06ef3be76040805190810160405280601f81526020017f46726565646f6d206f662074686520507265737320466f756e646174696f6e00815250606060405190810160405280602c81526020017f68747470733a2f2f66726565646f6d2e70726573732f646f6e6174652f63727981526020017f70746f63757272656e63792f000000000000000000000000000000000000000081525062000596640100000000026401000000009004565b62000c77565b63ffffffff7c010000000000000000000000000000000000000000000000000000000002817bffffffffffffffffffffffffffffffffffffffffffffffffffffffff1916141515156200047a57600080fd5b6001600080837bffffffffffffffffffffffffffffffffffffffffffffffffffffffff19167bffffffffffffffffffffffffffffffffffffffffffffffffffffffff1916815260200190815260200160002060006101000a81548160ff02191690831515021790555050565b600c60009054906101000a900473ffffffffffffffffffffffffffffffffffffffff1673ffffffffffffffffffffffffffffffffffffffff163373ffffffffffffffffffffffffffffffffffffffff161415156200054357600080fd5b62000593816040805190810160405280600981526020017f77686974656c697374000000000000000000000000000000000000000000000081525062000883640100000000026401000000009004565b50565b33620005e7816040805190810160405280600981526020017f77686974656c6973740000000000000000000000000000000000000000000000815250620009cc640100000000026401000000009004565b600073ffffffffffffffffffffffffffffffffffffffff168473ffffffffffffffffffffffffffffffffffffffff16141515156200068d576040517f08c379a000000000000000000000000000000000000000000000000000000000815260040180806020018281038252600f8152602001807f496e76616c69642061646472657373000000000000000000000000000000000081525060200191505060405180910390fd5b600083511415151562000708576040517f08c379a000000000000000000000000000000000000000000000000000000000815260040180806020018281038252600c8152602001807f496e76616c6964206e616d65000000000000000000000000000000000000000081525060200191505060405180910390fd5b600082511415151562000783576040517f08c379a000000000000000000000000000000000000000000000000000000000815260040180806020018281038252600c8152602001807f496e76616c6964206e616d65000000000000000000000000000000000000000081525060200191505060405180910390fd5b6060604051908101604052808573ffffffffffffffffffffffffffffffffffffffff168152602001848152602001838152506011600087815260200190815260200160002060008201518160000160006101000a81548173ffffffffffffffffffffffffffffffffffffffff021916908373ffffffffffffffffffffffffffffffffffffffff16021790555060208201518160010190805190602001906200082d92919062000bc8565b5060408201518160020190805190602001906200084c92919062000bc8565b5090505060128590806001815401808255809150509060018203906000526020600020016000909192909190915055505050505050565b6200091282600d836040518082805190602001908083835b602083101515620008c257805182526020820191506020810190506020830392506200089b565b6001836020036101000a038019825116818451168082178552505050505050905001915050908152602001604051809103902062000a5f640100000000026200478e179091906401000000009004565b8173ffffffffffffffffffffffffffffffffffffffff167fbfec83d64eaa953f2708271a023ab9ee82057f8f3578d548c1a4ba0b5b700489826040518080602001828103825283818151815260200191508051906020019080838360005b838110156200098d57808201518184015260208101905062000970565b50505050905090810190601f168015620009bb5780820380516001836020036101000a031916815260200191505b509250505060405180910390a25050565b62000a5b82600d836040518082805190602001908083835b60208310151562000a0b5780518252602082019150602081019050602083039250620009e4565b6001836020036101000a038019825116818451168082178552505050505050905001915050908152602001604051809103902062000abd640100000000026200383c179091906401000000009004565b5050565b60018260000160008373ffffffffffffffffffffffffffffffffffffffff1673ffffffffffffffffffffffffffffffffffffffff16815260200190815260200160002060006101000a81548160ff0219169083151502179055505050565b62000ad8828262000ae8640100000000026401000000009004565b151562000ae457600080fd5b5050565b60008260000160008373ffffffffffffffffffffffffffffffffffffffff1673ffffffffffffffffffffffffffffffffffffffff16815260200190815260200160002060009054906101000a900460ff16905092915050565b828054600181600116156101000203166002900490600052602060002090601f016020900481019282601f1062000b8457805160ff191683800117855562000bb5565b8280016001018555821562000bb5579182015b8281111562000bb457825182559160200191906001019062000b97565b5b50905062000bc4919062000c4f565b5090565b828054600181600116156101000203166002900490600052602060002090601f016020900481019282601f1062000c0b57805160ff191683800117855562000c3c565b8280016001018555821562000c3c579182015b8281111562000c3b57825182559160200191906001019062000c1e565b5b50905062000c4b919062000c4f565b5090565b62000c7491905b8082111562000c7057600081600090555060010162000c56565b5090565b90565b614fb28062000c876000396000f300608060405260043610610230576000357c0100000000000000000000000000000000000000000000000000000000900463ffffffff16806301ffc9a71461023557806303cfe12d1461029957806306fdde0314610305578063081812fc14610395578063095ea7b3146104025780630988ca8c1461044f5780630d80fefd146104d8578063128ee1611461057e57806318160ddd146106c357806318b919e9146106ee57806319fa8f501461077e578063217fe6c6146107e757806323b872dd1461088857806324953eaa146108f5578063286dd3f51461095b5780632f745c591461099e5780633b3a1a7a146109ff57806342842e0e14610a2a57806342966c6814610a97578063473b0d4614610ac45780634e99b80014610af15780634f558e7914610b815780634f6ccce714610bc65780635468bc2f14610c075780635a3f267214610cad5780635f75d62d14610d455780636352211e14610dc457806370a0823114610e31578063715018a614610e885780637b9417c814610e9f5780638074dc5914610ee25780638da5cb5b14610fd05780638dc10768146110275780638ef79e91146110d857806395d89b41146111135780639b19251a146111a3578063a22cb465146111fe578063aaffadf31461124d578063b88d4fde14611278578063bdbf3a2c1461132b578063c87b56dd14611404578063e2ec6ec3146114aa578063e60a955d14611510578063e985e9c514611549578063f2fde38b146115c4578063f7ad51ce14611607575b600080fd5b34801561024157600080fd5b5061027f60048036038101908080357bffffffffffffffffffffffffffffffffffffffffffffffffffffffff19169060200190929190505050611673565b604051808215151515815260200191505060405180910390f35b3480156102a557600080fd5b506102ae6116da565b6040518080602001828103825283818151815260200191508051906020019060200280838360005b838110156102f15780820151818401526020810190506102d6565b505050509050019250505060405180910390f35b34801561031157600080fd5b5061031a611732565b6040518080602001828103825283818151815260200191508051906020019080838360005b8381101561035a57808201518184015260208101905061033f565b50505050905090810190601f1680156103875780820380516001836020036101000a031916815260200191505b509250505060405180910390f35b3480156103a157600080fd5b506103c0600480360381019080803590602001909291905050506117d4565b604051808273ffffffffffffffffffffffffffffffffffffffff1673ffffffffffffffffffffffffffffffffffffffff16815260200191505060405180910390f35b34801561040e57600080fd5b5061044d600480360381019080803573ffffffffffffffffffffffffffffffffffffffff16906020019092919080359060200190929190505050611811565b005b34801561045b57600080fd5b506104d6600480360381019080803573ffffffffffffffffffffffffffffffffffffffff169060200190929190803590602001908201803590602001908080601f0160208091040260200160405190810160405280939291908181526020018383808284378201915050505050509192919290505050611956565b005b3480156104e457600080fd5b50610503600480360381019080803590602001909291905050506119d7565b6040518080602001828103825283818151815260200191508051906020019080838360005b83811015610543578082015181840152602081019050610528565b50505050905090810190601f1680156105705780820380516001836020036101000a031916815260200191505b509250505060405180910390f35b34801561058a57600080fd5b506105a960048036038101908080359060200190929190505050611a87565b604051808473ffffffffffffffffffffffffffffffffffffffff1673ffffffffffffffffffffffffffffffffffffffff1681526020018060200180602001838103835285818151815260200191508051906020019080838360005b8381101561061f578082015181840152602081019050610604565b50505050905090810190601f16801561064c5780820380516001836020036101000a031916815260200191505b50838103825284818151815260200191508051906020019080838360005b8381101561068557808201518184015260208101905061066a565b50505050905090810190601f1680156106b25780820380516001836020036101000a031916815260200191505b509550505050505060405180910390f35b3480156106cf57600080fd5b506106d8611c01565b6040518082815260200191505060405180910390f35b3480156106fa57600080fd5b50610703611c0e565b6040518080602001828103825283818151815260200191508051906020019080838360005b83811015610743578082015181840152602081019050610728565b50505050905090810190601f1680156107705780820380516001836020036101000a031916815260200191505b509250505060405180910390f35b34801561078a57600080fd5b50610793611c47565b60405180827bffffffffffffffffffffffffffffffffffffffffffffffffffffffff19167bffffffffffffffffffffffffffffffffffffffffffffffffffffffff1916815260200191505060405180910390f35b3480156107f357600080fd5b5061086e600480360381019080803573ffffffffffffffffffffffffffffffffffffffff169060200190929190803590602001908201803590602001908080601f0160208091040260200160405190810160405280939291908181526020018383808284378201915050505050509192919290505050611c6e565b604051808215151515815260200191505060405180910390f35b34801561089457600080fd5b506108f3600480360381019080803573ffffffffffffffffffffffffffffffffffffffff169060200190929190803573ffffffffffffffffffffffffffffffffffffffff16906020019092919080359060200190929190505050611cf5565b005b34801561090157600080fd5b5061095960048036038101908080359060200190820180359060200190808060200260200160405190810160405280939291908181526020018383602002808284378201915050505050509192919290505050611e00565b005b34801561096757600080fd5b5061099c600480360381019080803573ffffffffffffffffffffffffffffffffffffffff169060200190929190505050611e9d565b005b3480156109aa57600080fd5b506109e9600480360381019080803573ffffffffffffffffffffffffffffffffffffffff16906020019092919080359060200190929190505050611f3b565b6040518082815260200191505060405180910390f35b348015610a0b57600080fd5b50610a14611fb2565b6040518082815260200191505060405180910390f35b348015610a3657600080fd5b50610a95600480360381019080803573ffffffffffffffffffffffffffffffffffffffff169060200190929190803573ffffffffffffffffffffffffffffffffffffffff16906020019092919080359060200190929190505050611fb8565b005b348015610aa357600080fd5b50610ac260048036038101908080359060200190929190505050611fd9565b005b348015610ad057600080fd5b50610aef6004803603810190808035906020019092919050505061209f565b005b348015610afd57600080fd5b50610b06612162565b6040518080602001828103825283818151815260200191508051906020019080838360005b83811015610b46578082015181840152602081019050610b2b565b50505050905090810190601f168015610b735780820380516001836020036101000a031916815260200191505b509250505060405180910390f35b348015610b8d57600080fd5b50610bac60048036038101908080359060200190929190505050612200565b604051808215151515815260200191505060405180910390f35b348015610bd257600080fd5b50610bf160048036038101908080359060200190929190505050612272565b6040518082815260200191505060405180910390f35b348015610c1357600080fd5b50610c32600480360381019080803590602001909291905050506122aa565b6040518080602001828103825283818151815260200191508051906020019080838360005b83811015610c72578082015181840152602081019050610c57565b50505050905090810190601f168015610c9f5780820380516001836020036101000a031916815260200191505b509250505060405180910390f35b348015610cb957600080fd5b50610cee600480360381019080803573ffffffffffffffffffffffffffffffffffffffff16906020019092919050505061235a565b6040518080602001828103825283818151815260200191508051906020019060200280838360005b83811015610d31578082015181840152602081019050610d16565b505050509050019250505060405180910390f35b348015610d5157600080fd5b50610dc260048036038101908080359060200190929190803590602001908201803590602001908080601f01602080910402602001604051908101604052809392919081815260200183838082843782019150505050505091929192908035151590602001909291905050506123f1565b005b348015610dd057600080fd5b50610def60048036038101908080359060200190929190505050612547565b604051808273ffffffffffffffffffffffffffffffffffffffff1673ffffffffffffffffffffffffffffffffffffffff16815260200191505060405180910390f35b348015610e3d57600080fd5b50610e72600480360381019080803573ffffffffffffffffffffffffffffffffffffffff1690602001909291905050506125c5565b6040518082815260200191505060405180910390f35b348015610e9457600080fd5b50610e9d612649565b005b348015610eab57600080fd5b50610ee0600480360381019080803573ffffffffffffffffffffffffffffffffffffffff16906020019092919050505061274e565b005b610fb6600480360381019080803573ffffffffffffffffffffffffffffffffffffffff1690602001909291908035906020019092919080359060200190929190803590602001908201803590602001908080601f0160208091040260200160405190810160405280939291908181526020018383808284378201915050505050509192919290803590602001908201803590602001908080601f01602080910402602001604051908101604052809392919081815260200183838082843782019150505050505091929192905050506127ec565b604051808215151515815260200191505060405180910390f35b348015610fdc57600080fd5b50610fe5612cde565b604051808273ffffffffffffffffffffffffffffffffffffffff1673ffffffffffffffffffffffffffffffffffffffff16815260200191505060405180910390f35b34801561103357600080fd5b5061105260048036038101908080359060200190929190505050612d04565b604051808060200183151515158152602001828103825284818151815260200191508051906020019080838360005b8381101561109c578082015181840152602081019050611081565b50505050905090810190601f1680156110c95780820380516001836020036101000a031916815260200191505b50935050505060405180910390f35b3480156110e457600080fd5b50611111600480360381019080803590602001908201803590602001919091929391929390505050612dcd565b005b34801561111f57600080fd5b50611128612ea0565b6040518080602001828103825283818151815260200191508051906020019080838360005b8381101561116857808201518184015260208101905061114d565b50505050905090810190601f1680156111955780820380516001836020036101000a031916815260200191505b509250505060405180910390f35b3480156111af57600080fd5b506111e4600480360381019080803573ffffffffffffffffffffffffffffffffffffffff169060200190929190505050612f42565b604051808215151515815260200191505060405180910390f35b34801561120a57600080fd5b5061124b600480360381019080803573ffffffffffffffffffffffffffffffffffffffff169060200190929190803515159060200190929190505050612f8a565b005b34801561125957600080fd5b506112626130c6565b6040518082815260200191505060405180910390f35b34801561128457600080fd5b50611329600480360381019080803573ffffffffffffffffffffffffffffffffffffffff169060200190929190803573ffffffffffffffffffffffffffffffffffffffff16906020019092919080359060200190929190803590602001908201803590602001908080601f01602080910402602001604051908101604052809392919081815260200183838082843782019150505050505091929192905050506130cc565b005b34801561133757600080fd5b5061140260048036038101908080359060200190929190803573ffffffffffffffffffffffffffffffffffffffff169060200190929190803590602001908201803590602001908080601f0160208091040260200160405190810160405280939291908181526020018383808284378201915050505050509192919290803590602001908201803590602001908080601f01602080910402602001604051908101604052809392919081815260200183838082843782019150505050505091929192905050506130f4565b005b34801561141057600080fd5b5061142f600480360381019080803590602001909291905050506133c9565b6040518080602001828103825283818151815260200191508051906020019080838360005b8381101561146f578082015181840152602081019050611454565b50505050905090810190601f16801561149c5780820380516001836020036101000a031916815260200191505b509250505060405180910390f35b3480156114b657600080fd5b5061150e60048036038101908080359060200190820180359060200190808060200260200160405190810160405280939291908181526020018383602002808284378201915050505050509192919290505050613535565b005b34801561151c57600080fd5b50611547600480360381019080803590602001909291908035151590602001909291905050506135d2565b005b34801561155557600080fd5b506115aa600480360381019080803573ffffffffffffffffffffffffffffffffffffffff169060200190929190803573ffffffffffffffffffffffffffffffffffffffff1690602001909291905050506136e8565b604051808215151515815260200191505060405180910390f35b3480156115d057600080fd5b50611605600480360381019080803573ffffffffffffffffffffffffffffffffffffffff16906020019092919050505061377c565b005b34801561161357600080fd5b5061161c6137e4565b6040518080602001828103825283818151815260200191508051906020019060200280838360005b8381101561165f578082015181840152602081019050611644565b505050509050019250505060405180910390f35b6000806000837bffffffffffffffffffffffffffffffffffffffffffffffffffffffff19167bffffffffffffffffffffffffffffffffffffffffffffffffffffffff1916815260200190815260200160002060009054906101000a900460ff169050919050565b6060601280548060200260200160405190810160405280929190818152602001828054801561172857602002820191906000526020600020905b815481526020019060010190808311611714575b5050505050905090565b606060058054600181600116156101000203166002900480601f0160208091040260200160405190810160405280929190818152602001828054600181600116156101000203166002900480156117ca5780601f1061179f576101008083540402835291602001916117ca565b820191906000526020600020905b8154815290600101906020018083116117ad57829003601f168201915b5050505050905090565b60006002600083815260200190815260200160002060009054906101000a900473ffffffffffffffffffffffffffffffffffffffff169050919050565b600061181c82612547565b90508073ffffffffffffffffffffffffffffffffffffffff168373ffffffffffffffffffffffffffffffffffffffff161415151561185957600080fd5b8073ffffffffffffffffffffffffffffffffffffffff163373ffffffffffffffffffffffffffffffffffffffff161480611899575061189881336136e8565b5b15156118a457600080fd5b826002600084815260200190815260200160002060006101000a81548173ffffffffffffffffffffffffffffffffffffffff021916908373ffffffffffffffffffffffffffffffffffffffff160217905550818373ffffffffffffffffffffffffffffffffffffffff168273ffffffffffffffffffffffffffffffffffffffff167f8c5be1e5ebec7d5bd14f71427d1e84f3dd0314c0f7b2291e5b200ac8c7c3b92560405160405180910390a4505050565b6119d382600d836040518082805190602001908083835b602083101515611992578051825260208201915060208101905060208303925061196d565b6001836020036101000a038019825116818451168082178552505050505050905001915050908152602001604051809103902061383c90919063ffffffff16565b5050565b60156020528060005260406000206000915090508054600181600116156101000203166002900480601f016020809104026020016040519081016040528092919081815260200182805460018160011615610100020316600290048015611a7f5780601f10611a5457610100808354040283529160200191611a7f565b820191906000526020600020905b815481529060010190602001808311611a6257829003601f168201915b505050505081565b60116020528060005260406000206000915090508060000160009054906101000a900473ffffffffffffffffffffffffffffffffffffffff1690806001018054600181600116156101000203166002900480601f016020809104026020016040519081016040528092919081815260200182805460018160011615610100020316600290048015611b595780601f10611b2e57610100808354040283529160200191611b59565b820191906000526020600020905b815481529060010190602001808311611b3c57829003601f168201915b505050505090806002018054600181600116156101000203166002900480601f016020809104026020016040519081016040528092919081815260200182805460018160011615610100020316600290048015611bf75780601f10611bcc57610100808354040283529160200191611bf7565b820191906000526020600020905b815481529060010190602001808311611bda57829003601f168201915b5050505050905083565b6000600980549050905090565b6040805190810160405280600981526020017f77686974656c697374000000000000000000000000000000000000000000000081525081565b6301ffc9a77c01000000000000000000000000000000000000000000000000000000000281565b6000611ced83600d846040518082805190602001908083835b602083101515611cac5780518252602082019150602081019050602083039250611c87565b6001836020036101000a038019825116818451168082178552505050505050905001915050908152602001604051809103902061385590919063ffffffff16565b905092915050565b611cff33826138ae565b1515611d0a57600080fd5b600073ffffffffffffffffffffffffffffffffffffffff168373ffffffffffffffffffffffffffffffffffffffff1614151515611d4657600080fd5b600073ffffffffffffffffffffffffffffffffffffffff168273ffffffffffffffffffffffffffffffffffffffff1614151515611d8257600080fd5b611d8c8382613943565b611d968382613a46565b611da08282613c02565b808273ffffffffffffffffffffffffffffffffffffffff168473ffffffffffffffffffffffffffffffffffffffff167fddf252ad1be2c89b69c2b068fc378daa952ba7f163c4a11628f55a4df523b3ef60405160405180910390a4505050565b6000600c60009054906101000a900473ffffffffffffffffffffffffffffffffffffffff1673ffffffffffffffffffffffffffffffffffffffff163373ffffffffffffffffffffffffffffffffffffffff16141515611e5e57600080fd5b600090505b8151811015611e9957611e8c8282815181101515611e7d57fe5b90602001906020020151611e9d565b8080600101915050611e63565b5050565b600c60009054906101000a900473ffffffffffffffffffffffffffffffffffffffff1673ffffffffffffffffffffffffffffffffffffffff163373ffffffffffffffffffffffffffffffffffffffff16141515611ef957600080fd5b611f38816040805190810160405280600981526020017f77686974656c6973740000000000000000000000000000000000000000000000815250613cd9565b50565b6000611f46836125c5565b82101515611f5357600080fd5b600760008473ffffffffffffffffffffffffffffffffffffffff1673ffffffffffffffffffffffffffffffffffffffff16815260200190815260200160002082815481101515611f9f57fe5b9060005260206000200154905092915050565b600f5481565b611fd483838360206040519081016040528060008152506130cc565b505050565b33612019816040805190810160405280600981526020017f77686974656c6973740000000000000000000000000000000000000000000000815250611956565b6020604051908101604052806000815250601560008481526020019081526020016000209080519060200190612050929190614d6d565b506020604051908101604052806000815250601660008481526020019081526020016000209080519060200190612088929190614d6d565b5061209b61209583612547565b83613e0d565b5050565b336120df816040805190810160405280600981526020017f77686974656c6973740000000000000000000000000000000000000000000000815250611956565b600082111515612157576040517f08c379a000000000000000000000000000000000000000000000000000000000815260040180806020018281038252601c8152602001807f496e76616c6964206d696e696d756d20636f6e747269627574696f6e0000000081525060200191505060405180910390fd5b816010819055505050565b600e8054600181600116156101000203166002900480601f0160208091040260200160405190810160405280929190818152602001828054600181600116156101000203166002900480156121f85780601f106121cd576101008083540402835291602001916121f8565b820191906000526020600020905b8154815290600101906020018083116121db57829003601f168201915b505050505081565b6000806001600084815260200190815260200160002060009054906101000a900473ffffffffffffffffffffffffffffffffffffffff169050600073ffffffffffffffffffffffffffffffffffffffff168173ffffffffffffffffffffffffffffffffffffffff161415915050919050565b600061227c611c01565b8210151561228957600080fd5b60098281548110151561229857fe5b90600052602060002001549050919050565b60166020528060005260406000206000915090508054600181600116156101000203166002900480601f0160208091040260200160405190810160405280929190818152602001828054600181600116156101000203166002900480156123525780601f1061232757610100808354040283529160200191612352565b820191906000526020600020905b81548152906001019060200180831161233557829003601f168201915b505050505081565b6060600760008373ffffffffffffffffffffffffffffffffffffffff1673ffffffffffffffffffffffffffffffffffffffff1681526020019081526020016000208054806020026020016040519081016040528092919081815260200182805480156123e557602002820191906000526020600020905b8154815260200190600101908083116123d1575b50505050509050919050565b33612431816040805190810160405280600981526020017f77686974656c6973740000000000000000000000000000000000000000000000815250611956565b60008351141515156124ab576040517f08c379a00000000000000000000000000000000000000000000000000000000081526004018080602001828103825260118152602001807f496e76616c696420746f6b656e2055524900000000000000000000000000000081525060200191505060405180910390fd5b60408051908101604052808481526020018315158152506013600086815260200190815260200160002060008201518160000190805190602001906124f1929190614ded565b5060208201518160010160006101000a81548160ff021916908315150217905550905050601484908060018154018082558091505090600182039060005260206000200160009091929091909150555050505050565b6000806001600084815260200190815260200160002060009054906101000a900473ffffffffffffffffffffffffffffffffffffffff169050600073ffffffffffffffffffffffffffffffffffffffff168173ffffffffffffffffffffffffffffffffffffffff16141515156125bc57600080fd5b80915050919050565b60008073ffffffffffffffffffffffffffffffffffffffff168273ffffffffffffffffffffffffffffffffffffffff161415151561260257600080fd5b600360008373ffffffffffffffffffffffffffffffffffffffff1673ffffffffffffffffffffffffffffffffffffffff168152602001908152602001600020549050919050565b600c60009054906101000a900473ffffffffffffffffffffffffffffffffffffffff1673ffffffffffffffffffffffffffffffffffffffff163373ffffffffffffffffffffffffffffffffffffffff161415156126a557600080fd5b600c60009054906101000a900473ffffffffffffffffffffffffffffffffffffffff1673ffffffffffffffffffffffffffffffffffffffff167ff8df31144d9c2f0f6b59d69b8b98abd5459d07f2742c4df920b25aae33c6482060405160405180910390a26000600c60006101000a81548173ffffffffffffffffffffffffffffffffffffffff021916908373ffffffffffffffffffffffffffffffffffffffff160217905550565b600c60009054906101000a900473ffffffffffffffffffffffffffffffffffffffff1673ffffffffffffffffffffffffffffffffffffffff163373ffffffffffffffffffffffffffffffffffffffff161415156127aa57600080fd5b6127e9816040805190810160405280600981526020017f77686974656c6973740000000000000000000000000000000000000000000000815250613f45565b50565b60008073ffffffffffffffffffffffffffffffffffffffff168673ffffffffffffffffffffffffffffffffffffffff1614151515612892576040517f08c379a00000000000000000000000000000000000000000000000000000000081526004018080602001828103825260178152602001807f4d75737420626520612076616c6964206164647265737300000000000000000081525060200191505060405180910390fd5b600073ffffffffffffffffffffffffffffffffffffffff166011600087815260200190815260200160002060000160009054906101000a900473ffffffffffffffffffffffffffffffffffffffff1673ffffffffffffffffffffffffffffffffffffffff161415151561296d576040517f08c379a00000000000000000000000000000000000000000000000000000000081526004018080602001828103825260208152602001807f4d7573742073706563696679206578697374696e672062656e65666163746f7281525060200191505060405180910390fd5b60006013600086815260200190815260200160002060000180546001816001161561010002031660029004905014151515612a10576040517f08c379a000000000000000000000000000000000000000000000000000000000815260040180806020018281038252601a8152602001807f4d7573742073706563696679206578697374696e67206361726400000000000081525060200191505060405180910390fd5b6013600085815260200190815260200160002060010160009054906101000a900460ff161515612aa8576040517f08c379a00000000000000000000000000000000000000000000000000000000081526004018080602001828103825260168152602001807f4d75737420626520616e2061637469766520636172640000000000000000000081525060200191505060405180910390fd5b6010543410151515612b48576040517f08c379a00000000000000000000000000000000000000000000000000000000081526004018080602001828103825260258152602001807f4d7573742073656e64206174206c6561737420746865206d696e696d756d206181526020017f6d6f756e7400000000000000000000000000000000000000000000000000000081525060400191505060405180910390fd5b8260156000600f5481526020019081526020016000209080519060200190612b71929190614d6d565b508160166000600f5481526020019081526020016000209080519060200190612b9b929190614d6d565b50612c5486601360008781526020019081526020016000206000018054600181600116156101000203166002900480601f016020809104026020016040519081016040528092919081815260200182805460018160011615610100020316600290048015612c4a5780601f10612c1f57610100808354040283529160200191612c4a565b820191906000526020600020905b815481529060010190602001808311612c2d57829003601f168201915b5050505050614079565b6011600086815260200190815260200160002060000160009054906101000a900473ffffffffffffffffffffffffffffffffffffffff1673ffffffffffffffffffffffffffffffffffffffff166108fc349081150290604051600060405180830381858888f19350505050158015612cd0573d6000803e3d6000fd5b506001905095945050505050565b600c60009054906101000a900473ffffffffffffffffffffffffffffffffffffffff1681565b6013602052806000526040600020600091509050806000018054600181600116156101000203166002900480601f016020809104026020016040519081016040528092919081815260200182805460018160011615610100020316600290048015612db05780601f10612d8557610100808354040283529160200191612db0565b820191906000526020600020905b815481529060010190602001808311612d9357829003601f168201915b5050505050908060010160009054906101000a900460ff16905082565b33612e0d816040805190810160405280600981526020017f77686974656c6973740000000000000000000000000000000000000000000000815250611956565b60008383905014151515612e89576040517f08c379a00000000000000000000000000000000000000000000000000000000081526004018080602001828103825260108152602001807f426173652055524920696e76616c69640000000000000000000000000000000081525060200191505060405180910390fd5b8282600e9190612e9a929190614e6d565b50505050565b606060068054600181600116156101000203166002900480601f016020809104026020016040519081016040528092919081815260200182805460018160011615610100020316600290048015612f385780601f10612f0d57610100808354040283529160200191612f38565b820191906000526020600020905b815481529060010190602001808311612f1b57829003601f168201915b5050505050905090565b6000612f83826040805190810160405280600981526020017f77686974656c6973740000000000000000000000000000000000000000000000815250611c6e565b9050919050565b3373ffffffffffffffffffffffffffffffffffffffff168273ffffffffffffffffffffffffffffffffffffffff1614151515612fc557600080fd5b80600460003373ffffffffffffffffffffffffffffffffffffffff1673ffffffffffffffffffffffffffffffffffffffff16815260200190815260200160002060008473ffffffffffffffffffffffffffffffffffffffff1673ffffffffffffffffffffffffffffffffffffffff16815260200190815260200160002060006101000a81548160ff0219169083151502179055508173ffffffffffffffffffffffffffffffffffffffff163373ffffffffffffffffffffffffffffffffffffffff167f17307eab39ab6107e8899845ad3d59bd9653f200f220920489ca2b5937696c3183604051808215151515815260200191505060405180910390a35050565b60105481565b6130d7848484611cf5565b6130e3848484846140b5565b15156130ee57600080fd5b50505050565b33613134816040805190810160405280600981526020017f77686974656c6973740000000000000000000000000000000000000000000000815250611956565b600073ffffffffffffffffffffffffffffffffffffffff168473ffffffffffffffffffffffffffffffffffffffff16141515156131d9576040517f08c379a000000000000000000000000000000000000000000000000000000000815260040180806020018281038252600f8152602001807f496e76616c69642061646472657373000000000000000000000000000000000081525060200191505060405180910390fd5b6000835114151515613253576040517f08c379a000000000000000000000000000000000000000000000000000000000815260040180806020018281038252600c8152602001807f496e76616c6964206e616d65000000000000000000000000000000000000000081525060200191505060405180910390fd5b60008251141515156132cd576040517f08c379a000000000000000000000000000000000000000000000000000000000815260040180806020018281038252600c8152602001807f496e76616c6964206e616d65000000000000000000000000000000000000000081525060200191505060405180910390fd5b6060604051908101604052808573ffffffffffffffffffffffffffffffffffffffff168152602001848152602001838152506011600087815260200190815260200160002060008201518160000160006101000a81548173ffffffffffffffffffffffffffffffffffffffff021916908373ffffffffffffffffffffffffffffffffffffffff1602179055506020820151816001019080519060200190613375929190614ded565b506040820151816002019080519060200190613392929190614ded565b5090505060128590806001815401808255809150509060018203906000526020600020016000909192909190915055505050505050565b60606133d482612200565b15156133df57600080fd5b61352e600e8054600181600116156101000203166002900480601f0160208091040260200160405190810160405280929190818152602001828054600181600116156101000203166002900480156134785780601f1061344d57610100808354040283529160200191613478565b820191906000526020600020905b81548152906001019060200180831161345b57829003601f168201915b5050505050600b60008581526020019081526020016000208054600181600116156101000203166002900480601f0160208091040260200160405190810160405280929190818152602001828054600181600116156101000203166002900480156135245780601f106134f957610100808354040283529160200191613524565b820191906000526020600020905b81548152906001019060200180831161350757829003601f168201915b50505050506142d7565b9050919050565b6000600c60009054906101000a900473ffffffffffffffffffffffffffffffffffffffff1673ffffffffffffffffffffffffffffffffffffffff163373ffffffffffffffffffffffffffffffffffffffff1614151561359357600080fd5b600090505b81518110156135ce576135c182828151811015156135b257fe5b9060200190602002015161274e565b8080600101915050613598565b5050565b33613612816040805190810160405280600981526020017f77686974656c6973740000000000000000000000000000000000000000000000815250611956565b600060136000858152602001908152602001600020600001805460018160011615610100020316600290049050141515156136b5576040517f08c379a000000000000000000000000000000000000000000000000000000000815260040180806020018281038252601a8152602001807f4d7573742073706563696679206578697374696e67206361726400000000000081525060200191505060405180910390fd5b816013600085815260200190815260200160002060010160006101000a81548160ff021916908315150217905550505050565b6000600460008473ffffffffffffffffffffffffffffffffffffffff1673ffffffffffffffffffffffffffffffffffffffff16815260200190815260200160002060008373ffffffffffffffffffffffffffffffffffffffff1673ffffffffffffffffffffffffffffffffffffffff16815260200190815260200160002060009054906101000a900460ff16905092915050565b600c60009054906101000a900473ffffffffffffffffffffffffffffffffffffffff1673ffffffffffffffffffffffffffffffffffffffff163373ffffffffffffffffffffffffffffffffffffffff161415156137d857600080fd5b6137e18161431e565b50565b6060601480548060200260200160405190810160405280929190818152602001828054801561383257602002820191906000526020600020905b81548152602001906001019080831161381e575b5050505050905090565b6138468282613855565b151561385157600080fd5b5050565b60008260000160008373ffffffffffffffffffffffffffffffffffffffff1673ffffffffffffffffffffffffffffffffffffffff16815260200190815260200160002060009054906101000a900460ff16905092915050565b6000806138ba83612547565b90508073ffffffffffffffffffffffffffffffffffffffff168473ffffffffffffffffffffffffffffffffffffffff16148061392957508373ffffffffffffffffffffffffffffffffffffffff16613911846117d4565b73ffffffffffffffffffffffffffffffffffffffff16145b8061393a575061393981856136e8565b5b91505092915050565b8173ffffffffffffffffffffffffffffffffffffffff1661396382612547565b73ffffffffffffffffffffffffffffffffffffffff1614151561398557600080fd5b600073ffffffffffffffffffffffffffffffffffffffff166002600083815260200190815260200160002060009054906101000a900473ffffffffffffffffffffffffffffffffffffffff1673ffffffffffffffffffffffffffffffffffffffff16141515613a425760006002600083815260200190815260200160002060006101000a81548173ffffffffffffffffffffffffffffffffffffffff021916908373ffffffffffffffffffffffffffffffffffffffff1602179055505b5050565b6000806000613a55858561441a565b60086000858152602001908152602001600020549250613ac16001600760008873ffffffffffffffffffffffffffffffffffffffff1673ffffffffffffffffffffffffffffffffffffffff1681526020019081526020016000208054905061454990919063ffffffff16565b9150600760008673ffffffffffffffffffffffffffffffffffffffff1673ffffffffffffffffffffffffffffffffffffffff16815260200190815260200160002082815481101515613b0f57fe5b9060005260206000200154905080600760008773ffffffffffffffffffffffffffffffffffffffff1673ffffffffffffffffffffffffffffffffffffffff16815260200190815260200160002084815481101515613b6957fe5b9060005260206000200181905550600760008673ffffffffffffffffffffffffffffffffffffffff1673ffffffffffffffffffffffffffffffffffffffff168152602001908152602001600020805480919060019003613bc99190614eed565b50600060086000868152602001908152602001600020819055508260086000838152602001908152602001600020819055505050505050565b6000613c0e8383614562565b600760008473ffffffffffffffffffffffffffffffffffffffff1673ffffffffffffffffffffffffffffffffffffffff168152602001908152602001600020805490509050600760008473ffffffffffffffffffffffffffffffffffffffff1673ffffffffffffffffffffffffffffffffffffffff168152602001908152602001600020829080600181540180825580915050906001820390600052602060002001600090919290919091505550806008600084815260200190815260200160002081905550505050565b613d5682600d836040518082805190602001908083835b602083101515613d155780518252602082019150602081019050602083039250613cf0565b6001836020036101000a03801982511681845116808217855250505050505090500191505090815260200160405180910390206146bc90919063ffffffff16565b8173ffffffffffffffffffffffffffffffffffffffff167fd211483f91fc6eff862467f8de606587a30c8fc9981056f051b897a418df803a826040518080602001828103825283818151815260200191508051906020019080838360005b83811015613dcf578082015181840152602081019050613db4565b50505050905090810190601f168015613dfc5780820380516001836020036101000a031916815260200191505b509250505060405180910390a25050565b6000806000613e1c858561471a565b6000600b6000868152602001908152602001600020805460018160011615610100020316600290049050141515613e6d57600b60008581526020019081526020016000206000613e6c9190614f19565b5b600a6000858152602001908152602001600020549250613e9c600160098054905061454990919063ffffffff16565b9150600982815481101515613ead57fe5b9060005260206000200154905080600984815481101515613eca57fe5b90600052602060002001819055506000600983815481101515613ee957fe5b90600052602060002001819055506009805480919060019003613f0c9190614eed565b506000600a60008681526020019081526020016000208190555082600a6000838152602001908152602001600020819055505050505050565b613fc282600d836040518082805190602001908083835b602083101515613f815780518252602082019150602081019050602083039250613f5c565b6001836020036101000a038019825116818451168082178552505050505050905001915050908152602001604051809103902061478e90919063ffffffff16565b8173ffffffffffffffffffffffffffffffffffffffff167fbfec83d64eaa953f2708271a023ab9ee82057f8f3578d548c1a4ba0b5b700489826040518080602001828103825283818151815260200191508051906020019080838360005b8381101561403b578082015181840152602081019050614020565b50505050905090810190601f1680156140685780820380516001836020036101000a031916815260200191505b509250505060405180910390a25050565b6000600f54905061408a83826147ec565b6140948183614843565b6140aa6001600f5461488390919063ffffffff16565b600f81905550505050565b6000806140d78573ffffffffffffffffffffffffffffffffffffffff1661489f565b15156140e657600191506142ce565b8473ffffffffffffffffffffffffffffffffffffffff1663150b7a02338887876040518563ffffffff167c0100000000000000000000000000000000000000000000000000000000028152600401808573ffffffffffffffffffffffffffffffffffffffff1673ffffffffffffffffffffffffffffffffffffffff1681526020018473ffffffffffffffffffffffffffffffffffffffff1673ffffffffffffffffffffffffffffffffffffffff16815260200183815260200180602001828103825283818151815260200191508051906020019080838360005b838110156141db5780820151818401526020810190506141c0565b50505050905090810190601f1680156142085780820380516001836020036101000a031916815260200191505b5095505050505050602060405180830381600087803b15801561422a57600080fd5b505af115801561423e573d6000803e3d6000fd5b505050506040513d602081101561425457600080fd5b8101908080519060200190929190505050905063150b7a027c0100000000000000000000000000000000000000000000000000000000027bffffffffffffffffffffffffffffffffffffffffffffffffffffffff1916817bffffffffffffffffffffffffffffffffffffffffffffffffffffffff19161491505b50949350505050565b606061431683836020604051908101604052806000815250602060405190810160405280600081525060206040519081016040528060008152506148b2565b905092915050565b600073ffffffffffffffffffffffffffffffffffffffff168173ffffffffffffffffffffffffffffffffffffffff161415151561435a57600080fd5b8073ffffffffffffffffffffffffffffffffffffffff16600c60009054906101000a900473ffffffffffffffffffffffffffffffffffffffff1673ffffffffffffffffffffffffffffffffffffffff167f8be0079c531659141344cd1fd0a4f28419497f9722a3daafe3b4186f6b6457e060405160405180910390a380600c60006101000a81548173ffffffffffffffffffffffffffffffffffffffff021916908373ffffffffffffffffffffffffffffffffffffffff16021790555050565b8173ffffffffffffffffffffffffffffffffffffffff1661443a82612547565b73ffffffffffffffffffffffffffffffffffffffff1614151561445c57600080fd5b6144af6001600360008573ffffffffffffffffffffffffffffffffffffffff1673ffffffffffffffffffffffffffffffffffffffff1681526020019081526020016000205461454990919063ffffffff16565b600360008473ffffffffffffffffffffffffffffffffffffffff1673ffffffffffffffffffffffffffffffffffffffff1681526020019081526020016000208190555060006001600083815260200190815260200160002060006101000a81548173ffffffffffffffffffffffffffffffffffffffff021916908373ffffffffffffffffffffffffffffffffffffffff1602179055505050565b600082821115151561455757fe5b818303905092915050565b600073ffffffffffffffffffffffffffffffffffffffff166001600083815260200190815260200160002060009054906101000a900473ffffffffffffffffffffffffffffffffffffffff1673ffffffffffffffffffffffffffffffffffffffff161415156145d057600080fd5b816001600083815260200190815260200160002060006101000a81548173ffffffffffffffffffffffffffffffffffffffff021916908373ffffffffffffffffffffffffffffffffffffffff1602179055506146756001600360008573ffffffffffffffffffffffffffffffffffffffff1673ffffffffffffffffffffffffffffffffffffffff1681526020019081526020016000205461488390919063ffffffff16565b600360008473ffffffffffffffffffffffffffffffffffffffff1673ffffffffffffffffffffffffffffffffffffffff168152602001908152602001600020819055505050565b60008260000160008373ffffffffffffffffffffffffffffffffffffffff1673ffffffffffffffffffffffffffffffffffffffff16815260200190815260200160002060006101000a81548160ff0219169083151502179055505050565b6147248282613943565b61472e8282613a46565b80600073ffffffffffffffffffffffffffffffffffffffff168373ffffffffffffffffffffffffffffffffffffffff167fddf252ad1be2c89b69c2b068fc378daa952ba7f163c4a11628f55a4df523b3ef60405160405180910390a45050565b60018260000160008373ffffffffffffffffffffffffffffffffffffffff1673ffffffffffffffffffffffffffffffffffffffff16815260200190815260200160002060006101000a81548160ff0219169083151502179055505050565b6147f68282614cc7565b600980549050600a60008381526020019081526020016000208190555060098190806001815401808255809150509060018203906000526020600020016000909192909190915055505050565b61484c82612200565b151561485757600080fd5b80600b6000848152602001908152602001600020908051906020019061487e929190614d6d565b505050565b6000818301905082811015151561489657fe5b80905092915050565b600080823b905060008111915050919050565b6060806060806060806060806000808e98508d97508c96508b95508a94508451865188518a518c51010101016040519080825280601f01601f1916602001820160405280156149105781602001602082028038833980820191505090505b50935083925060009150600090505b88518110156149d257888181518110151561493657fe5b9060200101517f010000000000000000000000000000000000000000000000000000000000000090047f010000000000000000000000000000000000000000000000000000000000000002838380600101945081518110151561499557fe5b9060200101907effffffffffffffffffffffffffffffffffffffffffffffffffffffffffffff1916908160001a905350808060010191505061491f565b600090505b8751811015614a8a5787818151811015156149ee57fe5b9060200101517f010000000000000000000000000000000000000000000000000000000000000090047f0100000000000000000000000000000000000000000000000000000000000000028383806001019450815181101515614a4d57fe5b9060200101907effffffffffffffffffffffffffffffffffffffffffffffffffffffffffffff1916908160001a90535080806001019150506149d7565b600090505b8651811015614b42578681815181101515614aa657fe5b9060200101517f010000000000000000000000000000000000000000000000000000000000000090047f0100000000000000000000000000000000000000000000000000000000000000028383806001019450815181101515614b0557fe5b9060200101907effffffffffffffffffffffffffffffffffffffffffffffffffffffffffffff1916908160001a9053508080600101915050614a8f565b600090505b8551811015614bfa578581815181101515614b5e57fe5b9060200101517f010000000000000000000000000000000000000000000000000000000000000090047f0100000000000000000000000000000000000000000000000000000000000000028383806001019450815181101515614bbd57fe5b9060200101907effffffffffffffffffffffffffffffffffffffffffffffffffffffffffffff1916908160001a9053508080600101915050614b47565b600090505b8451811015614cb2578481815181101515614c1657fe5b9060200101517f010000000000000000000000000000000000000000000000000000000000000090047f0100000000000000000000000000000000000000000000000000000000000000028383806001019450815181101515614c7557fe5b9060200101907effffffffffffffffffffffffffffffffffffffffffffffffffffffffffffff1916908160001a9053508080600101915050614bff565b82995050505050505050505095945050505050565b600073ffffffffffffffffffffffffffffffffffffffff168273ffffffffffffffffffffffffffffffffffffffff1614151515614d0357600080fd5b614d0d8282613c02565b808273ffffffffffffffffffffffffffffffffffffffff16600073ffffffffffffffffffffffffffffffffffffffff167fddf252ad1be2c89b69c2b068fc378daa952ba7f163c4a11628f55a4df523b3ef60405160405180910390a45050565b828054600181600116156101000203166002900490600052602060002090601f016020900481019282601f10614dae57805160ff1916838001178555614ddc565b82800160010185558215614ddc579182015b82811115614ddb578251825591602001919060010190614dc0565b5b509050614de99190614f61565b5090565b828054600181600116156101000203166002900490600052602060002090601f016020900481019282601f10614e2e57805160ff1916838001178555614e5c565b82800160010185558215614e5c579182015b82811115614e5b578251825591602001919060010190614e40565b5b509050614e699190614f61565b5090565b828054600181600116156101000203166002900490600052602060002090601f016020900481019282601f10614eae57803560ff1916838001178555614edc565b82800160010185558215614edc579182015b82811115614edb578235825591602001919060010190614ec0565b5b509050614ee99190614f61565b5090565b815481835581811115614f1457818360005260206000209182019101614f139190614f61565b5b505050565b50805460018160011615610100020316600290046000825580601f10614f3f5750614f5e565b601f016020900490600052602060002090810190614f5d9190614f61565b5b50565b614f8391905b80821115614f7f576000816000905550600101614f67565b5090565b905600a165627a7a723058207974bae96eaa7e5133298ccc631cc91d5509fa69a286a8fb8ed190292e9240e80029",
  "source": "pragma solidity ^0.4.24;\n\nimport \"openzeppelin-solidity/contracts/math/SafeMath.sol\";\nimport \"openzeppelin-solidity/contracts/access/Whitelist.sol\";\nimport \"openzeppelin-solidity/contracts/token/ERC721/ERC721Token.sol\";\n\nimport \"./Strings.sol\";\n\n/**\n* @title Radi.Cards\n*\n*\n*/\ncontract RadiCards is ERC721Token, Whitelist {\n  using SafeMath for uint256;\n\n  string public tokenBaseURI = \"https://ipfs.infura.io/ipfs/\";\n\n  uint256 public tokenIdPointer = 0;\n  uint256 public minContribution = 0.01 ether; // under $1..now\n\n  struct Benefactor {\n    address ethAddress;\n    string name;\n    string website;\n  }\n\n  struct Card {\n    string tokenURI;\n    bool active;\n  }\n\n  mapping(uint256 => Benefactor) public benefactors;\n  uint256[] internal benefactorsIndex;\n\n  mapping(uint256 => Card) public cards;\n  uint256[] internal cardsIndex;\n\n  mapping(uint256 => string) public messages;\n  mapping(uint256 => string) public extras;\n\n  constructor () public ERC721Token(\"RadiCards\", \"RADI\") {\n    addAddressToWhitelist(msg.sender);\n\n    addBenefactor(\n      1,\n      address(0xb189f76323678E094D4996d182A792E52369c005),\n      \"Electronic Frontier Foundation\",\n      \"https://www.eff.org/pages/ethereum-and-litecoin-donations\"\n    );\n\n    addBenefactor(\n      2,\n      address(0x998F25Be40241CA5D8F5fCaF3591B5ED06EF3Be7),\n      \"Freedom of the Press Foundation\",\n      \"https://freedom.press/donate/cryptocurrency/\"\n    );\n  }\n\n  function gift(address to, uint256 _benefactorIndex, uint256 _cardIndex, string _message, string _extra) payable public returns (bool) {\n    require(to != address(0), \"Must be a valid address\");\n    require(benefactors[_benefactorIndex].ethAddress != address(0), \"Must specify existing benefactor\");\n    require(bytes(cards[_cardIndex].tokenURI).length != 0, \"Must specify existing card\");\n    require(cards[_cardIndex].active, \"Must be an active card\");\n    require(msg.value >= minContribution, \"Must send at least the minimum amount\");\n\n    messages[tokenIdPointer] = _message;\n    extras[tokenIdPointer] = _extra;\n\n    _mint(to, cards[_cardIndex].tokenURI);\n\n    // transfer the ETH to the benefactor\n    benefactors[_benefactorIndex].ethAddress.transfer(msg.value);\n\n    return true;\n  }\n\n  function _mint(address to, string tokenURI) internal {\n    uint256 tokenId = tokenIdPointer;\n\n    _mint(to, tokenId);\n    _setTokenURI(tokenId, tokenURI);\n\n    tokenIdPointer = tokenIdPointer.add(1);\n  }\n\n  function burn(uint256 _tokenId) public onlyIfWhitelisted(msg.sender) {\n    // custom fields\n    messages[_tokenId] = \"\";\n    extras[_tokenId] = \"\";\n\n    // Super burn\n    _burn(ownerOf(_tokenId), _tokenId);\n  }\n\n  function tokenURI(uint256 _tokenId) public view returns (string) {\n    require(exists(_tokenId));\n\n    return Strings.strConcat(tokenBaseURI, tokenURIs[_tokenId]);\n  }\n\n  function tokensOf(address _owner) public view returns (uint256[] _tokenIds) {\n    return ownedTokens[_owner];\n  }\n\n  function benefactorsKeys() public view returns (uint256[] _keys) {\n    return benefactorsIndex;\n  }\n\n  function cardsKeys() public view returns (uint256[] _keys) {\n    return cardsIndex;\n  }\n\n  function addBenefactor(uint256 _benefactorIndex, address _ethAddress, string _name, string _website) public onlyIfWhitelisted(msg.sender) {\n    require(address(_ethAddress) != address(0), \"Invalid address\");\n    require(bytes(_name).length != 0, \"Invalid name\");\n    require(bytes(_website).length != 0, \"Invalid name\");\n\n    benefactors[_benefactorIndex] = Benefactor(\n      _ethAddress,\n      _name,\n      _website\n    );\n    benefactorsIndex.push(_benefactorIndex);\n  }\n\n  function addCard(uint256 _cardIndex, string _tokenURI, bool _active) public onlyIfWhitelisted(msg.sender) {\n    require(bytes(_tokenURI).length != 0, \"Invalid token URI\");\n\n    cards[_cardIndex] = Card(\n      _tokenURI,\n      _active\n    );\n    cardsIndex.push(_cardIndex);\n  }\n\n  function setTokenBaseURI(string _newBaseURI) external onlyIfWhitelisted(msg.sender) {\n    require(bytes(_newBaseURI).length != 0, \"Base URI invalid\");\n\n    tokenBaseURI = _newBaseURI;\n  }\n\n  function setMinContribution(uint256 _minContribution) external onlyIfWhitelisted(msg.sender) {\n    require(_minContribution > 0, \"Invalid minimum contribution\");\n\n    minContribution = _minContribution;\n  }\n\n  function setActive(uint256 _cardIndex, bool _active) external onlyIfWhitelisted(msg.sender) {\n    require(bytes(cards[_cardIndex].tokenURI).length != 0, \"Must specify existing card\");\n\n    cards[_cardIndex].active = _active;\n  }\n}\n",
  "sourcePath": "/Users/chris/Projects/radi.cards/contracts/RadiCards.sol",
  "compiler": {
    "name": "solc",
    "version": "0.4.24+commit.e67f0147.Emscripten.clang"
  },
  "schemaVersion": "2.0.1",
  "updatedAt": "2018-12-07T11:33:22.369Z"
}