{
  "contractName": "RadiCards",
  "abi": [
    {
      "constant": true,
      "inputs": [
        {
          "name": "_interfaceId",
          "type": "bytes4"
        }
      ],
      "name": "supportsInterface",
      "outputs": [
        {
          "name": "",
          "type": "bool"
        }
      ],
      "payable": false,
      "stateMutability": "view",
      "type": "function"
    },
    {
      "constant": true,
      "inputs": [],
      "name": "name",
      "outputs": [
        {
          "name": "",
          "type": "string"
        }
      ],
      "payable": false,
      "stateMutability": "view",
      "type": "function"
    },
    {
      "constant": true,
      "inputs": [
        {
          "name": "_tokenId",
          "type": "uint256"
        }
      ],
      "name": "getApproved",
      "outputs": [
        {
          "name": "",
          "type": "address"
        }
      ],
      "payable": false,
      "stateMutability": "view",
      "type": "function"
    },
    {
      "constant": false,
      "inputs": [
        {
          "name": "_to",
          "type": "address"
        },
        {
          "name": "_tokenId",
          "type": "uint256"
        }
      ],
      "name": "approve",
      "outputs": [],
      "payable": false,
      "stateMutability": "nonpayable",
      "type": "function"
    },
    {
      "constant": true,
      "inputs": [
        {
          "name": "_operator",
          "type": "address"
        },
        {
          "name": "_role",
          "type": "string"
        }
      ],
      "name": "checkRole",
      "outputs": [],
      "payable": false,
      "stateMutability": "view",
      "type": "function"
    },
    {
      "constant": true,
      "inputs": [
        {
          "name": "",
          "type": "uint256"
        }
      ],
      "name": "benefactors",
      "outputs": [
        {
          "name": "ethAddress",
          "type": "address"
        },
        {
          "name": "name",
          "type": "string"
        },
        {
          "name": "website",
          "type": "string"
        }
      ],
      "payable": false,
      "stateMutability": "view",
      "type": "function"
    },
    {
      "constant": true,
      "inputs": [],
      "name": "totalSupply",
      "outputs": [
        {
          "name": "",
          "type": "uint256"
        }
      ],
      "payable": false,
      "stateMutability": "view",
      "type": "function"
    },
    {
      "constant": true,
      "inputs": [],
      "name": "ROLE_WHITELISTED",
      "outputs": [
        {
          "name": "",
          "type": "string"
        }
      ],
      "payable": false,
      "stateMutability": "view",
      "type": "function"
    },
    {
      "constant": true,
      "inputs": [],
      "name": "InterfaceId_ERC165",
      "outputs": [
        {
          "name": "",
          "type": "bytes4"
        }
      ],
      "payable": false,
      "stateMutability": "view",
      "type": "function"
    },
    {
      "constant": true,
      "inputs": [
        {
          "name": "_operator",
          "type": "address"
        },
        {
          "name": "_role",
          "type": "string"
        }
      ],
      "name": "hasRole",
      "outputs": [
        {
          "name": "",
          "type": "bool"
        }
      ],
      "payable": false,
      "stateMutability": "view",
      "type": "function"
    },
    {
      "constant": false,
      "inputs": [
        {
          "name": "_from",
          "type": "address"
        },
        {
          "name": "_to",
          "type": "address"
        },
        {
          "name": "_tokenId",
          "type": "uint256"
        }
      ],
      "name": "transferFrom",
      "outputs": [],
      "payable": false,
      "stateMutability": "nonpayable",
      "type": "function"
    },
    {
      "constant": false,
      "inputs": [
        {
          "name": "_operators",
          "type": "address[]"
        }
      ],
      "name": "removeAddressesFromWhitelist",
      "outputs": [],
      "payable": false,
      "stateMutability": "nonpayable",
      "type": "function"
    },
    {
      "constant": false,
      "inputs": [
        {
          "name": "_operator",
          "type": "address"
        }
      ],
      "name": "removeAddressFromWhitelist",
      "outputs": [],
      "payable": false,
      "stateMutability": "nonpayable",
      "type": "function"
    },
    {
      "constant": true,
      "inputs": [
        {
          "name": "_owner",
          "type": "address"
        },
        {
          "name": "_index",
          "type": "uint256"
        }
      ],
      "name": "tokenOfOwnerByIndex",
      "outputs": [
        {
          "name": "",
          "type": "uint256"
        }
      ],
      "payable": false,
      "stateMutability": "view",
      "type": "function"
    },
    {
      "constant": true,
      "inputs": [],
      "name": "tokenIdPointer",
      "outputs": [
        {
          "name": "",
          "type": "uint256"
        }
      ],
      "payable": false,
      "stateMutability": "view",
      "type": "function"
    },
    {
      "constant": false,
      "inputs": [
        {
          "name": "_from",
          "type": "address"
        },
        {
          "name": "_to",
          "type": "address"
        },
        {
          "name": "_tokenId",
          "type": "uint256"
        }
      ],
      "name": "safeTransferFrom",
      "outputs": [],
      "payable": false,
      "stateMutability": "nonpayable",
      "type": "function"
    },
    {
      "constant": true,
      "inputs": [],
      "name": "tokenBaseURI",
      "outputs": [
        {
          "name": "",
          "type": "string"
        }
      ],
      "payable": false,
      "stateMutability": "view",
      "type": "function"
    },
    {
      "constant": true,
      "inputs": [
        {
          "name": "_tokenId",
          "type": "uint256"
        }
      ],
      "name": "exists",
      "outputs": [
        {
          "name": "",
          "type": "bool"
        }
      ],
      "payable": false,
      "stateMutability": "view",
      "type": "function"
    },
    {
      "constant": true,
      "inputs": [
        {
          "name": "_index",
          "type": "uint256"
        }
      ],
      "name": "tokenByIndex",
      "outputs": [
        {
          "name": "",
          "type": "uint256"
        }
      ],
      "payable": false,
      "stateMutability": "view",
      "type": "function"
    },
    {
      "constant": true,
      "inputs": [
        {
          "name": "_tokenId",
          "type": "uint256"
        }
      ],
      "name": "ownerOf",
      "outputs": [
        {
          "name": "",
          "type": "address"
        }
      ],
      "payable": false,
      "stateMutability": "view",
      "type": "function"
    },
    {
      "constant": true,
      "inputs": [
        {
          "name": "_owner",
          "type": "address"
        }
      ],
      "name": "balanceOf",
      "outputs": [
        {
          "name": "",
          "type": "uint256"
        }
      ],
      "payable": false,
      "stateMutability": "view",
      "type": "function"
    },
    {
      "constant": false,
      "inputs": [],
      "name": "renounceOwnership",
      "outputs": [],
      "payable": false,
      "stateMutability": "nonpayable",
      "type": "function"
    },
    {
      "constant": false,
      "inputs": [
        {
          "name": "_operator",
          "type": "address"
        }
      ],
      "name": "addAddressToWhitelist",
      "outputs": [],
      "payable": false,
      "stateMutability": "nonpayable",
      "type": "function"
    },
    {
      "constant": true,
      "inputs": [],
      "name": "owner",
      "outputs": [
        {
          "name": "",
          "type": "address"
        }
      ],
      "payable": false,
      "stateMutability": "view",
      "type": "function"
    },
    {
      "constant": true,
      "inputs": [],
      "name": "symbol",
      "outputs": [
        {
          "name": "",
          "type": "string"
        }
      ],
      "payable": false,
      "stateMutability": "view",
      "type": "function"
    },
    {
      "constant": true,
      "inputs": [
        {
          "name": "_operator",
          "type": "address"
        }
      ],
      "name": "whitelist",
      "outputs": [
        {
          "name": "",
          "type": "bool"
        }
      ],
      "payable": false,
      "stateMutability": "view",
      "type": "function"
    },
    {
      "constant": false,
      "inputs": [
        {
          "name": "_to",
          "type": "address"
        },
        {
          "name": "_approved",
          "type": "bool"
        }
      ],
      "name": "setApprovalForAll",
      "outputs": [],
      "payable": false,
      "stateMutability": "nonpayable",
      "type": "function"
    },
    {
      "constant": true,
      "inputs": [],
      "name": "minContribution",
      "outputs": [
        {
          "name": "",
          "type": "uint256"
        }
      ],
      "payable": false,
      "stateMutability": "view",
      "type": "function"
    },
    {
      "constant": false,
      "inputs": [
        {
          "name": "_from",
          "type": "address"
        },
        {
          "name": "_to",
          "type": "address"
        },
        {
          "name": "_tokenId",
          "type": "uint256"
        },
        {
          "name": "_data",
          "type": "bytes"
        }
      ],
      "name": "safeTransferFrom",
      "outputs": [],
      "payable": false,
      "stateMutability": "nonpayable",
      "type": "function"
    },
    {
      "constant": false,
      "inputs": [
        {
          "name": "_operators",
          "type": "address[]"
        }
      ],
      "name": "addAddressesToWhitelist",
      "outputs": [],
      "payable": false,
      "stateMutability": "nonpayable",
      "type": "function"
    },
    {
      "constant": true,
      "inputs": [
        {
          "name": "_owner",
          "type": "address"
        },
        {
          "name": "_operator",
          "type": "address"
        }
      ],
      "name": "isApprovedForAll",
      "outputs": [
        {
          "name": "",
          "type": "bool"
        }
      ],
      "payable": false,
      "stateMutability": "view",
      "type": "function"
    },
    {
      "constant": false,
      "inputs": [
        {
          "name": "_newOwner",
          "type": "address"
        }
      ],
      "name": "transferOwnership",
      "outputs": [],
      "payable": false,
      "stateMutability": "nonpayable",
      "type": "function"
    },
    {
      "inputs": [],
      "payable": false,
      "stateMutability": "nonpayable",
      "type": "constructor"
    },
    {
      "anonymous": false,
      "inputs": [
        {
          "indexed": true,
          "name": "operator",
          "type": "address"
        },
        {
          "indexed": false,
          "name": "role",
          "type": "string"
        }
      ],
      "name": "RoleAdded",
      "type": "event"
    },
    {
      "anonymous": false,
      "inputs": [
        {
          "indexed": true,
          "name": "operator",
          "type": "address"
        },
        {
          "indexed": false,
          "name": "role",
          "type": "string"
        }
      ],
      "name": "RoleRemoved",
      "type": "event"
    },
    {
      "anonymous": false,
      "inputs": [
        {
          "indexed": true,
          "name": "previousOwner",
          "type": "address"
        }
      ],
      "name": "OwnershipRenounced",
      "type": "event"
    },
    {
      "anonymous": false,
      "inputs": [
        {
          "indexed": true,
          "name": "previousOwner",
          "type": "address"
        },
        {
          "indexed": true,
          "name": "newOwner",
          "type": "address"
        }
      ],
      "name": "OwnershipTransferred",
      "type": "event"
    },
    {
      "anonymous": false,
      "inputs": [
        {
          "indexed": true,
          "name": "_from",
          "type": "address"
        },
        {
          "indexed": true,
          "name": "_to",
          "type": "address"
        },
        {
          "indexed": true,
          "name": "_tokenId",
          "type": "uint256"
        }
      ],
      "name": "Transfer",
      "type": "event"
    },
    {
      "anonymous": false,
      "inputs": [
        {
          "indexed": true,
          "name": "_owner",
          "type": "address"
        },
        {
          "indexed": true,
          "name": "_approved",
          "type": "address"
        },
        {
          "indexed": true,
          "name": "_tokenId",
          "type": "uint256"
        }
      ],
      "name": "Approval",
      "type": "event"
    },
    {
      "anonymous": false,
      "inputs": [
        {
          "indexed": true,
          "name": "_owner",
          "type": "address"
        },
        {
          "indexed": true,
          "name": "_operator",
          "type": "address"
        },
        {
          "indexed": false,
          "name": "_approved",
          "type": "bool"
        }
      ],
      "name": "ApprovalForAll",
      "type": "event"
    },
    {
      "constant": false,
      "inputs": [
        {
          "name": "to",
          "type": "address"
        },
        {
          "name": "tokenURI",
          "type": "string"
        },
        {
          "name": "_benefactor",
          "type": "uint256"
        }
      ],
      "name": "gift",
      "outputs": [
        {
          "name": "",
          "type": "bool"
        }
      ],
      "payable": true,
      "stateMutability": "payable",
      "type": "function"
    },
    {
      "constant": false,
      "inputs": [
        {
          "name": "tokenId",
          "type": "uint256"
        }
      ],
      "name": "burn",
      "outputs": [],
      "payable": false,
      "stateMutability": "nonpayable",
      "type": "function"
    },
    {
      "constant": false,
      "inputs": [
        {
          "name": "_newBaseURI",
          "type": "string"
        }
      ],
      "name": "setTokenBaseURI",
      "outputs": [],
      "payable": false,
      "stateMutability": "nonpayable",
      "type": "function"
    },
    {
      "constant": false,
      "inputs": [
        {
          "name": "_minContribution",
          "type": "uint256"
        }
      ],
      "name": "setMinContribution",
      "outputs": [],
      "payable": false,
      "stateMutability": "nonpayable",
      "type": "function"
    },
    {
      "constant": true,
      "inputs": [
        {
          "name": "_tokenId",
          "type": "uint256"
        }
      ],
      "name": "tokenURI",
      "outputs": [
        {
          "name": "",
          "type": "string"
        }
      ],
      "payable": false,
      "stateMutability": "view",
      "type": "function"
    },
    {
      "constant": true,
      "inputs": [
        {
          "name": "_owner",
          "type": "address"
        }
      ],
      "name": "tokensOf",
      "outputs": [
        {
          "name": "_tokenIds",
          "type": "uint256[]"
        }
      ],
      "payable": false,
      "stateMutability": "view",
      "type": "function"
    },
    {
      "constant": true,
      "inputs": [],
      "name": "benefactorsKeys",
      "outputs": [
        {
          "name": "_keys",
          "type": "uint256[]"
        }
      ],
      "payable": false,
      "stateMutability": "view",
      "type": "function"
    },
    {
      "constant": false,
      "inputs": [
        {
          "name": "_index",
          "type": "uint256"
        },
        {
          "name": "_ethAddress",
          "type": "address"
        },
        {
          "name": "_name",
          "type": "string"
        },
        {
          "name": "_website",
          "type": "string"
        }
      ],
      "name": "addBenefactor",
      "outputs": [],
      "payable": false,
      "stateMutability": "nonpayable",
      "type": "function"
    }
  ],
  "bytecode": "0x60806040526040805190810160405280601c81526020017f68747470733a2f2f697066732e696e667572612e696f2f697066732f00000000815250600e908051906020019062000051929190620008f7565b506000600f5566b1a2bc2ec500006010553480156200006f57600080fd5b506040805190810160405280600981526020017f52616469436172647300000000000000000000000000000000000000000000008152506040805190810160405280600481526020017f5241444900000000000000000000000000000000000000000000000000000000815250620001196301ffc9a77c010000000000000000000000000000000000000000000000000000000002620005e2640100000000026401000000009004565b620001566380ac58cd7c010000000000000000000000000000000000000000000000000000000002620005e2640100000000026401000000009004565b62000193634f558e797c010000000000000000000000000000000000000000000000000000000002620005e2640100000000026401000000009004565b8160059080519060200190620001ab929190620008f7565b508060069080519060200190620001c4929190620008f7565b506200020263780e9d637c010000000000000000000000000000000000000000000000000000000002620005e2640100000000026401000000009004565b6200023f635b5e139f7c010000000000000000000000000000000000000000000000000000000002620005e2640100000000026401000000009004565b505033600c60006101000a81548173ffffffffffffffffffffffffffffffffffffffff021916908373ffffffffffffffffffffffffffffffffffffffff1602179055506200029c33620006a0640100000000026401000000009004565b60606040519081016040528073b189f76323678e094d4996d182a792e52369c00573ffffffffffffffffffffffffffffffffffffffff1681526020016040805190810160405280601e81526020017f456c656374726f6e69632046726f6e7469657220466f756e646174696f6e00008152508152602001606060405190810160405280603981526020017f68747470733a2f2f7777772e6566662e6f72672f70616765732f65746865726581526020017f756d2d616e642d6c697465636f696e2d646f6e6174696f6e7300000000000000815250815250601160006001815260200190815260200160002060008201518160000160006101000a81548173ffffffffffffffffffffffffffffffffffffffff021916908373ffffffffffffffffffffffffffffffffffffffff1602179055506020820151816001019080519060200190620003ec9291906200097e565b5060408201518160020190805190602001906200040b9291906200097e565b5090505060126001908060018154018082558091505090600182039060005260206000200160009091929091909150555060606040519081016040528073998f25be40241ca5d8f5fcaf3591b5ed06ef3be773ffffffffffffffffffffffffffffffffffffffff1681526020016040805190810160405280601f81526020017f46726565646f6d206f662074686520507265737320466f756e646174696f6e008152508152602001606060405190810160405280602c81526020017f68747470733a2f2f66726565646f6d2e70726573732f646f6e6174652f63727981526020017f70746f63757272656e63792f0000000000000000000000000000000000000000815250815250601160006002815260200190815260200160002060008201518160000160006101000a81548173ffffffffffffffffffffffffffffffffffffffff021916908373ffffffffffffffffffffffffffffffffffffffff16021790555060208201518160010190805190602001906200058c9291906200097e565b506040820151816002019080519060200190620005ab9291906200097e565b5090505060126002908060018154018082558091505090600182039060005260206000200160009091929091909150555062000a2d565b63ffffffff7c010000000000000000000000000000000000000000000000000000000002817bffffffffffffffffffffffffffffffffffffffffffffffffffffffff1916141515156200063457600080fd5b6001600080837bffffffffffffffffffffffffffffffffffffffffffffffffffffffff19167bffffffffffffffffffffffffffffffffffffffffffffffffffffffff1916815260200190815260200160002060006101000a81548160ff02191690831515021790555050565b600c60009054906101000a900473ffffffffffffffffffffffffffffffffffffffff1673ffffffffffffffffffffffffffffffffffffffff163373ffffffffffffffffffffffffffffffffffffffff16141515620006fd57600080fd5b6200074d816040805190810160405280600981526020017f77686974656c697374000000000000000000000000000000000000000000000081525062000750640100000000026401000000009004565b50565b620007df82600d836040518082805190602001908083835b6020831015156200078f578051825260208201915060208101905060208303925062000768565b6001836020036101000a0380198251168184511680821785525050505050509050019150509081526020016040518091039020620008996401000000000262003b47179091906401000000009004565b8173ffffffffffffffffffffffffffffffffffffffff167fbfec83d64eaa953f2708271a023ab9ee82057f8f3578d548c1a4ba0b5b700489826040518080602001828103825283818151815260200191508051906020019080838360005b838110156200085a5780820151818401526020810190506200083d565b50505050905090810190601f168015620008885780820380516001836020036101000a031916815260200191505b509250505060405180910390a25050565b60018260000160008373ffffffffffffffffffffffffffffffffffffffff1673ffffffffffffffffffffffffffffffffffffffff16815260200190815260200160002060006101000a81548160ff0219169083151502179055505050565b828054600181600116156101000203166002900490600052602060002090601f016020900481019282601f106200093a57805160ff19168380011785556200096b565b828001600101855582156200096b579182015b828111156200096a5782518255916020019190600101906200094d565b5b5090506200097a919062000a05565b5090565b828054600181600116156101000203166002900490600052602060002090601f016020900481019282601f10620009c157805160ff1916838001178555620009f2565b82800160010185558215620009f2579182015b82811115620009f1578251825591602001919060010190620009d4565b5b50905062000a01919062000a05565b5090565b62000a2a91905b8082111562000a2657600081600090555060010162000a0c565b5090565b90565b6142b88062000a3d6000396000f3006080604052600436106101ee576000357c0100000000000000000000000000000000000000000000000000000000900463ffffffff16806301ffc9a7146101f357806303cfe12d1461025757806306fdde03146102c3578063081812fc14610353578063095ea7b3146103c05780630988ca8c1461040d578063128ee1611461049657806318160ddd146105db57806318b919e91461060657806319fa8f5014610696578063217fe6c6146106ff57806323b872dd146107a057806324953eaa1461080d578063286dd3f5146108735780632f745c59146108b65780633b3a1a7a1461091757806342842e0e1461094257806342966c68146109af57806346ddea30146109dc578063473b0d4614610a7a5780634e99b80014610aa75780634f558e7914610b375780634f6ccce714610b7c5780635a3f267214610bbd5780636352211e14610c5557806370a0823114610cc2578063715018a614610d195780637b9417c814610d305780638da5cb5b14610d735780638ef79e9114610dca57806395d89b4114610e055780639b19251a14610e95578063a22cb46514610ef0578063aaffadf314610f3f578063b88d4fde14610f6a578063bdbf3a2c1461101d578063c87b56dd1461109a578063e2ec6ec314611140578063e985e9c5146111a6578063f2fde38b14611221575b600080fd5b3480156101ff57600080fd5b5061023d60048036038101908080357bffffffffffffffffffffffffffffffffffffffffffffffffffffffff19169060200190929190505050611264565b604051808215151515815260200191505060405180910390f35b34801561026357600080fd5b5061026c6112cb565b6040518080602001828103825283818151815260200191508051906020019060200280838360005b838110156102af578082015181840152602081019050610294565b505050509050019250505060405180910390f35b3480156102cf57600080fd5b506102d8611323565b6040518080602001828103825283818151815260200191508051906020019080838360005b838110156103185780820151818401526020810190506102fd565b50505050905090810190601f1680156103455780820380516001836020036101000a031916815260200191505b509250505060405180910390f35b34801561035f57600080fd5b5061037e600480360381019080803590602001909291905050506113c5565b604051808273ffffffffffffffffffffffffffffffffffffffff1673ffffffffffffffffffffffffffffffffffffffff16815260200191505060405180910390f35b3480156103cc57600080fd5b5061040b600480360381019080803573ffffffffffffffffffffffffffffffffffffffff16906020019092919080359060200190929190505050611402565b005b34801561041957600080fd5b50610494600480360381019080803573ffffffffffffffffffffffffffffffffffffffff169060200190929190803590602001908201803590602001908080601f0160208091040260200160405190810160405280939291908181526020018383808284378201915050505050509192919290505050611547565b005b3480156104a257600080fd5b506104c1600480360381019080803590602001909291905050506115c8565b604051808473ffffffffffffffffffffffffffffffffffffffff1673ffffffffffffffffffffffffffffffffffffffff1681526020018060200180602001838103835285818151815260200191508051906020019080838360005b8381101561053757808201518184015260208101905061051c565b50505050905090810190601f1680156105645780820380516001836020036101000a031916815260200191505b50838103825284818151815260200191508051906020019080838360005b8381101561059d578082015181840152602081019050610582565b50505050905090810190601f1680156105ca5780820380516001836020036101000a031916815260200191505b509550505050505060405180910390f35b3480156105e757600080fd5b506105f0611742565b6040518082815260200191505060405180910390f35b34801561061257600080fd5b5061061b61174f565b6040518080602001828103825283818151815260200191508051906020019080838360005b8381101561065b578082015181840152602081019050610640565b50505050905090810190601f1680156106885780820380516001836020036101000a031916815260200191505b509250505060405180910390f35b3480156106a257600080fd5b506106ab611788565b60405180827bffffffffffffffffffffffffffffffffffffffffffffffffffffffff19167bffffffffffffffffffffffffffffffffffffffffffffffffffffffff1916815260200191505060405180910390f35b34801561070b57600080fd5b50610786600480360381019080803573ffffffffffffffffffffffffffffffffffffffff169060200190929190803590602001908201803590602001908080601f01602080910402602001604051908101604052809392919081815260200183838082843782019150505050505091929192905050506117af565b604051808215151515815260200191505060405180910390f35b3480156107ac57600080fd5b5061080b600480360381019080803573ffffffffffffffffffffffffffffffffffffffff169060200190929190803573ffffffffffffffffffffffffffffffffffffffff16906020019092919080359060200190929190505050611836565b005b34801561081957600080fd5b5061087160048036038101908080359060200190820180359060200190808060200260200160405190810160405280939291908181526020018383602002808284378201915050505050509192919290505050611941565b005b34801561087f57600080fd5b506108b4600480360381019080803573ffffffffffffffffffffffffffffffffffffffff1690602001909291905050506119de565b005b3480156108c257600080fd5b50610901600480360381019080803573ffffffffffffffffffffffffffffffffffffffff16906020019092919080359060200190929190505050611a7c565b6040518082815260200191505060405180910390f35b34801561092357600080fd5b5061092c611af3565b6040518082815260200191505060405180910390f35b34801561094e57600080fd5b506109ad600480360381019080803573ffffffffffffffffffffffffffffffffffffffff169060200190929190803573ffffffffffffffffffffffffffffffffffffffff16906020019092919080359060200190929190505050611af9565b005b3480156109bb57600080fd5b506109da60048036038101908080359060200190929190505050611b1a565b005b610a60600480360381019080803573ffffffffffffffffffffffffffffffffffffffff169060200190929190803590602001908201803590602001908080601f016020809104026020016040519081016040528093929190818152602001838380828437820191505050505050919291929080359060200190929190505050611b70565b604051808215151515815260200191505060405180910390f35b348015610a8657600080fd5b50610aa560048036038101908080359060200190929190505050611d7f565b005b348015610ab357600080fd5b50610abc611dca565b6040518080602001828103825283818151815260200191508051906020019080838360005b83811015610afc578082015181840152602081019050610ae1565b50505050905090810190601f168015610b295780820380516001836020036101000a031916815260200191505b509250505060405180910390f35b348015610b4357600080fd5b50610b6260048036038101908080359060200190929190505050611e68565b604051808215151515815260200191505060405180910390f35b348015610b8857600080fd5b50610ba760048036038101908080359060200190929190505050611eda565b6040518082815260200191505060405180910390f35b348015610bc957600080fd5b50610bfe600480360381019080803573ffffffffffffffffffffffffffffffffffffffff169060200190929190505050611f12565b6040518080602001828103825283818151815260200191508051906020019060200280838360005b83811015610c41578082015181840152602081019050610c26565b505050509050019250505060405180910390f35b348015610c6157600080fd5b50610c8060048036038101908080359060200190929190505050611fa9565b604051808273ffffffffffffffffffffffffffffffffffffffff1673ffffffffffffffffffffffffffffffffffffffff16815260200191505060405180910390f35b348015610cce57600080fd5b50610d03600480360381019080803573ffffffffffffffffffffffffffffffffffffffff169060200190929190505050612027565b6040518082815260200191505060405180910390f35b348015610d2557600080fd5b50610d2e6120ab565b005b348015610d3c57600080fd5b50610d71600480360381019080803573ffffffffffffffffffffffffffffffffffffffff1690602001909291905050506121b0565b005b348015610d7f57600080fd5b50610d8861224e565b604051808273ffffffffffffffffffffffffffffffffffffffff1673ffffffffffffffffffffffffffffffffffffffff16815260200191505060405180910390f35b348015610dd657600080fd5b50610e03600480360381019080803590602001908201803590602001919091929391929390505050612274565b005b348015610e1157600080fd5b50610e1a612347565b6040518080602001828103825283818151815260200191508051906020019080838360005b83811015610e5a578082015181840152602081019050610e3f565b50505050905090810190601f168015610e875780820380516001836020036101000a031916815260200191505b509250505060405180910390f35b348015610ea157600080fd5b50610ed6600480360381019080803573ffffffffffffffffffffffffffffffffffffffff1690602001909291905050506123e9565b604051808215151515815260200191505060405180910390f35b348015610efc57600080fd5b50610f3d600480360381019080803573ffffffffffffffffffffffffffffffffffffffff169060200190929190803515159060200190929190505050612431565b005b348015610f4b57600080fd5b50610f5461256d565b6040518082815260200191505060405180910390f35b348015610f7657600080fd5b5061101b600480360381019080803573ffffffffffffffffffffffffffffffffffffffff169060200190929190803573ffffffffffffffffffffffffffffffffffffffff16906020019092919080359060200190929190803590602001908201803590602001908080601f0160208091040260200160405190810160405280939291908181526020018383808284378201915050505050509192919290505050612573565b005b34801561102957600080fd5b5061109860048036038101908080359060200190929190803573ffffffffffffffffffffffffffffffffffffffff16906020019092919080359060200190820180359060200191909192939192939080359060200190820180359060200191909192939192939050505061259b565b005b3480156110a657600080fd5b506110c56004803603810190808035906020019092919050505061283d565b6040518080602001828103825283818151815260200191508051906020019080838360005b838110156111055780820151818401526020810190506110ea565b50505050905090810190601f1680156111325780820380516001836020036101000a031916815260200191505b509250505060405180910390f35b34801561114c57600080fd5b506111a4600480360381019080803590602001908201803590602001908080602002602001604051908101604052809392919081815260200183836020028082843782019150505050505091929192905050506129a9565b005b3480156111b257600080fd5b50611207600480360381019080803573ffffffffffffffffffffffffffffffffffffffff169060200190929190803573ffffffffffffffffffffffffffffffffffffffff169060200190929190505050612a46565b604051808215151515815260200191505060405180910390f35b34801561122d57600080fd5b50611262600480360381019080803573ffffffffffffffffffffffffffffffffffffffff169060200190929190505050612ada565b005b6000806000837bffffffffffffffffffffffffffffffffffffffffffffffffffffffff19167bffffffffffffffffffffffffffffffffffffffffffffffffffffffff1916815260200190815260200160002060009054906101000a900460ff169050919050565b6060601280548060200260200160405190810160405280929190818152602001828054801561131957602002820191906000526020600020905b815481526020019060010190808311611305575b5050505050905090565b606060058054600181600116156101000203166002900480601f0160208091040260200160405190810160405280929190818152602001828054600181600116156101000203166002900480156113bb5780601f10611390576101008083540402835291602001916113bb565b820191906000526020600020905b81548152906001019060200180831161139e57829003601f168201915b5050505050905090565b60006002600083815260200190815260200160002060009054906101000a900473ffffffffffffffffffffffffffffffffffffffff169050919050565b600061140d82611fa9565b90508073ffffffffffffffffffffffffffffffffffffffff168373ffffffffffffffffffffffffffffffffffffffff161415151561144a57600080fd5b8073ffffffffffffffffffffffffffffffffffffffff163373ffffffffffffffffffffffffffffffffffffffff16148061148a57506114898133612a46565b5b151561149557600080fd5b826002600084815260200190815260200160002060006101000a81548173ffffffffffffffffffffffffffffffffffffffff021916908373ffffffffffffffffffffffffffffffffffffffff160217905550818373ffffffffffffffffffffffffffffffffffffffff168273ffffffffffffffffffffffffffffffffffffffff167f8c5be1e5ebec7d5bd14f71427d1e84f3dd0314c0f7b2291e5b200ac8c7c3b92560405160405180910390a4505050565b6115c482600d836040518082805190602001908083835b602083101515611583578051825260208201915060208101905060208303925061155e565b6001836020036101000a0380198251168184511680821785525050505050509050019150509081526020016040518091039020612b4290919063ffffffff16565b5050565b60116020528060005260406000206000915090508060000160009054906101000a900473ffffffffffffffffffffffffffffffffffffffff1690806001018054600181600116156101000203166002900480601f01602080910402602001604051908101604052809291908181526020018280546001816001161561010002031660029004801561169a5780601f1061166f5761010080835404028352916020019161169a565b820191906000526020600020905b81548152906001019060200180831161167d57829003601f168201915b505050505090806002018054600181600116156101000203166002900480601f0160208091040260200160405190810160405280929190818152602001828054600181600116156101000203166002900480156117385780601f1061170d57610100808354040283529160200191611738565b820191906000526020600020905b81548152906001019060200180831161171b57829003601f168201915b5050505050905083565b6000600980549050905090565b6040805190810160405280600981526020017f77686974656c697374000000000000000000000000000000000000000000000081525081565b6301ffc9a77c01000000000000000000000000000000000000000000000000000000000281565b600061182e83600d846040518082805190602001908083835b6020831015156117ed57805182526020820191506020810190506020830392506117c8565b6001836020036101000a0380198251168184511680821785525050505050509050019150509081526020016040518091039020612b5b90919063ffffffff16565b905092915050565b6118403382612bb4565b151561184b57600080fd5b600073ffffffffffffffffffffffffffffffffffffffff168373ffffffffffffffffffffffffffffffffffffffff161415151561188757600080fd5b600073ffffffffffffffffffffffffffffffffffffffff168273ffffffffffffffffffffffffffffffffffffffff16141515156118c357600080fd5b6118cd8382612c49565b6118d78382612d4c565b6118e18282612f08565b808273ffffffffffffffffffffffffffffffffffffffff168473ffffffffffffffffffffffffffffffffffffffff167fddf252ad1be2c89b69c2b068fc378daa952ba7f163c4a11628f55a4df523b3ef60405160405180910390a4505050565b6000600c60009054906101000a900473ffffffffffffffffffffffffffffffffffffffff1673ffffffffffffffffffffffffffffffffffffffff163373ffffffffffffffffffffffffffffffffffffffff1614151561199f57600080fd5b600090505b81518110156119da576119cd82828151811015156119be57fe5b906020019060200201516119de565b80806001019150506119a4565b5050565b600c60009054906101000a900473ffffffffffffffffffffffffffffffffffffffff1673ffffffffffffffffffffffffffffffffffffffff163373ffffffffffffffffffffffffffffffffffffffff16141515611a3a57600080fd5b611a79816040805190810160405280600981526020017f77686974656c6973740000000000000000000000000000000000000000000000815250612fdf565b50565b6000611a8783612027565b82101515611a9457600080fd5b600760008473ffffffffffffffffffffffffffffffffffffffff1673ffffffffffffffffffffffffffffffffffffffff16815260200190815260200160002082815481101515611ae057fe5b9060005260206000200154905092915050565b600f5481565b611b158383836020604051908101604052806000815250612573565b505050565b33611b5a816040805190810160405280600981526020017f77686974656c6973740000000000000000000000000000000000000000000000815250611547565b611b6c611b6683611fa9565b83613113565b5050565b60006010543410151515611c12576040517f08c379a00000000000000000000000000000000000000000000000000000000081526004018080602001828103825260258152602001807f4d7573742073656e64206174206c6561737420746865206d696e696d756d206181526020017f6d6f756e7400000000000000000000000000000000000000000000000000000081525060400191505060405180910390fd5b600073ffffffffffffffffffffffffffffffffffffffff166011600084815260200190815260200160002060000160009054906101000a900473ffffffffffffffffffffffffffffffffffffffff1673ffffffffffffffffffffffffffffffffffffffff1614151515611ced576040517f08c379a00000000000000000000000000000000000000000000000000000000081526004018080602001828103825260208152602001807f4d7573742073706563696679206578697374696e672062656e65666163746f7281525060200191505060405180910390fd5b611cf7848461324b565b6011600083815260200190815260200160002060000160009054906101000a900473ffffffffffffffffffffffffffffffffffffffff1673ffffffffffffffffffffffffffffffffffffffff166108fc349081150290604051600060405180830381858888f19350505050158015611d73573d6000803e3d6000fd5b50600190509392505050565b33611dbf816040805190810160405280600981526020017f77686974656c6973740000000000000000000000000000000000000000000000815250611547565b816010819055505050565b600e8054600181600116156101000203166002900480601f016020809104026020016040519081016040528092919081815260200182805460018160011615610100020316600290048015611e605780601f10611e3557610100808354040283529160200191611e60565b820191906000526020600020905b815481529060010190602001808311611e4357829003601f168201915b505050505081565b6000806001600084815260200190815260200160002060009054906101000a900473ffffffffffffffffffffffffffffffffffffffff169050600073ffffffffffffffffffffffffffffffffffffffff168173ffffffffffffffffffffffffffffffffffffffff161415915050919050565b6000611ee4611742565b82101515611ef157600080fd5b600982815481101515611f0057fe5b90600052602060002001549050919050565b6060600760008373ffffffffffffffffffffffffffffffffffffffff1673ffffffffffffffffffffffffffffffffffffffff168152602001908152602001600020805480602002602001604051908101604052809291908181526020018280548015611f9d57602002820191906000526020600020905b815481526020019060010190808311611f89575b50505050509050919050565b6000806001600084815260200190815260200160002060009054906101000a900473ffffffffffffffffffffffffffffffffffffffff169050600073ffffffffffffffffffffffffffffffffffffffff168173ffffffffffffffffffffffffffffffffffffffff161415151561201e57600080fd5b80915050919050565b60008073ffffffffffffffffffffffffffffffffffffffff168273ffffffffffffffffffffffffffffffffffffffff161415151561206457600080fd5b600360008373ffffffffffffffffffffffffffffffffffffffff1673ffffffffffffffffffffffffffffffffffffffff168152602001908152602001600020549050919050565b600c60009054906101000a900473ffffffffffffffffffffffffffffffffffffffff1673ffffffffffffffffffffffffffffffffffffffff163373ffffffffffffffffffffffffffffffffffffffff1614151561210757600080fd5b600c60009054906101000a900473ffffffffffffffffffffffffffffffffffffffff1673ffffffffffffffffffffffffffffffffffffffff167ff8df31144d9c2f0f6b59d69b8b98abd5459d07f2742c4df920b25aae33c6482060405160405180910390a26000600c60006101000a81548173ffffffffffffffffffffffffffffffffffffffff021916908373ffffffffffffffffffffffffffffffffffffffff160217905550565b600c60009054906101000a900473ffffffffffffffffffffffffffffffffffffffff1673ffffffffffffffffffffffffffffffffffffffff163373ffffffffffffffffffffffffffffffffffffffff1614151561220c57600080fd5b61224b816040805190810160405280600981526020017f77686974656c6973740000000000000000000000000000000000000000000000815250613287565b50565b600c60009054906101000a900473ffffffffffffffffffffffffffffffffffffffff1681565b336122b4816040805190810160405280600981526020017f77686974656c6973740000000000000000000000000000000000000000000000815250611547565b60008383905014151515612330576040517f08c379a00000000000000000000000000000000000000000000000000000000081526004018080602001828103825260108152602001807f426173652055524920696e76616c69640000000000000000000000000000000081525060200191505060405180910390fd5b8282600e9190612341929190614073565b50505050565b606060068054600181600116156101000203166002900480601f0160208091040260200160405190810160405280929190818152602001828054600181600116156101000203166002900480156123df5780601f106123b4576101008083540402835291602001916123df565b820191906000526020600020905b8154815290600101906020018083116123c257829003601f168201915b5050505050905090565b600061242a826040805190810160405280600981526020017f77686974656c69737400000000000000000000000000000000000000000000008152506117af565b9050919050565b3373ffffffffffffffffffffffffffffffffffffffff168273ffffffffffffffffffffffffffffffffffffffff161415151561246c57600080fd5b80600460003373ffffffffffffffffffffffffffffffffffffffff1673ffffffffffffffffffffffffffffffffffffffff16815260200190815260200160002060008473ffffffffffffffffffffffffffffffffffffffff1673ffffffffffffffffffffffffffffffffffffffff16815260200190815260200160002060006101000a81548160ff0219169083151502179055508173ffffffffffffffffffffffffffffffffffffffff163373ffffffffffffffffffffffffffffffffffffffff167f17307eab39ab6107e8899845ad3d59bd9653f200f220920489ca2b5937696c3183604051808215151515815260200191505060405180910390a35050565b60105481565b61257e848484611836565b61258a848484846133bb565b151561259557600080fd5b50505050565b336125db816040805190810160405280600981526020017f77686974656c6973740000000000000000000000000000000000000000000000815250611547565b600073ffffffffffffffffffffffffffffffffffffffff166011600089815260200190815260200160002060000160009054906101000a900473ffffffffffffffffffffffffffffffffffffffff1673ffffffffffffffffffffffffffffffffffffffff161415156126db576040517f08c379a00000000000000000000000000000000000000000000000000000000081526004018080602001828103825260228152602001807f4d757374206e6f7420626520616e206578697374696e672062656e656661637481526020017f6f7200000000000000000000000000000000000000000000000000000000000081525060400191505060405180910390fd5b6060604051908101604052808773ffffffffffffffffffffffffffffffffffffffff16815260200186868080601f016020809104026020016040519081016040528093929190818152602001838380828437820191505050505050815260200184848080601f0160208091040260200160405190810160405280939291908181526020018383808284378201915050505050508152506011600089815260200190815260200160002060008201518160000160006101000a81548173ffffffffffffffffffffffffffffffffffffffff021916908373ffffffffffffffffffffffffffffffffffffffff16021790555060208201518160010190805190602001906127e79291906140f3565b5060408201518160020190805190602001906128049291906140f3565b50905050601287908060018154018082558091505090600182039060005260206000200160009091929091909150555050505050505050565b606061284882611e68565b151561285357600080fd5b6129a2600e8054600181600116156101000203166002900480601f0160208091040260200160405190810160405280929190818152602001828054600181600116156101000203166002900480156128ec5780601f106128c1576101008083540402835291602001916128ec565b820191906000526020600020905b8154815290600101906020018083116128cf57829003601f168201915b5050505050600b60008581526020019081526020016000208054600181600116156101000203166002900480601f0160208091040260200160405190810160405280929190818152602001828054600181600116156101000203166002900480156129985780601f1061296d57610100808354040283529160200191612998565b820191906000526020600020905b81548152906001019060200180831161297b57829003601f168201915b50505050506135dd565b9050919050565b6000600c60009054906101000a900473ffffffffffffffffffffffffffffffffffffffff1673ffffffffffffffffffffffffffffffffffffffff163373ffffffffffffffffffffffffffffffffffffffff16141515612a0757600080fd5b600090505b8151811015612a4257612a358282815181101515612a2657fe5b906020019060200201516121b0565b8080600101915050612a0c565b5050565b6000600460008473ffffffffffffffffffffffffffffffffffffffff1673ffffffffffffffffffffffffffffffffffffffff16815260200190815260200160002060008373ffffffffffffffffffffffffffffffffffffffff1673ffffffffffffffffffffffffffffffffffffffff16815260200190815260200160002060009054906101000a900460ff16905092915050565b600c60009054906101000a900473ffffffffffffffffffffffffffffffffffffffff1673ffffffffffffffffffffffffffffffffffffffff163373ffffffffffffffffffffffffffffffffffffffff16141515612b3657600080fd5b612b3f81613624565b50565b612b4c8282612b5b565b1515612b5757600080fd5b5050565b60008260000160008373ffffffffffffffffffffffffffffffffffffffff1673ffffffffffffffffffffffffffffffffffffffff16815260200190815260200160002060009054906101000a900460ff16905092915050565b600080612bc083611fa9565b90508073ffffffffffffffffffffffffffffffffffffffff168473ffffffffffffffffffffffffffffffffffffffff161480612c2f57508373ffffffffffffffffffffffffffffffffffffffff16612c17846113c5565b73ffffffffffffffffffffffffffffffffffffffff16145b80612c405750612c3f8185612a46565b5b91505092915050565b8173ffffffffffffffffffffffffffffffffffffffff16612c6982611fa9565b73ffffffffffffffffffffffffffffffffffffffff16141515612c8b57600080fd5b600073ffffffffffffffffffffffffffffffffffffffff166002600083815260200190815260200160002060009054906101000a900473ffffffffffffffffffffffffffffffffffffffff1673ffffffffffffffffffffffffffffffffffffffff16141515612d485760006002600083815260200190815260200160002060006101000a81548173ffffffffffffffffffffffffffffffffffffffff021916908373ffffffffffffffffffffffffffffffffffffffff1602179055505b5050565b6000806000612d5b8585613720565b60086000858152602001908152602001600020549250612dc76001600760008873ffffffffffffffffffffffffffffffffffffffff1673ffffffffffffffffffffffffffffffffffffffff1681526020019081526020016000208054905061384f90919063ffffffff16565b9150600760008673ffffffffffffffffffffffffffffffffffffffff1673ffffffffffffffffffffffffffffffffffffffff16815260200190815260200160002082815481101515612e1557fe5b9060005260206000200154905080600760008773ffffffffffffffffffffffffffffffffffffffff1673ffffffffffffffffffffffffffffffffffffffff16815260200190815260200160002084815481101515612e6f57fe5b9060005260206000200181905550600760008673ffffffffffffffffffffffffffffffffffffffff1673ffffffffffffffffffffffffffffffffffffffff168152602001908152602001600020805480919060019003612ecf9190614173565b50600060086000868152602001908152602001600020819055508260086000838152602001908152602001600020819055505050505050565b6000612f148383613868565b600760008473ffffffffffffffffffffffffffffffffffffffff1673ffffffffffffffffffffffffffffffffffffffff168152602001908152602001600020805490509050600760008473ffffffffffffffffffffffffffffffffffffffff1673ffffffffffffffffffffffffffffffffffffffff168152602001908152602001600020829080600181540180825580915050906001820390600052602060002001600090919290919091505550806008600084815260200190815260200160002081905550505050565b61305c82600d836040518082805190602001908083835b60208310151561301b5780518252602082019150602081019050602083039250612ff6565b6001836020036101000a03801982511681845116808217855250505050505090500191505090815260200160405180910390206139c290919063ffffffff16565b8173ffffffffffffffffffffffffffffffffffffffff167fd211483f91fc6eff862467f8de606587a30c8fc9981056f051b897a418df803a826040518080602001828103825283818151815260200191508051906020019080838360005b838110156130d55780820151818401526020810190506130ba565b50505050905090810190601f1680156131025780820380516001836020036101000a031916815260200191505b509250505060405180910390a25050565b60008060006131228585613a20565b6000600b600086815260200190815260200160002080546001816001161561010002031660029004905014151561317357600b60008581526020019081526020016000206000613172919061419f565b5b600a60008581526020019081526020016000205492506131a2600160098054905061384f90919063ffffffff16565b91506009828154811015156131b357fe5b90600052602060002001549050806009848154811015156131d057fe5b906000526020600020018190555060006009838154811015156131ef57fe5b906000526020600020018190555060098054809190600190036132129190614173565b506000600a60008681526020019081526020016000208190555082600a6000838152602001908152602001600020819055505050505050565b6000600f54905061325c8382613a94565b6132668183613aeb565b61327c6001600f54613b2b90919063ffffffff16565b600f81905550505050565b61330482600d836040518082805190602001908083835b6020831015156132c3578051825260208201915060208101905060208303925061329e565b6001836020036101000a0380198251168184511680821785525050505050509050019150509081526020016040518091039020613b4790919063ffffffff16565b8173ffffffffffffffffffffffffffffffffffffffff167fbfec83d64eaa953f2708271a023ab9ee82057f8f3578d548c1a4ba0b5b700489826040518080602001828103825283818151815260200191508051906020019080838360005b8381101561337d578082015181840152602081019050613362565b50505050905090810190601f1680156133aa5780820380516001836020036101000a031916815260200191505b509250505060405180910390a25050565b6000806133dd8573ffffffffffffffffffffffffffffffffffffffff16613ba5565b15156133ec57600191506135d4565b8473ffffffffffffffffffffffffffffffffffffffff1663150b7a02338887876040518563ffffffff167c0100000000000000000000000000000000000000000000000000000000028152600401808573ffffffffffffffffffffffffffffffffffffffff1673ffffffffffffffffffffffffffffffffffffffff1681526020018473ffffffffffffffffffffffffffffffffffffffff1673ffffffffffffffffffffffffffffffffffffffff16815260200183815260200180602001828103825283818151815260200191508051906020019080838360005b838110156134e15780820151818401526020810190506134c6565b50505050905090810190601f16801561350e5780820380516001836020036101000a031916815260200191505b5095505050505050602060405180830381600087803b15801561353057600080fd5b505af1158015613544573d6000803e3d6000fd5b505050506040513d602081101561355a57600080fd5b8101908080519060200190929190505050905063150b7a027c0100000000000000000000000000000000000000000000000000000000027bffffffffffffffffffffffffffffffffffffffffffffffffffffffff1916817bffffffffffffffffffffffffffffffffffffffffffffffffffffffff19161491505b50949350505050565b606061361c8383602060405190810160405280600081525060206040519081016040528060008152506020604051908101604052806000815250613bb8565b905092915050565b600073ffffffffffffffffffffffffffffffffffffffff168173ffffffffffffffffffffffffffffffffffffffff161415151561366057600080fd5b8073ffffffffffffffffffffffffffffffffffffffff16600c60009054906101000a900473ffffffffffffffffffffffffffffffffffffffff1673ffffffffffffffffffffffffffffffffffffffff167f8be0079c531659141344cd1fd0a4f28419497f9722a3daafe3b4186f6b6457e060405160405180910390a380600c60006101000a81548173ffffffffffffffffffffffffffffffffffffffff021916908373ffffffffffffffffffffffffffffffffffffffff16021790555050565b8173ffffffffffffffffffffffffffffffffffffffff1661374082611fa9565b73ffffffffffffffffffffffffffffffffffffffff1614151561376257600080fd5b6137b56001600360008573ffffffffffffffffffffffffffffffffffffffff1673ffffffffffffffffffffffffffffffffffffffff1681526020019081526020016000205461384f90919063ffffffff16565b600360008473ffffffffffffffffffffffffffffffffffffffff1673ffffffffffffffffffffffffffffffffffffffff1681526020019081526020016000208190555060006001600083815260200190815260200160002060006101000a81548173ffffffffffffffffffffffffffffffffffffffff021916908373ffffffffffffffffffffffffffffffffffffffff1602179055505050565b600082821115151561385d57fe5b818303905092915050565b600073ffffffffffffffffffffffffffffffffffffffff166001600083815260200190815260200160002060009054906101000a900473ffffffffffffffffffffffffffffffffffffffff1673ffffffffffffffffffffffffffffffffffffffff161415156138d657600080fd5b816001600083815260200190815260200160002060006101000a81548173ffffffffffffffffffffffffffffffffffffffff021916908373ffffffffffffffffffffffffffffffffffffffff16021790555061397b6001600360008573ffffffffffffffffffffffffffffffffffffffff1673ffffffffffffffffffffffffffffffffffffffff16815260200190815260200160002054613b2b90919063ffffffff16565b600360008473ffffffffffffffffffffffffffffffffffffffff1673ffffffffffffffffffffffffffffffffffffffff168152602001908152602001600020819055505050565b60008260000160008373ffffffffffffffffffffffffffffffffffffffff1673ffffffffffffffffffffffffffffffffffffffff16815260200190815260200160002060006101000a81548160ff0219169083151502179055505050565b613a2a8282612c49565b613a348282612d4c565b80600073ffffffffffffffffffffffffffffffffffffffff168373ffffffffffffffffffffffffffffffffffffffff167fddf252ad1be2c89b69c2b068fc378daa952ba7f163c4a11628f55a4df523b3ef60405160405180910390a45050565b613a9e8282613fcd565b600980549050600a60008381526020019081526020016000208190555060098190806001815401808255809150509060018203906000526020600020016000909192909190915055505050565b613af482611e68565b1515613aff57600080fd5b80600b60008481526020019081526020016000209080519060200190613b269291906141e7565b505050565b60008183019050828110151515613b3e57fe5b80905092915050565b60018260000160008373ffffffffffffffffffffffffffffffffffffffff1673ffffffffffffffffffffffffffffffffffffffff16815260200190815260200160002060006101000a81548160ff0219169083151502179055505050565b600080823b905060008111915050919050565b6060806060806060806060806000808e98508d97508c96508b95508a94508451865188518a518c51010101016040519080825280601f01601f191660200182016040528015613c165781602001602082028038833980820191505090505b50935083925060009150600090505b8851811015613cd8578881815181101515613c3c57fe5b9060200101517f010000000000000000000000000000000000000000000000000000000000000090047f0100000000000000000000000000000000000000000000000000000000000000028383806001019450815181101515613c9b57fe5b9060200101907effffffffffffffffffffffffffffffffffffffffffffffffffffffffffffff1916908160001a9053508080600101915050613c25565b600090505b8751811015613d90578781815181101515613cf457fe5b9060200101517f010000000000000000000000000000000000000000000000000000000000000090047f0100000000000000000000000000000000000000000000000000000000000000028383806001019450815181101515613d5357fe5b9060200101907effffffffffffffffffffffffffffffffffffffffffffffffffffffffffffff1916908160001a9053508080600101915050613cdd565b600090505b8651811015613e48578681815181101515613dac57fe5b9060200101517f010000000000000000000000000000000000000000000000000000000000000090047f0100000000000000000000000000000000000000000000000000000000000000028383806001019450815181101515613e0b57fe5b9060200101907effffffffffffffffffffffffffffffffffffffffffffffffffffffffffffff1916908160001a9053508080600101915050613d95565b600090505b8551811015613f00578581815181101515613e6457fe5b9060200101517f010000000000000000000000000000000000000000000000000000000000000090047f0100000000000000000000000000000000000000000000000000000000000000028383806001019450815181101515613ec357fe5b9060200101907effffffffffffffffffffffffffffffffffffffffffffffffffffffffffffff1916908160001a9053508080600101915050613e4d565b600090505b8451811015613fb8578481815181101515613f1c57fe5b9060200101517f010000000000000000000000000000000000000000000000000000000000000090047f0100000000000000000000000000000000000000000000000000000000000000028383806001019450815181101515613f7b57fe5b9060200101907effffffffffffffffffffffffffffffffffffffffffffffffffffffffffffff1916908160001a9053508080600101915050613f05565b82995050505050505050505095945050505050565b600073ffffffffffffffffffffffffffffffffffffffff168273ffffffffffffffffffffffffffffffffffffffff161415151561400957600080fd5b6140138282612f08565b808273ffffffffffffffffffffffffffffffffffffffff16600073ffffffffffffffffffffffffffffffffffffffff167fddf252ad1be2c89b69c2b068fc378daa952ba7f163c4a11628f55a4df523b3ef60405160405180910390a45050565b828054600181600116156101000203166002900490600052602060002090601f016020900481019282601f106140b457803560ff19168380011785556140e2565b828001600101855582156140e2579182015b828111156140e15782358255916020019190600101906140c6565b5b5090506140ef9190614267565b5090565b828054600181600116156101000203166002900490600052602060002090601f016020900481019282601f1061413457805160ff1916838001178555614162565b82800160010185558215614162579182015b82811115614161578251825591602001919060010190614146565b5b50905061416f9190614267565b5090565b81548183558181111561419a578183600052602060002091820191016141999190614267565b5b505050565b50805460018160011615610100020316600290046000825580601f106141c557506141e4565b601f0160209004906000526020600020908101906141e39190614267565b5b50565b828054600181600116156101000203166002900490600052602060002090601f016020900481019282601f1061422857805160ff1916838001178555614256565b82800160010185558215614256579182015b8281111561425557825182559160200191906001019061423a565b5b5090506142639190614267565b5090565b61428991905b8082111561428557600081600090555060010161426d565b5090565b905600a165627a7a723058208a38634358d78821e1044db013d936c07c245ff82548d9def88ea44ba5086fc20029",
  "source": "pragma solidity ^0.4.24;\r\n\r\nimport \"openzeppelin-solidity/contracts/math/SafeMath.sol\";\r\nimport \"openzeppelin-solidity/contracts/access/Whitelist.sol\";\r\nimport \"openzeppelin-solidity/contracts/token/ERC721/ERC721Token.sol\";\r\n\r\nimport \"./Strings.sol\";\r\n\r\n/**\r\n* @title Radi.Cards\r\n*\r\n* Non-profit e-card NFT for good!\r\n*\r\n*/\r\ncontract RadiCards is ERC721Token, Whitelist {\r\n  using SafeMath for uint256;\r\n\r\n  string public tokenBaseURI = \"https://ipfs.infura.io/ipfs/\";\r\n\r\n  // A pointer to the next token to be minted, zero indexed\r\n  uint256 public tokenIdPointer = 0;\r\n\r\n  uint256 public minContribution = 0.05 ether;\r\n\r\n  struct Benefactor {\r\n    address ethAddress;\r\n    string name;\r\n    string website;\r\n  }\r\n\r\n  mapping(uint256 => Benefactor) public benefactors;\r\n  uint256[] internal benefactorsIndex;\r\n\r\n  constructor () public ERC721Token(\"RadiCards\", \"RADI\") {\r\n    addAddressToWhitelist(msg.sender);\r\n\r\n    benefactors[1] = Benefactor(\r\n      address(0xb189f76323678E094D4996d182A792E52369c005),\r\n      \"Electronic Frontier Foundation\",\r\n      \"https://www.eff.org/pages/ethereum-and-litecoin-donations\"\r\n    );\r\n    benefactorsIndex.push(1);\r\n\r\n    benefactors[2] = Benefactor(\r\n      address(0x998F25Be40241CA5D8F5fCaF3591B5ED06EF3Be7),\r\n      \"Freedom of the Press Foundation\",\r\n      \"https://freedom.press/donate/cryptocurrency/\"\r\n    );\r\n    benefactorsIndex.push(2);\r\n  }\r\n\r\n  function gift(address to, string tokenURI, uint256 _benefactor) payable public returns (bool) {\r\n    require(msg.value >= minContribution, \"Must send at least the minimum amount\");\r\n    require(benefactors[_benefactor].ethAddress != address(0), \"Must specify existing benefactor\");\r\n\r\n    _mint(to, tokenURI);\r\n\r\n    benefactors[_benefactor].ethAddress.transfer(msg.value);\r\n\r\n    return true;\r\n  }\r\n\r\n  function _mint(address to, string tokenURI) internal {\r\n    uint256 tokenId = tokenIdPointer;\r\n\r\n    _mint(to, tokenId);\r\n    _setTokenURI(tokenId, tokenURI);\r\n\r\n    tokenIdPointer = tokenIdPointer.add(1);\r\n  }\r\n\r\n  function burn(uint256 tokenId) public onlyIfWhitelisted(msg.sender) {\r\n    // Super burn\r\n    _burn(ownerOf(tokenId), tokenId);\r\n  }\r\n\r\n  function setTokenBaseURI(string _newBaseURI) external onlyIfWhitelisted(msg.sender) {\r\n    require(bytes(_newBaseURI).length != 0, \"Base URI invalid\");\r\n    tokenBaseURI = _newBaseURI;\r\n  }\r\n\r\n  function setMinContribution(uint256 _minContribution) external onlyIfWhitelisted(msg.sender) {\r\n    minContribution = _minContribution;\r\n  }\r\n\r\n  function tokenURI(uint256 _tokenId) public view returns (string) {\r\n    require(exists(_tokenId));\r\n    return Strings.strConcat(tokenBaseURI, tokenURIs[_tokenId]);\r\n  }\r\n\r\n  function tokensOf(address _owner) public view returns (uint256[] _tokenIds) {\r\n    return ownedTokens[_owner];\r\n  }\r\n\r\n  function benefactorsKeys() public view returns (uint256[] _keys) {\r\n    return benefactorsIndex;\r\n  }\r\n\r\n  function addBenefactor(uint256 _index, address _ethAddress, string _name, string _website) external onlyIfWhitelisted(msg.sender) {\r\n    require(benefactors[_index].ethAddress == address(0), \"Must not be an existing benefactor\");\r\n\r\n    benefactors[_index] = Benefactor(\r\n      _ethAddress,\r\n      _name,\r\n      _website\r\n    );\r\n    benefactorsIndex.push(_index);\r\n  }\r\n}\r\n",
  "sourcePath": "C:\\Users\\Diego\\Desktop\\radicards\\radi.cards\\contracts\\RadiCards.sol",
  "compiler": {
    "name": "solc",
    "version": "0.4.24+commit.e67f0147.Emscripten.clang"
  },
  "schemaVersion": "2.0.1",
  "updatedAt": "2018-12-04T17:54:43.392Z"
}