{
  "contractName": "RadiCards",
  "abi": [
    {
      "constant": true,
      "inputs": [
        {
          "name": "_interfaceId",
          "type": "bytes4"
        }
      ],
      "name": "supportsInterface",
      "outputs": [
        {
          "name": "",
          "type": "bool"
        }
      ],
      "payable": false,
      "stateMutability": "view",
      "type": "function",
      "signature": "0x01ffc9a7"
    },
    {
      "constant": true,
      "inputs": [],
      "name": "name",
      "outputs": [
        {
          "name": "",
          "type": "string"
        }
      ],
      "payable": false,
      "stateMutability": "view",
      "type": "function",
      "signature": "0x06fdde03"
    },
    {
      "constant": true,
      "inputs": [
        {
          "name": "_tokenId",
          "type": "uint256"
        }
      ],
      "name": "getApproved",
      "outputs": [
        {
          "name": "",
          "type": "address"
        }
      ],
      "payable": false,
      "stateMutability": "view",
      "type": "function",
      "signature": "0x081812fc"
    },
    {
      "constant": false,
      "inputs": [
        {
          "name": "_to",
          "type": "address"
        },
        {
          "name": "_tokenId",
          "type": "uint256"
        }
      ],
      "name": "approve",
      "outputs": [],
      "payable": false,
      "stateMutability": "nonpayable",
      "type": "function",
      "signature": "0x095ea7b3"
    },
    {
      "constant": true,
      "inputs": [
        {
          "name": "_operator",
          "type": "address"
        },
        {
          "name": "_role",
          "type": "string"
        }
      ],
      "name": "checkRole",
      "outputs": [],
      "payable": false,
      "stateMutability": "view",
      "type": "function",
      "signature": "0x0988ca8c"
    },
    {
      "constant": true,
      "inputs": [
        {
          "name": "",
          "type": "uint256"
        }
      ],
      "name": "benefactors",
      "outputs": [
        {
          "name": "ethAddress",
          "type": "address"
        },
        {
          "name": "name",
          "type": "string"
        },
        {
          "name": "website",
          "type": "string"
        }
      ],
      "payable": false,
      "stateMutability": "view",
      "type": "function",
      "signature": "0x128ee161"
    },
    {
      "constant": true,
      "inputs": [],
      "name": "totalSupply",
      "outputs": [
        {
          "name": "",
          "type": "uint256"
        }
      ],
      "payable": false,
      "stateMutability": "view",
      "type": "function",
      "signature": "0x18160ddd"
    },
    {
      "constant": true,
      "inputs": [],
      "name": "ROLE_WHITELISTED",
      "outputs": [
        {
          "name": "",
          "type": "string"
        }
      ],
      "payable": false,
      "stateMutability": "view",
      "type": "function",
      "signature": "0x18b919e9"
    },
    {
      "constant": true,
      "inputs": [],
      "name": "InterfaceId_ERC165",
      "outputs": [
        {
          "name": "",
          "type": "bytes4"
        }
      ],
      "payable": false,
      "stateMutability": "view",
      "type": "function",
      "signature": "0x19fa8f50"
    },
    {
      "constant": true,
      "inputs": [
        {
          "name": "_operator",
          "type": "address"
        },
        {
          "name": "_role",
          "type": "string"
        }
      ],
      "name": "hasRole",
      "outputs": [
        {
          "name": "",
          "type": "bool"
        }
      ],
      "payable": false,
      "stateMutability": "view",
      "type": "function",
      "signature": "0x217fe6c6"
    },
    {
      "constant": false,
      "inputs": [
        {
          "name": "_from",
          "type": "address"
        },
        {
          "name": "_to",
          "type": "address"
        },
        {
          "name": "_tokenId",
          "type": "uint256"
        }
      ],
      "name": "transferFrom",
      "outputs": [],
      "payable": false,
      "stateMutability": "nonpayable",
      "type": "function",
      "signature": "0x23b872dd"
    },
    {
      "constant": false,
      "inputs": [
        {
          "name": "_operators",
          "type": "address[]"
        }
      ],
      "name": "removeAddressesFromWhitelist",
      "outputs": [],
      "payable": false,
      "stateMutability": "nonpayable",
      "type": "function",
      "signature": "0x24953eaa"
    },
    {
      "constant": false,
      "inputs": [
        {
          "name": "_operator",
          "type": "address"
        }
      ],
      "name": "removeAddressFromWhitelist",
      "outputs": [],
      "payable": false,
      "stateMutability": "nonpayable",
      "type": "function",
      "signature": "0x286dd3f5"
    },
    {
      "constant": true,
      "inputs": [
        {
          "name": "_owner",
          "type": "address"
        },
        {
          "name": "_index",
          "type": "uint256"
        }
      ],
      "name": "tokenOfOwnerByIndex",
      "outputs": [
        {
          "name": "",
          "type": "uint256"
        }
      ],
      "payable": false,
      "stateMutability": "view",
      "type": "function",
      "signature": "0x2f745c59"
    },
    {
      "constant": true,
      "inputs": [],
      "name": "tokenIdPointer",
      "outputs": [
        {
          "name": "",
          "type": "uint256"
        }
      ],
      "payable": false,
      "stateMutability": "view",
      "type": "function",
      "signature": "0x3b3a1a7a"
    },
    {
      "constant": false,
      "inputs": [
        {
          "name": "_from",
          "type": "address"
        },
        {
          "name": "_to",
          "type": "address"
        },
        {
          "name": "_tokenId",
          "type": "uint256"
        }
      ],
      "name": "safeTransferFrom",
      "outputs": [],
      "payable": false,
      "stateMutability": "nonpayable",
      "type": "function",
      "signature": "0x42842e0e"
    },
    {
      "constant": true,
      "inputs": [],
      "name": "tokenBaseURI",
      "outputs": [
        {
          "name": "",
          "type": "string"
        }
      ],
      "payable": false,
      "stateMutability": "view",
      "type": "function",
      "signature": "0x4e99b800"
    },
    {
      "constant": true,
      "inputs": [
        {
          "name": "_tokenId",
          "type": "uint256"
        }
      ],
      "name": "exists",
      "outputs": [
        {
          "name": "",
          "type": "bool"
        }
      ],
      "payable": false,
      "stateMutability": "view",
      "type": "function",
      "signature": "0x4f558e79"
    },
    {
      "constant": true,
      "inputs": [
        {
          "name": "_index",
          "type": "uint256"
        }
      ],
      "name": "tokenByIndex",
      "outputs": [
        {
          "name": "",
          "type": "uint256"
        }
      ],
      "payable": false,
      "stateMutability": "view",
      "type": "function",
      "signature": "0x4f6ccce7"
    },
    {
      "constant": true,
      "inputs": [
        {
          "name": "_tokenId",
          "type": "uint256"
        }
      ],
      "name": "ownerOf",
      "outputs": [
        {
          "name": "",
          "type": "address"
        }
      ],
      "payable": false,
      "stateMutability": "view",
      "type": "function",
      "signature": "0x6352211e"
    },
    {
      "constant": true,
      "inputs": [
        {
          "name": "_owner",
          "type": "address"
        }
      ],
      "name": "balanceOf",
      "outputs": [
        {
          "name": "",
          "type": "uint256"
        }
      ],
      "payable": false,
      "stateMutability": "view",
      "type": "function",
      "signature": "0x70a08231"
    },
    {
      "constant": false,
      "inputs": [],
      "name": "renounceOwnership",
      "outputs": [],
      "payable": false,
      "stateMutability": "nonpayable",
      "type": "function",
      "signature": "0x715018a6"
    },
    {
      "constant": false,
      "inputs": [
        {
          "name": "_operator",
          "type": "address"
        }
      ],
      "name": "addAddressToWhitelist",
      "outputs": [],
      "payable": false,
      "stateMutability": "nonpayable",
      "type": "function",
      "signature": "0x7b9417c8"
    },
    {
      "constant": true,
      "inputs": [],
      "name": "owner",
      "outputs": [
        {
          "name": "",
          "type": "address"
        }
      ],
      "payable": false,
      "stateMutability": "view",
      "type": "function",
      "signature": "0x8da5cb5b"
    },
    {
      "constant": true,
      "inputs": [
        {
          "name": "",
          "type": "uint256"
        }
      ],
      "name": "cards",
      "outputs": [
        {
          "name": "ipfs",
          "type": "string"
        },
        {
          "name": "name",
          "type": "string"
        },
        {
          "name": "description",
          "type": "string"
        }
      ],
      "payable": false,
      "stateMutability": "view",
      "type": "function",
      "signature": "0x8dc10768"
    },
    {
      "constant": true,
      "inputs": [],
      "name": "symbol",
      "outputs": [
        {
          "name": "",
          "type": "string"
        }
      ],
      "payable": false,
      "stateMutability": "view",
      "type": "function",
      "signature": "0x95d89b41"
    },
    {
      "constant": true,
      "inputs": [
        {
          "name": "_operator",
          "type": "address"
        }
      ],
      "name": "whitelist",
      "outputs": [
        {
          "name": "",
          "type": "bool"
        }
      ],
      "payable": false,
      "stateMutability": "view",
      "type": "function",
      "signature": "0x9b19251a"
    },
    {
      "constant": false,
      "inputs": [
        {
          "name": "_to",
          "type": "address"
        },
        {
          "name": "_approved",
          "type": "bool"
        }
      ],
      "name": "setApprovalForAll",
      "outputs": [],
      "payable": false,
      "stateMutability": "nonpayable",
      "type": "function",
      "signature": "0xa22cb465"
    },
    {
      "constant": true,
      "inputs": [],
      "name": "minContribution",
      "outputs": [
        {
          "name": "",
          "type": "uint256"
        }
      ],
      "payable": false,
      "stateMutability": "view",
      "type": "function",
      "signature": "0xaaffadf3"
    },
    {
      "constant": false,
      "inputs": [
        {
          "name": "_from",
          "type": "address"
        },
        {
          "name": "_to",
          "type": "address"
        },
        {
          "name": "_tokenId",
          "type": "uint256"
        },
        {
          "name": "_data",
          "type": "bytes"
        }
      ],
      "name": "safeTransferFrom",
      "outputs": [],
      "payable": false,
      "stateMutability": "nonpayable",
      "type": "function",
      "signature": "0xb88d4fde"
    },
    {
      "constant": false,
      "inputs": [
        {
          "name": "_operators",
          "type": "address[]"
        }
      ],
      "name": "addAddressesToWhitelist",
      "outputs": [],
      "payable": false,
      "stateMutability": "nonpayable",
      "type": "function",
      "signature": "0xe2ec6ec3"
    },
    {
      "constant": true,
      "inputs": [
        {
          "name": "_owner",
          "type": "address"
        },
        {
          "name": "_operator",
          "type": "address"
        }
      ],
      "name": "isApprovedForAll",
      "outputs": [
        {
          "name": "",
          "type": "bool"
        }
      ],
      "payable": false,
      "stateMutability": "view",
      "type": "function",
      "signature": "0xe985e9c5"
    },
    {
      "constant": false,
      "inputs": [
        {
          "name": "_newOwner",
          "type": "address"
        }
      ],
      "name": "transferOwnership",
      "outputs": [],
      "payable": false,
      "stateMutability": "nonpayable",
      "type": "function",
      "signature": "0xf2fde38b"
    },
    {
      "inputs": [],
      "payable": false,
      "stateMutability": "nonpayable",
      "type": "constructor",
      "signature": "constructor"
    },
    {
      "anonymous": false,
      "inputs": [
        {
          "indexed": true,
          "name": "operator",
          "type": "address"
        },
        {
          "indexed": false,
          "name": "role",
          "type": "string"
        }
      ],
      "name": "RoleAdded",
      "type": "event",
      "signature": "0xbfec83d64eaa953f2708271a023ab9ee82057f8f3578d548c1a4ba0b5b700489"
    },
    {
      "anonymous": false,
      "inputs": [
        {
          "indexed": true,
          "name": "operator",
          "type": "address"
        },
        {
          "indexed": false,
          "name": "role",
          "type": "string"
        }
      ],
      "name": "RoleRemoved",
      "type": "event",
      "signature": "0xd211483f91fc6eff862467f8de606587a30c8fc9981056f051b897a418df803a"
    },
    {
      "anonymous": false,
      "inputs": [
        {
          "indexed": true,
          "name": "previousOwner",
          "type": "address"
        }
      ],
      "name": "OwnershipRenounced",
      "type": "event",
      "signature": "0xf8df31144d9c2f0f6b59d69b8b98abd5459d07f2742c4df920b25aae33c64820"
    },
    {
      "anonymous": false,
      "inputs": [
        {
          "indexed": true,
          "name": "previousOwner",
          "type": "address"
        },
        {
          "indexed": true,
          "name": "newOwner",
          "type": "address"
        }
      ],
      "name": "OwnershipTransferred",
      "type": "event",
      "signature": "0x8be0079c531659141344cd1fd0a4f28419497f9722a3daafe3b4186f6b6457e0"
    },
    {
      "anonymous": false,
      "inputs": [
        {
          "indexed": true,
          "name": "_from",
          "type": "address"
        },
        {
          "indexed": true,
          "name": "_to",
          "type": "address"
        },
        {
          "indexed": true,
          "name": "_tokenId",
          "type": "uint256"
        }
      ],
      "name": "Transfer",
      "type": "event",
      "signature": "0xddf252ad1be2c89b69c2b068fc378daa952ba7f163c4a11628f55a4df523b3ef"
    },
    {
      "anonymous": false,
      "inputs": [
        {
          "indexed": true,
          "name": "_owner",
          "type": "address"
        },
        {
          "indexed": true,
          "name": "_approved",
          "type": "address"
        },
        {
          "indexed": true,
          "name": "_tokenId",
          "type": "uint256"
        }
      ],
      "name": "Approval",
      "type": "event",
      "signature": "0x8c5be1e5ebec7d5bd14f71427d1e84f3dd0314c0f7b2291e5b200ac8c7c3b925"
    },
    {
      "anonymous": false,
      "inputs": [
        {
          "indexed": true,
          "name": "_owner",
          "type": "address"
        },
        {
          "indexed": true,
          "name": "_operator",
          "type": "address"
        },
        {
          "indexed": false,
          "name": "_approved",
          "type": "bool"
        }
      ],
      "name": "ApprovalForAll",
      "type": "event",
      "signature": "0x17307eab39ab6107e8899845ad3d59bd9653f200f220920489ca2b5937696c31"
    },
    {
      "constant": false,
      "inputs": [
        {
          "name": "to",
          "type": "address"
        },
        {
          "name": "tokenURI",
          "type": "string"
        },
        {
          "name": "_benefactor",
          "type": "uint256"
        }
      ],
      "name": "gift",
      "outputs": [
        {
          "name": "",
          "type": "bool"
        }
      ],
      "payable": true,
      "stateMutability": "payable",
      "type": "function",
      "signature": "0x46ddea30"
    },
    {
      "constant": false,
      "inputs": [
        {
          "name": "tokenId",
          "type": "uint256"
        }
      ],
      "name": "burn",
      "outputs": [],
      "payable": false,
      "stateMutability": "nonpayable",
      "type": "function",
      "signature": "0x42966c68"
    },
    {
      "constant": false,
      "inputs": [
        {
          "name": "_newBaseURI",
          "type": "string"
        }
      ],
      "name": "setTokenBaseURI",
      "outputs": [],
      "payable": false,
      "stateMutability": "nonpayable",
      "type": "function",
      "signature": "0x8ef79e91"
    },
    {
      "constant": false,
      "inputs": [
        {
          "name": "_minContribution",
          "type": "uint256"
        }
      ],
      "name": "setMinContribution",
      "outputs": [],
      "payable": false,
      "stateMutability": "nonpayable",
      "type": "function",
      "signature": "0x473b0d46"
    },
    {
      "constant": true,
      "inputs": [
        {
          "name": "_tokenId",
          "type": "uint256"
        }
      ],
      "name": "tokenURI",
      "outputs": [
        {
          "name": "",
          "type": "string"
        }
      ],
      "payable": false,
      "stateMutability": "view",
      "type": "function",
      "signature": "0xc87b56dd"
    },
    {
      "constant": true,
      "inputs": [
        {
          "name": "_owner",
          "type": "address"
        }
      ],
      "name": "tokensOf",
      "outputs": [
        {
          "name": "_tokenIds",
          "type": "uint256[]"
        }
      ],
      "payable": false,
      "stateMutability": "view",
      "type": "function",
      "signature": "0x5a3f2672"
    },
    {
      "constant": true,
      "inputs": [],
      "name": "benefactorsKeys",
      "outputs": [
        {
          "name": "_keys",
          "type": "uint256[]"
        }
      ],
      "payable": false,
      "stateMutability": "view",
      "type": "function",
      "signature": "0x03cfe12d"
    },
    {
      "constant": true,
      "inputs": [],
      "name": "cardKeys",
      "outputs": [
        {
          "name": "_keys",
          "type": "uint256[]"
        }
      ],
      "payable": false,
      "stateMutability": "view",
      "type": "function",
      "signature": "0xa7efa01f"
    },
    {
      "constant": false,
      "inputs": [
        {
          "name": "_index",
          "type": "uint256"
        },
        {
          "name": "_ethAddress",
          "type": "address"
        },
        {
          "name": "_name",
          "type": "string"
        },
        {
          "name": "_website",
          "type": "string"
        }
      ],
      "name": "addBenefactor",
      "outputs": [],
      "payable": false,
      "stateMutability": "nonpayable",
      "type": "function",
      "signature": "0xbdbf3a2c"
    }
  ],
  "bytecode": "0x60c0604052601c60808190527f68747470733a2f2f697066732e696e667572612e696f2f697066732f0000000060a09081526200004091600e919062000a25565b506000600f5566b1a2bc2ec500006010553480156200005e57600080fd5b50604080518082018252600981527f52616469436172647300000000000000000000000000000000000000000000006020808301919091528251808401909352600483527f52414449000000000000000000000000000000000000000000000000000000009083015290620000fc7f01ffc9a70000000000000000000000000000000000000000000000000000000064010000000062000802810204565b620001307f80ac58cd0000000000000000000000000000000000000000000000000000000064010000000062000802810204565b620001647f4f558e790000000000000000000000000000000000000000000000000000000064010000000062000802810204565b81516200017990600590602085019062000a25565b5080516200018f90600690602084019062000a25565b50620001c47f780e9d630000000000000000000000000000000000000000000000000000000064010000000062000802810204565b620001f87f5b5e139f0000000000000000000000000000000000000000000000000000000064010000000062000802810204565b5050600c8054600160a060020a0319163390811790915562000223906401000000006200086f810204565b604080516060808201835273b189f76323678e094d4996d182a792e52369c005825282518084018452601e81527f456c656374726f6e69632046726f6e7469657220466f756e646174696f6e000060208083019190915280840191825284519283018552603983527f68747470733a2f2f7777772e6566662e6f72672f70616765732f657468657265838201527f756d2d616e642d6c697465636f696e2d646f6e6174696f6e7300000000000000838601529383019190915260016000526011835281517f17bc176d2408558f6e4111feebc3cab4e16b63e967be91cde721f4c8a488b5528054600160a060020a031916600160a060020a0390921691909117815590518051929391926200035c927f17bc176d2408558f6e4111feebc3cab4e16b63e967be91cde721f4c8a488b55392019062000a25565b50604082015180516200037a91600284019160209091019062000a25565b5050601280546001808201909255600080516020620035b6833981519152015550604080516060808201835273998f25be40241ca5d8f5fcaf3591b5ed06ef3be7825282518084018452601f81527f46726565646f6d206f662074686520507265737320466f756e646174696f6e0060208083019190915280840191825284519283018552602c83527f68747470733a2f2f66726565646f6d2e70726573732f646f6e6174652f637279838201527f70746f63757272656e63792f0000000000000000000000000000000000000000838601529383019190915260026000526011835281517f08037d7b151cc412d25674a4e66b334d9ae9d2e5517a7feaae5cdb828bf1c6288054600160a060020a031916600160a060020a039092169190911781559051805192939192620004d4927f08037d7b151cc412d25674a4e66b334d9ae9d2e5517a7feaae5cdb828bf1c62992019062000a25565b5060408201518051620004f291600284019160209091019062000a25565b50506012805460018181019092556002600080516020620035b6833981519152909101556040805160c081018252602e606082019081527f516d55794c74744b525a786e65466d6d6f4554586f566679335831646d6f696d60808301527f513250464c72534e4d3545444d5200000000000000000000000000000000000060a0830152815281518083018352600681527f4772696e636800000000000000000000000000000000000000000000000000006020828101919091528281019190915282518084018452600b81527f477265656e2066656c6c61000000000000000000000000000000000000000000818301529282019290925260009290925260138152815180519293507f4155c2f711f2cdd34f8262ab8fb9b7020a700fe7b6948222152f7670d1fdf34d926200062c928492019062000a25565b50602082810151805162000647926001850192019062000a25565b50604082015180516200066591600284019160209091019062000a25565b5050601480546001818101909255600080516020620035d68339815191520155506040805160c081018252602e606082019081527f516d5344337757783474535873436144724b4d56485538614768587a6272754c60808301527f77316a4c6d34504255584c64543300000000000000000000000000000000000060a0830152815281518083018352600581527f536b756c6c0000000000000000000000000000000000000000000000000000006020828101919091528281019190915282518084018452600d81527f53616e746127732068656164210000000000000000000000000000000000000081830152928201929092526002600052601382528051805191927f0b9d2c0c271bb30544eb78c59bdaebdae2728e5f65814c07768a0abe90ed1923926200079a928492019062000a25565b506020828101518051620007b5926001850192019062000a25565b5060408201518051620007d391600284019160209091019062000a25565b5050601480546001810182556000919091526002600080516020620035d6833981519152909101555062000aca565b7fffffffff0000000000000000000000000000000000000000000000000000000080821614156200083257600080fd5b7fffffffff00000000000000000000000000000000000000000000000000000000166000908152602081905260409020805460ff19166001179055565b600c54600160a060020a031633146200088757600080fd5b620008d7816040805190810160405280600981526020017f77686974656c6973740000000000000000000000000000000000000000000000815250620008da640100000000026401000000009004565b50565b6200095682600d836040518082805190602001908083835b60208310620009135780518252601f199092019160209182019101620008f2565b51815160209384036101000a600019018019909216911617905292019485525060405193849003019092209291505064010000000062000a0081026200263d1704565b81600160a060020a03167fbfec83d64eaa953f2708271a023ab9ee82057f8f3578d548c1a4ba0b5b700489826040518080602001828103825283818151815260200191508051906020019080838360005b83811015620009c1578181015183820152602001620009a7565b50505050905090810190601f168015620009ef5780820380516001836020036101000a031916815260200191505b509250505060405180910390a25050565b600160a060020a0316600090815260209190915260409020805460ff19166001179055565b828054600181600116156101000203166002900490600052602060002090601f016020900481019282601f1062000a6857805160ff191683800117855562000a98565b8280016001018555821562000a98579182015b8281111562000a9857825182559160200191906001019062000a7b565b5062000aa692915062000aaa565b5090565b62000ac791905b8082111562000aa6576000815560010162000ab1565b90565b612adc8062000ada6000396000f3006080604052600436106102035763ffffffff7c010000000000000000000000000000000000000000000000000000000060003504166301ffc9a7811461020857806303cfe12d1461023e57806306fdde03146102a3578063081812fc1461032d578063095ea7b3146103615780630988ca8c14610387578063128ee161146103ee57806318160ddd146104fd57806318b919e91461052457806319fa8f5014610539578063217fe6c61461056b57806323b872dd146105d257806324953eaa146105fc578063286dd3f5146106515780632f745c59146106725780633b3a1a7a1461069657806342842e0e146106ab57806342966c68146106d557806346ddea30146106ed578063473b0d46146107495780634e99b800146107615780634f558e79146107765780634f6ccce71461078e5780635a3f2672146107a65780636352211e146107c757806370a08231146107df578063715018a6146108005780637b9417c8146108155780638da5cb5b146108365780638dc107681461084b5780638ef79e91146109a757806395d89b41146109c75780639b19251a146109dc578063a22cb465146109fd578063a7efa01f14610a23578063aaffadf314610a38578063b88d4fde14610a4d578063bdbf3a2c14610abc578063c87b56dd14610af9578063e2ec6ec314610b11578063e985e9c514610b66578063f2fde38b14610b8d575b600080fd5b34801561021457600080fd5b5061022a600160e060020a031960043516610bae565b604080519115158252519081900360200190f35b34801561024a57600080fd5b50610253610bcd565b60408051602080825283518183015283519192839290830191858101910280838360005b8381101561028f578181015183820152602001610277565b505050509050019250505060405180910390f35b3480156102af57600080fd5b506102b8610c26565b6040805160208082528351818301528351919283929083019185019080838360005b838110156102f25781810151838201526020016102da565b50505050905090810190601f16801561031f5780820380516001836020036101000a031916815260200191505b509250505060405180910390f35b34801561033957600080fd5b50610345600435610cb3565b60408051600160a060020a039092168252519081900360200190f35b34801561036d57600080fd5b50610385600160a060020a0360043516602435610cce565b005b34801561039357600080fd5b5060408051602060046024803582810135601f8101859004850286018501909652858552610385958335600160a060020a0316953695604494919390910191908190840183828082843750949750610d779650505050505050565b3480156103fa57600080fd5b50610406600435610de5565b6040518084600160a060020a0316600160a060020a031681526020018060200180602001838103835285818151815260200191508051906020019080838360005b8381101561045f578181015183820152602001610447565b50505050905090810190601f16801561048c5780820380516001836020036101000a031916815260200191505b50838103825284518152845160209182019186019080838360005b838110156104bf5781810151838201526020016104a7565b50505050905090810190601f1680156104ec5780820380516001836020036101000a031916815260200191505b509550505050505060405180910390f35b34801561050957600080fd5b50610512610f2b565b60408051918252519081900360200190f35b34801561053057600080fd5b506102b8610f31565b34801561054557600080fd5b5061054e610f56565b60408051600160e060020a03199092168252519081900360200190f35b34801561057757600080fd5b5060408051602060046024803582810135601f810185900485028601850190965285855261022a958335600160a060020a0316953695604494919390910191908190840183828082843750949750610f7a9650505050505050565b3480156105de57600080fd5b50610385600160a060020a0360043581169060243516604435610fed565b34801561060857600080fd5b5060408051602060048035808201358381028086018501909652808552610385953695939460249493850192918291850190849080828437509497506110909650505050505050565b34801561065d57600080fd5b50610385600160a060020a03600435166110df565b34801561067e57600080fd5b50610512600160a060020a0360043516602435611126565b3480156106a257600080fd5b50610512611173565b3480156106b757600080fd5b50610385600160a060020a0360043581169060243516604435611179565b3480156106e157600080fd5b5061038560043561119a565b60408051602060046024803582810135601f810185900485028601850190965285855261022a958335600160a060020a031695369560449491939091019190819084018382808284375094975050933594506111da9350505050565b34801561075557600080fd5b50610385600435611325565b34801561076d57600080fd5b506102b8611359565b34801561078257600080fd5b5061022a6004356113e7565b34801561079a57600080fd5b50610512600435611404565b3480156107b257600080fd5b50610253600160a060020a0360043516611439565b3480156107d357600080fd5b506103456004356114a5565b3480156107eb57600080fd5b50610512600160a060020a03600435166114cf565b34801561080c57600080fd5b50610385611502565b34801561082157600080fd5b50610385600160a060020a0360043516611563565b34801561084257600080fd5b506103456115a7565b34801561085757600080fd5b506108636004356115b6565b60405180806020018060200180602001848103845287818151815260200191508051906020019080838360005b838110156108a8578181015183820152602001610890565b50505050905090810190601f1680156108d55780820380516001836020036101000a031916815260200191505b50848103835286518152865160209182019188019080838360005b838110156109085781810151838201526020016108f0565b50505050905090810190601f1680156109355780820380516001836020036101000a031916815260200191505b50848103825285518152855160209182019187019080838360005b83811015610968578181015183820152602001610950565b50505050905090810190601f1680156109955780820380516001836020036101000a031916815260200191505b50965050505050505060405180910390f35b3480156109b357600080fd5b5061038560048035602481019101356116c0565b3480156109d357600080fd5b506102b8611757565b3480156109e857600080fd5b5061022a600160a060020a03600435166117b8565b348015610a0957600080fd5b50610385600160a060020a036004351660243515156117e7565b348015610a2f57600080fd5b5061025361186b565b348015610a4457600080fd5b506105126118c1565b348015610a5957600080fd5b50604080516020601f60643560048181013592830184900484028501840190955281845261038594600160a060020a0381358116956024803590921695604435953695608494019181908401838280828437509497506118c79650505050505050565b348015610ac857600080fd5b50610385600480359060248035600160a060020a0316916044358083019290820135916064359182019101356118e9565b348015610b0557600080fd5b506102b8600435611ad5565b348015610b1d57600080fd5b506040805160206004803580820135838102808601850190965280855261038595369593946024949385019291829185019084908082843750949750611c199650505050505050565b348015610b7257600080fd5b5061022a600160a060020a0360043581169060243516611c68565b348015610b9957600080fd5b50610385600160a060020a0360043516611c96565b600160e060020a03191660009081526020819052604090205460ff1690565b60606012805480602002602001604051908101604052809291908181526020018280548015610c1b57602002820191906000526020600020905b815481526020019060010190808311610c07575b505050505090505b90565b60058054604080516020601f6002600019610100600188161502019095169490940493840181900481028201810190925282815260609390929091830182828015610c1b5780601f10610c8757610100808354040283529160200191610c1b565b820191906000526020600020905b815481529060010190602001808311610c9557509395945050505050565b600090815260026020526040902054600160a060020a031690565b6000610cd9826114a5565b9050600160a060020a038381169082161415610cf457600080fd5b33600160a060020a0382161480610d105750610d108133611c68565b1515610d1b57600080fd5b6000828152600260205260408082208054600160a060020a031916600160a060020a0387811691821790925591518593918516917f8c5be1e5ebec7d5bd14f71427d1e84f3dd0314c0f7b2291e5b200ac8c7c3b92591a4505050565b610de182600d836040518082805190602001908083835b60208310610dad5780518252601f199092019160209182019101610d8e565b51815160209384036101000a6000190180199092169116179052920194855250604051938490030190922092915050611cb6565b5050565b6011602090815260009182526040918290208054600180830180548651600261010094831615949094026000190190911692909204601f8101869004860283018601909652858252600160a060020a03909216949293909290830182828015610e8f5780601f10610e6457610100808354040283529160200191610e8f565b820191906000526020600020905b815481529060010190602001808311610e7257829003601f168201915b50505060028085018054604080516020601f6000196101006001871615020190941695909504928301859004850281018501909152818152959695945090925090830182828015610f215780601f10610ef657610100808354040283529160200191610f21565b820191906000526020600020905b815481529060010190602001808311610f0457829003601f168201915b5050505050905083565b60095490565b6040805180820190915260098152600080516020612a91833981519152602082015281565b7f01ffc9a70000000000000000000000000000000000000000000000000000000081565b6000610fe683600d846040518082805190602001908083835b60208310610fb25780518252601f199092019160209182019101610f93565b51815160209384036101000a6000190180199092169116179052920194855250604051938490030190922092915050611ccb565b9392505050565b610ff73382611cea565b151561100257600080fd5b600160a060020a038316151561101757600080fd5b600160a060020a038216151561102c57600080fd5b6110368382611d49565b6110408382611dab565b61104a8282611eb2565b8082600160a060020a031684600160a060020a03167fddf252ad1be2c89b69c2b068fc378daa952ba7f163c4a11628f55a4df523b3ef60405160405180910390a4505050565b600c54600090600160a060020a031633146110aa57600080fd5b5060005b8151811015610de1576110d782828151811015156110c857fe5b906020019060200201516110df565b6001016110ae565b600c54600160a060020a031633146110f657600080fd5b61112381604080519081016040528060098152602001600080516020612a91833981519152815250611efb565b50565b6000611131836114cf565b821061113c57600080fd5b600160a060020a038316600090815260076020526040902080548390811061116057fe5b9060005260206000200154905092915050565b600f5481565b61119583838360206040519081016040528060008152506118c7565b505050565b336111c881604080519081016040528060098152602001600080516020612a91833981519152815250610d77565b610de16111d4836114a5565b8361200c565b60105460009034101561125d576040805160e560020a62461bcd02815260206004820152602560248201527f4d7573742073656e64206174206c6561737420746865206d696e696d756d206160448201527f6d6f756e74000000000000000000000000000000000000000000000000000000606482015290519081900360840190fd5b600082815260116020526040902054600160a060020a031615156112cb576040805160e560020a62461bcd02815260206004820181905260248201527f4d7573742073706563696679206578697374696e672062656e65666163746f72604482015290519081900360640190fd5b6112d58484612106565b600082815260116020526040808220549051600160a060020a03909116913480156108fc02929091818181858888f1935050505015801561131a573d6000803e3d6000fd5b506001949350505050565b3361135381604080519081016040528060098152602001600080516020612a91833981519152815250610d77565b50601055565b600e805460408051602060026001851615610100026000190190941693909304601f810184900484028201840190925281815292918301828280156113df5780601f106113b4576101008083540402835291602001916113df565b820191906000526020600020905b8154815290600101906020018083116113c257829003601f168201915b505050505081565b600090815260016020526040902054600160a060020a0316151590565b600061140e610f2b565b821061141957600080fd5b600980548390811061142757fe5b90600052602060002001549050919050565b600160a060020a03811660009081526007602090815260409182902080548351818402810184019094528084526060939283018282801561149957602002820191906000526020600020905b815481526020019060010190808311611485575b50505050509050919050565b600081815260016020526040812054600160a060020a03168015156114c957600080fd5b92915050565b6000600160a060020a03821615156114e657600080fd5b50600160a060020a031660009081526003602052604090205490565b600c54600160a060020a0316331461151957600080fd5b600c54604051600160a060020a03909116907ff8df31144d9c2f0f6b59d69b8b98abd5459d07f2742c4df920b25aae33c6482090600090a2600c8054600160a060020a0319169055565b600c54600160a060020a0316331461157a57600080fd5b61112381604080519081016040528060098152602001600080516020612a91833981519152815250612139565b600c54600160a060020a031681565b60136020908152600091825260409182902080548351601f6002600019610100600186161502019093169290920491820184900484028101840190945280845290929183919083018282801561164d5780601f106116225761010080835404028352916020019161164d565b820191906000526020600020905b81548152906001019060200180831161163057829003601f168201915b505050505090806001018054600181600116156101000203166002900480601f016020809104026020016040519081016040528092919081815260200182805460018160011615610100020316600290048015610e8f5780601f10610e6457610100808354040283529160200191610e8f565b336116ee81604080519081016040528060098152602001600080516020612a91833981519152815250610d77565b811515611745576040805160e560020a62461bcd02815260206004820152601060248201527f426173652055524920696e76616c696400000000000000000000000000000000604482015290519081900360640190fd5b611751600e8484612926565b50505050565b60068054604080516020601f6002600019610100600188161502019095169490940493840181900481028201810190925282815260609390929091830182828015610c1b5780601f10610c8757610100808354040283529160200191610c1b565b60006114c982604080519081016040528060098152602001600080516020612a91833981519152815250610f7a565b600160a060020a0382163314156117fd57600080fd5b336000818152600460209081526040808320600160a060020a03871680855290835292819020805460ff1916861515908117909155815190815290519293927f17307eab39ab6107e8899845ad3d59bd9653f200f220920489ca2b5937696c31929181900390910190a35050565b60606014805480602002602001604051908101604052809291908181526020018280548015610c1b5760200282019190600052602060002090815481526020019060010190808311610c07575050505050905090565b60105481565b6118d2848484610fed565b6118de8484848461220b565b151561175157600080fd5b3361191781604080519081016040528060098152602001600080516020612a91833981519152815250610d77565b600087815260116020526040902054600160a060020a0316156119aa576040805160e560020a62461bcd02815260206004820152602260248201527f4d757374206e6f7420626520616e206578697374696e672062656e656661637460448201527f6f72000000000000000000000000000000000000000000000000000000000000606482015290519081900360840190fd5b60606040519081016040528087600160a060020a0316815260200186868080601f016020809104026020016040519081016040528093929190818152602001838380828437820191505050505050815260200184848080601f01602080910402602001604051908101604052809392919081815260200183838082843750505092909352505050600088815260116020908152604090912082518154600160a060020a031916600160a060020a039091161781558282015180519192611a78926001850192909101906129a4565b5060408201518051611a949160028401916020909101906129a4565b5050601280546001810182556000919091527fbb8a6a4669ba250d26cd7a459eca9d215f8307e33aebe50379bc5a3617ec3444019790975550505050505050565b6060611ae0826113e7565b1515611aeb57600080fd5b600e8054604080516020601f600260001961010060018816150201909516949094049384018190048102820181019092528281526114c99390929091830182828015611b785780601f10611b4d57610100808354040283529160200191611b78565b820191906000526020600020905b815481529060010190602001808311611b5b57829003601f168201915b5050506000868152600b60209081526040918290208054835160026001831615610100026000190190921691909104601f810184900484028201840190945283815294509250830182828015611c0f5780601f10611be457610100808354040283529160200191611c0f565b820191906000526020600020905b815481529060010190602001808311611bf257829003601f168201915b5050505050612378565b600c54600090600160a060020a03163314611c3357600080fd5b5060005b8151811015610de157611c608282815181101515611c5157fe5b90602001906020020151611563565b600101611c37565b600160a060020a03918216600090815260046020908152604080832093909416825291909152205460ff1690565b600c54600160a060020a03163314611cad57600080fd5b611123816123ad565b611cc08282611ccb565b1515610de157600080fd5b600160a060020a03166000908152602091909152604090205460ff1690565b600080611cf6836114a5565b905080600160a060020a031684600160a060020a03161480611d31575083600160a060020a0316611d2684610cb3565b600160a060020a0316145b80611d415750611d418185611c68565b949350505050565b81600160a060020a0316611d5c826114a5565b600160a060020a031614611d6f57600080fd5b600081815260026020526040902054600160a060020a031615610de15760009081526002602052604090208054600160a060020a031916905550565b6000806000611dba858561241e565b600084815260086020908152604080832054600160a060020a0389168452600790925290912054909350611df590600163ffffffff6124a716565b600160a060020a038616600090815260076020526040902080549193509083908110611e1d57fe5b90600052602060002001549050806007600087600160a060020a0316600160a060020a0316815260200190815260200160002084815481101515611e5d57fe5b6000918252602080832090910192909255600160a060020a0387168152600790915260409020805490611e94906000198301612a12565b50600093845260086020526040808520859055908452909220555050565b6000611ebe83836124b9565b50600160a060020a039091166000908152600760209081526040808320805460018101825590845282842081018590559383526008909152902055565b611f6582600d836040518082805190602001908083835b60208310611f315780518252601f199092019160209182019101611f12565b51815160209384036101000a600019018019909216911617905292019485525060405193849003019092209291505061253c565b81600160a060020a03167fd211483f91fc6eff862467f8de606587a30c8fc9981056f051b897a418df803a826040518080602001828103825283818151815260200191508051906020019080838360005b83811015611fce578181015183820152602001611fb6565b50505050905090810190601f168015611ffb5780820380516001836020036101000a031916815260200191505b509250505060405180910390a25050565b600080600061201b858561255e565b6000848152600b60205260409020546002600019610100600184161502019091160415612059576000848152600b6020526040812061205991612a36565b6000848152600a602052604090205460095490935061207f90600163ffffffff6124a716565b915060098281548110151561209057fe5b90600052602060002001549050806009848154811015156120ad57fe5b600091825260208220019190915560098054849081106120c957fe5b60009182526020909120015560098054906120e8906000198301612a12565b506000938452600a6020526040808520859055908452909220555050565b600f5461211383826125ae565b61211d81836125fd565b600f5461213190600163ffffffff61263016565b600f55505050565b6121a382600d836040518082805190602001908083835b6020831061216f5780518252601f199092019160209182019101612150565b51815160209384036101000a600019018019909216911617905292019485525060405193849003019092209291505061263d565b81600160a060020a03167fbfec83d64eaa953f2708271a023ab9ee82057f8f3578d548c1a4ba0b5b7004898260405180806020018281038252838181518152602001915080519060200190808383600083811015611fce578181015183820152602001611fb6565b60008061222085600160a060020a0316612662565b151561222f576001915061236f565b6040517f150b7a020000000000000000000000000000000000000000000000000000000081523360048201818152600160a060020a03898116602485015260448401889052608060648501908152875160848601528751918a169463150b7a0294938c938b938b93909160a490910190602085019080838360005b838110156122c25781810151838201526020016122aa565b50505050905090810190601f1680156122ef5780820380516001836020036101000a031916815260200191505b5095505050505050602060405180830381600087803b15801561231157600080fd5b505af1158015612325573d6000803e3d6000fd5b505050506040513d602081101561233b57600080fd5b5051600160e060020a031981167f150b7a020000000000000000000000000000000000000000000000000000000014925090505b50949350505050565b604080516020818101835260008083528351808301855281815284519283019094528152606092610fe692869286929061266a565b600160a060020a03811615156123c257600080fd5b600c54604051600160a060020a038084169216907f8be0079c531659141344cd1fd0a4f28419497f9722a3daafe3b4186f6b6457e090600090a3600c8054600160a060020a031916600160a060020a0392909216919091179055565b81600160a060020a0316612431826114a5565b600160a060020a03161461244457600080fd5b600160a060020a03821660009081526003602052604090205461246e90600163ffffffff6124a716565b600160a060020a039092166000908152600360209081526040808320949094559181526001909152208054600160a060020a0319169055565b6000828211156124b357fe5b50900390565b600081815260016020526040902054600160a060020a0316156124db57600080fd5b60008181526001602081815260408084208054600160a060020a031916600160a060020a038816908117909155845260039091529091205461251c91612630565b600160a060020a0390921660009081526003602052604090209190915550565b600160a060020a0316600090815260209190915260409020805460ff19169055565b6125688282611d49565b6125728282611dab565b6040518190600090600160a060020a038516907fddf252ad1be2c89b69c2b068fc378daa952ba7f163c4a11628f55a4df523b3ef908390a45050565b6125b882826128cb565b600980546000838152600a60205260408120829055600182018355919091527f6e1540171b6c0c960b71a7020d9f60077f6af931a8bbf590da0223dacf75c7af015550565b612606826113e7565b151561261157600080fd5b6000828152600b602090815260409091208251611195928401906129a4565b818101828110156114c957fe5b600160a060020a0316600090815260209190915260409020805460ff19166001179055565b6000903b1190565b6060806060806060806060806000808e98508d97508c96508b95508a94508451865188518a518c51010101016040519080825280601f01601f1916602001820160405280156126c3578160200160208202803883390190505b50935083925060009150600090505b88518110156127305788818151811015156126e957fe5b90602001015160f860020a900460f860020a02838380600101945081518110151561271057fe5b906020010190600160f860020a031916908160001a9053506001016126d2565b5060005b875181101561279257878181518110151561274b57fe5b90602001015160f860020a900460f860020a02838380600101945081518110151561277257fe5b906020010190600160f860020a031916908160001a905350600101612734565b5060005b86518110156127f45786818151811015156127ad57fe5b90602001015160f860020a900460f860020a0283838060010194508151811015156127d457fe5b906020010190600160f860020a031916908160001a905350600101612796565b5060005b855181101561285657858181518110151561280f57fe5b90602001015160f860020a900460f860020a02838380600101945081518110151561283657fe5b906020010190600160f860020a031916908160001a9053506001016127f8565b5060005b84518110156128b857848181518110151561287157fe5b90602001015160f860020a900460f860020a02838380600101945081518110151561289857fe5b906020010190600160f860020a031916908160001a90535060010161285a565b50909d9c50505050505050505050505050565b600160a060020a03821615156128e057600080fd5b6128ea8282611eb2565b6040518190600160a060020a038416906000907fddf252ad1be2c89b69c2b068fc378daa952ba7f163c4a11628f55a4df523b3ef908290a45050565b828054600181600116156101000203166002900490600052602060002090601f016020900481019282601f106129675782800160ff19823516178555612994565b82800160010185558215612994579182015b82811115612994578235825591602001919060010190612979565b506129a0929150612a76565b5090565b828054600181600116156101000203166002900490600052602060002090601f016020900481019282601f106129e557805160ff1916838001178555612994565b82800160010185558215612994579182015b828111156129945782518255916020019190600101906129f7565b81548183558181111561119557600083815260209020611195918101908301612a76565b50805460018160011615610100020316600290046000825580601f10612a5c5750611123565b601f01602090049060005260206000209081019061112391905b610c2391905b808211156129a05760008155600101612a7c560077686974656c6973740000000000000000000000000000000000000000000000a165627a7a72305820509af1fa54dd1006e34b03990ec3e2409caeed2a6904e81c859a415727d9e81c0029bb8a6a4669ba250d26cd7a459eca9d215f8307e33aebe50379bc5a3617ec3444ce6d7b5282bd9a3661ae061feed1dbda4e52ab073b1f9285be6e155d9c38d4ec",
  "source": "pragma solidity ^0.4.24;\n\nimport \"openzeppelin-solidity/contracts/math/SafeMath.sol\";\nimport \"openzeppelin-solidity/contracts/access/Whitelist.sol\";\nimport \"openzeppelin-solidity/contracts/token/ERC721/ERC721Token.sol\";\n\nimport \"./Strings.sol\";\n\n/**\n* @title Radi.Cards\n*\n* Non-profit e-card NFT for good!\n*\n*/\ncontract RadiCards is ERC721Token, Whitelist {\n  using SafeMath for uint256;\n\n  string public tokenBaseURI = \"https://ipfs.infura.io/ipfs/\";\n\n  // A pointer to the next token to be minted, zero indexed\n  uint256 public tokenIdPointer = 0;\n\n  uint256 public minContribution = 0.05 ether;\n\n  struct Benefactor {\n    address ethAddress;\n    string name;\n    string website;\n  }\n\n  struct Card {\n    string ipfs;\n    string name;\n    string description;\n  }\n\n  mapping(uint256 => Benefactor) public benefactors;\n  uint256[] internal benefactorsIndex;\n\n  mapping(uint256 => Card) public cards;\n  uint256[] internal cardsIndex;\n\n  constructor () public ERC721Token(\"RadiCards\", \"RADI\") {\n    addAddressToWhitelist(msg.sender);\n\n    benefactors[1] = Benefactor(\n      address(0xb189f76323678E094D4996d182A792E52369c005),\n      \"Electronic Frontier Foundation\",\n      \"https://www.eff.org/pages/ethereum-and-litecoin-donations\"\n    );\n    benefactorsIndex.push(1);\n\n    benefactors[2] = Benefactor(\n      address(0x998F25Be40241CA5D8F5fCaF3591B5ED06EF3Be7),\n      \"Freedom of the Press Foundation\",\n      \"https://freedom.press/donate/cryptocurrency/\"\n    );\n    benefactorsIndex.push(2);\n\n    cards[1] = Card(\n      \"QmUyLttKRZxneFmmoETXoVfy3X1dmoimQ2PFLrSNM5EDMR\",\n      \"Grinch\",\n      \"Green fella\"\n    );\n    cardsIndex.push(1);\n\n    cards[2] = Card(\n      \"QmSD3wWx4tSXsCaDrKMVHU8aGhXzbruLw1jLm4PBUXLdT3\",\n      \"Skull\",\n      \"Santa's head!\"\n    );\n    cardsIndex.push(2);\n  }\n\n  function gift(address to, string tokenURI, uint256 _benefactor) payable public returns (bool) {\n    require(msg.value >= minContribution, \"Must send at least the minimum amount\");\n    require(benefactors[_benefactor].ethAddress != address(0), \"Must specify existing benefactor\");\n\n    _mint(to, tokenURI);\n\n    benefactors[_benefactor].ethAddress.transfer(msg.value);\n\n    return true;\n  }\n\n  function _mint(address to, string tokenURI) internal {\n    uint256 tokenId = tokenIdPointer;\n\n    _mint(to, tokenId);\n    _setTokenURI(tokenId, tokenURI);\n\n    tokenIdPointer = tokenIdPointer.add(1);\n  }\n\n  function burn(uint256 tokenId) public onlyIfWhitelisted(msg.sender) {\n    // Super burn\n    _burn(ownerOf(tokenId), tokenId);\n  }\n\n  function setTokenBaseURI(string _newBaseURI) external onlyIfWhitelisted(msg.sender) {\n    require(bytes(_newBaseURI).length != 0, \"Base URI invalid\");\n    tokenBaseURI = _newBaseURI;\n  }\n\n  function setMinContribution(uint256 _minContribution) external onlyIfWhitelisted(msg.sender) {\n    minContribution = _minContribution;\n  }\n\n  function tokenURI(uint256 _tokenId) public view returns (string) {\n    require(exists(_tokenId));\n    return Strings.strConcat(tokenBaseURI, tokenURIs[_tokenId]);\n  }\n\n  function tokensOf(address _owner) public view returns (uint256[] _tokenIds) {\n    return ownedTokens[_owner];\n  }\n\n  function benefactorsKeys() public view returns (uint256[] _keys) {\n    return benefactorsIndex;\n  }\n\n  function cardKeys() public view returns (uint256[] _keys) {\n    return cardsIndex;\n  }\n\n  function addBenefactor(uint256 _index, address _ethAddress, string _name, string _website) external onlyIfWhitelisted(msg.sender) {\n    require(benefactors[_index].ethAddress == address(0), \"Must not be an existing benefactor\");\n\n    benefactors[_index] = Benefactor(\n      _ethAddress,\n      _name,\n      _website\n    );\n    benefactorsIndex.push(_index);\n  }\n}\n",
  "sourcePath": "/Users/andy/workspace/radi-cards/contracts/RadiCards.sol",
  "compiler": {
    "name": "solc",
    "version": "0.4.24+commit.e67f0147.Emscripten.clang"
  },
  "schemaVersion": "3.0.0-beta.1",
  "updatedAt": "2018-12-05T11:19:00.440Z"
}