{
  "contractName": "RadiCards",
  "abi": [
    {
      "constant": true,
      "inputs": [
        {
          "name": "_interfaceId",
          "type": "bytes4"
        }
      ],
      "name": "supportsInterface",
      "outputs": [
        {
          "name": "",
          "type": "bool"
        }
      ],
      "payable": false,
      "stateMutability": "view",
      "type": "function",
      "signature": "0x01ffc9a7"
    },
    {
      "constant": true,
      "inputs": [],
      "name": "name",
      "outputs": [
        {
          "name": "",
          "type": "string"
        }
      ],
      "payable": false,
      "stateMutability": "view",
      "type": "function",
      "signature": "0x06fdde03"
    },
    {
      "constant": true,
      "inputs": [
        {
          "name": "_tokenId",
          "type": "uint256"
        }
      ],
      "name": "getApproved",
      "outputs": [
        {
          "name": "",
          "type": "address"
        }
      ],
      "payable": false,
      "stateMutability": "view",
      "type": "function",
      "signature": "0x081812fc"
    },
    {
      "constant": false,
      "inputs": [
        {
          "name": "_to",
          "type": "address"
        },
        {
          "name": "_tokenId",
          "type": "uint256"
        }
      ],
      "name": "approve",
      "outputs": [],
      "payable": false,
      "stateMutability": "nonpayable",
      "type": "function",
      "signature": "0x095ea7b3"
    },
    {
      "constant": true,
      "inputs": [
        {
          "name": "_operator",
          "type": "address"
        },
        {
          "name": "_role",
          "type": "string"
        }
      ],
      "name": "checkRole",
      "outputs": [],
      "payable": false,
      "stateMutability": "view",
      "type": "function",
      "signature": "0x0988ca8c"
    },
    {
      "constant": true,
      "inputs": [],
      "name": "totalSupply",
      "outputs": [
        {
          "name": "",
          "type": "uint256"
        }
      ],
      "payable": false,
      "stateMutability": "view",
      "type": "function",
      "signature": "0x18160ddd"
    },
    {
      "constant": true,
      "inputs": [],
      "name": "ROLE_WHITELISTED",
      "outputs": [
        {
          "name": "",
          "type": "string"
        }
      ],
      "payable": false,
      "stateMutability": "view",
      "type": "function",
      "signature": "0x18b919e9"
    },
    {
      "constant": true,
      "inputs": [],
      "name": "InterfaceId_ERC165",
      "outputs": [
        {
          "name": "",
          "type": "bytes4"
        }
      ],
      "payable": false,
      "stateMutability": "view",
      "type": "function",
      "signature": "0x19fa8f50"
    },
    {
      "constant": true,
      "inputs": [
        {
          "name": "_operator",
          "type": "address"
        },
        {
          "name": "_role",
          "type": "string"
        }
      ],
      "name": "hasRole",
      "outputs": [
        {
          "name": "",
          "type": "bool"
        }
      ],
      "payable": false,
      "stateMutability": "view",
      "type": "function",
      "signature": "0x217fe6c6"
    },
    {
      "constant": false,
      "inputs": [
        {
          "name": "_from",
          "type": "address"
        },
        {
          "name": "_to",
          "type": "address"
        },
        {
          "name": "_tokenId",
          "type": "uint256"
        }
      ],
      "name": "transferFrom",
      "outputs": [],
      "payable": false,
      "stateMutability": "nonpayable",
      "type": "function",
      "signature": "0x23b872dd"
    },
    {
      "constant": false,
      "inputs": [
        {
          "name": "_operators",
          "type": "address[]"
        }
      ],
      "name": "removeAddressesFromWhitelist",
      "outputs": [],
      "payable": false,
      "stateMutability": "nonpayable",
      "type": "function",
      "signature": "0x24953eaa"
    },
    {
      "constant": false,
      "inputs": [
        {
          "name": "_operator",
          "type": "address"
        }
      ],
      "name": "removeAddressFromWhitelist",
      "outputs": [],
      "payable": false,
      "stateMutability": "nonpayable",
      "type": "function",
      "signature": "0x286dd3f5"
    },
    {
      "constant": true,
      "inputs": [
        {
          "name": "_owner",
          "type": "address"
        },
        {
          "name": "_index",
          "type": "uint256"
        }
      ],
      "name": "tokenOfOwnerByIndex",
      "outputs": [
        {
          "name": "",
          "type": "uint256"
        }
      ],
      "payable": false,
      "stateMutability": "view",
      "type": "function",
      "signature": "0x2f745c59"
    },
    {
      "constant": true,
      "inputs": [],
      "name": "tokenIdPointer",
      "outputs": [
        {
          "name": "",
          "type": "uint256"
        }
      ],
      "payable": false,
      "stateMutability": "view",
      "type": "function",
      "signature": "0x3b3a1a7a"
    },
    {
      "constant": false,
      "inputs": [
        {
          "name": "_from",
          "type": "address"
        },
        {
          "name": "_to",
          "type": "address"
        },
        {
          "name": "_tokenId",
          "type": "uint256"
        }
      ],
      "name": "safeTransferFrom",
      "outputs": [],
      "payable": false,
      "stateMutability": "nonpayable",
      "type": "function",
      "signature": "0x42842e0e"
    },
    {
      "constant": true,
      "inputs": [],
      "name": "tokenBaseURI",
      "outputs": [
        {
          "name": "",
          "type": "string"
        }
      ],
      "payable": false,
      "stateMutability": "view",
      "type": "function",
      "signature": "0x4e99b800"
    },
    {
      "constant": true,
      "inputs": [
        {
          "name": "_tokenId",
          "type": "uint256"
        }
      ],
      "name": "exists",
      "outputs": [
        {
          "name": "",
          "type": "bool"
        }
      ],
      "payable": false,
      "stateMutability": "view",
      "type": "function",
      "signature": "0x4f558e79"
    },
    {
      "constant": true,
      "inputs": [
        {
          "name": "_index",
          "type": "uint256"
        }
      ],
      "name": "tokenByIndex",
      "outputs": [
        {
          "name": "",
          "type": "uint256"
        }
      ],
      "payable": false,
      "stateMutability": "view",
      "type": "function",
      "signature": "0x4f6ccce7"
    },
    {
      "constant": true,
      "inputs": [
        {
          "name": "_tokenId",
          "type": "uint256"
        }
      ],
      "name": "ownerOf",
      "outputs": [
        {
          "name": "",
          "type": "address"
        }
      ],
      "payable": false,
      "stateMutability": "view",
      "type": "function",
      "signature": "0x6352211e"
    },
    {
      "constant": true,
      "inputs": [
        {
          "name": "_owner",
          "type": "address"
        }
      ],
      "name": "balanceOf",
      "outputs": [
        {
          "name": "",
          "type": "uint256"
        }
      ],
      "payable": false,
      "stateMutability": "view",
      "type": "function",
      "signature": "0x70a08231"
    },
    {
      "constant": false,
      "inputs": [],
      "name": "renounceOwnership",
      "outputs": [],
      "payable": false,
      "stateMutability": "nonpayable",
      "type": "function",
      "signature": "0x715018a6"
    },
    {
      "constant": false,
      "inputs": [
        {
          "name": "_operator",
          "type": "address"
        }
      ],
      "name": "addAddressToWhitelist",
      "outputs": [],
      "payable": false,
      "stateMutability": "nonpayable",
      "type": "function",
      "signature": "0x7b9417c8"
    },
    {
      "constant": true,
      "inputs": [],
      "name": "owner",
      "outputs": [
        {
          "name": "",
          "type": "address"
        }
      ],
      "payable": false,
      "stateMutability": "view",
      "type": "function",
      "signature": "0x8da5cb5b"
    },
    {
      "constant": true,
      "inputs": [],
      "name": "symbol",
      "outputs": [
        {
          "name": "",
          "type": "string"
        }
      ],
      "payable": false,
      "stateMutability": "view",
      "type": "function",
      "signature": "0x95d89b41"
    },
    {
      "constant": true,
      "inputs": [
        {
          "name": "_operator",
          "type": "address"
        }
      ],
      "name": "whitelist",
      "outputs": [
        {
          "name": "",
          "type": "bool"
        }
      ],
      "payable": false,
      "stateMutability": "view",
      "type": "function",
      "signature": "0x9b19251a"
    },
    {
      "constant": false,
      "inputs": [
        {
          "name": "_to",
          "type": "address"
        },
        {
          "name": "_approved",
          "type": "bool"
        }
      ],
      "name": "setApprovalForAll",
      "outputs": [],
      "payable": false,
      "stateMutability": "nonpayable",
      "type": "function",
      "signature": "0xa22cb465"
    },
    {
      "constant": false,
      "inputs": [
        {
          "name": "_from",
          "type": "address"
        },
        {
          "name": "_to",
          "type": "address"
        },
        {
          "name": "_tokenId",
          "type": "uint256"
        },
        {
          "name": "_data",
          "type": "bytes"
        }
      ],
      "name": "safeTransferFrom",
      "outputs": [],
      "payable": false,
      "stateMutability": "nonpayable",
      "type": "function",
      "signature": "0xb88d4fde"
    },
    {
      "constant": false,
      "inputs": [
        {
          "name": "_operators",
          "type": "address[]"
        }
      ],
      "name": "addAddressesToWhitelist",
      "outputs": [],
      "payable": false,
      "stateMutability": "nonpayable",
      "type": "function",
      "signature": "0xe2ec6ec3"
    },
    {
      "constant": true,
      "inputs": [
        {
          "name": "_owner",
          "type": "address"
        },
        {
          "name": "_operator",
          "type": "address"
        }
      ],
      "name": "isApprovedForAll",
      "outputs": [
        {
          "name": "",
          "type": "bool"
        }
      ],
      "payable": false,
      "stateMutability": "view",
      "type": "function",
      "signature": "0xe985e9c5"
    },
    {
      "constant": false,
      "inputs": [
        {
          "name": "_newOwner",
          "type": "address"
        }
      ],
      "name": "transferOwnership",
      "outputs": [],
      "payable": false,
      "stateMutability": "nonpayable",
      "type": "function",
      "signature": "0xf2fde38b"
    },
    {
      "inputs": [],
      "payable": false,
      "stateMutability": "nonpayable",
      "type": "constructor",
      "signature": "constructor"
    },
    {
      "anonymous": false,
      "inputs": [
        {
          "indexed": true,
          "name": "operator",
          "type": "address"
        },
        {
          "indexed": false,
          "name": "role",
          "type": "string"
        }
      ],
      "name": "RoleAdded",
      "type": "event",
      "signature": "0xbfec83d64eaa953f2708271a023ab9ee82057f8f3578d548c1a4ba0b5b700489"
    },
    {
      "anonymous": false,
      "inputs": [
        {
          "indexed": true,
          "name": "operator",
          "type": "address"
        },
        {
          "indexed": false,
          "name": "role",
          "type": "string"
        }
      ],
      "name": "RoleRemoved",
      "type": "event",
      "signature": "0xd211483f91fc6eff862467f8de606587a30c8fc9981056f051b897a418df803a"
    },
    {
      "anonymous": false,
      "inputs": [
        {
          "indexed": true,
          "name": "previousOwner",
          "type": "address"
        }
      ],
      "name": "OwnershipRenounced",
      "type": "event",
      "signature": "0xf8df31144d9c2f0f6b59d69b8b98abd5459d07f2742c4df920b25aae33c64820"
    },
    {
      "anonymous": false,
      "inputs": [
        {
          "indexed": true,
          "name": "previousOwner",
          "type": "address"
        },
        {
          "indexed": true,
          "name": "newOwner",
          "type": "address"
        }
      ],
      "name": "OwnershipTransferred",
      "type": "event",
      "signature": "0x8be0079c531659141344cd1fd0a4f28419497f9722a3daafe3b4186f6b6457e0"
    },
    {
      "anonymous": false,
      "inputs": [
        {
          "indexed": true,
          "name": "_from",
          "type": "address"
        },
        {
          "indexed": true,
          "name": "_to",
          "type": "address"
        },
        {
          "indexed": true,
          "name": "_tokenId",
          "type": "uint256"
        }
      ],
      "name": "Transfer",
      "type": "event",
      "signature": "0xddf252ad1be2c89b69c2b068fc378daa952ba7f163c4a11628f55a4df523b3ef"
    },
    {
      "anonymous": false,
      "inputs": [
        {
          "indexed": true,
          "name": "_owner",
          "type": "address"
        },
        {
          "indexed": true,
          "name": "_approved",
          "type": "address"
        },
        {
          "indexed": true,
          "name": "_tokenId",
          "type": "uint256"
        }
      ],
      "name": "Approval",
      "type": "event",
      "signature": "0x8c5be1e5ebec7d5bd14f71427d1e84f3dd0314c0f7b2291e5b200ac8c7c3b925"
    },
    {
      "anonymous": false,
      "inputs": [
        {
          "indexed": true,
          "name": "_owner",
          "type": "address"
        },
        {
          "indexed": true,
          "name": "_operator",
          "type": "address"
        },
        {
          "indexed": false,
          "name": "_approved",
          "type": "bool"
        }
      ],
      "name": "ApprovalForAll",
      "type": "event",
      "signature": "0x17307eab39ab6107e8899845ad3d59bd9653f200f220920489ca2b5937696c31"
    },
    {
      "constant": false,
      "inputs": [
        {
          "name": "tokenURI",
          "type": "string"
        }
      ],
      "name": "mint",
      "outputs": [
        {
          "name": "",
          "type": "bool"
        }
      ],
      "payable": false,
      "stateMutability": "nonpayable",
      "type": "function",
      "signature": "0xd85d3d27"
    },
    {
      "constant": false,
      "inputs": [
        {
          "name": "to",
          "type": "address"
        },
        {
          "name": "tokenURI",
          "type": "string"
        }
      ],
      "name": "mintTo",
      "outputs": [
        {
          "name": "",
          "type": "bool"
        }
      ],
      "payable": false,
      "stateMutability": "nonpayable",
      "type": "function",
      "signature": "0x0075a317"
    },
    {
      "constant": false,
      "inputs": [
        {
          "name": "tokenId",
          "type": "uint256"
        }
      ],
      "name": "burn",
      "outputs": [],
      "payable": false,
      "stateMutability": "nonpayable",
      "type": "function",
      "signature": "0x42966c68"
    },
    {
      "constant": false,
      "inputs": [
        {
          "name": "tokenId",
          "type": "uint256"
        },
        {
          "name": "uri",
          "type": "string"
        }
      ],
      "name": "setTokenURI",
      "outputs": [],
      "payable": false,
      "stateMutability": "nonpayable",
      "type": "function",
      "signature": "0x162094c4"
    },
    {
      "constant": false,
      "inputs": [
        {
          "name": "_newBaseURI",
          "type": "string"
        }
      ],
      "name": "setTokenBaseURI",
      "outputs": [],
      "payable": false,
      "stateMutability": "nonpayable",
      "type": "function",
      "signature": "0x8ef79e91"
    },
    {
      "constant": true,
      "inputs": [
        {
          "name": "_tokenId",
          "type": "uint256"
        }
      ],
      "name": "tokenURI",
      "outputs": [
        {
          "name": "",
          "type": "string"
        }
      ],
      "payable": false,
      "stateMutability": "view",
      "type": "function",
      "signature": "0xc87b56dd"
    },
    {
      "constant": true,
      "inputs": [
        {
          "name": "_owner",
          "type": "address"
        }
      ],
      "name": "tokensOf",
      "outputs": [
        {
          "name": "_tokenIds",
          "type": "uint256[]"
        }
      ],
      "payable": false,
      "stateMutability": "view",
      "type": "function",
      "signature": "0x5a3f2672"
    }
  ],
  "bytecode": "0x60c0604052601c60808190527f68747470733a2f2f697066732e696e667572612e696f2f697066732f0000000060a09081526200004091600e919062000441565b506000600f553480156200005357600080fd5b50604080518082018252600981527f52616469436172647300000000000000000000000000000000000000000000006020808301919091528251808401909352600483527f52414449000000000000000000000000000000000000000000000000000000009083015290620000f17f01ffc9a7000000000000000000000000000000000000000000000000000000006401000000006200021e810204565b620001257f80ac58cd000000000000000000000000000000000000000000000000000000006401000000006200021e810204565b620001597f4f558e79000000000000000000000000000000000000000000000000000000006401000000006200021e810204565b81516200016e90600590602085019062000441565b5080516200018490600690602084019062000441565b50620001b97f780e9d63000000000000000000000000000000000000000000000000000000006401000000006200021e810204565b620001ed7f5b5e139f000000000000000000000000000000000000000000000000000000006401000000006200021e810204565b5050600c8054600160a060020a0319163390811790915562000218906401000000006200028b810204565b620004e6565b7fffffffff0000000000000000000000000000000000000000000000000000000080821614156200024e57600080fd5b7fffffffff00000000000000000000000000000000000000000000000000000000166000908152602081905260409020805460ff19166001179055565b600c54600160a060020a03163314620002a357600080fd5b620002f3816040805190810160405280600981526020017f77686974656c6973740000000000000000000000000000000000000000000000815250620002f6640100000000026401000000009004565b50565b6200037282600d836040518082805190602001908083835b602083106200032f5780518252601f1990920191602091820191016200030e565b51815160209384036101000a60001901801990921691161790529201948552506040519384900301909220929150506401000000006200041c810262001e281704565b81600160a060020a03167fbfec83d64eaa953f2708271a023ab9ee82057f8f3578d548c1a4ba0b5b700489826040518080602001828103825283818151815260200191508051906020019080838360005b83811015620003dd578181015183820152602001620003c3565b50505050905090810190601f1680156200040b5780820380516001836020036101000a031916815260200191505b509250505060405180910390a25050565b600160a060020a0316600090815260209190915260409020805460ff19166001179055565b828054600181600116156101000203166002900490600052602060002090601f016020900481019282601f106200048457805160ff1916838001178555620004b4565b82800160010185558215620004b4579182015b82811115620004b457825182559160200191906001019062000497565b50620004c2929150620004c6565b5090565b620004e391905b80821115620004c25760008155600101620004cd565b90565b6122c780620004f66000396000f3006080604052600436106101cb5763ffffffff7c010000000000000000000000000000000000000000000000000000000060003504166275a31781146101d057806301ffc9a71461024b57806306fdde031461026d578063081812fc146102f7578063095ea7b31461032b5780630988ca8c14610351578063162094c4146103b857806318160ddd1461041657806318b919e91461043d57806319fa8f5014610452578063217fe6c61461048457806323b872dd146104eb57806324953eaa14610515578063286dd3f51461056a5780632f745c591461058b5780633b3a1a7a146105af57806342842e0e146105c457806342966c68146105ee5780634e99b800146106065780634f558e791461061b5780634f6ccce7146106335780635a3f26721461064b5780636352211e146106bc57806370a08231146106d4578063715018a6146106f55780637b9417c81461070a5780638da5cb5b1461072b5780638ef79e911461074057806395d89b41146107605780639b19251a14610775578063a22cb46514610796578063b88d4fde146107bc578063c87b56dd1461082b578063d85d3d2714610843578063e2ec6ec31461089c578063e985e9c5146108f1578063f2fde38b14610918575b600080fd5b3480156101dc57600080fd5b5060408051602060046024803582810135601f8101859004850286018501909652858552610237958335600160a060020a03169536956044949193909101919081908401838280828437509497506109399650505050505050565b604080519115158252519081900360200190f35b34801561025757600080fd5b50610237600160e060020a03196004351661094e565b34801561027957600080fd5b5061028261096d565b6040805160208082528351818301528351919283929083019185019080838360005b838110156102bc5781810151838201526020016102a4565b50505050905090810190601f1680156102e95780820380516001836020036101000a031916815260200191505b509250505060405180910390f35b34801561030357600080fd5b5061030f600435610a04565b60408051600160a060020a039092168252519081900360200190f35b34801561033757600080fd5b5061034f600160a060020a0360043516602435610a1f565b005b34801561035d57600080fd5b5060408051602060046024803582810135601f810185900485028601850190965285855261034f958335600160a060020a0316953695604494919390910191908190840183828082843750949750610ad59650505050505050565b3480156103c457600080fd5b5060408051602060046024803582810135601f810185900485028601850190965285855261034f958335953695604494919390910191908190840183828082843750949750610b439650505050505050565b34801561042257600080fd5b5061042b610b80565b60408051918252519081900360200190f35b34801561044957600080fd5b50610282610b86565b34801561045e57600080fd5b50610467610bab565b60408051600160e060020a03199092168252519081900360200190f35b34801561049057600080fd5b5060408051602060046024803582810135601f8101859004850286018501909652858552610237958335600160a060020a0316953695604494919390910191908190840183828082843750949750610bcf9650505050505050565b3480156104f757600080fd5b5061034f600160a060020a0360043581169060243516604435610c42565b34801561052157600080fd5b506040805160206004803580820135838102808601850190965280855261034f95369593946024949385019291829185019084908082843750949750610ce59650505050505050565b34801561057657600080fd5b5061034f600160a060020a0360043516610d34565b34801561059757600080fd5b5061042b600160a060020a0360043516602435610d7b565b3480156105bb57600080fd5b5061042b610dc8565b3480156105d057600080fd5b5061034f600160a060020a0360043581169060243516604435610dce565b3480156105fa57600080fd5b5061034f600435610dea565b34801561061257600080fd5b50610282610e2a565b34801561062757600080fd5b50610237600435610eb8565b34801561063f57600080fd5b5061042b600435610ed5565b34801561065757600080fd5b5061066c600160a060020a0360043516610f0a565b60408051602080825283518183015283519192839290830191858101910280838360005b838110156106a8578181015183820152602001610690565b505050509050019250505060405180910390f35b3480156106c857600080fd5b5061030f600435610f76565b3480156106e057600080fd5b5061042b600160a060020a0360043516610fa0565b34801561070157600080fd5b5061034f610fd3565b34801561071657600080fd5b5061034f600160a060020a0360043516611041565b34801561073757600080fd5b5061030f611085565b34801561074c57600080fd5b5061034f6004803560248101910135611094565b34801561076c57600080fd5b50610282611142565b34801561078157600080fd5b50610237600160a060020a03600435166111a3565b3480156107a257600080fd5b5061034f600160a060020a036004351660243515156111d2565b3480156107c857600080fd5b50604080516020601f60643560048181013592830184900484028501840190955281845261034f94600160a060020a0381358116956024803590921695604435953695608494019181908401838280828437509497506112569650505050505050565b34801561083757600080fd5b50610282600435611278565b34801561084f57600080fd5b506040805160206004803580820135601f81018490048402850184019095528484526102379436949293602493928401919081908401838280828437509497506113bc9650505050505050565b3480156108a857600080fd5b506040805160206004803580820135838102808601850190965280855261034f953695939460249493850192918291850190849080828437509497506113d09650505050505050565b3480156108fd57600080fd5b50610237600160a060020a036004358116906024351661141f565b34801561092457600080fd5b5061034f600160a060020a036004351661144d565b6000610945838361146d565b50600192915050565b600160e060020a03191660009081526020819052604090205460ff1690565b60058054604080516020601f60026000196101006001881615020190951694909404938401819004810282018101909252828152606093909290918301828280156109f95780601f106109ce576101008083540402835291602001916109f9565b820191906000526020600020905b8154815290600101906020018083116109dc57829003601f168201915b505050505090505b90565b600090815260026020526040902054600160a060020a031690565b6000610a2a82610f76565b9050600160a060020a038381169082161415610a4557600080fd5b33600160a060020a0382161480610a615750610a61813361141f565b1515610a6c57600080fd5b600082815260026020526040808220805473ffffffffffffffffffffffffffffffffffffffff1916600160a060020a0387811691821790925591518593918516917f8c5be1e5ebec7d5bd14f71427d1e84f3dd0314c0f7b2291e5b200ac8c7c3b92591a4505050565b610b3f82600d836040518082805190602001908083835b60208310610b0b5780518252601f199092019160209182019101610aec565b51815160209384036101000a60001901801990921691161790529201948552506040519384900301909220929150506114a0565b5050565b33610b718160408051908101604052806009815260200160008051602061227c833981519152815250610ad5565b610b7b83836114b5565b505050565b60095490565b604080518082019091526009815260008051602061227c833981519152602082015281565b7f01ffc9a70000000000000000000000000000000000000000000000000000000081565b6000610c3b83600d846040518082805190602001908083835b60208310610c075780518252601f199092019160209182019101610be8565b51815160209384036101000a60001901801990921691161790529201948552506040519384900301909220929150506114e8565b9392505050565b610c4c3382611507565b1515610c5757600080fd5b600160a060020a0383161515610c6c57600080fd5b600160a060020a0382161515610c8157600080fd5b610c8b8382611566565b610c9583826115d5565b610c9f82826116dc565b8082600160a060020a031684600160a060020a03167fddf252ad1be2c89b69c2b068fc378daa952ba7f163c4a11628f55a4df523b3ef60405160405180910390a4505050565b600c54600090600160a060020a03163314610cff57600080fd5b5060005b8151811015610b3f57610d2c8282815181101515610d1d57fe5b90602001906020020151610d34565b600101610d03565b600c54600160a060020a03163314610d4b57600080fd5b610d788160408051908101604052806009815260200160008051602061227c833981519152815250611725565b50565b6000610d8683610fa0565b8210610d9157600080fd5b600160a060020a0383166000908152600760205260409020805483908110610db557fe5b9060005260206000200154905092915050565b600f5481565b610b7b8383836020604051908101604052806000815250611256565b33610e188160408051908101604052806009815260200160008051602061227c833981519152815250610ad5565b610b3f610e2483610f76565b83611836565b600e805460408051602060026001851615610100026000190190941693909304601f81018490048402820184019092528181529291830182828015610eb05780601f10610e8557610100808354040283529160200191610eb0565b820191906000526020600020905b815481529060010190602001808311610e9357829003601f168201915b505050505081565b600090815260016020526040902054600160a060020a0316151590565b6000610edf610b80565b8210610eea57600080fd5b6009805483908110610ef857fe5b90600052602060002001549050919050565b600160a060020a038116600090815260076020908152604091829020805483518184028101840190945280845260609392830182828015610f6a57602002820191906000526020600020905b815481526020019060010190808311610f56575b50505050509050919050565b600081815260016020526040812054600160a060020a0316801515610f9a57600080fd5b92915050565b6000600160a060020a0382161515610fb757600080fd5b50600160a060020a031660009081526003602052604090205490565b600c54600160a060020a03163314610fea57600080fd5b600c54604051600160a060020a03909116907ff8df31144d9c2f0f6b59d69b8b98abd5459d07f2742c4df920b25aae33c6482090600090a2600c805473ffffffffffffffffffffffffffffffffffffffff19169055565b600c54600160a060020a0316331461105857600080fd5b610d788160408051908101604052806009815260200160008051602061227c833981519152815250611930565b600c54600160a060020a031681565b336110c28160408051908101604052806009815260200160008051602061227c833981519152815250610ad5565b81151561113057604080517f08c379a000000000000000000000000000000000000000000000000000000000815260206004820152601060248201527f426173652055524920696e76616c696400000000000000000000000000000000604482015290519081900360640190fd5b61113c600e8484612111565b50505050565b60068054604080516020601f60026000196101006001881615020190951694909404938401819004810282018101909252828152606093909290918301828280156109f95780601f106109ce576101008083540402835291602001916109f9565b6000610f9a8260408051908101604052806009815260200160008051602061227c833981519152815250610bcf565b600160a060020a0382163314156111e857600080fd5b336000818152600460209081526040808320600160a060020a03871680855290835292819020805460ff1916861515908117909155815190815290519293927f17307eab39ab6107e8899845ad3d59bd9653f200f220920489ca2b5937696c31929181900390910190a35050565b611261848484610c42565b61126d84848484611a02565b151561113c57600080fd5b606061128382610eb8565b151561128e57600080fd5b600e8054604080516020601f60026000196101006001881615020190951694909404938401819004810282018101909252828152610f9a939092909183018282801561131b5780601f106112f05761010080835404028352916020019161131b565b820191906000526020600020905b8154815290600101906020018083116112fe57829003601f168201915b5050506000868152600b60209081526040918290208054835160026001831615610100026000190190921691909104601f8101849004840282018401909452838152945092508301828280156113b25780601f10611387576101008083540402835291602001916113b2565b820191906000526020600020905b81548152906001019060200180831161139557829003601f168201915b5050505050611b6f565b60006113c8338361146d565b506001919050565b600c54600090600160a060020a031633146113ea57600080fd5b5060005b8151811015610b3f57611417828281518110151561140857fe5b90602001906020020151611041565b6001016113ee565b600160a060020a03918216600090815260046020908152604080832093909416825291909152205460ff1690565b600c54600160a060020a0316331461146457600080fd5b610d7881611ba4565b600f5461147a8382611c22565b61148481836114b5565b600f5461149890600163ffffffff611c7116565b600f55505050565b6114aa82826114e8565b1515610b3f57600080fd5b6114be82610eb8565b15156114c957600080fd5b6000828152600b602090815260409091208251610b7b9284019061218f565b600160a060020a03166000908152602091909152604090205460ff1690565b60008061151383610f76565b905080600160a060020a031684600160a060020a0316148061154e575083600160a060020a031661154384610a04565b600160a060020a0316145b8061155e575061155e818561141f565b949350505050565b81600160a060020a031661157982610f76565b600160a060020a03161461158c57600080fd5b600081815260026020526040902054600160a060020a031615610b3f576000908152600260205260409020805473ffffffffffffffffffffffffffffffffffffffff1916905550565b60008060006115e48585611c7e565b600084815260086020908152604080832054600160a060020a038916845260079092529091205490935061161f90600163ffffffff611d1416565b600160a060020a03861660009081526007602052604090208054919350908390811061164757fe5b90600052602060002001549050806007600087600160a060020a0316600160a060020a031681526020019081526020016000208481548110151561168757fe5b6000918252602080832090910192909255600160a060020a03871681526007909152604090208054906116be9060001983016121fd565b50600093845260086020526040808520859055908452909220555050565b60006116e88383611d26565b50600160a060020a039091166000908152600760209081526040808320805460018101825590845282842081018590559383526008909152902055565b61178f82600d836040518082805190602001908083835b6020831061175b5780518252601f19909201916020918201910161173c565b51815160209384036101000a6000190180199092169116179052920194855250604051938490030190922092915050611db6565b81600160a060020a03167fd211483f91fc6eff862467f8de606587a30c8fc9981056f051b897a418df803a826040518080602001828103825283818151815260200191508051906020019080838360005b838110156117f85781810151838201526020016117e0565b50505050905090810190601f1680156118255780820380516001836020036101000a031916815260200191505b509250505060405180910390a25050565b60008060006118458585611dd8565b6000848152600b60205260409020546002600019610100600184161502019091160415611883576000848152600b6020526040812061188391612221565b6000848152600a60205260409020546009549093506118a990600163ffffffff611d1416565b91506009828154811015156118ba57fe5b90600052602060002001549050806009848154811015156118d757fe5b600091825260208220019190915560098054849081106118f357fe5b60009182526020909120015560098054906119129060001983016121fd565b506000938452600a6020526040808520859055908452909220555050565b61199a82600d836040518082805190602001908083835b602083106119665780518252601f199092019160209182019101611947565b51815160209384036101000a6000190180199092169116179052920194855250604051938490030190922092915050611e28565b81600160a060020a03167fbfec83d64eaa953f2708271a023ab9ee82057f8f3578d548c1a4ba0b5b70048982604051808060200182810382528381815181526020019150805190602001908083836000838110156117f85781810151838201526020016117e0565b600080611a1785600160a060020a0316611e4d565b1515611a265760019150611b66565b6040517f150b7a020000000000000000000000000000000000000000000000000000000081523360048201818152600160a060020a03898116602485015260448401889052608060648501908152875160848601528751918a169463150b7a0294938c938b938b93909160a490910190602085019080838360005b83811015611ab9578181015183820152602001611aa1565b50505050905090810190601f168015611ae65780820380516001836020036101000a031916815260200191505b5095505050505050602060405180830381600087803b158015611b0857600080fd5b505af1158015611b1c573d6000803e3d6000fd5b505050506040513d6020811015611b3257600080fd5b5051600160e060020a031981167f150b7a020000000000000000000000000000000000000000000000000000000014925090505b50949350505050565b604080516020818101835260008083528351808301855281815284519283019094528152606092610c3b928692869290611e55565b600160a060020a0381161515611bb957600080fd5b600c54604051600160a060020a038084169216907f8be0079c531659141344cd1fd0a4f28419497f9722a3daafe3b4186f6b6457e090600090a3600c805473ffffffffffffffffffffffffffffffffffffffff1916600160a060020a0392909216919091179055565b611c2c82826120b6565b600980546000838152600a60205260408120829055600182018355919091527f6e1540171b6c0c960b71a7020d9f60077f6af931a8bbf590da0223dacf75c7af015550565b81810182811015610f9a57fe5b81600160a060020a0316611c9182610f76565b600160a060020a031614611ca457600080fd5b600160a060020a038216600090815260036020526040902054611cce90600163ffffffff611d1416565b600160a060020a03909216600090815260036020908152604080832094909455918152600190915220805473ffffffffffffffffffffffffffffffffffffffff19169055565b600082821115611d2057fe5b50900390565b600081815260016020526040902054600160a060020a031615611d4857600080fd5b6000818152600160208181526040808420805473ffffffffffffffffffffffffffffffffffffffff1916600160a060020a0388169081179091558452600390915290912054611d9691611c71565b600160a060020a0390921660009081526003602052604090209190915550565b600160a060020a0316600090815260209190915260409020805460ff19169055565b611de28282611566565b611dec82826115d5565b6040518190600090600160a060020a038516907fddf252ad1be2c89b69c2b068fc378daa952ba7f163c4a11628f55a4df523b3ef908390a45050565b600160a060020a0316600090815260209190915260409020805460ff19166001179055565b6000903b1190565b6060806060806060806060806000808e98508d97508c96508b95508a94508451865188518a518c51010101016040519080825280601f01601f191660200182016040528015611eae578160200160208202803883390190505b50935083925060009150600090505b8851811015611f1b578881815181101515611ed457fe5b90602001015160f860020a900460f860020a028383806001019450815181101515611efb57fe5b906020010190600160f860020a031916908160001a905350600101611ebd565b5060005b8751811015611f7d578781815181101515611f3657fe5b90602001015160f860020a900460f860020a028383806001019450815181101515611f5d57fe5b906020010190600160f860020a031916908160001a905350600101611f1f565b5060005b8651811015611fdf578681815181101515611f9857fe5b90602001015160f860020a900460f860020a028383806001019450815181101515611fbf57fe5b906020010190600160f860020a031916908160001a905350600101611f81565b5060005b8551811015612041578581815181101515611ffa57fe5b90602001015160f860020a900460f860020a02838380600101945081518110151561202157fe5b906020010190600160f860020a031916908160001a905350600101611fe3565b5060005b84518110156120a357848181518110151561205c57fe5b90602001015160f860020a900460f860020a02838380600101945081518110151561208357fe5b906020010190600160f860020a031916908160001a905350600101612045565b50909d9c50505050505050505050505050565b600160a060020a03821615156120cb57600080fd5b6120d582826116dc565b6040518190600160a060020a038416906000907fddf252ad1be2c89b69c2b068fc378daa952ba7f163c4a11628f55a4df523b3ef908290a45050565b828054600181600116156101000203166002900490600052602060002090601f016020900481019282601f106121525782800160ff1982351617855561217f565b8280016001018555821561217f579182015b8281111561217f578235825591602001919060010190612164565b5061218b929150612261565b5090565b828054600181600116156101000203166002900490600052602060002090601f016020900481019282601f106121d057805160ff191683800117855561217f565b8280016001018555821561217f579182015b8281111561217f5782518255916020019190600101906121e2565b815481835581811115610b7b57600083815260209020610b7b918101908301612261565b50805460018160011615610100020316600290046000825580601f106122475750610d78565b601f016020900490600052602060002090810190610d7891905b610a0191905b8082111561218b5760008155600101612267560077686974656c6973740000000000000000000000000000000000000000000000a165627a7a723058206fa943b94c9f3bd127b9135162b29ba46a8f096d3f766b75741ff66ceb4aca770029",
  "source": "pragma solidity ^0.4.24;\n\nimport \"openzeppelin-solidity/contracts/math/SafeMath.sol\";\nimport \"openzeppelin-solidity/contracts/access/Whitelist.sol\";\nimport \"openzeppelin-solidity/contracts/token/ERC721/ERC721Token.sol\";\n\nimport \"./Strings.sol\";\n\n/**\n* @title Radi.Cards\n*/\ncontract RadiCards is ERC721Token, Whitelist {\n  using SafeMath for uint256;\n\n  string public tokenBaseURI = \"https://ipfs.infura.io/ipfs/\";\n\n  // A pointer to the next token to be minted, zero indexed\n  uint256 public tokenIdPointer = 0;\n\n  constructor () public ERC721Token(\"RadiCards\", \"RADI\") {\n    addAddressToWhitelist(msg.sender);\n  }\n\n  function mint(string tokenURI) public returns (bool) {\n    _mint(msg.sender, tokenURI);\n    return true;\n  }\n\n  function mintTo(address to, string tokenURI) public returns (bool) {\n    _mint(to, tokenURI);\n    return true;\n  }\n\n  function _mint(address to, string tokenURI) internal {\n    uint256 tokenId = tokenIdPointer;\n\n    _mint(to, tokenId);\n    _setTokenURI(tokenId, tokenURI);\n\n    tokenIdPointer = tokenIdPointer.add(1);\n  }\n\n  function burn(uint256 tokenId) public onlyIfWhitelisted(msg.sender) {\n    // Cleanup custom data\n\n    // Super burn\n    _burn(ownerOf(tokenId), tokenId);\n  }\n\n  function setTokenURI(uint256 tokenId, string uri) public onlyIfWhitelisted(msg.sender) {\n    _setTokenURI(tokenId, uri);\n  }\n\n  function setTokenBaseURI(string _newBaseURI) external onlyIfWhitelisted(msg.sender) {\n    require(bytes(_newBaseURI).length != 0, \"Base URI invalid\");\n    tokenBaseURI = _newBaseURI;\n  }\n\n  function tokenURI(uint256 _tokenId) public view returns (string) {\n    require(exists(_tokenId));\n    return Strings.strConcat(tokenBaseURI, tokenURIs[_tokenId]);\n  }\n\n  function tokensOf(address _owner) public view returns (uint256[] _tokenIds) {\n    return ownedTokens[_owner];\n  }\n}\n",
  "sourcePath": "/Users/andy/workspace/radi-cards/contracts/RadiCards.sol",
  "compiler": {
    "name": "solc",
    "version": "0.4.24+commit.e67f0147.Emscripten.clang"
  },
  "schemaVersion": "3.0.0-beta.1",
  "updatedAt": "2018-12-03T10:26:39.170Z"
}