{
  "contractName": "RadiCards",
  "abi": [
    {
      "constant": true,
      "inputs": [
        {
          "name": "_interfaceId",
          "type": "bytes4"
        }
      ],
      "name": "supportsInterface",
      "outputs": [
        {
          "name": "",
          "type": "bool"
        }
      ],
      "payable": false,
      "stateMutability": "view",
      "type": "function",
      "signature": "0x01ffc9a7"
    },
    {
      "constant": true,
      "inputs": [],
      "name": "name",
      "outputs": [
        {
          "name": "",
          "type": "string"
        }
      ],
      "payable": false,
      "stateMutability": "view",
      "type": "function",
      "signature": "0x06fdde03"
    },
    {
      "constant": true,
      "inputs": [
        {
          "name": "_tokenId",
          "type": "uint256"
        }
      ],
      "name": "getApproved",
      "outputs": [
        {
          "name": "",
          "type": "address"
        }
      ],
      "payable": false,
      "stateMutability": "view",
      "type": "function",
      "signature": "0x081812fc"
    },
    {
      "constant": false,
      "inputs": [
        {
          "name": "_to",
          "type": "address"
        },
        {
          "name": "_tokenId",
          "type": "uint256"
        }
      ],
      "name": "approve",
      "outputs": [],
      "payable": false,
      "stateMutability": "nonpayable",
      "type": "function",
      "signature": "0x095ea7b3"
    },
    {
      "constant": true,
      "inputs": [
        {
          "name": "_operator",
          "type": "address"
        },
        {
          "name": "_role",
          "type": "string"
        }
      ],
      "name": "checkRole",
      "outputs": [],
      "payable": false,
      "stateMutability": "view",
      "type": "function",
      "signature": "0x0988ca8c"
    },
    {
      "constant": true,
      "inputs": [
        {
          "name": "",
          "type": "uint256"
        }
      ],
      "name": "benefactors",
      "outputs": [
        {
          "name": "ethAddress",
          "type": "address"
        },
        {
          "name": "name",
          "type": "string"
        },
        {
          "name": "website",
          "type": "string"
        }
      ],
      "payable": false,
      "stateMutability": "view",
      "type": "function",
      "signature": "0x128ee161"
    },
    {
      "constant": true,
      "inputs": [],
      "name": "totalSupply",
      "outputs": [
        {
          "name": "",
          "type": "uint256"
        }
      ],
      "payable": false,
      "stateMutability": "view",
      "type": "function",
      "signature": "0x18160ddd"
    },
    {
      "constant": true,
      "inputs": [],
      "name": "ROLE_WHITELISTED",
      "outputs": [
        {
          "name": "",
          "type": "string"
        }
      ],
      "payable": false,
      "stateMutability": "view",
      "type": "function",
      "signature": "0x18b919e9"
    },
    {
      "constant": true,
      "inputs": [],
      "name": "InterfaceId_ERC165",
      "outputs": [
        {
          "name": "",
          "type": "bytes4"
        }
      ],
      "payable": false,
      "stateMutability": "view",
      "type": "function",
      "signature": "0x19fa8f50"
    },
    {
      "constant": true,
      "inputs": [
        {
          "name": "_operator",
          "type": "address"
        },
        {
          "name": "_role",
          "type": "string"
        }
      ],
      "name": "hasRole",
      "outputs": [
        {
          "name": "",
          "type": "bool"
        }
      ],
      "payable": false,
      "stateMutability": "view",
      "type": "function",
      "signature": "0x217fe6c6"
    },
    {
      "constant": false,
      "inputs": [
        {
          "name": "_from",
          "type": "address"
        },
        {
          "name": "_to",
          "type": "address"
        },
        {
          "name": "_tokenId",
          "type": "uint256"
        }
      ],
      "name": "transferFrom",
      "outputs": [],
      "payable": false,
      "stateMutability": "nonpayable",
      "type": "function",
      "signature": "0x23b872dd"
    },
    {
      "constant": false,
      "inputs": [
        {
          "name": "_operators",
          "type": "address[]"
        }
      ],
      "name": "removeAddressesFromWhitelist",
      "outputs": [],
      "payable": false,
      "stateMutability": "nonpayable",
      "type": "function",
      "signature": "0x24953eaa"
    },
    {
      "constant": false,
      "inputs": [
        {
          "name": "_operator",
          "type": "address"
        }
      ],
      "name": "removeAddressFromWhitelist",
      "outputs": [],
      "payable": false,
      "stateMutability": "nonpayable",
      "type": "function",
      "signature": "0x286dd3f5"
    },
    {
      "constant": true,
      "inputs": [
        {
          "name": "_owner",
          "type": "address"
        },
        {
          "name": "_index",
          "type": "uint256"
        }
      ],
      "name": "tokenOfOwnerByIndex",
      "outputs": [
        {
          "name": "",
          "type": "uint256"
        }
      ],
      "payable": false,
      "stateMutability": "view",
      "type": "function",
      "signature": "0x2f745c59"
    },
    {
      "constant": true,
      "inputs": [],
      "name": "tokenIdPointer",
      "outputs": [
        {
          "name": "",
          "type": "uint256"
        }
      ],
      "payable": false,
      "stateMutability": "view",
      "type": "function",
      "signature": "0x3b3a1a7a"
    },
    {
      "constant": false,
      "inputs": [
        {
          "name": "_from",
          "type": "address"
        },
        {
          "name": "_to",
          "type": "address"
        },
        {
          "name": "_tokenId",
          "type": "uint256"
        }
      ],
      "name": "safeTransferFrom",
      "outputs": [],
      "payable": false,
      "stateMutability": "nonpayable",
      "type": "function",
      "signature": "0x42842e0e"
    },
    {
      "constant": true,
      "inputs": [],
      "name": "tokenBaseURI",
      "outputs": [
        {
          "name": "",
          "type": "string"
        }
      ],
      "payable": false,
      "stateMutability": "view",
      "type": "function",
      "signature": "0x4e99b800"
    },
    {
      "constant": true,
      "inputs": [
        {
          "name": "_tokenId",
          "type": "uint256"
        }
      ],
      "name": "exists",
      "outputs": [
        {
          "name": "",
          "type": "bool"
        }
      ],
      "payable": false,
      "stateMutability": "view",
      "type": "function",
      "signature": "0x4f558e79"
    },
    {
      "constant": true,
      "inputs": [
        {
          "name": "_index",
          "type": "uint256"
        }
      ],
      "name": "tokenByIndex",
      "outputs": [
        {
          "name": "",
          "type": "uint256"
        }
      ],
      "payable": false,
      "stateMutability": "view",
      "type": "function",
      "signature": "0x4f6ccce7"
    },
    {
      "constant": true,
      "inputs": [
        {
          "name": "_tokenId",
          "type": "uint256"
        }
      ],
      "name": "ownerOf",
      "outputs": [
        {
          "name": "",
          "type": "address"
        }
      ],
      "payable": false,
      "stateMutability": "view",
      "type": "function",
      "signature": "0x6352211e"
    },
    {
      "constant": true,
      "inputs": [
        {
          "name": "_owner",
          "type": "address"
        }
      ],
      "name": "balanceOf",
      "outputs": [
        {
          "name": "",
          "type": "uint256"
        }
      ],
      "payable": false,
      "stateMutability": "view",
      "type": "function",
      "signature": "0x70a08231"
    },
    {
      "constant": false,
      "inputs": [],
      "name": "renounceOwnership",
      "outputs": [],
      "payable": false,
      "stateMutability": "nonpayable",
      "type": "function",
      "signature": "0x715018a6"
    },
    {
      "constant": false,
      "inputs": [
        {
          "name": "_operator",
          "type": "address"
        }
      ],
      "name": "addAddressToWhitelist",
      "outputs": [],
      "payable": false,
      "stateMutability": "nonpayable",
      "type": "function",
      "signature": "0x7b9417c8"
    },
    {
      "constant": true,
      "inputs": [],
      "name": "owner",
      "outputs": [
        {
          "name": "",
          "type": "address"
        }
      ],
      "payable": false,
      "stateMutability": "view",
      "type": "function",
      "signature": "0x8da5cb5b"
    },
    {
      "constant": true,
      "inputs": [
        {
          "name": "",
          "type": "uint256"
        }
      ],
      "name": "cards",
      "outputs": [
        {
          "name": "ipfs",
          "type": "string"
        },
        {
          "name": "name",
          "type": "string"
        },
        {
          "name": "description",
          "type": "string"
        }
      ],
      "payable": false,
      "stateMutability": "view",
      "type": "function",
      "signature": "0x8dc10768"
    },
    {
      "constant": true,
      "inputs": [],
      "name": "symbol",
      "outputs": [
        {
          "name": "",
          "type": "string"
        }
      ],
      "payable": false,
      "stateMutability": "view",
      "type": "function",
      "signature": "0x95d89b41"
    },
    {
      "constant": true,
      "inputs": [
        {
          "name": "_operator",
          "type": "address"
        }
      ],
      "name": "whitelist",
      "outputs": [
        {
          "name": "",
          "type": "bool"
        }
      ],
      "payable": false,
      "stateMutability": "view",
      "type": "function",
      "signature": "0x9b19251a"
    },
    {
      "constant": false,
      "inputs": [
        {
          "name": "_to",
          "type": "address"
        },
        {
          "name": "_approved",
          "type": "bool"
        }
      ],
      "name": "setApprovalForAll",
      "outputs": [],
      "payable": false,
      "stateMutability": "nonpayable",
      "type": "function",
      "signature": "0xa22cb465"
    },
    {
      "constant": true,
      "inputs": [],
      "name": "minContribution",
      "outputs": [
        {
          "name": "",
          "type": "uint256"
        }
      ],
      "payable": false,
      "stateMutability": "view",
      "type": "function",
      "signature": "0xaaffadf3"
    },
    {
      "constant": false,
      "inputs": [
        {
          "name": "_from",
          "type": "address"
        },
        {
          "name": "_to",
          "type": "address"
        },
        {
          "name": "_tokenId",
          "type": "uint256"
        },
        {
          "name": "_data",
          "type": "bytes"
        }
      ],
      "name": "safeTransferFrom",
      "outputs": [],
      "payable": false,
      "stateMutability": "nonpayable",
      "type": "function",
      "signature": "0xb88d4fde"
    },
    {
      "constant": false,
      "inputs": [
        {
          "name": "_operators",
          "type": "address[]"
        }
      ],
      "name": "addAddressesToWhitelist",
      "outputs": [],
      "payable": false,
      "stateMutability": "nonpayable",
      "type": "function",
      "signature": "0xe2ec6ec3"
    },
    {
      "constant": true,
      "inputs": [
        {
          "name": "_owner",
          "type": "address"
        },
        {
          "name": "_operator",
          "type": "address"
        }
      ],
      "name": "isApprovedForAll",
      "outputs": [
        {
          "name": "",
          "type": "bool"
        }
      ],
      "payable": false,
      "stateMutability": "view",
      "type": "function",
      "signature": "0xe985e9c5"
    },
    {
      "constant": false,
      "inputs": [
        {
          "name": "_newOwner",
          "type": "address"
        }
      ],
      "name": "transferOwnership",
      "outputs": [],
      "payable": false,
      "stateMutability": "nonpayable",
      "type": "function",
      "signature": "0xf2fde38b"
    },
    {
      "inputs": [],
      "payable": false,
      "stateMutability": "nonpayable",
      "type": "constructor",
      "signature": "constructor"
    },
    {
      "anonymous": false,
      "inputs": [
        {
          "indexed": true,
          "name": "operator",
          "type": "address"
        },
        {
          "indexed": false,
          "name": "role",
          "type": "string"
        }
      ],
      "name": "RoleAdded",
      "type": "event",
      "signature": "0xbfec83d64eaa953f2708271a023ab9ee82057f8f3578d548c1a4ba0b5b700489"
    },
    {
      "anonymous": false,
      "inputs": [
        {
          "indexed": true,
          "name": "operator",
          "type": "address"
        },
        {
          "indexed": false,
          "name": "role",
          "type": "string"
        }
      ],
      "name": "RoleRemoved",
      "type": "event",
      "signature": "0xd211483f91fc6eff862467f8de606587a30c8fc9981056f051b897a418df803a"
    },
    {
      "anonymous": false,
      "inputs": [
        {
          "indexed": true,
          "name": "previousOwner",
          "type": "address"
        }
      ],
      "name": "OwnershipRenounced",
      "type": "event",
      "signature": "0xf8df31144d9c2f0f6b59d69b8b98abd5459d07f2742c4df920b25aae33c64820"
    },
    {
      "anonymous": false,
      "inputs": [
        {
          "indexed": true,
          "name": "previousOwner",
          "type": "address"
        },
        {
          "indexed": true,
          "name": "newOwner",
          "type": "address"
        }
      ],
      "name": "OwnershipTransferred",
      "type": "event",
      "signature": "0x8be0079c531659141344cd1fd0a4f28419497f9722a3daafe3b4186f6b6457e0"
    },
    {
      "anonymous": false,
      "inputs": [
        {
          "indexed": true,
          "name": "_from",
          "type": "address"
        },
        {
          "indexed": true,
          "name": "_to",
          "type": "address"
        },
        {
          "indexed": true,
          "name": "_tokenId",
          "type": "uint256"
        }
      ],
      "name": "Transfer",
      "type": "event",
      "signature": "0xddf252ad1be2c89b69c2b068fc378daa952ba7f163c4a11628f55a4df523b3ef"
    },
    {
      "anonymous": false,
      "inputs": [
        {
          "indexed": true,
          "name": "_owner",
          "type": "address"
        },
        {
          "indexed": true,
          "name": "_approved",
          "type": "address"
        },
        {
          "indexed": true,
          "name": "_tokenId",
          "type": "uint256"
        }
      ],
      "name": "Approval",
      "type": "event",
      "signature": "0x8c5be1e5ebec7d5bd14f71427d1e84f3dd0314c0f7b2291e5b200ac8c7c3b925"
    },
    {
      "anonymous": false,
      "inputs": [
        {
          "indexed": true,
          "name": "_owner",
          "type": "address"
        },
        {
          "indexed": true,
          "name": "_operator",
          "type": "address"
        },
        {
          "indexed": false,
          "name": "_approved",
          "type": "bool"
        }
      ],
      "name": "ApprovalForAll",
      "type": "event",
      "signature": "0x17307eab39ab6107e8899845ad3d59bd9653f200f220920489ca2b5937696c31"
    },
    {
      "constant": false,
      "inputs": [
        {
          "name": "to",
          "type": "address"
        },
        {
          "name": "tokenURI",
          "type": "string"
        },
        {
          "name": "_benefactor",
          "type": "uint256"
        }
      ],
      "name": "gift",
      "outputs": [
        {
          "name": "",
          "type": "bool"
        }
      ],
      "payable": true,
      "stateMutability": "payable",
      "type": "function",
      "signature": "0x46ddea30"
    },
    {
      "constant": false,
      "inputs": [
        {
          "name": "tokenId",
          "type": "uint256"
        }
      ],
      "name": "burn",
      "outputs": [],
      "payable": false,
      "stateMutability": "nonpayable",
      "type": "function",
      "signature": "0x42966c68"
    },
    {
      "constant": false,
      "inputs": [
        {
          "name": "_newBaseURI",
          "type": "string"
        }
      ],
      "name": "setTokenBaseURI",
      "outputs": [],
      "payable": false,
      "stateMutability": "nonpayable",
      "type": "function",
      "signature": "0x8ef79e91"
    },
    {
      "constant": false,
      "inputs": [
        {
          "name": "_minContribution",
          "type": "uint256"
        }
      ],
      "name": "setMinContribution",
      "outputs": [],
      "payable": false,
      "stateMutability": "nonpayable",
      "type": "function",
      "signature": "0x473b0d46"
    },
    {
      "constant": true,
      "inputs": [
        {
          "name": "_tokenId",
          "type": "uint256"
        }
      ],
      "name": "tokenURI",
      "outputs": [
        {
          "name": "",
          "type": "string"
        }
      ],
      "payable": false,
      "stateMutability": "view",
      "type": "function",
      "signature": "0xc87b56dd"
    },
    {
      "constant": true,
      "inputs": [
        {
          "name": "_owner",
          "type": "address"
        }
      ],
      "name": "tokensOf",
      "outputs": [
        {
          "name": "_tokenIds",
          "type": "uint256[]"
        }
      ],
      "payable": false,
      "stateMutability": "view",
      "type": "function",
      "signature": "0x5a3f2672"
    },
    {
      "constant": true,
      "inputs": [],
      "name": "benefactorsKeys",
      "outputs": [
        {
          "name": "_keys",
          "type": "uint256[]"
        }
      ],
      "payable": false,
      "stateMutability": "view",
      "type": "function",
      "signature": "0x03cfe12d"
    },
    {
      "constant": true,
      "inputs": [],
      "name": "cardKeys",
      "outputs": [
        {
          "name": "_keys",
          "type": "uint256[]"
        }
      ],
      "payable": false,
      "stateMutability": "view",
      "type": "function",
      "signature": "0xa7efa01f"
    },
    {
      "constant": false,
      "inputs": [
        {
          "name": "_index",
          "type": "uint256"
        },
        {
          "name": "_ethAddress",
          "type": "address"
        },
        {
          "name": "_name",
          "type": "string"
        },
        {
          "name": "_website",
          "type": "string"
        }
      ],
      "name": "addBenefactor",
      "outputs": [],
      "payable": false,
      "stateMutability": "nonpayable",
      "type": "function",
      "signature": "0xbdbf3a2c"
    },
    {
      "constant": false,
      "inputs": [
        {
          "name": "_index",
          "type": "uint256"
        },
        {
          "name": "_ipfs",
          "type": "string"
        },
        {
          "name": "_name",
          "type": "string"
        },
        {
          "name": "_description",
          "type": "string"
        }
      ],
      "name": "addCard",
      "outputs": [],
      "payable": false,
      "stateMutability": "nonpayable",
      "type": "function",
      "signature": "0x3b6637ac"
    }
  ],
  "bytecode": "0x60c0604052601c60808190527f68747470733a2f2f697066732e696e667572612e696f2f697066732f0000000060a09081526200004091600e919062000a4c565b506000600f5566b1a2bc2ec500006010553480156200005e57600080fd5b50604080518082018252600981527f52616469436172647300000000000000000000000000000000000000000000006020808301919091528251808401909352600483527f52414449000000000000000000000000000000000000000000000000000000009083015290620000fc7f01ffc9a700000000000000000000000000000000000000000000000000000000640100000000620005ae810204565b620001307f80ac58cd00000000000000000000000000000000000000000000000000000000640100000000620005ae810204565b620001647f4f558e7900000000000000000000000000000000000000000000000000000000640100000000620005ae810204565b81516200017990600590602085019062000a4c565b5080516200018f90600690602084019062000a4c565b50620001c47f780e9d6300000000000000000000000000000000000000000000000000000000640100000000620005ae810204565b620001f87f5b5e139f00000000000000000000000000000000000000000000000000000000640100000000620005ae810204565b5050600c8054600160a060020a0319163390811790915562000223906401000000006200061b810204565b620002e6600173b189f76323678e094d4996d182a792e52369c0056040805190810160405280601e81526020017f456c656374726f6e69632046726f6e7469657220466f756e646174696f6e0000815250606060405190810160405280603981526020017f68747470733a2f2f7777772e6566662e6f72672f70616765732f65746865726581526020017f756d2d616e642d6c697465636f696e2d646f6e6174696f6e730000000000000081525062000686640100000000026401000000009004565b620003a9600273998f25be40241ca5d8f5fcaf3591b5ed06ef3be76040805190810160405280601f81526020017f46726565646f6d206f662074686520507265737320466f756e646174696f6e00815250606060405190810160405280602c81526020017f68747470733a2f2f66726565646f6d2e70726573732f646f6e6174652f63727981526020017f70746f63757272656e63792f000000000000000000000000000000000000000081525062000686640100000000026401000000009004565b6200048d6001606060405190810160405280602e81526020017f516d55794c74744b525a786e65466d6d6f4554586f566679335831646d6f696d81526020017f513250464c72534e4d3545444d520000000000000000000000000000000000008152506040805190810160405280600681526020017f4772696e636800000000000000000000000000000000000000000000000000008152506040805190810160405280600b81526020017f477265656e2066656c6c6100000000000000000000000000000000000000000081525062000796640100000000026401000000009004565b620005716002606060405190810160405280602e81526020017f516d5344337757783474535873436144724b4d56485538614768587a6272754c81526020017f77316a4c6d34504255584c6454330000000000000000000000000000000000008152506040805190810160405280600581526020017f536b756c6c0000000000000000000000000000000000000000000000000000008152506040805190810160405280600d81526020017f53616e746127732068656164210000000000000000000000000000000000000081525062000796640100000000026401000000009004565b6014805460018101825560009190915260027fce6d7b5282bd9a3661ae061feed1dbda4e52ab073b1f9285be6e155d9c38d4ec9091015562000af1565b7fffffffff000000000000000000000000000000000000000000000000000000008082161415620005de57600080fd5b7fffffffff00000000000000000000000000000000000000000000000000000000166000908152602081905260409020805460ff19166001179055565b600c54600160a060020a031633146200063357600080fd5b62000683816040805190810160405280600981526020017f77686974656c697374000000000000000000000000000000000000000000000081525062000841640100000000026401000000009004565b50565b33620006d7816040805190810160405280600981526020017f77686974656c697374000000000000000000000000000000000000000000000081525062000967640100000000026401000000009004565b60408051606081018252600160a060020a038681168252602080830187815283850187905260008a8152601183529490942083518154600160a060020a0319169316929092178255925180519293919262000739926001850192019062000a4c565b50604082015180516200075791600284019160209091019062000a4c565b5050601280546001810182556000919091527fbb8a6a4669ba250d26cd7a459eca9d215f8307e33aebe50379bc5a3617ec344401959095555050505050565b33620007e7816040805190810160405280600981526020017f77686974656c697374000000000000000000000000000000000000000000000081525062000967640100000000026401000000009004565b60408051606081018252858152602080820186905281830185905260008881526013825292909220815180519293919262000826928492019062000a4c565b50602082810151805162000739926001850192019062000a4c565b620008bd82600d836040518082805190602001908083835b602083106200087a5780518252601f19909201916020918201910162000859565b51815160209384036101000a6000190180199092169116179052920194855250604051938490030190922092915050640100000000620009e78102620027521704565b81600160a060020a03167fbfec83d64eaa953f2708271a023ab9ee82057f8f3578d548c1a4ba0b5b700489826040518080602001828103825283818151815260200191508051906020019080838360005b83811015620009285781810151838201526020016200090e565b50505050905090810190601f168015620009565780820380516001836020036101000a031916815260200191505b509250505060405180910390a25050565b620009e382600d836040518082805190602001908083835b60208310620009a05780518252601f1990920191602091820191016200097f565b51815160209384036101000a600019018019909216911617905292019485525060405193849003019092209291505064010000000062000a0c810262001dcb1704565b5050565b600160a060020a0316600090815260209190915260409020805460ff19166001179055565b62000a21828264010000000062000a2d810204565b1515620009e357600080fd5b600160a060020a03166000908152602091909152604090205460ff1690565b828054600181600116156101000203166002900490600052602060002090601f016020900481019282601f1062000a8f57805160ff191683800117855562000abf565b8280016001018555821562000abf579182015b8281111562000abf57825182559160200191906001019062000aa2565b5062000acd92915062000ad1565b5090565b62000aee91905b8082111562000acd576000815560010162000ad8565b90565b612bf18062000b016000396000f30060806040526004361061020e5763ffffffff7c010000000000000000000000000000000000000000000000000000000060003504166301ffc9a7811461021357806303cfe12d1461024957806306fdde03146102ae578063081812fc14610338578063095ea7b31461036c5780630988ca8c14610392578063128ee161146103f957806318160ddd1461050857806318b919e91461052f57806319fa8f5014610544578063217fe6c61461057657806323b872dd146105dd57806324953eaa14610607578063286dd3f51461065c5780632f745c591461067d5780633b3a1a7a146106a15780633b6637ac146106b657806342842e0e1461079057806342966c68146107ba57806346ddea30146107d2578063473b0d461461082e5780634e99b800146108465780634f558e791461085b5780634f6ccce7146108735780635a3f26721461088b5780636352211e146108ac57806370a08231146108c4578063715018a6146108e55780637b9417c8146108fa5780638da5cb5b1461091b5780638dc10768146109305780638ef79e9114610a8c57806395d89b4114610aac5780639b19251a14610ac1578063a22cb46514610ae2578063a7efa01f14610b08578063aaffadf314610b1d578063b88d4fde14610b32578063bdbf3a2c14610ba1578063c87b56dd14610c48578063e2ec6ec314610c60578063e985e9c514610cb5578063f2fde38b14610cdc575b600080fd5b34801561021f57600080fd5b50610235600160e060020a031960043516610cfd565b604080519115158252519081900360200190f35b34801561025557600080fd5b5061025e610d1c565b60408051602080825283518183015283519192839290830191858101910280838360005b8381101561029a578181015183820152602001610282565b505050509050019250505060405180910390f35b3480156102ba57600080fd5b506102c3610d75565b6040805160208082528351818301528351919283929083019185019080838360005b838110156102fd5781810151838201526020016102e5565b50505050905090810190601f16801561032a5780820380516001836020036101000a031916815260200191505b509250505060405180910390f35b34801561034457600080fd5b50610350600435610e02565b60408051600160a060020a039092168252519081900360200190f35b34801561037857600080fd5b50610390600160a060020a0360043516602435610e1d565b005b34801561039e57600080fd5b5060408051602060046024803582810135601f8101859004850286018501909652858552610390958335600160a060020a0316953695604494919390910191908190840183828082843750949750610ec69650505050505050565b34801561040557600080fd5b50610411600435610f34565b6040518084600160a060020a0316600160a060020a031681526020018060200180602001838103835285818151815260200191508051906020019080838360005b8381101561046a578181015183820152602001610452565b50505050905090810190601f1680156104975780820380516001836020036101000a031916815260200191505b50838103825284518152845160209182019186019080838360005b838110156104ca5781810151838201526020016104b2565b50505050905090810190601f1680156104f75780820380516001836020036101000a031916815260200191505b509550505050505060405180910390f35b34801561051457600080fd5b5061051d61107a565b60408051918252519081900360200190f35b34801561053b57600080fd5b506102c3611080565b34801561055057600080fd5b506105596110a5565b60408051600160e060020a03199092168252519081900360200190f35b34801561058257600080fd5b5060408051602060046024803582810135601f8101859004850286018501909652858552610235958335600160a060020a03169536956044949193909101919081908401838280828437509497506110c99650505050505050565b3480156105e957600080fd5b50610390600160a060020a036004358116906024351660443561113c565b34801561061357600080fd5b5060408051602060048035808201358381028086018501909652808552610390953695939460249493850192918291850190849080828437509497506111df9650505050505050565b34801561066857600080fd5b50610390600160a060020a036004351661122e565b34801561068957600080fd5b5061051d600160a060020a0360043516602435611275565b3480156106ad57600080fd5b5061051d6112c2565b3480156106c257600080fd5b5060408051602060046024803582810135601f810185900485028601850190965285855261039095833595369560449491939091019190819084018382808284375050604080516020601f89358b018035918201839004830284018301909452808352979a99988101979196509182019450925082915084018382808284375050604080516020601f89358b018035918201839004830284018301909452808352979a9998810197919650918201945092508291508401838280828437509497506112c89650505050505050565b34801561079c57600080fd5b50610390600160a060020a03600435811690602435166044356113a7565b3480156107c657600080fd5b506103906004356113c8565b60408051602060046024803582810135601f8101859004850286018501909652858552610235958335600160a060020a031695369560449491939091019190819084018382808284375094975050933594506114089350505050565b34801561083a57600080fd5b50610390600435611581565b34801561085257600080fd5b506102c36115b5565b34801561086757600080fd5b50610235600435611643565b34801561087f57600080fd5b5061051d600435611660565b34801561089757600080fd5b5061025e600160a060020a0360043516611695565b3480156108b857600080fd5b50610350600435611701565b3480156108d057600080fd5b5061051d600160a060020a036004351661172b565b3480156108f157600080fd5b5061039061175e565b34801561090657600080fd5b50610390600160a060020a03600435166117bf565b34801561092757600080fd5b50610350611803565b34801561093c57600080fd5b50610948600435611812565b60405180806020018060200180602001848103845287818151815260200191508051906020019080838360005b8381101561098d578181015183820152602001610975565b50505050905090810190601f1680156109ba5780820380516001836020036101000a031916815260200191505b50848103835286518152865160209182019188019080838360005b838110156109ed5781810151838201526020016109d5565b50505050905090810190601f168015610a1a5780820380516001836020036101000a031916815260200191505b50848103825285518152855160209182019187019080838360005b83811015610a4d578181015183820152602001610a35565b50505050905090810190601f168015610a7a5780820380516001836020036101000a031916815260200191505b50965050505050505060405180910390f35b348015610a9857600080fd5b50610390600480356024810191013561191c565b348015610ab857600080fd5b506102c36119ca565b348015610acd57600080fd5b50610235600160a060020a0360043516611a2b565b348015610aee57600080fd5b50610390600160a060020a03600435166024351515611a5a565b348015610b1457600080fd5b5061025e611ade565b348015610b2957600080fd5b5061051d611b34565b348015610b3e57600080fd5b50604080516020601f60643560048181013592830184900484028501840190955281845261039094600160a060020a038135811695602480359092169560443595369560849401918190840183828082843750949750611b3a9650505050505050565b348015610bad57600080fd5b50604080516020600460443581810135601f81018490048402850184019095528484526103909482359460248035600160a060020a03169536959460649492019190819084018382808284375050604080516020601f89358b018035918201839004830284018301909452808352979a999881019791965091820194509250829150840183828082843750949750611b5c9650505050505050565b348015610c5457600080fd5b506102c3600435611bea565b348015610c6c57600080fd5b506040805160206004803580820135838102808601850190965280855261039095369593946024949385019291829185019084908082843750949750611d2e9650505050505050565b348015610cc157600080fd5b50610235600160a060020a0360043581169060243516611d7d565b348015610ce857600080fd5b50610390600160a060020a0360043516611dab565b600160e060020a03191660009081526020819052604090205460ff1690565b60606012805480602002602001604051908101604052809291908181526020018280548015610d6a57602002820191906000526020600020905b815481526020019060010190808311610d56575b505050505090505b90565b60058054604080516020601f6002600019610100600188161502019095169490940493840181900481028201810190925282815260609390929091830182828015610d6a5780601f10610dd657610100808354040283529160200191610d6a565b820191906000526020600020905b815481529060010190602001808311610de457509395945050505050565b600090815260026020526040902054600160a060020a031690565b6000610e2882611701565b9050600160a060020a038381169082161415610e4357600080fd5b33600160a060020a0382161480610e5f5750610e5f8133611d7d565b1515610e6a57600080fd5b6000828152600260205260408082208054600160a060020a031916600160a060020a0387811691821790925591518593918516917f8c5be1e5ebec7d5bd14f71427d1e84f3dd0314c0f7b2291e5b200ac8c7c3b92591a4505050565b610f3082600d836040518082805190602001908083835b60208310610efc5780518252601f199092019160209182019101610edd565b51815160209384036101000a6000190180199092169116179052920194855250604051938490030190922092915050611dcb565b5050565b6011602090815260009182526040918290208054600180830180548651600261010094831615949094026000190190911692909204601f8101869004860283018601909652858252600160a060020a03909216949293909290830182828015610fde5780601f10610fb357610100808354040283529160200191610fde565b820191906000526020600020905b815481529060010190602001808311610fc157829003601f168201915b50505060028085018054604080516020601f60001961010060018716150201909416959095049283018590048502810185019091528181529596959450909250908301828280156110705780601f1061104557610100808354040283529160200191611070565b820191906000526020600020905b81548152906001019060200180831161105357829003601f168201915b5050505050905083565b60095490565b6040805180820190915260098152600080516020612ba6833981519152602082015281565b7f01ffc9a70000000000000000000000000000000000000000000000000000000081565b600061113583600d846040518082805190602001908083835b602083106111015780518252601f1990920191602091820191016110e2565b51815160209384036101000a6000190180199092169116179052920194855250604051938490030190922092915050611de0565b9392505050565b6111463382611dff565b151561115157600080fd5b600160a060020a038316151561116657600080fd5b600160a060020a038216151561117b57600080fd5b6111858382611e5e565b61118f8382611ec0565b6111998282611fc7565b8082600160a060020a031684600160a060020a03167fddf252ad1be2c89b69c2b068fc378daa952ba7f163c4a11628f55a4df523b3ef60405160405180910390a4505050565b600c54600090600160a060020a031633146111f957600080fd5b5060005b8151811015610f3057611226828281518110151561121757fe5b9060200190602002015161122e565b6001016111fd565b600c54600160a060020a0316331461124557600080fd5b61127281604080519081016040528060098152602001600080516020612ba6833981519152815250612010565b50565b60006112808361172b565b821061128b57600080fd5b600160a060020a03831660009081526007602052604090208054839081106112af57fe5b9060005260206000200154905092915050565b600f5481565b336112f681604080519081016040528060098152602001600080516020612ba6833981519152815250610ec6565b6040805160608101825285815260208082018690528183018590526000888152601382529290922081518051929391926113339284920190612a3b565b50602082810151805161134c9260018501920190612a3b565b5060408201518051611368916002840191602090910190612a3b565b5050601280546001810182556000919091527fbb8a6a4669ba250d26cd7a459eca9d215f8307e33aebe50379bc5a3617ec344401959095555050505050565b6113c38383836020604051908101604052806000815250611b3a565b505050565b336113f681604080519081016040528060098152602001600080516020612ba6833981519152815250610ec6565b610f3061140283611701565b83612121565b6010546000903410156114a257604080517f08c379a000000000000000000000000000000000000000000000000000000000815260206004820152602560248201527f4d7573742073656e64206174206c6561737420746865206d696e696d756d206160448201527f6d6f756e74000000000000000000000000000000000000000000000000000000606482015290519081900360840190fd5b600082815260116020526040902054600160a060020a0316151561152757604080517f08c379a000000000000000000000000000000000000000000000000000000000815260206004820181905260248201527f4d7573742073706563696679206578697374696e672062656e65666163746f72604482015290519081900360640190fd5b611531848461221b565b600082815260116020526040808220549051600160a060020a03909116913480156108fc02929091818181858888f19350505050158015611576573d6000803e3d6000fd5b506001949350505050565b336115af81604080519081016040528060098152602001600080516020612ba6833981519152815250610ec6565b50601055565b600e805460408051602060026001851615610100026000190190941693909304601f8101849004840282018401909252818152929183018282801561163b5780601f106116105761010080835404028352916020019161163b565b820191906000526020600020905b81548152906001019060200180831161161e57829003601f168201915b505050505081565b600090815260016020526040902054600160a060020a0316151590565b600061166a61107a565b821061167557600080fd5b600980548390811061168357fe5b90600052602060002001549050919050565b600160a060020a0381166000908152600760209081526040918290208054835181840281018401909452808452606093928301828280156116f557602002820191906000526020600020905b8154815260200190600101908083116116e1575b50505050509050919050565b600081815260016020526040812054600160a060020a031680151561172557600080fd5b92915050565b6000600160a060020a038216151561174257600080fd5b50600160a060020a031660009081526003602052604090205490565b600c54600160a060020a0316331461177557600080fd5b600c54604051600160a060020a03909116907ff8df31144d9c2f0f6b59d69b8b98abd5459d07f2742c4df920b25aae33c6482090600090a2600c8054600160a060020a0319169055565b600c54600160a060020a031633146117d657600080fd5b61127281604080519081016040528060098152602001600080516020612ba683398151915281525061224e565b600c54600160a060020a031681565b60136020908152600091825260409182902080548351601f600260001961010060018616150201909316929092049182018490048402810184019094528084529092918391908301828280156118a95780601f1061187e576101008083540402835291602001916118a9565b820191906000526020600020905b81548152906001019060200180831161188c57829003601f168201915b505050505090806001018054600181600116156101000203166002900480601f016020809104026020016040519081016040528092919081815260200182805460018160011615610100020316600290048015610fde5780601f10610fb357610100808354040283529160200191610fde565b3361194a81604080519081016040528060098152602001600080516020612ba6833981519152815250610ec6565b8115156119b857604080517f08c379a000000000000000000000000000000000000000000000000000000000815260206004820152601060248201527f426173652055524920696e76616c696400000000000000000000000000000000604482015290519081900360640190fd5b6119c4600e8484612ab9565b50505050565b60068054604080516020601f6002600019610100600188161502019095169490940493840181900481028201810190925282815260609390929091830182828015610d6a5780601f10610dd657610100808354040283529160200191610d6a565b600061172582604080519081016040528060098152602001600080516020612ba68339815191528152506110c9565b600160a060020a038216331415611a7057600080fd5b336000818152600460209081526040808320600160a060020a03871680855290835292819020805460ff1916861515908117909155815190815290519293927f17307eab39ab6107e8899845ad3d59bd9653f200f220920489ca2b5937696c31929181900390910190a35050565b60606014805480602002602001604051908101604052809291908181526020018280548015610d6a5760200282019190600052602060002090815481526020019060010190808311610d56575050505050905090565b60105481565b611b4584848461113c565b611b5184848484612320565b15156119c457600080fd5b33611b8a81604080519081016040528060098152602001600080516020612ba6833981519152815250610ec6565b60408051606081018252600160a060020a038681168252602080830187815283850187905260008a8152601183529490942083518154600160a060020a0319169316929092178255925180519293919261134c9260018501920190612a3b565b6060611bf582611643565b1515611c0057600080fd5b600e8054604080516020601f600260001961010060018816150201909516949094049384018190048102820181019092528281526117259390929091830182828015611c8d5780601f10611c6257610100808354040283529160200191611c8d565b820191906000526020600020905b815481529060010190602001808311611c7057829003601f168201915b5050506000868152600b60209081526040918290208054835160026001831615610100026000190190921691909104601f810184900484028201840190945283815294509250830182828015611d245780601f10611cf957610100808354040283529160200191611d24565b820191906000526020600020905b815481529060010190602001808311611d0757829003601f168201915b505050505061248d565b600c54600090600160a060020a03163314611d4857600080fd5b5060005b8151811015610f3057611d758282815181101515611d6657fe5b906020019060200201516117bf565b600101611d4c565b600160a060020a03918216600090815260046020908152604080832093909416825291909152205460ff1690565b600c54600160a060020a03163314611dc257600080fd5b611272816124c2565b611dd58282611de0565b1515610f3057600080fd5b600160a060020a03166000908152602091909152604090205460ff1690565b600080611e0b83611701565b905080600160a060020a031684600160a060020a03161480611e46575083600160a060020a0316611e3b84610e02565b600160a060020a0316145b80611e565750611e568185611d7d565b949350505050565b81600160a060020a0316611e7182611701565b600160a060020a031614611e8457600080fd5b600081815260026020526040902054600160a060020a031615610f305760009081526002602052604090208054600160a060020a031916905550565b6000806000611ecf8585612533565b600084815260086020908152604080832054600160a060020a0389168452600790925290912054909350611f0a90600163ffffffff6125bc16565b600160a060020a038616600090815260076020526040902080549193509083908110611f3257fe5b90600052602060002001549050806007600087600160a060020a0316600160a060020a0316815260200190815260200160002084815481101515611f7257fe5b6000918252602080832090910192909255600160a060020a0387168152600790915260409020805490611fa9906000198301612b27565b50600093845260086020526040808520859055908452909220555050565b6000611fd383836125ce565b50600160a060020a039091166000908152600760209081526040808320805460018101825590845282842081018590559383526008909152902055565b61207a82600d836040518082805190602001908083835b602083106120465780518252601f199092019160209182019101612027565b51815160209384036101000a6000190180199092169116179052920194855250604051938490030190922092915050612651565b81600160a060020a03167fd211483f91fc6eff862467f8de606587a30c8fc9981056f051b897a418df803a826040518080602001828103825283818151815260200191508051906020019080838360005b838110156120e35781810151838201526020016120cb565b50505050905090810190601f1680156121105780820380516001836020036101000a031916815260200191505b509250505060405180910390a25050565b60008060006121308585612673565b6000848152600b6020526040902054600260001961010060018416150201909116041561216e576000848152600b6020526040812061216e91612b4b565b6000848152600a602052604090205460095490935061219490600163ffffffff6125bc16565b91506009828154811015156121a557fe5b90600052602060002001549050806009848154811015156121c257fe5b600091825260208220019190915560098054849081106121de57fe5b60009182526020909120015560098054906121fd906000198301612b27565b506000938452600a6020526040808520859055908452909220555050565b600f5461222883826126c3565b6122328183612712565b600f5461224690600163ffffffff61274516565b600f55505050565b6122b882600d836040518082805190602001908083835b602083106122845780518252601f199092019160209182019101612265565b51815160209384036101000a6000190180199092169116179052920194855250604051938490030190922092915050612752565b81600160a060020a03167fbfec83d64eaa953f2708271a023ab9ee82057f8f3578d548c1a4ba0b5b70048982604051808060200182810382528381815181526020019150805190602001908083836000838110156120e35781810151838201526020016120cb565b60008061233585600160a060020a0316612777565b15156123445760019150612484565b6040517f150b7a020000000000000000000000000000000000000000000000000000000081523360048201818152600160a060020a03898116602485015260448401889052608060648501908152875160848601528751918a169463150b7a0294938c938b938b93909160a490910190602085019080838360005b838110156123d75781810151838201526020016123bf565b50505050905090810190601f1680156124045780820380516001836020036101000a031916815260200191505b5095505050505050602060405180830381600087803b15801561242657600080fd5b505af115801561243a573d6000803e3d6000fd5b505050506040513d602081101561245057600080fd5b5051600160e060020a031981167f150b7a020000000000000000000000000000000000000000000000000000000014925090505b50949350505050565b60408051602081810183526000808352835180830185528181528451928301909452815260609261113592869286929061277f565b600160a060020a03811615156124d757600080fd5b600c54604051600160a060020a038084169216907f8be0079c531659141344cd1fd0a4f28419497f9722a3daafe3b4186f6b6457e090600090a3600c8054600160a060020a031916600160a060020a0392909216919091179055565b81600160a060020a031661254682611701565b600160a060020a03161461255957600080fd5b600160a060020a03821660009081526003602052604090205461258390600163ffffffff6125bc16565b600160a060020a039092166000908152600360209081526040808320949094559181526001909152208054600160a060020a0319169055565b6000828211156125c857fe5b50900390565b600081815260016020526040902054600160a060020a0316156125f057600080fd5b60008181526001602081815260408084208054600160a060020a031916600160a060020a038816908117909155845260039091529091205461263191612745565b600160a060020a0390921660009081526003602052604090209190915550565b600160a060020a0316600090815260209190915260409020805460ff19169055565b61267d8282611e5e565b6126878282611ec0565b6040518190600090600160a060020a038516907fddf252ad1be2c89b69c2b068fc378daa952ba7f163c4a11628f55a4df523b3ef908390a45050565b6126cd82826129e0565b600980546000838152600a60205260408120829055600182018355919091527f6e1540171b6c0c960b71a7020d9f60077f6af931a8bbf590da0223dacf75c7af015550565b61271b82611643565b151561272657600080fd5b6000828152600b6020908152604090912082516113c392840190612a3b565b8181018281101561172557fe5b600160a060020a0316600090815260209190915260409020805460ff19166001179055565b6000903b1190565b6060806060806060806060806000808e98508d97508c96508b95508a94508451865188518a518c51010101016040519080825280601f01601f1916602001820160405280156127d8578160200160208202803883390190505b50935083925060009150600090505b88518110156128455788818151811015156127fe57fe5b90602001015160f860020a900460f860020a02838380600101945081518110151561282557fe5b906020010190600160f860020a031916908160001a9053506001016127e7565b5060005b87518110156128a757878181518110151561286057fe5b90602001015160f860020a900460f860020a02838380600101945081518110151561288757fe5b906020010190600160f860020a031916908160001a905350600101612849565b5060005b86518110156129095786818151811015156128c257fe5b90602001015160f860020a900460f860020a0283838060010194508151811015156128e957fe5b906020010190600160f860020a031916908160001a9053506001016128ab565b5060005b855181101561296b57858181518110151561292457fe5b90602001015160f860020a900460f860020a02838380600101945081518110151561294b57fe5b906020010190600160f860020a031916908160001a90535060010161290d565b5060005b84518110156129cd57848181518110151561298657fe5b90602001015160f860020a900460f860020a0283838060010194508151811015156129ad57fe5b906020010190600160f860020a031916908160001a90535060010161296f565b50909d9c50505050505050505050505050565b600160a060020a03821615156129f557600080fd5b6129ff8282611fc7565b6040518190600160a060020a038416906000907fddf252ad1be2c89b69c2b068fc378daa952ba7f163c4a11628f55a4df523b3ef908290a45050565b828054600181600116156101000203166002900490600052602060002090601f016020900481019282601f10612a7c57805160ff1916838001178555612aa9565b82800160010185558215612aa9579182015b82811115612aa9578251825591602001919060010190612a8e565b50612ab5929150612b8b565b5090565b828054600181600116156101000203166002900490600052602060002090601f016020900481019282601f10612afa5782800160ff19823516178555612aa9565b82800160010185558215612aa9579182015b82811115612aa9578235825591602001919060010190612b0c565b8154818355818111156113c3576000838152602090206113c3918101908301612b8b565b50805460018160011615610100020316600290046000825580601f10612b715750611272565b601f01602090049060005260206000209081019061127291905b610d7291905b80821115612ab55760008155600101612b91560077686974656c6973740000000000000000000000000000000000000000000000a165627a7a72305820933f1dced02e2b7af3d6c4633113413ef810913692043ba1b2c610c28a9753390029",
  "source": "pragma solidity ^0.4.24;\n\nimport \"openzeppelin-solidity/contracts/math/SafeMath.sol\";\nimport \"openzeppelin-solidity/contracts/access/Whitelist.sol\";\nimport \"openzeppelin-solidity/contracts/token/ERC721/ERC721Token.sol\";\n\nimport \"./Strings.sol\";\n\n/**\n* @title Radi.Cards\n*\n* Non-profit e-card NFT for good!\n*\n*/\ncontract RadiCards is ERC721Token, Whitelist {\n  using SafeMath for uint256;\n\n  string public tokenBaseURI = \"https://ipfs.infura.io/ipfs/\";\n\n  // A pointer to the next token to be minted, zero indexed\n  uint256 public tokenIdPointer = 0;\n\n  uint256 public minContribution = 0.05 ether;\n\n  struct Benefactor {\n    address ethAddress;\n    string name;\n    string website;\n  }\n\n  struct Card {\n    string ipfs;\n    string name;\n    string description;\n  }\n\n  mapping(uint256 => Benefactor) public benefactors;\n  uint256[] internal benefactorsIndex;\n\n  mapping(uint256 => Card) public cards;\n  uint256[] internal cardsIndex;\n\n  constructor () public ERC721Token(\"RadiCards\", \"RADI\") {\n    addAddressToWhitelist(msg.sender);\n\n    addBenefactor(1,\n      address(0xb189f76323678E094D4996d182A792E52369c005),\n      \"Electronic Frontier Foundation\",\n      \"https://www.eff.org/pages/ethereum-and-litecoin-donations\"\n    );\n\n    addBenefactor(2,\n      address(0x998F25Be40241CA5D8F5fCaF3591B5ED06EF3Be7),\n      \"Freedom of the Press Foundation\",\n      \"https://freedom.press/donate/cryptocurrency/\"\n    );\n\n    addCard(\n      1,\n      \"QmUyLttKRZxneFmmoETXoVfy3X1dmoimQ2PFLrSNM5EDMR\",\n      \"Grinch\",\n      \"Green fella\"\n    );\n\n    addCard(\n      2,\n      \"QmSD3wWx4tSXsCaDrKMVHU8aGhXzbruLw1jLm4PBUXLdT3\",\n      \"Skull\",\n      \"Santa's head!\"\n    );\n    cardsIndex.push(2);\n  }\n\n  function gift(address to, string tokenURI, uint256 _benefactor) payable public returns (bool) {\n    require(msg.value >= minContribution, \"Must send at least the minimum amount\");\n    require(benefactors[_benefactor].ethAddress != address(0), \"Must specify existing benefactor\");\n\n    _mint(to, tokenURI);\n\n    benefactors[_benefactor].ethAddress.transfer(msg.value);\n\n    return true;\n  }\n\n  function _mint(address to, string tokenURI) internal {\n    uint256 tokenId = tokenIdPointer;\n\n    _mint(to, tokenId);\n    _setTokenURI(tokenId, tokenURI);\n\n    tokenIdPointer = tokenIdPointer.add(1);\n  }\n\n  function burn(uint256 tokenId) public onlyIfWhitelisted(msg.sender) {\n    // Super burn\n    _burn(ownerOf(tokenId), tokenId);\n  }\n\n  function setTokenBaseURI(string _newBaseURI) external onlyIfWhitelisted(msg.sender) {\n    require(bytes(_newBaseURI).length != 0, \"Base URI invalid\");\n    tokenBaseURI = _newBaseURI;\n  }\n\n  function setMinContribution(uint256 _minContribution) external onlyIfWhitelisted(msg.sender) {\n    minContribution = _minContribution;\n  }\n\n  function tokenURI(uint256 _tokenId) public view returns (string) {\n    require(exists(_tokenId));\n    return Strings.strConcat(tokenBaseURI, tokenURIs[_tokenId]);\n  }\n\n  function tokensOf(address _owner) public view returns (uint256[] _tokenIds) {\n    return ownedTokens[_owner];\n  }\n\n  function benefactorsKeys() public view returns (uint256[] _keys) {\n    return benefactorsIndex;\n  }\n\n  function cardKeys() public view returns (uint256[] _keys) {\n    return cardsIndex;\n  }\n\n  function addBenefactor(uint256 _index, address _ethAddress, string _name, string _website) public onlyIfWhitelisted(msg.sender) {\n    benefactors[_index] = Benefactor(\n      _ethAddress,\n      _name,\n      _website\n    );\n    benefactorsIndex.push(_index);\n  }\n\n  function addCard(uint256 _index, string _ipfs, string _name, string _description) public onlyIfWhitelisted(msg.sender) {\n    cards[_index] = Card(\n      _ipfs,\n      _name,\n      _description\n    );\n    benefactorsIndex.push(_index);\n  }\n}\n",
  "sourcePath": "/Users/andy/workspace/radi-cards/contracts/RadiCards.sol",
  "compiler": {
    "name": "solc",
    "version": "0.4.24+commit.e67f0147.Emscripten.clang"
  },
  "schemaVersion": "3.0.0-beta.1",
  "updatedAt": "2018-12-05T21:52:15.200Z"
}