{
  "contractName": "Whitelist",
  "abi": [
    {
      "constant": true,
      "inputs": [
        {
          "name": "_operator",
          "type": "address"
        },
        {
          "name": "_role",
          "type": "string"
        }
      ],
      "name": "checkRole",
      "outputs": [],
      "payable": false,
      "stateMutability": "view",
      "type": "function"
    },
    {
      "constant": true,
      "inputs": [],
      "name": "ROLE_WHITELISTED",
      "outputs": [
        {
          "name": "",
          "type": "string"
        }
      ],
      "payable": false,
      "stateMutability": "view",
      "type": "function"
    },
    {
      "constant": true,
      "inputs": [
        {
          "name": "_operator",
          "type": "address"
        },
        {
          "name": "_role",
          "type": "string"
        }
      ],
      "name": "hasRole",
      "outputs": [
        {
          "name": "",
          "type": "bool"
        }
      ],
      "payable": false,
      "stateMutability": "view",
      "type": "function"
    },
    {
      "constant": false,
      "inputs": [],
      "name": "renounceOwnership",
      "outputs": [],
      "payable": false,
      "stateMutability": "nonpayable",
      "type": "function"
    },
    {
      "constant": true,
      "inputs": [],
      "name": "owner",
      "outputs": [
        {
          "name": "",
          "type": "address"
        }
      ],
      "payable": false,
      "stateMutability": "view",
      "type": "function"
    },
    {
      "constant": false,
      "inputs": [
        {
          "name": "_newOwner",
          "type": "address"
        }
      ],
      "name": "transferOwnership",
      "outputs": [],
      "payable": false,
      "stateMutability": "nonpayable",
      "type": "function"
    },
    {
      "anonymous": false,
      "inputs": [
        {
          "indexed": true,
          "name": "operator",
          "type": "address"
        },
        {
          "indexed": false,
          "name": "role",
          "type": "string"
        }
      ],
      "name": "RoleAdded",
      "type": "event"
    },
    {
      "anonymous": false,
      "inputs": [
        {
          "indexed": true,
          "name": "operator",
          "type": "address"
        },
        {
          "indexed": false,
          "name": "role",
          "type": "string"
        }
      ],
      "name": "RoleRemoved",
      "type": "event"
    },
    {
      "anonymous": false,
      "inputs": [
        {
          "indexed": true,
          "name": "previousOwner",
          "type": "address"
        }
      ],
      "name": "OwnershipRenounced",
      "type": "event"
    },
    {
      "anonymous": false,
      "inputs": [
        {
          "indexed": true,
          "name": "previousOwner",
          "type": "address"
        },
        {
          "indexed": true,
          "name": "newOwner",
          "type": "address"
        }
      ],
      "name": "OwnershipTransferred",
      "type": "event"
    },
    {
      "constant": false,
      "inputs": [
        {
          "name": "_operator",
          "type": "address"
        }
      ],
      "name": "addAddressToWhitelist",
      "outputs": [],
      "payable": false,
      "stateMutability": "nonpayable",
      "type": "function"
    },
    {
      "constant": true,
      "inputs": [
        {
          "name": "_operator",
          "type": "address"
        }
      ],
      "name": "whitelist",
      "outputs": [
        {
          "name": "",
          "type": "bool"
        }
      ],
      "payable": false,
      "stateMutability": "view",
      "type": "function"
    },
    {
      "constant": false,
      "inputs": [
        {
          "name": "_operators",
          "type": "address[]"
        }
      ],
      "name": "addAddressesToWhitelist",
      "outputs": [],
      "payable": false,
      "stateMutability": "nonpayable",
      "type": "function"
    },
    {
      "constant": false,
      "inputs": [
        {
          "name": "_operator",
          "type": "address"
        }
      ],
      "name": "removeAddressFromWhitelist",
      "outputs": [],
      "payable": false,
      "stateMutability": "nonpayable",
      "type": "function"
    },
    {
      "constant": false,
      "inputs": [
        {
          "name": "_operators",
          "type": "address[]"
        }
      ],
      "name": "removeAddressesFromWhitelist",
      "outputs": [],
      "payable": false,
      "stateMutability": "nonpayable",
      "type": "function"
    }
  ],
  "bytecode": "0x608060405260008054600160a060020a031916331790556109df806100256000396000f3006080604052600436106100ae5763ffffffff7c01000000000000000000000000000000000000000000000000000000006000350416630988ca8c81146100b357806318b919e91461011c578063217fe6c6146101a657806324953eaa14610221578063286dd3f514610276578063715018a6146102975780637b9417c8146102ac5780638da5cb5b146102cd5780639b19251a146102fe578063e2ec6ec31461031f578063f2fde38b14610374575b600080fd5b3480156100bf57600080fd5b5060408051602060046024803582810135601f810185900485028601850190965285855261011a958335600160a060020a03169536956044949193909101919081908401838280828437509497506103959650505050505050565b005b34801561012857600080fd5b50610131610403565b6040805160208082528351818301528351919283929083019185019080838360005b8381101561016b578181015183820152602001610153565b50505050905090810190601f1680156101985780820380516001836020036101000a031916815260200191505b509250505060405180910390f35b3480156101b257600080fd5b5060408051602060046024803582810135601f810185900485028601850190965285855261020d958335600160a060020a031695369560449491939091019190819084018382808284375094975061043a9650505050505050565b604080519115158252519081900360200190f35b34801561022d57600080fd5b506040805160206004803580820135838102808601850190965280855261011a953695939460249493850192918291850190849080828437509497506104ad9650505050505050565b34801561028257600080fd5b5061011a600160a060020a03600435166104fa565b3480156102a357600080fd5b5061011a610553565b3480156102b857600080fd5b5061011a600160a060020a03600435166105bf565b3480156102d957600080fd5b506102e2610615565b60408051600160a060020a039092168252519081900360200190f35b34801561030a57600080fd5b5061020d600160a060020a0360043516610624565b34801561032b57600080fd5b506040805160206004803580820135838102808601850190965280855261011a9536959394602494938501929182918501908490808284375094975061066b9650505050505050565b34801561038057600080fd5b5061011a600160a060020a03600435166106b8565b6103ff826001836040518082805190602001908083835b602083106103cb5780518252601f1990920191602091820191016103ac565b51815160209384036101000a60001901801990921691161790529201948552506040519384900301909220929150506106d8565b5050565b60408051808201909152600981527f77686974656c6973740000000000000000000000000000000000000000000000602082015281565b60006104a6836001846040518082805190602001908083835b602083106104725780518252601f199092019160209182019101610453565b51815160209384036101000a60001901801990921691161790529201948552506040519384900301909220929150506106ed565b9392505050565b60008054600160a060020a031633146104c557600080fd5b5060005b81518110156103ff576104f282828151811015156104e357fe5b906020019060200201516104fa565b6001016104c9565b600054600160a060020a0316331461051157600080fd5b610550816040805190810160405280600981526020017f77686974656c697374000000000000000000000000000000000000000000000081525061070c565b50565b600054600160a060020a0316331461056a57600080fd5b60008054604051600160a060020a03909116917ff8df31144d9c2f0f6b59d69b8b98abd5459d07f2742c4df920b25aae33c6482091a26000805473ffffffffffffffffffffffffffffffffffffffff19169055565b600054600160a060020a031633146105d657600080fd5b610550816040805190810160405280600981526020017f77686974656c697374000000000000000000000000000000000000000000000081525061081d565b600054600160a060020a031681565b6000610665826040805190810160405280600981526020017f77686974656c697374000000000000000000000000000000000000000000000081525061043a565b92915050565b60008054600160a060020a0316331461068357600080fd5b5060005b81518110156103ff576106b082828151811015156106a157fe5b906020019060200201516105bf565b600101610687565b600054600160a060020a031633146106cf57600080fd5b610550816108ef565b6106e282826106ed565b15156103ff57600080fd5b600160a060020a03166000908152602091909152604090205460ff1690565b610776826001836040518082805190602001908083835b602083106107425780518252601f199092019160209182019101610723565b51815160209384036101000a600019018019909216911617905292019485525060405193849003019092209291505061096c565b81600160a060020a03167fd211483f91fc6eff862467f8de606587a30c8fc9981056f051b897a418df803a826040518080602001828103825283818151815260200191508051906020019080838360005b838110156107df5781810151838201526020016107c7565b50505050905090810190601f16801561080c5780820380516001836020036101000a031916815260200191505b509250505060405180910390a25050565b610887826001836040518082805190602001908083835b602083106108535780518252601f199092019160209182019101610834565b51815160209384036101000a600019018019909216911617905292019485525060405193849003019092209291505061098e565b81600160a060020a03167fbfec83d64eaa953f2708271a023ab9ee82057f8f3578d548c1a4ba0b5b70048982604051808060200182810382528381815181526020019150805190602001908083836000838110156107df5781810151838201526020016107c7565b600160a060020a038116151561090457600080fd5b60008054604051600160a060020a03808516939216917f8be0079c531659141344cd1fd0a4f28419497f9722a3daafe3b4186f6b6457e091a36000805473ffffffffffffffffffffffffffffffffffffffff1916600160a060020a0392909216919091179055565b600160a060020a0316600090815260209190915260409020805460ff19169055565b600160a060020a0316600090815260209190915260409020805460ff191660011790555600a165627a7a723058202ef4dcc13cbcd8adb3fc163f520b6b1bc2978c2b07ed351b6d003dbf5abde2db0029",
  "source": "pragma solidity ^0.4.24;\n\n\nimport \"../ownership/Ownable.sol\";\nimport \"../access/rbac/RBAC.sol\";\n\n\n/**\n * @title Whitelist\n * @dev The Whitelist contract has a whitelist of addresses, and provides basic authorization control functions.\n * This simplifies the implementation of \"user permissions\".\n */\ncontract Whitelist is Ownable, RBAC {\n  string public constant ROLE_WHITELISTED = \"whitelist\";\n\n  /**\n   * @dev Throws if operator is not whitelisted.\n   * @param _operator address\n   */\n  modifier onlyIfWhitelisted(address _operator) {\n    checkRole(_operator, ROLE_WHITELISTED);\n    _;\n  }\n\n  /**\n   * @dev add an address to the whitelist\n   * @param _operator address\n   * @return true if the address was added to the whitelist, false if the address was already in the whitelist\n   */\n  function addAddressToWhitelist(address _operator)\n    public\n    onlyOwner\n  {\n    addRole(_operator, ROLE_WHITELISTED);\n  }\n\n  /**\n   * @dev getter to determine if address is in whitelist\n   */\n  function whitelist(address _operator)\n    public\n    view\n    returns (bool)\n  {\n    return hasRole(_operator, ROLE_WHITELISTED);\n  }\n\n  /**\n   * @dev add addresses to the whitelist\n   * @param _operators addresses\n   * @return true if at least one address was added to the whitelist,\n   * false if all addresses were already in the whitelist\n   */\n  function addAddressesToWhitelist(address[] _operators)\n    public\n    onlyOwner\n  {\n    for (uint256 i = 0; i < _operators.length; i++) {\n      addAddressToWhitelist(_operators[i]);\n    }\n  }\n\n  /**\n   * @dev remove an address from the whitelist\n   * @param _operator address\n   * @return true if the address was removed from the whitelist,\n   * false if the address wasn't in the whitelist in the first place\n   */\n  function removeAddressFromWhitelist(address _operator)\n    public\n    onlyOwner\n  {\n    removeRole(_operator, ROLE_WHITELISTED);\n  }\n\n  /**\n   * @dev remove addresses from the whitelist\n   * @param _operators addresses\n   * @return true if at least one address was removed from the whitelist,\n   * false if all addresses weren't in the whitelist in the first place\n   */\n  function removeAddressesFromWhitelist(address[] _operators)\n    public\n    onlyOwner\n  {\n    for (uint256 i = 0; i < _operators.length; i++) {\n      removeAddressFromWhitelist(_operators[i]);\n    }\n  }\n\n}\n",
  "sourcePath": "openzeppelin-solidity/contracts/access/Whitelist.sol",
  "compiler": {
    "name": "solc",
    "version": "0.4.24+commit.e67f0147.Emscripten.clang"
  },
  "schemaVersion": "3.0.1",
  "updatedAt": "2019-01-28T21:23:07.181Z",
  "devdoc": {
    "methods": {
      "addAddressToWhitelist(address)": {
        "details": "add an address to the whitelist",
        "params": {
          "_operator": "address"
        },
        "return": "true if the address was added to the whitelist, false if the address was already in the whitelist"
      },
      "addAddressesToWhitelist(address[])": {
        "details": "add addresses to the whitelist",
        "params": {
          "_operators": "addresses"
        },
        "return": "true if at least one address was added to the whitelist, false if all addresses were already in the whitelist"
      },
      "checkRole(address,string)": {
        "details": "reverts if addr does not have role",
        "params": {
          "_operator": "address",
          "_role": "the name of the role // reverts"
        }
      },
      "hasRole(address,string)": {
        "details": "determine if addr has role",
        "params": {
          "_operator": "address",
          "_role": "the name of the role"
        },
        "return": "bool"
      },
      "removeAddressFromWhitelist(address)": {
        "details": "remove an address from the whitelist",
        "params": {
          "_operator": "address"
        },
        "return": "true if the address was removed from the whitelist, false if the address wasn't in the whitelist in the first place"
      },
      "removeAddressesFromWhitelist(address[])": {
        "details": "remove addresses from the whitelist",
        "params": {
          "_operators": "addresses"
        },
        "return": "true if at least one address was removed from the whitelist, false if all addresses weren't in the whitelist in the first place"
      },
      "renounceOwnership()": {
        "details": "Allows the current owner to relinquish control of the contract."
      },
      "transferOwnership(address)": {
        "details": "Allows the current owner to transfer control of the contract to a newOwner.",
        "params": {
          "_newOwner": "The address to transfer ownership to."
        }
      },
      "whitelist(address)": {
        "details": "getter to determine if address is in whitelist"
      }
    },
    "title": "Whitelist"
  },
  "userdoc": {
    "methods": {
      "renounceOwnership()": {
        "notice": "Renouncing to ownership will leave the contract without an owner. It will not be possible to call the functions with the `onlyOwner` modifier anymore."
      }
    }
  }
}